{
  "contractName": "GraphNode",
  "abi": [
    {
      "constant": false,
      "inputs": [
        {
          "name": "key",
          "type": "string"
        },
        {
          "name": "value",
          "type": "string"
        }
      ],
      "name": "addKeyAuth",
      "outputs": [
        {
          "name": "",
          "type": "bool"
        }
      ],
      "payable": false,
      "stateMutability": "nonpayable",
      "type": "function"
    },
    {
      "constant": true,
      "inputs": [],
      "name": "smartKey",
      "outputs": [
        {
          "name": "",
          "type": "address"
        }
      ],
      "payable": false,
      "stateMutability": "view",
      "type": "function"
    },
    {
      "constant": true,
      "inputs": [
        {
          "name": "",
          "type": "address"
        },
        {
          "name": "",
          "type": "uint256"
        }
      ],
      "name": "transactions",
      "outputs": [
        {
          "name": "account",
          "type": "address"
        },
        {
          "name": "date",
          "type": "uint256"
        },
        {
          "name": "amount",
          "type": "uint256"
        },
        {
          "name": "transaction_type",
          "type": "uint256"
        }
      ],
      "payable": false,
      "stateMutability": "view",
      "type": "function"
    },
    {
      "constant": true,
      "inputs": [
        {
          "name": "",
          "type": "uint256"
        }
      ],
      "name": "admins",
      "outputs": [
        {
          "name": "",
          "type": "address"
        }
      ],
      "payable": false,
      "stateMutability": "view",
      "type": "function"
    },
    {
      "constant": false,
      "inputs": [
        {
          "name": "_owner",
          "type": "address"
        }
      ],
      "name": "removeOwner",
      "outputs": [],
      "payable": false,
      "stateMutability": "nonpayable",
      "type": "function"
    },
    {
      "constant": true,
      "inputs": [],
      "name": "getHealthStatus",
      "outputs": [
        {
          "name": "",
          "type": "bytes32"
        }
      ],
      "payable": false,
      "stateMutability": "view",
      "type": "function"
    },
    {
      "constant": true,
      "inputs": [],
      "name": "contrib_amount",
      "outputs": [
        {
          "name": "",
          "type": "uint256"
        }
      ],
      "payable": false,
      "stateMutability": "view",
      "type": "function"
    },
    {
      "constant": true,
      "inputs": [
        {
          "name": "_address",
          "type": "address"
        }
      ],
      "name": "getTransactionCount",
      "outputs": [
        {
          "name": "",
          "type": "uint256"
        }
      ],
      "payable": false,
      "stateMutability": "view",
      "type": "function"
    },
    {
      "constant": true,
      "inputs": [
        {
          "name": "",
          "type": "address"
        }
      ],
      "name": "isAdmin",
      "outputs": [
        {
          "name": "",
          "type": "bool"
        }
      ],
      "payable": false,
      "stateMutability": "view",
      "type": "function"
    },
    {
      "constant": true,
      "inputs": [
        {
          "name": "",
          "type": "address"
        }
      ],
      "name": "isOwner",
      "outputs": [
        {
          "name": "",
          "type": "bool"
        }
      ],
      "payable": false,
      "stateMutability": "view",
      "type": "function"
    },
    {
      "constant": true,
      "inputs": [],
      "name": "getAdmins",
      "outputs": [
        {
          "name": "",
          "type": "address[]"
        }
      ],
      "payable": false,
      "stateMutability": "view",
      "type": "function"
    },
    {
      "constant": true,
      "inputs": [],
      "name": "href",
      "outputs": [
        {
          "name": "",
          "type": "string"
        }
      ],
      "payable": false,
      "stateMutability": "view",
      "type": "function"
    },
    {
      "constant": false,
      "inputs": [
        {
          "name": "amount",
          "type": "uint256"
        },
        {
          "name": "beneficiary",
          "type": "address"
        }
      ],
      "name": "transferEth",
      "outputs": [],
      "payable": false,
      "stateMutability": "nonpayable",
      "type": "function"
    },
    {
      "constant": true,
      "inputs": [
        {
          "name": "hash",
          "type": "bytes32"
        }
      ],
      "name": "getValueByHash",
      "outputs": [
        {
          "name": "",
          "type": "string"
        }
      ],
      "payable": false,
      "stateMutability": "view",
      "type": "function"
    },
    {
      "constant": true,
      "inputs": [
        {
          "name": "",
          "type": "bytes32"
        }
      ],
      "name": "itemMetaData",
      "outputs": [
        {
          "name": "",
          "type": "address"
        }
      ],
      "payable": false,
      "stateMutability": "view",
      "type": "function"
    },
    {
      "constant": false,
      "inputs": [
        {
          "name": "_health",
          "type": "uint8"
        }
      ],
      "name": "setHealth",
      "outputs": [],
      "payable": true,
      "stateMutability": "payable",
      "type": "function"
    },
    {
      "constant": true,
      "inputs": [
        {
          "name": "key",
          "type": "string"
        }
      ],
      "name": "getHash",
      "outputs": [
        {
          "name": "",
          "type": "bytes32"
        }
      ],
      "payable": false,
      "stateMutability": "pure",
      "type": "function"
    },
    {
      "constant": true,
      "inputs": [],
      "name": "getSmartKey",
      "outputs": [
        {
          "name": "",
          "type": "address"
        }
      ],
      "payable": false,
      "stateMutability": "view",
      "type": "function"
    },
    {
      "constant": true,
      "inputs": [],
      "name": "getHealth",
      "outputs": [
        {
          "name": "",
          "type": "uint8"
        }
      ],
      "payable": false,
      "stateMutability": "view",
      "type": "function"
    },
    {
      "constant": false,
      "inputs": [
        {
          "name": "admin",
          "type": "address"
        }
      ],
      "name": "addAdmin",
      "outputs": [],
      "payable": false,
      "stateMutability": "nonpayable",
      "type": "function"
    },
    {
      "constant": false,
      "inputs": [
        {
          "name": "_owner",
          "type": "address"
        }
      ],
      "name": "addOwner",
      "outputs": [],
      "payable": false,
      "stateMutability": "nonpayable",
      "type": "function"
    },
    {
      "constant": true,
      "inputs": [],
      "name": "selectItems",
      "outputs": [
        {
          "name": "",
          "type": "address[]"
        }
      ],
      "payable": false,
      "stateMutability": "view",
      "type": "function"
    },
    {
      "constant": true,
      "inputs": [],
      "name": "health",
      "outputs": [
        {
          "name": "",
          "type": "uint8"
        }
      ],
      "payable": false,
      "stateMutability": "view",
      "type": "function"
    },
    {
      "constant": true,
      "inputs": [
        {
          "name": "",
          "type": "address"
        }
      ],
      "name": "activated",
      "outputs": [
        {
          "name": "",
          "type": "uint256"
        }
      ],
      "payable": false,
      "stateMutability": "view",
      "type": "function"
    },
    {
      "constant": false,
      "inputs": [
        {
          "name": "user",
          "type": "address"
        }
      ],
      "name": "activateKey",
      "outputs": [],
      "payable": true,
      "stateMutability": "payable",
      "type": "function"
    },
    {
      "constant": false,
      "inputs": [],
      "name": "returnKey",
      "outputs": [],
      "payable": false,
      "stateMutability": "nonpayable",
      "type": "function"
    },
    {
      "constant": false,
      "inputs": [
        {
          "name": "_href",
          "type": "string"
        }
      ],
      "name": "setHref",
      "outputs": [
        {
          "name": "",
          "type": "bool"
        }
      ],
      "payable": false,
      "stateMutability": "nonpayable",
      "type": "function"
    },
    {
      "constant": true,
      "inputs": [
        {
          "name": "",
          "type": "uint256"
        }
      ],
      "name": "items",
      "outputs": [
        {
          "name": "",
          "type": "address"
        }
      ],
      "payable": false,
      "stateMutability": "view",
      "type": "function"
    },
    {
      "constant": true,
      "inputs": [],
      "name": "state",
      "outputs": [
        {
          "name": "",
          "type": "uint8"
        }
      ],
      "payable": false,
      "stateMutability": "view",
      "type": "function"
    },
    {
      "constant": true,
      "inputs": [
        {
          "name": "",
          "type": "uint256"
        }
      ],
      "name": "meta",
      "outputs": [
        {
          "name": "",
          "type": "address"
        }
      ],
      "payable": false,
      "stateMutability": "view",
      "type": "function"
    },
    {
      "constant": false,
      "inputs": [
        {
          "name": "hash",
          "type": "bytes32"
        },
        {
          "name": "value",
          "type": "string"
        }
      ],
      "name": "addKeyValueByHash",
      "outputs": [
        {
          "name": "",
          "type": "bool"
        }
      ],
      "payable": false,
      "stateMutability": "nonpayable",
      "type": "function"
    },
    {
      "constant": false,
      "inputs": [
        {
          "name": "banned",
          "type": "address"
        }
      ],
      "name": "addBanned",
      "outputs": [],
      "payable": false,
      "stateMutability": "nonpayable",
      "type": "function"
    },
    {
      "constant": false,
      "inputs": [
        {
          "name": "_rel",
          "type": "string"
        },
        {
          "name": "_val",
          "type": "string"
        }
      ],
      "name": "upsertMetaData",
      "outputs": [
        {
          "name": "",
          "type": "bool"
        }
      ],
      "payable": true,
      "stateMutability": "payable",
      "type": "function"
    },
    {
      "constant": true,
      "inputs": [
        {
          "name": "",
          "type": "bytes32"
        }
      ],
      "name": "nodeData",
      "outputs": [
        {
          "name": "",
          "type": "address"
        }
      ],
      "payable": false,
      "stateMutability": "view",
      "type": "function"
    },
    {
      "constant": true,
      "inputs": [],
      "name": "selectMetaData",
      "outputs": [
        {
          "name": "",
          "type": "address[]"
        }
      ],
      "payable": false,
      "stateMutability": "view",
      "type": "function"
    },
    {
      "constant": true,
      "inputs": [],
      "name": "vault",
      "outputs": [
        {
          "name": "",
          "type": "address"
        }
      ],
      "payable": false,
      "stateMutability": "view",
      "type": "function"
    },
    {
      "constant": true,
      "inputs": [
        {
          "name": "key",
          "type": "string"
        }
      ],
      "name": "getKeyAuth",
      "outputs": [
        {
          "name": "",
          "type": "string"
        }
      ],
      "payable": false,
      "stateMutability": "view",
      "type": "function"
    },
    {
      "inputs": [
        {
          "name": "_smartKey",
          "type": "address"
        },
        {
          "name": "adminAddress",
          "type": "address[]"
        },
        {
          "name": "_href",
          "type": "string"
        }
      ],
      "payable": false,
      "stateMutability": "nonpayable",
      "type": "constructor"
    },
    {
      "payable": true,
      "stateMutability": "payable",
      "type": "fallback"
    },
    {
      "anonymous": false,
      "inputs": [
        {
          "indexed": false,
          "name": "status",
          "type": "uint8"
        }
      ],
      "name": "HealthUpdate",
      "type": "event"
    },
    {
      "constant": false,
      "inputs": [
        {
          "name": "_node",
          "type": "address"
        },
        {
          "name": "_href",
          "type": "string"
        }
      ],
      "name": "upsertItem",
      "outputs": [
        {
          "name": "",
          "type": "bool"
        }
      ],
      "payable": true,
      "stateMutability": "payable",
      "type": "function"
    },
    {
      "constant": true,
      "inputs": [
        {
          "name": "_href",
          "type": "string"
        }
      ],
      "name": "getItem",
      "outputs": [
        {
          "name": "",
          "type": "address"
        }
      ],
      "payable": false,
      "stateMutability": "view",
      "type": "function"
    }
  ],
  "bytecode": "0x606060405234156200001057600080fd5b60405162004db338038062004db38339810160405280805190602001909190805182019190602001805182019190505060008383818181308260008090505b8151811015620000d657600160008084848151811015156200006d57fe5b9060200190602002015173ffffffffffffffffffffffffffffffffffffffff1673ffffffffffffffffffffffffffffffffffffffff16815260200190815260200160002060006101000a81548160ff02191690831515021790555080806001019150506200004f565b8160019080519060200190620000ee929190620004d0565b5050506001600260003373ffffffffffffffffffffffffffffffffffffffff1673ffffffffffffffffffffffffffffffffffffffff16815260200190815260200160002060006101000a81548160ff02191690831515021790555060008173ffffffffffffffffffffffffffffffffffffffff16141515156200017057600080fd5b80600460006101000a81548173ffffffffffffffffffffffffffffffffffffffff021916908373ffffffffffffffffffffffffffffffffffffffff16021790555081600360006101000a81548173ffffffffffffffffffffffffffffffffffffffff021916908373ffffffffffffffffffffffffffffffffffffffff1602179055506000600460146101000a81548160ff021916908360028111156200021257fe5b02179055506001600260008373ffffffffffffffffffffffffffffffffffffffff1673ffffffffffffffffffffffffffffffffffffffff16815260200190815260200160002060006101000a81548160ff0219169083151502179055506001600260008473ffffffffffffffffffffffffffffffffffffffff1673ffffffffffffffffffffffffffffffffffffffff16815260200190815260200160002060006101000a81548160ff021916908315150217905550505081600360006101000a81548173ffffffffffffffffffffffffffffffffffffffff021916908373ffffffffffffffffffffffffffffffffffffffff1602179055505050505081600b9080519060200190620003269291906200055f565b50600090505b82518110156200037b576200036d83828151811015156200034957fe5b90602001906020020151620003c3640100000000026200257c176401000000009004565b80806001019150506200032c565b6200039a84620003c3640100000000026200257c176401000000009004565b620003b930620003c3640100000000026200257c176401000000009004565b5050505062000654565b600260003373ffffffffffffffffffffffffffffffffffffffff1673ffffffffffffffffffffffffffffffffffffffff16815260200190815260200160002060009054906101000a900460ff1615156200041c57600080fd5b600260003373ffffffffffffffffffffffffffffffffffffffff1673ffffffffffffffffffffffffffffffffffffffff16815260200190815260200160002060009054906101000a900460ff1615156200047557600080fd5b6001600260008373ffffffffffffffffffffffffffffffffffffffff1673ffffffffffffffffffffffffffffffffffffffff16815260200190815260200160002060006101000a81548160ff02191690831515021790555050565b8280548282559060005260206000209081019282156200054c579160200282015b828111156200054b5782518260006101000a81548173ffffffffffffffffffffffffffffffffffffffff021916908373ffffffffffffffffffffffffffffffffffffffff16021790555091602001919060010190620004f1565b5b5090506200055b9190620005e6565b5090565b828054600181600116156101000203166002900490600052602060002090601f016020900481019282601f10620005a257805160ff1916838001178555620005d3565b82800160010185558215620005d3579182015b82811115620005d2578251825591602001919060010190620005b5565b5b509050620005e291906200062c565b5090565b6200062991905b808211156200062557600081816101000a81549073ffffffffffffffffffffffffffffffffffffffff021916905550600101620005ed565b5090565b90565b6200065191905b808211156200064d57600081600090555060010162000633565b5090565b90565b61474f80620006646000396000f3006060604052600436106200020b576000357c0100000000000000000000000000000000000000000000000000000000900463ffffffff16806303db428d1462000218578063113adf4914620002d357806314538128146200032b57806314bfd6d014620003c5578063173825d9146200042b5780631801e1561462000467578063202e079d146200049b57806323ca0cd214620004c757806324d7806c14620005175780632f54bf6e146200056b57806331ae450b14620005bf57806336eeaa6a146200062e57806349f9c0e414620006c25780635436e5a014620007075780635571edeb14620007ad5780635b2ce58614620008175780635b6beeb914620008345780635c866c7814620008b0578063640e7fd5146200090857806367d90da214620009435780637048027514620009ce5780637065cb481462000a0a57806374ddcd6e1462000a465780637633a22c1462000ab5578063779d86771462000af05780639172fe081462000b40578063af92c1811462000b70578063b6010fcd1462000b88578063b9d191661462000c28578063bfb231d21462000ca0578063c19d93fb1462000d06578063cd5cfdaf1462000d41578063d4c2f75c1462000da7578063e1b2e8b31462000e2c578063ec6f214e1462000e68578063f63553b51462000f17578063f95fd40b1462000f81578063fbfa77cf1462000ff0578063fd08e0c71462001048575b620002163362001124565b005b34156200022457600080fd5b620002b9600480803590602001908201803590602001908080601f0160208091040260200160405190810160405280939291908181526020018383808284378201915050505050509190803590602001908201803590602001908080601f0160208091040260200160405190810160405280939291908181526020018383808284378201915050505050509190505062001272565b604051808215151515815260200191505060405180910390f35b3415620002df57600080fd5b620002e962001345565b604051808273ffffffffffffffffffffffffffffffffffffffff1673ffffffffffffffffffffffffffffffffffffffff16815260200191505060405180910390f35b34156200033757600080fd5b6200036e600480803573ffffffffffffffffffffffffffffffffffffffff169060200190919080359060200190919050506200136b565b604051808573ffffffffffffffffffffffffffffffffffffffff1673ffffffffffffffffffffffffffffffffffffffff16815260200184815260200183815260200182815260200194505050505060405180910390f35b3415620003d157600080fd5b620003e96004808035906020019091905050620013d8565b604051808273ffffffffffffffffffffffffffffffffffffffff1673ffffffffffffffffffffffffffffffffffffffff16815260200191505060405180910390f35b34156200043757600080fd5b62000465600480803573ffffffffffffffffffffffffffffffffffffffff1690602001909190505062001418565b005b34156200047357600080fd5b6200047d62001525565b60405180826000191660001916815260200191505060405180910390f35b3415620004a757600080fd5b620004b1620017c2565b6040518082815260200191505060405180910390f35b3415620004d357600080fd5b62000501600480803573ffffffffffffffffffffffffffffffffffffffff16906020019091905050620017c8565b6040518082815260200191505060405180910390f35b34156200052357600080fd5b62000551600480803573ffffffffffffffffffffffffffffffffffffffff1690602001909190505062001814565b604051808215151515815260200191505060405180910390f35b34156200057757600080fd5b620005a5600480803573ffffffffffffffffffffffffffffffffffffffff1690602001909190505062001834565b604051808215151515815260200191505060405180910390f35b3415620005cb57600080fd5b620005d562001854565b6040518080602001828103825283818151815260200191508051906020019060200280838360005b838110156200061a578082015181840152602081019050620005fd565b505050509050019250505060405180910390f35b34156200063a57600080fd5b62000644620018ec565b6040518080602001828103825283818151815260200191508051906020019080838360005b838110156200068657808201518184015260208101905062000669565b50505050905090810190601f168015620006b45780820380516001836020036101000a031916815260200191505b509250505060405180910390f35b3415620006ce57600080fd5b62000705600480803590602001909190803573ffffffffffffffffffffffffffffffffffffffff169060200190919050506200198e565b005b34156200071357600080fd5b6200072f60048080356000191690602001909190505062001b6c565b6040518080602001828103825283818151815260200191508051906020019080838360005b838110156200077157808201518184015260208101905062000754565b50505050905090810190601f1680156200079f5780820380516001836020036101000a031916815260200191505b509250505060405180910390f35b3415620007b957600080fd5b620007d560048080356000191690602001909190505062001c8e565b604051808273ffffffffffffffffffffffffffffffffffffffff1673ffffffffffffffffffffffffffffffffffffffff16815260200191505060405180910390f35b62000832600480803560ff1690602001909190505062001cc1565b005b34156200084057600080fd5b62000892600480803590602001908201803590602001908080601f0160208091040260200160405190810160405280939291908181526020018383808284378201915050505050509190505062002111565b60405180826000191660001916815260200191505060405180910390f35b3415620008bc57600080fd5b620008c66200217f565b604051808273ffffffffffffffffffffffffffffffffffffffff1673ffffffffffffffffffffffffffffffffffffffff16815260200191505060405180910390f35b34156200091457600080fd5b6200091e620021a9565b604051808260068111156200092f57fe5b60ff16815260200191505060405180910390f35b620009b4600480803573ffffffffffffffffffffffffffffffffffffffff1690602001909190803590602001908201803590602001908080601f01602080910402602001604051908101604052809392919081815260200183838082843782019150505050505091905050620021c0565b604051808215151515815260200191505060405180910390f35b3415620009da57600080fd5b62000a08600480803573ffffffffffffffffffffffffffffffffffffffff169060200190919050506200240d565b005b341562000a1657600080fd5b62000a44600480803573ffffffffffffffffffffffffffffffffffffffff169060200190919050506200257c565b005b341562000a5257600080fd5b62000a5c62002689565b6040518080602001828103825283818151815260200191508051906020019060200280838360005b8381101562000aa157808201518184015260208101905062000a84565b505050509050019250505060405180910390f35b341562000ac157600080fd5b62000acb62002721565b6040518082600681111562000adc57fe5b60ff16815260200191505060405180910390f35b341562000afc57600080fd5b62000b2a600480803573ffffffffffffffffffffffffffffffffffffffff1690602001909190505062002734565b6040518082815260200191505060405180910390f35b62000b6e600480803573ffffffffffffffffffffffffffffffffffffffff1690602001909190505062001124565b005b341562000b7c57600080fd5b62000b866200274c565b005b341562000b9457600080fd5b62000be6600480803590602001908201803590602001908080601f0160208091040260200160405190810160405280939291908181526020018383808284378201915050505050509190505062002803565b604051808273ffffffffffffffffffffffffffffffffffffffff1673ffffffffffffffffffffffffffffffffffffffff16815260200191505060405180910390f35b341562000c3457600080fd5b62000c86600480803590602001908201803590602001908080601f01602080910402602001604051908101604052809392919081815260200183838082843782019150505050505091905050620028e8565b604051808215151515815260200191505060405180910390f35b341562000cac57600080fd5b62000cc4600480803590602001909190505062002964565b604051808273ffffffffffffffffffffffffffffffffffffffff1673ffffffffffffffffffffffffffffffffffffffff16815260200191505060405180910390f35b341562000d1257600080fd5b62000d1c620029a4565b6040518082600281111562000d2d57fe5b60ff16815260200191505060405180910390f35b341562000d4d57600080fd5b62000d656004808035906020019091905050620029b7565b604051808273ffffffffffffffffffffffffffffffffffffffff1673ffffffffffffffffffffffffffffffffffffffff16815260200191505060405180910390f35b341562000db357600080fd5b62000e1260048080356000191690602001909190803590602001908201803590602001908080601f01602080910402602001604051908101604052809392919081815260200183838082843782019150505050505091905050620029f7565b604051808215151515815260200191505060405180910390f35b341562000e3857600080fd5b62000e66600480803573ffffffffffffffffffffffffffffffffffffffff1690602001909190505062002a8e565b005b62000efd600480803590602001908201803590602001908080601f0160208091040260200160405190810160405280939291908181526020018383808284378201915050505050509190803590602001908201803590602001908080601f0160208091040260200160405190810160405280939291908181526020018383808284378201915050505050509190505062002c6b565b604051808215151515815260200191505060405180910390f35b341562000f2357600080fd5b62000f3f6004808035600019169060200190919050506200335a565b604051808273ffffffffffffffffffffffffffffffffffffffff1673ffffffffffffffffffffffffffffffffffffffff16815260200191505060405180910390f35b341562000f8d57600080fd5b62000f976200338d565b6040518080602001828103825283818151815260200191508051906020019060200280838360005b8381101562000fdc57808201518184015260208101905062000fbf565b505050509050019250505060405180910390f35b341562000ffc57600080fd5b6200100662003425565b604051808273ffffffffffffffffffffffffffffffffffffffff1673ffffffffffffffffffffffffffffffffffffffff16815260200191505060405180910390f35b34156200105457600080fd5b620010a6600480803590602001908201803590602001908080601f016020809104026020016040519081016040528093929190818152602001838380828437820191505050505050919050506200344b565b6040518080602001828103825283818151815260200191508051906020019080838360005b83811015620010e8578082015181840152602081019050620010cb565b50505050905090810190601f168015620011165780820380516001836020036101000a031916815260200191505b509250505060405180910390f35b6001600460146101000a81548160ff021916908360028111156200114457fe5b021790555062001160346005546200352490919063ffffffff16565b600581905550600760008273ffffffffffffffffffffffffffffffffffffffff1673ffffffffffffffffffffffffffffffffffffffff1681526020019081526020016000208054806001018281620011b9919062003543565b916000526020600020906004020160006080604051908101604052803373ffffffffffffffffffffffffffffffffffffffff1681526020014281526020013481526020016000815250909190915060008201518160000160006101000a81548173ffffffffffffffffffffffffffffffffffffffff021916908373ffffffffffffffffffffffffffffffffffffffff16021790555060208201518160010155604082015181600201556060820151816003015550505050565b6000600260003373ffffffffffffffffffffffffffffffffffffffff1673ffffffffffffffffffffffffffffffffffffffff16815260200190815260200160002060009054906101000a900460ff161515620012cd57600080fd5b6200133d836040518082805190602001908083835b602083101515620013095780518252602082019150602081019050602083039250620012e2565b6001836020036101000a038019825116818451168082178552505050505050905001915050604051809103902083620029f7565b905092915050565b600360009054906101000a900473ffffffffffffffffffffffffffffffffffffffff1681565b6007602052816000526040600020818154811015156200138757fe5b9060005260206000209060040201600091509150508060000160009054906101000a900473ffffffffffffffffffffffffffffffffffffffff16908060010154908060020154908060030154905084565b600181815481101515620013e857fe5b90600052602060002090016000915054906101000a900473ffffffffffffffffffffffffffffffffffffffff1681565b600260003373ffffffffffffffffffffffffffffffffffffffff1673ffffffffffffffffffffffffffffffffffffffff16815260200190815260200160002060009054906101000a900460ff1615156200147157600080fd5b600260003373ffffffffffffffffffffffffffffffffffffffff1673ffffffffffffffffffffffffffffffffffffffff16815260200190815260200160002060009054906101000a900460ff161515620014ca57600080fd5b6000600260008373ffffffffffffffffffffffffffffffffffffffff1673ffffffffffffffffffffffffffffffffffffffff16815260200190815260200160002060006101000a81548160ff02191690831515021790555050565b60008060068111156200153457fe5b600460159054906101000a900460ff1660068111156200155057fe5b141562001580577f50726f766973696f6e696e6700000000000000000000000000000000000000009050620017bf565b600160068111156200158e57fe5b600460159054906101000a900460ff166006811115620015aa57fe5b1415620015da577f43657274696669656400000000000000000000000000000000000000000000009050620017bf565b60026006811115620015e857fe5b600460159054906101000a900460ff1660068111156200160457fe5b141562001634577f4d6f6469666965640000000000000000000000000000000000000000000000009050620017bf565b600360068111156200164257fe5b600460159054906101000a900460ff1660068111156200165e57fe5b14156200168e577f436f6d70726f6d697365640000000000000000000000000000000000000000009050620017bf565b600460068111156200169c57fe5b600460159054906101000a900460ff166006811115620016b857fe5b1415620016e8577f4d616c66756e6374696f6e696e670000000000000000000000000000000000009050620017bf565b60056006811115620016f657fe5b600460159054906101000a900460ff1660068111156200171257fe5b141562001742577f4861726d66756c000000000000000000000000000000000000000000000000009050620017bf565b6006808111156200174f57fe5b600460159054906101000a900460ff1660068111156200176b57fe5b14156200179b577f436f756e746572666569740000000000000000000000000000000000000000009050620017bf565b7f436f756e7465726665697400000000000000000000000000000000000000000090505b90565b60055481565b6000600760008373ffffffffffffffffffffffffffffffffffffffff1673ffffffffffffffffffffffffffffffffffffffff168152602001908152602001600020805490509050919050565b60006020528060005260406000206000915054906101000a900460ff1681565b60026020528060005260406000206000915054906101000a900460ff1681565b6200185e62003578565b6001805480602002602001604051908101604052809291908181526020018280548015620018e257602002820191906000526020600020905b8160009054906101000a900473ffffffffffffffffffffffffffffffffffffffff1673ffffffffffffffffffffffffffffffffffffffff168152602001906001019080831162001897575b5050505050905090565b600b8054600181600116156101000203166002900480601f016020809104026020016040519081016040528092919081815260200182805460018160011615610100020316600290048015620019865780601f106200195a5761010080835404028352916020019162001986565b820191906000526020600020905b8154815290600101906020018083116200196857829003601f168201915b505050505081565b600260003373ffffffffffffffffffffffffffffffffffffffff1673ffffffffffffffffffffffffffffffffffffffff16815260200190815260200160002060009054906101000a900460ff161515620019e757600080fd5b60016002811115620019f557fe5b600460149054906101000a900460ff16600281111562001a1157fe5b14151562001a1e57600080fd5b8073ffffffffffffffffffffffffffffffffffffffff166108fc839081150290604051600060405180830381858888f19350505050151562001a5f57600080fd5b600760003073ffffffffffffffffffffffffffffffffffffffff1673ffffffffffffffffffffffffffffffffffffffff168152602001908152602001600020805480600101828162001ab2919062003543565b916000526020600020906004020160006080604051908101604052808573ffffffffffffffffffffffffffffffffffffffff1681526020014281526020018681526020016001815250909190915060008201518160000160006101000a81548173ffffffffffffffffffffffffffffffffffffffff021916908373ffffffffffffffffffffffffffffffffffffffff1602179055506020820151816001015560408201518160020155606082015181600301555050505050565b62001b766200358c565b600260003373ffffffffffffffffffffffffffffffffffffffff1673ffffffffffffffffffffffffffffffffffffffff16815260200190815260200160002060009054906101000a900460ff16151562001bcf57600080fd5b6008600083600019166000191681526020019081526020016000208054600181600116156101000203166002900480601f01602080910402602001604051908101604052809291908181526020018280546001816001161561010002031660029004801562001c825780601f1062001c565761010080835404028352916020019162001c82565b820191906000526020600020905b81548152906001019060200180831162001c6457829003601f168201915b50505050509050919050565b600a6020528060005260406000206000915054906101000a900473ffffffffffffffffffffffffffffffffffffffff1681565b6509184e72a0003411156200210e5780600460156101000a81548160ff0219169083600681111562001cef57fe5b0217905550600181600681111562001d0357fe5b111562001e5857600360009054906101000a900473ffffffffffffffffffffffffffffffffffffffff1673ffffffffffffffffffffffffffffffffffffffff16630d6d3b6e3430307f4865616c74685761726e696e67000000000000000000000000000000000000006000604051602001526040518563ffffffff167c0100000000000000000000000000000000000000000000000000000000028152600401808473ffffffffffffffffffffffffffffffffffffffff1673ffffffffffffffffffffffffffffffffffffffff1681526020018373ffffffffffffffffffffffffffffffffffffffff1673ffffffffffffffffffffffffffffffffffffffff168152602001826000191660001916815260200193505050506020604051808303818588803b151562001e3457600080fd5b6125ee5a03f1151562001e4657600080fd5b50505050604051805190505062001fa1565b600360009054906101000a900473ffffffffffffffffffffffffffffffffffffffff1673ffffffffffffffffffffffffffffffffffffffff16630d6d3b6e3430307f4865616c746855706461746500000000000000000000000000000000000000006000604051602001526040518563ffffffff167c0100000000000000000000000000000000000000000000000000000000028152600401808473ffffffffffffffffffffffffffffffffffffffff1673ffffffffffffffffffffffffffffffffffffffff1681526020018373ffffffffffffffffffffffffffffffffffffffff1673ffffffffffffffffffffffffffffffffffffffff168152602001826000191660001916815260200193505050506020604051808303818588803b151562001f8257600080fd5b6125ee5a03f1151562001f9457600080fd5b5050505060405180519050505b7fb6d7372bb54b80a5b1d60d3b1da737719783cc92a2095f10d9195105f7abeca5816040518082600681111562001fd457fe5b60ff16815260200191505060405180910390a162001ffe346005546200352490919063ffffffff16565b600581905550600760003073ffffffffffffffffffffffffffffffffffffffff1673ffffffffffffffffffffffffffffffffffffffff168152602001908152602001600020805480600101828162002057919062003543565b916000526020600020906004020160006080604051908101604052803373ffffffffffffffffffffffffffffffffffffffff1681526020014281526020013481526020016000815250909190915060008201518160000160006101000a81548173ffffffffffffffffffffffffffffffffffffffff021916908373ffffffffffffffffffffffffffffffffffffffff1602179055506020820151816001015560408201518160020155606082015181600301555050505b50565b6000816040518082805190602001908083835b6020831015156200214b578051825260208201915060208101905060208303925062002124565b6001836020036101000a03801982511681845116808217855250505050505090500191505060405180910390209050919050565b6000600360009054906101000a900473ffffffffffffffffffffffffffffffffffffffff16905090565b6000600460159054906101000a900460ff16905090565b600080620021ce8362002111565b90506000620021dd8462002803565b73ffffffffffffffffffffffffffffffffffffffff161415620022ba57600c8054806001018281620022109190620035a0565b9160005260206000209001600086909190916101000a81548173ffffffffffffffffffffffffffffffffffffffff021916908373ffffffffffffffffffffffffffffffffffffffff1602179055505083600d6000836000191660001916815260200190815260200160002060006101000a81548173ffffffffffffffffffffffffffffffffffffffff021916908373ffffffffffffffffffffffffffffffffffffffff1602179055505b600360009054906101000a900473ffffffffffffffffffffffffffffffffffffffff1673ffffffffffffffffffffffffffffffffffffffff16630d6d3b6e3430877f4e6577436174616c6f67756500000000000000000000000000000000000000006000604051602001526040518563ffffffff167c0100000000000000000000000000000000000000000000000000000000028152600401808473ffffffffffffffffffffffffffffffffffffffff1673ffffffffffffffffffffffffffffffffffffffff1681526020018373ffffffffffffffffffffffffffffffffffffffff1673ffffffffffffffffffffffffffffffffffffffff168152602001826000191660001916815260200193505050506020604051808303818588803b1515620023e457600080fd5b6125ee5a03f11515620023f657600080fd5b505050506040518051905050600191505092915050565b6000803373ffffffffffffffffffffffffffffffffffffffff1673ffffffffffffffffffffffffffffffffffffffff16815260200190815260200160002060009054906101000a900460ff1615156200246557600080fd5b6000803373ffffffffffffffffffffffffffffffffffffffff1673ffffffffffffffffffffffffffffffffffffffff16815260200190815260200160002060009054906101000a900460ff161515620024bd57600080fd5b60016000808373ffffffffffffffffffffffffffffffffffffffff1673ffffffffffffffffffffffffffffffffffffffff16815260200190815260200160002060006101000a81548160ff021916908315150217905550600180548060010182816200252a9190620035a0565b9160005260206000209001600083909190916101000a81548173ffffffffffffffffffffffffffffffffffffffff021916908373ffffffffffffffffffffffffffffffffffffffff1602179055505050565b600260003373ffffffffffffffffffffffffffffffffffffffff1673ffffffffffffffffffffffffffffffffffffffff16815260200190815260200160002060009054906101000a900460ff161515620025d557600080fd5b600260003373ffffffffffffffffffffffffffffffffffffffff1673ffffffffffffffffffffffffffffffffffffffff16815260200190815260200160002060009054906101000a900460ff1615156200262e57600080fd5b6001600260008373ffffffffffffffffffffffffffffffffffffffff1673ffffffffffffffffffffffffffffffffffffffff16815260200190815260200160002060006101000a81548160ff02191690831515021790555050565b6200269362003578565b600c8054806020026020016040519081016040528092919081815260200182805480156200271757602002820191906000526020600020905b8160009054906101000a900473ffffffffffffffffffffffffffffffffffffffff1673ffffffffffffffffffffffffffffffffffffffff1681526020019060010190808311620026cc575b5050505050905090565b600460159054906101000a900460ff1681565b60066020528060005260406000206000915090505481565b600260003373ffffffffffffffffffffffffffffffffffffffff1673ffffffffffffffffffffffffffffffffffffffff16815260200190815260200160002060009054906101000a900460ff161515620027a557600080fd5b60016002811115620027b357fe5b600460149054906101000a900460ff166002811115620027cf57fe5b141515620027dc57600080fd5b6002600460146101000a81548160ff02191690836002811115620027fc57fe5b0217905550565b6000806001835110156200281a57309150620028e2565b620028258362002111565b9050600073ffffffffffffffffffffffffffffffffffffffff16600d6000836000191660001916815260200190815260200160002060009054906101000a900473ffffffffffffffffffffffffffffffffffffffff1673ffffffffffffffffffffffffffffffffffffffff16141515620028dd57600d6000826000191660001916815260200190815260200160002060009054906101000a900473ffffffffffffffffffffffffffffffffffffffff169150620028e2565b600091505b50919050565b60008060003373ffffffffffffffffffffffffffffffffffffffff1673ffffffffffffffffffffffffffffffffffffffff16815260200190815260200160002060009054906101000a900460ff1615156200294257600080fd5b81600b90805190602001906200295a929190620035cf565b5060019050919050565b600c818154811015156200297457fe5b90600052602060002090016000915054906101000a900473ffffffffffffffffffffffffffffffffffffffff1681565b600460149054906101000a900460ff1681565b600981815481101515620029c757fe5b90600052602060002090016000915054906101000a900473ffffffffffffffffffffffffffffffffffffffff1681565b6000600260003373ffffffffffffffffffffffffffffffffffffffff1673ffffffffffffffffffffffffffffffffffffffff16815260200190815260200160002060009054906101000a900460ff16151562002a5257600080fd5b81600860008560001916600019168152602001908152602001600020908051906020019062002a83929190620035cf565b506001905092915050565b60008060003373ffffffffffffffffffffffffffffffffffffffff1673ffffffffffffffffffffffffffffffffffffffff16815260200190815260200160002060009054906101000a900460ff16151562002ae857600080fd5b6000803373ffffffffffffffffffffffffffffffffffffffff1673ffffffffffffffffffffffffffffffffffffffff16815260200190815260200160002060009054906101000a900460ff16151562002b4057600080fd5b60008060008473ffffffffffffffffffffffffffffffffffffffff1673ffffffffffffffffffffffffffffffffffffffff16815260200190815260200160002060006101000a81548160ff021916908315150217905550600090505b60018054905081101562002c675760018181548110151562002bba57fe5b906000526020600020900160009054906101000a900473ffffffffffffffffffffffffffffffffffffffff1673ffffffffffffffffffffffffffffffffffffffff168273ffffffffffffffffffffffffffffffffffffffff16141562002c595760018181548110151562002c2a57fe5b906000526020600020900160006101000a81549073ffffffffffffffffffffffffffffffffffffffff02191690555b808060010191505062002b9c565b5050565b600080600062002c7b8562002111565b9150600073ffffffffffffffffffffffffffffffffffffffff16600a6000846000191660001916815260200190815260200160002060009054906101000a900473ffffffffffffffffffffffffffffffffffffffff1673ffffffffffffffffffffffffffffffffffffffff16141562003092576001905080805480600101828162002d079190620035a0565b9160005260206000209001600030909190916101000a81548173ffffffffffffffffffffffffffffffffffffffff021916908373ffffffffffffffffffffffffffffffffffffffff1602179055505080805480600101828162002d6b9190620035a0565b9160005260206000209001600033909190916101000a81548173ffffffffffffffffffffffffffffffffffffffff021916908373ffffffffffffffffffffffffffffffffffffffff16021790555050600360009054906101000a900473ffffffffffffffffffffffffffffffffffffffff166001868662002deb62003656565b808573ffffffffffffffffffffffffffffffffffffffff1673ffffffffffffffffffffffffffffffffffffffff168152602001806020018060200180602001848103845287818154815260200191508054801562002e9f57602002820191906000526020600020905b8160009054906101000a900473ffffffffffffffffffffffffffffffffffffffff1673ffffffffffffffffffffffffffffffffffffffff168152602001906001019080831162002e54575b5050848103835286818151815260200191508051906020019080838360005b8381101562002edb57808201518184015260208101905062002ebe565b50505050905090810190601f16801562002f095780820380516001836020036101000a031916815260200191505b50848103825285818151815260200191508051906020019080838360005b8381101562002f4457808201518184015260208101905062002f27565b50505050905090810190601f16801562002f725780820380516001836020036101000a031916815260200191505b50975050505050505050604051809103906000f080151562002f9357600080fd5b600a6000846000191660001916815260200190815260200160002060006101000a81548173ffffffffffffffffffffffffffffffffffffffff021916908373ffffffffffffffffffffffffffffffffffffffff1602179055506009805480600101828162003002919062003667565b91600052602060002090016000600a6000866000191660001916815260200190815260200160002060009054906101000a900473ffffffffffffffffffffffffffffffffffffffff16909190916101000a81548173ffffffffffffffffffffffffffffffffffffffff021916908373ffffffffffffffffffffffffffffffffffffffff16021790555050620031cb565b600a6000836000191660001916815260200190815260200160002060009054906101000a900473ffffffffffffffffffffffffffffffffffffffff1673ffffffffffffffffffffffffffffffffffffffff16631aae2531856000604051602001526040518263ffffffff167c01000000000000000000000000000000000000000000000000000000000281526004018080602001828103825283818151815260200191508051906020019080838360005b838110156200316057808201518184015260208101905062003143565b50505050905090810190601f1680156200318e5780820380516001836020036101000a031916815260200191505b5092505050602060405180830381600087803b1515620031ad57600080fd5b6102c65a03f11515620031bf57600080fd5b50505060405180519050505b600360009054906101000a900473ffffffffffffffffffffffffffffffffffffffff1673ffffffffffffffffffffffffffffffffffffffff16630d6d3b6e3430600a6000876000191660001916815260200190815260200160002060009054906101000a900473ffffffffffffffffffffffffffffffffffffffff167f4d657461446174615570646174650000000000000000000000000000000000006000604051602001526040518563ffffffff167c0100000000000000000000000000000000000000000000000000000000028152600401808473ffffffffffffffffffffffffffffffffffffffff1673ffffffffffffffffffffffffffffffffffffffff1681526020018373ffffffffffffffffffffffffffffffffffffffff1673ffffffffffffffffffffffffffffffffffffffff168152602001826000191660001916815260200193505050506020604051808303818588803b15156200333057600080fd5b6125ee5a03f115156200334257600080fd5b50505050604051805190505060019250505092915050565b600d6020528060005260406000206000915054906101000a900473ffffffffffffffffffffffffffffffffffffffff1681565b6200339762003696565b60098054806020026020016040519081016040528092919081815260200182805480156200341b57602002820191906000526020600020905b8160009054906101000a900473ffffffffffffffffffffffffffffffffffffffff1673ffffffffffffffffffffffffffffffffffffffff1681526020019060010190808311620033d0575b5050505050905090565b600460009054906101000a900473ffffffffffffffffffffffffffffffffffffffff1681565b620034556200358c565b600260003373ffffffffffffffffffffffffffffffffffffffff1673ffffffffffffffffffffffffffffffffffffffff16815260200190815260200160002060009054906101000a900460ff161515620034ae57600080fd5b6200351d826040518082805190602001908083835b602083101515620034ea5780518252602082019150602081019050602083039250620034c3565b6001836020036101000a038019825116818451168082178552505050505050905001915050604051809103902062001b6c565b9050919050565b60008082840190508381101515156200353957fe5b8091505092915050565b8154818355818115116200357357600402816004028360005260206000209182019101620035729190620036aa565b5b505050565b602060405190810160405280600081525090565b602060405190810160405280600081525090565b815481835581811511620035ca57818360005260206000209182019101620035c991906200370b565b5b505050565b828054600181600116156101000203166002900490600052602060002090601f016020900481019282601f106200361257805160ff191683800117855562003643565b8280016001018555821562003643579182015b828111156200364257825182559160200191906001019062003625565b5b5090506200365291906200370b565b5090565b604051610ff0806200373483390190565b81548183558181151162003691578183600052602060002091820191016200369091906200370b565b5b505050565b602060405190810160405280600081525090565b6200370891905b808211156200370457600080820160006101000a81549073ffffffffffffffffffffffffffffffffffffffff021916905560018201600090556002820160009055600382016000905550600401620036b1565b5090565b90565b6200373091905b808211156200372c57600081600090555060010162003712565b5090565b905600606060405234156200001057600080fd5b60405162000ff038038062000ff0833981016040528080519060200190919080518201919060200180518201919060200180518201919050508260008090505b8151811015620000d757600160008084848151811015156200006e57fe5b9060200190602002015173ffffffffffffffffffffffffffffffffffffffff1673ffffffffffffffffffffffffffffffffffffffff16815260200190815260200160002060006101000a81548160ff021916908315150217905550808060010191505062000050565b8160019080519060200190620000ef9291906200016f565b50505083600260006101000a81548173ffffffffffffffffffffffffffffffffffffffff021916908373ffffffffffffffffffffffffffffffffffffffff16021790555081600390805190602001906200014b929190620001fe565b50806004908051906020019062000164929190620001fe565b5050505050620002f3565b828054828255906000526020600020908101928215620001eb579160200282015b82811115620001ea5782518260006101000a81548173ffffffffffffffffffffffffffffffffffffffff021916908373ffffffffffffffffffffffffffffffffffffffff1602179055509160200191906001019062000190565b5b509050620001fa919062000285565b5090565b828054600181600116156101000203166002900490600052602060002090601f016020900481019282601f106200024157805160ff191683800117855562000272565b8280016001018555821562000272579182015b828111156200027157825182559160200191906001019062000254565b5b509050620002819190620002cb565b5090565b620002c891905b80821115620002c457600081816101000a81549073ffffffffffffffffffffffffffffffffffffffff0219169055506001016200028c565b5090565b90565b620002f091905b80821115620002ec576000816000905550600101620002d2565b5090565b90565b610ced80620003036000396000f300606060405260043610610099576000357c0100000000000000000000000000000000000000000000000000000000900463ffffffff1680630fe4e9e81461009e57806314bfd6d01461013a5780631aae25311461019d57806324d7806c1461021257806331ae450b146102635780633c6bb436146102cd578063704802751461035b578063ce26e78a14610394578063e1b2e8b314610422575b600080fd5b34156100a957600080fd5b6100bf600480803590602001909190505061045b565b6040518080602001828103825283818151815260200191508051906020019080838360005b838110156100ff5780820151818401526020810190506100e4565b50505050905090810190601f16801561012c5780820380516001836020036101000a031916815260200191505b509250505060405180910390f35b341561014557600080fd5b61015b6004808035906020019091905050610517565b604051808273ffffffffffffffffffffffffffffffffffffffff1673ffffffffffffffffffffffffffffffffffffffff16815260200191505060405180910390f35b34156101a857600080fd5b6101f8600480803590602001908201803590602001908080601f01602080910402602001604051908101604052809392919081815260200183838082843782019150505050505091905050610556565b604051808215151515815260200191505060405180910390f35b341561021d57600080fd5b610249600480803573ffffffffffffffffffffffffffffffffffffffff1690602001909190505061060b565b604051808215151515815260200191505060405180910390f35b341561026e57600080fd5b61027661062b565b6040518080602001828103825283818151815260200191508051906020019060200280838360005b838110156102b957808201518184015260208101905061029e565b505050509050019250505060405180910390f35b34156102d857600080fd5b6102e06106bf565b6040518080602001828103825283818151815260200191508051906020019080838360005b83811015610320578082015181840152602081019050610305565b50505050905090810190601f16801561034d5780820380516001836020036101000a031916815260200191505b509250505060405180910390f35b341561036657600080fd5b610392600480803573ffffffffffffffffffffffffffffffffffffffff1690602001909190505061075d565b005b341561039f57600080fd5b6103a76108c8565b6040518080602001828103825283818151815260200191508051906020019080838360005b838110156103e75780820151818401526020810190506103cc565b50505050905090810190601f1680156104145780820380516001836020036101000a031916815260200191505b509250505060405180910390f35b341561042d57600080fd5b610459600480803573ffffffffffffffffffffffffffffffffffffffff16906020019091905050610966565b005b60058181548110151561046a57fe5b90600052602060002090016000915090508054600181600116156101000203166002900480601f01602080910402602001604051908101604052809291908181526020018280546001816001161561010002031660029004801561050f5780601f106104e45761010080835404028352916020019161050f565b820191906000526020600020905b8154815290600101906020018083116104f257829003601f168201915b505050505081565b60018181548110151561052657fe5b90600052602060002090016000915054906101000a900473ffffffffffffffffffffffffffffffffffffffff1681565b60008060003373ffffffffffffffffffffffffffffffffffffffff1673ffffffffffffffffffffffffffffffffffffffff16815260200190815260200160002060009054906101000a900460ff1615156105af57600080fd5b600580548060010182816105c39190610b3c565b9160005260206000209001600084909190915090805190602001906105e9929190610b68565b50508160049080519060200190610601929190610b68565b5060019050919050565b60006020528060005260406000206000915054906101000a900460ff1681565b610633610be8565b60018054806020026020016040519081016040528092919081815260200182805480156106b557602002820191906000526020600020905b8160009054906101000a900473ffffffffffffffffffffffffffffffffffffffff1673ffffffffffffffffffffffffffffffffffffffff168152602001906001019080831161066b575b5050505050905090565b60048054600181600116156101000203166002900480601f0160208091040260200160405190810160405280929190818152602001828054600181600116156101000203166002900480156107555780601f1061072a57610100808354040283529160200191610755565b820191906000526020600020905b81548152906001019060200180831161073857829003601f168201915b505050505081565b6000803373ffffffffffffffffffffffffffffffffffffffff1673ffffffffffffffffffffffffffffffffffffffff16815260200190815260200160002060009054906101000a900460ff1615156107b457600080fd5b6000803373ffffffffffffffffffffffffffffffffffffffff1673ffffffffffffffffffffffffffffffffffffffff16815260200190815260200160002060009054906101000a900460ff16151561080b57600080fd5b60016000808373ffffffffffffffffffffffffffffffffffffffff1673ffffffffffffffffffffffffffffffffffffffff16815260200190815260200160002060006101000a81548160ff021916908315150217905550600180548060010182816108769190610bfc565b9160005260206000209001600083909190916101000a81548173ffffffffffffffffffffffffffffffffffffffff021916908373ffffffffffffffffffffffffffffffffffffffff1602179055505050565b60038054600181600116156101000203166002900480601f01602080910402602001604051908101604052809291908181526020018280546001816001161561010002031660029004801561095e5780601f106109335761010080835404028352916020019161095e565b820191906000526020600020905b81548152906001019060200180831161094157829003601f168201915b505050505081565b60008060003373ffffffffffffffffffffffffffffffffffffffff1673ffffffffffffffffffffffffffffffffffffffff16815260200190815260200160002060009054906101000a900460ff1615156109bf57600080fd5b6000803373ffffffffffffffffffffffffffffffffffffffff1673ffffffffffffffffffffffffffffffffffffffff16815260200190815260200160002060009054906101000a900460ff161515610a1657600080fd5b60008060008473ffffffffffffffffffffffffffffffffffffffff1673ffffffffffffffffffffffffffffffffffffffff16815260200190815260200160002060006101000a81548160ff021916908315150217905550600090505b600180549050811015610b3857600181815481101515610a8e57fe5b906000526020600020900160009054906101000a900473ffffffffffffffffffffffffffffffffffffffff1673ffffffffffffffffffffffffffffffffffffffff168273ffffffffffffffffffffffffffffffffffffffff161415610b2b57600181815481101515610afc57fe5b906000526020600020900160006101000a81549073ffffffffffffffffffffffffffffffffffffffff02191690555b8080600101915050610a72565b5050565b815481835581811511610b6357818360005260206000209182019101610b629190610c28565b5b505050565b828054600181600116156101000203166002900490600052602060002090601f016020900481019282601f10610ba957805160ff1916838001178555610bd7565b82800160010185558215610bd7579182015b82811115610bd6578251825591602001919060010190610bbb565b5b509050610be49190610c54565b5090565b602060405190810160405280600081525090565b815481835581811511610c2357818360005260206000209182019101610c229190610c54565b5b505050565b610c5191905b80821115610c4d5760008181610c449190610c79565b50600101610c2e565b5090565b90565b610c7691905b80821115610c72576000816000905550600101610c5a565b5090565b90565b50805460018160011615610100020316600290046000825580601f10610c9f5750610cbe565b601f016020900490600052602060002090810190610cbd9190610c54565b5b505600a165627a7a72305820d1e0c57c2752e24b9be15023018c713d67e22f22e1555cf5b6b70a5012ab42fe0029a165627a7a72305820d66dd69a9c3a4836a55b4f58d39589b5e285f5671de04f30d50580108767871e0029",
  "source": "pragma solidity ^0.4.18; //We have to specify what version of the compiler this code will use\n\nimport \"./Catalogue.sol\";\n\ncontract GraphNode is Catalogue {\n\n  //event NewCatalogue(address indexed user, address indexed parentNode, address indexed childNode, string href);\n  \n  function GraphNode(SmartKey _smartKey, address[] adminAddress, string _href) \n  public\n  Catalogue(_smartKey, adminAddress)\n  {      \n      \n      href=_href;\n      for (uint i=0; i < adminAddress.length; i++) {\n        addOwner(adminAddress[i]);\n         \n      } \n      addOwner(address(_smartKey));\n      addOwner(address(this));\n      \n     \n  }\n  \n  function upsertItem(GraphNode _node, string _href)\n  public\n  payable\n  returns (bool)\n  {  \n\n      \n      bytes32 hashVal = getHash(_href);\n\n      if (getItem(_href) == 0x0)\n      {\n      \n            items.push(address(_node));\n            nodeData[hashVal]=address(_node);\n      \n      }\n  \n      smartKey.loadSmartKey.value(msg.value)(Key(this), address(_node), bytes32(\"NewCatalogue\"));\n      \n      //NewCatalogue(msg.sender, address(this), address(_node), _href);\n            \n      return true;\n      \n  }\n  \n  function getItem(string _href) \n  public\n  view\n  returns (address) \n  {      \n      if (bytes(_href).length < 1) {\n          return this;\n      } else {\n      \n          bytes32 hashVal=getHash(_href);\n          \n          if (nodeData[hashVal] != address(0)) \n          {\n             return nodeData[hashVal];\n          }\n      }      \n\n      \n      return 0x0;\n      \n  }\n  \n\n    \n}\n\n",
  "sourcePath": "/mnt/d/iotblock/server/browser/contracts/GraphNode.sol",
  "compiler": {
    "name": "solc",
    "version": "0.4.19+commit.c4cbbb05.Emscripten.clang"
  },
  "schemaVersion": "2.0.0",
  "updatedAt": "2018-07-20T07:11:20.247Z"
}