{
  "contractName": "MetaData",
  "abi": [
    {
      "constant": true,
      "inputs": [
        {
          "name": "",
          "type": "uint256"
        }
      ],
      "name": "val_history",
      "outputs": [
        {
          "name": "",
          "type": "string"
        }
      ],
      "payable": false,
      "stateMutability": "view",
      "type": "function"
    },
    {
      "constant": true,
      "inputs": [
        {
          "name": "",
          "type": "uint256"
        }
      ],
      "name": "admins",
      "outputs": [
        {
          "name": "",
          "type": "address"
        }
      ],
      "payable": false,
      "stateMutability": "view",
      "type": "function"
    },
    {
      "constant": true,
      "inputs": [
        {
          "name": "",
          "type": "address"
        }
      ],
      "name": "isAdmin",
      "outputs": [
        {
          "name": "",
          "type": "bool"
        }
      ],
      "payable": false,
      "stateMutability": "view",
      "type": "function"
    },
    {
      "constant": true,
      "inputs": [],
      "name": "getAdmins",
      "outputs": [
        {
          "name": "",
          "type": "address[]"
        }
      ],
      "payable": false,
      "stateMutability": "view",
      "type": "function"
    },
    {
      "constant": true,
      "inputs": [],
      "name": "val",
      "outputs": [
        {
          "name": "",
          "type": "string"
        }
      ],
      "payable": false,
      "stateMutability": "view",
      "type": "function"
    },
    {
      "constant": false,
      "inputs": [
        {
          "name": "admin",
          "type": "address"
        }
      ],
      "name": "addAdmin",
      "outputs": [],
      "payable": false,
      "stateMutability": "nonpayable",
      "type": "function"
    },
    {
      "constant": true,
      "inputs": [],
      "name": "rel",
      "outputs": [
        {
          "name": "",
          "type": "string"
        }
      ],
      "payable": false,
      "stateMutability": "view",
      "type": "function"
    },
    {
      "constant": false,
      "inputs": [
        {
          "name": "banned",
          "type": "address"
        }
      ],
      "name": "addBanned",
      "outputs": [],
      "payable": false,
      "stateMutability": "nonpayable",
      "type": "function"
    },
    {
      "inputs": [
        {
          "name": "_smartKey",
          "type": "address"
        },
        {
          "name": "adminAddress",
          "type": "address[]"
        },
        {
          "name": "_rel",
          "type": "string"
        },
        {
          "name": "_val",
          "type": "string"
        }
      ],
      "payable": false,
      "stateMutability": "nonpayable",
      "type": "constructor"
    },
    {
      "constant": false,
      "inputs": [
        {
          "name": "_val",
          "type": "string"
        }
      ],
      "name": "setVal",
      "outputs": [
        {
          "name": "",
          "type": "bool"
        }
      ],
      "payable": false,
      "stateMutability": "nonpayable",
      "type": "function"
    }
  ],
  "bytecode": "0x606060405234156200001057600080fd5b60405162000ff038038062000ff0833981016040528080519060200190919080518201919060200180518201919060200180518201919050508260008090505b8151811015620000d757600160008084848151811015156200006e57fe5b9060200190602002015173ffffffffffffffffffffffffffffffffffffffff1673ffffffffffffffffffffffffffffffffffffffff16815260200190815260200160002060006101000a81548160ff021916908315150217905550808060010191505062000050565b8160019080519060200190620000ef9291906200016f565b50505083600260006101000a81548173ffffffffffffffffffffffffffffffffffffffff021916908373ffffffffffffffffffffffffffffffffffffffff16021790555081600390805190602001906200014b929190620001fe565b50806004908051906020019062000164929190620001fe565b5050505050620002f3565b828054828255906000526020600020908101928215620001eb579160200282015b82811115620001ea5782518260006101000a81548173ffffffffffffffffffffffffffffffffffffffff021916908373ffffffffffffffffffffffffffffffffffffffff1602179055509160200191906001019062000190565b5b509050620001fa919062000285565b5090565b828054600181600116156101000203166002900490600052602060002090601f016020900481019282601f106200024157805160ff191683800117855562000272565b8280016001018555821562000272579182015b828111156200027157825182559160200191906001019062000254565b5b509050620002819190620002cb565b5090565b620002c891905b80821115620002c457600081816101000a81549073ffffffffffffffffffffffffffffffffffffffff0219169055506001016200028c565b5090565b90565b620002f091905b80821115620002ec576000816000905550600101620002d2565b5090565b90565b610ced80620003036000396000f300606060405260043610610099576000357c0100000000000000000000000000000000000000000000000000000000900463ffffffff1680630fe4e9e81461009e57806314bfd6d01461013a5780631aae25311461019d57806324d7806c1461021257806331ae450b146102635780633c6bb436146102cd578063704802751461035b578063ce26e78a14610394578063e1b2e8b314610422575b600080fd5b34156100a957600080fd5b6100bf600480803590602001909190505061045b565b6040518080602001828103825283818151815260200191508051906020019080838360005b838110156100ff5780820151818401526020810190506100e4565b50505050905090810190601f16801561012c5780820380516001836020036101000a031916815260200191505b509250505060405180910390f35b341561014557600080fd5b61015b6004808035906020019091905050610517565b604051808273ffffffffffffffffffffffffffffffffffffffff1673ffffffffffffffffffffffffffffffffffffffff16815260200191505060405180910390f35b34156101a857600080fd5b6101f8600480803590602001908201803590602001908080601f01602080910402602001604051908101604052809392919081815260200183838082843782019150505050505091905050610556565b604051808215151515815260200191505060405180910390f35b341561021d57600080fd5b610249600480803573ffffffffffffffffffffffffffffffffffffffff1690602001909190505061060b565b604051808215151515815260200191505060405180910390f35b341561026e57600080fd5b61027661062b565b6040518080602001828103825283818151815260200191508051906020019060200280838360005b838110156102b957808201518184015260208101905061029e565b505050509050019250505060405180910390f35b34156102d857600080fd5b6102e06106bf565b6040518080602001828103825283818151815260200191508051906020019080838360005b83811015610320578082015181840152602081019050610305565b50505050905090810190601f16801561034d5780820380516001836020036101000a031916815260200191505b509250505060405180910390f35b341561036657600080fd5b610392600480803573ffffffffffffffffffffffffffffffffffffffff1690602001909190505061075d565b005b341561039f57600080fd5b6103a76108c8565b6040518080602001828103825283818151815260200191508051906020019080838360005b838110156103e75780820151818401526020810190506103cc565b50505050905090810190601f1680156104145780820380516001836020036101000a031916815260200191505b509250505060405180910390f35b341561042d57600080fd5b610459600480803573ffffffffffffffffffffffffffffffffffffffff16906020019091905050610966565b005b60058181548110151561046a57fe5b90600052602060002090016000915090508054600181600116156101000203166002900480601f01602080910402602001604051908101604052809291908181526020018280546001816001161561010002031660029004801561050f5780601f106104e45761010080835404028352916020019161050f565b820191906000526020600020905b8154815290600101906020018083116104f257829003601f168201915b505050505081565b60018181548110151561052657fe5b90600052602060002090016000915054906101000a900473ffffffffffffffffffffffffffffffffffffffff1681565b60008060003373ffffffffffffffffffffffffffffffffffffffff1673ffffffffffffffffffffffffffffffffffffffff16815260200190815260200160002060009054906101000a900460ff1615156105af57600080fd5b600580548060010182816105c39190610b3c565b9160005260206000209001600084909190915090805190602001906105e9929190610b68565b50508160049080519060200190610601929190610b68565b5060019050919050565b60006020528060005260406000206000915054906101000a900460ff1681565b610633610be8565b60018054806020026020016040519081016040528092919081815260200182805480156106b557602002820191906000526020600020905b8160009054906101000a900473ffffffffffffffffffffffffffffffffffffffff1673ffffffffffffffffffffffffffffffffffffffff168152602001906001019080831161066b575b5050505050905090565b60048054600181600116156101000203166002900480601f0160208091040260200160405190810160405280929190818152602001828054600181600116156101000203166002900480156107555780601f1061072a57610100808354040283529160200191610755565b820191906000526020600020905b81548152906001019060200180831161073857829003601f168201915b505050505081565b6000803373ffffffffffffffffffffffffffffffffffffffff1673ffffffffffffffffffffffffffffffffffffffff16815260200190815260200160002060009054906101000a900460ff1615156107b457600080fd5b6000803373ffffffffffffffffffffffffffffffffffffffff1673ffffffffffffffffffffffffffffffffffffffff16815260200190815260200160002060009054906101000a900460ff16151561080b57600080fd5b60016000808373ffffffffffffffffffffffffffffffffffffffff1673ffffffffffffffffffffffffffffffffffffffff16815260200190815260200160002060006101000a81548160ff021916908315150217905550600180548060010182816108769190610bfc565b9160005260206000209001600083909190916101000a81548173ffffffffffffffffffffffffffffffffffffffff021916908373ffffffffffffffffffffffffffffffffffffffff1602179055505050565b60038054600181600116156101000203166002900480601f01602080910402602001604051908101604052809291908181526020018280546001816001161561010002031660029004801561095e5780601f106109335761010080835404028352916020019161095e565b820191906000526020600020905b81548152906001019060200180831161094157829003601f168201915b505050505081565b60008060003373ffffffffffffffffffffffffffffffffffffffff1673ffffffffffffffffffffffffffffffffffffffff16815260200190815260200160002060009054906101000a900460ff1615156109bf57600080fd5b6000803373ffffffffffffffffffffffffffffffffffffffff1673ffffffffffffffffffffffffffffffffffffffff16815260200190815260200160002060009054906101000a900460ff161515610a1657600080fd5b60008060008473ffffffffffffffffffffffffffffffffffffffff1673ffffffffffffffffffffffffffffffffffffffff16815260200190815260200160002060006101000a81548160ff021916908315150217905550600090505b600180549050811015610b3857600181815481101515610a8e57fe5b906000526020600020900160009054906101000a900473ffffffffffffffffffffffffffffffffffffffff1673ffffffffffffffffffffffffffffffffffffffff168273ffffffffffffffffffffffffffffffffffffffff161415610b2b57600181815481101515610afc57fe5b906000526020600020900160006101000a81549073ffffffffffffffffffffffffffffffffffffffff02191690555b8080600101915050610a72565b5050565b815481835581811511610b6357818360005260206000209182019101610b629190610c28565b5b505050565b828054600181600116156101000203166002900490600052602060002090601f016020900481019282601f10610ba957805160ff1916838001178555610bd7565b82800160010185558215610bd7579182015b82811115610bd6578251825591602001919060010190610bbb565b5b509050610be49190610c54565b5090565b602060405190810160405280600081525090565b815481835581811511610c2357818360005260206000209182019101610c229190610c54565b5b505050565b610c5191905b80821115610c4d5760008181610c449190610c79565b50600101610c2e565b5090565b90565b610c7691905b80821115610c72576000816000905550600101610c5a565b5090565b90565b50805460018160011615610100020316600290046000825580601f10610c9f5750610cbe565b601f016020900490600052602060002090810190610cbd9190610c54565b5b505600a165627a7a72305820d1e0c57c2752e24b9be15023018c713d67e22f22e1555cf5b6b70a5012ab42fe0029",
  "source": "pragma solidity ^0.4.18;\n\nimport \"./admin/Administered.sol\";\nimport \"./SmartKey.sol\";\n\ncontract MetaData is Administered {\n       \n  SmartKey smartKey;\n  string public rel;\n  string public val;\n \n  string[] public val_history;\n  function MetaData(SmartKey _smartKey, address[] adminAddress, string _rel, string _val) \n  public\n  Administered(adminAddress)\n  {\n      smartKey=_smartKey;\n      rel=_rel;\n      val=_val;\n  }\n  \n  function setVal(string _val) \n  public\n  onlyAdmin\n  returns (bool)\n  {\n  \n      val_history.push(_val);\n      val=_val;\n      \n      return true;\n  }\n  \n\n}",
  "sourcePath": "/mnt/d/iotblock/server/browser/contracts/MetaData.sol",
  "compiler": {
    "name": "solc",
    "version": "0.4.19+commit.c4cbbb05.Emscripten.clang"
  },
  "schemaVersion": "2.0.0",
  "updatedAt": "2018-07-05T09:22:52.133Z"
}