{
  "contractName": "NodeMetaData",
  "abi": [
    {
      "constant": false,
      "inputs": [
        {
          "name": "key",
          "type": "string"
        },
        {
          "name": "value",
          "type": "string"
        }
      ],
      "name": "addKeyAuth",
      "outputs": [
        {
          "name": "",
          "type": "bool"
        }
      ],
      "payable": false,
      "stateMutability": "nonpayable",
      "type": "function"
    },
    {
      "constant": true,
      "inputs": [],
      "name": "smartKey",
      "outputs": [
        {
          "name": "",
          "type": "address"
        }
      ],
      "payable": false,
      "stateMutability": "view",
      "type": "function"
    },
    {
      "constant": true,
      "inputs": [
        {
          "name": "",
          "type": "address"
        },
        {
          "name": "",
          "type": "uint256"
        }
      ],
      "name": "transactions",
      "outputs": [
        {
          "name": "account",
          "type": "address"
        },
        {
          "name": "date",
          "type": "uint256"
        },
        {
          "name": "amount",
          "type": "uint256"
        },
        {
          "name": "transaction_type",
          "type": "uint256"
        }
      ],
      "payable": false,
      "stateMutability": "view",
      "type": "function"
    },
    {
      "constant": true,
      "inputs": [
        {
          "name": "",
          "type": "uint256"
        }
      ],
      "name": "admins",
      "outputs": [
        {
          "name": "",
          "type": "address"
        }
      ],
      "payable": false,
      "stateMutability": "view",
      "type": "function"
    },
    {
      "constant": false,
      "inputs": [
        {
          "name": "_owner",
          "type": "address"
        }
      ],
      "name": "removeOwner",
      "outputs": [],
      "payable": false,
      "stateMutability": "nonpayable",
      "type": "function"
    },
    {
      "constant": true,
      "inputs": [],
      "name": "getHealthStatus",
      "outputs": [
        {
          "name": "",
          "type": "bytes32"
        }
      ],
      "payable": false,
      "stateMutability": "view",
      "type": "function"
    },
    {
      "constant": true,
      "inputs": [],
      "name": "contrib_amount",
      "outputs": [
        {
          "name": "",
          "type": "uint256"
        }
      ],
      "payable": false,
      "stateMutability": "view",
      "type": "function"
    },
    {
      "constant": true,
      "inputs": [
        {
          "name": "_address",
          "type": "address"
        }
      ],
      "name": "getTransactionCount",
      "outputs": [
        {
          "name": "",
          "type": "uint256"
        }
      ],
      "payable": false,
      "stateMutability": "view",
      "type": "function"
    },
    {
      "constant": true,
      "inputs": [
        {
          "name": "",
          "type": "address"
        }
      ],
      "name": "isAdmin",
      "outputs": [
        {
          "name": "",
          "type": "bool"
        }
      ],
      "payable": false,
      "stateMutability": "view",
      "type": "function"
    },
    {
      "constant": true,
      "inputs": [
        {
          "name": "",
          "type": "address"
        }
      ],
      "name": "isOwner",
      "outputs": [
        {
          "name": "",
          "type": "bool"
        }
      ],
      "payable": false,
      "stateMutability": "view",
      "type": "function"
    },
    {
      "constant": true,
      "inputs": [],
      "name": "getAdmins",
      "outputs": [
        {
          "name": "",
          "type": "address[]"
        }
      ],
      "payable": false,
      "stateMutability": "view",
      "type": "function"
    },
    {
      "constant": false,
      "inputs": [
        {
          "name": "amount",
          "type": "uint256"
        },
        {
          "name": "beneficiary",
          "type": "address"
        }
      ],
      "name": "transferEth",
      "outputs": [],
      "payable": false,
      "stateMutability": "nonpayable",
      "type": "function"
    },
    {
      "constant": true,
      "inputs": [
        {
          "name": "hash",
          "type": "bytes32"
        }
      ],
      "name": "getValueByHash",
      "outputs": [
        {
          "name": "",
          "type": "string"
        }
      ],
      "payable": false,
      "stateMutability": "view",
      "type": "function"
    },
    {
      "constant": true,
      "inputs": [
        {
          "name": "",
          "type": "bytes32"
        }
      ],
      "name": "itemMetaData",
      "outputs": [
        {
          "name": "",
          "type": "address"
        }
      ],
      "payable": false,
      "stateMutability": "view",
      "type": "function"
    },
    {
      "constant": false,
      "inputs": [
        {
          "name": "_health",
          "type": "uint8"
        }
      ],
      "name": "setHealth",
      "outputs": [],
      "payable": true,
      "stateMutability": "payable",
      "type": "function"
    },
    {
      "constant": true,
      "inputs": [
        {
          "name": "key",
          "type": "string"
        }
      ],
      "name": "getHash",
      "outputs": [
        {
          "name": "",
          "type": "bytes32"
        }
      ],
      "payable": false,
      "stateMutability": "pure",
      "type": "function"
    },
    {
      "constant": true,
      "inputs": [],
      "name": "getHealth",
      "outputs": [
        {
          "name": "",
          "type": "uint8"
        }
      ],
      "payable": false,
      "stateMutability": "view",
      "type": "function"
    },
    {
      "constant": false,
      "inputs": [
        {
          "name": "admin",
          "type": "address"
        }
      ],
      "name": "addAdmin",
      "outputs": [],
      "payable": false,
      "stateMutability": "nonpayable",
      "type": "function"
    },
    {
      "constant": false,
      "inputs": [
        {
          "name": "_owner",
          "type": "address"
        }
      ],
      "name": "addOwner",
      "outputs": [],
      "payable": false,
      "stateMutability": "nonpayable",
      "type": "function"
    },
    {
      "constant": true,
      "inputs": [],
      "name": "health",
      "outputs": [
        {
          "name": "",
          "type": "uint8"
        }
      ],
      "payable": false,
      "stateMutability": "view",
      "type": "function"
    },
    {
      "constant": true,
      "inputs": [
        {
          "name": "",
          "type": "address"
        }
      ],
      "name": "activated",
      "outputs": [
        {
          "name": "",
          "type": "uint256"
        }
      ],
      "payable": false,
      "stateMutability": "view",
      "type": "function"
    },
    {
      "constant": false,
      "inputs": [
        {
          "name": "user",
          "type": "address"
        }
      ],
      "name": "activateKey",
      "outputs": [],
      "payable": true,
      "stateMutability": "payable",
      "type": "function"
    },
    {
      "constant": false,
      "inputs": [],
      "name": "returnKey",
      "outputs": [],
      "payable": false,
      "stateMutability": "nonpayable",
      "type": "function"
    },
    {
      "constant": true,
      "inputs": [],
      "name": "state",
      "outputs": [
        {
          "name": "",
          "type": "uint8"
        }
      ],
      "payable": false,
      "stateMutability": "view",
      "type": "function"
    },
    {
      "constant": true,
      "inputs": [
        {
          "name": "",
          "type": "uint256"
        }
      ],
      "name": "meta",
      "outputs": [
        {
          "name": "",
          "type": "address"
        }
      ],
      "payable": false,
      "stateMutability": "view",
      "type": "function"
    },
    {
      "constant": false,
      "inputs": [
        {
          "name": "hash",
          "type": "bytes32"
        },
        {
          "name": "value",
          "type": "string"
        }
      ],
      "name": "addKeyValueByHash",
      "outputs": [
        {
          "name": "",
          "type": "bool"
        }
      ],
      "payable": false,
      "stateMutability": "nonpayable",
      "type": "function"
    },
    {
      "constant": false,
      "inputs": [
        {
          "name": "banned",
          "type": "address"
        }
      ],
      "name": "addBanned",
      "outputs": [],
      "payable": false,
      "stateMutability": "nonpayable",
      "type": "function"
    },
    {
      "constant": true,
      "inputs": [],
      "name": "vault",
      "outputs": [
        {
          "name": "",
          "type": "address"
        }
      ],
      "payable": false,
      "stateMutability": "view",
      "type": "function"
    },
    {
      "constant": true,
      "inputs": [
        {
          "name": "key",
          "type": "string"
        }
      ],
      "name": "getKeyAuth",
      "outputs": [
        {
          "name": "",
          "type": "string"
        }
      ],
      "payable": false,
      "stateMutability": "view",
      "type": "function"
    },
    {
      "inputs": [
        {
          "name": "_smartKey",
          "type": "address"
        },
        {
          "name": "adminAddress",
          "type": "address[]"
        }
      ],
      "payable": false,
      "stateMutability": "nonpayable",
      "type": "constructor"
    },
    {
      "payable": true,
      "stateMutability": "payable",
      "type": "fallback"
    },
    {
      "anonymous": false,
      "inputs": [
        {
          "indexed": false,
          "name": "status",
          "type": "uint8"
        }
      ],
      "name": "HealthUpdate",
      "type": "event"
    },
    {
      "constant": true,
      "inputs": [],
      "name": "getSmartKey",
      "outputs": [
        {
          "name": "",
          "type": "address"
        }
      ],
      "payable": false,
      "stateMutability": "view",
      "type": "function"
    },
    {
      "constant": true,
      "inputs": [],
      "name": "selectMetaData",
      "outputs": [
        {
          "name": "",
          "type": "address[]"
        }
      ],
      "payable": false,
      "stateMutability": "view",
      "type": "function"
    },
    {
      "constant": false,
      "inputs": [
        {
          "name": "_rel",
          "type": "string"
        },
        {
          "name": "_val",
          "type": "string"
        }
      ],
      "name": "upsertMetaData",
      "outputs": [
        {
          "name": "",
          "type": "bool"
        }
      ],
      "payable": true,
      "stateMutability": "payable",
      "type": "function"
    }
  ],
  "bytecode": "0x606060405234156200001057600080fd5b60405162004212380380620042128339810160405280805190602001909190805182019190505081308260008090505b8151811015620000c757600160008084848151811015156200005e57fe5b9060200190602002015173ffffffffffffffffffffffffffffffffffffffff1673ffffffffffffffffffffffffffffffffffffffff16815260200190815260200160002060006101000a81548160ff021916908315150217905550808060010191505062000040565b8160019080519060200190620000df92919062000303565b5050506001600260003373ffffffffffffffffffffffffffffffffffffffff1673ffffffffffffffffffffffffffffffffffffffff16815260200190815260200160002060006101000a81548160ff02191690831515021790555060008173ffffffffffffffffffffffffffffffffffffffff16141515156200016157600080fd5b80600460006101000a81548173ffffffffffffffffffffffffffffffffffffffff021916908373ffffffffffffffffffffffffffffffffffffffff16021790555081600360006101000a81548173ffffffffffffffffffffffffffffffffffffffff021916908373ffffffffffffffffffffffffffffffffffffffff1602179055506000600460146101000a81548160ff021916908360028111156200020357fe5b02179055506001600260008373ffffffffffffffffffffffffffffffffffffffff1673ffffffffffffffffffffffffffffffffffffffff16815260200190815260200160002060006101000a81548160ff0219169083151502179055506001600260008473ffffffffffffffffffffffffffffffffffffffff1673ffffffffffffffffffffffffffffffffffffffff16815260200190815260200160002060006101000a81548160ff021916908315150217905550505081600360006101000a81548173ffffffffffffffffffffffffffffffffffffffff021916908373ffffffffffffffffffffffffffffffffffffffff1602179055505050620003d8565b8280548282559060005260206000209081019282156200037f579160200282015b828111156200037e5782518260006101000a81548173ffffffffffffffffffffffffffffffffffffffff021916908373ffffffffffffffffffffffffffffffffffffffff1602179055509160200191906001019062000324565b5b5090506200038e919062000392565b5090565b620003d591905b80821115620003d157600081816101000a81549073ffffffffffffffffffffffffffffffffffffffff02191690555060010162000399565b5090565b90565b613e2a80620003e86000396000f300606060405260043610620001b7576000357c0100000000000000000000000000000000000000000000000000000000900463ffffffff16806303db428d14620001c4578063113adf49146200027f5780631453812814620002d757806314bfd6d01462000371578063173825d914620003d75780631801e1561462000413578063202e079d146200044757806323ca0cd2146200047357806324d7806c14620004c35780632f54bf6e146200051757806331ae450b146200056b57806349f9c0e414620005da5780635436e5a0146200061f5780635571edeb14620006c55780635b2ce586146200072f5780635b6beeb9146200074c5780635c866c7814620007c8578063640e7fd5146200082057806370480275146200085b5780637065cb4814620008975780637633a22c14620008d3578063779d8677146200090e5780639172fe08146200095e578063af92c181146200098e578063c19d93fb14620009a6578063cd5cfdaf14620009e1578063d4c2f75c1462000a47578063e1b2e8b31462000acc578063ec6f214e1462000b08578063f95fd40b1462000bb7578063fbfa77cf1462000c26578063fd08e0c71462000c7e575b620001c23362000d5a565b005b3415620001d057600080fd5b62000265600480803590602001908201803590602001908080601f0160208091040260200160405190810160405280939291908181526020018383808284378201915050505050509190803590602001908201803590602001908080601f0160208091040260200160405190810160405280939291908181526020018383808284378201915050505050509190505062000ea8565b604051808215151515815260200191505060405180910390f35b34156200028b57600080fd5b6200029562000f7b565b604051808273ffffffffffffffffffffffffffffffffffffffff1673ffffffffffffffffffffffffffffffffffffffff16815260200191505060405180910390f35b3415620002e357600080fd5b6200031a600480803573ffffffffffffffffffffffffffffffffffffffff1690602001909190803590602001909190505062000fa1565b604051808573ffffffffffffffffffffffffffffffffffffffff1673ffffffffffffffffffffffffffffffffffffffff16815260200184815260200183815260200182815260200194505050505060405180910390f35b34156200037d57600080fd5b6200039560048080359060200190919050506200100e565b604051808273ffffffffffffffffffffffffffffffffffffffff1673ffffffffffffffffffffffffffffffffffffffff16815260200191505060405180910390f35b3415620003e357600080fd5b62000411600480803573ffffffffffffffffffffffffffffffffffffffff169060200190919050506200104e565b005b34156200041f57600080fd5b620004296200115b565b60405180826000191660001916815260200191505060405180910390f35b34156200045357600080fd5b6200045d620013f8565b6040518082815260200191505060405180910390f35b34156200047f57600080fd5b620004ad600480803573ffffffffffffffffffffffffffffffffffffffff16906020019091905050620013fe565b6040518082815260200191505060405180910390f35b3415620004cf57600080fd5b620004fd600480803573ffffffffffffffffffffffffffffffffffffffff169060200190919050506200144a565b604051808215151515815260200191505060405180910390f35b34156200052357600080fd5b62000551600480803573ffffffffffffffffffffffffffffffffffffffff169060200190919050506200146a565b604051808215151515815260200191505060405180910390f35b34156200057757600080fd5b620005816200148a565b6040518080602001828103825283818151815260200191508051906020019060200280838360005b83811015620005c6578082015181840152602081019050620005a9565b505050509050019250505060405180910390f35b3415620005e657600080fd5b6200061d600480803590602001909190803573ffffffffffffffffffffffffffffffffffffffff1690602001909190505062001522565b005b34156200062b57600080fd5b6200064760048080356000191690602001909190505062001700565b6040518080602001828103825283818151815260200191508051906020019080838360005b83811015620006895780820151818401526020810190506200066c565b50505050905090810190601f168015620006b75780820380516001836020036101000a031916815260200191505b509250505060405180910390f35b3415620006d157600080fd5b620006ed60048080356000191690602001909190505062001822565b604051808273ffffffffffffffffffffffffffffffffffffffff1673ffffffffffffffffffffffffffffffffffffffff16815260200191505060405180910390f35b6200074a600480803560ff1690602001909190505062001855565b005b34156200075857600080fd5b620007aa600480803590602001908201803590602001908080601f0160208091040260200160405190810160405280939291908181526020018383808284378201915050505050509190505062001ca5565b60405180826000191660001916815260200191505060405180910390f35b3415620007d457600080fd5b620007de62001d13565b604051808273ffffffffffffffffffffffffffffffffffffffff1673ffffffffffffffffffffffffffffffffffffffff16815260200191505060405180910390f35b34156200082c57600080fd5b6200083662001d3d565b604051808260068111156200084757fe5b60ff16815260200191505060405180910390f35b34156200086757600080fd5b62000895600480803573ffffffffffffffffffffffffffffffffffffffff1690602001909190505062001d54565b005b3415620008a357600080fd5b620008d1600480803573ffffffffffffffffffffffffffffffffffffffff1690602001909190505062001ec3565b005b3415620008df57600080fd5b620008e962001fd0565b60405180826006811115620008fa57fe5b60ff16815260200191505060405180910390f35b34156200091a57600080fd5b62000948600480803573ffffffffffffffffffffffffffffffffffffffff1690602001909190505062001fe3565b6040518082815260200191505060405180910390f35b6200098c600480803573ffffffffffffffffffffffffffffffffffffffff1690602001909190505062000d5a565b005b34156200099a57600080fd5b620009a462001ffb565b005b3415620009b257600080fd5b620009bc620020b2565b60405180826002811115620009cd57fe5b60ff16815260200191505060405180910390f35b3415620009ed57600080fd5b62000a056004808035906020019091905050620020c5565b604051808273ffffffffffffffffffffffffffffffffffffffff1673ffffffffffffffffffffffffffffffffffffffff16815260200191505060405180910390f35b341562000a5357600080fd5b62000ab260048080356000191690602001909190803590602001908201803590602001908080601f0160208091040260200160405190810160405280939291908181526020018383808284378201915050505050509190505062002105565b604051808215151515815260200191505060405180910390f35b341562000ad857600080fd5b62000b06600480803573ffffffffffffffffffffffffffffffffffffffff169060200190919050506200219c565b005b62000b9d600480803590602001908201803590602001908080601f0160208091040260200160405190810160405280939291908181526020018383808284378201915050505050509190803590602001908201803590602001908080601f0160208091040260200160405190810160405280939291908181526020018383808284378201915050505050509190505062002379565b604051808215151515815260200191505060405180910390f35b341562000bc357600080fd5b62000bcd62002a68565b6040518080602001828103825283818151815260200191508051906020019060200280838360005b8381101562000c1257808201518184015260208101905062000bf5565b505050509050019250505060405180910390f35b341562000c3257600080fd5b62000c3c62002b00565b604051808273ffffffffffffffffffffffffffffffffffffffff1673ffffffffffffffffffffffffffffffffffffffff16815260200191505060405180910390f35b341562000c8a57600080fd5b62000cdc600480803590602001908201803590602001908080601f0160208091040260200160405190810160405280939291908181526020018383808284378201915050505050509190505062002b26565b6040518080602001828103825283818151815260200191508051906020019080838360005b8381101562000d1e57808201518184015260208101905062000d01565b50505050905090810190601f16801562000d4c5780820380516001836020036101000a031916815260200191505b509250505060405180910390f35b6001600460146101000a81548160ff0219169083600281111562000d7a57fe5b021790555062000d963460055462002bff90919063ffffffff16565b600581905550600760008273ffffffffffffffffffffffffffffffffffffffff1673ffffffffffffffffffffffffffffffffffffffff168152602001908152602001600020805480600101828162000def919062002c1e565b916000526020600020906004020160006080604051908101604052803373ffffffffffffffffffffffffffffffffffffffff1681526020014281526020013481526020016000815250909190915060008201518160000160006101000a81548173ffffffffffffffffffffffffffffffffffffffff021916908373ffffffffffffffffffffffffffffffffffffffff16021790555060208201518160010155604082015181600201556060820151816003015550505050565b6000600260003373ffffffffffffffffffffffffffffffffffffffff1673ffffffffffffffffffffffffffffffffffffffff16815260200190815260200160002060009054906101000a900460ff16151562000f0357600080fd5b62000f73836040518082805190602001908083835b60208310151562000f3f578051825260208201915060208101905060208303925062000f18565b6001836020036101000a03801982511681845116808217855250505050505090500191505060405180910390208362002105565b905092915050565b600360009054906101000a900473ffffffffffffffffffffffffffffffffffffffff1681565b60076020528160005260406000208181548110151562000fbd57fe5b9060005260206000209060040201600091509150508060000160009054906101000a900473ffffffffffffffffffffffffffffffffffffffff16908060010154908060020154908060030154905084565b6001818154811015156200101e57fe5b90600052602060002090016000915054906101000a900473ffffffffffffffffffffffffffffffffffffffff1681565b600260003373ffffffffffffffffffffffffffffffffffffffff1673ffffffffffffffffffffffffffffffffffffffff16815260200190815260200160002060009054906101000a900460ff161515620010a757600080fd5b600260003373ffffffffffffffffffffffffffffffffffffffff1673ffffffffffffffffffffffffffffffffffffffff16815260200190815260200160002060009054906101000a900460ff1615156200110057600080fd5b6000600260008373ffffffffffffffffffffffffffffffffffffffff1673ffffffffffffffffffffffffffffffffffffffff16815260200190815260200160002060006101000a81548160ff02191690831515021790555050565b60008060068111156200116a57fe5b600460159054906101000a900460ff1660068111156200118657fe5b1415620011b6577f50726f766973696f6e696e6700000000000000000000000000000000000000009050620013f5565b60016006811115620011c457fe5b600460159054906101000a900460ff166006811115620011e057fe5b141562001210577f43657274696669656400000000000000000000000000000000000000000000009050620013f5565b600260068111156200121e57fe5b600460159054906101000a900460ff1660068111156200123a57fe5b14156200126a577f4d6f6469666965640000000000000000000000000000000000000000000000009050620013f5565b600360068111156200127857fe5b600460159054906101000a900460ff1660068111156200129457fe5b1415620012c4577f436f6d70726f6d697365640000000000000000000000000000000000000000009050620013f5565b60046006811115620012d257fe5b600460159054906101000a900460ff166006811115620012ee57fe5b14156200131e577f4d616c66756e6374696f6e696e670000000000000000000000000000000000009050620013f5565b600560068111156200132c57fe5b600460159054906101000a900460ff1660068111156200134857fe5b141562001378577f4861726d66756c000000000000000000000000000000000000000000000000009050620013f5565b6006808111156200138557fe5b600460159054906101000a900460ff166006811115620013a157fe5b1415620013d1577f436f756e746572666569740000000000000000000000000000000000000000009050620013f5565b7f436f756e7465726665697400000000000000000000000000000000000000000090505b90565b60055481565b6000600760008373ffffffffffffffffffffffffffffffffffffffff1673ffffffffffffffffffffffffffffffffffffffff168152602001908152602001600020805490509050919050565b60006020528060005260406000206000915054906101000a900460ff1681565b60026020528060005260406000206000915054906101000a900460ff1681565b6200149462002c53565b60018054806020026020016040519081016040528092919081815260200182805480156200151857602002820191906000526020600020905b8160009054906101000a900473ffffffffffffffffffffffffffffffffffffffff1673ffffffffffffffffffffffffffffffffffffffff1681526020019060010190808311620014cd575b5050505050905090565b600260003373ffffffffffffffffffffffffffffffffffffffff1673ffffffffffffffffffffffffffffffffffffffff16815260200190815260200160002060009054906101000a900460ff1615156200157b57600080fd5b600160028111156200158957fe5b600460149054906101000a900460ff166002811115620015a557fe5b141515620015b257600080fd5b8073ffffffffffffffffffffffffffffffffffffffff166108fc839081150290604051600060405180830381858888f193505050501515620015f357600080fd5b600760003073ffffffffffffffffffffffffffffffffffffffff1673ffffffffffffffffffffffffffffffffffffffff168152602001908152602001600020805480600101828162001646919062002c1e565b916000526020600020906004020160006080604051908101604052808573ffffffffffffffffffffffffffffffffffffffff1681526020014281526020018681526020016001815250909190915060008201518160000160006101000a81548173ffffffffffffffffffffffffffffffffffffffff021916908373ffffffffffffffffffffffffffffffffffffffff1602179055506020820151816001015560408201518160020155606082015181600301555050505050565b6200170a62002c67565b600260003373ffffffffffffffffffffffffffffffffffffffff1673ffffffffffffffffffffffffffffffffffffffff16815260200190815260200160002060009054906101000a900460ff1615156200176357600080fd5b6008600083600019166000191681526020019081526020016000208054600181600116156101000203166002900480601f016020809104026020016040519081016040528092919081815260200182805460018160011615610100020316600290048015620018165780601f10620017ea5761010080835404028352916020019162001816565b820191906000526020600020905b815481529060010190602001808311620017f857829003601f168201915b50505050509050919050565b600a6020528060005260406000206000915054906101000a900473ffffffffffffffffffffffffffffffffffffffff1681565b6509184e72a00034111562001ca25780600460156101000a81548160ff021916908360068111156200188357fe5b021790555060018160068111156200189757fe5b1115620019ec57600360009054906101000a900473ffffffffffffffffffffffffffffffffffffffff1673ffffffffffffffffffffffffffffffffffffffff16630d6d3b6e3430307f4865616c74685761726e696e67000000000000000000000000000000000000006000604051602001526040518563ffffffff167c0100000000000000000000000000000000000000000000000000000000028152600401808473ffffffffffffffffffffffffffffffffffffffff1673ffffffffffffffffffffffffffffffffffffffff1681526020018373ffffffffffffffffffffffffffffffffffffffff1673ffffffffffffffffffffffffffffffffffffffff168152602001826000191660001916815260200193505050506020604051808303818588803b1515620019c857600080fd5b6125ee5a03f11515620019da57600080fd5b50505050604051805190505062001b35565b600360009054906101000a900473ffffffffffffffffffffffffffffffffffffffff1673ffffffffffffffffffffffffffffffffffffffff16630d6d3b6e3430307f4865616c746855706461746500000000000000000000000000000000000000006000604051602001526040518563ffffffff167c0100000000000000000000000000000000000000000000000000000000028152600401808473ffffffffffffffffffffffffffffffffffffffff1673ffffffffffffffffffffffffffffffffffffffff1681526020018373ffffffffffffffffffffffffffffffffffffffff1673ffffffffffffffffffffffffffffffffffffffff168152602001826000191660001916815260200193505050506020604051808303818588803b151562001b1657600080fd5b6125ee5a03f1151562001b2857600080fd5b5050505060405180519050505b7fb6d7372bb54b80a5b1d60d3b1da737719783cc92a2095f10d9195105f7abeca5816040518082600681111562001b6857fe5b60ff16815260200191505060405180910390a162001b923460055462002bff90919063ffffffff16565b600581905550600760003073ffffffffffffffffffffffffffffffffffffffff1673ffffffffffffffffffffffffffffffffffffffff168152602001908152602001600020805480600101828162001beb919062002c1e565b916000526020600020906004020160006080604051908101604052803373ffffffffffffffffffffffffffffffffffffffff1681526020014281526020013481526020016000815250909190915060008201518160000160006101000a81548173ffffffffffffffffffffffffffffffffffffffff021916908373ffffffffffffffffffffffffffffffffffffffff1602179055506020820151816001015560408201518160020155606082015181600301555050505b50565b6000816040518082805190602001908083835b60208310151562001cdf578051825260208201915060208101905060208303925062001cb8565b6001836020036101000a03801982511681845116808217855250505050505090500191505060405180910390209050919050565b6000600360009054906101000a900473ffffffffffffffffffffffffffffffffffffffff16905090565b6000600460159054906101000a900460ff16905090565b6000803373ffffffffffffffffffffffffffffffffffffffff1673ffffffffffffffffffffffffffffffffffffffff16815260200190815260200160002060009054906101000a900460ff16151562001dac57600080fd5b6000803373ffffffffffffffffffffffffffffffffffffffff1673ffffffffffffffffffffffffffffffffffffffff16815260200190815260200160002060009054906101000a900460ff16151562001e0457600080fd5b60016000808373ffffffffffffffffffffffffffffffffffffffff1673ffffffffffffffffffffffffffffffffffffffff16815260200190815260200160002060006101000a81548160ff0219169083151502179055506001805480600101828162001e71919062002c7b565b9160005260206000209001600083909190916101000a81548173ffffffffffffffffffffffffffffffffffffffff021916908373ffffffffffffffffffffffffffffffffffffffff1602179055505050565b600260003373ffffffffffffffffffffffffffffffffffffffff1673ffffffffffffffffffffffffffffffffffffffff16815260200190815260200160002060009054906101000a900460ff16151562001f1c57600080fd5b600260003373ffffffffffffffffffffffffffffffffffffffff1673ffffffffffffffffffffffffffffffffffffffff16815260200190815260200160002060009054906101000a900460ff16151562001f7557600080fd5b6001600260008373ffffffffffffffffffffffffffffffffffffffff1673ffffffffffffffffffffffffffffffffffffffff16815260200190815260200160002060006101000a81548160ff02191690831515021790555050565b600460159054906101000a900460ff1681565b60066020528060005260406000206000915090505481565b600260003373ffffffffffffffffffffffffffffffffffffffff1673ffffffffffffffffffffffffffffffffffffffff16815260200190815260200160002060009054906101000a900460ff1615156200205457600080fd5b600160028111156200206257fe5b600460149054906101000a900460ff1660028111156200207e57fe5b1415156200208b57600080fd5b6002600460146101000a81548160ff02191690836002811115620020ab57fe5b0217905550565b600460149054906101000a900460ff1681565b600981815481101515620020d557fe5b90600052602060002090016000915054906101000a900473ffffffffffffffffffffffffffffffffffffffff1681565b6000600260003373ffffffffffffffffffffffffffffffffffffffff1673ffffffffffffffffffffffffffffffffffffffff16815260200190815260200160002060009054906101000a900460ff1615156200216057600080fd5b8160086000856000191660001916815260200190815260200160002090805190602001906200219192919062002caa565b506001905092915050565b60008060003373ffffffffffffffffffffffffffffffffffffffff1673ffffffffffffffffffffffffffffffffffffffff16815260200190815260200160002060009054906101000a900460ff161515620021f657600080fd5b6000803373ffffffffffffffffffffffffffffffffffffffff1673ffffffffffffffffffffffffffffffffffffffff16815260200190815260200160002060009054906101000a900460ff1615156200224e57600080fd5b60008060008473ffffffffffffffffffffffffffffffffffffffff1673ffffffffffffffffffffffffffffffffffffffff16815260200190815260200160002060006101000a81548160ff021916908315150217905550600090505b6001805490508110156200237557600181815481101515620022c857fe5b906000526020600020900160009054906101000a900473ffffffffffffffffffffffffffffffffffffffff1673ffffffffffffffffffffffffffffffffffffffff168273ffffffffffffffffffffffffffffffffffffffff16141562002367576001818154811015156200233857fe5b906000526020600020900160006101000a81549073ffffffffffffffffffffffffffffffffffffffff02191690555b8080600101915050620022aa565b5050565b6000806000620023898562001ca5565b9150600073ffffffffffffffffffffffffffffffffffffffff16600a6000846000191660001916815260200190815260200160002060009054906101000a900473ffffffffffffffffffffffffffffffffffffffff1673ffffffffffffffffffffffffffffffffffffffff161415620027a0576001905080805480600101828162002415919062002c7b565b9160005260206000209001600030909190916101000a81548173ffffffffffffffffffffffffffffffffffffffff021916908373ffffffffffffffffffffffffffffffffffffffff1602179055505080805480600101828162002479919062002c7b565b9160005260206000209001600033909190916101000a81548173ffffffffffffffffffffffffffffffffffffffff021916908373ffffffffffffffffffffffffffffffffffffffff16021790555050600360009054906101000a900473ffffffffffffffffffffffffffffffffffffffff1660018686620024f962002d31565b808573ffffffffffffffffffffffffffffffffffffffff1673ffffffffffffffffffffffffffffffffffffffff1681526020018060200180602001806020018481038452878181548152602001915080548015620025ad57602002820191906000526020600020905b8160009054906101000a900473ffffffffffffffffffffffffffffffffffffffff1673ffffffffffffffffffffffffffffffffffffffff168152602001906001019080831162002562575b5050848103835286818151815260200191508051906020019080838360005b83811015620025e9578082015181840152602081019050620025cc565b50505050905090810190601f168015620026175780820380516001836020036101000a031916815260200191505b50848103825285818151815260200191508051906020019080838360005b838110156200265257808201518184015260208101905062002635565b50505050905090810190601f168015620026805780820380516001836020036101000a031916815260200191505b50975050505050505050604051809103906000f0801515620026a157600080fd5b600a6000846000191660001916815260200190815260200160002060006101000a81548173ffffffffffffffffffffffffffffffffffffffff021916908373ffffffffffffffffffffffffffffffffffffffff1602179055506009805480600101828162002710919062002d42565b91600052602060002090016000600a6000866000191660001916815260200190815260200160002060009054906101000a900473ffffffffffffffffffffffffffffffffffffffff16909190916101000a81548173ffffffffffffffffffffffffffffffffffffffff021916908373ffffffffffffffffffffffffffffffffffffffff16021790555050620028d9565b600a6000836000191660001916815260200190815260200160002060009054906101000a900473ffffffffffffffffffffffffffffffffffffffff1673ffffffffffffffffffffffffffffffffffffffff16631aae2531856000604051602001526040518263ffffffff167c01000000000000000000000000000000000000000000000000000000000281526004018080602001828103825283818151815260200191508051906020019080838360005b838110156200286e57808201518184015260208101905062002851565b50505050905090810190601f1680156200289c5780820380516001836020036101000a031916815260200191505b5092505050602060405180830381600087803b1515620028bb57600080fd5b6102c65a03f11515620028cd57600080fd5b50505060405180519050505b600360009054906101000a900473ffffffffffffffffffffffffffffffffffffffff1673ffffffffffffffffffffffffffffffffffffffff16630d6d3b6e3430600a6000876000191660001916815260200190815260200160002060009054906101000a900473ffffffffffffffffffffffffffffffffffffffff167f4d657461446174615570646174650000000000000000000000000000000000006000604051602001526040518563ffffffff167c0100000000000000000000000000000000000000000000000000000000028152600401808473ffffffffffffffffffffffffffffffffffffffff1673ffffffffffffffffffffffffffffffffffffffff1681526020018373ffffffffffffffffffffffffffffffffffffffff1673ffffffffffffffffffffffffffffffffffffffff168152602001826000191660001916815260200193505050506020604051808303818588803b151562002a3e57600080fd5b6125ee5a03f1151562002a5057600080fd5b50505050604051805190505060019250505092915050565b62002a7262002d71565b600980548060200260200160405190810160405280929190818152602001828054801562002af657602002820191906000526020600020905b8160009054906101000a900473ffffffffffffffffffffffffffffffffffffffff1673ffffffffffffffffffffffffffffffffffffffff168152602001906001019080831162002aab575b5050505050905090565b600460009054906101000a900473ffffffffffffffffffffffffffffffffffffffff1681565b62002b3062002c67565b600260003373ffffffffffffffffffffffffffffffffffffffff1673ffffffffffffffffffffffffffffffffffffffff16815260200190815260200160002060009054906101000a900460ff16151562002b8957600080fd5b62002bf8826040518082805190602001908083835b60208310151562002bc5578051825260208201915060208101905060208303925062002b9e565b6001836020036101000a038019825116818451168082178552505050505050905001915050604051809103902062001700565b9050919050565b600080828401905083811015151562002c1457fe5b8091505092915050565b81548183558181151162002c4e5760040281600402836000526020600020918201910162002c4d919062002d85565b5b505050565b602060405190810160405280600081525090565b602060405190810160405280600081525090565b81548183558181151162002ca55781836000526020600020918201910162002ca4919062002de6565b5b505050565b828054600181600116156101000203166002900490600052602060002090601f016020900481019282601f1062002ced57805160ff191683800117855562002d1e565b8280016001018555821562002d1e579182015b8281111562002d1d57825182559160200191906001019062002d00565b5b50905062002d2d919062002de6565b5090565b604051610ff08062002e0f83390190565b81548183558181151162002d6c5781836000526020600020918201910162002d6b919062002de6565b5b505050565b602060405190810160405280600081525090565b62002de391905b8082111562002ddf57600080820160006101000a81549073ffffffffffffffffffffffffffffffffffffffff02191690556001820160009055600282016000905560038201600090555060040162002d8c565b5090565b90565b62002e0b91905b8082111562002e0757600081600090555060010162002ded565b5090565b905600606060405234156200001057600080fd5b60405162000ff038038062000ff0833981016040528080519060200190919080518201919060200180518201919060200180518201919050508260008090505b8151811015620000d757600160008084848151811015156200006e57fe5b9060200190602002015173ffffffffffffffffffffffffffffffffffffffff1673ffffffffffffffffffffffffffffffffffffffff16815260200190815260200160002060006101000a81548160ff021916908315150217905550808060010191505062000050565b8160019080519060200190620000ef9291906200016f565b50505083600260006101000a81548173ffffffffffffffffffffffffffffffffffffffff021916908373ffffffffffffffffffffffffffffffffffffffff16021790555081600390805190602001906200014b929190620001fe565b50806004908051906020019062000164929190620001fe565b5050505050620002f3565b828054828255906000526020600020908101928215620001eb579160200282015b82811115620001ea5782518260006101000a81548173ffffffffffffffffffffffffffffffffffffffff021916908373ffffffffffffffffffffffffffffffffffffffff1602179055509160200191906001019062000190565b5b509050620001fa919062000285565b5090565b828054600181600116156101000203166002900490600052602060002090601f016020900481019282601f106200024157805160ff191683800117855562000272565b8280016001018555821562000272579182015b828111156200027157825182559160200191906001019062000254565b5b509050620002819190620002cb565b5090565b620002c891905b80821115620002c457600081816101000a81549073ffffffffffffffffffffffffffffffffffffffff0219169055506001016200028c565b5090565b90565b620002f091905b80821115620002ec576000816000905550600101620002d2565b5090565b90565b610ced80620003036000396000f300606060405260043610610099576000357c0100000000000000000000000000000000000000000000000000000000900463ffffffff1680630fe4e9e81461009e57806314bfd6d01461013a5780631aae25311461019d57806324d7806c1461021257806331ae450b146102635780633c6bb436146102cd578063704802751461035b578063ce26e78a14610394578063e1b2e8b314610422575b600080fd5b34156100a957600080fd5b6100bf600480803590602001909190505061045b565b6040518080602001828103825283818151815260200191508051906020019080838360005b838110156100ff5780820151818401526020810190506100e4565b50505050905090810190601f16801561012c5780820380516001836020036101000a031916815260200191505b509250505060405180910390f35b341561014557600080fd5b61015b6004808035906020019091905050610517565b604051808273ffffffffffffffffffffffffffffffffffffffff1673ffffffffffffffffffffffffffffffffffffffff16815260200191505060405180910390f35b34156101a857600080fd5b6101f8600480803590602001908201803590602001908080601f01602080910402602001604051908101604052809392919081815260200183838082843782019150505050505091905050610556565b604051808215151515815260200191505060405180910390f35b341561021d57600080fd5b610249600480803573ffffffffffffffffffffffffffffffffffffffff1690602001909190505061060b565b604051808215151515815260200191505060405180910390f35b341561026e57600080fd5b61027661062b565b6040518080602001828103825283818151815260200191508051906020019060200280838360005b838110156102b957808201518184015260208101905061029e565b505050509050019250505060405180910390f35b34156102d857600080fd5b6102e06106bf565b6040518080602001828103825283818151815260200191508051906020019080838360005b83811015610320578082015181840152602081019050610305565b50505050905090810190601f16801561034d5780820380516001836020036101000a031916815260200191505b509250505060405180910390f35b341561036657600080fd5b610392600480803573ffffffffffffffffffffffffffffffffffffffff1690602001909190505061075d565b005b341561039f57600080fd5b6103a76108c8565b6040518080602001828103825283818151815260200191508051906020019080838360005b838110156103e75780820151818401526020810190506103cc565b50505050905090810190601f1680156104145780820380516001836020036101000a031916815260200191505b509250505060405180910390f35b341561042d57600080fd5b610459600480803573ffffffffffffffffffffffffffffffffffffffff16906020019091905050610966565b005b60058181548110151561046a57fe5b90600052602060002090016000915090508054600181600116156101000203166002900480601f01602080910402602001604051908101604052809291908181526020018280546001816001161561010002031660029004801561050f5780601f106104e45761010080835404028352916020019161050f565b820191906000526020600020905b8154815290600101906020018083116104f257829003601f168201915b505050505081565b60018181548110151561052657fe5b90600052602060002090016000915054906101000a900473ffffffffffffffffffffffffffffffffffffffff1681565b60008060003373ffffffffffffffffffffffffffffffffffffffff1673ffffffffffffffffffffffffffffffffffffffff16815260200190815260200160002060009054906101000a900460ff1615156105af57600080fd5b600580548060010182816105c39190610b3c565b9160005260206000209001600084909190915090805190602001906105e9929190610b68565b50508160049080519060200190610601929190610b68565b5060019050919050565b60006020528060005260406000206000915054906101000a900460ff1681565b610633610be8565b60018054806020026020016040519081016040528092919081815260200182805480156106b557602002820191906000526020600020905b8160009054906101000a900473ffffffffffffffffffffffffffffffffffffffff1673ffffffffffffffffffffffffffffffffffffffff168152602001906001019080831161066b575b5050505050905090565b60048054600181600116156101000203166002900480601f0160208091040260200160405190810160405280929190818152602001828054600181600116156101000203166002900480156107555780601f1061072a57610100808354040283529160200191610755565b820191906000526020600020905b81548152906001019060200180831161073857829003601f168201915b505050505081565b6000803373ffffffffffffffffffffffffffffffffffffffff1673ffffffffffffffffffffffffffffffffffffffff16815260200190815260200160002060009054906101000a900460ff1615156107b457600080fd5b6000803373ffffffffffffffffffffffffffffffffffffffff1673ffffffffffffffffffffffffffffffffffffffff16815260200190815260200160002060009054906101000a900460ff16151561080b57600080fd5b60016000808373ffffffffffffffffffffffffffffffffffffffff1673ffffffffffffffffffffffffffffffffffffffff16815260200190815260200160002060006101000a81548160ff021916908315150217905550600180548060010182816108769190610bfc565b9160005260206000209001600083909190916101000a81548173ffffffffffffffffffffffffffffffffffffffff021916908373ffffffffffffffffffffffffffffffffffffffff1602179055505050565b60038054600181600116156101000203166002900480601f01602080910402602001604051908101604052809291908181526020018280546001816001161561010002031660029004801561095e5780601f106109335761010080835404028352916020019161095e565b820191906000526020600020905b81548152906001019060200180831161094157829003601f168201915b505050505081565b60008060003373ffffffffffffffffffffffffffffffffffffffff1673ffffffffffffffffffffffffffffffffffffffff16815260200190815260200160002060009054906101000a900460ff1615156109bf57600080fd5b6000803373ffffffffffffffffffffffffffffffffffffffff1673ffffffffffffffffffffffffffffffffffffffff16815260200190815260200160002060009054906101000a900460ff161515610a1657600080fd5b60008060008473ffffffffffffffffffffffffffffffffffffffff1673ffffffffffffffffffffffffffffffffffffffff16815260200190815260200160002060006101000a81548160ff021916908315150217905550600090505b600180549050811015610b3857600181815481101515610a8e57fe5b906000526020600020900160009054906101000a900473ffffffffffffffffffffffffffffffffffffffff1673ffffffffffffffffffffffffffffffffffffffff168273ffffffffffffffffffffffffffffffffffffffff161415610b2b57600181815481101515610afc57fe5b906000526020600020900160006101000a81549073ffffffffffffffffffffffffffffffffffffffff02191690555b8080600101915050610a72565b5050565b815481835581811511610b6357818360005260206000209182019101610b629190610c28565b5b505050565b828054600181600116156101000203166002900490600052602060002090601f016020900481019282601f10610ba957805160ff1916838001178555610bd7565b82800160010185558215610bd7579182015b82811115610bd6578251825591602001919060010190610bbb565b5b509050610be49190610c54565b5090565b602060405190810160405280600081525090565b815481835581811511610c2357818360005260206000209182019101610c229190610c54565b5b505050565b610c5191905b80821115610c4d5760008181610c449190610c79565b50600101610c2e565b5090565b90565b610c7691905b80821115610c72576000816000905550600101610c5a565b5090565b90565b50805460018160011615610100020316600290046000825580601f10610c9f5750610cbe565b601f016020900490600052602060002090810190610cbd9190610c54565b5b505600a165627a7a72305820d1e0c57c2752e24b9be15023018c713d67e22f22e1555cf5b6b70a5012ab42fe0029a165627a7a7230582035bb0a44040a68b2fcf51dd0ef7728f199636d7ae819898184d92f87e60e90a60029",
  "source": "pragma solidity ^0.4.18; //We have to specify what version of the compiler this code will use\n\nimport \"./admin/Administered.sol\";\nimport \"./SmartKey.sol\";\nimport \"./MetaData.sol\";\n\ncontract NodeMetaData is Administered, Key {\n       \n  //PAS 212:2016\n  MetaData[] public meta;\n  mapping (bytes32 => MetaData) public itemMetaData; // rel is hashed to bytes32 data   \n  //PAS 212:2016\n  \n  //event MetaDataUpdate(address indexed user, address indexed metaDataContract, string rel, string val);\n  \n  function NodeMetaData(SmartKey _smartKey, address[] adminAddress) \n  public\n  Administered(adminAddress)\n  Key(_smartKey, address(this))\n  {\n      smartKey=_smartKey;  \n  }\n\n  function getSmartKey()\n  constant\n  public\n  returns (SmartKey)\n  {\n      return smartKey;\n  }\n\n  function selectMetaData() \n  constant\n  public\n  returns (MetaData[]) \n  {\n         return meta;\n  }\n\n  \n  function upsertMetaData(string _rel, string _val) \n  public\n  payable\n  returns (bool)\n  {\n  \n      bytes32 hashVal=getHash(_rel);\n      \n\n      if (itemMetaData[hashVal] == address(0)) {\n            address[] storage _admins=admins;\n            _admins.push(address(this));\n            _admins.push(msg.sender);\n            itemMetaData[hashVal]=new MetaData(smartKey, admins, _rel, _val);\n            meta.push(itemMetaData[hashVal]);\n      } else {\n            itemMetaData[hashVal].setVal(_val);\n      } \n      \n      smartKey.loadSmartKey.value(msg.value)(Key(this), address(itemMetaData[hashVal]), bytes32(\"MetaDataUpdate\"));\n      return true;\n  }\n \n}",
  "sourcePath": "/mnt/d/iotblock/server/browser/contracts/NodeMetaData.sol",
  "compiler": {
    "name": "solc",
    "version": "0.4.19+commit.c4cbbb05.Emscripten.clang"
  },
  "schemaVersion": "2.0.0",
  "updatedAt": "2018-07-04T05:35:12.454Z"
}