{
  "contractName": "SmartPoolKey",
  "abi": [
    {
      "constant": true,
      "inputs": [
        {
          "name": "",
          "type": "uint256"
        }
      ],
      "name": "admins",
      "outputs": [
        {
          "name": "",
          "type": "address"
        }
      ],
      "payable": false,
      "stateMutability": "view",
      "type": "function"
    },
    {
      "constant": true,
      "inputs": [
        {
          "name": "",
          "type": "address"
        }
      ],
      "name": "isAdmin",
      "outputs": [
        {
          "name": "",
          "type": "bool"
        }
      ],
      "payable": false,
      "stateMutability": "view",
      "type": "function"
    },
    {
      "constant": true,
      "inputs": [],
      "name": "getAdmins",
      "outputs": [
        {
          "name": "",
          "type": "address[]"
        }
      ],
      "payable": false,
      "stateMutability": "view",
      "type": "function"
    },
    {
      "constant": true,
      "inputs": [
        {
          "name": "",
          "type": "address"
        }
      ],
      "name": "smartPoolKeys",
      "outputs": [
        {
          "name": "",
          "type": "address"
        }
      ],
      "payable": false,
      "stateMutability": "view",
      "type": "function"
    },
    {
      "constant": false,
      "inputs": [
        {
          "name": "admin",
          "type": "address"
        }
      ],
      "name": "addAdmin",
      "outputs": [],
      "payable": false,
      "stateMutability": "nonpayable",
      "type": "function"
    },
    {
      "constant": false,
      "inputs": [
        {
          "name": "banned",
          "type": "address"
        }
      ],
      "name": "addBanned",
      "outputs": [],
      "payable": false,
      "stateMutability": "nonpayable",
      "type": "function"
    },
    {
      "inputs": [
        {
          "name": "_smartKey",
          "type": "address"
        },
        {
          "name": "adminAddress",
          "type": "address[]"
        }
      ],
      "payable": false,
      "stateMutability": "nonpayable",
      "type": "constructor"
    },
    {
      "constant": false,
      "inputs": [
        {
          "name": "_vault",
          "type": "address"
        }
      ],
      "name": "setVault",
      "outputs": [
        {
          "name": "",
          "type": "bool"
        }
      ],
      "payable": false,
      "stateMutability": "nonpayable",
      "type": "function"
    },
    {
      "constant": true,
      "inputs": [
        {
          "name": "beneficiary",
          "type": "address"
        }
      ],
      "name": "getSmartPoolKey",
      "outputs": [
        {
          "name": "",
          "type": "address"
        }
      ],
      "payable": false,
      "stateMutability": "view",
      "type": "function"
    },
    {
      "constant": false,
      "inputs": [
        {
          "name": "beneficiary",
          "type": "address"
        },
        {
          "name": "max_contrib",
          "type": "uint256"
        },
        {
          "name": "max_per_contrib",
          "type": "uint256"
        },
        {
          "name": "min_per_contrib",
          "type": "uint256"
        },
        {
          "name": "admins",
          "type": "address[]"
        },
        {
          "name": "_has_whitelist",
          "type": "bool"
        },
        {
          "name": "fee",
          "type": "uint256"
        },
        {
          "name": "_autoDistribute",
          "type": "bool"
        }
      ],
      "name": "addSmartPoolKey",
      "outputs": [
        {
          "name": "",
          "type": "address"
        }
      ],
      "payable": false,
      "stateMutability": "nonpayable",
      "type": "function"
    }
  ],
  "bytecode": "0x6060604052341561000f57600080fd5b60405162004f9638038062004f96833981016040528080519060200190919080518201919050508060008090505b81518110156100c1576001600080848481518110151561005957fe5b9060200190602002015173ffffffffffffffffffffffffffffffffffffffff1673ffffffffffffffffffffffffffffffffffffffff16815260200190815260200160002060006101000a81548160ff021916908315150217905550808060010191505061003d565b81600190805190602001906100d792919061017b565b50505081600260006101000a81548173ffffffffffffffffffffffffffffffffffffffff021916908373ffffffffffffffffffffffffffffffffffffffff16021790555080600081518110151561012a57fe5b90602001906020020151600360006101000a81548173ffffffffffffffffffffffffffffffffffffffff021916908373ffffffffffffffffffffffffffffffffffffffff1602179055505050610248565b8280548282559060005260206000209081019282156101f4579160200282015b828111156101f35782518260006101000a81548173ffffffffffffffffffffffffffffffffffffffff021916908373ffffffffffffffffffffffffffffffffffffffff1602179055509160200191906001019061019b565b5b5090506102019190610205565b5090565b61024591905b8082111561024157600081816101000a81549073ffffffffffffffffffffffffffffffffffffffff02191690555060010161020b565b5090565b90565b614d3e80620002586000396000f300606060405260043610620000a3576000357c0100000000000000000000000000000000000000000000000000000000900463ffffffff16806314bfd6d014620000a857806324d7806c146200010e57806328d0d6ba146200016257806331ae450b14620001de5780636817031b146200024d5780636f85714914620002a157806370480275146200031d5780637481ac6c1462000359578063e1b2e8b3146200044f575b600080fd5b3415620000b457600080fd5b620000cc60048080359060200190919050506200048b565b604051808273ffffffffffffffffffffffffffffffffffffffff1673ffffffffffffffffffffffffffffffffffffffff16815260200191505060405180910390f35b34156200011a57600080fd5b62000148600480803573ffffffffffffffffffffffffffffffffffffffff16906020019091905050620004cb565b604051808215151515815260200191505060405180910390f35b34156200016e57600080fd5b6200019c600480803573ffffffffffffffffffffffffffffffffffffffff16906020019091905050620004eb565b604051808273ffffffffffffffffffffffffffffffffffffffff1673ffffffffffffffffffffffffffffffffffffffff16815260200191505060405180910390f35b3415620001ea57600080fd5b620001f462000554565b6040518080602001828103825283818151815260200191508051906020019060200280838360005b83811015620002395780820151818401526020810190506200021c565b505050509050019250505060405180910390f35b34156200025957600080fd5b62000287600480803573ffffffffffffffffffffffffffffffffffffffff16906020019091905050620005ec565b604051808215151515815260200191505060405180910390f35b3415620002ad57600080fd5b620002db600480803573ffffffffffffffffffffffffffffffffffffffff1690602001909190505062000690565b604051808273ffffffffffffffffffffffffffffffffffffffff1673ffffffffffffffffffffffffffffffffffffffff16815260200191505060405180910390f35b34156200032957600080fd5b62000357600480803573ffffffffffffffffffffffffffffffffffffffff16906020019091905050620006c3565b005b34156200036557600080fd5b6200040d600480803573ffffffffffffffffffffffffffffffffffffffff16906020019091908035906020019091908035906020019091908035906020019091908035906020019082018035906020019080806020026020016040519081016040528093929190818152602001838360200280828437820191505050505050919080351515906020019091908035906020019091908035151590602001909190505062000832565b604051808273ffffffffffffffffffffffffffffffffffffffff1673ffffffffffffffffffffffffffffffffffffffff16815260200191505060405180910390f35b34156200045b57600080fd5b62000489600480803573ffffffffffffffffffffffffffffffffffffffff1690602001909190505062000b71565b005b6001818154811015156200049b57fe5b90600052602060002090016000915054906101000a900473ffffffffffffffffffffffffffffffffffffffff1681565b60006020528060005260406000206000915054906101000a900460ff1681565b6000600460008373ffffffffffffffffffffffffffffffffffffffff1673ffffffffffffffffffffffffffffffffffffffff16815260200190815260200160002060009054906101000a900473ffffffffffffffffffffffffffffffffffffffff169050919050565b6200055e62000d4e565b6001805480602002602001604051908101604052809291908181526020018280548015620005e257602002820191906000526020600020905b8160009054906101000a900473ffffffffffffffffffffffffffffffffffffffff1673ffffffffffffffffffffffffffffffffffffffff168152602001906001019080831162000597575b5050505050905090565b60008060003373ffffffffffffffffffffffffffffffffffffffff1673ffffffffffffffffffffffffffffffffffffffff16815260200190815260200160002060009054906101000a900460ff1615156200064657600080fd5b81600360006101000a81548173ffffffffffffffffffffffffffffffffffffffff021916908373ffffffffffffffffffffffffffffffffffffffff16021790555060019050919050565b60046020528060005260406000206000915054906101000a900473ffffffffffffffffffffffffffffffffffffffff1681565b6000803373ffffffffffffffffffffffffffffffffffffffff1673ffffffffffffffffffffffffffffffffffffffff16815260200190815260200160002060009054906101000a900460ff1615156200071b57600080fd5b6000803373ffffffffffffffffffffffffffffffffffffffff1673ffffffffffffffffffffffffffffffffffffffff16815260200190815260200160002060009054906101000a900460ff1615156200077357600080fd5b60016000808373ffffffffffffffffffffffffffffffffffffffff1673ffffffffffffffffffffffffffffffffffffffff16815260200190815260200160002060006101000a81548160ff02191690831515021790555060018054806001018281620007e0919062000d62565b9160005260206000209001600083909190916101000a81548173ffffffffffffffffffffffffffffffffffffffff021916908373ffffffffffffffffffffffffffffffffffffffff1602179055505050565b60008060008a73ffffffffffffffffffffffffffffffffffffffff16141515156200085c57600080fd5b600073ffffffffffffffffffffffffffffffffffffffff16600460008c73ffffffffffffffffffffffffffffffffffffffff1673ffffffffffffffffffffffffffffffffffffffff16815260200190815260200160002060009054906101000a900473ffffffffffffffffffffffffffffffffffffffff1673ffffffffffffffffffffffffffffffffffffffff16141562000afe57600260009054906101000a900473ffffffffffffffffffffffffffffffffffffffff16600360009054906101000a900473ffffffffffffffffffffffffffffffffffffffff168b8b8b8b8b8b8b8b6200094962000d91565b808b73ffffffffffffffffffffffffffffffffffffffff1673ffffffffffffffffffffffffffffffffffffffff1681526020018a73ffffffffffffffffffffffffffffffffffffffff1673ffffffffffffffffffffffffffffffffffffffff1681526020018973ffffffffffffffffffffffffffffffffffffffff1673ffffffffffffffffffffffffffffffffffffffff168152602001888152602001878152602001868152602001806020018515151515815260200184815260200183151515158152602001828103825286818151815260200191508051906020019060200280838360005b8381101562000a4d57808201518184015260208101905062000a30565b505050509050019b505050505050505050505050604051809103906000f080151562000a7857600080fd5b905080600460008c73ffffffffffffffffffffffffffffffffffffffff1673ffffffffffffffffffffffffffffffffffffffff16815260200190815260200160002060006101000a81548173ffffffffffffffffffffffffffffffffffffffff021916908373ffffffffffffffffffffffffffffffffffffffff16021790555062000b61565b600460008b73ffffffffffffffffffffffffffffffffffffffff1673ffffffffffffffffffffffffffffffffffffffff16815260200190815260200160002060009054906101000a900473ffffffffffffffffffffffffffffffffffffffff1690505b8091505098975050505050505050565b60008060003373ffffffffffffffffffffffffffffffffffffffff1673ffffffffffffffffffffffffffffffffffffffff16815260200190815260200160002060009054906101000a900460ff16151562000bcb57600080fd5b6000803373ffffffffffffffffffffffffffffffffffffffff1673ffffffffffffffffffffffffffffffffffffffff16815260200190815260200160002060009054906101000a900460ff16151562000c2357600080fd5b60008060008473ffffffffffffffffffffffffffffffffffffffff1673ffffffffffffffffffffffffffffffffffffffff16815260200190815260200160002060006101000a81548160ff021916908315150217905550600090505b60018054905081101562000d4a5760018181548110151562000c9d57fe5b906000526020600020900160009054906101000a900473ffffffffffffffffffffffffffffffffffffffff1673ffffffffffffffffffffffffffffffffffffffff168273ffffffffffffffffffffffffffffffffffffffff16141562000d3c5760018181548110151562000d0d57fe5b906000526020600020900160006101000a81549073ffffffffffffffffffffffffffffffffffffffff02191690555b808060010191505062000c7f565b5050565b602060405190810160405280600081525090565b81548183558181151162000d8c5781836000526020600020918201910162000d8b919062000da2565b5b505050565b604051613f488062000dcb83390190565b62000dc791905b8082111562000dc357600081600090555060010162000da9565b5090565b905600606060405234156200001057600080fd5b60405162003f4838038062003f48833981016040528080519060200190919080519060200190919080519060200190919080519060200190919080519060200190919080519060200190919080518201919060200180519060200190919080519060200190919080519060200190919050506000848560008260008f8e60016000803373ffffffffffffffffffffffffffffffffffffffff1673ffffffffffffffffffffffffffffffffffffffff16815260200190815260200160002060006101000a81548160ff02191690831515021790555060008173ffffffffffffffffffffffffffffffffffffffff16141515156200010b57600080fd5b80600260006101000a81548173ffffffffffffffffffffffffffffffffffffffff021916908373ffffffffffffffffffffffffffffffffffffffff16021790555081600160006101000a81548173ffffffffffffffffffffffffffffffffffffffff021916908373ffffffffffffffffffffffffffffffffffffffff1602179055506000600260146101000a81548160ff02191690836002811115620001ad57fe5b021790555060016000808373ffffffffffffffffffffffffffffffffffffffff1673ffffffffffffffffffffffffffffffffffffffff16815260200190815260200160002060006101000a81548160ff02191690831515021790555060016000808473ffffffffffffffffffffffffffffffffffffffff1673ffffffffffffffffffffffffffffffffffffffff16815260200190815260200160002060006101000a81548160ff0219169083151502179055505050600090505b8151811015620002ef5760016007600084848151811015156200028657fe5b9060200190602002015173ffffffffffffffffffffffffffffffffffffffff1673ffffffffffffffffffffffffffffffffffffffff16815260200190815260200160002060006101000a81548160ff021916908315150217905550808060010191505062000267565b8160089080519060200190620003079291906200053f565b505050600082511115620003dc57600090505b8151811015620003a25760016009600084848151811015156200033957fe5b9060200190602002015173ffffffffffffffffffffffffffffffffffffffff1673ffffffffffffffffffffffffffffffffffffffff16815260200190815260200160002060006101000a81548160ff02191690831515021790555080806001019150506200031a565b81600a9080519060200190620003ba9291906200053f565b506001600b60006101000a81548160ff021916908315150217905550620003f8565b6000600b60006101000a81548160ff0219169083151502179055505b50505089600f60006101000a81548173ffffffffffffffffffffffffffffffffffffffff021916908373ffffffffffffffffffffffffffffffffffffffff16021790555082601481905550876011819055508660128190555085601381905550600060038190555083600b60016101000a81548160ff02191690831515021790555081600b60026101000a81548160ff021916908315150217905550600090505b84518110156200052e57600c8054806001018281620004b99190620005ce565b916000526020600020900160008784815181101515620004d557fe5b90602001906020020151909190916101000a81548173ffffffffffffffffffffffffffffffffffffffff021916908373ffffffffffffffffffffffffffffffffffffffff16021790555050808060010191505062000499565b50505050505050505050506200066b565b828054828255906000526020600020908101928215620005bb579160200282015b82811115620005ba5782518260006101000a81548173ffffffffffffffffffffffffffffffffffffffff021916908373ffffffffffffffffffffffffffffffffffffffff1602179055509160200191906001019062000560565b5b509050620005ca9190620005fd565b5090565b815481835581811511620005f857818360005260206000209182019101620005f7919062000643565b5b505050565b6200064091905b808211156200063c57600081816101000a81549073ffffffffffffffffffffffffffffffffffffffff02191690555060010162000604565b5090565b90565b6200066891905b80821115620006645760008160009055506001016200064a565b5090565b90565b6138cd806200067b6000396000f300606060405260043610610225576000357c0100000000000000000000000000000000000000000000000000000000900463ffffffff16806303db428d146103775780630c8a6f1a1461042f578063113adf491461045857806314538128146104ad57806314bfd6d014610544578063173825d9146105a75780631801e156146105e0578063202e079d1461061157806323ca0cd21461063a57806324d7806c146106875780632f54bf6e146106d857806331ae450b1461072957806338af3eed146107935780633af32abf146107e857806349f9c0e4146108395780634b47002c1461087b5780635436e5a0146108d05780635b2ce586146109705780635b6beeb91461098b5780635daf08ca14610a04578063640e7fd514610a675780637048027514610a9e5780637065cb4814610ad75780637497020014610b105780637633a22c14610b4b578063779d867714610b8257806378c8cda714610bcf5780637e43eef414610c085780637ebd1b3014610c3557806390fa5ec814610c985780639172fe0814610cc15780639eab525314610cef578063a230c52414610d59578063a8f11eb914610da6578063af92c18114610dd3578063b764e53e14610de8578063c19d93fb14610e11578063d01f63f514610e48578063d4c2f75c14610eb2578063ddca3f4314610f34578063df0cb93414610f5d578063e1b2e8b314610faa578063f80f5dd514610fe3578063fbfa77cf1461101c578063fd08e0c714611071575b600560003373ffffffffffffffffffffffffffffffffffffffff1673ffffffffffffffffffffffffffffffffffffffff16815260200190815260200160002080548060010182816102769190613718565b916000526020600020906004020160006080604051908101604052803373ffffffffffffffffffffffffffffffffffffffff1681526020014281526020013481526020016000815250909190915060008201518160000160006101000a81548173ffffffffffffffffffffffffffffffffffffffff021916908373ffffffffffffffffffffffffffffffffffffffff160217905550602082015181600101556040820151816002015560608201518160030155505050600b60029054906101000a900460ff161561036b576103563460035461114790919063ffffffff16565b60038190555061036534611165565b50610375565b61037433611ba0565b5b005b341561038257600080fd5b610415600480803590602001908201803590602001908080601f0160208091040260200160405190810160405280939291908181526020018383808284378201915050505050509190803590602001908201803590602001908080601f01602080910402602001604051908101604052809392919081815260200183838082843782019150505050505091905050611ce9565b604051808215151515815260200191505060405180910390f35b341561043a57600080fd5b610442611db6565b6040518082815260200191505060405180910390f35b341561046357600080fd5b61046b611dbc565b604051808273ffffffffffffffffffffffffffffffffffffffff1673ffffffffffffffffffffffffffffffffffffffff16815260200191505060405180910390f35b34156104b857600080fd5b6104ed600480803573ffffffffffffffffffffffffffffffffffffffff16906020019091908035906020019091905050611de2565b604051808573ffffffffffffffffffffffffffffffffffffffff1673ffffffffffffffffffffffffffffffffffffffff16815260200184815260200183815260200182815260200194505050505060405180910390f35b341561054f57600080fd5b6105656004808035906020019091905050611e4e565b604051808273ffffffffffffffffffffffffffffffffffffffff1673ffffffffffffffffffffffffffffffffffffffff16815260200191505060405180910390f35b34156105b257600080fd5b6105de600480803573ffffffffffffffffffffffffffffffffffffffff16906020019091905050611e8d565b005b34156105eb57600080fd5b6105f3611f95565b60405180826000191660001916815260200191505060405180910390f35b341561061c57600080fd5b610624612216565b6040518082815260200191505060405180910390f35b341561064557600080fd5b610671600480803573ffffffffffffffffffffffffffffffffffffffff1690602001909190505061221c565b6040518082815260200191505060405180910390f35b341561069257600080fd5b6106be600480803573ffffffffffffffffffffffffffffffffffffffff16906020019091905050612268565b604051808215151515815260200191505060405180910390f35b34156106e357600080fd5b61070f600480803573ffffffffffffffffffffffffffffffffffffffff16906020019091905050612288565b604051808215151515815260200191505060405180910390f35b341561073457600080fd5b61073c6122a8565b6040518080602001828103825283818151815260200191508051906020019060200280838360005b8381101561077f578082015181840152602081019050610764565b505050509050019250505060405180910390f35b341561079e57600080fd5b6107a661233c565b604051808273ffffffffffffffffffffffffffffffffffffffff1673ffffffffffffffffffffffffffffffffffffffff16815260200191505060405180910390f35b34156107f357600080fd5b61081f600480803573ffffffffffffffffffffffffffffffffffffffff16906020019091905050612362565b604051808215151515815260200191505060405180910390f35b341561084457600080fd5b610879600480803590602001909190803573ffffffffffffffffffffffffffffffffffffffff16906020019091905050612382565b005b341561088657600080fd5b61088e612558565b604051808273ffffffffffffffffffffffffffffffffffffffff1673ffffffffffffffffffffffffffffffffffffffff16815260200191505060405180910390f35b34156108db57600080fd5b6108f560048080356000191690602001909190505061257e565b6040518080602001828103825283818151815260200191508051906020019080838360005b8381101561093557808201518184015260208101905061091a565b50505050905090810190601f1680156109625780820380516001836020036101000a031916815260200191505b509250505060405180910390f35b610989600480803560ff16906020019091905050612698565b005b341561099657600080fd5b6109e6600480803590602001908201803590602001908080601f01602080910402602001604051908101604052809392919081815260200183838082843782019150505050505091905050612ada565b60405180826000191660001916815260200191505060405180910390f35b3415610a0f57600080fd5b610a256004808035906020019091905050612b46565b604051808273ffffffffffffffffffffffffffffffffffffffff1673ffffffffffffffffffffffffffffffffffffffff16815260200191505060405180910390f35b3415610a7257600080fd5b610a7a612b85565b60405180826006811115610a8a57fe5b60ff16815260200191505060405180910390f35b3415610aa957600080fd5b610ad5600480803573ffffffffffffffffffffffffffffffffffffffff16906020019091905050612b9c565b005b3415610ae257600080fd5b610b0e600480803573ffffffffffffffffffffffffffffffffffffffff16906020019091905050612d0a565b005b3415610b1b57600080fd5b610b316004808035906020019091905050611165565b604051808215151515815260200191505060405180910390f35b3415610b5657600080fd5b610b5e612e12565b60405180826006811115610b6e57fe5b60ff16815260200191505060405180910390f35b3415610b8d57600080fd5b610bb9600480803573ffffffffffffffffffffffffffffffffffffffff16906020019091905050612e25565b6040518082815260200191505060405180910390f35b3415610bda57600080fd5b610c06600480803573ffffffffffffffffffffffffffffffffffffffff16906020019091905050612e3d565b005b3415610c1357600080fd5b610c1b612fbe565b604051808215151515815260200191505060405180910390f35b3415610c4057600080fd5b610c566004808035906020019091905050612fd1565b604051808273ffffffffffffffffffffffffffffffffffffffff1673ffffffffffffffffffffffffffffffffffffffff16815260200191505060405180910390f35b3415610ca357600080fd5b610cab613010565b6040518082815260200191505060405180910390f35b610ced600480803573ffffffffffffffffffffffffffffffffffffffff16906020019091905050611ba0565b005b3415610cfa57600080fd5b610d02613016565b6040518080602001828103825283818151815260200191508051906020019060200280838360005b83811015610d45578082015181840152602081019050610d2a565b505050509050019250505060405180910390f35b3415610d6457600080fd5b610d90600480803573ffffffffffffffffffffffffffffffffffffffff169060200190919050506130aa565b6040518082815260200191505060405180910390f35b3415610db157600080fd5b610db96130c2565b604051808215151515815260200191505060405180910390f35b3415610dde57600080fd5b610de66130d5565b005b3415610df357600080fd5b610dfb613185565b6040518082815260200191505060405180910390f35b3415610e1c57600080fd5b610e2461318b565b60405180826002811115610e3457fe5b60ff16815260200191505060405180910390f35b3415610e5357600080fd5b610e5b61319e565b6040518080602001828103825283818151815260200191508051906020019060200280838360005b83811015610e9e578082015181840152602081019050610e83565b505050509050019250505060405180910390f35b3415610ebd57600080fd5b610f1a60048080356000191690602001909190803590602001908201803590602001908080601f01602080910402602001604051908101604052809392919081815260200183838082843782019150505050505091905050613232565b604051808215151515815260200191505060405180910390f35b3415610f3f57600080fd5b610f476132c5565b6040518082815260200191505060405180910390f35b3415610f6857600080fd5b610f94600480803573ffffffffffffffffffffffffffffffffffffffff169060200190919050506132cb565b6040518082815260200191505060405180910390f35b3415610fb557600080fd5b610fe1600480803573ffffffffffffffffffffffffffffffffffffffff169060200190919050506132e3565b005b3415610fee57600080fd5b61101a600480803573ffffffffffffffffffffffffffffffffffffffff169060200190919050506134bc565b005b341561102757600080fd5b61102f6135ed565b604051808273ffffffffffffffffffffffffffffffffffffffff1673ffffffffffffffffffffffffffffffffffffffff16815260200191505060405180910390f35b341561107c57600080fd5b6110cc600480803590602001908201803590602001908080601f01602080910402602001604051908101604052809392919081815260200183838082843782019150505050505091905050613613565b6040518080602001828103825283818151815260200191508051906020019080838360005b8381101561110c5780820151818401526020810190506110f1565b50505050905090810190601f1680156111395780820380516001836020036101000a031916815260200191505b509250505060405180910390f35b600080828401905083811015151561115b57fe5b8091505092915050565b600080600080600060135486101580156111c05750601254600d60003373ffffffffffffffffffffffffffffffffffffffff1673ffffffffffffffffffffffffffffffffffffffff1681526020019081526020016000205411155b15611b9257600b60019054906101000a900460ff16158061122a5750600960003373ffffffffffffffffffffffffffffffffffffffff1673ffffffffffffffffffffffffffffffffffffffff16815260200190815260200160002060009054906101000a900460ff165b15611b915761124360c8876136e490919063ffffffff16565b935061125a601454876136e490919063ffffffff16565b92506112818361127386896136ff90919063ffffffff16565b6136ff90919063ffffffff16565b915061129b600c80549050836136e490919063ffffffff16565b9150600f60009054906101000a900473ffffffffffffffffffffffffffffffffffffffff1673ffffffffffffffffffffffffffffffffffffffff166108fc859081150290604051600060405180830381858888f1935050505015156112ff57600080fd5b600260009054906101000a900473ffffffffffffffffffffffffffffffffffffffff1673ffffffffffffffffffffffffffffffffffffffff166108fc849081150290604051600060405180830381858888f19350505050151561136157600080fd5b6113d584600e6000600f60009054906101000a900473ffffffffffffffffffffffffffffffffffffffff1673ffffffffffffffffffffffffffffffffffffffff1673ffffffffffffffffffffffffffffffffffffffff1681526020019081526020016000205461114790919063ffffffff16565b600e6000600f60009054906101000a900473ffffffffffffffffffffffffffffffffffffffff1673ffffffffffffffffffffffffffffffffffffffff1673ffffffffffffffffffffffffffffffffffffffff168152602001908152602001600020819055506114ae83600e6000600260009054906101000a900473ffffffffffffffffffffffffffffffffffffffff1673ffffffffffffffffffffffffffffffffffffffff1673ffffffffffffffffffffffffffffffffffffffff1681526020019081526020016000205461114790919063ffffffff16565b600e6000600260009054906101000a900473ffffffffffffffffffffffffffffffffffffffff1673ffffffffffffffffffffffffffffffffffffffff1673ffffffffffffffffffffffffffffffffffffffff1681526020019081526020016000208190555060056000600f60009054906101000a900473ffffffffffffffffffffffffffffffffffffffff1673ffffffffffffffffffffffffffffffffffffffff1673ffffffffffffffffffffffffffffffffffffffff16815260200190815260200160002080548060010182816115869190613718565b916000526020600020906004020160006080604051908101604052803373ffffffffffffffffffffffffffffffffffffffff1681526020014281526020018881526020016000815250909190915060008201518160000160006101000a81548173ffffffffffffffffffffffffffffffffffffffff021916908373ffffffffffffffffffffffffffffffffffffffff16021790555060208201518160010155604082015181600201556060820151816003015550505060056000600260009054906101000a900473ffffffffffffffffffffffffffffffffffffffff1673ffffffffffffffffffffffffffffffffffffffff1673ffffffffffffffffffffffffffffffffffffffff16815260200190815260200160002080548060010182816116af9190613718565b916000526020600020906004020160006080604051908101604052803373ffffffffffffffffffffffffffffffffffffffff1681526020014281526020018781526020016000815250909190915060008201518160000160006101000a81548173ffffffffffffffffffffffffffffffffffffffff021916908373ffffffffffffffffffffffffffffffffffffffff1602179055506020820151816001015560408201518160020155606082015181600301555050506117b786600d60003373ffffffffffffffffffffffffffffffffffffffff1673ffffffffffffffffffffffffffffffffffffffff1681526020019081526020016000205461114790919063ffffffff16565b600d60003373ffffffffffffffffffffffffffffffffffffffff1673ffffffffffffffffffffffffffffffffffffffff16815260200190815260200160002081905550600090505b600c80549050811015611add57600c8181548110151561181b57fe5b906000526020600020900160009054906101000a900473ffffffffffffffffffffffffffffffffffffffff1673ffffffffffffffffffffffffffffffffffffffff166108fc839081150290604051600060405180830381858888f19350505050151561188657600080fd5b61191282600e6000600c8581548110151561189d57fe5b906000526020600020900160009054906101000a900473ffffffffffffffffffffffffffffffffffffffff1673ffffffffffffffffffffffffffffffffffffffff1673ffffffffffffffffffffffffffffffffffffffff1681526020019081526020016000205461114790919063ffffffff16565b600e6000600c8481548110151561192557fe5b906000526020600020900160009054906101000a900473ffffffffffffffffffffffffffffffffffffffff1673ffffffffffffffffffffffffffffffffffffffff1673ffffffffffffffffffffffffffffffffffffffff1681526020019081526020016000208190555060056000600c838154811015156119a257fe5b906000526020600020900160009054906101000a900473ffffffffffffffffffffffffffffffffffffffff1673ffffffffffffffffffffffffffffffffffffffff1673ffffffffffffffffffffffffffffffffffffffff1681526020019081526020016000208054806001018281611a1a9190613718565b916000526020600020906004020160006080604051908101604052803373ffffffffffffffffffffffffffffffffffffffff1681526020014281526020018681526020016000815250909190915060008201518160000160006101000a81548173ffffffffffffffffffffffffffffffffffffffff021916908373ffffffffffffffffffffffffffffffffffffffff16021790555060208201518160010155604082015181600201556060820151816003015550505080806001019150506117ff565b85600d60003373ffffffffffffffffffffffffffffffffffffffff1673ffffffffffffffffffffffffffffffffffffffff168152602001908152602001600020541415611b8857600c8054806001018281611b38919061374a565b9160005260206000209001600033909190916101000a81548173ffffffffffffffffffffffffffffffffffffffff021916908373ffffffffffffffffffffffffffffffffffffffff160217905550505b60019450611b97565b5b600094505b50505050919050565b6001600260146101000a81548160ff02191690836002811115611bbf57fe5b0217905550611bd93460035461114790919063ffffffff16565b600381905550600560008273ffffffffffffffffffffffffffffffffffffffff1673ffffffffffffffffffffffffffffffffffffffff1681526020019081526020016000208054806001018281611c309190613718565b916000526020600020906004020160006080604051908101604052803373ffffffffffffffffffffffffffffffffffffffff1681526020014281526020013481526020016000815250909190915060008201518160000160006101000a81548173ffffffffffffffffffffffffffffffffffffffff021916908373ffffffffffffffffffffffffffffffffffffffff16021790555060208201518160010155604082015181600201556060820151816003015550505050565b60008060003373ffffffffffffffffffffffffffffffffffffffff1673ffffffffffffffffffffffffffffffffffffffff16815260200190815260200160002060009054906101000a900460ff161515611d4257600080fd5b611dae836040518082805190602001908083835b602083101515611d7b5780518252602082019150602081019050602083039250611d56565b6001836020036101000a038019825116818451168082178552505050505050905001915050604051809103902083613232565b905092915050565b60135481565b600160009054906101000a900473ffffffffffffffffffffffffffffffffffffffff1681565b600560205281600052604060002081815481101515611dfd57fe5b9060005260206000209060040201600091509150508060000160009054906101000a900473ffffffffffffffffffffffffffffffffffffffff16908060010154908060020154908060030154905084565b600881815481101515611e5d57fe5b90600052602060002090016000915054906101000a900473ffffffffffffffffffffffffffffffffffffffff1681565b6000803373ffffffffffffffffffffffffffffffffffffffff1673ffffffffffffffffffffffffffffffffffffffff16815260200190815260200160002060009054906101000a900460ff161515611ee457600080fd5b6000803373ffffffffffffffffffffffffffffffffffffffff1673ffffffffffffffffffffffffffffffffffffffff16815260200190815260200160002060009054906101000a900460ff161515611f3b57600080fd5b60008060008373ffffffffffffffffffffffffffffffffffffffff1673ffffffffffffffffffffffffffffffffffffffff16815260200190815260200160002060006101000a81548160ff02191690831515021790555050565b6000806006811115611fa357fe5b600260159054906101000a900460ff166006811115611fbe57fe5b1415611fec577f50726f766973696f6e696e6700000000000000000000000000000000000000009050612213565b60016006811115611ff957fe5b600260159054906101000a900460ff16600681111561201457fe5b1415612042577f43657274696669656400000000000000000000000000000000000000000000009050612213565b6002600681111561204f57fe5b600260159054906101000a900460ff16600681111561206a57fe5b1415612098577f4d6f6469666965640000000000000000000000000000000000000000000000009050612213565b600360068111156120a557fe5b600260159054906101000a900460ff1660068111156120c057fe5b14156120ee577f436f6d70726f6d697365640000000000000000000000000000000000000000009050612213565b600460068111156120fb57fe5b600260159054906101000a900460ff16600681111561211657fe5b1415612144577f4d616c66756e6374696f6e696e670000000000000000000000000000000000009050612213565b6005600681111561215157fe5b600260159054906101000a900460ff16600681111561216c57fe5b141561219a577f4861726d66756c000000000000000000000000000000000000000000000000009050612213565b6006808111156121a657fe5b600260159054906101000a900460ff1660068111156121c157fe5b14156121ef577f436f756e746572666569740000000000000000000000000000000000000000009050612213565b7f436f756e7465726665697400000000000000000000000000000000000000000090505b90565b60035481565b6000600560008373ffffffffffffffffffffffffffffffffffffffff1673ffffffffffffffffffffffffffffffffffffffff168152602001908152602001600020805490509050919050565b60076020528060005260406000206000915054906101000a900460ff1681565b60006020528060005260406000206000915054906101000a900460ff1681565b6122b0613776565b600880548060200260200160405190810160405280929190818152602001828054801561233257602002820191906000526020600020905b8160009054906101000a900473ffffffffffffffffffffffffffffffffffffffff1673ffffffffffffffffffffffffffffffffffffffff16815260200190600101908083116122e8575b5050505050905090565b601060009054906101000a900473ffffffffffffffffffffffffffffffffffffffff1681565b60096020528060005260406000206000915054906101000a900460ff1681565b6000803373ffffffffffffffffffffffffffffffffffffffff1673ffffffffffffffffffffffffffffffffffffffff16815260200190815260200160002060009054906101000a900460ff1615156123d957600080fd5b600160028111156123e657fe5b600260149054906101000a900460ff16600281111561240157fe5b14151561240d57600080fd5b8073ffffffffffffffffffffffffffffffffffffffff166108fc839081150290604051600060405180830381858888f19350505050151561244d57600080fd5b600560003073ffffffffffffffffffffffffffffffffffffffff1673ffffffffffffffffffffffffffffffffffffffff168152602001908152602001600020805480600101828161249e9190613718565b916000526020600020906004020160006080604051908101604052808573ffffffffffffffffffffffffffffffffffffffff1681526020014281526020018681526020016001815250909190915060008201518160000160006101000a81548173ffffffffffffffffffffffffffffffffffffffff021916908373ffffffffffffffffffffffffffffffffffffffff1602179055506020820151816001015560408201518160020155606082015181600301555050505050565b600f60009054906101000a900473ffffffffffffffffffffffffffffffffffffffff1681565b61258661378a565b6000803373ffffffffffffffffffffffffffffffffffffffff1673ffffffffffffffffffffffffffffffffffffffff16815260200190815260200160002060009054906101000a900460ff1615156125dd57600080fd5b6006600083600019166000191681526020019081526020016000208054600181600116156101000203166002900480601f01602080910402602001604051908101604052809291908181526020018280546001816001161561010002031660029004801561268c5780601f106126615761010080835404028352916020019161268c565b820191906000526020600020905b81548152906001019060200180831161266f57829003601f168201915b50505050509050919050565b6509184e72a000341115612ad75780600260156101000a81548160ff021916908360068111156126c457fe5b021790555060018160068111156126d757fe5b111561282857600160009054906101000a900473ffffffffffffffffffffffffffffffffffffffff1673ffffffffffffffffffffffffffffffffffffffff16630d6d3b6e3430307f4865616c74685761726e696e67000000000000000000000000000000000000006000604051602001526040518563ffffffff167c0100000000000000000000000000000000000000000000000000000000028152600401808473ffffffffffffffffffffffffffffffffffffffff1673ffffffffffffffffffffffffffffffffffffffff1681526020018373ffffffffffffffffffffffffffffffffffffffff1673ffffffffffffffffffffffffffffffffffffffff168152602001826000191660001916815260200193505050506020604051808303818588803b151561280657600080fd5b6125ee5a03f1151561281757600080fd5b50505050604051805190505061296f565b600160009054906101000a900473ffffffffffffffffffffffffffffffffffffffff1673ffffffffffffffffffffffffffffffffffffffff16630d6d3b6e3430307f4865616c746855706461746500000000000000000000000000000000000000006000604051602001526040518563ffffffff167c0100000000000000000000000000000000000000000000000000000000028152600401808473ffffffffffffffffffffffffffffffffffffffff1673ffffffffffffffffffffffffffffffffffffffff1681526020018373ffffffffffffffffffffffffffffffffffffffff1673ffffffffffffffffffffffffffffffffffffffff168152602001826000191660001916815260200193505050506020604051808303818588803b151561295157600080fd5b6125ee5a03f1151561296257600080fd5b5050505060405180519050505b7fb6d7372bb54b80a5b1d60d3b1da737719783cc92a2095f10d9195105f7abeca581604051808260068111156129a157fe5b60ff16815260200191505060405180910390a16129c93460035461114790919063ffffffff16565b600381905550600560003073ffffffffffffffffffffffffffffffffffffffff1673ffffffffffffffffffffffffffffffffffffffff1681526020019081526020016000208054806001018281612a209190613718565b916000526020600020906004020160006080604051908101604052803373ffffffffffffffffffffffffffffffffffffffff1681526020014281526020013481526020016000815250909190915060008201518160000160006101000a81548173ffffffffffffffffffffffffffffffffffffffff021916908373ffffffffffffffffffffffffffffffffffffffff1602179055506020820151816001015560408201518160020155606082015181600301555050505b50565b6000816040518082805190602001908083835b602083101515612b125780518252602082019150602081019050602083039250612aed565b6001836020036101000a03801982511681845116808217855250505050505090500191505060405180910390209050919050565b600c81815481101515612b5557fe5b90600052602060002090016000915054906101000a900473ffffffffffffffffffffffffffffffffffffffff1681565b6000600260159054906101000a900460ff16905090565b600760003373ffffffffffffffffffffffffffffffffffffffff1673ffffffffffffffffffffffffffffffffffffffff16815260200190815260200160002060009054906101000a900460ff161515612bf457600080fd5b600760003373ffffffffffffffffffffffffffffffffffffffff1673ffffffffffffffffffffffffffffffffffffffff16815260200190815260200160002060009054906101000a900460ff161515612c4c57600080fd5b6001600760008373ffffffffffffffffffffffffffffffffffffffff1673ffffffffffffffffffffffffffffffffffffffff16815260200190815260200160002060006101000a81548160ff02191690831515021790555060088054806001018281612cb8919061374a565b9160005260206000209001600083909190916101000a81548173ffffffffffffffffffffffffffffffffffffffff021916908373ffffffffffffffffffffffffffffffffffffffff1602179055505050565b6000803373ffffffffffffffffffffffffffffffffffffffff1673ffffffffffffffffffffffffffffffffffffffff16815260200190815260200160002060009054906101000a900460ff161515612d6157600080fd5b6000803373ffffffffffffffffffffffffffffffffffffffff1673ffffffffffffffffffffffffffffffffffffffff16815260200190815260200160002060009054906101000a900460ff161515612db857600080fd5b60016000808373ffffffffffffffffffffffffffffffffffffffff1673ffffffffffffffffffffffffffffffffffffffff16815260200190815260200160002060006101000a81548160ff02191690831515021790555050565b600260159054906101000a900460ff1681565b60046020528060005260406000206000915090505481565b6000600760003373ffffffffffffffffffffffffffffffffffffffff1673ffffffffffffffffffffffffffffffffffffffff16815260200190815260200160002060009054906101000a900460ff161515612e9757600080fd5b6000600960008473ffffffffffffffffffffffffffffffffffffffff1673ffffffffffffffffffffffffffffffffffffffff16815260200190815260200160002060006101000a81548160ff021916908315150217905550600090505b600a80549050811015612fba57600a81815481101515612f1057fe5b906000526020600020900160009054906101000a900473ffffffffffffffffffffffffffffffffffffffff1673ffffffffffffffffffffffffffffffffffffffff168273ffffffffffffffffffffffffffffffffffffffff161415612fad57600a81815481101515612f7e57fe5b906000526020600020900160006101000a81549073ffffffffffffffffffffffffffffffffffffffff02191690555b8080600101915050612ef4565b5050565b600b60019054906101000a900460ff1681565b600a81815481101515612fe057fe5b90600052602060002090016000915054906101000a900473ffffffffffffffffffffffffffffffffffffffff1681565b60125481565b61301e613776565b600c8054806020026020016040519081016040528092919081815260200182805480156130a057602002820191906000526020600020905b8160009054906101000a900473ffffffffffffffffffffffffffffffffffffffff1673ffffffffffffffffffffffffffffffffffffffff1681526020019060010190808311613056575b5050505050905090565b600d6020528060005260406000206000915090505481565b600b60029054906101000a900460ff1681565b6000803373ffffffffffffffffffffffffffffffffffffffff1673ffffffffffffffffffffffffffffffffffffffff16815260200190815260200160002060009054906101000a900460ff16151561312c57600080fd5b6001600281111561313957fe5b600260149054906101000a900460ff16600281111561315457fe5b14151561316057600080fd5b60028060146101000a81548160ff0219169083600281111561317e57fe5b0217905550565b60115481565b600260149054906101000a900460ff1681565b6131a6613776565b600a80548060200260200160405190810160405280929190818152602001828054801561322857602002820191906000526020600020905b8160009054906101000a900473ffffffffffffffffffffffffffffffffffffffff1673ffffffffffffffffffffffffffffffffffffffff16815260200190600101908083116131de575b5050505050905090565b60008060003373ffffffffffffffffffffffffffffffffffffffff1673ffffffffffffffffffffffffffffffffffffffff16815260200190815260200160002060009054906101000a900460ff16151561328b57600080fd5b8160066000856000191660001916815260200190815260200160002090805190602001906132ba92919061379e565b506001905092915050565b60145481565b600e6020528060005260406000206000915090505481565b6000600760003373ffffffffffffffffffffffffffffffffffffffff1673ffffffffffffffffffffffffffffffffffffffff16815260200190815260200160002060009054906101000a900460ff16151561333d57600080fd5b600760003373ffffffffffffffffffffffffffffffffffffffff1673ffffffffffffffffffffffffffffffffffffffff16815260200190815260200160002060009054906101000a900460ff16151561339557600080fd5b6000600760008473ffffffffffffffffffffffffffffffffffffffff1673ffffffffffffffffffffffffffffffffffffffff16815260200190815260200160002060006101000a81548160ff021916908315150217905550600090505b6008805490508110156134b85760088181548110151561340e57fe5b906000526020600020900160009054906101000a900473ffffffffffffffffffffffffffffffffffffffff1673ffffffffffffffffffffffffffffffffffffffff168273ffffffffffffffffffffffffffffffffffffffff1614156134ab5760088181548110151561347c57fe5b906000526020600020900160006101000a81549073ffffffffffffffffffffffffffffffffffffffff02191690555b80806001019150506133f2565b5050565b600760003373ffffffffffffffffffffffffffffffffffffffff1673ffffffffffffffffffffffffffffffffffffffff16815260200190815260200160002060009054906101000a900460ff16151561351457600080fd5b6001600960008373ffffffffffffffffffffffffffffffffffffffff1673ffffffffffffffffffffffffffffffffffffffff16815260200190815260200160002060006101000a81548160ff021916908315150217905550600a8054806001018281613580919061374a565b9160005260206000209001600083909190916101000a81548173ffffffffffffffffffffffffffffffffffffffff021916908373ffffffffffffffffffffffffffffffffffffffff160217905550506001600b60006101000a81548160ff02191690831515021790555050565b600260009054906101000a900473ffffffffffffffffffffffffffffffffffffffff1681565b61361b61378a565b6000803373ffffffffffffffffffffffffffffffffffffffff1673ffffffffffffffffffffffffffffffffffffffff16815260200190815260200160002060009054906101000a900460ff16151561367257600080fd5b6136dd826040518082805190602001908083835b6020831015156136ab5780518252602082019150602081019050602083039250613686565b6001836020036101000a038019825116818451168082178552505050505050905001915050604051809103902061257e565b9050919050565b60008082848115156136f257fe5b0490508091505092915050565b600082821115151561370d57fe5b818303905092915050565b81548183558181151161374557600402816004028360005260206000209182019101613744919061381e565b5b505050565b81548183558181151161377157818360005260206000209182019101613770919061387c565b5b505050565b602060405190810160405280600081525090565b602060405190810160405280600081525090565b828054600181600116156101000203166002900490600052602060002090601f016020900481019282601f106137df57805160ff191683800117855561380d565b8280016001018555821561380d579182015b8281111561380c5782518255916020019190600101906137f1565b5b50905061381a919061387c565b5090565b61387991905b8082111561387557600080820160006101000a81549073ffffffffffffffffffffffffffffffffffffffff021916905560018201600090556002820160009055600382016000905550600401613824565b5090565b90565b61389e91905b8082111561389a576000816000905550600101613882565b5090565b905600a165627a7a72305820f88c178145f016a7194d8d5b4b4be1f2d4cef58478079b46fae755a221e4e5190029a165627a7a72305820b4cf490f0b274d458b3823b4649e1e25deada6a99357b1c21e9f6a7f33090a1e0029",
  "source": "pragma solidity ^0.4.18;\n\nimport \"./pki/PoolKey.sol\";\nimport \"./SmartKey.sol\";\n\ncontract SmartPoolKey is Administered\n{\n    SmartKey smartKey;\n    address vault;\n    mapping (address => PoolKey) public  smartPoolKeys;\n    \n    function SmartPoolKey(SmartKey _smartKey, address[] adminAddress) \n    Administered(adminAddress)\n    public\n    {\n    \n        smartKey=_smartKey;\n        vault=adminAddress[0];\n    }\n    \n    function setVault(address _vault) \n    onlyAdmin \n    public\n    returns (bool) {\n        vault=_vault;\n        return true;                \n    }\n    \n    function getSmartPoolKey(address beneficiary) \n    view\n    public\n    returns (address) \n    {\n        return smartPoolKeys[beneficiary];\n    }\n    \n    function addSmartPoolKey(address beneficiary, uint max_contrib, uint max_per_contrib, uint min_per_contrib, address[] admins, bool _has_whitelist, uint fee, bool _autoDistribute) \n    public\n    returns (address)\n    {\n        require(beneficiary != 0x0);\n        PoolKey key;\n        if (smartPoolKeys[beneficiary] == address(0)) \n        {\n            key = new PoolKey(smartKey, vault, beneficiary, max_contrib, max_per_contrib, min_per_contrib, admins, _has_whitelist, fee, _autoDistribute);    \n            smartPoolKeys[beneficiary]=key;\n        }\n        else \n        {\n            key = smartPoolKeys[beneficiary];\n        }\n        return key;\n    }\n    \n}\n",
  "sourcePath": "/mnt/d/iotblock/server/browser/contracts/SmartPoolKey.sol",
  "compiler": {
    "name": "solc",
    "version": "0.4.19+commit.c4cbbb05.Emscripten.clang"
  },
  "schemaVersion": "2.0.0",
  "updatedAt": "2018-07-06T08:19:58.826Z"
}