{
  "contractName": "PublicOffering",
  "abi": [
    {
      "constant": true,
      "inputs": [
        {
          "name": "",
          "type": "uint256"
        }
      ],
      "name": "admins",
      "outputs": [
        {
          "name": "",
          "type": "address"
        }
      ],
      "payable": false,
      "stateMutability": "view",
      "type": "function"
    },
    {
      "constant": true,
      "inputs": [
        {
          "name": "",
          "type": "address"
        }
      ],
      "name": "isAdmin",
      "outputs": [
        {
          "name": "",
          "type": "bool"
        }
      ],
      "payable": false,
      "stateMutability": "view",
      "type": "function"
    },
    {
      "constant": true,
      "inputs": [],
      "name": "rate",
      "outputs": [
        {
          "name": "",
          "type": "uint256"
        }
      ],
      "payable": false,
      "stateMutability": "view",
      "type": "function"
    },
    {
      "constant": true,
      "inputs": [],
      "name": "endTime",
      "outputs": [
        {
          "name": "",
          "type": "uint256"
        }
      ],
      "payable": false,
      "stateMutability": "view",
      "type": "function"
    },
    {
      "constant": true,
      "inputs": [],
      "name": "getAdmins",
      "outputs": [
        {
          "name": "",
          "type": "address[]"
        }
      ],
      "payable": false,
      "stateMutability": "view",
      "type": "function"
    },
    {
      "constant": false,
      "inputs": [
        {
          "name": "_rate",
          "type": "uint256"
        }
      ],
      "name": "setRate",
      "outputs": [
        {
          "name": "",
          "type": "uint256"
        }
      ],
      "payable": false,
      "stateMutability": "nonpayable",
      "type": "function"
    },
    {
      "constant": true,
      "inputs": [],
      "name": "cap",
      "outputs": [
        {
          "name": "",
          "type": "uint256"
        }
      ],
      "payable": false,
      "stateMutability": "view",
      "type": "function"
    },
    {
      "constant": true,
      "inputs": [],
      "name": "weiRaised",
      "outputs": [
        {
          "name": "",
          "type": "uint256"
        }
      ],
      "payable": false,
      "stateMutability": "view",
      "type": "function"
    },
    {
      "constant": false,
      "inputs": [
        {
          "name": "admin",
          "type": "address"
        }
      ],
      "name": "addAdmin",
      "outputs": [],
      "payable": false,
      "stateMutability": "nonpayable",
      "type": "function"
    },
    {
      "constant": true,
      "inputs": [],
      "name": "startTime",
      "outputs": [
        {
          "name": "",
          "type": "uint256"
        }
      ],
      "payable": false,
      "stateMutability": "view",
      "type": "function"
    },
    {
      "constant": false,
      "inputs": [
        {
          "name": "_endTime",
          "type": "uint256"
        }
      ],
      "name": "extendEndTime",
      "outputs": [
        {
          "name": "",
          "type": "uint256"
        }
      ],
      "payable": false,
      "stateMutability": "nonpayable",
      "type": "function"
    },
    {
      "constant": true,
      "inputs": [
        {
          "name": "amount",
          "type": "uint256"
        }
      ],
      "name": "convertToWei",
      "outputs": [
        {
          "name": "",
          "type": "uint256"
        }
      ],
      "payable": false,
      "stateMutability": "view",
      "type": "function"
    },
    {
      "constant": true,
      "inputs": [
        {
          "name": "amount",
          "type": "uint256"
        }
      ],
      "name": "convertToToken",
      "outputs": [
        {
          "name": "",
          "type": "uint256"
        }
      ],
      "payable": false,
      "stateMutability": "view",
      "type": "function"
    },
    {
      "constant": true,
      "inputs": [],
      "name": "getNow",
      "outputs": [
        {
          "name": "",
          "type": "uint256"
        }
      ],
      "payable": false,
      "stateMutability": "view",
      "type": "function"
    },
    {
      "constant": false,
      "inputs": [
        {
          "name": "beneficiary",
          "type": "address"
        }
      ],
      "name": "loadSmartKey",
      "outputs": [],
      "payable": true,
      "stateMutability": "payable",
      "type": "function"
    },
    {
      "constant": true,
      "inputs": [],
      "name": "getTokensMinted",
      "outputs": [
        {
          "name": "",
          "type": "uint256"
        }
      ],
      "payable": false,
      "stateMutability": "view",
      "type": "function"
    },
    {
      "constant": false,
      "inputs": [
        {
          "name": "banned",
          "type": "address"
        }
      ],
      "name": "addBanned",
      "outputs": [],
      "payable": false,
      "stateMutability": "nonpayable",
      "type": "function"
    },
    {
      "constant": true,
      "inputs": [],
      "name": "hasEnded",
      "outputs": [
        {
          "name": "",
          "type": "bool"
        }
      ],
      "payable": false,
      "stateMutability": "view",
      "type": "function"
    },
    {
      "constant": true,
      "inputs": [],
      "name": "token",
      "outputs": [
        {
          "name": "",
          "type": "address"
        }
      ],
      "payable": false,
      "stateMutability": "view",
      "type": "function"
    },
    {
      "inputs": [
        {
          "name": "_token",
          "type": "address"
        },
        {
          "name": "_startTime",
          "type": "uint256"
        },
        {
          "name": "_endTime",
          "type": "uint256"
        },
        {
          "name": "_rate",
          "type": "uint256"
        },
        {
          "name": "_cap",
          "type": "uint256"
        },
        {
          "name": "adminAddress",
          "type": "address[]"
        }
      ],
      "payable": false,
      "stateMutability": "nonpayable",
      "type": "constructor"
    },
    {
      "payable": true,
      "stateMutability": "payable",
      "type": "fallback"
    },
    {
      "anonymous": false,
      "inputs": [
        {
          "indexed": true,
          "name": "purchaser",
          "type": "address"
        },
        {
          "indexed": true,
          "name": "beneficiary",
          "type": "address"
        },
        {
          "indexed": false,
          "name": "value",
          "type": "uint256"
        },
        {
          "indexed": false,
          "name": "amount",
          "type": "uint256"
        }
      ],
      "name": "SmartKeyPurchase",
      "type": "event"
    }
  ],
  "bytecode": "0x606060405234156200001057600080fd5b604051620013563803806200135683398101604052808051906020019091908051906020019091908051906020019091908051906020019091908051906020019091908051820191905050818187878787868760008090505b8151811015620000f057600160008084848151811015156200008757fe5b9060200190602002015173ffffffffffffffffffffffffffffffffffffffff1673ffffffffffffffffffffffffffffffffffffffff16815260200190815260200160002060006101000a81548160ff021916908315150217905550808060010191505062000069565b8160019080519060200190620001089291906200020e565b5050508383101515156200011b57600080fd5b6000821115156200012b57600080fd5b6000600160008154811015156200013e57fe5b906000526020600020900160009054906101000a900473ffffffffffffffffffffffffffffffffffffffff1673ffffffffffffffffffffffffffffffffffffffff16141515156200018e57600080fd5b84600260006101000a81548173ffffffffffffffffffffffffffffffffffffffff021916908373ffffffffffffffffffffffffffffffffffffffff1602179055508360038190555082600481905550816005819055505050505050600082111515620001f957600080fd5b816007819055505050505050505050620002e3565b8280548282559060005260206000209081019282156200028a579160200282015b82811115620002895782518260006101000a81548173ffffffffffffffffffffffffffffffffffffffff021916908373ffffffffffffffffffffffffffffffffffffffff160217905550916020019190600101906200022f565b5b5090506200029991906200029d565b5090565b620002e091905b80821115620002dc57600081816101000a81549073ffffffffffffffffffffffffffffffffffffffff021916905550600101620002a4565b5090565b90565b61106380620002f36000396000f300606060405260043610610107576000357c0100000000000000000000000000000000000000000000000000000000900463ffffffff16806314bfd6d01461011257806324d7806c146101755780632c4e722e146101c65780633197cbb6146101ef57806331ae450b1461021857806334fcf43714610282578063355274ea146102b95780634042b66f146102e2578063704802751461030b57806378e979251461034457806388770cb01461036d578063a60dc38a146103a4578063a81f8f3f146103db578063bbe4fd5014610412578063c2554d241461043b578063d69f6bae14610469578063e1b2e8b314610492578063ecb70fb7146104cb578063fc0c546a146104f8575b6101103361054d565b005b341561011d57600080fd5b6101336004808035906020019091905050610855565b604051808273ffffffffffffffffffffffffffffffffffffffff1673ffffffffffffffffffffffffffffffffffffffff16815260200191505060405180910390f35b341561018057600080fd5b6101ac600480803573ffffffffffffffffffffffffffffffffffffffff16906020019091905050610894565b604051808215151515815260200191505060405180910390f35b34156101d157600080fd5b6101d96108b4565b6040518082815260200191505060405180910390f35b34156101fa57600080fd5b6102026108ba565b6040518082815260200191505060405180910390f35b341561022357600080fd5b61022b6108c0565b6040518080602001828103825283818151815260200191508051906020019060200280838360005b8381101561026e578082015181840152602081019050610253565b505050509050019250505060405180910390f35b341561028d57600080fd5b6102a36004808035906020019091905050610954565b6040518082815260200191505060405180910390f35b34156102c457600080fd5b6102cc610a73565b6040518082815260200191505060405180910390f35b34156102ed57600080fd5b6102f5610a79565b6040518082815260200191505060405180910390f35b341561031657600080fd5b610342600480803573ffffffffffffffffffffffffffffffffffffffff16906020019091905050610a7f565b005b341561034f57600080fd5b610357610bea565b6040518082815260200191505060405180910390f35b341561037857600080fd5b61038e6004808035906020019091905050610bf0565b6040518082815260200191505060405180910390f35b34156103af57600080fd5b6103c56004808035906020019091905050610c5a565b6040518082815260200191505060405180910390f35b34156103e657600080fd5b6103fc6004808035906020019091905050610c78565b6040518082815260200191505060405180910390f35b341561041d57600080fd5b610425610c96565b6040518082815260200191505060405180910390f35b610467600480803573ffffffffffffffffffffffffffffffffffffffff1690602001909190505061054d565b005b341561047457600080fd5b61047c610c9e565b6040518082815260200191505060405180910390f35b341561049d57600080fd5b6104c9600480803573ffffffffffffffffffffffffffffffffffffffff16906020019091905050610d4e565b005b34156104d657600080fd5b6104de610f24565b604051808215151515815260200191505060405180910390f35b341561050357600080fd5b61050b610f38565b604051808273ffffffffffffffffffffffffffffffffffffffff1673ffffffffffffffffffffffffffffffffffffffff16815260200191505060405180910390f35b6000806000808473ffffffffffffffffffffffffffffffffffffffff161415151561057757600080fd5b34925061058383610c78565b915061059a83600654610f5e90919063ffffffff16565b600681905550600260009054906101000a900473ffffffffffffffffffffffffffffffffffffffff1673ffffffffffffffffffffffffffffffffffffffff1663b37c7551856000604051602001526040518263ffffffff167c0100000000000000000000000000000000000000000000000000000000028152600401808273ffffffffffffffffffffffffffffffffffffffff1673ffffffffffffffffffffffffffffffffffffffff168152602001915050602060405180830381600087803b151561066557600080fd5b6102c65a03f1151561067657600080fd5b505050604051805190509050600260009054906101000a900473ffffffffffffffffffffffffffffffffffffffff1673ffffffffffffffffffffffffffffffffffffffff16630d6d3b6e3483600260009054906101000a900473ffffffffffffffffffffffffffffffffffffffff166000604051602001526040518463ffffffff167c0100000000000000000000000000000000000000000000000000000000028152600401808373ffffffffffffffffffffffffffffffffffffffff1673ffffffffffffffffffffffffffffffffffffffff1681526020018273ffffffffffffffffffffffffffffffffffffffff1673ffffffffffffffffffffffffffffffffffffffff168152602001807f43726f776453616c650000000000000000000000000000000000000000000000815250602001925050506020604051808303818588803b15156107c557600080fd5b6125ee5a03f115156107d657600080fd5b5050505060405180519050508373ffffffffffffffffffffffffffffffffffffffff163373ffffffffffffffffffffffffffffffffffffffff167f8954423a551d16784cdfa6962d70cd543c5e51c673130047a93e5c2340a6ab3d8585604051808381526020018281526020019250505060405180910390a350505050565b60018181548110151561086457fe5b90600052602060002090016000915054906101000a900473ffffffffffffffffffffffffffffffffffffffff1681565b60006020528060005260406000206000915054906101000a900460ff1681565b60055481565b60045481565b6108c8610fd2565b600180548060200260200160405190810160405280929190818152602001828054801561094a57602002820191906000526020600020905b8160009054906101000a900473ffffffffffffffffffffffffffffffffffffffff1673ffffffffffffffffffffffffffffffffffffffff1681526020019060010190808311610900575b5050505050905090565b60008060003373ffffffffffffffffffffffffffffffffffffffff1673ffffffffffffffffffffffffffffffffffffffff16815260200190815260200160002060009054906101000a900460ff1615156109ad57600080fd5b600260009054906101000a900473ffffffffffffffffffffffffffffffffffffffff1673ffffffffffffffffffffffffffffffffffffffff166334fcf437836000604051602001526040518263ffffffff167c010000000000000000000000000000000000000000000000000000000002815260040180828152602001915050602060405180830381600087803b1515610a4657600080fd5b6102c65a03f11515610a5757600080fd5b5050506040518051905050816005819055506005549050919050565b60075481565b60065481565b6000803373ffffffffffffffffffffffffffffffffffffffff1673ffffffffffffffffffffffffffffffffffffffff16815260200190815260200160002060009054906101000a900460ff161515610ad657600080fd5b6000803373ffffffffffffffffffffffffffffffffffffffff1673ffffffffffffffffffffffffffffffffffffffff16815260200190815260200160002060009054906101000a900460ff161515610b2d57600080fd5b60016000808373ffffffffffffffffffffffffffffffffffffffff1673ffffffffffffffffffffffffffffffffffffffff16815260200190815260200160002060006101000a81548160ff02191690831515021790555060018054806001018281610b989190610fe6565b9160005260206000209001600083909190916101000a81548173ffffffffffffffffffffffffffffffffffffffff021916908373ffffffffffffffffffffffffffffffffffffffff1602179055505050565b60035481565b60008060003373ffffffffffffffffffffffffffffffffffffffff1673ffffffffffffffffffffffffffffffffffffffff16815260200190815260200160002060009054906101000a900460ff161515610c4957600080fd5b816004819055506004549050919050565b6000610c7160055483610f7c90919063ffffffff16565b9050919050565b6000610c8f60055483610fb790919063ffffffff16565b9050919050565b600042905090565b6000600260009054906101000a900473ffffffffffffffffffffffffffffffffffffffff1673ffffffffffffffffffffffffffffffffffffffff1663963563556000604051602001526040518163ffffffff167c0100000000000000000000000000000000000000000000000000000000028152600401602060405180830381600087803b1515610d2e57600080fd5b6102c65a03f11515610d3f57600080fd5b50505060405180519050905090565b60008060003373ffffffffffffffffffffffffffffffffffffffff1673ffffffffffffffffffffffffffffffffffffffff16815260200190815260200160002060009054906101000a900460ff161515610da757600080fd5b6000803373ffffffffffffffffffffffffffffffffffffffff1673ffffffffffffffffffffffffffffffffffffffff16815260200190815260200160002060009054906101000a900460ff161515610dfe57600080fd5b60008060008473ffffffffffffffffffffffffffffffffffffffff1673ffffffffffffffffffffffffffffffffffffffff16815260200190815260200160002060006101000a81548160ff021916908315150217905550600090505b600180549050811015610f2057600181815481101515610e7657fe5b906000526020600020900160009054906101000a900473ffffffffffffffffffffffffffffffffffffffff1673ffffffffffffffffffffffffffffffffffffffff168273ffffffffffffffffffffffffffffffffffffffff161415610f1357600181815481101515610ee457fe5b906000526020600020900160006101000a81549073ffffffffffffffffffffffffffffffffffffffff02191690555b8080600101915050610e5a565b5050565b600080600754600654101590508091505090565b600260009054906101000a900473ffffffffffffffffffffffffffffffffffffffff1681565b6000808284019050838110151515610f7257fe5b8091505092915050565b6000806000841415610f915760009150610fb0565b8284029050828482811515610fa257fe5b04141515610fac57fe5b8091505b5092915050565b6000808284811515610fc557fe5b0490508091505092915050565b602060405190810160405280600081525090565b81548183558181151161100d5781836000526020600020918201910161100c9190611012565b5b505050565b61103491905b80821115611030576000816000905550600101611018565b5090565b905600a165627a7a72305820677d18652759ae2aee40f4eb2744282ea7df46f90e83eca23fb41197a606a74d0029",
  "source": "pragma solidity ^0.4.18; //We have to specify what version of the compiler this code will use\n\n\nimport \"./crowdsale/CappedCrowdsale.sol\";\nimport \"./crowdsale/Crowdsale.sol\";\nimport \"./admin/Administered.sol\";\n\n/**\n * @title IoT Smart Keys IO\n */\ncontract PublicOffering is CappedCrowdsale {\n\n  function PublicOffering(SmartKey _token, uint256 _startTime, uint256 _endTime, uint256 _rate, uint256 _cap, address[] adminAddress)\n  public\n  Administered(adminAddress)\n  CappedCrowdsale(_cap, adminAddress)\n  Crowdsale(_token, _startTime, _endTime, _rate, adminAddress)\n  {\n    \n  }\n\n}",
  "sourcePath": "/home/forge/solidity/iotblock/contracts/PublicOffering.sol",
  "compiler": {
    "name": "solc",
    "version": "0.4.19+commit.c4cbbb05.Emscripten.clang"
  },
  "schemaVersion": "2.0.0",
  "updatedAt": "2018-06-14T06:40:28.227Z"
}