{
  "contractName": "SmartKey",
  "abi": [
    {
      "constant": true,
      "inputs": [],
      "name": "mintingFinished",
      "outputs": [
        {
          "name": "",
          "type": "bool"
        }
      ],
      "payable": false,
      "stateMutability": "view",
      "type": "function"
    },
    {
      "constant": true,
      "inputs": [],
      "name": "name",
      "outputs": [
        {
          "name": "",
          "type": "string"
        }
      ],
      "payable": false,
      "stateMutability": "view",
      "type": "function"
    },
    {
      "constant": false,
      "inputs": [
        {
          "name": "_spender",
          "type": "address"
        },
        {
          "name": "_value",
          "type": "uint256"
        }
      ],
      "name": "approve",
      "outputs": [
        {
          "name": "",
          "type": "bool"
        }
      ],
      "payable": false,
      "stateMutability": "nonpayable",
      "type": "function"
    },
    {
      "constant": true,
      "inputs": [
        {
          "name": "",
          "type": "uint256"
        }
      ],
      "name": "admins",
      "outputs": [
        {
          "name": "",
          "type": "address"
        }
      ],
      "payable": false,
      "stateMutability": "view",
      "type": "function"
    },
    {
      "constant": false,
      "inputs": [
        {
          "name": "_spender",
          "type": "address"
        },
        {
          "name": "_addedValue",
          "type": "uint256"
        },
        {
          "name": "_data",
          "type": "bytes"
        }
      ],
      "name": "increaseApproval",
      "outputs": [
        {
          "name": "",
          "type": "bool"
        }
      ],
      "payable": false,
      "stateMutability": "nonpayable",
      "type": "function"
    },
    {
      "constant": true,
      "inputs": [],
      "name": "totalSupply",
      "outputs": [
        {
          "name": "",
          "type": "uint256"
        }
      ],
      "payable": false,
      "stateMutability": "view",
      "type": "function"
    },
    {
      "constant": false,
      "inputs": [
        {
          "name": "_from",
          "type": "address"
        },
        {
          "name": "_to",
          "type": "address"
        },
        {
          "name": "_value",
          "type": "uint256"
        }
      ],
      "name": "transferFrom",
      "outputs": [
        {
          "name": "",
          "type": "bool"
        }
      ],
      "payable": false,
      "stateMutability": "nonpayable",
      "type": "function"
    },
    {
      "constant": true,
      "inputs": [
        {
          "name": "",
          "type": "address"
        }
      ],
      "name": "isAdmin",
      "outputs": [
        {
          "name": "",
          "type": "bool"
        }
      ],
      "payable": false,
      "stateMutability": "view",
      "type": "function"
    },
    {
      "constant": true,
      "inputs": [],
      "name": "rate",
      "outputs": [
        {
          "name": "",
          "type": "uint256"
        }
      ],
      "payable": false,
      "stateMutability": "view",
      "type": "function"
    },
    {
      "constant": true,
      "inputs": [],
      "name": "decimals",
      "outputs": [
        {
          "name": "",
          "type": "uint8"
        }
      ],
      "payable": false,
      "stateMutability": "view",
      "type": "function"
    },
    {
      "constant": true,
      "inputs": [],
      "name": "getAdmins",
      "outputs": [
        {
          "name": "",
          "type": "address[]"
        }
      ],
      "payable": false,
      "stateMutability": "view",
      "type": "function"
    },
    {
      "constant": false,
      "inputs": [
        {
          "name": "_rate",
          "type": "uint256"
        }
      ],
      "name": "setRate",
      "outputs": [
        {
          "name": "",
          "type": "uint256"
        }
      ],
      "payable": false,
      "stateMutability": "nonpayable",
      "type": "function"
    },
    {
      "constant": false,
      "inputs": [
        {
          "name": "_to",
          "type": "address"
        },
        {
          "name": "_amount",
          "type": "uint256"
        }
      ],
      "name": "mint",
      "outputs": [
        {
          "name": "",
          "type": "bool"
        }
      ],
      "payable": false,
      "stateMutability": "nonpayable",
      "type": "function"
    },
    {
      "constant": true,
      "inputs": [],
      "name": "version",
      "outputs": [
        {
          "name": "",
          "type": "string"
        }
      ],
      "payable": false,
      "stateMutability": "view",
      "type": "function"
    },
    {
      "constant": false,
      "inputs": [
        {
          "name": "_spender",
          "type": "address"
        },
        {
          "name": "_value",
          "type": "uint256"
        },
        {
          "name": "_data",
          "type": "bytes"
        }
      ],
      "name": "approve",
      "outputs": [
        {
          "name": "",
          "type": "bool"
        }
      ],
      "payable": false,
      "stateMutability": "nonpayable",
      "type": "function"
    },
    {
      "constant": false,
      "inputs": [
        {
          "name": "_spender",
          "type": "address"
        },
        {
          "name": "_subtractedValue",
          "type": "uint256"
        }
      ],
      "name": "decreaseApproval",
      "outputs": [
        {
          "name": "",
          "type": "bool"
        }
      ],
      "payable": false,
      "stateMutability": "nonpayable",
      "type": "function"
    },
    {
      "constant": false,
      "inputs": [
        {
          "name": "admin",
          "type": "address"
        }
      ],
      "name": "addAdmin",
      "outputs": [],
      "payable": false,
      "stateMutability": "nonpayable",
      "type": "function"
    },
    {
      "constant": true,
      "inputs": [
        {
          "name": "_owner",
          "type": "address"
        }
      ],
      "name": "balanceOf",
      "outputs": [
        {
          "name": "balance",
          "type": "uint256"
        }
      ],
      "payable": false,
      "stateMutability": "view",
      "type": "function"
    },
    {
      "constant": false,
      "inputs": [
        {
          "name": "_spender",
          "type": "address"
        },
        {
          "name": "_subtractedValue",
          "type": "uint256"
        },
        {
          "name": "_data",
          "type": "bytes"
        }
      ],
      "name": "decreaseApproval",
      "outputs": [
        {
          "name": "",
          "type": "bool"
        }
      ],
      "payable": false,
      "stateMutability": "nonpayable",
      "type": "function"
    },
    {
      "constant": true,
      "inputs": [
        {
          "name": "",
          "type": "address"
        },
        {
          "name": "",
          "type": "uint256"
        }
      ],
      "name": "events",
      "outputs": [
        {
          "name": "account",
          "type": "address"
        },
        {
          "name": "date",
          "type": "uint256"
        },
        {
          "name": "amount",
          "type": "uint256"
        },
        {
          "name": "transaction_type",
          "type": "uint256"
        },
        {
          "name": "transaction_name",
          "type": "bytes32"
        },
        {
          "name": "health_status",
          "type": "bytes32"
        }
      ],
      "payable": false,
      "stateMutability": "view",
      "type": "function"
    },
    {
      "constant": true,
      "inputs": [
        {
          "name": "",
          "type": "address"
        }
      ],
      "name": "smartKeys",
      "outputs": [
        {
          "name": "",
          "type": "address"
        }
      ],
      "payable": false,
      "stateMutability": "view",
      "type": "function"
    },
    {
      "constant": true,
      "inputs": [],
      "name": "symbol",
      "outputs": [
        {
          "name": "",
          "type": "string"
        }
      ],
      "payable": false,
      "stateMutability": "view",
      "type": "function"
    },
    {
      "constant": true,
      "inputs": [],
      "name": "tokenMinted",
      "outputs": [
        {
          "name": "",
          "type": "uint256"
        }
      ],
      "payable": false,
      "stateMutability": "view",
      "type": "function"
    },
    {
      "constant": false,
      "inputs": [
        {
          "name": "_to",
          "type": "address"
        },
        {
          "name": "_value",
          "type": "uint256"
        }
      ],
      "name": "transfer",
      "outputs": [
        {
          "name": "",
          "type": "bool"
        }
      ],
      "payable": false,
      "stateMutability": "nonpayable",
      "type": "function"
    },
    {
      "constant": false,
      "inputs": [
        {
          "name": "_from",
          "type": "address"
        },
        {
          "name": "_to",
          "type": "address"
        },
        {
          "name": "_value",
          "type": "uint256"
        },
        {
          "name": "_data",
          "type": "bytes"
        }
      ],
      "name": "transferFrom",
      "outputs": [
        {
          "name": "",
          "type": "bool"
        }
      ],
      "payable": false,
      "stateMutability": "nonpayable",
      "type": "function"
    },
    {
      "constant": false,
      "inputs": [
        {
          "name": "_to",
          "type": "address"
        },
        {
          "name": "_value",
          "type": "uint256"
        },
        {
          "name": "_data",
          "type": "bytes"
        }
      ],
      "name": "transfer",
      "outputs": [
        {
          "name": "",
          "type": "bool"
        }
      ],
      "payable": false,
      "stateMutability": "nonpayable",
      "type": "function"
    },
    {
      "constant": false,
      "inputs": [
        {
          "name": "_spender",
          "type": "address"
        },
        {
          "name": "_addedValue",
          "type": "uint256"
        }
      ],
      "name": "increaseApproval",
      "outputs": [
        {
          "name": "",
          "type": "bool"
        }
      ],
      "payable": false,
      "stateMutability": "nonpayable",
      "type": "function"
    },
    {
      "constant": true,
      "inputs": [
        {
          "name": "_owner",
          "type": "address"
        },
        {
          "name": "_spender",
          "type": "address"
        }
      ],
      "name": "allowance",
      "outputs": [
        {
          "name": "",
          "type": "uint256"
        }
      ],
      "payable": false,
      "stateMutability": "view",
      "type": "function"
    },
    {
      "constant": false,
      "inputs": [
        {
          "name": "banned",
          "type": "address"
        }
      ],
      "name": "addBanned",
      "outputs": [],
      "payable": false,
      "stateMutability": "nonpayable",
      "type": "function"
    },
    {
      "inputs": [
        {
          "name": "_tokens",
          "type": "uint256"
        },
        {
          "name": "_rate",
          "type": "uint256"
        },
        {
          "name": "adminAddress",
          "type": "address[]"
        }
      ],
      "payable": false,
      "stateMutability": "nonpayable",
      "type": "constructor"
    },
    {
      "payable": true,
      "stateMutability": "payable",
      "type": "fallback"
    },
    {
      "anonymous": false,
      "inputs": [
        {
          "indexed": false,
          "name": "user",
          "type": "address"
        },
        {
          "indexed": false,
          "name": "key",
          "type": "address"
        },
        {
          "indexed": false,
          "name": "transacting_contract",
          "type": "address"
        },
        {
          "indexed": false,
          "name": "eth_amount",
          "type": "uint256"
        },
        {
          "indexed": false,
          "name": "transaction_name",
          "type": "bytes32"
        },
        {
          "indexed": false,
          "name": "health_status",
          "type": "bytes32"
        }
      ],
      "name": "KeyEvent",
      "type": "event"
    },
    {
      "anonymous": false,
      "inputs": [
        {
          "indexed": true,
          "name": "to",
          "type": "address"
        },
        {
          "indexed": false,
          "name": "amount",
          "type": "uint256"
        }
      ],
      "name": "Mint",
      "type": "event"
    },
    {
      "anonymous": false,
      "inputs": [],
      "name": "MintFinished",
      "type": "event"
    },
    {
      "anonymous": false,
      "inputs": [],
      "name": "MintReopened",
      "type": "event"
    },
    {
      "anonymous": false,
      "inputs": [
        {
          "indexed": true,
          "name": "owner",
          "type": "address"
        },
        {
          "indexed": true,
          "name": "spender",
          "type": "address"
        },
        {
          "indexed": false,
          "name": "value",
          "type": "uint256"
        }
      ],
      "name": "Approval",
      "type": "event"
    },
    {
      "anonymous": false,
      "inputs": [
        {
          "indexed": true,
          "name": "from",
          "type": "address"
        },
        {
          "indexed": true,
          "name": "to",
          "type": "address"
        },
        {
          "indexed": false,
          "name": "value",
          "type": "uint256"
        }
      ],
      "name": "Transfer",
      "type": "event"
    },
    {
      "constant": false,
      "inputs": [
        {
          "name": "_vault",
          "type": "address"
        }
      ],
      "name": "setVault",
      "outputs": [
        {
          "name": "",
          "type": "bool"
        }
      ],
      "payable": false,
      "stateMutability": "nonpayable",
      "type": "function"
    },
    {
      "constant": true,
      "inputs": [
        {
          "name": "addr",
          "type": "address"
        }
      ],
      "name": "getBalance",
      "outputs": [
        {
          "name": "",
          "type": "uint256"
        }
      ],
      "payable": false,
      "stateMutability": "view",
      "type": "function"
    },
    {
      "constant": true,
      "inputs": [
        {
          "name": "beneficiary",
          "type": "address"
        }
      ],
      "name": "getSmartKey",
      "outputs": [
        {
          "name": "",
          "type": "address"
        }
      ],
      "payable": false,
      "stateMutability": "view",
      "type": "function"
    },
    {
      "constant": false,
      "inputs": [
        {
          "name": "key",
          "type": "address"
        },
        {
          "name": "transacting_contract",
          "type": "address"
        },
        {
          "name": "transaction_name",
          "type": "bytes32"
        }
      ],
      "name": "loadSmartKey",
      "outputs": [
        {
          "name": "",
          "type": "bool"
        }
      ],
      "payable": true,
      "stateMutability": "payable",
      "type": "function"
    },
    {
      "constant": false,
      "inputs": [
        {
          "name": "key",
          "type": "address"
        },
        {
          "name": "beneficiary",
          "type": "address"
        }
      ],
      "name": "putSmartKey",
      "outputs": [],
      "payable": false,
      "stateMutability": "nonpayable",
      "type": "function"
    },
    {
      "constant": false,
      "inputs": [
        {
          "name": "_user",
          "type": "address"
        }
      ],
      "name": "addOwner",
      "outputs": [],
      "payable": false,
      "stateMutability": "nonpayable",
      "type": "function"
    },
    {
      "constant": false,
      "inputs": [
        {
          "name": "amount",
          "type": "uint256"
        },
        {
          "name": "sender",
          "type": "address"
        },
        {
          "name": "beneficiary",
          "type": "address"
        }
      ],
      "name": "transferEth",
      "outputs": [],
      "payable": false,
      "stateMutability": "nonpayable",
      "type": "function"
    },
    {
      "constant": true,
      "inputs": [
        {
          "name": "amount",
          "type": "uint256"
        }
      ],
      "name": "convertToToken",
      "outputs": [
        {
          "name": "",
          "type": "uint256"
        }
      ],
      "payable": false,
      "stateMutability": "view",
      "type": "function"
    }
  ],
  "bytecode": "0x60606040526000600660006101000a81548160ff0219169083151502179055506040805190810160405280601681526020017f496f54426c6f636b5f536d6172744b65795f302e303100000000000000000000815250600b90805190602001906200006c92919062000531565b5034156200007957600080fd5b6040516200613d3803806200613d83398101604052808051906020019091908051906020019091908051820191905050818160008090505b815181101562000139576001600360008484815181101515620000d057fe5b9060200190602002015173ffffffffffffffffffffffffffffffffffffffff1673ffffffffffffffffffffffffffffffffffffffff16815260200190815260200160002060006101000a81548160ff0219169083151502179055508080600101915050620000b1565b816004908051906020019062000151929190620005b8565b5050508060078190555060006005819055505080600490805190602001906200017c929190620005b8565b50600460008154811015156200018e57fe5b906000526020600020900160009054906101000a900473ffffffffffffffffffffffffffffffffffffffff16600c60006101000a81548173ffffffffffffffffffffffffffffffffffffffff021916908373ffffffffffffffffffffffffffffffffffffffff1602179055506200023c600c60009054906101000a900473ffffffffffffffffffffffffffffffffffffffff1684620002fe6401000000000262002351176401000000009004565b506040805190810160405280600881526020017f494f54424c4f434b000000000000000000000000000000000000000000000000815250600890805190602001906200028a92919062000531565b506008600960006101000a81548160ff021916908360ff1602179055506040805190810160405280600881526020017f494f54424c4f434b000000000000000000000000000000000000000000000000815250600a9080519060200190620002f492919062000531565b50505050620006b5565b6000600360003373ffffffffffffffffffffffffffffffffffffffff1673ffffffffffffffffffffffffffffffffffffffff16815260200190815260200160002060009054906101000a900460ff1615156200035957600080fd5b600660009054906101000a900460ff161515156200037657600080fd5b6000821115156200038657600080fd5b620003ab82600554620005126401000000000262003abb179091906401000000009004565b60058190555062000412826000808673ffffffffffffffffffffffffffffffffffffffff1673ffffffffffffffffffffffffffffffffffffffff16815260200190815260200160002054620005126401000000000262003abb179091906401000000009004565b6000808573ffffffffffffffffffffffffffffffffffffffff1673ffffffffffffffffffffffffffffffffffffffff168152602001908152602001600020819055508273ffffffffffffffffffffffffffffffffffffffff167f0f6798a560793a54c3bcfe86a93cde1e73087d944c0ea20544137d4121396885836040518082815260200191505060405180910390a28273ffffffffffffffffffffffffffffffffffffffff16600073ffffffffffffffffffffffffffffffffffffffff167fddf252ad1be2c89b69c2b068fc378daa952ba7f163c4a11628f55a4df523b3ef846040518082815260200191505060405180910390a36001905092915050565b60008082840190508381101515156200052757fe5b8091505092915050565b828054600181600116156101000203166002900490600052602060002090601f016020900481019282601f106200057457805160ff1916838001178555620005a5565b82800160010185558215620005a5579182015b82811115620005a457825182559160200191906001019062000587565b5b509050620005b4919062000647565b5090565b82805482825590600052602060002090810192821562000634579160200282015b82811115620006335782518260006101000a81548173ffffffffffffffffffffffffffffffffffffffff021916908373ffffffffffffffffffffffffffffffffffffffff16021790555091602001919060010190620005d9565b5b5090506200064391906200066f565b5090565b6200066c91905b80821115620006685760008160009055506001016200064e565b5090565b90565b620006b291905b80821115620006ae57600081816101000a81549073ffffffffffffffffffffffffffffffffffffffff02191690555060010162000676565b5090565b90565b615a7880620006c56000396000f300606060405260043610620001f3576000357c0100000000000000000000000000000000000000000000000000000000900463ffffffff16806305d2035b146200022d57806306fdde03146200025d578063095ea7b314620002f15780630d6d3b6e146200034e57806314bfd6d014620003c25780631674bb9c146200042857806316ca3b63146200048c57806318160ddd146200052c57806323b872dd146200055857806324d7806c14620005d45780632c4e722e1462000628578063313ce567146200065457806331ae450b146200068657806334fcf43714620006f557806340c10f19146200072f57806342aa9bba146200078c57806354fd4d5014620007e75780635c17f9f4146200087b57806366188463146200091b5780636817031b14620009785780637048027514620009cc5780637065cb481462000a0857806370a082311462000a445780637272ad491462000a9457806374dcdc631462000b3457806378acf29a1462000bec57806395d89b411462000c68578063963563551462000cfc578063a81f8f3f1462000d28578063a9059cbb1462000d62578063ab67aa581462000dbf578063b37c75511462000e7e578063be45fd621462000efa578063d73dd6231462000f9a578063dd62ed3e1462000ff7578063e1b2e8b31462001066578063f8b2cb4f14620010a2575b6200022a6200020233620010f2565b307f4465706f736974000000000000000000000000000000000000000000000000006200115b565b50005b34156200023957600080fd5b62000243620017ef565b604051808215151515815260200191505060405180910390f35b34156200026957600080fd5b6200027362001802565b6040518080602001828103825283818151815260200191508051906020019080838360005b83811015620002b557808201518184015260208101905062000298565b50505050905090810190601f168015620002e35780820380516001836020036101000a031916815260200191505b509250505060405180910390f35b3415620002fd57600080fd5b62000334600480803573ffffffffffffffffffffffffffffffffffffffff16906020019091908035906020019091905050620018a4565b604051808215151515815260200191505060405180910390f35b620003a8600480803573ffffffffffffffffffffffffffffffffffffffff1690602001909190803573ffffffffffffffffffffffffffffffffffffffff16906020019091908035600019169060200190919050506200115b565b604051808215151515815260200191505060405180910390f35b3415620003ce57600080fd5b620003e6600480803590602001909190505062001996565b604051808273ffffffffffffffffffffffffffffffffffffffff1673ffffffffffffffffffffffffffffffffffffffff16815260200191505060405180910390f35b34156200043457600080fd5b6200048a600480803590602001909190803573ffffffffffffffffffffffffffffffffffffffff1690602001909190803573ffffffffffffffffffffffffffffffffffffffff16906020019091905050620019d6565b005b34156200049857600080fd5b62000512600480803573ffffffffffffffffffffffffffffffffffffffff1690602001909190803590602001909190803590602001908201803590602001908080601f0160208091040260200160405190810160405280939291908181526020018383808284378201915050505050509190505062001d57565b604051808215151515815260200191505060405180910390f35b34156200053857600080fd5b6200054262001e47565b6040518082815260200191505060405180910390f35b34156200056457600080fd5b620005ba600480803573ffffffffffffffffffffffffffffffffffffffff1690602001909190803573ffffffffffffffffffffffffffffffffffffffff1690602001909190803590602001909190505062001e51565b604051808215151515815260200191505060405180910390f35b3415620005e057600080fd5b6200060e600480803573ffffffffffffffffffffffffffffffffffffffff1690602001909190505062002214565b604051808215151515815260200191505060405180910390f35b34156200063457600080fd5b6200063e62002234565b6040518082815260200191505060405180910390f35b34156200066057600080fd5b6200066a6200223a565b604051808260ff1660ff16815260200191505060405180910390f35b34156200069257600080fd5b6200069c6200224d565b6040518080602001828103825283818151815260200191508051906020019060200280838360005b83811015620006e1578082015181840152602081019050620006c4565b505050509050019250505060405180910390f35b34156200070157600080fd5b620007196004808035906020019091905050620022e5565b6040518082815260200191505060405180910390f35b34156200073b57600080fd5b62000772600480803573ffffffffffffffffffffffffffffffffffffffff1690602001909190803590602001909190505062002351565b604051808215151515815260200191505060405180910390f35b34156200079857600080fd5b620007e5600480803573ffffffffffffffffffffffffffffffffffffffff1690602001909190803573ffffffffffffffffffffffffffffffffffffffff1690602001909190505062002549565b005b3415620007f357600080fd5b620007fd620026e1565b6040518080602001828103825283818151815260200191508051906020019080838360005b838110156200083f57808201518184015260208101905062000822565b50505050905090810190601f1680156200086d5780820380516001836020036101000a031916815260200191505b509250505060405180910390f35b34156200088757600080fd5b62000901600480803573ffffffffffffffffffffffffffffffffffffffff1690602001909190803590602001909190803590602001908201803590602001908080601f0160208091040260200160405190810160405280939291908181526020018383808284378201915050505050509190505062002783565b604051808215151515815260200191505060405180910390f35b34156200092757600080fd5b6200095e600480803573ffffffffffffffffffffffffffffffffffffffff1690602001909190803590602001909190505062002873565b604051808215151515815260200191505060405180910390f35b34156200098457600080fd5b620009b2600480803573ffffffffffffffffffffffffffffffffffffffff1690602001909190505062002b08565b604051808215151515815260200191505060405180910390f35b3415620009d857600080fd5b62000a06600480803573ffffffffffffffffffffffffffffffffffffffff1690602001909190505062002bad565b005b341562000a1457600080fd5b62000a42600480803573ffffffffffffffffffffffffffffffffffffffff1690602001909190505062002d1f565b005b341562000a5057600080fd5b62000a7e600480803573ffffffffffffffffffffffffffffffffffffffff1690602001909190505062002f4d565b6040518082815260200191505060405180910390f35b341562000aa057600080fd5b62000b1a600480803573ffffffffffffffffffffffffffffffffffffffff1690602001909190803590602001909190803590602001908201803590602001908080601f0160208091040260200160405190810160405280939291908181526020018383808284378201915050505050509190505062002f95565b604051808215151515815260200191505060405180910390f35b341562000b4057600080fd5b62000b77600480803573ffffffffffffffffffffffffffffffffffffffff1690602001909190803590602001909190505062003085565b604051808773ffffffffffffffffffffffffffffffffffffffff1673ffffffffffffffffffffffffffffffffffffffff16815260200186815260200185815260200184815260200183600019166000191681526020018260001916600019168152602001965050505050505060405180910390f35b341562000bf857600080fd5b62000c26600480803573ffffffffffffffffffffffffffffffffffffffff16906020019091905050620030fe565b604051808273ffffffffffffffffffffffffffffffffffffffff1673ffffffffffffffffffffffffffffffffffffffff16815260200191505060405180910390f35b341562000c7457600080fd5b62000c7e62003131565b6040518080602001828103825283818151815260200191508051906020019080838360005b8381101562000cc057808201518184015260208101905062000ca3565b50505050905090810190601f16801562000cee5780820380516001836020036101000a031916815260200191505b509250505060405180910390f35b341562000d0857600080fd5b62000d12620031d3565b6040518082815260200191505060405180910390f35b341562000d3457600080fd5b62000d4c6004808035906020019091905050620031d9565b6040518082815260200191505060405180910390f35b341562000d6e57600080fd5b62000da5600480803573ffffffffffffffffffffffffffffffffffffffff16906020019091908035906020019091905050620031f9565b604051808215151515815260200191505060405180910390f35b341562000dcb57600080fd5b62000e64600480803573ffffffffffffffffffffffffffffffffffffffff1690602001909190803573ffffffffffffffffffffffffffffffffffffffff1690602001909190803590602001909190803590602001908201803590602001908080601f016020809104026020016040519081016040528093929190818152602001838380828437820191505050505050919050506200341e565b604051808215151515815260200191505060405180910390f35b341562000e8a57600080fd5b62000eb8600480803573ffffffffffffffffffffffffffffffffffffffff16906020019091905050620010f2565b604051808273ffffffffffffffffffffffffffffffffffffffff1673ffffffffffffffffffffffffffffffffffffffff16815260200191505060405180910390f35b341562000f0657600080fd5b62000f80600480803573ffffffffffffffffffffffffffffffffffffffff1690602001909190803590602001909190803590602001908201803590602001908080601f0160208091040260200160405190810160405280939291908181526020018383808284378201915050505050509190505062003510565b604051808215151515815260200191505060405180910390f35b341562000fa657600080fd5b62000fdd600480803573ffffffffffffffffffffffffffffffffffffffff1690602001909190803590602001909190505062003600565b604051808215151515815260200191505060405180910390f35b34156200100357600080fd5b62001050600480803573ffffffffffffffffffffffffffffffffffffffff1690602001909190803573ffffffffffffffffffffffffffffffffffffffff16906020019091905050620037fe565b6040518082815260200191505060405180910390f35b34156200107257600080fd5b620010a0600480803573ffffffffffffffffffffffffffffffffffffffff1690602001909190505062003885565b005b3415620010ae57600080fd5b620010dc600480803573ffffffffffffffffffffffffffffffffffffffff1690602001909190505062003a65565b6040518082815260200191505060405180910390f35b6000600d60008373ffffffffffffffffffffffffffffffffffffffff1673ffffffffffffffffffffffffffffffffffffffff16815260200190815260200160002060009054906101000a900473ffffffffffffffffffffffffffffffffffffffff169050919050565b60008060006200116a62003aad565b15156200117657600080fd5b600073ffffffffffffffffffffffffffffffffffffffff168673ffffffffffffffffffffffffffffffffffffffff161480156200123e5750600073ffffffffffffffffffffffffffffffffffffffff16600d60008773ffffffffffffffffffffffffffffffffffffffff1673ffffffffffffffffffffffffffffffffffffffff16815260200190815260200160002060009054906101000a900473ffffffffffffffffffffffffffffffffffffffff1673ffffffffffffffffffffffffffffffffffffffff16145b15620013515730856200125062003b10565b808373ffffffffffffffffffffffffffffffffffffffff1673ffffffffffffffffffffffffffffffffffffffff1681526020018273ffffffffffffffffffffffffffffffffffffffff1673ffffffffffffffffffffffffffffffffffffffff16815260200192505050604051809103906000f0801515620012d057600080fd5b955085600d60008773ffffffffffffffffffffffffffffffffffffffff1673ffffffffffffffffffffffffffffffffffffffff16815260200190815260200160002060006101000a81548173ffffffffffffffffffffffffffffffffffffffff021916908373ffffffffffffffffffffffffffffffffffffffff1602179055505b6200135c34620031d9565b91508573ffffffffffffffffffffffffffffffffffffffff16631801e1566000604051602001526040518163ffffffff167c0100000000000000000000000000000000000000000000000000000000028152600401602060405180830381600087803b1515620013cb57600080fd5b6102c65a03f11515620013dd57600080fd5b5050506040518051905090507f3c3275cb0526603635eaad5a2e1f65ad24f381f428935c940a5ea1c8fa6604b2338787348886604051808773ffffffffffffffffffffffffffffffffffffffff1673ffffffffffffffffffffffffffffffffffffffff1681526020018673ffffffffffffffffffffffffffffffffffffffff1673ffffffffffffffffffffffffffffffffffffffff1681526020018573ffffffffffffffffffffffffffffffffffffffff1673ffffffffffffffffffffffffffffffffffffffff16815260200184815260200183600019166000191681526020018260001916600019168152602001965050505050505060405180910390a1600e60008773ffffffffffffffffffffffffffffffffffffffff1673ffffffffffffffffffffffffffffffffffffffff16815260200190815260200160002080548060010182816200152f919062003b21565b9160005260206000209060060201600060c0604051908101604052808973ffffffffffffffffffffffffffffffffffffffff16815260200142815260200134815260200160008152602001886000191681526020018560001916815250909190915060008201518160000160006101000a81548173ffffffffffffffffffffffffffffffffffffffff021916908373ffffffffffffffffffffffffffffffffffffffff1602179055506020820151816001015560408201518160020155606082015181600301556080820151816004019060001916905560a08201518160050190600019169055505050620016308260055462003abb90919063ffffffff16565b60058190555062001689826000808873ffffffffffffffffffffffffffffffffffffffff1673ffffffffffffffffffffffffffffffffffffffff1681526020019081526020016000205462003abb90919063ffffffff16565b6000808773ffffffffffffffffffffffffffffffffffffffff1673ffffffffffffffffffffffffffffffffffffffff168152602001908152602001600020819055508473ffffffffffffffffffffffffffffffffffffffff16600073ffffffffffffffffffffffffffffffffffffffff167fddf252ad1be2c89b69c2b068fc378daa952ba7f163c4a11628f55a4df523b3ef846040518082815260200191505060405180910390a38573ffffffffffffffffffffffffffffffffffffffff16639172fe0834876040518363ffffffff167c0100000000000000000000000000000000000000000000000000000000028152600401808273ffffffffffffffffffffffffffffffffffffffff1673ffffffffffffffffffffffffffffffffffffffff1681526020019150506000604051808303818588803b1515620017cc57600080fd5b6125ee5a03f11515620017de57600080fd5b505050506001925050509392505050565b600660009054906101000a900460ff1681565b60088054600181600116156101000203166002900480601f0160208091040260200160405190810160405280929190818152602001828054600181600116156101000203166002900480156200189c5780601f1062001870576101008083540402835291602001916200189c565b820191906000526020600020905b8154815290600101906020018083116200187e57829003601f168201915b505050505081565b600081600260003373ffffffffffffffffffffffffffffffffffffffff1673ffffffffffffffffffffffffffffffffffffffff16815260200190815260200160002060008573ffffffffffffffffffffffffffffffffffffffff1673ffffffffffffffffffffffffffffffffffffffff168152602001908152602001600020819055508273ffffffffffffffffffffffffffffffffffffffff163373ffffffffffffffffffffffffffffffffffffffff167f8c5be1e5ebec7d5bd14f71427d1e84f3dd0314c0f7b2291e5b200ac8c7c3b925846040518082815260200191505060405180910390a36001905092915050565b600481815481101515620019a657fe5b90600052602060002090016000915054906101000a900473ffffffffffffffffffffffffffffffffffffffff1681565b60008273ffffffffffffffffffffffffffffffffffffffff1614151515620019fd57600080fd5b60008173ffffffffffffffffffffffffffffffffffffffff161415151562001a2457600080fd5b600073ffffffffffffffffffffffffffffffffffffffff16600d60008473ffffffffffffffffffffffffffffffffffffffff1673ffffffffffffffffffffffffffffffffffffffff16815260200190815260200160002060009054906101000a900473ffffffffffffffffffffffffffffffffffffffff1673ffffffffffffffffffffffffffffffffffffffff161415151562001ac057600080fd5b600360003373ffffffffffffffffffffffffffffffffffffffff1673ffffffffffffffffffffffffffffffffffffffff16815260200190815260200160002060009054906101000a900460ff168062001c345750600d60008373ffffffffffffffffffffffffffffffffffffffff1673ffffffffffffffffffffffffffffffffffffffff16815260200190815260200160002060009054906101000a900473ffffffffffffffffffffffffffffffffffffffff1673ffffffffffffffffffffffffffffffffffffffff16632f54bf6e336000604051602001526040518263ffffffff167c0100000000000000000000000000000000000000000000000000000000028152600401808273ffffffffffffffffffffffffffffffffffffffff1673ffffffffffffffffffffffffffffffffffffffff168152602001915050602060405180830381600087803b151562001c1757600080fd5b6102c65a03f1151562001c2957600080fd5b505050604051805190505b1562001d5257600d60008373ffffffffffffffffffffffffffffffffffffffff1673ffffffffffffffffffffffffffffffffffffffff16815260200190815260200160002060009054906101000a900473ffffffffffffffffffffffffffffffffffffffff1673ffffffffffffffffffffffffffffffffffffffff166349f9c0e484836040518363ffffffff167c0100000000000000000000000000000000000000000000000000000000028152600401808381526020018273ffffffffffffffffffffffffffffffffffffffff1673ffffffffffffffffffffffffffffffffffffffff16815260200192505050600060405180830381600087803b151562001d3c57600080fd5b6102c65a03f1151562001d4e57600080fd5b5050505b505050565b60003073ffffffffffffffffffffffffffffffffffffffff168473ffffffffffffffffffffffffffffffffffffffff161415151562001d9557600080fd5b62001da1848462003600565b508373ffffffffffffffffffffffffffffffffffffffff168260405180828051906020019080838360005b8381101562001de957808201518184015260208101905062001dcc565b50505050905090810190601f16801562001e175780820380516001836020036101000a031916815260200191505b5091505060006040518083038160008661646e5a03f1915050151562001e3c57600080fd5b600190509392505050565b6000600154905090565b60008073ffffffffffffffffffffffffffffffffffffffff168373ffffffffffffffffffffffffffffffffffffffff161415151562001e8f57600080fd5b6000808573ffffffffffffffffffffffffffffffffffffffff1673ffffffffffffffffffffffffffffffffffffffff16815260200190815260200160002054821115151562001edd57600080fd5b600260008573ffffffffffffffffffffffffffffffffffffffff1673ffffffffffffffffffffffffffffffffffffffff16815260200190815260200160002060003373ffffffffffffffffffffffffffffffffffffffff1673ffffffffffffffffffffffffffffffffffffffff16815260200190815260200160002054821115151562001f6957600080fd5b62001fbc826000808773ffffffffffffffffffffffffffffffffffffffff1673ffffffffffffffffffffffffffffffffffffffff1681526020019081526020016000205462003ada90919063ffffffff16565b6000808673ffffffffffffffffffffffffffffffffffffffff1673ffffffffffffffffffffffffffffffffffffffff1681526020019081526020016000208190555062002051826000808673ffffffffffffffffffffffffffffffffffffffff1673ffffffffffffffffffffffffffffffffffffffff1681526020019081526020016000205462003abb90919063ffffffff16565b6000808573ffffffffffffffffffffffffffffffffffffffff1673ffffffffffffffffffffffffffffffffffffffff168152602001908152602001600020819055506200212482600260008773ffffffffffffffffffffffffffffffffffffffff1673ffffffffffffffffffffffffffffffffffffffff16815260200190815260200160002060003373ffffffffffffffffffffffffffffffffffffffff1673ffffffffffffffffffffffffffffffffffffffff1681526020019081526020016000205462003ada90919063ffffffff16565b600260008673ffffffffffffffffffffffffffffffffffffffff1673ffffffffffffffffffffffffffffffffffffffff16815260200190815260200160002060003373ffffffffffffffffffffffffffffffffffffffff1673ffffffffffffffffffffffffffffffffffffffff168152602001908152602001600020819055508273ffffffffffffffffffffffffffffffffffffffff168473ffffffffffffffffffffffffffffffffffffffff167fddf252ad1be2c89b69c2b068fc378daa952ba7f163c4a11628f55a4df523b3ef846040518082815260200191505060405180910390a3600190509392505050565b60036020528060005260406000206000915054906101000a900460ff1681565b60075481565b600960009054906101000a900460ff1681565b6200225762003b56565b6004805480602002602001604051908101604052809291908181526020018280548015620022db57602002820191906000526020600020905b8160009054906101000a900473ffffffffffffffffffffffffffffffffffffffff1673ffffffffffffffffffffffffffffffffffffffff168152602001906001019080831162002290575b5050505050905090565b6000600360003373ffffffffffffffffffffffffffffffffffffffff1673ffffffffffffffffffffffffffffffffffffffff16815260200190815260200160002060009054906101000a900460ff1615156200234057600080fd5b816007819055506007549050919050565b6000600360003373ffffffffffffffffffffffffffffffffffffffff1673ffffffffffffffffffffffffffffffffffffffff16815260200190815260200160002060009054906101000a900460ff161515620023ac57600080fd5b600660009054906101000a900460ff16151515620023c957600080fd5b600082111515620023d957600080fd5b620023f08260055462003abb90919063ffffffff16565b60058190555062002449826000808673ffffffffffffffffffffffffffffffffffffffff1673ffffffffffffffffffffffffffffffffffffffff1681526020019081526020016000205462003abb90919063ffffffff16565b6000808573ffffffffffffffffffffffffffffffffffffffff1673ffffffffffffffffffffffffffffffffffffffff168152602001908152602001600020819055508273ffffffffffffffffffffffffffffffffffffffff167f0f6798a560793a54c3bcfe86a93cde1e73087d944c0ea20544137d4121396885836040518082815260200191505060405180910390a28273ffffffffffffffffffffffffffffffffffffffff16600073ffffffffffffffffffffffffffffffffffffffff167fddf252ad1be2c89b69c2b068fc378daa952ba7f163c4a11628f55a4df523b3ef846040518082815260200191505060405180910390a36001905092915050565b600360003373ffffffffffffffffffffffffffffffffffffffff1673ffffffffffffffffffffffffffffffffffffffff16815260200190815260200160002060009054906101000a900460ff161515620025a257600080fd5b60008173ffffffffffffffffffffffffffffffffffffffff1614151515620025c957600080fd5b600073ffffffffffffffffffffffffffffffffffffffff16600d60008373ffffffffffffffffffffffffffffffffffffffff1673ffffffffffffffffffffffffffffffffffffffff16815260200190815260200160002060009054906101000a900473ffffffffffffffffffffffffffffffffffffffff1673ffffffffffffffffffffffffffffffffffffffff161415620026dd5781600d60008373ffffffffffffffffffffffffffffffffffffffff1673ffffffffffffffffffffffffffffffffffffffff16815260200190815260200160002060006101000a81548173ffffffffffffffffffffffffffffffffffffffff021916908373ffffffffffffffffffffffffffffffffffffffff1602179055505b5050565b600b8054600181600116156101000203166002900480601f0160208091040260200160405190810160405280929190818152602001828054600181600116156101000203166002900480156200277b5780601f106200274f576101008083540402835291602001916200277b565b820191906000526020600020905b8154815290600101906020018083116200275d57829003601f168201915b505050505081565b60003073ffffffffffffffffffffffffffffffffffffffff168473ffffffffffffffffffffffffffffffffffffffff1614151515620027c157600080fd5b620027cd8484620018a4565b508373ffffffffffffffffffffffffffffffffffffffff168260405180828051906020019080838360005b8381101562002815578082015181840152602081019050620027f8565b50505050905090810190601f168015620028435780820380516001836020036101000a031916815260200191505b5091505060006040518083038160008661646e5a03f191505015156200286857600080fd5b600190509392505050565b600080600260003373ffffffffffffffffffffffffffffffffffffffff1673ffffffffffffffffffffffffffffffffffffffff16815260200190815260200160002060008573ffffffffffffffffffffffffffffffffffffffff1673ffffffffffffffffffffffffffffffffffffffff1681526020019081526020016000205490508083111562002986576000600260003373ffffffffffffffffffffffffffffffffffffffff1673ffffffffffffffffffffffffffffffffffffffff16815260200190815260200160002060008673ffffffffffffffffffffffffffffffffffffffff1673ffffffffffffffffffffffffffffffffffffffff1681526020019081526020016000208190555062002a1c565b6200299b838262003ada90919063ffffffff16565b600260003373ffffffffffffffffffffffffffffffffffffffff1673ffffffffffffffffffffffffffffffffffffffff16815260200190815260200160002060008673ffffffffffffffffffffffffffffffffffffffff1673ffffffffffffffffffffffffffffffffffffffff168152602001908152602001600020819055505b8373ffffffffffffffffffffffffffffffffffffffff163373ffffffffffffffffffffffffffffffffffffffff167f8c5be1e5ebec7d5bd14f71427d1e84f3dd0314c0f7b2291e5b200ac8c7c3b925600260003373ffffffffffffffffffffffffffffffffffffffff1673ffffffffffffffffffffffffffffffffffffffff16815260200190815260200160002060008873ffffffffffffffffffffffffffffffffffffffff1673ffffffffffffffffffffffffffffffffffffffff168152602001908152602001600020546040518082815260200191505060405180910390a3600191505092915050565b6000600360003373ffffffffffffffffffffffffffffffffffffffff1673ffffffffffffffffffffffffffffffffffffffff16815260200190815260200160002060009054906101000a900460ff16151562002b6357600080fd5b81600c60006101000a81548173ffffffffffffffffffffffffffffffffffffffff021916908373ffffffffffffffffffffffffffffffffffffffff16021790555060019050919050565b600360003373ffffffffffffffffffffffffffffffffffffffff1673ffffffffffffffffffffffffffffffffffffffff16815260200190815260200160002060009054906101000a900460ff16151562002c0657600080fd5b600360003373ffffffffffffffffffffffffffffffffffffffff1673ffffffffffffffffffffffffffffffffffffffff16815260200190815260200160002060009054906101000a900460ff16151562002c5f57600080fd5b6001600360008373ffffffffffffffffffffffffffffffffffffffff1673ffffffffffffffffffffffffffffffffffffffff16815260200190815260200160002060006101000a81548160ff0219169083151502179055506004805480600101828162002ccd919062003b6a565b9160005260206000209001600083909190916101000a81548173ffffffffffffffffffffffffffffffffffffffff021916908373ffffffffffffffffffffffffffffffffffffffff1602179055505050565b600360003373ffffffffffffffffffffffffffffffffffffffff1673ffffffffffffffffffffffffffffffffffffffff16815260200190815260200160002060009054906101000a900460ff16151562002d7857600080fd5b60008173ffffffffffffffffffffffffffffffffffffffff161415151562002d9f57600080fd5b600073ffffffffffffffffffffffffffffffffffffffff16600d60008373ffffffffffffffffffffffffffffffffffffffff1673ffffffffffffffffffffffffffffffffffffffff16815260200190815260200160002060009054906101000a900473ffffffffffffffffffffffffffffffffffffffff1673ffffffffffffffffffffffffffffffffffffffff161415151562002e3b57600080fd5b600d60008273ffffffffffffffffffffffffffffffffffffffff1673ffffffffffffffffffffffffffffffffffffffff16815260200190815260200160002060009054906101000a900473ffffffffffffffffffffffffffffffffffffffff1673ffffffffffffffffffffffffffffffffffffffff16637065cb48336040518263ffffffff167c0100000000000000000000000000000000000000000000000000000000028152600401808273ffffffffffffffffffffffffffffffffffffffff1673ffffffffffffffffffffffffffffffffffffffff168152602001915050600060405180830381600087803b151562002f3557600080fd5b6102c65a03f1151562002f4757600080fd5b50505050565b60008060008373ffffffffffffffffffffffffffffffffffffffff1673ffffffffffffffffffffffffffffffffffffffff168152602001908152602001600020549050919050565b60003073ffffffffffffffffffffffffffffffffffffffff168473ffffffffffffffffffffffffffffffffffffffff161415151562002fd357600080fd5b62002fdf848462002873565b508373ffffffffffffffffffffffffffffffffffffffff168260405180828051906020019080838360005b83811015620030275780820151818401526020810190506200300a565b50505050905090810190601f168015620030555780820380516001836020036101000a031916815260200191505b5091505060006040518083038160008661646e5a03f191505015156200307a57600080fd5b600190509392505050565b600e60205281600052604060002081815481101515620030a157fe5b9060005260206000209060060201600091509150508060000160009054906101000a900473ffffffffffffffffffffffffffffffffffffffff16908060010154908060020154908060030154908060040154908060050154905086565b600d6020528060005260406000206000915054906101000a900473ffffffffffffffffffffffffffffffffffffffff1681565b600a8054600181600116156101000203166002900480601f016020809104026020016040519081016040528092919081815260200182805460018160011615610100020316600290048015620031cb5780601f106200319f57610100808354040283529160200191620031cb565b820191906000526020600020905b815481529060010190602001808311620031ad57829003601f168201915b505050505081565b60055481565b6000620031f26007548362003af490919063ffffffff16565b9050919050565b60008073ffffffffffffffffffffffffffffffffffffffff168373ffffffffffffffffffffffffffffffffffffffff16141515156200323757600080fd5b6000803373ffffffffffffffffffffffffffffffffffffffff1673ffffffffffffffffffffffffffffffffffffffff1681526020019081526020016000205482111515156200328557600080fd5b620032d8826000803373ffffffffffffffffffffffffffffffffffffffff1673ffffffffffffffffffffffffffffffffffffffff1681526020019081526020016000205462003ada90919063ffffffff16565b6000803373ffffffffffffffffffffffffffffffffffffffff1673ffffffffffffffffffffffffffffffffffffffff168152602001908152602001600020819055506200336d826000808673ffffffffffffffffffffffffffffffffffffffff1673ffffffffffffffffffffffffffffffffffffffff1681526020019081526020016000205462003abb90919063ffffffff16565b6000808573ffffffffffffffffffffffffffffffffffffffff1673ffffffffffffffffffffffffffffffffffffffff168152602001908152602001600020819055508273ffffffffffffffffffffffffffffffffffffffff163373ffffffffffffffffffffffffffffffffffffffff167fddf252ad1be2c89b69c2b068fc378daa952ba7f163c4a11628f55a4df523b3ef846040518082815260200191505060405180910390a36001905092915050565b60003073ffffffffffffffffffffffffffffffffffffffff168473ffffffffffffffffffffffffffffffffffffffff16141515156200345c57600080fd5b6200346985858562001e51565b508373ffffffffffffffffffffffffffffffffffffffff168260405180828051906020019080838360005b83811015620034b157808201518184015260208101905062003494565b50505050905090810190601f168015620034df5780820380516001836020036101000a031916815260200191505b5091505060006040518083038160008661646e5a03f191505015156200350457600080fd5b60019050949350505050565b60003073ffffffffffffffffffffffffffffffffffffffff168473ffffffffffffffffffffffffffffffffffffffff16141515156200354e57600080fd5b6200355a8484620031f9565b508373ffffffffffffffffffffffffffffffffffffffff168260405180828051906020019080838360005b83811015620035a257808201518184015260208101905062003585565b50505050905090810190601f168015620035d05780820380516001836020036101000a031916815260200191505b5091505060006040518083038160008661646e5a03f19150501515620035f557600080fd5b600190509392505050565b60006200369382600260003373ffffffffffffffffffffffffffffffffffffffff1673ffffffffffffffffffffffffffffffffffffffff16815260200190815260200160002060008673ffffffffffffffffffffffffffffffffffffffff1673ffffffffffffffffffffffffffffffffffffffff1681526020019081526020016000205462003abb90919063ffffffff16565b600260003373ffffffffffffffffffffffffffffffffffffffff1673ffffffffffffffffffffffffffffffffffffffff16815260200190815260200160002060008573ffffffffffffffffffffffffffffffffffffffff1673ffffffffffffffffffffffffffffffffffffffff168152602001908152602001600020819055508273ffffffffffffffffffffffffffffffffffffffff163373ffffffffffffffffffffffffffffffffffffffff167f8c5be1e5ebec7d5bd14f71427d1e84f3dd0314c0f7b2291e5b200ac8c7c3b925600260003373ffffffffffffffffffffffffffffffffffffffff1673ffffffffffffffffffffffffffffffffffffffff16815260200190815260200160002060008773ffffffffffffffffffffffffffffffffffffffff1673ffffffffffffffffffffffffffffffffffffffff168152602001908152602001600020546040518082815260200191505060405180910390a36001905092915050565b6000600260008473ffffffffffffffffffffffffffffffffffffffff1673ffffffffffffffffffffffffffffffffffffffff16815260200190815260200160002060008373ffffffffffffffffffffffffffffffffffffffff1673ffffffffffffffffffffffffffffffffffffffff16815260200190815260200160002054905092915050565b6000600360003373ffffffffffffffffffffffffffffffffffffffff1673ffffffffffffffffffffffffffffffffffffffff16815260200190815260200160002060009054906101000a900460ff161515620038e057600080fd5b600360003373ffffffffffffffffffffffffffffffffffffffff1673ffffffffffffffffffffffffffffffffffffffff16815260200190815260200160002060009054906101000a900460ff1615156200393957600080fd5b6000600360008473ffffffffffffffffffffffffffffffffffffffff1673ffffffffffffffffffffffffffffffffffffffff16815260200190815260200160002060006101000a81548160ff021916908315150217905550600090505b60048054905081101562003a6157600481815481101515620039b457fe5b906000526020600020900160009054906101000a900473ffffffffffffffffffffffffffffffffffffffff1673ffffffffffffffffffffffffffffffffffffffff168273ffffffffffffffffffffffffffffffffffffffff16141562003a535760048181548110151562003a2457fe5b906000526020600020900160006101000a81549073ffffffffffffffffffffffffffffffffffffffff02191690555b808060010191505062003996565b5050565b60008060008373ffffffffffffffffffffffffffffffffffffffff1673ffffffffffffffffffffffffffffffffffffffff168152602001908152602001600020549050919050565b6000633b9aca003411905090565b600080828401905083811015151562003ad057fe5b8091505092915050565b600082821115151562003ae957fe5b818303905092915050565b600080828481151562003b0357fe5b0490508091505092915050565b604051611e1a8062003c3383390190565b81548183558181151162003b515760060281600602836000526020600020918201910162003b50919062003b99565b5b505050565b602060405190810160405280600081525090565b81548183558181151162003b945781836000526020600020918201910162003b93919062003c0a565b5b505050565b62003c0791905b8082111562003c0357600080820160006101000a81549073ffffffffffffffffffffffffffffffffffffffff0219169055600182016000905560028201600090556003820160009055600482016000905560058201600090555060060162003ba0565b5090565b90565b62003c2f91905b8082111562003c2b57600081600090555060010162003c11565b5090565b9056006060604052341561000f57600080fd5b604051604080611e1a8339810160405280805190602001909190805190602001909190505060016000803373ffffffffffffffffffffffffffffffffffffffff1673ffffffffffffffffffffffffffffffffffffffff16815260200190815260200160002060006101000a81548160ff02191690831515021790555060008173ffffffffffffffffffffffffffffffffffffffff16141515156100b157600080fd5b80600260006101000a81548173ffffffffffffffffffffffffffffffffffffffff021916908373ffffffffffffffffffffffffffffffffffffffff16021790555081600160006101000a81548173ffffffffffffffffffffffffffffffffffffffff021916908373ffffffffffffffffffffffffffffffffffffffff1602179055506000600260146101000a81548160ff0219169083600281111561015257fe5b021790555060016000808373ffffffffffffffffffffffffffffffffffffffff1673ffffffffffffffffffffffffffffffffffffffff16815260200190815260200160002060006101000a81548160ff02191690831515021790555060016000808473ffffffffffffffffffffffffffffffffffffffff1673ffffffffffffffffffffffffffffffffffffffff16815260200190815260200160002060006101000a81548160ff0219169083151502179055505050611c04806102166000396000f300606060405260043610610128576000357c0100000000000000000000000000000000000000000000000000000000900463ffffffff16806303db428d14610133578063113adf49146101eb5780631453812814610240578063173825d9146102d75780631801e15614610310578063202e079d1461034157806323ca0cd21461036a5780632f54bf6e146103b757806349f9c0e4146104085780635436e5a01461044a5780635b2ce586146104ea5780635b6beeb914610505578063640e7fd51461057e5780637065cb48146105b55780637633a22c146105ee578063779d8677146106255780639172fe0814610672578063af92c181146106a0578063c19d93fb146106b5578063d4c2f75c146106ec578063fbfa77cf1461076e578063fd08e0c7146107c3575b61013133610899565b005b341561013e57600080fd5b6101d1600480803590602001908201803590602001908080601f0160208091040260200160405190810160405280939291908181526020018383808284378201915050505050509190803590602001908201803590602001908080601f016020809104026020016040519081016040528093929190818152602001838380828437820191505050505050919050506109e2565b604051808215151515815260200191505060405180910390f35b34156101f657600080fd5b6101fe610aaf565b604051808273ffffffffffffffffffffffffffffffffffffffff1673ffffffffffffffffffffffffffffffffffffffff16815260200191505060405180910390f35b341561024b57600080fd5b610280600480803573ffffffffffffffffffffffffffffffffffffffff16906020019091908035906020019091905050610ad5565b604051808573ffffffffffffffffffffffffffffffffffffffff1673ffffffffffffffffffffffffffffffffffffffff16815260200184815260200183815260200182815260200194505050505060405180910390f35b34156102e257600080fd5b61030e600480803573ffffffffffffffffffffffffffffffffffffffff16906020019091905050610b41565b005b341561031b57600080fd5b610323610c49565b60405180826000191660001916815260200191505060405180910390f35b341561034c57600080fd5b610354610eca565b6040518082815260200191505060405180910390f35b341561037557600080fd5b6103a1600480803573ffffffffffffffffffffffffffffffffffffffff16906020019091905050610ed0565b6040518082815260200191505060405180910390f35b34156103c257600080fd5b6103ee600480803573ffffffffffffffffffffffffffffffffffffffff16906020019091905050610f1c565b604051808215151515815260200191505060405180910390f35b341561041357600080fd5b610448600480803590602001909190803573ffffffffffffffffffffffffffffffffffffffff16906020019091905050610f3c565b005b341561045557600080fd5b61046f600480803560001916906020019091905050611112565b6040518080602001828103825283818151815260200191508051906020019080838360005b838110156104af578082015181840152602081019050610494565b50505050905090810190601f1680156104dc5780820380516001836020036101000a031916815260200191505b509250505060405180910390f35b610503600480803560ff1690602001909190505061122c565b005b341561051057600080fd5b610560600480803590602001908201803590602001908080601f0160208091040260200160405190810160405280939291908181526020018383808284378201915050505050509190505061166e565b60405180826000191660001916815260200191505060405180910390f35b341561058957600080fd5b6105916116da565b604051808260068111156105a157fe5b60ff16815260200191505060405180910390f35b34156105c057600080fd5b6105ec600480803573ffffffffffffffffffffffffffffffffffffffff169060200190919050506116f1565b005b34156105f957600080fd5b6106016117f9565b6040518082600681111561061157fe5b60ff16815260200191505060405180910390f35b341561063057600080fd5b61065c600480803573ffffffffffffffffffffffffffffffffffffffff1690602001909190505061180c565b6040518082815260200191505060405180910390f35b61069e600480803573ffffffffffffffffffffffffffffffffffffffff16906020019091905050610899565b005b34156106ab57600080fd5b6106b3611824565b005b34156106c057600080fd5b6106c86118d4565b604051808260028111156106d857fe5b60ff16815260200191505060405180910390f35b34156106f757600080fd5b61075460048080356000191690602001909190803590602001908201803590602001908080601f016020809104026020016040519081016040528093929190818152602001838380828437820191505050505050919050506118e7565b604051808215151515815260200191505060405180910390f35b341561077957600080fd5b61078161197a565b604051808273ffffffffffffffffffffffffffffffffffffffff1673ffffffffffffffffffffffffffffffffffffffff16815260200191505060405180910390f35b34156107ce57600080fd5b61081e600480803590602001908201803590602001908080601f016020809104026020016040519081016040528093929190818152602001838380828437820191505050505050919050506119a0565b6040518080602001828103825283818151815260200191508051906020019080838360005b8381101561085e578082015181840152602081019050610843565b50505050905090810190601f16801561088b5780820380516001836020036101000a031916815260200191505b509250505060405180910390f35b6001600260146101000a81548160ff021916908360028111156108b857fe5b02179055506108d234600354611a7190919063ffffffff16565b600381905550600560008273ffffffffffffffffffffffffffffffffffffffff1673ffffffffffffffffffffffffffffffffffffffff16815260200190815260200160002080548060010182816109299190611a8f565b916000526020600020906004020160006080604051908101604052803373ffffffffffffffffffffffffffffffffffffffff1681526020014281526020013481526020016000815250909190915060008201518160000160006101000a81548173ffffffffffffffffffffffffffffffffffffffff021916908373ffffffffffffffffffffffffffffffffffffffff16021790555060208201518160010155604082015181600201556060820151816003015550505050565b60008060003373ffffffffffffffffffffffffffffffffffffffff1673ffffffffffffffffffffffffffffffffffffffff16815260200190815260200160002060009054906101000a900460ff161515610a3b57600080fd5b610aa7836040518082805190602001908083835b602083101515610a745780518252602082019150602081019050602083039250610a4f565b6001836020036101000a0380198251168184511680821785525050505050509050019150506040518091039020836118e7565b905092915050565b600160009054906101000a900473ffffffffffffffffffffffffffffffffffffffff1681565b600560205281600052604060002081815481101515610af057fe5b9060005260206000209060040201600091509150508060000160009054906101000a900473ffffffffffffffffffffffffffffffffffffffff16908060010154908060020154908060030154905084565b6000803373ffffffffffffffffffffffffffffffffffffffff1673ffffffffffffffffffffffffffffffffffffffff16815260200190815260200160002060009054906101000a900460ff161515610b9857600080fd5b6000803373ffffffffffffffffffffffffffffffffffffffff1673ffffffffffffffffffffffffffffffffffffffff16815260200190815260200160002060009054906101000a900460ff161515610bef57600080fd5b60008060008373ffffffffffffffffffffffffffffffffffffffff1673ffffffffffffffffffffffffffffffffffffffff16815260200190815260200160002060006101000a81548160ff02191690831515021790555050565b6000806006811115610c5757fe5b600260159054906101000a900460ff166006811115610c7257fe5b1415610ca0577f50726f766973696f6e696e6700000000000000000000000000000000000000009050610ec7565b60016006811115610cad57fe5b600260159054906101000a900460ff166006811115610cc857fe5b1415610cf6577f43657274696669656400000000000000000000000000000000000000000000009050610ec7565b60026006811115610d0357fe5b600260159054906101000a900460ff166006811115610d1e57fe5b1415610d4c577f4d6f6469666965640000000000000000000000000000000000000000000000009050610ec7565b60036006811115610d5957fe5b600260159054906101000a900460ff166006811115610d7457fe5b1415610da2577f436f6d70726f6d697365640000000000000000000000000000000000000000009050610ec7565b60046006811115610daf57fe5b600260159054906101000a900460ff166006811115610dca57fe5b1415610df8577f4d616c66756e6374696f6e696e670000000000000000000000000000000000009050610ec7565b60056006811115610e0557fe5b600260159054906101000a900460ff166006811115610e2057fe5b1415610e4e577f4861726d66756c000000000000000000000000000000000000000000000000009050610ec7565b600680811115610e5a57fe5b600260159054906101000a900460ff166006811115610e7557fe5b1415610ea3577f436f756e746572666569740000000000000000000000000000000000000000009050610ec7565b7f436f756e7465726665697400000000000000000000000000000000000000000090505b90565b60035481565b6000600560008373ffffffffffffffffffffffffffffffffffffffff1673ffffffffffffffffffffffffffffffffffffffff168152602001908152602001600020805490509050919050565b60006020528060005260406000206000915054906101000a900460ff1681565b6000803373ffffffffffffffffffffffffffffffffffffffff1673ffffffffffffffffffffffffffffffffffffffff16815260200190815260200160002060009054906101000a900460ff161515610f9357600080fd5b60016002811115610fa057fe5b600260149054906101000a900460ff166002811115610fbb57fe5b141515610fc757600080fd5b8073ffffffffffffffffffffffffffffffffffffffff166108fc839081150290604051600060405180830381858888f19350505050151561100757600080fd5b600560003073ffffffffffffffffffffffffffffffffffffffff1673ffffffffffffffffffffffffffffffffffffffff16815260200190815260200160002080548060010182816110589190611a8f565b916000526020600020906004020160006080604051908101604052808573ffffffffffffffffffffffffffffffffffffffff1681526020014281526020018681526020016001815250909190915060008201518160000160006101000a81548173ffffffffffffffffffffffffffffffffffffffff021916908373ffffffffffffffffffffffffffffffffffffffff1602179055506020820151816001015560408201518160020155606082015181600301555050505050565b61111a611ac1565b6000803373ffffffffffffffffffffffffffffffffffffffff1673ffffffffffffffffffffffffffffffffffffffff16815260200190815260200160002060009054906101000a900460ff16151561117157600080fd5b6006600083600019166000191681526020019081526020016000208054600181600116156101000203166002900480601f0160208091040260200160405190810160405280929190818152602001828054600181600116156101000203166002900480156112205780601f106111f557610100808354040283529160200191611220565b820191906000526020600020905b81548152906001019060200180831161120357829003601f168201915b50505050509050919050565b6509184e72a00034111561166b5780600260156101000a81548160ff0219169083600681111561125857fe5b0217905550600181600681111561126b57fe5b11156113bc57600160009054906101000a900473ffffffffffffffffffffffffffffffffffffffff1673ffffffffffffffffffffffffffffffffffffffff16630d6d3b6e3430307f4865616c74685761726e696e67000000000000000000000000000000000000006000604051602001526040518563ffffffff167c0100000000000000000000000000000000000000000000000000000000028152600401808473ffffffffffffffffffffffffffffffffffffffff1673ffffffffffffffffffffffffffffffffffffffff1681526020018373ffffffffffffffffffffffffffffffffffffffff1673ffffffffffffffffffffffffffffffffffffffff168152602001826000191660001916815260200193505050506020604051808303818588803b151561139a57600080fd5b6125ee5a03f115156113ab57600080fd5b505050506040518051905050611503565b600160009054906101000a900473ffffffffffffffffffffffffffffffffffffffff1673ffffffffffffffffffffffffffffffffffffffff16630d6d3b6e3430307f4865616c746855706461746500000000000000000000000000000000000000006000604051602001526040518563ffffffff167c0100000000000000000000000000000000000000000000000000000000028152600401808473ffffffffffffffffffffffffffffffffffffffff1673ffffffffffffffffffffffffffffffffffffffff1681526020018373ffffffffffffffffffffffffffffffffffffffff1673ffffffffffffffffffffffffffffffffffffffff168152602001826000191660001916815260200193505050506020604051808303818588803b15156114e557600080fd5b6125ee5a03f115156114f657600080fd5b5050505060405180519050505b7fb6d7372bb54b80a5b1d60d3b1da737719783cc92a2095f10d9195105f7abeca5816040518082600681111561153557fe5b60ff16815260200191505060405180910390a161155d34600354611a7190919063ffffffff16565b600381905550600560003073ffffffffffffffffffffffffffffffffffffffff1673ffffffffffffffffffffffffffffffffffffffff16815260200190815260200160002080548060010182816115b49190611a8f565b916000526020600020906004020160006080604051908101604052803373ffffffffffffffffffffffffffffffffffffffff1681526020014281526020013481526020016000815250909190915060008201518160000160006101000a81548173ffffffffffffffffffffffffffffffffffffffff021916908373ffffffffffffffffffffffffffffffffffffffff1602179055506020820151816001015560408201518160020155606082015181600301555050505b50565b6000816040518082805190602001908083835b6020831015156116a65780518252602082019150602081019050602083039250611681565b6001836020036101000a03801982511681845116808217855250505050505090500191505060405180910390209050919050565b6000600260159054906101000a900460ff16905090565b6000803373ffffffffffffffffffffffffffffffffffffffff1673ffffffffffffffffffffffffffffffffffffffff16815260200190815260200160002060009054906101000a900460ff16151561174857600080fd5b6000803373ffffffffffffffffffffffffffffffffffffffff1673ffffffffffffffffffffffffffffffffffffffff16815260200190815260200160002060009054906101000a900460ff16151561179f57600080fd5b60016000808373ffffffffffffffffffffffffffffffffffffffff1673ffffffffffffffffffffffffffffffffffffffff16815260200190815260200160002060006101000a81548160ff02191690831515021790555050565b600260159054906101000a900460ff1681565b60046020528060005260406000206000915090505481565b6000803373ffffffffffffffffffffffffffffffffffffffff1673ffffffffffffffffffffffffffffffffffffffff16815260200190815260200160002060009054906101000a900460ff16151561187b57600080fd5b6001600281111561188857fe5b600260149054906101000a900460ff1660028111156118a357fe5b1415156118af57600080fd5b60028060146101000a81548160ff021916908360028111156118cd57fe5b0217905550565b600260149054906101000a900460ff1681565b60008060003373ffffffffffffffffffffffffffffffffffffffff1673ffffffffffffffffffffffffffffffffffffffff16815260200190815260200160002060009054906101000a900460ff16151561194057600080fd5b81600660008560001916600019168152602001908152602001600020908051906020019061196f929190611ad5565b506001905092915050565b600260009054906101000a900473ffffffffffffffffffffffffffffffffffffffff1681565b6119a8611ac1565b6000803373ffffffffffffffffffffffffffffffffffffffff1673ffffffffffffffffffffffffffffffffffffffff16815260200190815260200160002060009054906101000a900460ff1615156119ff57600080fd5b611a6a826040518082805190602001908083835b602083101515611a385780518252602082019150602081019050602083039250611a13565b6001836020036101000a0380198251168184511680821785525050505050509050019150506040518091039020611112565b9050919050565b6000808284019050838110151515611a8557fe5b8091505092915050565b815481835581811511611abc57600402816004028360005260206000209182019101611abb9190611b55565b5b505050565b602060405190810160405280600081525090565b828054600181600116156101000203166002900490600052602060002090601f016020900481019282601f10611b1657805160ff1916838001178555611b44565b82800160010185558215611b44579182015b82811115611b43578251825591602001919060010190611b28565b5b509050611b519190611bb3565b5090565b611bb091905b80821115611bac57600080820160006101000a81549073ffffffffffffffffffffffffffffffffffffffff021916905560018201600090556002820160009055600382016000905550600401611b5b565b5090565b90565b611bd591905b80821115611bd1576000816000905550600101611bb9565b5090565b905600a165627a7a72305820e34b7d731c6eaf188c8b3f342c547f61bdd668d8a93252c771330ac3028fa7640029a165627a7a72305820e5b25900029153a3e552fe0422e2687370ad8ff11bbcd85ef76f638161b1e52e0029",
  "source": "pragma solidity ^0.4.18;\n\nimport \"./pki/Key.sol\";\nimport \"./token/MintableToken.sol\";\nimport \"./math/SafeMath.sol\";\n\ncontract SmartKey is MintableToken \n{\n\n    using SafeMath for uint256;    \n    string public name;                                       //name\n    uint8  public decimals;                                   //There could 1000 base units with 3 decimals. \n    string public symbol;                     \n    string public version = 'IoTBlock_SmartKey_0.01';       // version\n    address vault;\n\n    event KeyEvent(address user, address key, address transacting_contract, uint256 eth_amount, bytes32 transaction_name, bytes32 health_status);\n    \n    mapping (address => Key) public  smartKeys;\n\n    struct event_transaction {\n        \n        address account;\n        uint256 date;\n        uint256 amount;\n        \n        uint256 transaction_type;\n        \n        bytes32 transaction_name;\n        bytes32 health_status;\n        \n    }\n    \n    mapping (address => event_transaction[]) public events;\n    \n    function SmartKey(uint256 _tokens, uint256 _rate, address[] adminAddress) \n    Administered(adminAddress)\n    MintableToken(_rate)\n    public\n    {\n    \n        admins  = adminAddress;    \n        vault  = admins[0];\n        mint(vault, _tokens);        \n        \n        name = 'IOTBLOCK';                               // Set the name for display purposes\n        decimals = 8;\n        symbol = 'IOTBLOCK';                       \n        \n    }\n    \n    function setVault(address _vault) \n    onlyAdmin \n    public\n    returns (bool) {\n        vault=_vault;\n        return true;                \n    }\n    \n  \n\n    function getBalance(address addr) \n\tpublic\n    view\n    returns(uint) \n    {\n\t\treturn (balances[addr]);\n    }\n\t\t    \n    // @return true if the transaction can buy tokens\n    function validPurchase() internal constant returns (bool) \n    {\n        return msg.value > 1000000000;\n    }\n\n    // fallback function can be used to buy tokens\n    function () \n    public\n    payable \n    {\n        loadSmartKey(getSmartKey(msg.sender), address(this), 'Deposit');\n    }\n    \n    function getSmartKey(address beneficiary) \t\n    public\n    view\n    returns (Key) \n    { \n      \n        return smartKeys[beneficiary];\n        \n    }\n\n    function loadSmartKey(Key key, address transacting_contract,  bytes32 transaction_name) \n    public\n    payable \n    returns(bool) \n    {\n            //require(address(key) != address(0));\n            require(validPurchase());\n            \n            if (address(key) == address(0) && smartKeys[transacting_contract] == address(0)) \n            {\n                key = new Key(this, transacting_contract); \n                smartKeys[transacting_contract]=key;\n            }\n            \n            uint256 token=convertToToken(msg.value);            \n            bytes32 healthStatus=key.getHealthStatus();\n            \n            KeyEvent(msg.sender, address(key), transacting_contract, msg.value, transaction_name, healthStatus);\n            events[address(key)].push(event_transaction(transacting_contract,now,msg.value, 0, transaction_name, healthStatus));            \n            tokenMinted = tokenMinted.add(token);\n            balances[address(transacting_contract)] = balances[address(transacting_contract)].add(token);\n            Transfer(address(0), address(transacting_contract), token);\n   \n            key.activateKey.value(msg.value)(address(transacting_contract));\n            \n            return true;\n    }\n    \n    function putSmartKey(Key key, address beneficiary) \n    onlyAdmin\n    public\n    {\n        require(beneficiary != 0x0);\n        \n        if (smartKeys[beneficiary] == address(0)) \n        {\n            smartKeys[beneficiary] = key;\n        }\n        \n    }\n    \n    function addOwner(address _user) \n    onlyAdmin\n    public\n    {\n        require(_user != 0x0);\n        require(smartKeys[_user] != address(0));\n        smartKeys[_user].addOwner(msg.sender);\n    }\n    \n \n    function transferEth(uint amount, address sender, address beneficiary) \n    public\n    {\n        require(sender != 0x0);\n        require(beneficiary != 0x0);\n        require(smartKeys[sender] != address(0));\n        if (isAdmin[msg.sender] || smartKeys[sender].isOwner(msg.sender)) {\n            smartKeys[sender].transferEth(amount, beneficiary);\n        }\n    }\n\n        \n    function convertToToken(uint256 amount) \n    public\n    view\n    returns (uint256) \n    {\n\t\treturn amount.div(rate);\n    }\n\n}\n",
  "sourcePath": "/mnt/d/iotblock/server/browser/contracts/SmartKey.sol",
  "compiler": {
    "name": "solc",
    "version": "0.4.19+commit.c4cbbb05.Emscripten.clang"
  },
  "schemaVersion": "2.0.0",
  "updatedAt": "2018-07-03T16:12:18.181Z"
}