{
  "contractName": "Administered",
  "abi": [
    {
      "constant": true,
      "inputs": [
        {
          "name": "",
          "type": "uint256"
        }
      ],
      "name": "admins",
      "outputs": [
        {
          "name": "",
          "type": "address"
        }
      ],
      "payable": false,
      "stateMutability": "view",
      "type": "function"
    },
    {
      "constant": true,
      "inputs": [
        {
          "name": "",
          "type": "address"
        }
      ],
      "name": "isAdmin",
      "outputs": [
        {
          "name": "",
          "type": "bool"
        }
      ],
      "payable": false,
      "stateMutability": "view",
      "type": "function"
    },
    {
      "constant": true,
      "inputs": [
        {
          "name": "",
          "type": "address"
        }
      ],
      "name": "isBanned",
      "outputs": [
        {
          "name": "",
          "type": "bool"
        }
      ],
      "payable": false,
      "stateMutability": "view",
      "type": "function"
    },
    {
      "inputs": [
        {
          "name": "adminAddress",
          "type": "address[]"
        }
      ],
      "payable": false,
      "stateMutability": "nonpayable",
      "type": "constructor"
    },
    {
      "constant": false,
      "inputs": [
        {
          "name": "admin",
          "type": "address"
        }
      ],
      "name": "addAdmin",
      "outputs": [],
      "payable": false,
      "stateMutability": "nonpayable",
      "type": "function"
    },
    {
      "constant": false,
      "inputs": [
        {
          "name": "banned",
          "type": "address"
        }
      ],
      "name": "addBanned",
      "outputs": [],
      "payable": false,
      "stateMutability": "nonpayable",
      "type": "function"
    },
    {
      "constant": true,
      "inputs": [],
      "name": "getAdmins",
      "outputs": [
        {
          "name": "",
          "type": "address[]"
        }
      ],
      "payable": false,
      "stateMutability": "view",
      "type": "function"
    }
  ],
  "bytecode": "0x6060604052341561000f57600080fd5b6040516109883803806109888339810160405280805182019190505060008090505b81518110156100b5576001600080848481518110151561004d57fe5b9060200190602002015173ffffffffffffffffffffffffffffffffffffffff1673ffffffffffffffffffffffffffffffffffffffff16815260200190815260200160002060006101000a81548160ff0219169083151502179055508080600101915050610031565b81600290805190602001906100cb9291906100d3565b5050506101a0565b82805482825590600052602060002090810192821561014c579160200282015b8281111561014b5782518260006101000a81548173ffffffffffffffffffffffffffffffffffffffff021916908373ffffffffffffffffffffffffffffffffffffffff160217905550916020019190600101906100f3565b5b509050610159919061015d565b5090565b61019d91905b8082111561019957600081816101000a81549073ffffffffffffffffffffffffffffffffffffffff021916905550600101610163565b5090565b90565b6107d9806101af6000396000f300606060405260043610610078576000357c0100000000000000000000000000000000000000000000000000000000900463ffffffff16806314bfd6d01461007d57806324d7806c146100e057806331ae450b14610131578063704802751461019b57806397f735d5146101d4578063e1b2e8b314610225575b600080fd5b341561008857600080fd5b61009e600480803590602001909190505061025e565b604051808273ffffffffffffffffffffffffffffffffffffffff1673ffffffffffffffffffffffffffffffffffffffff16815260200191505060405180910390f35b34156100eb57600080fd5b610117600480803573ffffffffffffffffffffffffffffffffffffffff1690602001909190505061029d565b604051808215151515815260200191505060405180910390f35b341561013c57600080fd5b6101446102bd565b6040518080602001828103825283818151815260200191508051906020019060200280838360005b8381101561018757808201518184015260208101905061016c565b505050509050019250505060405180910390f35b34156101a657600080fd5b6101d2600480803573ffffffffffffffffffffffffffffffffffffffff16906020019091905050610351565b005b34156101df57600080fd5b61020b600480803573ffffffffffffffffffffffffffffffffffffffff1690602001909190505061056e565b604051808215151515815260200191505060405180910390f35b341561023057600080fd5b61025c600480803573ffffffffffffffffffffffffffffffffffffffff1690602001909190505061058e565b005b60028181548110151561026d57fe5b90600052602060002090016000915054906101000a900473ffffffffffffffffffffffffffffffffffffffff1681565b60006020528060005260406000206000915054906101000a900460ff1681565b6102c5610748565b600280548060200260200160405190810160405280929190818152602001828054801561034757602002820191906000526020600020905b8160009054906101000a900473ffffffffffffffffffffffffffffffffffffffff1673ffffffffffffffffffffffffffffffffffffffff16815260200190600101908083116102fd575b5050505050905090565b6000803373ffffffffffffffffffffffffffffffffffffffff1673ffffffffffffffffffffffffffffffffffffffff16815260200190815260200160002060009054906101000a900460ff1615156103a857600080fd5b600160003373ffffffffffffffffffffffffffffffffffffffff1673ffffffffffffffffffffffffffffffffffffffff16815260200190815260200160002060009054906101000a900460ff1615151561040157600080fd5b6000803373ffffffffffffffffffffffffffffffffffffffff1673ffffffffffffffffffffffffffffffffffffffff16815260200190815260200160002060009054906101000a900460ff16151561045857600080fd5b600160003373ffffffffffffffffffffffffffffffffffffffff1673ffffffffffffffffffffffffffffffffffffffff16815260200190815260200160002060009054906101000a900460ff161515156104b157600080fd5b60016000808373ffffffffffffffffffffffffffffffffffffffff1673ffffffffffffffffffffffffffffffffffffffff16815260200190815260200160002060006101000a81548160ff0219169083151502179055506002805480600101828161051c919061075c565b9160005260206000209001600083909190916101000a81548173ffffffffffffffffffffffffffffffffffffffff021916908373ffffffffffffffffffffffffffffffffffffffff1602179055505050565b60016020528060005260406000206000915054906101000a900460ff1681565b6000803373ffffffffffffffffffffffffffffffffffffffff1673ffffffffffffffffffffffffffffffffffffffff16815260200190815260200160002060009054906101000a900460ff1615156105e557600080fd5b600160003373ffffffffffffffffffffffffffffffffffffffff1673ffffffffffffffffffffffffffffffffffffffff16815260200190815260200160002060009054906101000a900460ff1615151561063e57600080fd5b6000803373ffffffffffffffffffffffffffffffffffffffff1673ffffffffffffffffffffffffffffffffffffffff16815260200190815260200160002060009054906101000a900460ff16151561069557600080fd5b600160003373ffffffffffffffffffffffffffffffffffffffff1673ffffffffffffffffffffffffffffffffffffffff16815260200190815260200160002060009054906101000a900460ff161515156106ee57600080fd5b60018060008373ffffffffffffffffffffffffffffffffffffffff1673ffffffffffffffffffffffffffffffffffffffff16815260200190815260200160002060006101000a81548160ff02191690831515021790555050565b602060405190810160405280600081525090565b815481835581811511610783578183600052602060002091820191016107829190610788565b5b505050565b6107aa91905b808211156107a657600081600090555060010161078e565b5090565b905600a165627a7a72305820fa98edb2debabbed89661a3b8250e7d219142f27ac91431f8cbdbcf8b7afb97d0029",
  "source": "pragma solidity ^0.4.18; //We have to specify what version of the compiler this code will use\n\n\n\n/**\n * @title Admin\n * @dev The Admin contract has Admin addresses, and provides basic authorization control\n * functions, this simplifies the implementation of \"user permissions\".\n */\ncontract Administered {\n  mapping (address => bool) public isAdmin;\n  mapping (address => bool) public isBanned;\n  address[] public admins;\n\n  /**\n   * @dev The Ownable constructor sets the original `owner` of the contract to the sender\n   * account.\n   */\n  function Administered(address[] adminAddress) \n  public\n  {\n    for (uint i=0; i < adminAddress.length; i++) {\n        isAdmin[adminAddress[i]]=true;\n    } \n    admins=adminAddress;\n  }\n\n\n  /**\n   * @dev Throws if called by any account other than the owner.\n   */\n  modifier onlyAdmin() \n  {\n    require(isAdmin[msg.sender]);\n    require(!isBanned[msg.sender]);\n    _;\n  }\n  \n  function addAdmin(address admin) \n  public\n  onlyAdmin \n  {\n        require(isAdmin[msg.sender]);\n        require(!isBanned[msg.sender]);\n        isAdmin[admin]=true;\n        admins.push(admin);\n  }\n  \n  function addBanned(address banned)\n  public\n  onlyAdmin \n  {\n        require(isAdmin[msg.sender]);\n        require(!isBanned[msg.sender]);\n        isBanned[banned]=true;\n  }\n\n  function getAdmins() \n  public\n  constant \n  returns (address[]) \n  {\n        //require(isAdmin[msg.sender]);\n        //require(!isBanned[msg.sender]);\n        return admins;\n  }\n\n\n}\n",
  "sourcePath": "/home/richard/iotblock/contracts/admin/Administered.sol",
  "compiler": {
    "name": "solc",
    "version": "0.4.19+commit.c4cbbb05.Emscripten.clang"
  },
  "schemaVersion": "2.0.0",
  "updatedAt": "2018-03-14T20:56:51.082Z"
}