{
  "contractName": "CatalogueItem",
  "abi": [
    {
      "constant": true,
      "inputs": [],
      "name": "smartKey",
      "outputs": [
        {
          "name": "",
          "type": "address"
        }
      ],
      "payable": false,
      "stateMutability": "view",
      "type": "function"
    },
    {
      "constant": true,
      "inputs": [
        {
          "name": "",
          "type": "uint256"
        }
      ],
      "name": "admins",
      "outputs": [
        {
          "name": "",
          "type": "address"
        }
      ],
      "payable": false,
      "stateMutability": "view",
      "type": "function"
    },
    {
      "constant": true,
      "inputs": [
        {
          "name": "",
          "type": "address"
        }
      ],
      "name": "isAdmin",
      "outputs": [
        {
          "name": "",
          "type": "bool"
        }
      ],
      "payable": false,
      "stateMutability": "view",
      "type": "function"
    },
    {
      "constant": true,
      "inputs": [],
      "name": "getAdmins",
      "outputs": [
        {
          "name": "",
          "type": "address[]"
        }
      ],
      "payable": false,
      "stateMutability": "view",
      "type": "function"
    },
    {
      "constant": true,
      "inputs": [],
      "name": "href",
      "outputs": [
        {
          "name": "",
          "type": "string"
        }
      ],
      "payable": false,
      "stateMutability": "view",
      "type": "function"
    },
    {
      "constant": true,
      "inputs": [
        {
          "name": "",
          "type": "bytes32"
        }
      ],
      "name": "itemMetaData",
      "outputs": [
        {
          "name": "",
          "type": "address"
        }
      ],
      "payable": false,
      "stateMutability": "view",
      "type": "function"
    },
    {
      "constant": true,
      "inputs": [],
      "name": "getSmartKey",
      "outputs": [
        {
          "name": "",
          "type": "address"
        }
      ],
      "payable": false,
      "stateMutability": "view",
      "type": "function"
    },
    {
      "constant": false,
      "inputs": [
        {
          "name": "admin",
          "type": "address"
        }
      ],
      "name": "addAdmin",
      "outputs": [],
      "payable": false,
      "stateMutability": "nonpayable",
      "type": "function"
    },
    {
      "constant": true,
      "inputs": [
        {
          "name": "",
          "type": "address"
        }
      ],
      "name": "isBanned",
      "outputs": [
        {
          "name": "",
          "type": "bool"
        }
      ],
      "payable": false,
      "stateMutability": "view",
      "type": "function"
    },
    {
      "constant": true,
      "inputs": [
        {
          "name": "",
          "type": "uint256"
        }
      ],
      "name": "meta",
      "outputs": [
        {
          "name": "",
          "type": "address"
        }
      ],
      "payable": false,
      "stateMutability": "view",
      "type": "function"
    },
    {
      "constant": false,
      "inputs": [
        {
          "name": "banned",
          "type": "address"
        }
      ],
      "name": "addBanned",
      "outputs": [],
      "payable": false,
      "stateMutability": "nonpayable",
      "type": "function"
    },
    {
      "constant": false,
      "inputs": [
        {
          "name": "_rel",
          "type": "string"
        },
        {
          "name": "_val",
          "type": "string"
        }
      ],
      "name": "upsertMetaData",
      "outputs": [
        {
          "name": "",
          "type": "bool"
        }
      ],
      "payable": true,
      "stateMutability": "payable",
      "type": "function"
    },
    {
      "constant": true,
      "inputs": [],
      "name": "selectMetaData",
      "outputs": [
        {
          "name": "",
          "type": "address[]"
        }
      ],
      "payable": false,
      "stateMutability": "view",
      "type": "function"
    },
    {
      "inputs": [
        {
          "name": "_smartKey",
          "type": "address"
        },
        {
          "name": "adminAddress",
          "type": "address[]"
        }
      ],
      "payable": false,
      "stateMutability": "nonpayable",
      "type": "constructor"
    },
    {
      "constant": true,
      "inputs": [],
      "name": "selectHref",
      "outputs": [
        {
          "name": "",
          "type": "bytes"
        }
      ],
      "payable": false,
      "stateMutability": "view",
      "type": "function"
    },
    {
      "constant": false,
      "inputs": [
        {
          "name": "_href",
          "type": "string"
        }
      ],
      "name": "setHref",
      "outputs": [
        {
          "name": "",
          "type": "bool"
        }
      ],
      "payable": true,
      "stateMutability": "payable",
      "type": "function"
    }
  ],
  "bytecode": "0x606060405234156200001057600080fd5b60405162002c3538038062002c358339810160405280805190602001909190805182019190505081818060008090505b8151811015620000c757600160008084848151811015156200005e57fe5b9060200190602002015173ffffffffffffffffffffffffffffffffffffffff1673ffffffffffffffffffffffffffffffffffffffff16815260200190815260200160002060006101000a81548160ff021916908315150217905550808060010191505062000040565b8160029080519060200190620000df9291906200012d565b50505081600560006101000a81548173ffffffffffffffffffffffffffffffffffffffff021916908373ffffffffffffffffffffffffffffffffffffffff1602179055505050505062000202565b828054828255906000526020600020908101928215620001a9579160200282015b82811115620001a85782518260006101000a81548173ffffffffffffffffffffffffffffffffffffffff021916908373ffffffffffffffffffffffffffffffffffffffff160217905550916020019190600101906200014e565b5b509050620001b89190620001bc565b5090565b620001ff91905b80821115620001fb57600081816101000a81549073ffffffffffffffffffffffffffffffffffffffff021916905550600101620001c3565b5090565b90565b612a2380620002126000396000f300606060405260043610620000eb576000357c0100000000000000000000000000000000000000000000000000000000900463ffffffff168063113adf4914620000f057806314bfd6d0146200014857806324d7806c14620001ae57806331ae450b146200020257806336eeaa6a14620002715780635571edeb14620003055780635c866c78146200036f5780637048027514620003c757806397f735d51462000403578063b9d191661462000457578063cd5cfdaf14620004c3578063e1b2e8b31462000529578063ec6f214e1462000565578063ee7d44ea1462000614578063f95fd40b14620006a8575b600080fd5b3415620000fc57600080fd5b6200010662000717565b604051808273ffffffffffffffffffffffffffffffffffffffff1673ffffffffffffffffffffffffffffffffffffffff16815260200191505060405180910390f35b34156200015457600080fd5b6200016c60048080359060200190919050506200073d565b604051808273ffffffffffffffffffffffffffffffffffffffff1673ffffffffffffffffffffffffffffffffffffffff16815260200191505060405180910390f35b3415620001ba57600080fd5b620001e8600480803573ffffffffffffffffffffffffffffffffffffffff169060200190919050506200077d565b604051808215151515815260200191505060405180910390f35b34156200020e57600080fd5b620002186200079d565b6040518080602001828103825283818151815260200191508051906020019060200280838360005b838110156200025d57808201518184015260208101905062000240565b505050509050019250505060405180910390f35b34156200027d57600080fd5b6200028762000835565b6040518080602001828103825283818151815260200191508051906020019080838360005b83811015620002c9578082015181840152602081019050620002ac565b50505050905090810190601f168015620002f75780820380516001836020036101000a031916815260200191505b509250505060405180910390f35b34156200031157600080fd5b6200032d600480803560001916906020019091905050620008d7565b604051808273ffffffffffffffffffffffffffffffffffffffff1673ffffffffffffffffffffffffffffffffffffffff16815260200191505060405180910390f35b34156200037b57600080fd5b620003856200090a565b604051808273ffffffffffffffffffffffffffffffffffffffff1673ffffffffffffffffffffffffffffffffffffffff16815260200191505060405180910390f35b3415620003d357600080fd5b62000401600480803573ffffffffffffffffffffffffffffffffffffffff1690602001909190505062000934565b005b34156200040f57600080fd5b6200043d600480803573ffffffffffffffffffffffffffffffffffffffff1690602001909190505062000b57565b604051808215151515815260200191505060405180910390f35b620004a9600480803590602001908201803590602001908080601f0160208091040260200160405190810160405280939291908181526020018383808284378201915050505050509190505062000b77565b604051808215151515815260200191505060405180910390f35b3415620004cf57600080fd5b620004e7600480803590602001909190505062000c7f565b604051808273ffffffffffffffffffffffffffffffffffffffff1673ffffffffffffffffffffffffffffffffffffffff16815260200191505060405180910390f35b34156200053557600080fd5b62000563600480803573ffffffffffffffffffffffffffffffffffffffff1690602001909190505062000cbf565b005b620005fa600480803590602001908201803590602001908080601f0160208091040260200160405190810160405280939291908181526020018383808284378201915050505050509190803590602001908201803590602001908080601f0160208091040260200160405190810160405280939291908181526020018383808284378201915050505050509190505062000e7d565b604051808215151515815260200191505060405180910390f35b34156200062057600080fd5b6200062a620015ff565b6040518080602001828103825283818151815260200191508051906020019080838360005b838110156200066c5780820151818401526020810190506200064f565b50505050905090810190601f1680156200069a5780820380516001836020036101000a031916815260200191505b509250505060405180910390f35b3415620006b457600080fd5b620006be620016ad565b6040518080602001828103825283818151815260200191508051906020019060200280838360005b8381101562000703578082015181840152602081019050620006e6565b505050509050019250505060405180910390f35b600560009054906101000a900473ffffffffffffffffffffffffffffffffffffffff1681565b6002818154811015156200074d57fe5b90600052602060002090016000915054906101000a900473ffffffffffffffffffffffffffffffffffffffff1681565b60006020528060005260406000206000915054906101000a900460ff1681565b620007a762001745565b60028054806020026020016040519081016040528092919081815260200182805480156200082b57602002820191906000526020600020905b8160009054906101000a900473ffffffffffffffffffffffffffffffffffffffff1673ffffffffffffffffffffffffffffffffffffffff1681526020019060010190808311620007e0575b5050505050905090565b60068054600181600116156101000203166002900480601f016020809104026020016040519081016040528092919081815260200182805460018160011615610100020316600290048015620008cf5780601f10620008a357610100808354040283529160200191620008cf565b820191906000526020600020905b815481529060010190602001808311620008b157829003601f168201915b505050505081565b60046020528060005260406000206000915054906101000a900473ffffffffffffffffffffffffffffffffffffffff1681565b6000600560009054906101000a900473ffffffffffffffffffffffffffffffffffffffff16905090565b6000803373ffffffffffffffffffffffffffffffffffffffff1673ffffffffffffffffffffffffffffffffffffffff16815260200190815260200160002060009054906101000a900460ff1615156200098c57600080fd5b600160003373ffffffffffffffffffffffffffffffffffffffff1673ffffffffffffffffffffffffffffffffffffffff16815260200190815260200160002060009054906101000a900460ff16151515620009e657600080fd5b6000803373ffffffffffffffffffffffffffffffffffffffff1673ffffffffffffffffffffffffffffffffffffffff16815260200190815260200160002060009054906101000a900460ff16151562000a3e57600080fd5b600160003373ffffffffffffffffffffffffffffffffffffffff1673ffffffffffffffffffffffffffffffffffffffff16815260200190815260200160002060009054906101000a900460ff1615151562000a9857600080fd5b60016000808373ffffffffffffffffffffffffffffffffffffffff1673ffffffffffffffffffffffffffffffffffffffff16815260200190815260200160002060006101000a81548160ff0219169083151502179055506002805480600101828162000b05919062001759565b9160005260206000209001600083909190916101000a81548173ffffffffffffffffffffffffffffffffffffffff021916908373ffffffffffffffffffffffffffffffffffffffff1602179055505050565b60016020528060005260406000206000915054906101000a900460ff1681565b6000600560009054906101000a900473ffffffffffffffffffffffffffffffffffffffff1673ffffffffffffffffffffffffffffffffffffffff1663beffcf0a34306000604051602001526040518363ffffffff167c0100000000000000000000000000000000000000000000000000000000028152600401808273ffffffffffffffffffffffffffffffffffffffff1673ffffffffffffffffffffffffffffffffffffffff1681526020019150506020604051808303818588803b151562000c3f57600080fd5b6125ee5a03f1151562000c5157600080fd5b505050506040518051905050816006908051906020019062000c7592919062001788565b5060019050919050565b60038181548110151562000c8f57fe5b90600052602060002090016000915054906101000a900473ffffffffffffffffffffffffffffffffffffffff1681565b6000803373ffffffffffffffffffffffffffffffffffffffff1673ffffffffffffffffffffffffffffffffffffffff16815260200190815260200160002060009054906101000a900460ff16151562000d1757600080fd5b600160003373ffffffffffffffffffffffffffffffffffffffff1673ffffffffffffffffffffffffffffffffffffffff16815260200190815260200160002060009054906101000a900460ff1615151562000d7157600080fd5b6000803373ffffffffffffffffffffffffffffffffffffffff1673ffffffffffffffffffffffffffffffffffffffff16815260200190815260200160002060009054906101000a900460ff16151562000dc957600080fd5b600160003373ffffffffffffffffffffffffffffffffffffffff1673ffffffffffffffffffffffffffffffffffffffff16815260200190815260200160002060009054906101000a900460ff1615151562000e2357600080fd5b60018060008373ffffffffffffffffffffffffffffffffffffffff1673ffffffffffffffffffffffffffffffffffffffff16815260200190815260200160002060006101000a81548160ff02191690831515021790555050565b6000806000806000600560009054906101000a900473ffffffffffffffffffffffffffffffffffffffff1673ffffffffffffffffffffffffffffffffffffffff1663b37c7551336000604051602001526040518263ffffffff167c0100000000000000000000000000000000000000000000000000000000028152600401808273ffffffffffffffffffffffffffffffffffffffff1673ffffffffffffffffffffffffffffffffffffffff168152602001915050602060405180830381600087803b151562000f4b57600080fd5b6102c65a03f1151562000f5d57600080fd5b5050506040518051905093508373ffffffffffffffffffffffffffffffffffffffff16635b6beeb9886000604051602001526040518263ffffffff167c01000000000000000000000000000000000000000000000000000000000281526004018080602001828103825283818151815260200191508051906020019080838360005b8381101562000ffc57808201518184015260208101905062000fdf565b50505050905090810190601f1680156200102a5780820380516001836020036101000a031916815260200191505b5092505050602060405180830381600087803b15156200104957600080fd5b6102c65a03f115156200105b57600080fd5b505050604051805190509250600073ffffffffffffffffffffffffffffffffffffffff1660046000856000191660001916815260200190815260200160002060009054906101000a900473ffffffffffffffffffffffffffffffffffffffff1673ffffffffffffffffffffffffffffffffffffffff161415620013d45760029050808054806001018281620010f1919062001759565b9160005260206000209001600030909190916101000a81548173ffffffffffffffffffffffffffffffffffffffff021916908373ffffffffffffffffffffffffffffffffffffffff1602179055505080805480600101828162001155919062001759565b9160005260206000209001600033909190916101000a81548173ffffffffffffffffffffffffffffffffffffffff021916908373ffffffffffffffffffffffffffffffffffffffff16021790555050600560009054906101000a900473ffffffffffffffffffffffffffffffffffffffff16600288620011d46200180f565b808473ffffffffffffffffffffffffffffffffffffffff1673ffffffffffffffffffffffffffffffffffffffff168152602001806020018060200183810383528581815481526020019150805480156200128457602002820191906000526020600020905b8160009054906101000a900473ffffffffffffffffffffffffffffffffffffffff1673ffffffffffffffffffffffffffffffffffffffff168152602001906001019080831162001239575b5050838103825284818151815260200191508051906020019080838360005b83811015620012c0578082015181840152602081019050620012a3565b50505050905090810190601f168015620012ee5780820380516001836020036101000a031916815260200191505b5095505050505050604051809103906000f08015156200130d57600080fd5b91508160046000856000191660001916815260200190815260200160002060006101000a81548173ffffffffffffffffffffffffffffffffffffffff021916908373ffffffffffffffffffffffffffffffffffffffff160217905550600380548060010182816200137f919062001820565b9160005260206000209001600084909190916101000a81548173ffffffffffffffffffffffffffffffffffffffff021916908373ffffffffffffffffffffffffffffffffffffffff1602179055505062001413565b60046000846000191660001916815260200190815260200160002060009054906101000a900473ffffffffffffffffffffffffffffffffffffffff1691505b600560009054906101000a900473ffffffffffffffffffffffffffffffffffffffff1673ffffffffffffffffffffffffffffffffffffffff1663beffcf0a34306000604051602001526040518363ffffffff167c0100000000000000000000000000000000000000000000000000000000028152600401808273ffffffffffffffffffffffffffffffffffffffff1673ffffffffffffffffffffffffffffffffffffffff1681526020019150506020604051808303818588803b1515620014d957600080fd5b6125ee5a03f11515620014eb57600080fd5b5050505060405180519050508173ffffffffffffffffffffffffffffffffffffffff16631aae2531876000604051602001526040518263ffffffff167c01000000000000000000000000000000000000000000000000000000000281526004018080602001828103825283818151815260200191508051906020019080838360005b838110156200158a5780820151818401526020810190506200156d565b50505050905090810190601f168015620015b85780820380516001836020036101000a031916815260200191505b5092505050602060405180830381600087803b1515620015d757600080fd5b6102c65a03f11515620015e957600080fd5b5050506040518051905094505050505092915050565b620016096200184f565b60068054600181600116156101000203166002900480601f016020809104026020016040519081016040528092919081815260200182805460018160011615610100020316600290048015620016a35780601f106200167757610100808354040283529160200191620016a3565b820191906000526020600020905b8154815290600101906020018083116200168557829003601f168201915b5050505050905090565b620016b762001863565b60038054806020026020016040519081016040528092919081815260200182805480156200173b57602002820191906000526020600020905b8160009054906101000a900473ffffffffffffffffffffffffffffffffffffffff1673ffffffffffffffffffffffffffffffffffffffff1681526020019060010190808311620016f0575b5050505050905090565b602060405190810160405280600081525090565b815481835581811511620017835781836000526020600020918201910162001782919062001877565b5b505050565b828054600181600116156101000203166002900490600052602060002090601f016020900481019282601f10620017cb57805160ff1916838001178555620017fc565b82800160010185558215620017fc579182015b82811115620017fb578251825591602001919060010190620017de565b5b5090506200180b919062001877565b5090565b60405161115880620018a083390190565b8154818355818115116200184a5781836000526020600020918201910162001849919062001877565b5b505050565b602060405190810160405280600081525090565b602060405190810160405280600081525090565b6200189c91905b80821115620018985760008160009055506001016200187e565b5090565b905600606060405234156200001057600080fd5b6040516200115838038062001158833981016040528080519060200190919080518201919060200180518201919050508160008090505b8151811015620000ce57600160008084848151811015156200006557fe5b9060200190602002015173ffffffffffffffffffffffffffffffffffffffff1673ffffffffffffffffffffffffffffffffffffffff16815260200190815260200160002060006101000a81548160ff021916908315150217905550808060010191505062000047565b8160029080519060200190620000e692919062000238565b50505082600360006101000a81548173ffffffffffffffffffffffffffffffffffffffff021916908373ffffffffffffffffffffffffffffffffffffffff160217905550806004908051906020019062000142929190620002c7565b503073ffffffffffffffffffffffffffffffffffffffff163373ffffffffffffffffffffffffffffffffffffffff167fcd0f4ab0c2ed648846227e5779e579c9d88bacea0fc7b06017a27c1ed07b4a2660046040518080602001828103825283818154600181600116156101000203166002900481526020019150805460018160011615610100020316600290048015620002215780601f10620001f55761010080835404028352916020019162000221565b820191906000526020600020905b8154815290600101906020018083116200020357829003601f168201915b50509250505060405180910390a3505050620003bc565b828054828255906000526020600020908101928215620002b4579160200282015b82811115620002b35782518260006101000a81548173ffffffffffffffffffffffffffffffffffffffff021916908373ffffffffffffffffffffffffffffffffffffffff1602179055509160200191906001019062000259565b5b509050620002c391906200034e565b5090565b828054600181600116156101000203166002900490600052602060002090601f016020900481019282601f106200030a57805160ff19168380011785556200033b565b828001600101855582156200033b579182015b828111156200033a5782518255916020019190600101906200031d565b5b5090506200034a919062000394565b5090565b6200039191905b808211156200038d57600081816101000a81549073ffffffffffffffffffffffffffffffffffffffff02191690555060010162000355565b5090565b90565b620003b991905b80821115620003b55760008160009055506001016200039b565b5090565b90565b610d8c80620003cc6000396000f300606060405260043610610099576000357c0100000000000000000000000000000000000000000000000000000000900463ffffffff16806314bfd6d01461009e5780631aae25311461010157806324d7806c1461017657806331ae450b146101c75780633c6bb4361461023157806370480275146102bf57806397f735d5146102f8578063ce26e78a14610349578063e1b2e8b3146103d7575b600080fd5b34156100a957600080fd5b6100bf6004808035906020019091905050610410565b604051808273ffffffffffffffffffffffffffffffffffffffff1673ffffffffffffffffffffffffffffffffffffffff16815260200191505060405180910390f35b341561010c57600080fd5b61015c600480803590602001908201803590602001908080601f0160208091040260200160405190810160405280939291908181526020018383808284378201915050505050509190505061044f565b604051808215151515815260200191505060405180910390f35b341561018157600080fd5b6101ad600480803573ffffffffffffffffffffffffffffffffffffffff16906020019091905050610694565b604051808215151515815260200191505060405180910390f35b34156101d257600080fd5b6101da6106b4565b6040518080602001828103825283818151815260200191508051906020019060200280838360005b8381101561021d578082015181840152602081019050610202565b505050509050019250505060405180910390f35b341561023c57600080fd5b610244610748565b6040518080602001828103825283818151815260200191508051906020019080838360005b83811015610284578082015181840152602081019050610269565b50505050905090810190601f1680156102b15780820380516001836020036101000a031916815260200191505b509250505060405180910390f35b34156102ca57600080fd5b6102f6600480803573ffffffffffffffffffffffffffffffffffffffff169060200190919050506107e6565b005b341561030357600080fd5b61032f600480803573ffffffffffffffffffffffffffffffffffffffff16906020019091905050610a03565b604051808215151515815260200191505060405180910390f35b341561035457600080fd5b61035c610a23565b6040518080602001828103825283818151815260200191508051906020019080838360005b8381101561039c578082015181840152602081019050610381565b50505050905090810190601f1680156103c95780820380516001836020036101000a031916815260200191505b509250505060405180910390f35b34156103e257600080fd5b61040e600480803573ffffffffffffffffffffffffffffffffffffffff16906020019091905050610ac1565b005b60028181548110151561041f57fe5b90600052602060002090016000915054906101000a900473ffffffffffffffffffffffffffffffffffffffff1681565b60008060003373ffffffffffffffffffffffffffffffffffffffff1673ffffffffffffffffffffffffffffffffffffffff16815260200190815260200160002060009054906101000a900460ff1615156104a857600080fd5b600160003373ffffffffffffffffffffffffffffffffffffffff1673ffffffffffffffffffffffffffffffffffffffff16815260200190815260200160002060009054906101000a900460ff1615151561050157600080fd5b8160059080519060200190610517929190610c7b565b503073ffffffffffffffffffffffffffffffffffffffff163373ffffffffffffffffffffffffffffffffffffffff167fda5a6664d30b58a6875c82c4ebb2e12cfa2618c54a08a2807e05b52726903064600460056040518080602001806020018381038352858181546001816001161561010002031660029004815260200191508054600181600116156101000203166002900480156105f85780601f106105cd576101008083540402835291602001916105f8565b820191906000526020600020905b8154815290600101906020018083116105db57829003601f168201915b505083810382528481815460018160011615610100020316600290048152602001915080546001816001161561010002031660029004801561067b5780601f106106505761010080835404028352916020019161067b565b820191906000526020600020905b81548152906001019060200180831161065e57829003601f168201915b505094505050505060405180910390a360019050919050565b60006020528060005260406000206000915054906101000a900460ff1681565b6106bc610cfb565b600280548060200260200160405190810160405280929190818152602001828054801561073e57602002820191906000526020600020905b8160009054906101000a900473ffffffffffffffffffffffffffffffffffffffff1673ffffffffffffffffffffffffffffffffffffffff16815260200190600101908083116106f4575b5050505050905090565b60058054600181600116156101000203166002900480601f0160208091040260200160405190810160405280929190818152602001828054600181600116156101000203166002900480156107de5780601f106107b3576101008083540402835291602001916107de565b820191906000526020600020905b8154815290600101906020018083116107c157829003601f168201915b505050505081565b6000803373ffffffffffffffffffffffffffffffffffffffff1673ffffffffffffffffffffffffffffffffffffffff16815260200190815260200160002060009054906101000a900460ff16151561083d57600080fd5b600160003373ffffffffffffffffffffffffffffffffffffffff1673ffffffffffffffffffffffffffffffffffffffff16815260200190815260200160002060009054906101000a900460ff1615151561089657600080fd5b6000803373ffffffffffffffffffffffffffffffffffffffff1673ffffffffffffffffffffffffffffffffffffffff16815260200190815260200160002060009054906101000a900460ff1615156108ed57600080fd5b600160003373ffffffffffffffffffffffffffffffffffffffff1673ffffffffffffffffffffffffffffffffffffffff16815260200190815260200160002060009054906101000a900460ff1615151561094657600080fd5b60016000808373ffffffffffffffffffffffffffffffffffffffff1673ffffffffffffffffffffffffffffffffffffffff16815260200190815260200160002060006101000a81548160ff021916908315150217905550600280548060010182816109b19190610d0f565b9160005260206000209001600083909190916101000a81548173ffffffffffffffffffffffffffffffffffffffff021916908373ffffffffffffffffffffffffffffffffffffffff1602179055505050565b60016020528060005260406000206000915054906101000a900460ff1681565b60048054600181600116156101000203166002900480601f016020809104026020016040519081016040528092919081815260200182805460018160011615610100020316600290048015610ab95780601f10610a8e57610100808354040283529160200191610ab9565b820191906000526020600020905b815481529060010190602001808311610a9c57829003601f168201915b505050505081565b6000803373ffffffffffffffffffffffffffffffffffffffff1673ffffffffffffffffffffffffffffffffffffffff16815260200190815260200160002060009054906101000a900460ff161515610b1857600080fd5b600160003373ffffffffffffffffffffffffffffffffffffffff1673ffffffffffffffffffffffffffffffffffffffff16815260200190815260200160002060009054906101000a900460ff16151515610b7157600080fd5b6000803373ffffffffffffffffffffffffffffffffffffffff1673ffffffffffffffffffffffffffffffffffffffff16815260200190815260200160002060009054906101000a900460ff161515610bc857600080fd5b600160003373ffffffffffffffffffffffffffffffffffffffff1673ffffffffffffffffffffffffffffffffffffffff16815260200190815260200160002060009054906101000a900460ff16151515610c2157600080fd5b60018060008373ffffffffffffffffffffffffffffffffffffffff1673ffffffffffffffffffffffffffffffffffffffff16815260200190815260200160002060006101000a81548160ff02191690831515021790555050565b828054600181600116156101000203166002900490600052602060002090601f016020900481019282601f10610cbc57805160ff1916838001178555610cea565b82800160010185558215610cea579182015b82811115610ce9578251825591602001919060010190610cce565b5b509050610cf79190610d3b565b5090565b602060405190810160405280600081525090565b815481835581811511610d3657818360005260206000209182019101610d359190610d3b565b5b505050565b610d5d91905b80821115610d59576000816000905550600101610d41565b5090565b905600a165627a7a7230582084a393c423dcf7efc7100ccb849d6b394abc9a61bd7e09a08093b901e0aff1e10029a165627a7a72305820357e47b3618a08d3ff14339bc91e2338b2ee6200251a2db1f7a74bc96ac92af50029",
  "source": "pragma solidity ^0.4.18; //We have to specify what version of the compiler this code will use\n\nimport \"./admin/Administered.sol\";\nimport \"./NodeMetaData.sol\";\n\ncontract CatalogueItem is NodeMetaData {\n  \n  //PAS 212:2016\n  string public href;\n  // MetaData[] public meta;\n  // mapping (bytes32 => MetaData) public itemMetaData; // rel is hashed to bytes32 data   \n  //PAS 212:2016\n\n  //Catalogue public parentCatalogue;\n  //Catalogue[] public childCatalogue;\n  \n  function CatalogueItem(SmartKey _smartKey, address[] adminAddress) \n  public\n  NodeMetaData(_smartKey, adminAddress)\n  {\n  }\n\n\n  function selectHref() \n  constant\n  public\n  returns (bytes) \n  {\n         return bytes(href);\n  }\n\n  function setHref(string _href) \n  public\n  payable\n  returns (bool)\n  {\n      SmartKey(smartKey).addSmartKey.value(msg.value)(address(this));\n      \n      href=_href;\n      return true;      \n  }\n\n\n}",
  "sourcePath": "/home/forge/solidity/iotblock/contracts/CatalogueItem.sol",
  "compiler": {
    "name": "solc",
    "version": "0.4.19+commit.c4cbbb05.Emscripten.clang"
  },
  "schemaVersion": "2.0.0",
  "updatedAt": "2018-04-11T10:58:26.626Z"
}