{
  "contractName": "Crowdsale",
  "abi": [
    {
      "constant": true,
      "inputs": [
        {
          "name": "",
          "type": "uint256"
        }
      ],
      "name": "admins",
      "outputs": [
        {
          "name": "",
          "type": "address"
        }
      ],
      "payable": false,
      "stateMutability": "view",
      "type": "function"
    },
    {
      "constant": true,
      "inputs": [
        {
          "name": "",
          "type": "address"
        }
      ],
      "name": "isAdmin",
      "outputs": [
        {
          "name": "",
          "type": "bool"
        }
      ],
      "payable": false,
      "stateMutability": "view",
      "type": "function"
    },
    {
      "constant": true,
      "inputs": [],
      "name": "rate",
      "outputs": [
        {
          "name": "",
          "type": "uint256"
        }
      ],
      "payable": false,
      "stateMutability": "view",
      "type": "function"
    },
    {
      "constant": true,
      "inputs": [],
      "name": "endTime",
      "outputs": [
        {
          "name": "",
          "type": "uint256"
        }
      ],
      "payable": false,
      "stateMutability": "view",
      "type": "function"
    },
    {
      "constant": true,
      "inputs": [],
      "name": "getAdmins",
      "outputs": [
        {
          "name": "",
          "type": "address[]"
        }
      ],
      "payable": false,
      "stateMutability": "view",
      "type": "function"
    },
    {
      "constant": true,
      "inputs": [],
      "name": "weiRaised",
      "outputs": [
        {
          "name": "",
          "type": "uint256"
        }
      ],
      "payable": false,
      "stateMutability": "view",
      "type": "function"
    },
    {
      "constant": false,
      "inputs": [
        {
          "name": "admin",
          "type": "address"
        }
      ],
      "name": "addAdmin",
      "outputs": [],
      "payable": false,
      "stateMutability": "nonpayable",
      "type": "function"
    },
    {
      "constant": true,
      "inputs": [],
      "name": "startTime",
      "outputs": [
        {
          "name": "",
          "type": "uint256"
        }
      ],
      "payable": false,
      "stateMutability": "view",
      "type": "function"
    },
    {
      "constant": true,
      "inputs": [
        {
          "name": "",
          "type": "address"
        }
      ],
      "name": "isBanned",
      "outputs": [
        {
          "name": "",
          "type": "bool"
        }
      ],
      "payable": false,
      "stateMutability": "view",
      "type": "function"
    },
    {
      "constant": false,
      "inputs": [
        {
          "name": "banned",
          "type": "address"
        }
      ],
      "name": "addBanned",
      "outputs": [],
      "payable": false,
      "stateMutability": "nonpayable",
      "type": "function"
    },
    {
      "constant": true,
      "inputs": [],
      "name": "token",
      "outputs": [
        {
          "name": "",
          "type": "address"
        }
      ],
      "payable": false,
      "stateMutability": "view",
      "type": "function"
    },
    {
      "inputs": [
        {
          "name": "_token",
          "type": "address"
        },
        {
          "name": "_startTime",
          "type": "uint256"
        },
        {
          "name": "_endTime",
          "type": "uint256"
        },
        {
          "name": "_rate",
          "type": "uint256"
        },
        {
          "name": "adminAddress",
          "type": "address[]"
        }
      ],
      "payable": false,
      "stateMutability": "nonpayable",
      "type": "constructor"
    },
    {
      "payable": true,
      "stateMutability": "payable",
      "type": "fallback"
    },
    {
      "anonymous": false,
      "inputs": [
        {
          "indexed": true,
          "name": "purchaser",
          "type": "address"
        },
        {
          "indexed": true,
          "name": "beneficiary",
          "type": "address"
        },
        {
          "indexed": false,
          "name": "value",
          "type": "uint256"
        },
        {
          "indexed": false,
          "name": "amount",
          "type": "uint256"
        }
      ],
      "name": "SmartKeyPurchase",
      "type": "event"
    },
    {
      "constant": true,
      "inputs": [],
      "name": "getNow",
      "outputs": [
        {
          "name": "",
          "type": "uint256"
        }
      ],
      "payable": false,
      "stateMutability": "view",
      "type": "function"
    },
    {
      "constant": true,
      "inputs": [],
      "name": "getTokensMinted",
      "outputs": [
        {
          "name": "",
          "type": "uint256"
        }
      ],
      "payable": false,
      "stateMutability": "view",
      "type": "function"
    },
    {
      "constant": false,
      "inputs": [
        {
          "name": "_rate",
          "type": "uint256"
        }
      ],
      "name": "setRate",
      "outputs": [
        {
          "name": "",
          "type": "uint256"
        }
      ],
      "payable": false,
      "stateMutability": "nonpayable",
      "type": "function"
    },
    {
      "constant": false,
      "inputs": [
        {
          "name": "_endTime",
          "type": "uint256"
        }
      ],
      "name": "extendEndTime",
      "outputs": [
        {
          "name": "",
          "type": "uint256"
        }
      ],
      "payable": false,
      "stateMutability": "nonpayable",
      "type": "function"
    },
    {
      "constant": false,
      "inputs": [
        {
          "name": "beneficiary",
          "type": "address"
        }
      ],
      "name": "getSmartKey",
      "outputs": [],
      "payable": true,
      "stateMutability": "payable",
      "type": "function"
    },
    {
      "constant": true,
      "inputs": [
        {
          "name": "amount",
          "type": "uint256"
        }
      ],
      "name": "convertToWei",
      "outputs": [
        {
          "name": "",
          "type": "uint256"
        }
      ],
      "payable": false,
      "stateMutability": "view",
      "type": "function"
    },
    {
      "constant": true,
      "inputs": [
        {
          "name": "amount",
          "type": "uint256"
        }
      ],
      "name": "convertToToken",
      "outputs": [
        {
          "name": "",
          "type": "uint256"
        }
      ],
      "payable": false,
      "stateMutability": "view",
      "type": "function"
    },
    {
      "constant": true,
      "inputs": [],
      "name": "hasEnded",
      "outputs": [
        {
          "name": "",
          "type": "bool"
        }
      ],
      "payable": false,
      "stateMutability": "view",
      "type": "function"
    }
  ],
  "bytecode": "0x606060405234156200001057600080fd5b6040516200133638038062001336833981016040528080519060200190919080519060200190919080519060200190919080519060200190919080518201919050508060008090505b8151811015620000e057600160008084848151811015156200007757fe5b9060200190602002015173ffffffffffffffffffffffffffffffffffffffff1673ffffffffffffffffffffffffffffffffffffffff16815260200190815260200160002060006101000a81548160ff021916908315150217905550808060010191505062000059565b8160029080519060200190620000f8929190620001df565b5050508383101515156200010b57600080fd5b6000821115156200011b57600080fd5b6000600260008154811015156200012e57fe5b906000526020600020900160009054906101000a900473ffffffffffffffffffffffffffffffffffffffff1673ffffffffffffffffffffffffffffffffffffffff16141515156200017e57600080fd5b84600360006101000a81548173ffffffffffffffffffffffffffffffffffffffff021916908373ffffffffffffffffffffffffffffffffffffffff1602179055508360048190555082600581905550816006819055505050505050620002b4565b8280548282559060005260206000209081019282156200025b579160200282015b828111156200025a5782518260006101000a81548173ffffffffffffffffffffffffffffffffffffffff021916908373ffffffffffffffffffffffffffffffffffffffff1602179055509160200191906001019062000200565b5b5090506200026a91906200026e565b5090565b620002b191905b80821115620002ad57600081816101000a81549073ffffffffffffffffffffffffffffffffffffffff02191690555060010162000275565b5090565b90565b61107280620002c46000396000f300606060405260043610610107576000357c0100000000000000000000000000000000000000000000000000000000900463ffffffff16806314bfd6d01461011257806324d7806c146101755780632c4e722e146101c65780633197cbb6146101ef57806331ae450b1461021857806334fcf437146102825780634042b66f146102b957806370480275146102e257806378e979251461031b57806388770cb01461034457806397f735d51461037b578063a60dc38a146103cc578063a81f8f3f14610403578063b37c75511461043a578063bbe4fd5014610468578063d69f6bae14610491578063e1b2e8b3146104ba578063ecb70fb7146104f3578063fc0c546a14610520575b61011033610575565b005b341561011d57600080fd5b610133600480803590602001909190505061070a565b604051808273ffffffffffffffffffffffffffffffffffffffff1673ffffffffffffffffffffffffffffffffffffffff16815260200191505060405180910390f35b341561018057600080fd5b6101ac600480803573ffffffffffffffffffffffffffffffffffffffff16906020019091905050610749565b604051808215151515815260200191505060405180910390f35b34156101d157600080fd5b6101d9610769565b6040518082815260200191505060405180910390f35b34156101fa57600080fd5b61020261076f565b6040518082815260200191505060405180910390f35b341561022357600080fd5b61022b610775565b6040518080602001828103825283818151815260200191508051906020019060200280838360005b8381101561026e578082015181840152602081019050610253565b505050509050019250505060405180910390f35b341561028d57600080fd5b6102a36004808035906020019091905050610809565b6040518082815260200191505060405180910390f35b34156102c457600080fd5b6102cc610981565b6040518082815260200191505060405180910390f35b34156102ed57600080fd5b610319600480803573ffffffffffffffffffffffffffffffffffffffff16906020019091905050610987565b005b341561032657600080fd5b61032e610ba4565b6040518082815260200191505060405180910390f35b341561034f57600080fd5b6103656004808035906020019091905050610baa565b6040518082815260200191505060405180910390f35b341561038657600080fd5b6103b2600480803573ffffffffffffffffffffffffffffffffffffffff16906020019091905050610c6d565b604051808215151515815260200191505060405180910390f35b34156103d757600080fd5b6103ed6004808035906020019091905050610c8d565b6040518082815260200191505060405180910390f35b341561040e57600080fd5b6104246004808035906020019091905050610cab565b6040518082815260200191505060405180910390f35b610466600480803573ffffffffffffffffffffffffffffffffffffffff16906020019091905050610575565b005b341561047357600080fd5b61047b610cc9565b6040518082815260200191505060405180910390f35b341561049c57600080fd5b6104a4610cd1565b6040518082815260200191505060405180910390f35b34156104c557600080fd5b6104f1600480803573ffffffffffffffffffffffffffffffffffffffff16906020019091905050610d81565b005b34156104fe57600080fd5b610506610f3b565b604051808215151515815260200191505060405180910390f35b341561052b57600080fd5b610533610f47565b604051808273ffffffffffffffffffffffffffffffffffffffff1673ffffffffffffffffffffffffffffffffffffffff16815260200191505060405180910390f35b60008060008373ffffffffffffffffffffffffffffffffffffffff161415151561059e57600080fd5b3491506105aa82610cab565b90506105c182600754610f6d90919063ffffffff16565b600781905550600360009054906101000a900473ffffffffffffffffffffffffffffffffffffffff1673ffffffffffffffffffffffffffffffffffffffff1663b37c755134856040518363ffffffff167c0100000000000000000000000000000000000000000000000000000000028152600401808273ffffffffffffffffffffffffffffffffffffffff1673ffffffffffffffffffffffffffffffffffffffff1681526020019150506000604051808303818588803b151561068357600080fd5b6125ee5a03f1151561069457600080fd5b505050508273ffffffffffffffffffffffffffffffffffffffff163373ffffffffffffffffffffffffffffffffffffffff167f8954423a551d16784cdfa6962d70cd543c5e51c673130047a93e5c2340a6ab3d8484604051808381526020018281526020019250505060405180910390a3505050565b60028181548110151561071957fe5b90600052602060002090016000915054906101000a900473ffffffffffffffffffffffffffffffffffffffff1681565b60006020528060005260406000206000915054906101000a900460ff1681565b60065481565b60055481565b61077d610fe1565b60028054806020026020016040519081016040528092919081815260200182805480156107ff57602002820191906000526020600020905b8160009054906101000a900473ffffffffffffffffffffffffffffffffffffffff1673ffffffffffffffffffffffffffffffffffffffff16815260200190600101908083116107b5575b5050505050905090565b60008060003373ffffffffffffffffffffffffffffffffffffffff1673ffffffffffffffffffffffffffffffffffffffff16815260200190815260200160002060009054906101000a900460ff16151561086257600080fd5b600160003373ffffffffffffffffffffffffffffffffffffffff1673ffffffffffffffffffffffffffffffffffffffff16815260200190815260200160002060009054906101000a900460ff161515156108bb57600080fd5b600360009054906101000a900473ffffffffffffffffffffffffffffffffffffffff1673ffffffffffffffffffffffffffffffffffffffff166334fcf437836000604051602001526040518263ffffffff167c010000000000000000000000000000000000000000000000000000000002815260040180828152602001915050602060405180830381600087803b151561095457600080fd5b6102c65a03f1151561096557600080fd5b5050506040518051905050816006819055506006549050919050565b60075481565b6000803373ffffffffffffffffffffffffffffffffffffffff1673ffffffffffffffffffffffffffffffffffffffff16815260200190815260200160002060009054906101000a900460ff1615156109de57600080fd5b600160003373ffffffffffffffffffffffffffffffffffffffff1673ffffffffffffffffffffffffffffffffffffffff16815260200190815260200160002060009054906101000a900460ff16151515610a3757600080fd5b6000803373ffffffffffffffffffffffffffffffffffffffff1673ffffffffffffffffffffffffffffffffffffffff16815260200190815260200160002060009054906101000a900460ff161515610a8e57600080fd5b600160003373ffffffffffffffffffffffffffffffffffffffff1673ffffffffffffffffffffffffffffffffffffffff16815260200190815260200160002060009054906101000a900460ff16151515610ae757600080fd5b60016000808373ffffffffffffffffffffffffffffffffffffffff1673ffffffffffffffffffffffffffffffffffffffff16815260200190815260200160002060006101000a81548160ff02191690831515021790555060028054806001018281610b529190610ff5565b9160005260206000209001600083909190916101000a81548173ffffffffffffffffffffffffffffffffffffffff021916908373ffffffffffffffffffffffffffffffffffffffff1602179055505050565b60045481565b60008060003373ffffffffffffffffffffffffffffffffffffffff1673ffffffffffffffffffffffffffffffffffffffff16815260200190815260200160002060009054906101000a900460ff161515610c0357600080fd5b600160003373ffffffffffffffffffffffffffffffffffffffff1673ffffffffffffffffffffffffffffffffffffffff16815260200190815260200160002060009054906101000a900460ff16151515610c5c57600080fd5b816005819055506005549050919050565b60016020528060005260406000206000915054906101000a900460ff1681565b6000610ca460065483610f8b90919063ffffffff16565b9050919050565b6000610cc260065483610fc690919063ffffffff16565b9050919050565b600042905090565b6000600360009054906101000a900473ffffffffffffffffffffffffffffffffffffffff1673ffffffffffffffffffffffffffffffffffffffff1663963563556000604051602001526040518163ffffffff167c0100000000000000000000000000000000000000000000000000000000028152600401602060405180830381600087803b1515610d6157600080fd5b6102c65a03f11515610d7257600080fd5b50505060405180519050905090565b6000803373ffffffffffffffffffffffffffffffffffffffff1673ffffffffffffffffffffffffffffffffffffffff16815260200190815260200160002060009054906101000a900460ff161515610dd857600080fd5b600160003373ffffffffffffffffffffffffffffffffffffffff1673ffffffffffffffffffffffffffffffffffffffff16815260200190815260200160002060009054906101000a900460ff16151515610e3157600080fd5b6000803373ffffffffffffffffffffffffffffffffffffffff1673ffffffffffffffffffffffffffffffffffffffff16815260200190815260200160002060009054906101000a900460ff161515610e8857600080fd5b600160003373ffffffffffffffffffffffffffffffffffffffff1673ffffffffffffffffffffffffffffffffffffffff16815260200190815260200160002060009054906101000a900460ff16151515610ee157600080fd5b60018060008373ffffffffffffffffffffffffffffffffffffffff1673ffffffffffffffffffffffffffffffffffffffff16815260200190815260200160002060006101000a81548160ff02191690831515021790555050565b60006005544211905090565b600360009054906101000a900473ffffffffffffffffffffffffffffffffffffffff1681565b6000808284019050838110151515610f8157fe5b8091505092915050565b6000806000841415610fa05760009150610fbf565b8284029050828482811515610fb157fe5b04141515610fbb57fe5b8091505b5092915050565b6000808284811515610fd457fe5b0490508091505092915050565b602060405190810160405280600081525090565b81548183558181151161101c5781836000526020600020918201910161101b9190611021565b5b505050565b61104391905b8082111561103f576000816000905550600101611027565b5090565b905600a165627a7a7230582095ae6a681c4cbf76dbcf210896f1553b8bc97d7c8bb6a32328ac86eb6bb755580029",
  "source": "pragma solidity ^0.4.18; //We have to specify what version of the compiler this code will use\n\n\nimport '../SmartKey.sol';\n\nimport '../math/SafeMath.sol';\n\n/**\n * @title Crowdsale \n */\ncontract Crowdsale is Administered {\n  using SafeMath for uint256;\n\n  // The token being sold\n  SmartKey public token;\n\n  // start and end timestamps where investments are allowed (both inclusive)\n  uint256 public startTime;\n  uint256 public endTime;\n\n  // how many token units a buyer gets per wei\n  uint256 public rate;\n\n  // amount of raised money in wei\n  uint256 public weiRaised;\n\n  \n  /**\n   * event for token purchase logging\n   * @param purchaser who paid for the tokens\n   * @param beneficiary who got the tokens\n   * @param value weis paid for purchase\n   * @param amount amount of tokens purchased\n   */ \n  event SmartKeyPurchase(address indexed purchaser, address indexed beneficiary, uint256 value, uint256 amount);\n\n\n  function Crowdsale(SmartKey _token, uint256 _startTime, uint256 _endTime, uint256 _rate, address[] adminAddress) \n  public\n  Administered(adminAddress)\n  {\n    require(_endTime >= _startTime);\n    require(_rate > 0);\n    require(admins[0] != 0x0);\n\n    token = _token;\n    startTime = _startTime;\n    endTime = _endTime;\n    rate = _rate;\n    \n  }\n\n  function getNow() public\n  view\n  returns (uint256) {\n      return now;\n  }\n  \n  function getTokensMinted() \n  public\n  view\n  returns (uint256) {\n      return token.tokenMinted();\n  }\n  \n  function setRate(uint256 _rate) \n  public\n  onlyAdmin \n  returns (uint256){\n        token.setRate(_rate);\n        rate=_rate;\n        return rate;                \n  }\n\n  function extendEndTime(uint256 _endTime) \n  public\n  onlyAdmin \n  returns (uint256){\n        endTime = _endTime;\n        return endTime;                \n  }\n  \n  // fallback function can be used to buy tokens\n  function () \n  public\n  payable {\n  \n    getSmartKey(msg.sender);\n    \n  }\n\n  // low level token purchase function\n  function getSmartKey(address beneficiary) \n  public\n  payable \n  {\n  \n    require(beneficiary != 0x0);\n    \n    uint256 weiAmount = msg.value;\n\n    // calculate token amount to be created\n    uint256 tokens = convertToToken(weiAmount);\n    \n    // update state\n    weiRaised = weiRaised.add(weiAmount);\n    \n    token.getSmartKey.value(msg.value)(beneficiary);\n        \n    SmartKeyPurchase(msg.sender, beneficiary, weiAmount, tokens);\n    \n  }\n\n  function convertToWei(uint256 amount) \n  public\n  view\n  returns (uint256)\n  {\n\t\treturn amount.mul(rate);\n  }\n\n  function convertToToken(uint256 amount) \n  public\n  view\n  returns (uint256)\n  {\n\t\treturn amount.div(rate);\n  }\n\n  // @return true if crowdsale event has ended\n  function hasEnded() \n  public \n  constant \n  returns (bool) {\n    return now > endTime;\n  }\n\n\n}\n",
  "sourcePath": "/home/richard/iotblock/contracts/crowdsale/Crowdsale.sol",
  "compiler": {
    "name": "solc",
    "version": "0.4.19+commit.c4cbbb05.Emscripten.clang"
  },
  "schemaVersion": "2.0.0",
  "updatedAt": "2018-03-16T17:03:58.502Z"
}