{
  "contractName": "GraphBase",
  "abi": [
    {
      "constant": true,
      "inputs": [
        {
          "name": "",
          "type": "uint256"
        }
      ],
      "name": "admins",
      "outputs": [
        {
          "name": "",
          "type": "address"
        }
      ],
      "payable": false,
      "stateMutability": "view",
      "type": "function"
    },
    {
      "constant": true,
      "inputs": [
        {
          "name": "",
          "type": "address"
        }
      ],
      "name": "isAdmin",
      "outputs": [
        {
          "name": "",
          "type": "bool"
        }
      ],
      "payable": false,
      "stateMutability": "view",
      "type": "function"
    },
    {
      "constant": true,
      "inputs": [],
      "name": "getAdmins",
      "outputs": [
        {
          "name": "",
          "type": "address[]"
        }
      ],
      "payable": false,
      "stateMutability": "view",
      "type": "function"
    },
    {
      "constant": true,
      "inputs": [
        {
          "name": "key",
          "type": "string"
        }
      ],
      "name": "getHash",
      "outputs": [
        {
          "name": "",
          "type": "bytes32"
        }
      ],
      "payable": false,
      "stateMutability": "pure",
      "type": "function"
    },
    {
      "constant": false,
      "inputs": [
        {
          "name": "attrID",
          "type": "uint256"
        },
        {
          "name": "expiry",
          "type": "uint256"
        }
      ],
      "name": "signAttr",
      "outputs": [
        {
          "name": "signID",
          "type": "uint256"
        }
      ],
      "payable": false,
      "stateMutability": "nonpayable",
      "type": "function"
    },
    {
      "constant": false,
      "inputs": [
        {
          "name": "signID",
          "type": "uint256"
        }
      ],
      "name": "revSign",
      "outputs": [
        {
          "name": "revID",
          "type": "uint256"
        }
      ],
      "payable": false,
      "stateMutability": "nonpayable",
      "type": "function"
    },
    {
      "constant": false,
      "inputs": [
        {
          "name": "attrType",
          "type": "string"
        },
        {
          "name": "has_proof",
          "type": "bool"
        },
        {
          "name": "id",
          "type": "bytes32"
        },
        {
          "name": "data",
          "type": "string"
        },
        {
          "name": "datahash",
          "type": "string"
        }
      ],
      "name": "addAttr",
      "outputs": [
        {
          "name": "attrID",
          "type": "uint256"
        }
      ],
      "payable": false,
      "stateMutability": "nonpayable",
      "type": "function"
    },
    {
      "constant": false,
      "inputs": [
        {
          "name": "admin",
          "type": "address"
        }
      ],
      "name": "addAdmin",
      "outputs": [],
      "payable": false,
      "stateMutability": "nonpayable",
      "type": "function"
    },
    {
      "constant": true,
      "inputs": [
        {
          "name": "",
          "type": "address"
        }
      ],
      "name": "activated",
      "outputs": [
        {
          "name": "",
          "type": "uint256"
        }
      ],
      "payable": false,
      "stateMutability": "view",
      "type": "function"
    },
    {
      "constant": true,
      "inputs": [],
      "name": "owner",
      "outputs": [
        {
          "name": "",
          "type": "address"
        }
      ],
      "payable": false,
      "stateMutability": "view",
      "type": "function"
    },
    {
      "constant": false,
      "inputs": [
        {
          "name": "user",
          "type": "address"
        }
      ],
      "name": "activateKey",
      "outputs": [],
      "payable": true,
      "stateMutability": "payable",
      "type": "function"
    },
    {
      "constant": true,
      "inputs": [
        {
          "name": "",
          "type": "address"
        }
      ],
      "name": "isBanned",
      "outputs": [
        {
          "name": "",
          "type": "bool"
        }
      ],
      "payable": false,
      "stateMutability": "view",
      "type": "function"
    },
    {
      "constant": true,
      "inputs": [
        {
          "name": "",
          "type": "uint256"
        }
      ],
      "name": "attrs",
      "outputs": [
        {
          "name": "user",
          "type": "address"
        },
        {
          "name": "attrType",
          "type": "string"
        },
        {
          "name": "has_proof",
          "type": "bool"
        },
        {
          "name": "id",
          "type": "bytes32"
        },
        {
          "name": "data",
          "type": "string"
        },
        {
          "name": "datahash",
          "type": "string"
        }
      ],
      "payable": false,
      "stateMutability": "view",
      "type": "function"
    },
    {
      "constant": true,
      "inputs": [
        {
          "name": "",
          "type": "uint256"
        }
      ],
      "name": "revs",
      "outputs": [
        {
          "name": "signID",
          "type": "uint256"
        }
      ],
      "payable": false,
      "stateMutability": "view",
      "type": "function"
    },
    {
      "constant": false,
      "inputs": [],
      "name": "returnKey",
      "outputs": [],
      "payable": false,
      "stateMutability": "nonpayable",
      "type": "function"
    },
    {
      "constant": true,
      "inputs": [],
      "name": "state",
      "outputs": [
        {
          "name": "",
          "type": "uint8"
        }
      ],
      "payable": false,
      "stateMutability": "view",
      "type": "function"
    },
    {
      "constant": true,
      "inputs": [
        {
          "name": "",
          "type": "uint256"
        }
      ],
      "name": "signs",
      "outputs": [
        {
          "name": "signer",
          "type": "address"
        },
        {
          "name": "attrID",
          "type": "uint256"
        },
        {
          "name": "expiry",
          "type": "uint256"
        }
      ],
      "payable": false,
      "stateMutability": "view",
      "type": "function"
    },
    {
      "constant": false,
      "inputs": [
        {
          "name": "banned",
          "type": "address"
        }
      ],
      "name": "addBanned",
      "outputs": [],
      "payable": false,
      "stateMutability": "nonpayable",
      "type": "function"
    },
    {
      "constant": false,
      "inputs": [
        {
          "name": "newOwner",
          "type": "address"
        }
      ],
      "name": "transferOwnership",
      "outputs": [],
      "payable": false,
      "stateMutability": "nonpayable",
      "type": "function"
    },
    {
      "constant": true,
      "inputs": [],
      "name": "vault",
      "outputs": [
        {
          "name": "",
          "type": "address"
        }
      ],
      "payable": false,
      "stateMutability": "view",
      "type": "function"
    },
    {
      "inputs": [
        {
          "name": "_smartKey",
          "type": "address"
        },
        {
          "name": "adminAddress",
          "type": "address[]"
        }
      ],
      "payable": false,
      "stateMutability": "nonpayable",
      "type": "constructor"
    },
    {
      "payable": true,
      "stateMutability": "payable",
      "type": "fallback"
    },
    {
      "anonymous": false,
      "inputs": [
        {
          "indexed": true,
          "name": "beneficiary",
          "type": "address"
        },
        {
          "indexed": true,
          "name": "vault",
          "type": "address"
        },
        {
          "indexed": false,
          "name": "status",
          "type": "uint8"
        }
      ],
      "name": "KeyStateUpdate",
      "type": "event"
    },
    {
      "anonymous": false,
      "inputs": [
        {
          "indexed": false,
          "name": "status",
          "type": "uint8"
        }
      ],
      "name": "HealthUpdate",
      "type": "event"
    },
    {
      "anonymous": false,
      "inputs": [
        {
          "indexed": true,
          "name": "attrID",
          "type": "uint256"
        },
        {
          "indexed": true,
          "name": "user",
          "type": "address"
        },
        {
          "indexed": false,
          "name": "attrType",
          "type": "string"
        },
        {
          "indexed": false,
          "name": "has_proof",
          "type": "bool"
        },
        {
          "indexed": true,
          "name": "id",
          "type": "bytes32"
        },
        {
          "indexed": false,
          "name": "data",
          "type": "string"
        },
        {
          "indexed": false,
          "name": "datahash",
          "type": "string"
        }
      ],
      "name": "AttrAdded",
      "type": "event"
    },
    {
      "anonymous": false,
      "inputs": [
        {
          "indexed": true,
          "name": "signID",
          "type": "uint256"
        },
        {
          "indexed": true,
          "name": "signer",
          "type": "address"
        },
        {
          "indexed": true,
          "name": "attrID",
          "type": "uint256"
        },
        {
          "indexed": false,
          "name": "expiry",
          "type": "uint256"
        }
      ],
      "name": "AttrSigned",
      "type": "event"
    },
    {
      "anonymous": false,
      "inputs": [
        {
          "indexed": true,
          "name": "revID",
          "type": "uint256"
        },
        {
          "indexed": true,
          "name": "signID",
          "type": "uint256"
        }
      ],
      "name": "SignRev",
      "type": "event"
    },
    {
      "anonymous": false,
      "inputs": [
        {
          "indexed": true,
          "name": "previousOwner",
          "type": "address"
        },
        {
          "indexed": true,
          "name": "newOwner",
          "type": "address"
        }
      ],
      "name": "OwnershipTransferred",
      "type": "event"
    }
  ],
  "bytecode": "0x606060405234156200001057600080fd5b60405162001ff838038062001ff88339810160405280805190602001909190805182019190505080600033336000806101000a81548173ffffffffffffffffffffffffffffffffffffffff021916908373ffffffffffffffffffffffffffffffffffffffff16021790555060008173ffffffffffffffffffffffffffffffffffffffff1614151515620000a257600080fd5b80600260006101000a81548173ffffffffffffffffffffffffffffffffffffffff021916908373ffffffffffffffffffffffffffffffffffffffff1602179055506000600260146101000a81548160ff021916908360028111156200010357fe5b0217905550600260009054906101000a900473ffffffffffffffffffffffffffffffffffffffff1673ffffffffffffffffffffffffffffffffffffffff163373ffffffffffffffffffffffffffffffffffffffff167fae6905ed683ee316aa72cda27d03945d8f93ec0f2a213d899497c705cdbce4da600260149054906101000a900460ff16604051808260028111156200019a57fe5b60ff16815260200191505060405180910390a350600090505b81518110156200023b576001600760008484815181101515620001d257fe5b9060200190602002015173ffffffffffffffffffffffffffffffffffffffff1673ffffffffffffffffffffffffffffffffffffffff16815260200190815260200160002060006101000a81548160ff0219169083151502179055508080600101915050620001b3565b8160099080519060200190620002539291906200029f565b50505081600a60006101000a81548173ffffffffffffffffffffffffffffffffffffffff021916908373ffffffffffffffffffffffffffffffffffffffff160217905550505062000374565b8280548282559060005260206000209081019282156200031b579160200282015b828111156200031a5782518260006101000a81548173ffffffffffffffffffffffffffffffffffffffff021916908373ffffffffffffffffffffffffffffffffffffffff16021790555091602001919060010190620002c0565b5b5090506200032a91906200032e565b5090565b6200037191905b808211156200036d57600081816101000a81549073ffffffffffffffffffffffffffffffffffffffff02191690555060010162000335565b5090565b90565b611c7480620003846000396000f300606060405260043610610112576000357c0100000000000000000000000000000000000000000000000000000000900463ffffffff16806314bfd6d01461011d57806324d7806c1461018057806331ae450b146101d15780635b6beeb91461023b57806361c1350d146102b45780636db59df8146102f45780637012e30a1461032b578063704802751461043a578063779d8677146104735780638da5cb5b146104c05780639172fe081461051557806397f735d5146105435780639ebd36f314610594578063a1f811ef146107ac578063af92c181146107e3578063c19d93fb146107f8578063cb75b9971461082f578063e1b2e8b3146108a0578063f2fde38b146108d9578063fbfa77cf14610912575b61011b33610967565b005b341561012857600080fd5b61013e6004808035906020019091905050610b84565b604051808273ffffffffffffffffffffffffffffffffffffffff1673ffffffffffffffffffffffffffffffffffffffff16815260200191505060405180910390f35b341561018b57600080fd5b6101b7600480803573ffffffffffffffffffffffffffffffffffffffff16906020019091905050610bc3565b604051808215151515815260200191505060405180910390f35b34156101dc57600080fd5b6101e4610be3565b6040518080602001828103825283818151815260200191508051906020019060200280838360005b8381101561022757808201518184015260208101905061020c565b505050509050019250505060405180910390f35b341561024657600080fd5b610296600480803590602001908201803590602001908080601f01602080910402602001604051908101604052809392919081815260200183838082843782019150505050505091905050610c77565b60405180826000191660001916815260200191505060405180910390f35b34156102bf57600080fd5b6102de6004808035906020019091908035906020019091905050610ce3565b6040518082815260200191505060405180910390f35b34156102ff57600080fd5b6103156004808035906020019091905050610dc7565b6040518082815260200191505060405180910390f35b341561033657600080fd5b610424600480803590602001908201803590602001908080601f0160208091040260200160405190810160405280939291908181526020018383808284378201915050505050509190803515159060200190919080356000191690602001909190803590602001908201803590602001908080601f0160208091040260200160405190810160405280939291908181526020018383808284378201915050505050509190803590602001908201803590602001908080601f01602080910402602001604051908101604052809392919081815260200183838082843782019150505050505091905050610eae565b6040518082815260200191505060405180910390f35b341561044557600080fd5b610471600480803573ffffffffffffffffffffffffffffffffffffffff16906020019091905050611146565b005b341561047e57600080fd5b6104aa600480803573ffffffffffffffffffffffffffffffffffffffff16906020019091905050611366565b6040518082815260200191505060405180910390f35b34156104cb57600080fd5b6104d361137e565b604051808273ffffffffffffffffffffffffffffffffffffffff1673ffffffffffffffffffffffffffffffffffffffff16815260200191505060405180910390f35b610541600480803573ffffffffffffffffffffffffffffffffffffffff16906020019091905050610967565b005b341561054e57600080fd5b61057a600480803573ffffffffffffffffffffffffffffffffffffffff169060200190919050506113a3565b604051808215151515815260200191505060405180910390f35b341561059f57600080fd5b6105b560048080359060200190919050506113c3565b604051808773ffffffffffffffffffffffffffffffffffffffff1673ffffffffffffffffffffffffffffffffffffffff1681526020018060200186151515158152602001856000191660001916815260200180602001806020018481038452898181546001816001161561010002031660029004815260200191508054600181600116156101000203166002900480156106905780601f1061066557610100808354040283529160200191610690565b820191906000526020600020905b81548152906001019060200180831161067357829003601f168201915b50508481038352868181546001816001161561010002031660029004815260200191508054600181600116156101000203166002900480156107135780601f106106e857610100808354040283529160200191610713565b820191906000526020600020905b8154815290600101906020018083116106f657829003601f168201915b50508481038252858181546001816001161561010002031660029004815260200191508054600181600116156101000203166002900480156107965780601f1061076b57610100808354040283529160200191610796565b820191906000526020600020905b81548152906001019060200180831161077957829003601f168201915b5050995050505050505050505060405180910390f35b34156107b757600080fd5b6107cd6004808035906020019091905050611438565b6040518082815260200191505060405180910390f35b34156107ee57600080fd5b6107f6611462565b005b341561080357600080fd5b61080b6115ba565b6040518082600281111561081b57fe5b60ff16815260200191505060405180910390f35b341561083a57600080fd5b61085060048080359060200190919050506115cd565b604051808473ffffffffffffffffffffffffffffffffffffffff1673ffffffffffffffffffffffffffffffffffffffff168152602001838152602001828152602001935050505060405180910390f35b34156108ab57600080fd5b6108d7600480803573ffffffffffffffffffffffffffffffffffffffff16906020019091905050611626565b005b34156108e457600080fd5b610910600480803573ffffffffffffffffffffffffffffffffffffffff169060200190919050506117e3565b005b341561091d57600080fd5b610925611938565b604051808273ffffffffffffffffffffffffffffffffffffffff1673ffffffffffffffffffffffffffffffffffffffff16815260200191505060405180910390f35b6000809054906101000a900473ffffffffffffffffffffffffffffffffffffffff1673ffffffffffffffffffffffffffffffffffffffff163373ffffffffffffffffffffffffffffffffffffffff161415156109c257600080fd5b6001600260146101000a81548160ff021916908360028111156109e157fe5b0217905550600260009054906101000a900473ffffffffffffffffffffffffffffffffffffffff1673ffffffffffffffffffffffffffffffffffffffff166108fc349081150290604051600060405180830381858888f193505050501515610a4857600080fd5b610a9a34600160008473ffffffffffffffffffffffffffffffffffffffff1673ffffffffffffffffffffffffffffffffffffffff1681526020019081526020016000205461195e90919063ffffffff16565b600160008373ffffffffffffffffffffffffffffffffffffffff1673ffffffffffffffffffffffffffffffffffffffff16815260200190815260200160002081905550600260009054906101000a900473ffffffffffffffffffffffffffffffffffffffff1673ffffffffffffffffffffffffffffffffffffffff163373ffffffffffffffffffffffffffffffffffffffff167fae6905ed683ee316aa72cda27d03945d8f93ec0f2a213d899497c705cdbce4da600260149054906101000a900460ff1660405180826002811115610b6e57fe5b60ff16815260200191505060405180910390a350565b600981815481101515610b9357fe5b90600052602060002090016000915054906101000a900473ffffffffffffffffffffffffffffffffffffffff1681565b60076020528060005260406000206000915054906101000a900460ff1681565b610beb61197c565b6009805480602002602001604051908101604052809291908181526020018280548015610c6d57602002820191906000526020600020905b8160009054906101000a900473ffffffffffffffffffffffffffffffffffffffff1673ffffffffffffffffffffffffffffffffffffffff1681526020019060010190808311610c23575b5050505050905090565b6000816040518082805190602001908083835b602083101515610caf5780518252602082019150602081019050602083039250610c8a565b6001836020036101000a03801982511681845116808217855250505050505090500191505060405180910390209050919050565b60008060048054809190600101610cfa9190611990565b9150600482815481101515610d0b57fe5b90600052602060002090600302019050338160000160006101000a81548173ffffffffffffffffffffffffffffffffffffffff021916908373ffffffffffffffffffffffffffffffffffffffff160217905550838160010181905550828160020181905550833373ffffffffffffffffffffffffffffffffffffffff16837fabae455af5f2271c2159ed49e8728304bebc0f408ac8c99f47718c5cd5883c74866040518082815260200191505060405180910390a45092915050565b6000803373ffffffffffffffffffffffffffffffffffffffff16600484815481101515610df057fe5b906000526020600020906003020160000160009054906101000a900473ffffffffffffffffffffffffffffffffffffffff1673ffffffffffffffffffffffffffffffffffffffff161415610ea85760058054809190600101610e5291906119c2565b9150600582815481101515610e6357fe5b9060005260206000209001905082816000018190555082827f2b8a481e89dc06ea8474e349f239119eeb28ade85f513c4dc565232864d2c40360405160405180910390a35b50919050565b60008060038054809190600101610ec591906119ee565b9150600382815481101515610ed657fe5b90600052602060002090600602019050338160000160006101000a81548173ffffffffffffffffffffffffffffffffffffffff021916908373ffffffffffffffffffffffffffffffffffffffff16021790555086816001019080519060200190610f41929190611a20565b50858160020160006101000a81548160ff0219169083151502179055508481600301816000191690555083816004019080519060200190610f83929190611a20565b5082816005019080519060200190610f9c929190611a20565b5084600019163373ffffffffffffffffffffffffffffffffffffffff16837f377af03f7a20e598b24a0310bdbaa1734bf6b783731c6439efae85be4cbbba7b8a8a89896040518080602001851515151581526020018060200180602001848103845288818151815260200191508051906020019080838360005b83811015611031578082015181840152602081019050611016565b50505050905090810190601f16801561105e5780820380516001836020036101000a031916815260200191505b50848103835286818151815260200191508051906020019080838360005b8381101561109757808201518184015260208101905061107c565b50505050905090810190601f1680156110c45780820380516001836020036101000a031916815260200191505b50848103825285818151815260200191508051906020019080838360005b838110156110fd5780820151818401526020810190506110e2565b50505050905090810190601f16801561112a5780820380516001836020036101000a031916815260200191505b5097505050505050505060405180910390a45095945050505050565b600760003373ffffffffffffffffffffffffffffffffffffffff1673ffffffffffffffffffffffffffffffffffffffff16815260200190815260200160002060009054906101000a900460ff16151561119e57600080fd5b600860003373ffffffffffffffffffffffffffffffffffffffff1673ffffffffffffffffffffffffffffffffffffffff16815260200190815260200160002060009054906101000a900460ff161515156111f757600080fd5b600760003373ffffffffffffffffffffffffffffffffffffffff1673ffffffffffffffffffffffffffffffffffffffff16815260200190815260200160002060009054906101000a900460ff16151561124f57600080fd5b600860003373ffffffffffffffffffffffffffffffffffffffff1673ffffffffffffffffffffffffffffffffffffffff16815260200190815260200160002060009054906101000a900460ff161515156112a857600080fd5b6001600760008373ffffffffffffffffffffffffffffffffffffffff1673ffffffffffffffffffffffffffffffffffffffff16815260200190815260200160002060006101000a81548160ff021916908315150217905550600980548060010182816113149190611aa0565b9160005260206000209001600083909190916101000a81548173ffffffffffffffffffffffffffffffffffffffff021916908373ffffffffffffffffffffffffffffffffffffffff1602179055505050565b60016020528060005260406000206000915090505481565b6000809054906101000a900473ffffffffffffffffffffffffffffffffffffffff1681565b60086020528060005260406000206000915054906101000a900460ff1681565b6003818154811015156113d257fe5b90600052602060002090600602016000915090508060000160009054906101000a900473ffffffffffffffffffffffffffffffffffffffff169080600101908060020160009054906101000a900460ff1690806003015490806004019080600501905086565b60058181548110151561144757fe5b90600052602060002090016000915090508060000154905081565b6000809054906101000a900473ffffffffffffffffffffffffffffffffffffffff1673ffffffffffffffffffffffffffffffffffffffff163373ffffffffffffffffffffffffffffffffffffffff161415156114bd57600080fd5b600160028111156114ca57fe5b600260149054906101000a900460ff1660028111156114e557fe5b1415156114f157600080fd5b60028060146101000a81548160ff0219169083600281111561150f57fe5b0217905550600260009054906101000a900473ffffffffffffffffffffffffffffffffffffffff1673ffffffffffffffffffffffffffffffffffffffff163373ffffffffffffffffffffffffffffffffffffffff167fae6905ed683ee316aa72cda27d03945d8f93ec0f2a213d899497c705cdbce4da600260149054906101000a900460ff16604051808260028111156115a557fe5b60ff16815260200191505060405180910390a3565b600260149054906101000a900460ff1681565b6004818154811015156115dc57fe5b90600052602060002090600302016000915090508060000160009054906101000a900473ffffffffffffffffffffffffffffffffffffffff16908060010154908060020154905083565b600760003373ffffffffffffffffffffffffffffffffffffffff1673ffffffffffffffffffffffffffffffffffffffff16815260200190815260200160002060009054906101000a900460ff16151561167e57600080fd5b600860003373ffffffffffffffffffffffffffffffffffffffff1673ffffffffffffffffffffffffffffffffffffffff16815260200190815260200160002060009054906101000a900460ff161515156116d757600080fd5b600760003373ffffffffffffffffffffffffffffffffffffffff1673ffffffffffffffffffffffffffffffffffffffff16815260200190815260200160002060009054906101000a900460ff16151561172f57600080fd5b600860003373ffffffffffffffffffffffffffffffffffffffff1673ffffffffffffffffffffffffffffffffffffffff16815260200190815260200160002060009054906101000a900460ff1615151561178857600080fd5b6001600860008373ffffffffffffffffffffffffffffffffffffffff1673ffffffffffffffffffffffffffffffffffffffff16815260200190815260200160002060006101000a81548160ff02191690831515021790555050565b6000809054906101000a900473ffffffffffffffffffffffffffffffffffffffff1673ffffffffffffffffffffffffffffffffffffffff163373ffffffffffffffffffffffffffffffffffffffff1614151561183e57600080fd5b600073ffffffffffffffffffffffffffffffffffffffff168173ffffffffffffffffffffffffffffffffffffffff161415151561187a57600080fd5b8073ffffffffffffffffffffffffffffffffffffffff166000809054906101000a900473ffffffffffffffffffffffffffffffffffffffff1673ffffffffffffffffffffffffffffffffffffffff167f8be0079c531659141344cd1fd0a4f28419497f9722a3daafe3b4186f6b6457e060405160405180910390a3806000806101000a81548173ffffffffffffffffffffffffffffffffffffffff021916908373ffffffffffffffffffffffffffffffffffffffff16021790555050565b600260009054906101000a900473ffffffffffffffffffffffffffffffffffffffff1681565b600080828401905083811015151561197257fe5b8091505092915050565b602060405190810160405280600081525090565b8154818355818115116119bd576003028160030283600052602060002091820191016119bc9190611acc565b5b505050565b8154818355818115116119e9578183600052602060002091820191016119e89190611b22565b5b505050565b815481835581811511611a1b57600602816006028360005260206000209182019101611a1a9190611b49565b5b505050565b828054600181600116156101000203166002900490600052602060002090601f016020900481019282601f10611a6157805160ff1916838001178555611a8f565b82800160010185558215611a8f579182015b82811115611a8e578251825591602001919060010190611a73565b5b509050611a9c9190611bdb565b5090565b815481835581811511611ac757818360005260206000209182019101611ac69190611bdb565b5b505050565b611b1f91905b80821115611b1b57600080820160006101000a81549073ffffffffffffffffffffffffffffffffffffffff02191690556001820160009055600282016000905550600301611ad2565b5090565b90565b611b4691905b80821115611b425760008082016000905550600101611b28565b5090565b90565b611bd891905b80821115611bd457600080820160006101000a81549073ffffffffffffffffffffffffffffffffffffffff0219169055600182016000611b8f9190611c00565b6002820160006101000a81549060ff02191690556003820160009055600482016000611bbb9190611c00565b600582016000611bcb9190611c00565b50600601611b4f565b5090565b90565b611bfd91905b80821115611bf9576000816000905550600101611be1565b5090565b90565b50805460018160011615610100020316600290046000825580601f10611c265750611c45565b601f016020900490600052602060002090810190611c449190611bdb565b5b505600a165627a7a72305820d5a62370fb87e15c0637d9d280bda51a4d085ac0c04f6010a40c6411f614de300029",
  "source": "pragma solidity ^0.4.18; //We have to specify what version of the compiler this code will use\n\nimport \"./Catalogue.sol\";\n\ncontract GraphBase is Key, Administered {\n \n  SmartKey smartKey;\n  \n  function GraphBase(SmartKey _smartKey, address[] adminAddress) \n  public\n  Administered(adminAddress)\n  Key(msg.sender)\n  {      \n      smartKey=_smartKey;    \n  }  \n \n  \n}\n\n",
  "sourcePath": "/home/richard/iotblock/contracts/GraphBase.sol",
  "compiler": {
    "name": "solc",
    "version": "0.4.19+commit.c4cbbb05.Emscripten.clang"
  },
  "schemaVersion": "2.0.0",
  "updatedAt": "2018-03-15T17:14:12.783Z"
}