{
  "contractName": "Key",
  "abi": [
    {
      "constant": true,
      "inputs": [
        {
          "name": "",
          "type": "address"
        }
      ],
      "name": "activated",
      "outputs": [
        {
          "name": "",
          "type": "uint256"
        }
      ],
      "payable": false,
      "stateMutability": "view",
      "type": "function"
    },
    {
      "constant": true,
      "inputs": [],
      "name": "owner",
      "outputs": [
        {
          "name": "",
          "type": "address"
        }
      ],
      "payable": false,
      "stateMutability": "view",
      "type": "function"
    },
    {
      "constant": true,
      "inputs": [
        {
          "name": "",
          "type": "uint256"
        }
      ],
      "name": "attrs",
      "outputs": [
        {
          "name": "user",
          "type": "address"
        },
        {
          "name": "attrType",
          "type": "string"
        },
        {
          "name": "has_proof",
          "type": "bool"
        },
        {
          "name": "id",
          "type": "bytes32"
        },
        {
          "name": "data",
          "type": "string"
        },
        {
          "name": "datahash",
          "type": "string"
        }
      ],
      "payable": false,
      "stateMutability": "view",
      "type": "function"
    },
    {
      "constant": true,
      "inputs": [
        {
          "name": "",
          "type": "uint256"
        }
      ],
      "name": "revs",
      "outputs": [
        {
          "name": "signID",
          "type": "uint256"
        }
      ],
      "payable": false,
      "stateMutability": "view",
      "type": "function"
    },
    {
      "constant": true,
      "inputs": [],
      "name": "state",
      "outputs": [
        {
          "name": "",
          "type": "uint8"
        }
      ],
      "payable": false,
      "stateMutability": "view",
      "type": "function"
    },
    {
      "constant": true,
      "inputs": [
        {
          "name": "",
          "type": "uint256"
        }
      ],
      "name": "signs",
      "outputs": [
        {
          "name": "signer",
          "type": "address"
        },
        {
          "name": "attrID",
          "type": "uint256"
        },
        {
          "name": "expiry",
          "type": "uint256"
        }
      ],
      "payable": false,
      "stateMutability": "view",
      "type": "function"
    },
    {
      "constant": false,
      "inputs": [
        {
          "name": "newOwner",
          "type": "address"
        }
      ],
      "name": "transferOwnership",
      "outputs": [],
      "payable": false,
      "stateMutability": "nonpayable",
      "type": "function"
    },
    {
      "constant": true,
      "inputs": [],
      "name": "vault",
      "outputs": [
        {
          "name": "",
          "type": "address"
        }
      ],
      "payable": false,
      "stateMutability": "view",
      "type": "function"
    },
    {
      "inputs": [
        {
          "name": "_vault",
          "type": "address"
        }
      ],
      "payable": false,
      "stateMutability": "nonpayable",
      "type": "constructor"
    },
    {
      "payable": true,
      "stateMutability": "payable",
      "type": "fallback"
    },
    {
      "anonymous": false,
      "inputs": [
        {
          "indexed": true,
          "name": "beneficiary",
          "type": "address"
        },
        {
          "indexed": true,
          "name": "vault",
          "type": "address"
        },
        {
          "indexed": false,
          "name": "status",
          "type": "uint8"
        }
      ],
      "name": "KeyStateUpdate",
      "type": "event"
    },
    {
      "anonymous": false,
      "inputs": [
        {
          "indexed": false,
          "name": "status",
          "type": "uint8"
        }
      ],
      "name": "HealthUpdate",
      "type": "event"
    },
    {
      "anonymous": false,
      "inputs": [
        {
          "indexed": true,
          "name": "attrID",
          "type": "uint256"
        },
        {
          "indexed": true,
          "name": "user",
          "type": "address"
        },
        {
          "indexed": false,
          "name": "attrType",
          "type": "string"
        },
        {
          "indexed": false,
          "name": "has_proof",
          "type": "bool"
        },
        {
          "indexed": true,
          "name": "id",
          "type": "bytes32"
        },
        {
          "indexed": false,
          "name": "data",
          "type": "string"
        },
        {
          "indexed": false,
          "name": "datahash",
          "type": "string"
        }
      ],
      "name": "AttrAdded",
      "type": "event"
    },
    {
      "anonymous": false,
      "inputs": [
        {
          "indexed": true,
          "name": "signID",
          "type": "uint256"
        },
        {
          "indexed": true,
          "name": "signer",
          "type": "address"
        },
        {
          "indexed": true,
          "name": "attrID",
          "type": "uint256"
        },
        {
          "indexed": false,
          "name": "expiry",
          "type": "uint256"
        }
      ],
      "name": "AttrSigned",
      "type": "event"
    },
    {
      "anonymous": false,
      "inputs": [
        {
          "indexed": true,
          "name": "revID",
          "type": "uint256"
        },
        {
          "indexed": true,
          "name": "signID",
          "type": "uint256"
        }
      ],
      "name": "SignRev",
      "type": "event"
    },
    {
      "anonymous": false,
      "inputs": [
        {
          "indexed": true,
          "name": "previousOwner",
          "type": "address"
        },
        {
          "indexed": true,
          "name": "newOwner",
          "type": "address"
        }
      ],
      "name": "OwnershipTransferred",
      "type": "event"
    },
    {
      "constant": false,
      "inputs": [
        {
          "name": "attrType",
          "type": "string"
        },
        {
          "name": "has_proof",
          "type": "bool"
        },
        {
          "name": "id",
          "type": "bytes32"
        },
        {
          "name": "data",
          "type": "string"
        },
        {
          "name": "datahash",
          "type": "string"
        }
      ],
      "name": "addAttr",
      "outputs": [
        {
          "name": "attrID",
          "type": "uint256"
        }
      ],
      "payable": false,
      "stateMutability": "nonpayable",
      "type": "function"
    },
    {
      "constant": false,
      "inputs": [
        {
          "name": "attrID",
          "type": "uint256"
        },
        {
          "name": "expiry",
          "type": "uint256"
        }
      ],
      "name": "signAttr",
      "outputs": [
        {
          "name": "signID",
          "type": "uint256"
        }
      ],
      "payable": false,
      "stateMutability": "nonpayable",
      "type": "function"
    },
    {
      "constant": false,
      "inputs": [
        {
          "name": "signID",
          "type": "uint256"
        }
      ],
      "name": "revSign",
      "outputs": [
        {
          "name": "revID",
          "type": "uint256"
        }
      ],
      "payable": false,
      "stateMutability": "nonpayable",
      "type": "function"
    },
    {
      "constant": false,
      "inputs": [
        {
          "name": "user",
          "type": "address"
        }
      ],
      "name": "activateKey",
      "outputs": [],
      "payable": true,
      "stateMutability": "payable",
      "type": "function"
    },
    {
      "constant": false,
      "inputs": [],
      "name": "returnKey",
      "outputs": [],
      "payable": false,
      "stateMutability": "nonpayable",
      "type": "function"
    },
    {
      "constant": true,
      "inputs": [
        {
          "name": "key",
          "type": "string"
        }
      ],
      "name": "getHash",
      "outputs": [
        {
          "name": "",
          "type": "bytes32"
        }
      ],
      "payable": false,
      "stateMutability": "pure",
      "type": "function"
    }
  ],
  "bytecode": "0x6060604052341561000f57600080fd5b6040516020806116cb83398101604052808051906020019091905050336000806101000a81548173ffffffffffffffffffffffffffffffffffffffff021916908373ffffffffffffffffffffffffffffffffffffffff16021790555060008173ffffffffffffffffffffffffffffffffffffffff161415151561009157600080fd5b80600260006101000a81548173ffffffffffffffffffffffffffffffffffffffff021916908373ffffffffffffffffffffffffffffffffffffffff1602179055506000600260146101000a81548160ff021916908360028111156100f157fe5b0217905550600260009054906101000a900473ffffffffffffffffffffffffffffffffffffffff1673ffffffffffffffffffffffffffffffffffffffff163373ffffffffffffffffffffffffffffffffffffffff167fae6905ed683ee316aa72cda27d03945d8f93ec0f2a213d899497c705cdbce4da600260149054906101000a900460ff166040518082600281111561018757fe5b60ff16815260200191505060405180910390a350611521806101aa6000396000f3006060604052600436106100d0576000357c0100000000000000000000000000000000000000000000000000000000900463ffffffff1680635b6beeb9146100db57806361c1350d146101545780636db59df8146101945780637012e30a146101cb578063779d8677146102da5780638da5cb5b146103275780639172fe081461037c5780639ebd36f3146103aa578063a1f811ef146105c2578063af92c181146105f9578063c19d93fb1461060e578063cb75b99714610645578063f2fde38b146106b6578063fbfa77cf146106ef575b6100d933610744565b005b34156100e657600080fd5b610136600480803590602001908201803590602001908080601f01602080910402602001604051908101604052809392919081815260200183838082843782019150505050505091905050610961565b60405180826000191660001916815260200191505060405180910390f35b341561015f57600080fd5b61017e60048080359060200190919080359060200190919050506109cd565b6040518082815260200191505060405180910390f35b341561019f57600080fd5b6101b56004808035906020019091905050610ab1565b6040518082815260200191505060405180910390f35b34156101d657600080fd5b6102c4600480803590602001908201803590602001908080601f0160208091040260200160405190810160405280939291908181526020018383808284378201915050505050509190803515159060200190919080356000191690602001909190803590602001908201803590602001908080601f0160208091040260200160405190810160405280939291908181526020018383808284378201915050505050509190803590602001908201803590602001908080601f01602080910402602001604051908101604052809392919081815260200183838082843782019150505050505091905050610b98565b6040518082815260200191505060405180910390f35b34156102e557600080fd5b610311600480803573ffffffffffffffffffffffffffffffffffffffff16906020019091905050610e30565b6040518082815260200191505060405180910390f35b341561033257600080fd5b61033a610e48565b604051808273ffffffffffffffffffffffffffffffffffffffff1673ffffffffffffffffffffffffffffffffffffffff16815260200191505060405180910390f35b6103a8600480803573ffffffffffffffffffffffffffffffffffffffff16906020019091905050610744565b005b34156103b557600080fd5b6103cb6004808035906020019091905050610e6d565b604051808773ffffffffffffffffffffffffffffffffffffffff1673ffffffffffffffffffffffffffffffffffffffff1681526020018060200186151515158152602001856000191660001916815260200180602001806020018481038452898181546001816001161561010002031660029004815260200191508054600181600116156101000203166002900480156104a65780601f1061047b576101008083540402835291602001916104a6565b820191906000526020600020905b81548152906001019060200180831161048957829003601f168201915b50508481038352868181546001816001161561010002031660029004815260200191508054600181600116156101000203166002900480156105295780601f106104fe57610100808354040283529160200191610529565b820191906000526020600020905b81548152906001019060200180831161050c57829003601f168201915b50508481038252858181546001816001161561010002031660029004815260200191508054600181600116156101000203166002900480156105ac5780601f10610581576101008083540402835291602001916105ac565b820191906000526020600020905b81548152906001019060200180831161058f57829003601f168201915b5050995050505050505050505060405180910390f35b34156105cd57600080fd5b6105e36004808035906020019091905050610ee2565b6040518082815260200191505060405180910390f35b341561060457600080fd5b61060c610f0c565b005b341561061957600080fd5b610621611064565b6040518082600281111561063157fe5b60ff16815260200191505060405180910390f35b341561065057600080fd5b6106666004808035906020019091905050611077565b604051808473ffffffffffffffffffffffffffffffffffffffff1673ffffffffffffffffffffffffffffffffffffffff168152602001838152602001828152602001935050505060405180910390f35b34156106c157600080fd5b6106ed600480803573ffffffffffffffffffffffffffffffffffffffff169060200190919050506110d0565b005b34156106fa57600080fd5b610702611225565b604051808273ffffffffffffffffffffffffffffffffffffffff1673ffffffffffffffffffffffffffffffffffffffff16815260200191505060405180910390f35b6000809054906101000a900473ffffffffffffffffffffffffffffffffffffffff1673ffffffffffffffffffffffffffffffffffffffff163373ffffffffffffffffffffffffffffffffffffffff1614151561079f57600080fd5b6001600260146101000a81548160ff021916908360028111156107be57fe5b0217905550600260009054906101000a900473ffffffffffffffffffffffffffffffffffffffff1673ffffffffffffffffffffffffffffffffffffffff166108fc349081150290604051600060405180830381858888f19350505050151561082557600080fd5b61087734600160008473ffffffffffffffffffffffffffffffffffffffff1673ffffffffffffffffffffffffffffffffffffffff1681526020019081526020016000205461124b90919063ffffffff16565b600160008373ffffffffffffffffffffffffffffffffffffffff1673ffffffffffffffffffffffffffffffffffffffff16815260200190815260200160002081905550600260009054906101000a900473ffffffffffffffffffffffffffffffffffffffff1673ffffffffffffffffffffffffffffffffffffffff163373ffffffffffffffffffffffffffffffffffffffff167fae6905ed683ee316aa72cda27d03945d8f93ec0f2a213d899497c705cdbce4da600260149054906101000a900460ff166040518082600281111561094b57fe5b60ff16815260200191505060405180910390a350565b6000816040518082805190602001908083835b6020831015156109995780518252602082019150602081019050602083039250610974565b6001836020036101000a03801982511681845116808217855250505050505090500191505060405180910390209050919050565b600080600480548091906001016109e49190611269565b91506004828154811015156109f557fe5b90600052602060002090600302019050338160000160006101000a81548173ffffffffffffffffffffffffffffffffffffffff021916908373ffffffffffffffffffffffffffffffffffffffff160217905550838160010181905550828160020181905550833373ffffffffffffffffffffffffffffffffffffffff16837fabae455af5f2271c2159ed49e8728304bebc0f408ac8c99f47718c5cd5883c74866040518082815260200191505060405180910390a45092915050565b6000803373ffffffffffffffffffffffffffffffffffffffff16600484815481101515610ada57fe5b906000526020600020906003020160000160009054906101000a900473ffffffffffffffffffffffffffffffffffffffff1673ffffffffffffffffffffffffffffffffffffffff161415610b925760058054809190600101610b3c919061129b565b9150600582815481101515610b4d57fe5b9060005260206000209001905082816000018190555082827f2b8a481e89dc06ea8474e349f239119eeb28ade85f513c4dc565232864d2c40360405160405180910390a35b50919050565b60008060038054809190600101610baf91906112c7565b9150600382815481101515610bc057fe5b90600052602060002090600602019050338160000160006101000a81548173ffffffffffffffffffffffffffffffffffffffff021916908373ffffffffffffffffffffffffffffffffffffffff16021790555086816001019080519060200190610c2b9291906112f9565b50858160020160006101000a81548160ff0219169083151502179055508481600301816000191690555083816004019080519060200190610c6d9291906112f9565b5082816005019080519060200190610c869291906112f9565b5084600019163373ffffffffffffffffffffffffffffffffffffffff16837f377af03f7a20e598b24a0310bdbaa1734bf6b783731c6439efae85be4cbbba7b8a8a89896040518080602001851515151581526020018060200180602001848103845288818151815260200191508051906020019080838360005b83811015610d1b578082015181840152602081019050610d00565b50505050905090810190601f168015610d485780820380516001836020036101000a031916815260200191505b50848103835286818151815260200191508051906020019080838360005b83811015610d81578082015181840152602081019050610d66565b50505050905090810190601f168015610dae5780820380516001836020036101000a031916815260200191505b50848103825285818151815260200191508051906020019080838360005b83811015610de7578082015181840152602081019050610dcc565b50505050905090810190601f168015610e145780820380516001836020036101000a031916815260200191505b5097505050505050505060405180910390a45095945050505050565b60016020528060005260406000206000915090505481565b6000809054906101000a900473ffffffffffffffffffffffffffffffffffffffff1681565b600381815481101515610e7c57fe5b90600052602060002090600602016000915090508060000160009054906101000a900473ffffffffffffffffffffffffffffffffffffffff169080600101908060020160009054906101000a900460ff1690806003015490806004019080600501905086565b600581815481101515610ef157fe5b90600052602060002090016000915090508060000154905081565b6000809054906101000a900473ffffffffffffffffffffffffffffffffffffffff1673ffffffffffffffffffffffffffffffffffffffff163373ffffffffffffffffffffffffffffffffffffffff16141515610f6757600080fd5b60016002811115610f7457fe5b600260149054906101000a900460ff166002811115610f8f57fe5b141515610f9b57600080fd5b60028060146101000a81548160ff02191690836002811115610fb957fe5b0217905550600260009054906101000a900473ffffffffffffffffffffffffffffffffffffffff1673ffffffffffffffffffffffffffffffffffffffff163373ffffffffffffffffffffffffffffffffffffffff167fae6905ed683ee316aa72cda27d03945d8f93ec0f2a213d899497c705cdbce4da600260149054906101000a900460ff166040518082600281111561104f57fe5b60ff16815260200191505060405180910390a3565b600260149054906101000a900460ff1681565b60048181548110151561108657fe5b90600052602060002090600302016000915090508060000160009054906101000a900473ffffffffffffffffffffffffffffffffffffffff16908060010154908060020154905083565b6000809054906101000a900473ffffffffffffffffffffffffffffffffffffffff1673ffffffffffffffffffffffffffffffffffffffff163373ffffffffffffffffffffffffffffffffffffffff1614151561112b57600080fd5b600073ffffffffffffffffffffffffffffffffffffffff168173ffffffffffffffffffffffffffffffffffffffff161415151561116757600080fd5b8073ffffffffffffffffffffffffffffffffffffffff166000809054906101000a900473ffffffffffffffffffffffffffffffffffffffff1673ffffffffffffffffffffffffffffffffffffffff167f8be0079c531659141344cd1fd0a4f28419497f9722a3daafe3b4186f6b6457e060405160405180910390a3806000806101000a81548173ffffffffffffffffffffffffffffffffffffffff021916908373ffffffffffffffffffffffffffffffffffffffff16021790555050565b600260009054906101000a900473ffffffffffffffffffffffffffffffffffffffff1681565b600080828401905083811015151561125f57fe5b8091505092915050565b815481835581811511611296576003028160030283600052602060002091820191016112959190611379565b5b505050565b8154818355818115116112c2578183600052602060002091820191016112c191906113cf565b5b505050565b8154818355818115116112f4576006028160060283600052602060002091820191016112f391906113f6565b5b505050565b828054600181600116156101000203166002900490600052602060002090601f016020900481019282601f1061133a57805160ff1916838001178555611368565b82800160010185558215611368579182015b8281111561136757825182559160200191906001019061134c565b5b5090506113759190611488565b5090565b6113cc91905b808211156113c857600080820160006101000a81549073ffffffffffffffffffffffffffffffffffffffff0219169055600182016000905560028201600090555060030161137f565b5090565b90565b6113f391905b808211156113ef57600080820160009055506001016113d5565b5090565b90565b61148591905b8082111561148157600080820160006101000a81549073ffffffffffffffffffffffffffffffffffffffff021916905560018201600061143c91906114ad565b6002820160006101000a81549060ff0219169055600382016000905560048201600061146891906114ad565b60058201600061147891906114ad565b506006016113fc565b5090565b90565b6114aa91905b808211156114a657600081600090555060010161148e565b5090565b90565b50805460018160011615610100020316600290046000825580601f106114d357506114f2565b601f0160209004906000526020600020908101906114f19190611488565b5b505600a165627a7a72305820369fe4eb7437bce62fd203267220f9b22e451163eba65ca6256e66c95c8ee0580029",
  "source": "pragma solidity ^0.4.18;\n\nimport '../math/SafeMath.sol';\nimport '../ownership/Ownable.sol';\n\ncontract Key is Ownable {\n   using SafeMath for uint256;\n    \n   enum State { Issued, Active, Returned }\n   event KeyStateUpdate(address indexed beneficiary, address indexed vault, State status);\n    \n   enum Health { Provisioning, Certified, Modified, Compromised, Malfunctioning, Harmful, Counterfeit }\n   event HealthUpdate(Health status);\n    \n   mapping (address => uint256) public activated;\n   address public vault;\n   State public state;\n\n   struct Attr {\n        address user;\n        string attrType;\n        bool has_proof;\n        bytes32 id;\n        string data;\n        string datahash;\n   }\n\n   struct Sign {\n        address signer;\n        uint attrID;\n        uint expiry;\n   }\n\n   struct Rev {\n        uint signID;\n   }\n\n   Attr[] public attrs;\n   Sign[] public signs;\n   Rev[] public revs;\n\n   event AttrAdded(uint indexed attrID, address indexed user, string attrType, bool has_proof, bytes32 indexed id, string data, string datahash);\n   event AttrSigned(uint indexed signID, address indexed signer, uint indexed attrID, uint expiry);\n   event SignRev(uint indexed revID, uint indexed signID);\n\n   mapping(bytes32 => string) map;\n\n   function Key(address _vault) \n   public\n   {\n        require(_vault != 0x0);\n        vault = _vault;\n        state = State.Issued;\n        KeyStateUpdate(msg.sender, vault, state);\n   }\n\n   function addAttr(string attrType, bool has_proof, bytes32 id, string data, string datahash) \n   public\n   returns (uint attrID) \n   {\n        attrID = attrs.length++;\n        Attr storage attr = attrs[attrID];\n        attr.user = msg.sender;\n        attr.attrType = attrType;\n        attr.has_proof = has_proof;\n        attr.id = id;\n        attr.data = data;\n        attr.datahash = datahash;\n        AttrAdded(attrID, msg.sender, attrType, has_proof, id, data, datahash);\n   }\n\n   function signAttr(uint attrID, uint expiry)\n   public\n   returns (uint signID) \n   {\n        signID = signs.length++;\n        Sign storage sign = signs[signID];\n        sign.signer = msg.sender;\n        sign.attrID = attrID;\n        sign.expiry = expiry;\n        AttrSigned(signID, msg.sender, attrID, expiry);\n   }\n\n   function revSign(uint signID) \n   public\n   returns (uint revID) \n   {\n        if (signs[signID].signer == msg.sender) {\n            revID = revs.length++;\n            Rev storage rev = revs[revID];\n            rev.signID = signID;\n            SignRev(revID, signID);\n        }\n   }\n    \n   function () \n   public\n   payable \n   {\n        activateKey(msg.sender);\n   }\n\n   \n   function activateKey(address user) \n   public\n   onlyOwner \n   payable \n   {\n        state = State.Active;\n        vault.transfer(msg.value);\n        activated[user] = activated[user].add(msg.value);\n        KeyStateUpdate(msg.sender, vault, state);\n   }\n\n   function returnKey() \n   public\n   onlyOwner \n   {\n        require(state == State.Active);\n        state = State.Returned;\n        KeyStateUpdate(msg.sender, vault, state);\n   }\n   \n\n   function getHash(string key) \n   pure\n   public\n   returns(bytes32) {\n        return keccak256(key);\n   }\n\n   /*\n   function addKeyValueByHash(bytes32 hash, string value) \n   public\n   returns(bool)\n   {\n        if(bytes(map[hash]).length != 0) { // Don't overwrite previous mappings and return false\n            return false;\n        }\n        map[hash] = value;\n        return true;\n   }\n\n   function getValueByHash(bytes32 hash) \n   constant    \n   public\n   returns(string) {\n        return map[hash];\n   }\n\n   function addKeyValue(string key, string value) \n   public\n   returns(bool){\n        return addKeyValueByHash(keccak256(key), value);\n   }\n\n   function getValue(string key) \n   constant \n   public\n   returns(string){\n        return getValueByHash(keccak256(key));\n   }\n   */\n}",
  "sourcePath": "/home/forge/solidity/iotblock/contracts/pki/Key.sol",
  "compiler": {
    "name": "solc",
    "version": "0.4.19+commit.c4cbbb05.Emscripten.clang"
  },
  "schemaVersion": "2.0.0",
  "updatedAt": "2018-03-15T17:34:55.648Z"
}