{
  "contractName": "PoolKey",
  "abi": [
    {
      "constant": true,
      "inputs": [
        {
          "name": "",
          "type": "uint256"
        }
      ],
      "name": "admins",
      "outputs": [
        {
          "name": "",
          "type": "address"
        }
      ],
      "payable": false,
      "stateMutability": "view",
      "type": "function"
    },
    {
      "constant": true,
      "inputs": [
        {
          "name": "",
          "type": "address"
        }
      ],
      "name": "isAdmin",
      "outputs": [
        {
          "name": "",
          "type": "bool"
        }
      ],
      "payable": false,
      "stateMutability": "view",
      "type": "function"
    },
    {
      "constant": true,
      "inputs": [],
      "name": "getAdmins",
      "outputs": [
        {
          "name": "",
          "type": "address[]"
        }
      ],
      "payable": false,
      "stateMutability": "view",
      "type": "function"
    },
    {
      "constant": true,
      "inputs": [
        {
          "name": "",
          "type": "address"
        }
      ],
      "name": "isWhitelisted",
      "outputs": [
        {
          "name": "",
          "type": "bool"
        }
      ],
      "payable": false,
      "stateMutability": "view",
      "type": "function"
    },
    {
      "constant": true,
      "inputs": [
        {
          "name": "key",
          "type": "string"
        }
      ],
      "name": "getHash",
      "outputs": [
        {
          "name": "",
          "type": "bytes32"
        }
      ],
      "payable": false,
      "stateMutability": "pure",
      "type": "function"
    },
    {
      "constant": false,
      "inputs": [
        {
          "name": "attrID",
          "type": "uint256"
        },
        {
          "name": "expiry",
          "type": "uint256"
        }
      ],
      "name": "signAttr",
      "outputs": [
        {
          "name": "signID",
          "type": "uint256"
        }
      ],
      "payable": false,
      "stateMutability": "nonpayable",
      "type": "function"
    },
    {
      "constant": false,
      "inputs": [
        {
          "name": "signID",
          "type": "uint256"
        }
      ],
      "name": "revSign",
      "outputs": [
        {
          "name": "revID",
          "type": "uint256"
        }
      ],
      "payable": false,
      "stateMutability": "nonpayable",
      "type": "function"
    },
    {
      "constant": false,
      "inputs": [
        {
          "name": "attrType",
          "type": "string"
        },
        {
          "name": "has_proof",
          "type": "bool"
        },
        {
          "name": "id",
          "type": "bytes32"
        },
        {
          "name": "data",
          "type": "string"
        },
        {
          "name": "datahash",
          "type": "string"
        }
      ],
      "name": "addAttr",
      "outputs": [
        {
          "name": "attrID",
          "type": "uint256"
        }
      ],
      "payable": false,
      "stateMutability": "nonpayable",
      "type": "function"
    },
    {
      "constant": false,
      "inputs": [
        {
          "name": "admin",
          "type": "address"
        }
      ],
      "name": "addAdmin",
      "outputs": [],
      "payable": false,
      "stateMutability": "nonpayable",
      "type": "function"
    },
    {
      "constant": true,
      "inputs": [
        {
          "name": "",
          "type": "address"
        }
      ],
      "name": "activated",
      "outputs": [
        {
          "name": "",
          "type": "uint256"
        }
      ],
      "payable": false,
      "stateMutability": "view",
      "type": "function"
    },
    {
      "constant": true,
      "inputs": [
        {
          "name": "",
          "type": "uint256"
        }
      ],
      "name": "whitelist",
      "outputs": [
        {
          "name": "",
          "type": "address"
        }
      ],
      "payable": false,
      "stateMutability": "view",
      "type": "function"
    },
    {
      "constant": true,
      "inputs": [],
      "name": "owner",
      "outputs": [
        {
          "name": "",
          "type": "address"
        }
      ],
      "payable": false,
      "stateMutability": "view",
      "type": "function"
    },
    {
      "constant": false,
      "inputs": [
        {
          "name": "user",
          "type": "address"
        }
      ],
      "name": "activateKey",
      "outputs": [],
      "payable": true,
      "stateMutability": "payable",
      "type": "function"
    },
    {
      "constant": true,
      "inputs": [
        {
          "name": "",
          "type": "address"
        }
      ],
      "name": "isBanned",
      "outputs": [
        {
          "name": "",
          "type": "bool"
        }
      ],
      "payable": false,
      "stateMutability": "view",
      "type": "function"
    },
    {
      "constant": true,
      "inputs": [
        {
          "name": "",
          "type": "uint256"
        }
      ],
      "name": "attrs",
      "outputs": [
        {
          "name": "user",
          "type": "address"
        },
        {
          "name": "attrType",
          "type": "string"
        },
        {
          "name": "has_proof",
          "type": "bool"
        },
        {
          "name": "id",
          "type": "bytes32"
        },
        {
          "name": "data",
          "type": "string"
        },
        {
          "name": "datahash",
          "type": "string"
        }
      ],
      "payable": false,
      "stateMutability": "view",
      "type": "function"
    },
    {
      "constant": true,
      "inputs": [
        {
          "name": "",
          "type": "uint256"
        }
      ],
      "name": "revs",
      "outputs": [
        {
          "name": "signID",
          "type": "uint256"
        }
      ],
      "payable": false,
      "stateMutability": "view",
      "type": "function"
    },
    {
      "constant": false,
      "inputs": [],
      "name": "returnKey",
      "outputs": [],
      "payable": false,
      "stateMutability": "nonpayable",
      "type": "function"
    },
    {
      "constant": true,
      "inputs": [],
      "name": "state",
      "outputs": [
        {
          "name": "",
          "type": "uint8"
        }
      ],
      "payable": false,
      "stateMutability": "view",
      "type": "function"
    },
    {
      "constant": true,
      "inputs": [
        {
          "name": "",
          "type": "uint256"
        }
      ],
      "name": "signs",
      "outputs": [
        {
          "name": "signer",
          "type": "address"
        },
        {
          "name": "attrID",
          "type": "uint256"
        },
        {
          "name": "expiry",
          "type": "uint256"
        }
      ],
      "payable": false,
      "stateMutability": "view",
      "type": "function"
    },
    {
      "constant": true,
      "inputs": [],
      "name": "getWhitelist",
      "outputs": [
        {
          "name": "",
          "type": "address[]"
        }
      ],
      "payable": false,
      "stateMutability": "view",
      "type": "function"
    },
    {
      "constant": false,
      "inputs": [
        {
          "name": "banned",
          "type": "address"
        }
      ],
      "name": "addBanned",
      "outputs": [],
      "payable": false,
      "stateMutability": "nonpayable",
      "type": "function"
    },
    {
      "constant": false,
      "inputs": [
        {
          "name": "newOwner",
          "type": "address"
        }
      ],
      "name": "transferOwnership",
      "outputs": [],
      "payable": false,
      "stateMutability": "nonpayable",
      "type": "function"
    },
    {
      "constant": false,
      "inputs": [
        {
          "name": "_whitelistAddress",
          "type": "address"
        }
      ],
      "name": "addWhitelist",
      "outputs": [],
      "payable": false,
      "stateMutability": "nonpayable",
      "type": "function"
    },
    {
      "constant": true,
      "inputs": [],
      "name": "vault",
      "outputs": [
        {
          "name": "",
          "type": "address"
        }
      ],
      "payable": false,
      "stateMutability": "view",
      "type": "function"
    },
    {
      "inputs": [
        {
          "name": "_poolVault",
          "type": "address"
        },
        {
          "name": "_beneficiary",
          "type": "address"
        },
        {
          "name": "_max_contrib",
          "type": "uint256"
        },
        {
          "name": "_max_per_contrib",
          "type": "uint256"
        },
        {
          "name": "_min_per_contrib",
          "type": "uint256"
        },
        {
          "name": "_admins",
          "type": "address[]"
        },
        {
          "name": "_whitelist",
          "type": "address[]"
        },
        {
          "name": "_fee",
          "type": "uint256"
        }
      ],
      "payable": false,
      "stateMutability": "nonpayable",
      "type": "constructor"
    },
    {
      "payable": true,
      "stateMutability": "payable",
      "type": "fallback"
    },
    {
      "anonymous": false,
      "inputs": [
        {
          "indexed": true,
          "name": "beneficiary",
          "type": "address"
        },
        {
          "indexed": true,
          "name": "vault",
          "type": "address"
        },
        {
          "indexed": false,
          "name": "status",
          "type": "uint8"
        }
      ],
      "name": "KeyStateUpdate",
      "type": "event"
    },
    {
      "anonymous": false,
      "inputs": [
        {
          "indexed": false,
          "name": "status",
          "type": "uint8"
        }
      ],
      "name": "HealthUpdate",
      "type": "event"
    },
    {
      "anonymous": false,
      "inputs": [
        {
          "indexed": true,
          "name": "attrID",
          "type": "uint256"
        },
        {
          "indexed": true,
          "name": "user",
          "type": "address"
        },
        {
          "indexed": false,
          "name": "attrType",
          "type": "string"
        },
        {
          "indexed": false,
          "name": "has_proof",
          "type": "bool"
        },
        {
          "indexed": true,
          "name": "id",
          "type": "bytes32"
        },
        {
          "indexed": false,
          "name": "data",
          "type": "string"
        },
        {
          "indexed": false,
          "name": "datahash",
          "type": "string"
        }
      ],
      "name": "AttrAdded",
      "type": "event"
    },
    {
      "anonymous": false,
      "inputs": [
        {
          "indexed": true,
          "name": "signID",
          "type": "uint256"
        },
        {
          "indexed": true,
          "name": "signer",
          "type": "address"
        },
        {
          "indexed": true,
          "name": "attrID",
          "type": "uint256"
        },
        {
          "indexed": false,
          "name": "expiry",
          "type": "uint256"
        }
      ],
      "name": "AttrSigned",
      "type": "event"
    },
    {
      "anonymous": false,
      "inputs": [
        {
          "indexed": true,
          "name": "revID",
          "type": "uint256"
        },
        {
          "indexed": true,
          "name": "signID",
          "type": "uint256"
        }
      ],
      "name": "SignRev",
      "type": "event"
    },
    {
      "anonymous": false,
      "inputs": [
        {
          "indexed": true,
          "name": "previousOwner",
          "type": "address"
        },
        {
          "indexed": true,
          "name": "newOwner",
          "type": "address"
        }
      ],
      "name": "OwnershipTransferred",
      "type": "event"
    }
  ],
  "bytecode": "0x606060405234156200001057600080fd5b604051620028de380380620028de83398101604052808051906020019091908051906020019091908051906020019091908051906020019091908051906020019091908051820191906020018051820191906020018051906020019091905050600080848460008260008d336000806101000a81548173ffffffffffffffffffffffffffffffffffffffff021916908373ffffffffffffffffffffffffffffffffffffffff16021790555060008173ffffffffffffffffffffffffffffffffffffffff1614151515620000e257600080fd5b80600260006101000a81548173ffffffffffffffffffffffffffffffffffffffff021916908373ffffffffffffffffffffffffffffffffffffffff1602179055506000600260146101000a81548160ff021916908360028111156200014357fe5b0217905550600260009054906101000a900473ffffffffffffffffffffffffffffffffffffffff1673ffffffffffffffffffffffffffffffffffffffff163373ffffffffffffffffffffffffffffffffffffffff167fae6905ed683ee316aa72cda27d03945d8f93ec0f2a213d899497c705cdbce4da600260149054906101000a900460ff1660405180826002811115620001da57fe5b60ff16815260200191505060405180910390a350600090505b81518110156200027b5760016007600084848151811015156200021257fe5b9060200190602002015173ffffffffffffffffffffffffffffffffffffffff1673ffffffffffffffffffffffffffffffffffffffff16815260200190815260200160002060006101000a81548160ff0219169083151502179055508080600101915050620001f3565b81600990805190602001906200029392919062000528565b5050506000825111156200036857600090505b81518110156200032e576001600a60008484815181101515620002c557fe5b9060200190602002015173ffffffffffffffffffffffffffffffffffffffff1673ffffffffffffffffffffffffffffffffffffffff16815260200190815260200160002060006101000a81548160ff0219169083151502179055508080600101915050620002a6565b81600b90805190602001906200034692919062000528565b506001600c60006101000a81548160ff02191690831515021790555062000384565b6000600c60006101000a81548160ff0219169083151502179055505b50505089600e60006101000a81548173ffffffffffffffffffffffffffffffffffffffff021916908373ffffffffffffffffffffffffffffffffffffffff16021790555082601381905550876010819055508660118190555085601281905550600091505b84518210156200047e57600d8054806001018281620004099190620005b7565b9160005260206000209001600087858151811015156200042557fe5b90602001906020020151909190916101000a81548173ffffffffffffffffffffffffffffffffffffffff021916908373ffffffffffffffffffffffffffffffffffffffff160217905550508180600101925050620003e9565b600090505b83518110156200051857600d8054806001018281620004a39190620005b7565b916000526020600020900160008684815181101515620004bf57fe5b90602001906020020151909190916101000a81548173ffffffffffffffffffffffffffffffffffffffff021916908373ffffffffffffffffffffffffffffffffffffffff16021790555050808060010191505062000483565b5050505050505050505062000654565b828054828255906000526020600020908101928215620005a4579160200282015b82811115620005a35782518260006101000a81548173ffffffffffffffffffffffffffffffffffffffff021916908373ffffffffffffffffffffffffffffffffffffffff1602179055509160200191906001019062000549565b5b509050620005b39190620005e6565b5090565b815481835581811511620005e157818360005260206000209182019101620005e091906200062c565b5b505050565b6200062991905b808211156200062557600081816101000a81549073ffffffffffffffffffffffffffffffffffffffff021916905550600101620005ed565b5090565b90565b6200065191905b808211156200064d57600081600090555060010162000633565b5090565b90565b61227a80620006646000396000f30060606040526004361061013e576000357c0100000000000000000000000000000000000000000000000000000000900463ffffffff16806314bfd6d01461031b57806324d7806c1461037e57806331ae450b146103cf5780633af32abf146104395780635b6beeb91461048a57806361c1350d146105035780636db59df8146105435780637012e30a1461057a5780637048027514610689578063779d8677146106c25780637ebd1b301461070f5780638da5cb5b146107725780639172fe08146107c757806397f735d5146107f55780639ebd36f314610846578063a1f811ef14610a5e578063af92c18114610a95578063c19d93fb14610aaa578063cb75b99714610ae1578063d01f63f514610b52578063e1b2e8b314610bbc578063f2fde38b14610bf5578063f80f5dd514610c2e578063fbfa77cf14610c67575b600080600080600034945061015d60c886610cbc90919063ffffffff16565b935061017460135486610cbc90919063ffffffff16565b925061019b8361018d8688610cd790919063ffffffff16565b610cd790919063ffffffff16565b91506101b5600d8054905083610cbc90919063ffffffff16565b9150600e60009054906101000a900473ffffffffffffffffffffffffffffffffffffffff1673ffffffffffffffffffffffffffffffffffffffff166108fc859081150290604051600060405180830381858888f19350505050151561021957600080fd5b600260009054906101000a900473ffffffffffffffffffffffffffffffffffffffff1673ffffffffffffffffffffffffffffffffffffffff166108fc849081150290604051600060405180830381858888f19350505050151561027b57600080fd5b600090505b600d8054905081101561031457600d8181548110151561029c57fe5b906000526020600020900160009054906101000a900473ffffffffffffffffffffffffffffffffffffffff1673ffffffffffffffffffffffffffffffffffffffff166108fc839081150290604051600060405180830381858888f19350505050151561030757600080fd5b8080600101915050610280565b5050505050005b341561032657600080fd5b61033c6004808035906020019091905050610cf0565b604051808273ffffffffffffffffffffffffffffffffffffffff1673ffffffffffffffffffffffffffffffffffffffff16815260200191505060405180910390f35b341561038957600080fd5b6103b5600480803573ffffffffffffffffffffffffffffffffffffffff16906020019091905050610d2f565b604051808215151515815260200191505060405180910390f35b34156103da57600080fd5b6103e2610d4f565b6040518080602001828103825283818151815260200191508051906020019060200280838360005b8381101561042557808201518184015260208101905061040a565b505050509050019250505060405180910390f35b341561044457600080fd5b610470600480803573ffffffffffffffffffffffffffffffffffffffff16906020019091905050610de3565b604051808215151515815260200191505060405180910390f35b341561049557600080fd5b6104e5600480803590602001908201803590602001908080601f01602080910402602001604051908101604052809392919081815260200183838082843782019150505050505091905050610e03565b60405180826000191660001916815260200191505060405180910390f35b341561050e57600080fd5b61052d6004808035906020019091908035906020019091905050610e6f565b6040518082815260200191505060405180910390f35b341561054e57600080fd5b6105646004808035906020019091905050610f53565b6040518082815260200191505060405180910390f35b341561058557600080fd5b610673600480803590602001908201803590602001908080601f0160208091040260200160405190810160405280939291908181526020018383808284378201915050505050509190803515159060200190919080356000191690602001909190803590602001908201803590602001908080601f0160208091040260200160405190810160405280939291908181526020018383808284378201915050505050509190803590602001908201803590602001908080601f0160208091040260200160405190810160405280939291908181526020018383808284378201915050505050509190505061103a565b6040518082815260200191505060405180910390f35b341561069457600080fd5b6106c0600480803573ffffffffffffffffffffffffffffffffffffffff169060200190919050506112d2565b005b34156106cd57600080fd5b6106f9600480803573ffffffffffffffffffffffffffffffffffffffff169060200190919050506114f2565b6040518082815260200191505060405180910390f35b341561071a57600080fd5b610730600480803590602001909190505061150a565b604051808273ffffffffffffffffffffffffffffffffffffffff1673ffffffffffffffffffffffffffffffffffffffff16815260200191505060405180910390f35b341561077d57600080fd5b610785611549565b604051808273ffffffffffffffffffffffffffffffffffffffff1673ffffffffffffffffffffffffffffffffffffffff16815260200191505060405180910390f35b6107f3600480803573ffffffffffffffffffffffffffffffffffffffff1690602001909190505061156e565b005b341561080057600080fd5b61082c600480803573ffffffffffffffffffffffffffffffffffffffff1690602001909190505061178b565b604051808215151515815260200191505060405180910390f35b341561085157600080fd5b61086760048080359060200190919050506117ab565b604051808773ffffffffffffffffffffffffffffffffffffffff1673ffffffffffffffffffffffffffffffffffffffff1681526020018060200186151515158152602001856000191660001916815260200180602001806020018481038452898181546001816001161561010002031660029004815260200191508054600181600116156101000203166002900480156109425780601f1061091757610100808354040283529160200191610942565b820191906000526020600020905b81548152906001019060200180831161092557829003601f168201915b50508481038352868181546001816001161561010002031660029004815260200191508054600181600116156101000203166002900480156109c55780601f1061099a576101008083540402835291602001916109c5565b820191906000526020600020905b8154815290600101906020018083116109a857829003601f168201915b5050848103825285818154600181600116156101000203166002900481526020019150805460018160011615610100020316600290048015610a485780601f10610a1d57610100808354040283529160200191610a48565b820191906000526020600020905b815481529060010190602001808311610a2b57829003601f168201915b5050995050505050505050505060405180910390f35b3415610a6957600080fd5b610a7f6004808035906020019091905050611820565b6040518082815260200191505060405180910390f35b3415610aa057600080fd5b610aa861184a565b005b3415610ab557600080fd5b610abd6119a2565b60405180826002811115610acd57fe5b60ff16815260200191505060405180910390f35b3415610aec57600080fd5b610b0260048080359060200190919050506119b5565b604051808473ffffffffffffffffffffffffffffffffffffffff1673ffffffffffffffffffffffffffffffffffffffff168152602001838152602001828152602001935050505060405180910390f35b3415610b5d57600080fd5b610b65611a0e565b6040518080602001828103825283818151815260200191508051906020019060200280838360005b83811015610ba8578082015181840152602081019050610b8d565b505050509050019250505060405180910390f35b3415610bc757600080fd5b610bf3600480803573ffffffffffffffffffffffffffffffffffffffff16906020019091905050611aa2565b005b3415610c0057600080fd5b610c2c600480803573ffffffffffffffffffffffffffffffffffffffff16906020019091905050611c5f565b005b3415610c3957600080fd5b610c65600480803573ffffffffffffffffffffffffffffffffffffffff16906020019091905050611db4565b005b3415610c7257600080fd5b610c7a611f3e565b604051808273ffffffffffffffffffffffffffffffffffffffff1673ffffffffffffffffffffffffffffffffffffffff16815260200191505060405180910390f35b6000808284811515610cca57fe5b0490508091505092915050565b6000828211151515610ce557fe5b818303905092915050565b600981815481101515610cff57fe5b90600052602060002090016000915054906101000a900473ffffffffffffffffffffffffffffffffffffffff1681565b60076020528060005260406000206000915054906101000a900460ff1681565b610d57611f82565b6009805480602002602001604051908101604052809291908181526020018280548015610dd957602002820191906000526020600020905b8160009054906101000a900473ffffffffffffffffffffffffffffffffffffffff1673ffffffffffffffffffffffffffffffffffffffff1681526020019060010190808311610d8f575b5050505050905090565b600a6020528060005260406000206000915054906101000a900460ff1681565b6000816040518082805190602001908083835b602083101515610e3b5780518252602082019150602081019050602083039250610e16565b6001836020036101000a03801982511681845116808217855250505050505090500191505060405180910390209050919050565b60008060048054809190600101610e869190611f96565b9150600482815481101515610e9757fe5b90600052602060002090600302019050338160000160006101000a81548173ffffffffffffffffffffffffffffffffffffffff021916908373ffffffffffffffffffffffffffffffffffffffff160217905550838160010181905550828160020181905550833373ffffffffffffffffffffffffffffffffffffffff16837fabae455af5f2271c2159ed49e8728304bebc0f408ac8c99f47718c5cd5883c74866040518082815260200191505060405180910390a45092915050565b6000803373ffffffffffffffffffffffffffffffffffffffff16600484815481101515610f7c57fe5b906000526020600020906003020160000160009054906101000a900473ffffffffffffffffffffffffffffffffffffffff1673ffffffffffffffffffffffffffffffffffffffff1614156110345760058054809190600101610fde9190611fc8565b9150600582815481101515610fef57fe5b9060005260206000209001905082816000018190555082827f2b8a481e89dc06ea8474e349f239119eeb28ade85f513c4dc565232864d2c40360405160405180910390a35b50919050565b600080600380548091906001016110519190611ff4565b915060038281548110151561106257fe5b90600052602060002090600602019050338160000160006101000a81548173ffffffffffffffffffffffffffffffffffffffff021916908373ffffffffffffffffffffffffffffffffffffffff160217905550868160010190805190602001906110cd929190612026565b50858160020160006101000a81548160ff021916908315150217905550848160030181600019169055508381600401908051906020019061110f929190612026565b5082816005019080519060200190611128929190612026565b5084600019163373ffffffffffffffffffffffffffffffffffffffff16837f377af03f7a20e598b24a0310bdbaa1734bf6b783731c6439efae85be4cbbba7b8a8a89896040518080602001851515151581526020018060200180602001848103845288818151815260200191508051906020019080838360005b838110156111bd5780820151818401526020810190506111a2565b50505050905090810190601f1680156111ea5780820380516001836020036101000a031916815260200191505b50848103835286818151815260200191508051906020019080838360005b83811015611223578082015181840152602081019050611208565b50505050905090810190601f1680156112505780820380516001836020036101000a031916815260200191505b50848103825285818151815260200191508051906020019080838360005b8381101561128957808201518184015260208101905061126e565b50505050905090810190601f1680156112b65780820380516001836020036101000a031916815260200191505b5097505050505050505060405180910390a45095945050505050565b600760003373ffffffffffffffffffffffffffffffffffffffff1673ffffffffffffffffffffffffffffffffffffffff16815260200190815260200160002060009054906101000a900460ff16151561132a57600080fd5b600860003373ffffffffffffffffffffffffffffffffffffffff1673ffffffffffffffffffffffffffffffffffffffff16815260200190815260200160002060009054906101000a900460ff1615151561138357600080fd5b600760003373ffffffffffffffffffffffffffffffffffffffff1673ffffffffffffffffffffffffffffffffffffffff16815260200190815260200160002060009054906101000a900460ff1615156113db57600080fd5b600860003373ffffffffffffffffffffffffffffffffffffffff1673ffffffffffffffffffffffffffffffffffffffff16815260200190815260200160002060009054906101000a900460ff1615151561143457600080fd5b6001600760008373ffffffffffffffffffffffffffffffffffffffff1673ffffffffffffffffffffffffffffffffffffffff16815260200190815260200160002060006101000a81548160ff021916908315150217905550600980548060010182816114a091906120a6565b9160005260206000209001600083909190916101000a81548173ffffffffffffffffffffffffffffffffffffffff021916908373ffffffffffffffffffffffffffffffffffffffff1602179055505050565b60016020528060005260406000206000915090505481565b600b8181548110151561151957fe5b90600052602060002090016000915054906101000a900473ffffffffffffffffffffffffffffffffffffffff1681565b6000809054906101000a900473ffffffffffffffffffffffffffffffffffffffff1681565b6000809054906101000a900473ffffffffffffffffffffffffffffffffffffffff1673ffffffffffffffffffffffffffffffffffffffff163373ffffffffffffffffffffffffffffffffffffffff161415156115c957600080fd5b6001600260146101000a81548160ff021916908360028111156115e857fe5b0217905550600260009054906101000a900473ffffffffffffffffffffffffffffffffffffffff1673ffffffffffffffffffffffffffffffffffffffff166108fc349081150290604051600060405180830381858888f19350505050151561164f57600080fd5b6116a134600160008473ffffffffffffffffffffffffffffffffffffffff1673ffffffffffffffffffffffffffffffffffffffff16815260200190815260200160002054611f6490919063ffffffff16565b600160008373ffffffffffffffffffffffffffffffffffffffff1673ffffffffffffffffffffffffffffffffffffffff16815260200190815260200160002081905550600260009054906101000a900473ffffffffffffffffffffffffffffffffffffffff1673ffffffffffffffffffffffffffffffffffffffff163373ffffffffffffffffffffffffffffffffffffffff167fae6905ed683ee316aa72cda27d03945d8f93ec0f2a213d899497c705cdbce4da600260149054906101000a900460ff166040518082600281111561177557fe5b60ff16815260200191505060405180910390a350565b60086020528060005260406000206000915054906101000a900460ff1681565b6003818154811015156117ba57fe5b90600052602060002090600602016000915090508060000160009054906101000a900473ffffffffffffffffffffffffffffffffffffffff169080600101908060020160009054906101000a900460ff1690806003015490806004019080600501905086565b60058181548110151561182f57fe5b90600052602060002090016000915090508060000154905081565b6000809054906101000a900473ffffffffffffffffffffffffffffffffffffffff1673ffffffffffffffffffffffffffffffffffffffff163373ffffffffffffffffffffffffffffffffffffffff161415156118a557600080fd5b600160028111156118b257fe5b600260149054906101000a900460ff1660028111156118cd57fe5b1415156118d957600080fd5b60028060146101000a81548160ff021916908360028111156118f757fe5b0217905550600260009054906101000a900473ffffffffffffffffffffffffffffffffffffffff1673ffffffffffffffffffffffffffffffffffffffff163373ffffffffffffffffffffffffffffffffffffffff167fae6905ed683ee316aa72cda27d03945d8f93ec0f2a213d899497c705cdbce4da600260149054906101000a900460ff166040518082600281111561198d57fe5b60ff16815260200191505060405180910390a3565b600260149054906101000a900460ff1681565b6004818154811015156119c457fe5b90600052602060002090600302016000915090508060000160009054906101000a900473ffffffffffffffffffffffffffffffffffffffff16908060010154908060020154905083565b611a16611f82565b600b805480602002602001604051908101604052809291908181526020018280548015611a9857602002820191906000526020600020905b8160009054906101000a900473ffffffffffffffffffffffffffffffffffffffff1673ffffffffffffffffffffffffffffffffffffffff1681526020019060010190808311611a4e575b5050505050905090565b600760003373ffffffffffffffffffffffffffffffffffffffff1673ffffffffffffffffffffffffffffffffffffffff16815260200190815260200160002060009054906101000a900460ff161515611afa57600080fd5b600860003373ffffffffffffffffffffffffffffffffffffffff1673ffffffffffffffffffffffffffffffffffffffff16815260200190815260200160002060009054906101000a900460ff16151515611b5357600080fd5b600760003373ffffffffffffffffffffffffffffffffffffffff1673ffffffffffffffffffffffffffffffffffffffff16815260200190815260200160002060009054906101000a900460ff161515611bab57600080fd5b600860003373ffffffffffffffffffffffffffffffffffffffff1673ffffffffffffffffffffffffffffffffffffffff16815260200190815260200160002060009054906101000a900460ff16151515611c0457600080fd5b6001600860008373ffffffffffffffffffffffffffffffffffffffff1673ffffffffffffffffffffffffffffffffffffffff16815260200190815260200160002060006101000a81548160ff02191690831515021790555050565b6000809054906101000a900473ffffffffffffffffffffffffffffffffffffffff1673ffffffffffffffffffffffffffffffffffffffff163373ffffffffffffffffffffffffffffffffffffffff16141515611cba57600080fd5b600073ffffffffffffffffffffffffffffffffffffffff168173ffffffffffffffffffffffffffffffffffffffff1614151515611cf657600080fd5b8073ffffffffffffffffffffffffffffffffffffffff166000809054906101000a900473ffffffffffffffffffffffffffffffffffffffff1673ffffffffffffffffffffffffffffffffffffffff167f8be0079c531659141344cd1fd0a4f28419497f9722a3daafe3b4186f6b6457e060405160405180910390a3806000806101000a81548173ffffffffffffffffffffffffffffffffffffffff021916908373ffffffffffffffffffffffffffffffffffffffff16021790555050565b600760003373ffffffffffffffffffffffffffffffffffffffff1673ffffffffffffffffffffffffffffffffffffffff16815260200190815260200160002060009054906101000a900460ff161515611e0c57600080fd5b600860003373ffffffffffffffffffffffffffffffffffffffff1673ffffffffffffffffffffffffffffffffffffffff16815260200190815260200160002060009054906101000a900460ff16151515611e6557600080fd5b6001600a60008373ffffffffffffffffffffffffffffffffffffffff1673ffffffffffffffffffffffffffffffffffffffff16815260200190815260200160002060006101000a81548160ff021916908315150217905550600b8054806001018281611ed191906120a6565b9160005260206000209001600083909190916101000a81548173ffffffffffffffffffffffffffffffffffffffff021916908373ffffffffffffffffffffffffffffffffffffffff160217905550506001600c60006101000a81548160ff02191690831515021790555050565b600260009054906101000a900473ffffffffffffffffffffffffffffffffffffffff1681565b6000808284019050838110151515611f7857fe5b8091505092915050565b602060405190810160405280600081525090565b815481835581811511611fc357600302816003028360005260206000209182019101611fc291906120d2565b5b505050565b815481835581811511611fef57818360005260206000209182019101611fee9190612128565b5b505050565b81548183558181151161202157600602816006028360005260206000209182019101612020919061214f565b5b505050565b828054600181600116156101000203166002900490600052602060002090601f016020900481019282601f1061206757805160ff1916838001178555612095565b82800160010185558215612095579182015b82811115612094578251825591602001919060010190612079565b5b5090506120a291906121e1565b5090565b8154818355818115116120cd578183600052602060002091820191016120cc91906121e1565b5b505050565b61212591905b8082111561212157600080820160006101000a81549073ffffffffffffffffffffffffffffffffffffffff021916905560018201600090556002820160009055506003016120d8565b5090565b90565b61214c91905b80821115612148576000808201600090555060010161212e565b5090565b90565b6121de91905b808211156121da57600080820160006101000a81549073ffffffffffffffffffffffffffffffffffffffff02191690556001820160006121959190612206565b6002820160006101000a81549060ff021916905560038201600090556004820160006121c19190612206565b6005820160006121d19190612206565b50600601612155565b5090565b90565b61220391905b808211156121ff5760008160009055506001016121e7565b5090565b90565b50805460018160011615610100020316600290046000825580601f1061222c575061224b565b601f01602090049060005260206000209081019061224a91906121e1565b5b505600a165627a7a72305820eb0b652fd7f31f6e1be73a27cab3d98507f4f6e651c9d90320abf0c8557928210029",
  "source": "pragma solidity ^0.4.18;\n\nimport './Key.sol';\nimport '../admin/Whitelisted.sol';\n\ncontract PoolKey is Key, Whitelisted {\n\n    using SafeMath for uint256;\n    address[] members;\n    address poolVault;\n    address beneficiary;\n    uint max_contrib;\n    uint max_per_contrib;\n    uint min_per_contrib;\n    uint fee;\n    \n    \n    function PoolKey(address _poolVault, address _beneficiary, uint _max_contrib, uint _max_per_contrib, uint _min_per_contrib, address[] _admins, address[] _whitelist, uint _fee) \n    Whitelisted(_admins, _whitelist) \n    Key(_beneficiary) \n    public\n    {\n    \n      poolVault=_poolVault;  \n      fee=_fee;\n      max_contrib=_max_contrib;\n      max_per_contrib=_max_per_contrib;\n      min_per_contrib=_min_per_contrib;\n      \n      \n      for (uint k=0; k < _admins.length; k++) {\n          members.push(_admins[k]);\n      }\n      \n\n      for (uint i=0; i < _whitelist.length; i++) {\n          members.push(_whitelist[i]);\n      }\n      \n    \n    }\n    \n    // fallback function can be used to distribute tokens\n    function () \n    public\n    payable \n    {\n        uint256 weiAmount = msg.value;\n        uint256 fee1=weiAmount.div(200); \n        uint256 fee2=weiAmount.div(fee); \n        uint256 distAmount = weiAmount.sub(fee1).sub(fee2);\n        distAmount = distAmount.div(members.length);\n        \n        poolVault.transfer(fee1);\n        vault.transfer(fee2);\n        \n        for (uint i=0; i < members.length; i++) {\n            members[i].transfer(distAmount);\n        }\n    }\n    \n}",
  "sourcePath": "/home/richard/iotblock/contracts/pki/PoolKey.sol",
  "compiler": {
    "name": "solc",
    "version": "0.4.19+commit.c4cbbb05.Emscripten.clang"
  },
  "schemaVersion": "2.0.0",
  "updatedAt": "2018-03-16T09:22:39.874Z"
}