{
  "contractName": "PublicOffering",
  "abi": [
    {
      "constant": true,
      "inputs": [
        {
          "name": "",
          "type": "uint256"
        }
      ],
      "name": "admins",
      "outputs": [
        {
          "name": "",
          "type": "address"
        }
      ],
      "payable": false,
      "stateMutability": "view",
      "type": "function"
    },
    {
      "constant": true,
      "inputs": [
        {
          "name": "",
          "type": "address"
        }
      ],
      "name": "isAdmin",
      "outputs": [
        {
          "name": "",
          "type": "bool"
        }
      ],
      "payable": false,
      "stateMutability": "view",
      "type": "function"
    },
    {
      "constant": true,
      "inputs": [],
      "name": "rate",
      "outputs": [
        {
          "name": "",
          "type": "uint256"
        }
      ],
      "payable": false,
      "stateMutability": "view",
      "type": "function"
    },
    {
      "constant": true,
      "inputs": [],
      "name": "endTime",
      "outputs": [
        {
          "name": "",
          "type": "uint256"
        }
      ],
      "payable": false,
      "stateMutability": "view",
      "type": "function"
    },
    {
      "constant": true,
      "inputs": [],
      "name": "getAdmins",
      "outputs": [
        {
          "name": "",
          "type": "address[]"
        }
      ],
      "payable": false,
      "stateMutability": "view",
      "type": "function"
    },
    {
      "constant": false,
      "inputs": [
        {
          "name": "_rate",
          "type": "uint256"
        }
      ],
      "name": "setRate",
      "outputs": [
        {
          "name": "",
          "type": "uint256"
        }
      ],
      "payable": false,
      "stateMutability": "nonpayable",
      "type": "function"
    },
    {
      "constant": true,
      "inputs": [],
      "name": "cap",
      "outputs": [
        {
          "name": "",
          "type": "uint256"
        }
      ],
      "payable": false,
      "stateMutability": "view",
      "type": "function"
    },
    {
      "constant": true,
      "inputs": [],
      "name": "weiRaised",
      "outputs": [
        {
          "name": "",
          "type": "uint256"
        }
      ],
      "payable": false,
      "stateMutability": "view",
      "type": "function"
    },
    {
      "constant": false,
      "inputs": [
        {
          "name": "admin",
          "type": "address"
        }
      ],
      "name": "addAdmin",
      "outputs": [],
      "payable": false,
      "stateMutability": "nonpayable",
      "type": "function"
    },
    {
      "constant": true,
      "inputs": [],
      "name": "startTime",
      "outputs": [
        {
          "name": "",
          "type": "uint256"
        }
      ],
      "payable": false,
      "stateMutability": "view",
      "type": "function"
    },
    {
      "constant": false,
      "inputs": [
        {
          "name": "_endTime",
          "type": "uint256"
        }
      ],
      "name": "extendEndTime",
      "outputs": [
        {
          "name": "",
          "type": "uint256"
        }
      ],
      "payable": false,
      "stateMutability": "nonpayable",
      "type": "function"
    },
    {
      "constant": true,
      "inputs": [
        {
          "name": "",
          "type": "address"
        }
      ],
      "name": "isBanned",
      "outputs": [
        {
          "name": "",
          "type": "bool"
        }
      ],
      "payable": false,
      "stateMutability": "view",
      "type": "function"
    },
    {
      "constant": true,
      "inputs": [
        {
          "name": "amount",
          "type": "uint256"
        }
      ],
      "name": "convertToWei",
      "outputs": [
        {
          "name": "",
          "type": "uint256"
        }
      ],
      "payable": false,
      "stateMutability": "view",
      "type": "function"
    },
    {
      "constant": true,
      "inputs": [
        {
          "name": "amount",
          "type": "uint256"
        }
      ],
      "name": "convertToToken",
      "outputs": [
        {
          "name": "",
          "type": "uint256"
        }
      ],
      "payable": false,
      "stateMutability": "view",
      "type": "function"
    },
    {
      "constant": false,
      "inputs": [
        {
          "name": "beneficiary",
          "type": "address"
        }
      ],
      "name": "getSmartKey",
      "outputs": [],
      "payable": true,
      "stateMutability": "payable",
      "type": "function"
    },
    {
      "constant": true,
      "inputs": [],
      "name": "getNow",
      "outputs": [
        {
          "name": "",
          "type": "uint256"
        }
      ],
      "payable": false,
      "stateMutability": "view",
      "type": "function"
    },
    {
      "constant": true,
      "inputs": [],
      "name": "getTokensMinted",
      "outputs": [
        {
          "name": "",
          "type": "uint256"
        }
      ],
      "payable": false,
      "stateMutability": "view",
      "type": "function"
    },
    {
      "constant": false,
      "inputs": [
        {
          "name": "banned",
          "type": "address"
        }
      ],
      "name": "addBanned",
      "outputs": [],
      "payable": false,
      "stateMutability": "nonpayable",
      "type": "function"
    },
    {
      "constant": true,
      "inputs": [],
      "name": "hasEnded",
      "outputs": [
        {
          "name": "",
          "type": "bool"
        }
      ],
      "payable": false,
      "stateMutability": "view",
      "type": "function"
    },
    {
      "constant": true,
      "inputs": [],
      "name": "token",
      "outputs": [
        {
          "name": "",
          "type": "address"
        }
      ],
      "payable": false,
      "stateMutability": "view",
      "type": "function"
    },
    {
      "inputs": [
        {
          "name": "_token",
          "type": "address"
        },
        {
          "name": "_startTime",
          "type": "uint256"
        },
        {
          "name": "_endTime",
          "type": "uint256"
        },
        {
          "name": "_rate",
          "type": "uint256"
        },
        {
          "name": "_cap",
          "type": "uint256"
        },
        {
          "name": "adminAddress",
          "type": "address[]"
        }
      ],
      "payable": false,
      "stateMutability": "nonpayable",
      "type": "constructor"
    },
    {
      "payable": true,
      "stateMutability": "payable",
      "type": "fallback"
    },
    {
      "anonymous": false,
      "inputs": [
        {
          "indexed": true,
          "name": "purchaser",
          "type": "address"
        },
        {
          "indexed": true,
          "name": "beneficiary",
          "type": "address"
        },
        {
          "indexed": false,
          "name": "value",
          "type": "uint256"
        },
        {
          "indexed": false,
          "name": "amount",
          "type": "uint256"
        }
      ],
      "name": "SmartKeyPurchase",
      "type": "event"
    }
  ],
  "bytecode": "0x606060405234156200001057600080fd5b604051620013a7380380620013a783398101604052808051906020019091908051906020019091908051906020019091908051906020019091908051906020019091908051820191905050818187878787868760008090505b8151811015620000f057600160008084848151811015156200008757fe5b9060200190602002015173ffffffffffffffffffffffffffffffffffffffff1673ffffffffffffffffffffffffffffffffffffffff16815260200190815260200160002060006101000a81548160ff021916908315150217905550808060010191505062000069565b8160029080519060200190620001089291906200020e565b5050508383101515156200011b57600080fd5b6000821115156200012b57600080fd5b6000600260008154811015156200013e57fe5b906000526020600020900160009054906101000a900473ffffffffffffffffffffffffffffffffffffffff1673ffffffffffffffffffffffffffffffffffffffff16141515156200018e57600080fd5b84600360006101000a81548173ffffffffffffffffffffffffffffffffffffffff021916908373ffffffffffffffffffffffffffffffffffffffff1602179055508360048190555082600581905550816006819055505050505050600082111515620001f957600080fd5b816008819055505050505050505050620002e3565b8280548282559060005260206000209081019282156200028a579160200282015b82811115620002895782518260006101000a81548173ffffffffffffffffffffffffffffffffffffffff021916908373ffffffffffffffffffffffffffffffffffffffff160217905550916020019190600101906200022f565b5b5090506200029991906200029d565b5090565b620002e091905b80821115620002dc57600081816101000a81549073ffffffffffffffffffffffffffffffffffffffff021916905550600101620002a4565b5090565b90565b6110b480620002f36000396000f300606060405260043610610112576000357c0100000000000000000000000000000000000000000000000000000000900463ffffffff16806314bfd6d01461011d57806324d7806c146101805780632c4e722e146101d15780633197cbb6146101fa57806331ae450b1461022357806334fcf4371461028d578063355274ea146102c45780634042b66f146102ed578063704802751461031657806378e979251461034f57806388770cb01461037857806397f735d5146103af578063a60dc38a14610400578063a81f8f3f14610437578063b37c75511461046e578063bbe4fd501461049c578063d69f6bae146104c5578063e1b2e8b3146104ee578063ecb70fb714610527578063fc0c546a14610554575b61011b336105a9565b005b341561012857600080fd5b61013e600480803590602001909190505061073e565b604051808273ffffffffffffffffffffffffffffffffffffffff1673ffffffffffffffffffffffffffffffffffffffff16815260200191505060405180910390f35b341561018b57600080fd5b6101b7600480803573ffffffffffffffffffffffffffffffffffffffff1690602001909190505061077d565b604051808215151515815260200191505060405180910390f35b34156101dc57600080fd5b6101e461079d565b6040518082815260200191505060405180910390f35b341561020557600080fd5b61020d6107a3565b6040518082815260200191505060405180910390f35b341561022e57600080fd5b6102366107a9565b6040518080602001828103825283818151815260200191508051906020019060200280838360005b8381101561027957808201518184015260208101905061025e565b505050509050019250505060405180910390f35b341561029857600080fd5b6102ae600480803590602001909190505061083d565b6040518082815260200191505060405180910390f35b34156102cf57600080fd5b6102d76109b5565b6040518082815260200191505060405180910390f35b34156102f857600080fd5b6103006109bb565b6040518082815260200191505060405180910390f35b341561032157600080fd5b61034d600480803573ffffffffffffffffffffffffffffffffffffffff169060200190919050506109c1565b005b341561035a57600080fd5b610362610bde565b6040518082815260200191505060405180910390f35b341561038357600080fd5b6103996004808035906020019091905050610be4565b6040518082815260200191505060405180910390f35b34156103ba57600080fd5b6103e6600480803573ffffffffffffffffffffffffffffffffffffffff16906020019091905050610ca7565b604051808215151515815260200191505060405180910390f35b341561040b57600080fd5b6104216004808035906020019091905050610cc7565b6040518082815260200191505060405180910390f35b341561044257600080fd5b6104586004808035906020019091905050610ce5565b6040518082815260200191505060405180910390f35b61049a600480803573ffffffffffffffffffffffffffffffffffffffff169060200190919050506105a9565b005b34156104a757600080fd5b6104af610d03565b6040518082815260200191505060405180910390f35b34156104d057600080fd5b6104d8610d0b565b6040518082815260200191505060405180910390f35b34156104f957600080fd5b610525600480803573ffffffffffffffffffffffffffffffffffffffff16906020019091905050610dbb565b005b341561053257600080fd5b61053a610f75565b604051808215151515815260200191505060405180910390f35b341561055f57600080fd5b610567610f89565b604051808273ffffffffffffffffffffffffffffffffffffffff1673ffffffffffffffffffffffffffffffffffffffff16815260200191505060405180910390f35b60008060008373ffffffffffffffffffffffffffffffffffffffff16141515156105d257600080fd5b3491506105de82610ce5565b90506105f582600754610faf90919063ffffffff16565b600781905550600360009054906101000a900473ffffffffffffffffffffffffffffffffffffffff1673ffffffffffffffffffffffffffffffffffffffff1663b37c755134856040518363ffffffff167c0100000000000000000000000000000000000000000000000000000000028152600401808273ffffffffffffffffffffffffffffffffffffffff1673ffffffffffffffffffffffffffffffffffffffff1681526020019150506000604051808303818588803b15156106b757600080fd5b6125ee5a03f115156106c857600080fd5b505050508273ffffffffffffffffffffffffffffffffffffffff163373ffffffffffffffffffffffffffffffffffffffff167f8954423a551d16784cdfa6962d70cd543c5e51c673130047a93e5c2340a6ab3d8484604051808381526020018281526020019250505060405180910390a3505050565b60028181548110151561074d57fe5b90600052602060002090016000915054906101000a900473ffffffffffffffffffffffffffffffffffffffff1681565b60006020528060005260406000206000915054906101000a900460ff1681565b60065481565b60055481565b6107b1611023565b600280548060200260200160405190810160405280929190818152602001828054801561083357602002820191906000526020600020905b8160009054906101000a900473ffffffffffffffffffffffffffffffffffffffff1673ffffffffffffffffffffffffffffffffffffffff16815260200190600101908083116107e9575b5050505050905090565b60008060003373ffffffffffffffffffffffffffffffffffffffff1673ffffffffffffffffffffffffffffffffffffffff16815260200190815260200160002060009054906101000a900460ff16151561089657600080fd5b600160003373ffffffffffffffffffffffffffffffffffffffff1673ffffffffffffffffffffffffffffffffffffffff16815260200190815260200160002060009054906101000a900460ff161515156108ef57600080fd5b600360009054906101000a900473ffffffffffffffffffffffffffffffffffffffff1673ffffffffffffffffffffffffffffffffffffffff166334fcf437836000604051602001526040518263ffffffff167c010000000000000000000000000000000000000000000000000000000002815260040180828152602001915050602060405180830381600087803b151561098857600080fd5b6102c65a03f1151561099957600080fd5b5050506040518051905050816006819055506006549050919050565b60085481565b60075481565b6000803373ffffffffffffffffffffffffffffffffffffffff1673ffffffffffffffffffffffffffffffffffffffff16815260200190815260200160002060009054906101000a900460ff161515610a1857600080fd5b600160003373ffffffffffffffffffffffffffffffffffffffff1673ffffffffffffffffffffffffffffffffffffffff16815260200190815260200160002060009054906101000a900460ff16151515610a7157600080fd5b6000803373ffffffffffffffffffffffffffffffffffffffff1673ffffffffffffffffffffffffffffffffffffffff16815260200190815260200160002060009054906101000a900460ff161515610ac857600080fd5b600160003373ffffffffffffffffffffffffffffffffffffffff1673ffffffffffffffffffffffffffffffffffffffff16815260200190815260200160002060009054906101000a900460ff16151515610b2157600080fd5b60016000808373ffffffffffffffffffffffffffffffffffffffff1673ffffffffffffffffffffffffffffffffffffffff16815260200190815260200160002060006101000a81548160ff02191690831515021790555060028054806001018281610b8c9190611037565b9160005260206000209001600083909190916101000a81548173ffffffffffffffffffffffffffffffffffffffff021916908373ffffffffffffffffffffffffffffffffffffffff1602179055505050565b60045481565b60008060003373ffffffffffffffffffffffffffffffffffffffff1673ffffffffffffffffffffffffffffffffffffffff16815260200190815260200160002060009054906101000a900460ff161515610c3d57600080fd5b600160003373ffffffffffffffffffffffffffffffffffffffff1673ffffffffffffffffffffffffffffffffffffffff16815260200190815260200160002060009054906101000a900460ff16151515610c9657600080fd5b816005819055506005549050919050565b60016020528060005260406000206000915054906101000a900460ff1681565b6000610cde60065483610fcd90919063ffffffff16565b9050919050565b6000610cfc6006548361100890919063ffffffff16565b9050919050565b600042905090565b6000600360009054906101000a900473ffffffffffffffffffffffffffffffffffffffff1673ffffffffffffffffffffffffffffffffffffffff1663963563556000604051602001526040518163ffffffff167c0100000000000000000000000000000000000000000000000000000000028152600401602060405180830381600087803b1515610d9b57600080fd5b6102c65a03f11515610dac57600080fd5b50505060405180519050905090565b6000803373ffffffffffffffffffffffffffffffffffffffff1673ffffffffffffffffffffffffffffffffffffffff16815260200190815260200160002060009054906101000a900460ff161515610e1257600080fd5b600160003373ffffffffffffffffffffffffffffffffffffffff1673ffffffffffffffffffffffffffffffffffffffff16815260200190815260200160002060009054906101000a900460ff16151515610e6b57600080fd5b6000803373ffffffffffffffffffffffffffffffffffffffff1673ffffffffffffffffffffffffffffffffffffffff16815260200190815260200160002060009054906101000a900460ff161515610ec257600080fd5b600160003373ffffffffffffffffffffffffffffffffffffffff1673ffffffffffffffffffffffffffffffffffffffff16815260200190815260200160002060009054906101000a900460ff16151515610f1b57600080fd5b60018060008373ffffffffffffffffffffffffffffffffffffffff1673ffffffffffffffffffffffffffffffffffffffff16815260200190815260200160002060006101000a81548160ff02191690831515021790555050565b600080600854600754101590508091505090565b600360009054906101000a900473ffffffffffffffffffffffffffffffffffffffff1681565b6000808284019050838110151515610fc357fe5b8091505092915050565b6000806000841415610fe25760009150611001565b8284029050828482811515610ff357fe5b04141515610ffd57fe5b8091505b5092915050565b600080828481151561101657fe5b0490508091505092915050565b602060405190810160405280600081525090565b81548183558181151161105e5781836000526020600020918201910161105d9190611063565b5b505050565b61108591905b80821115611081576000816000905550600101611069565b5090565b905600a165627a7a723058201d523086076aa0a7f5707bb57ab900ae57918aabfbe910c1fccf0b99aa7925590029",
  "source": "pragma solidity ^0.4.18; //We have to specify what version of the compiler this code will use\n\n\nimport \"./crowdsale/CappedCrowdsale.sol\";\nimport \"./crowdsale/Crowdsale.sol\";\nimport \"./admin/Administered.sol\";\n\n/**\n * @title IoT Smart Keys IO\n */\ncontract PublicOffering is CappedCrowdsale {\n\n  function PublicOffering(SmartKey _token, uint256 _startTime, uint256 _endTime, uint256 _rate, uint256 _cap, address[] adminAddress)\n  public\n  Administered(adminAddress)\n  CappedCrowdsale(_cap, adminAddress)\n  Crowdsale(_token, _startTime, _endTime, _rate, adminAddress)\n  {\n    \n  }\n\n}",
  "sourcePath": "/home/richard/iotblock/contracts/PublicOffering.sol",
  "compiler": {
    "name": "solc",
    "version": "0.4.19+commit.c4cbbb05.Emscripten.clang"
  },
  "schemaVersion": "2.0.0",
  "updatedAt": "2018-03-15T17:14:20.790Z"
}