{
  "contractName": "SmartNodeItem",
  "abi": [
    {
      "constant": true,
      "inputs": [
        {
          "name": "",
          "type": "uint256"
        }
      ],
      "name": "admins",
      "outputs": [
        {
          "name": "",
          "type": "address"
        }
      ],
      "payable": false,
      "stateMutability": "view",
      "type": "function"
    },
    {
      "constant": true,
      "inputs": [
        {
          "name": "",
          "type": "address"
        }
      ],
      "name": "isAdmin",
      "outputs": [
        {
          "name": "",
          "type": "bool"
        }
      ],
      "payable": false,
      "stateMutability": "view",
      "type": "function"
    },
    {
      "constant": true,
      "inputs": [],
      "name": "getAdmins",
      "outputs": [
        {
          "name": "",
          "type": "address[]"
        }
      ],
      "payable": false,
      "stateMutability": "view",
      "type": "function"
    },
    {
      "constant": false,
      "inputs": [
        {
          "name": "admin",
          "type": "address"
        }
      ],
      "name": "addAdmin",
      "outputs": [],
      "payable": false,
      "stateMutability": "nonpayable",
      "type": "function"
    },
    {
      "constant": true,
      "inputs": [
        {
          "name": "",
          "type": "address"
        }
      ],
      "name": "isBanned",
      "outputs": [
        {
          "name": "",
          "type": "bool"
        }
      ],
      "payable": false,
      "stateMutability": "view",
      "type": "function"
    },
    {
      "constant": false,
      "inputs": [
        {
          "name": "banned",
          "type": "address"
        }
      ],
      "name": "addBanned",
      "outputs": [],
      "payable": false,
      "stateMutability": "nonpayable",
      "type": "function"
    },
    {
      "inputs": [
        {
          "name": "_graphRoot",
          "type": "address"
        },
        {
          "name": "_smartKey",
          "type": "address"
        },
        {
          "name": "adminAddress",
          "type": "address[]"
        }
      ],
      "payable": false,
      "stateMutability": "nonpayable",
      "type": "constructor"
    },
    {
      "constant": false,
      "inputs": [
        {
          "name": "_catalogue",
          "type": "address"
        },
        {
          "name": "_href",
          "type": "string"
        }
      ],
      "name": "upsertItem",
      "outputs": [
        {
          "name": "",
          "type": "bool"
        }
      ],
      "payable": true,
      "stateMutability": "payable",
      "type": "function"
    }
  ],
  "bytecode": "0x6060604052341561000f57600080fd5b60405162003b3f38038062003b3f833981016040528080519060200190919080519060200190919080518201919050508060008090505b81518110156100ca576001600080848481518110151561006257fe5b9060200190602002015173ffffffffffffffffffffffffffffffffffffffff1673ffffffffffffffffffffffffffffffffffffffff16815260200190815260200160002060006101000a81548160ff0219169083151502179055508080600101915050610046565b81600290805190602001906100e092919061016d565b50505081600360006101000a81548173ffffffffffffffffffffffffffffffffffffffff021916908373ffffffffffffffffffffffffffffffffffffffff16021790555082600460006101000a81548173ffffffffffffffffffffffffffffffffffffffff021916908373ffffffffffffffffffffffffffffffffffffffff16021790555050505061023a565b8280548282559060005260206000209081019282156101e6579160200282015b828111156101e55782518260006101000a81548173ffffffffffffffffffffffffffffffffffffffff021916908373ffffffffffffffffffffffffffffffffffffffff1602179055509160200191906001019061018d565b5b5090506101f391906101f7565b5090565b61023791905b8082111561023357600081816101000a81549073ffffffffffffffffffffffffffffffffffffffff0219169055506001016101fd565b5090565b90565b6138f5806200024a6000396000f300606060405260043610610083576000357c0100000000000000000000000000000000000000000000000000000000900463ffffffff16806314bfd6d01461008857806324d7806c146100eb57806331ae450b1461013c57806367d90da2146101a6578063704802751461022f57806397f735d514610268578063e1b2e8b3146102b9575b600080fd5b341561009357600080fd5b6100a960048080359060200190919050506102f2565b604051808273ffffffffffffffffffffffffffffffffffffffff1673ffffffffffffffffffffffffffffffffffffffff16815260200191505060405180910390f35b34156100f657600080fd5b610122600480803573ffffffffffffffffffffffffffffffffffffffff16906020019091905050610331565b604051808215151515815260200191505060405180910390f35b341561014757600080fd5b61014f610351565b6040518080602001828103825283818151815260200191508051906020019060200280838360005b83811015610192578082015181840152602081019050610177565b505050509050019250505060405180910390f35b610215600480803573ffffffffffffffffffffffffffffffffffffffff1690602001909190803590602001908201803590602001908080601f016020809104026020016040519081016040528093929190818152602001838380828437820191505050505050919050506103e5565b604051808215151515815260200191505060405180910390f35b341561023a57600080fd5b610266600480803573ffffffffffffffffffffffffffffffffffffffff16906020019091905050610856565b005b341561027357600080fd5b61029f600480803573ffffffffffffffffffffffffffffffffffffffff16906020019091905050610a73565b604051808215151515815260200191505060405180910390f35b34156102c457600080fd5b6102f0600480803573ffffffffffffffffffffffffffffffffffffffff16906020019091905050610a93565b005b60028181548110151561030157fe5b90600052602060002090016000915054906101000a900473ffffffffffffffffffffffffffffffffffffffff1681565b60006020528060005260406000206000915054906101000a900460ff1681565b610359610c4d565b60028054806020026020016040519081016040528092919081815260200182805480156103db57602002820191906000526020600020905b8160009054906101000a900473ffffffffffffffffffffffffffffffffffffffff1673ffffffffffffffffffffffffffffffffffffffff1681526020019060010190808311610391575b5050505050905090565b60006103ef610c4d565b600060036040518059106104005750595b908082528060200260200182016040525091503382600081518110151561042357fe5b9060200190602002019073ffffffffffffffffffffffffffffffffffffffff16908173ffffffffffffffffffffffffffffffffffffffff16815250508482600181518110151561046f57fe5b9060200190602002019073ffffffffffffffffffffffffffffffffffffffff16908173ffffffffffffffffffffffffffffffffffffffff1681525050308260028151811015156104bb57fe5b9060200190602002019073ffffffffffffffffffffffffffffffffffffffff16908173ffffffffffffffffffffffffffffffffffffffff1681525050600360009054906101000a900473ffffffffffffffffffffffffffffffffffffffff1682610523610c61565b808373ffffffffffffffffffffffffffffffffffffffff1673ffffffffffffffffffffffffffffffffffffffff16815260200180602001828103825283818151815260200191508051906020019060200280838360005b8381101561059557808201518184015260208101905061057a565b505050509050019350505050604051809103906000f08015156105b757600080fd5b90508473ffffffffffffffffffffffffffffffffffffffff166367d90da26002348115156105e157fe5b0483876000604051602001526040518463ffffffff167c0100000000000000000000000000000000000000000000000000000000028152600401808373ffffffffffffffffffffffffffffffffffffffff1673ffffffffffffffffffffffffffffffffffffffff16815260200180602001828103825283818151815260200191508051906020019080838360005b8381101561068a57808201518184015260208101905061066f565b50505050905090810190601f1680156106b75780820380516001836020036101000a031916815260200191505b5093505050506020604051808303818588803b15156106d557600080fd5b6125ee5a03f115156106e657600080fd5b505050506040518051905050600460009054906101000a900473ffffffffffffffffffffffffffffffffffffffff1673ffffffffffffffffffffffffffffffffffffffff166367d90da260023481151561073c57fe5b0483876000604051602001526040518463ffffffff167c0100000000000000000000000000000000000000000000000000000000028152600401808373ffffffffffffffffffffffffffffffffffffffff1673ffffffffffffffffffffffffffffffffffffffff16815260200180602001828103825283818151815260200191508051906020019080838360005b838110156107e55780820151818401526020810190506107ca565b50505050905090810190601f1680156108125780820380516001836020036101000a031916815260200191505b5093505050506020604051808303818588803b151561083057600080fd5b6125ee5a03f1151561084157600080fd5b50505050604051805190509250505092915050565b6000803373ffffffffffffffffffffffffffffffffffffffff1673ffffffffffffffffffffffffffffffffffffffff16815260200190815260200160002060009054906101000a900460ff1615156108ad57600080fd5b600160003373ffffffffffffffffffffffffffffffffffffffff1673ffffffffffffffffffffffffffffffffffffffff16815260200190815260200160002060009054906101000a900460ff1615151561090657600080fd5b6000803373ffffffffffffffffffffffffffffffffffffffff1673ffffffffffffffffffffffffffffffffffffffff16815260200190815260200160002060009054906101000a900460ff16151561095d57600080fd5b600160003373ffffffffffffffffffffffffffffffffffffffff1673ffffffffffffffffffffffffffffffffffffffff16815260200190815260200160002060009054906101000a900460ff161515156109b657600080fd5b60016000808373ffffffffffffffffffffffffffffffffffffffff1673ffffffffffffffffffffffffffffffffffffffff16815260200190815260200160002060006101000a81548160ff02191690831515021790555060028054806001018281610a219190610c71565b9160005260206000209001600083909190916101000a81548173ffffffffffffffffffffffffffffffffffffffff021916908373ffffffffffffffffffffffffffffffffffffffff1602179055505050565b60016020528060005260406000206000915054906101000a900460ff1681565b6000803373ffffffffffffffffffffffffffffffffffffffff1673ffffffffffffffffffffffffffffffffffffffff16815260200190815260200160002060009054906101000a900460ff161515610aea57600080fd5b600160003373ffffffffffffffffffffffffffffffffffffffff1673ffffffffffffffffffffffffffffffffffffffff16815260200190815260200160002060009054906101000a900460ff16151515610b4357600080fd5b6000803373ffffffffffffffffffffffffffffffffffffffff1673ffffffffffffffffffffffffffffffffffffffff16815260200190815260200160002060009054906101000a900460ff161515610b9a57600080fd5b600160003373ffffffffffffffffffffffffffffffffffffffff1673ffffffffffffffffffffffffffffffffffffffff16815260200190815260200160002060009054906101000a900460ff16151515610bf357600080fd5b60018060008373ffffffffffffffffffffffffffffffffffffffff1673ffffffffffffffffffffffffffffffffffffffff16815260200190815260200160002060006101000a81548160ff02191690831515021790555050565b602060405190810160405280600081525090565b604051612c0780610cc383390190565b815481835581811511610c9857818360005260206000209182019101610c979190610c9d565b5b505050565b610cbf91905b80821115610cbb576000816000905550600101610ca3565b5090565b905600606060405234156200001057600080fd5b60405162002c0738038062002c078339810160405280805190602001909190805182019190505081818060008090505b8151811015620000c757600160008084848151811015156200005e57fe5b9060200190602002015173ffffffffffffffffffffffffffffffffffffffff1673ffffffffffffffffffffffffffffffffffffffff16815260200190815260200160002060006101000a81548160ff021916908315150217905550808060010191505062000040565b8160029080519060200190620000df9291906200012d565b50505081600560006101000a81548173ffffffffffffffffffffffffffffffffffffffff021916908373ffffffffffffffffffffffffffffffffffffffff1602179055505050505062000202565b828054828255906000526020600020908101928215620001a9579160200282015b82811115620001a85782518260006101000a81548173ffffffffffffffffffffffffffffffffffffffff021916908373ffffffffffffffffffffffffffffffffffffffff160217905550916020019190600101906200014e565b5b509050620001b89190620001bc565b5090565b620001ff91905b80821115620001fb57600081816101000a81549073ffffffffffffffffffffffffffffffffffffffff021916905550600101620001c3565b5090565b90565b6129f580620002126000396000f300606060405260043610620000eb576000357c0100000000000000000000000000000000000000000000000000000000900463ffffffff168063113adf4914620000f057806314bfd6d0146200014857806324d7806c14620001ae57806331ae450b146200020257806336eeaa6a14620002715780635571edeb14620003055780635c866c78146200036f5780637048027514620003c757806397f735d51462000403578063b9d191661462000457578063cd5cfdaf14620004c3578063e1b2e8b31462000529578063ec6f214e1462000565578063ee7d44ea1462000614578063f95fd40b14620006a8575b600080fd5b3415620000fc57600080fd5b6200010662000717565b604051808273ffffffffffffffffffffffffffffffffffffffff1673ffffffffffffffffffffffffffffffffffffffff16815260200191505060405180910390f35b34156200015457600080fd5b6200016c60048080359060200190919050506200073d565b604051808273ffffffffffffffffffffffffffffffffffffffff1673ffffffffffffffffffffffffffffffffffffffff16815260200191505060405180910390f35b3415620001ba57600080fd5b620001e8600480803573ffffffffffffffffffffffffffffffffffffffff169060200190919050506200077d565b604051808215151515815260200191505060405180910390f35b34156200020e57600080fd5b620002186200079d565b6040518080602001828103825283818151815260200191508051906020019060200280838360005b838110156200025d57808201518184015260208101905062000240565b505050509050019250505060405180910390f35b34156200027d57600080fd5b6200028762000835565b6040518080602001828103825283818151815260200191508051906020019080838360005b83811015620002c9578082015181840152602081019050620002ac565b50505050905090810190601f168015620002f75780820380516001836020036101000a031916815260200191505b509250505060405180910390f35b34156200031157600080fd5b6200032d600480803560001916906020019091905050620008d7565b604051808273ffffffffffffffffffffffffffffffffffffffff1673ffffffffffffffffffffffffffffffffffffffff16815260200191505060405180910390f35b34156200037b57600080fd5b620003856200090a565b604051808273ffffffffffffffffffffffffffffffffffffffff1673ffffffffffffffffffffffffffffffffffffffff16815260200191505060405180910390f35b3415620003d357600080fd5b62000401600480803573ffffffffffffffffffffffffffffffffffffffff1690602001909190505062000934565b005b34156200040f57600080fd5b6200043d600480803573ffffffffffffffffffffffffffffffffffffffff1690602001909190505062000b57565b604051808215151515815260200191505060405180910390f35b620004a9600480803590602001908201803590602001908080601f0160208091040260200160405190810160405280939291908181526020018383808284378201915050505050509190505062000b77565b604051808215151515815260200191505060405180910390f35b3415620004cf57600080fd5b620004e7600480803590602001909190505062000c6e565b604051808273ffffffffffffffffffffffffffffffffffffffff1673ffffffffffffffffffffffffffffffffffffffff16815260200191505060405180910390f35b34156200053557600080fd5b62000563600480803573ffffffffffffffffffffffffffffffffffffffff1690602001909190505062000cae565b005b620005fa600480803590602001908201803590602001908080601f0160208091040260200160405190810160405280939291908181526020018383808284378201915050505050509190803590602001908201803590602001908080601f0160208091040260200160405190810160405280939291908181526020018383808284378201915050505050509190505062000e6c565b604051808215151515815260200191505060405180910390f35b34156200062057600080fd5b6200062a6200150b565b6040518080602001828103825283818151815260200191508051906020019080838360005b838110156200066c5780820151818401526020810190506200064f565b50505050905090810190601f1680156200069a5780820380516001836020036101000a031916815260200191505b509250505060405180910390f35b3415620006b457600080fd5b620006be620015b9565b6040518080602001828103825283818151815260200191508051906020019060200280838360005b8381101562000703578082015181840152602081019050620006e6565b505050509050019250505060405180910390f35b600560009054906101000a900473ffffffffffffffffffffffffffffffffffffffff1681565b6002818154811015156200074d57fe5b90600052602060002090016000915054906101000a900473ffffffffffffffffffffffffffffffffffffffff1681565b60006020528060005260406000206000915054906101000a900460ff1681565b620007a762001651565b60028054806020026020016040519081016040528092919081815260200182805480156200082b57602002820191906000526020600020905b8160009054906101000a900473ffffffffffffffffffffffffffffffffffffffff1673ffffffffffffffffffffffffffffffffffffffff1681526020019060010190808311620007e0575b5050505050905090565b60068054600181600116156101000203166002900480601f016020809104026020016040519081016040528092919081815260200182805460018160011615610100020316600290048015620008cf5780601f10620008a357610100808354040283529160200191620008cf565b820191906000526020600020905b815481529060010190602001808311620008b157829003601f168201915b505050505081565b60046020528060005260406000206000915054906101000a900473ffffffffffffffffffffffffffffffffffffffff1681565b6000600560009054906101000a900473ffffffffffffffffffffffffffffffffffffffff16905090565b6000803373ffffffffffffffffffffffffffffffffffffffff1673ffffffffffffffffffffffffffffffffffffffff16815260200190815260200160002060009054906101000a900460ff1615156200098c57600080fd5b600160003373ffffffffffffffffffffffffffffffffffffffff1673ffffffffffffffffffffffffffffffffffffffff16815260200190815260200160002060009054906101000a900460ff16151515620009e657600080fd5b6000803373ffffffffffffffffffffffffffffffffffffffff1673ffffffffffffffffffffffffffffffffffffffff16815260200190815260200160002060009054906101000a900460ff16151562000a3e57600080fd5b600160003373ffffffffffffffffffffffffffffffffffffffff1673ffffffffffffffffffffffffffffffffffffffff16815260200190815260200160002060009054906101000a900460ff1615151562000a9857600080fd5b60016000808373ffffffffffffffffffffffffffffffffffffffff1673ffffffffffffffffffffffffffffffffffffffff16815260200190815260200160002060006101000a81548160ff0219169083151502179055506002805480600101828162000b05919062001665565b9160005260206000209001600083909190916101000a81548173ffffffffffffffffffffffffffffffffffffffff021916908373ffffffffffffffffffffffffffffffffffffffff1602179055505050565b60016020528060005260406000206000915054906101000a900460ff1681565b6000600560009054906101000a900473ffffffffffffffffffffffffffffffffffffffff1673ffffffffffffffffffffffffffffffffffffffff1663b37c755134306040518363ffffffff167c0100000000000000000000000000000000000000000000000000000000028152600401808273ffffffffffffffffffffffffffffffffffffffff1673ffffffffffffffffffffffffffffffffffffffff1681526020019150506000604051808303818588803b151562000c3657600080fd5b6125ee5a03f1151562000c4857600080fd5b50505050816006908051906020019062000c6492919062001694565b5060019050919050565b60038181548110151562000c7e57fe5b90600052602060002090016000915054906101000a900473ffffffffffffffffffffffffffffffffffffffff1681565b6000803373ffffffffffffffffffffffffffffffffffffffff1673ffffffffffffffffffffffffffffffffffffffff16815260200190815260200160002060009054906101000a900460ff16151562000d0657600080fd5b600160003373ffffffffffffffffffffffffffffffffffffffff1673ffffffffffffffffffffffffffffffffffffffff16815260200190815260200160002060009054906101000a900460ff1615151562000d6057600080fd5b6000803373ffffffffffffffffffffffffffffffffffffffff1673ffffffffffffffffffffffffffffffffffffffff16815260200190815260200160002060009054906101000a900460ff16151562000db857600080fd5b600160003373ffffffffffffffffffffffffffffffffffffffff1673ffffffffffffffffffffffffffffffffffffffff16815260200190815260200160002060009054906101000a900460ff1615151562000e1257600080fd5b60018060008373ffffffffffffffffffffffffffffffffffffffff1673ffffffffffffffffffffffffffffffffffffffff16815260200190815260200160002060006101000a81548160ff02191690831515021790555050565b6000806000806000600560009054906101000a900473ffffffffffffffffffffffffffffffffffffffff1673ffffffffffffffffffffffffffffffffffffffff166393790f44336000604051602001526040518263ffffffff167c0100000000000000000000000000000000000000000000000000000000028152600401808273ffffffffffffffffffffffffffffffffffffffff1673ffffffffffffffffffffffffffffffffffffffff168152602001915050602060405180830381600087803b151562000f3a57600080fd5b6102c65a03f1151562000f4c57600080fd5b5050506040518051905093508373ffffffffffffffffffffffffffffffffffffffff16635b6beeb9886000604051602001526040518263ffffffff167c01000000000000000000000000000000000000000000000000000000000281526004018080602001828103825283818151815260200191508051906020019080838360005b8381101562000feb57808201518184015260208101905062000fce565b50505050905090810190601f168015620010195780820380516001836020036101000a031916815260200191505b5092505050602060405180830381600087803b15156200103857600080fd5b6102c65a03f115156200104a57600080fd5b505050604051805190509250600073ffffffffffffffffffffffffffffffffffffffff1660046000856000191660001916815260200190815260200160002060009054906101000a900473ffffffffffffffffffffffffffffffffffffffff1673ffffffffffffffffffffffffffffffffffffffff161415620013c35760029050808054806001018281620010e0919062001665565b9160005260206000209001600030909190916101000a81548173ffffffffffffffffffffffffffffffffffffffff021916908373ffffffffffffffffffffffffffffffffffffffff1602179055505080805480600101828162001144919062001665565b9160005260206000209001600033909190916101000a81548173ffffffffffffffffffffffffffffffffffffffff021916908373ffffffffffffffffffffffffffffffffffffffff16021790555050600560009054906101000a900473ffffffffffffffffffffffffffffffffffffffff16600288620011c36200171b565b808473ffffffffffffffffffffffffffffffffffffffff1673ffffffffffffffffffffffffffffffffffffffff168152602001806020018060200183810383528581815481526020019150805480156200127357602002820191906000526020600020905b8160009054906101000a900473ffffffffffffffffffffffffffffffffffffffff1673ffffffffffffffffffffffffffffffffffffffff168152602001906001019080831162001228575b5050838103825284818151815260200191508051906020019080838360005b83811015620012af57808201518184015260208101905062001292565b50505050905090810190601f168015620012dd5780820380516001836020036101000a031916815260200191505b5095505050505050604051809103906000f0801515620012fc57600080fd5b91508160046000856000191660001916815260200190815260200160002060006101000a81548173ffffffffffffffffffffffffffffffffffffffff021916908373ffffffffffffffffffffffffffffffffffffffff160217905550600380548060010182816200136e91906200172c565b9160005260206000209001600084909190916101000a81548173ffffffffffffffffffffffffffffffffffffffff021916908373ffffffffffffffffffffffffffffffffffffffff1602179055505062001402565b60046000846000191660001916815260200190815260200160002060009054906101000a900473ffffffffffffffffffffffffffffffffffffffff1691505b8173ffffffffffffffffffffffffffffffffffffffff16631aae253134886000604051602001526040518363ffffffff167c01000000000000000000000000000000000000000000000000000000000281526004018080602001828103825283818151815260200191508051906020019080838360005b838110156200149657808201518184015260208101905062001479565b50505050905090810190601f168015620014c45780820380516001836020036101000a031916815260200191505b50925050506020604051808303818588803b1515620014e257600080fd5b6125ee5a03f11515620014f457600080fd5b505050506040518051905094505050505092915050565b620015156200175b565b60068054600181600116156101000203166002900480601f016020809104026020016040519081016040528092919081815260200182805460018160011615610100020316600290048015620015af5780601f106200158357610100808354040283529160200191620015af565b820191906000526020600020905b8154815290600101906020018083116200159157829003601f168201915b5050505050905090565b620015c36200176f565b60038054806020026020016040519081016040528092919081815260200182805480156200164757602002820191906000526020600020905b8160009054906101000a900473ffffffffffffffffffffffffffffffffffffffff1673ffffffffffffffffffffffffffffffffffffffff1681526020019060010190808311620015fc575b5050505050905090565b602060405190810160405280600081525090565b8154818355818115116200168f578183600052602060002091820191016200168e919062001783565b5b505050565b828054600181600116156101000203166002900490600052602060002090601f016020900481019282601f10620016d757805160ff191683800117855562001708565b8280016001018555821562001708579182015b8281111562001707578251825591602001919060010190620016ea565b5b50905062001717919062001783565b5090565b60405161121e80620017ac83390190565b815481835581811511620017565781836000526020600020918201910162001755919062001783565b5b505050565b602060405190810160405280600081525090565b602060405190810160405280600081525090565b620017a891905b80821115620017a45760008160009055506001016200178a565b5090565b905600606060405234156200001057600080fd5b6040516200121e3803806200121e833981016040528080519060200190919080518201919060200180518201919050508160008090505b8151811015620000ce57600160008084848151811015156200006557fe5b9060200190602002015173ffffffffffffffffffffffffffffffffffffffff1673ffffffffffffffffffffffffffffffffffffffff16815260200190815260200160002060006101000a81548160ff021916908315150217905550808060010191505062000047565b8160029080519060200190620000e692919062000238565b50505082600360006101000a81548173ffffffffffffffffffffffffffffffffffffffff021916908373ffffffffffffffffffffffffffffffffffffffff160217905550806004908051906020019062000142929190620002c7565b503073ffffffffffffffffffffffffffffffffffffffff163373ffffffffffffffffffffffffffffffffffffffff167fcd0f4ab0c2ed648846227e5779e579c9d88bacea0fc7b06017a27c1ed07b4a2660046040518080602001828103825283818154600181600116156101000203166002900481526020019150805460018160011615610100020316600290048015620002215780601f10620001f55761010080835404028352916020019162000221565b820191906000526020600020905b8154815290600101906020018083116200020357829003601f168201915b50509250505060405180910390a3505050620003bc565b828054828255906000526020600020908101928215620002b4579160200282015b82811115620002b35782518260006101000a81548173ffffffffffffffffffffffffffffffffffffffff021916908373ffffffffffffffffffffffffffffffffffffffff1602179055509160200191906001019062000259565b5b509050620002c391906200034e565b5090565b828054600181600116156101000203166002900490600052602060002090601f016020900481019282601f106200030a57805160ff19168380011785556200033b565b828001600101855582156200033b579182015b828111156200033a5782518255916020019190600101906200031d565b5b5090506200034a919062000394565b5090565b6200039191905b808211156200038d57600081816101000a81549073ffffffffffffffffffffffffffffffffffffffff02191690555060010162000355565b5090565b90565b620003b991905b80821115620003b55760008160009055506001016200039b565b5090565b90565b610e5280620003cc6000396000f300606060405260043610610099576000357c0100000000000000000000000000000000000000000000000000000000900463ffffffff16806314bfd6d01461009e5780631aae25311461010157806324d7806c1461016b57806331ae450b146101bc5780633c6bb4361461022657806370480275146102b457806397f735d5146102ed578063ce26e78a1461033e578063e1b2e8b3146103cc575b600080fd5b34156100a957600080fd5b6100bf6004808035906020019091905050610405565b604051808273ffffffffffffffffffffffffffffffffffffffff1673ffffffffffffffffffffffffffffffffffffffff16815260200191505060405180910390f35b610151600480803590602001908201803590602001908080601f01602080910402602001604051908101604052809392919081815260200183838082843782019150505050505091905050610444565b604051808215151515815260200191505060405180910390f35b341561017657600080fd5b6101a2600480803573ffffffffffffffffffffffffffffffffffffffff1690602001909190505061075a565b604051808215151515815260200191505060405180910390f35b34156101c757600080fd5b6101cf61077a565b6040518080602001828103825283818151815260200191508051906020019060200280838360005b838110156102125780820151818401526020810190506101f7565b505050509050019250505060405180910390f35b341561023157600080fd5b61023961080e565b6040518080602001828103825283818151815260200191508051906020019080838360005b8381101561027957808201518184015260208101905061025e565b50505050905090810190601f1680156102a65780820380516001836020036101000a031916815260200191505b509250505060405180910390f35b34156102bf57600080fd5b6102eb600480803573ffffffffffffffffffffffffffffffffffffffff169060200190919050506108ac565b005b34156102f857600080fd5b610324600480803573ffffffffffffffffffffffffffffffffffffffff16906020019091905050610ac9565b604051808215151515815260200191505060405180910390f35b341561034957600080fd5b610351610ae9565b6040518080602001828103825283818151815260200191508051906020019080838360005b83811015610391578082015181840152602081019050610376565b50505050905090810190601f1680156103be5780820380516001836020036101000a031916815260200191505b509250505060405180910390f35b34156103d757600080fd5b610403600480803573ffffffffffffffffffffffffffffffffffffffff16906020019091905050610b87565b005b60028181548110151561041457fe5b90600052602060002090016000915054906101000a900473ffffffffffffffffffffffffffffffffffffffff1681565b60008060003373ffffffffffffffffffffffffffffffffffffffff1673ffffffffffffffffffffffffffffffffffffffff16815260200190815260200160002060009054906101000a900460ff16151561049d57600080fd5b600160003373ffffffffffffffffffffffffffffffffffffffff1673ffffffffffffffffffffffffffffffffffffffff16815260200190815260200160002060009054906101000a900460ff161515156104f657600080fd5b600360009054906101000a900473ffffffffffffffffffffffffffffffffffffffff1673ffffffffffffffffffffffffffffffffffffffff1663b37c755134306040518363ffffffff167c0100000000000000000000000000000000000000000000000000000000028152600401808273ffffffffffffffffffffffffffffffffffffffff1673ffffffffffffffffffffffffffffffffffffffff1681526020019150506000604051808303818588803b15156105b257600080fd5b6125ee5a03f115156105c357600080fd5b5050505081600590805190602001906105dd929190610d41565b503073ffffffffffffffffffffffffffffffffffffffff163373ffffffffffffffffffffffffffffffffffffffff167fda5a6664d30b58a6875c82c4ebb2e12cfa2618c54a08a2807e05b52726903064600460056040518080602001806020018381038352858181546001816001161561010002031660029004815260200191508054600181600116156101000203166002900480156106be5780601f10610693576101008083540402835291602001916106be565b820191906000526020600020905b8154815290600101906020018083116106a157829003601f168201915b50508381038252848181546001816001161561010002031660029004815260200191508054600181600116156101000203166002900480156107415780601f1061071657610100808354040283529160200191610741565b820191906000526020600020905b81548152906001019060200180831161072457829003601f168201915b505094505050505060405180910390a360019050919050565b60006020528060005260406000206000915054906101000a900460ff1681565b610782610dc1565b600280548060200260200160405190810160405280929190818152602001828054801561080457602002820191906000526020600020905b8160009054906101000a900473ffffffffffffffffffffffffffffffffffffffff1673ffffffffffffffffffffffffffffffffffffffff16815260200190600101908083116107ba575b5050505050905090565b60058054600181600116156101000203166002900480601f0160208091040260200160405190810160405280929190818152602001828054600181600116156101000203166002900480156108a45780601f10610879576101008083540402835291602001916108a4565b820191906000526020600020905b81548152906001019060200180831161088757829003601f168201915b505050505081565b6000803373ffffffffffffffffffffffffffffffffffffffff1673ffffffffffffffffffffffffffffffffffffffff16815260200190815260200160002060009054906101000a900460ff16151561090357600080fd5b600160003373ffffffffffffffffffffffffffffffffffffffff1673ffffffffffffffffffffffffffffffffffffffff16815260200190815260200160002060009054906101000a900460ff1615151561095c57600080fd5b6000803373ffffffffffffffffffffffffffffffffffffffff1673ffffffffffffffffffffffffffffffffffffffff16815260200190815260200160002060009054906101000a900460ff1615156109b357600080fd5b600160003373ffffffffffffffffffffffffffffffffffffffff1673ffffffffffffffffffffffffffffffffffffffff16815260200190815260200160002060009054906101000a900460ff16151515610a0c57600080fd5b60016000808373ffffffffffffffffffffffffffffffffffffffff1673ffffffffffffffffffffffffffffffffffffffff16815260200190815260200160002060006101000a81548160ff02191690831515021790555060028054806001018281610a779190610dd5565b9160005260206000209001600083909190916101000a81548173ffffffffffffffffffffffffffffffffffffffff021916908373ffffffffffffffffffffffffffffffffffffffff1602179055505050565b60016020528060005260406000206000915054906101000a900460ff1681565b60048054600181600116156101000203166002900480601f016020809104026020016040519081016040528092919081815260200182805460018160011615610100020316600290048015610b7f5780601f10610b5457610100808354040283529160200191610b7f565b820191906000526020600020905b815481529060010190602001808311610b6257829003601f168201915b505050505081565b6000803373ffffffffffffffffffffffffffffffffffffffff1673ffffffffffffffffffffffffffffffffffffffff16815260200190815260200160002060009054906101000a900460ff161515610bde57600080fd5b600160003373ffffffffffffffffffffffffffffffffffffffff1673ffffffffffffffffffffffffffffffffffffffff16815260200190815260200160002060009054906101000a900460ff16151515610c3757600080fd5b6000803373ffffffffffffffffffffffffffffffffffffffff1673ffffffffffffffffffffffffffffffffffffffff16815260200190815260200160002060009054906101000a900460ff161515610c8e57600080fd5b600160003373ffffffffffffffffffffffffffffffffffffffff1673ffffffffffffffffffffffffffffffffffffffff16815260200190815260200160002060009054906101000a900460ff16151515610ce757600080fd5b60018060008373ffffffffffffffffffffffffffffffffffffffff1673ffffffffffffffffffffffffffffffffffffffff16815260200190815260200160002060006101000a81548160ff02191690831515021790555050565b828054600181600116156101000203166002900490600052602060002090601f016020900481019282601f10610d8257805160ff1916838001178555610db0565b82800160010185558215610db0579182015b82811115610daf578251825591602001919060010190610d94565b5b509050610dbd9190610e01565b5090565b602060405190810160405280600081525090565b815481835581811511610dfc57818360005260206000209182019101610dfb9190610e01565b5b505050565b610e2391905b80821115610e1f576000816000905550600101610e07565b5090565b905600a165627a7a72305820dcf6eab8bf2e424288b416f1e21648dabb785ee991033c1a79955de12caf686b0029a165627a7a72305820c0d184ea7e57b890fc290d0d0743bb224a2972872ae5465af8ffce49feb188b20029a165627a7a72305820bf3410d76af7adc92de1945f6a31b6842a74e08bb8710f35b79925c941cb47ee0029",
  "source": "pragma solidity ^0.4.18; \n\nimport \"./GraphRoot.sol\";\n\ncontract SmartNodeItem is Administered {\n  \n  SmartKey smartKey;\n  GraphRoot graphRoot;\n  \n  function SmartNodeItem(GraphRoot _graphRoot, SmartKey _smartKey, address[] adminAddress) \n    Administered(adminAddress)\n    public\n  {\n      smartKey=_smartKey; \n      graphRoot=_graphRoot;\n  }\n\n  \n  function upsertItem(GraphNode _catalogue, string _href)\n  public\n  payable\n  returns (bool)\n  {\n      address[] memory _admins=new address[](3);\n      _admins[0]=msg.sender;\n      _admins[1]=address(_catalogue);\n      _admins[2]=address(this);\n      \n      CatalogueItem catData = new CatalogueItem(smartKey, _admins);\n      _catalogue.upsertItem.value(msg.value/2)(catData, _href);\n      return graphRoot.upsertItem.value(msg.value/2)(catData, _href);\n\n  }\n  \n  \n}",
  "sourcePath": "/home/richard/iotblock/contracts/SmartNodeItem.sol",
  "compiler": {
    "name": "solc",
    "version": "0.4.19+commit.c4cbbb05.Emscripten.clang"
  },
  "schemaVersion": "2.0.0",
  "updatedAt": "2018-03-16T10:48:47.542Z"
}