{
  "contractName": "SmartNode",
  "abi": [
    {
      "constant": true,
      "inputs": [
        {
          "name": "",
          "type": "uint256"
        }
      ],
      "name": "admins",
      "outputs": [
        {
          "name": "",
          "type": "address"
        }
      ],
      "payable": false,
      "stateMutability": "view",
      "type": "function"
    },
    {
      "constant": true,
      "inputs": [
        {
          "name": "",
          "type": "address"
        }
      ],
      "name": "isAdmin",
      "outputs": [
        {
          "name": "",
          "type": "bool"
        }
      ],
      "payable": false,
      "stateMutability": "view",
      "type": "function"
    },
    {
      "constant": true,
      "inputs": [],
      "name": "getAdmins",
      "outputs": [
        {
          "name": "",
          "type": "address[]"
        }
      ],
      "payable": false,
      "stateMutability": "view",
      "type": "function"
    },
    {
      "constant": false,
      "inputs": [
        {
          "name": "admin",
          "type": "address"
        }
      ],
      "name": "addAdmin",
      "outputs": [],
      "payable": false,
      "stateMutability": "nonpayable",
      "type": "function"
    },
    {
      "constant": true,
      "inputs": [
        {
          "name": "",
          "type": "address"
        }
      ],
      "name": "isBanned",
      "outputs": [
        {
          "name": "",
          "type": "bool"
        }
      ],
      "payable": false,
      "stateMutability": "view",
      "type": "function"
    },
    {
      "constant": false,
      "inputs": [
        {
          "name": "banned",
          "type": "address"
        }
      ],
      "name": "addBanned",
      "outputs": [],
      "payable": false,
      "stateMutability": "nonpayable",
      "type": "function"
    },
    {
      "inputs": [
        {
          "name": "_graphRoot",
          "type": "address"
        },
        {
          "name": "_smartKey",
          "type": "address"
        },
        {
          "name": "adminAddress",
          "type": "address[]"
        }
      ],
      "payable": false,
      "stateMutability": "nonpayable",
      "type": "constructor"
    },
    {
      "constant": false,
      "inputs": [
        {
          "name": "_parentNode",
          "type": "address"
        },
        {
          "name": "_href",
          "type": "string"
        }
      ],
      "name": "upsertNode",
      "outputs": [
        {
          "name": "",
          "type": "bool"
        }
      ],
      "payable": true,
      "stateMutability": "payable",
      "type": "function"
    }
  ],
  "bytecode": "0x6060604052341561000f57600080fd5b60405162005be438038062005be4833981016040528080519060200190919080519060200190919080518201919050508060008090505b81518110156100ca576001600080848481518110151561006257fe5b9060200190602002015173ffffffffffffffffffffffffffffffffffffffff1673ffffffffffffffffffffffffffffffffffffffff16815260200190815260200160002060006101000a81548160ff0219169083151502179055508080600101915050610046565b81600290805190602001906100e092919061016d565b50505081600360006101000a81548173ffffffffffffffffffffffffffffffffffffffff021916908373ffffffffffffffffffffffffffffffffffffffff16021790555082600460006101000a81548173ffffffffffffffffffffffffffffffffffffffff021916908373ffffffffffffffffffffffffffffffffffffffff16021790555050505061023a565b8280548282559060005260206000209081019282156101e6579160200282015b828111156101e55782518260006101000a81548173ffffffffffffffffffffffffffffffffffffffff021916908373ffffffffffffffffffffffffffffffffffffffff1602179055509160200191906001019061018d565b5b5090506101f391906101f7565b5090565b61023791905b8082111561023357600081816101000a81549073ffffffffffffffffffffffffffffffffffffffff0219169055506001016101fd565b5090565b90565b61599a806200024a6000396000f3006060604052600436106200008b576000357c0100000000000000000000000000000000000000000000000000000000900463ffffffff16806314bfd6d0146200009057806324d7806c14620000f657806331ae450b146200014a5780637048027514620001b957806397f735d514620001f5578063e1b2e8b31462000249578063f07aea181462000285575b600080fd5b34156200009c57600080fd5b620000b4600480803590602001909190505062000310565b604051808273ffffffffffffffffffffffffffffffffffffffff1673ffffffffffffffffffffffffffffffffffffffff16815260200191505060405180910390f35b34156200010257600080fd5b62000130600480803573ffffffffffffffffffffffffffffffffffffffff1690602001909190505062000350565b604051808215151515815260200191505060405180910390f35b34156200015657600080fd5b6200016062000370565b6040518080602001828103825283818151815260200191508051906020019060200280838360005b83811015620001a557808201518184015260208101905062000188565b505050509050019250505060405180910390f35b3415620001c557600080fd5b620001f3600480803573ffffffffffffffffffffffffffffffffffffffff1690602001909190505062000408565b005b34156200020157600080fd5b6200022f600480803573ffffffffffffffffffffffffffffffffffffffff169060200190919050506200062b565b604051808215151515815260200191505060405180910390f35b34156200025557600080fd5b62000283600480803573ffffffffffffffffffffffffffffffffffffffff169060200190919050506200064b565b005b620002f6600480803573ffffffffffffffffffffffffffffffffffffffff1690602001909190803590602001908201803590602001908080601f0160208091040260200160405190810160405280939291908181526020018383808284378201915050505050509190505062000809565b604051808215151515815260200191505060405180910390f35b6002818154811015156200032057fe5b90600052602060002090016000915054906101000a900473ffffffffffffffffffffffffffffffffffffffff1681565b60006020528060005260406000206000915054906101000a900460ff1681565b6200037a62000c91565b6002805480602002602001604051908101604052809291908181526020018280548015620003fe57602002820191906000526020600020905b8160009054906101000a900473ffffffffffffffffffffffffffffffffffffffff1673ffffffffffffffffffffffffffffffffffffffff1681526020019060010190808311620003b3575b5050505050905090565b6000803373ffffffffffffffffffffffffffffffffffffffff1673ffffffffffffffffffffffffffffffffffffffff16815260200190815260200160002060009054906101000a900460ff1615156200046057600080fd5b600160003373ffffffffffffffffffffffffffffffffffffffff1673ffffffffffffffffffffffffffffffffffffffff16815260200190815260200160002060009054906101000a900460ff16151515620004ba57600080fd5b6000803373ffffffffffffffffffffffffffffffffffffffff1673ffffffffffffffffffffffffffffffffffffffff16815260200190815260200160002060009054906101000a900460ff1615156200051257600080fd5b600160003373ffffffffffffffffffffffffffffffffffffffff1673ffffffffffffffffffffffffffffffffffffffff16815260200190815260200160002060009054906101000a900460ff161515156200056c57600080fd5b60016000808373ffffffffffffffffffffffffffffffffffffffff1673ffffffffffffffffffffffffffffffffffffffff16815260200190815260200160002060006101000a81548160ff02191690831515021790555060028054806001018281620005d9919062000ca5565b9160005260206000209001600083909190916101000a81548173ffffffffffffffffffffffffffffffffffffffff021916908373ffffffffffffffffffffffffffffffffffffffff1602179055505050565b60016020528060005260406000206000915054906101000a900460ff1681565b6000803373ffffffffffffffffffffffffffffffffffffffff1673ffffffffffffffffffffffffffffffffffffffff16815260200190815260200160002060009054906101000a900460ff161515620006a357600080fd5b600160003373ffffffffffffffffffffffffffffffffffffffff1673ffffffffffffffffffffffffffffffffffffffff16815260200190815260200160002060009054906101000a900460ff16151515620006fd57600080fd5b6000803373ffffffffffffffffffffffffffffffffffffffff1673ffffffffffffffffffffffffffffffffffffffff16815260200190815260200160002060009054906101000a900460ff1615156200075557600080fd5b600160003373ffffffffffffffffffffffffffffffffffffffff1673ffffffffffffffffffffffffffffffffffffffff16815260200190815260200160002060009054906101000a900460ff16151515620007af57600080fd5b60018060008373ffffffffffffffffffffffffffffffffffffffff1673ffffffffffffffffffffffffffffffffffffffff16815260200190815260200160002060006101000a81548160ff02191690831515021790555050565b60006200081562000c91565b60006003604051805910620008275750595b90808252806020026020018201604052509150338260008151811015156200084b57fe5b9060200190602002019073ffffffffffffffffffffffffffffffffffffffff16908173ffffffffffffffffffffffffffffffffffffffff1681525050848260018151811015156200089857fe5b9060200190602002019073ffffffffffffffffffffffffffffffffffffffff16908173ffffffffffffffffffffffffffffffffffffffff168152505030826002815181101515620008e557fe5b9060200190602002019073ffffffffffffffffffffffffffffffffffffffff16908173ffffffffffffffffffffffffffffffffffffffff1681525050600360009054906101000a900473ffffffffffffffffffffffffffffffffffffffff16826200094f62000cd4565b808373ffffffffffffffffffffffffffffffffffffffff1673ffffffffffffffffffffffffffffffffffffffff16815260200180602001828103825283818151815260200191508051906020019060200280838360005b83811015620009c3578082015181840152602081019050620009a6565b505050509050019350505050604051809103906000f0801515620009e657600080fd5b90508473ffffffffffffffffffffffffffffffffffffffff1663f07aea1860023481151562000a1157fe5b0483876000604051602001526040518463ffffffff167c0100000000000000000000000000000000000000000000000000000000028152600401808373ffffffffffffffffffffffffffffffffffffffff1673ffffffffffffffffffffffffffffffffffffffff16815260200180602001828103825283818151815260200191508051906020019080838360005b8381101562000abc57808201518184015260208101905062000a9f565b50505050905090810190601f16801562000aea5780820380516001836020036101000a031916815260200191505b5093505050506020604051808303818588803b151562000b0957600080fd5b6125ee5a03f1151562000b1b57600080fd5b505050506040518051905050600460009054906101000a900473ffffffffffffffffffffffffffffffffffffffff1673ffffffffffffffffffffffffffffffffffffffff1663f07aea1860023481151562000b7257fe5b0483876000604051602001526040518463ffffffff167c0100000000000000000000000000000000000000000000000000000000028152600401808373ffffffffffffffffffffffffffffffffffffffff1673ffffffffffffffffffffffffffffffffffffffff16815260200180602001828103825283818151815260200191508051906020019080838360005b8381101562000c1d57808201518184015260208101905062000c00565b50505050905090810190601f16801562000c4b5780820380516001836020036101000a031916815260200191505b5093505050506020604051808303818588803b151562000c6a57600080fd5b6125ee5a03f1151562000c7c57600080fd5b50505050604051805190509250505092915050565b602060405190810160405280600081525090565b81548183558181151162000ccf5781836000526020600020918201910162000cce919062000ce5565b5b505050565b604051614c618062000d0e83390190565b62000d0a91905b8082111562000d0657600081600090555060010162000cec565b5090565b905600606060405234156200001057600080fd5b60405162004c6138038062004c618339810160405280805190602001909190805182019190505033828281818060008090505b8151811015620000ca57600160008084848151811015156200006157fe5b9060200190602002015173ffffffffffffffffffffffffffffffffffffffff1673ffffffffffffffffffffffffffffffffffffffff16815260200190815260200160002060006101000a81548160ff021916908315150217905550808060010191505062000043565b8160029080519060200190620000e2929190620002a6565b50505081600560006101000a81548173ffffffffffffffffffffffffffffffffffffffff021916908373ffffffffffffffffffffffffffffffffffffffff1602179055505050505033600860006101000a81548173ffffffffffffffffffffffffffffffffffffffff021916908373ffffffffffffffffffffffffffffffffffffffff16021790555060008173ffffffffffffffffffffffffffffffffffffffff16141515156200019257600080fd5b80600a60006101000a81548173ffffffffffffffffffffffffffffffffffffffff021916908373ffffffffffffffffffffffffffffffffffffffff1602179055506000600a60146101000a81548160ff02191690836002811115620001f357fe5b0217905550600a60009054906101000a900473ffffffffffffffffffffffffffffffffffffffff1673ffffffffffffffffffffffffffffffffffffffff163373ffffffffffffffffffffffffffffffffffffffff167fae6905ed683ee316aa72cda27d03945d8f93ec0f2a213d899497c705cdbce4da600a60149054906101000a900460ff16604051808260028111156200028a57fe5b60ff16815260200191505060405180910390a35050506200037b565b82805482825590600052602060002090810192821562000322579160200282015b82811115620003215782518260006101000a81548173ffffffffffffffffffffffffffffffffffffffff021916908373ffffffffffffffffffffffffffffffffffffffff16021790555091602001919060010190620002c7565b5b50905062000331919062000335565b5090565b6200037891905b808211156200037457600081816101000a81549073ffffffffffffffffffffffffffffffffffffffff0219169055506001016200033c565b5090565b90565b6148d6806200038b6000396000f300606060405260043610620001e7576000357c0100000000000000000000000000000000000000000000000000000000900463ffffffff168063113adf4914620001f457806314bfd6d0146200024c5780631c53c28014620002b25780631d03b7cd14620003185780631e71e4d9146200038257806324d7806c14620003f157806331ae450b14620004455780635571edeb14620004b45780635b6beeb9146200051e5780635c866c78146200059a57806361c1350d14620005f257806367d90da214620006355780636db59df814620006c05780637012e30a14620006fa57806370480275146200080c57806374ddcd6e1462000848578063779d867714620008b75780638da5cb5b14620009075780639172fe08146200095f578063932f4172146200098f57806397f735d51462000a2f5780639ebd36f31462000a83578063a1f811ef1462000caa578063af92c1811462000ce4578063b6010fcd1462000cfc578063bfb231d21462000d9c578063c19d93fb1462000e02578063cb75b9971462000e3d578063cd5cfdaf1462000eb1578063e1b2e8b31462000f17578063ec6f214e1462000f53578063f07aea181462001002578063f2fde38b146200108d578063f63553b514620010c9578063f95fd40b1462001133578063fbfa77cf14620011a2575b620001f233620011fa565b005b34156200020057600080fd5b6200020a6200141e565b604051808273ffffffffffffffffffffffffffffffffffffffff1673ffffffffffffffffffffffffffffffffffffffff16815260200191505060405180910390f35b34156200025857600080fd5b62000270600480803590602001909190505062001444565b604051808273ffffffffffffffffffffffffffffffffffffffff1673ffffffffffffffffffffffffffffffffffffffff16815260200191505060405180910390f35b3415620002be57600080fd5b620002d6600480803590602001909190505062001484565b604051808273ffffffffffffffffffffffffffffffffffffffff1673ffffffffffffffffffffffffffffffffffffffff16815260200191505060405180910390f35b34156200032457600080fd5b62000340600480803560001916906020019091905050620014c4565b604051808273ffffffffffffffffffffffffffffffffffffffff1673ffffffffffffffffffffffffffffffffffffffff16815260200191505060405180910390f35b34156200038e57600080fd5b62000398620014f7565b6040518080602001828103825283818151815260200191508051906020019060200280838360005b83811015620003dd578082015181840152602081019050620003c0565b505050509050019250505060405180910390f35b3415620003fd57600080fd5b6200042b600480803573ffffffffffffffffffffffffffffffffffffffff169060200190919050506200158f565b604051808215151515815260200191505060405180910390f35b34156200045157600080fd5b6200045b620015af565b6040518080602001828103825283818151815260200191508051906020019060200280838360005b83811015620004a057808201518184015260208101905062000483565b505050509050019250505060405180910390f35b3415620004c057600080fd5b620004dc60048080356000191690602001909190505062001647565b604051808273ffffffffffffffffffffffffffffffffffffffff1673ffffffffffffffffffffffffffffffffffffffff16815260200191505060405180910390f35b34156200052a57600080fd5b6200057c600480803590602001908201803590602001908080601f016020809104026020016040519081016040528093929190818152602001838380828437820191505050505050919050506200167a565b60405180826000191660001916815260200191505060405180910390f35b3415620005a657600080fd5b620005b0620016e8565b604051808273ffffffffffffffffffffffffffffffffffffffff1673ffffffffffffffffffffffffffffffffffffffff16815260200191505060405180910390f35b3415620005fe57600080fd5b6200061f600480803590602001909190803590602001909190505062001712565b6040518082815260200191505060405180910390f35b620006a6600480803573ffffffffffffffffffffffffffffffffffffffff1690602001909190803590602001908201803590602001908080601f01602080910402602001604051908101604052809392919081815260200183838082843782019150505050505091905050620017f9565b604051808215151515815260200191505060405180910390f35b3415620006cc57600080fd5b620006e4600480803590602001909190505062001a43565b6040518082815260200191505060405180910390f35b34156200070657600080fd5b620007f6600480803590602001908201803590602001908080601f0160208091040260200160405190810160405280939291908181526020018383808284378201915050505050509190803515159060200190919080356000191690602001909190803590602001908201803590602001908080601f0160208091040260200160405190810160405280939291908181526020018383808284378201915050505050509190803590602001908201803590602001908080601f0160208091040260200160405190810160405280939291908181526020018383808284378201915050505050509190505062001b2f565b6040518082815260200191505060405180910390f35b34156200081857600080fd5b62000846600480803573ffffffffffffffffffffffffffffffffffffffff1690602001909190505062001dd9565b005b34156200085457600080fd5b6200085e62001ffc565b6040518080602001828103825283818151815260200191508051906020019060200280838360005b83811015620008a357808201518184015260208101905062000886565b505050509050019250505060405180910390f35b3415620008c357600080fd5b620008f1600480803573ffffffffffffffffffffffffffffffffffffffff1690602001909190505062002094565b6040518082815260200191505060405180910390f35b34156200091357600080fd5b6200091d620020ac565b604051808273ffffffffffffffffffffffffffffffffffffffff1673ffffffffffffffffffffffffffffffffffffffff16815260200191505060405180910390f35b6200098d600480803573ffffffffffffffffffffffffffffffffffffffff16906020019091905050620011fa565b005b34156200099b57600080fd5b620009ed600480803590602001908201803590602001908080601f01602080910402602001604051908101604052809392919081815260200183838082843782019150505050505091905050620020d2565b604051808273ffffffffffffffffffffffffffffffffffffffff1673ffffffffffffffffffffffffffffffffffffffff16815260200191505060405180910390f35b341562000a3b57600080fd5b62000a69600480803573ffffffffffffffffffffffffffffffffffffffff169060200190919050506200219f565b604051808215151515815260200191505060405180910390f35b341562000a8f57600080fd5b62000aa76004808035906020019091905050620021bf565b604051808773ffffffffffffffffffffffffffffffffffffffff1673ffffffffffffffffffffffffffffffffffffffff16815260200180602001861515151581526020018560001916600019168152602001806020018060200184810384528981815460018160011615610100020316600290048152602001915080546001816001161561010002031660029004801562000b865780601f1062000b5a5761010080835404028352916020019162000b86565b820191906000526020600020905b81548152906001019060200180831162000b6857829003601f168201915b505084810383528681815460018160011615610100020316600290048152602001915080546001816001161561010002031660029004801562000c0d5780601f1062000be15761010080835404028352916020019162000c0d565b820191906000526020600020905b81548152906001019060200180831162000bef57829003601f168201915b505084810382528581815460018160011615610100020316600290048152602001915080546001816001161561010002031660029004801562000c945780601f1062000c685761010080835404028352916020019162000c94565b820191906000526020600020905b81548152906001019060200180831162000c7657829003601f168201915b5050995050505050505050505060405180910390f35b341562000cb657600080fd5b62000cce600480803590602001909190505062002235565b6040518082815260200191505060405180910390f35b341562000cf057600080fd5b62000cfa62002260565b005b341562000d0857600080fd5b62000d5a600480803590602001908201803590602001908080601f01602080910402602001604051908101604052809392919081815260200183838082843782019150505050505091905050620023c0565b604051808273ffffffffffffffffffffffffffffffffffffffff1673ffffffffffffffffffffffffffffffffffffffff16815260200191505060405180910390f35b341562000da857600080fd5b62000dc060048080359060200190919050506200248d565b604051808273ffffffffffffffffffffffffffffffffffffffff1673ffffffffffffffffffffffffffffffffffffffff16815260200191505060405180910390f35b341562000e0e57600080fd5b62000e18620024cd565b6040518082600281111562000e2957fe5b60ff16815260200191505060405180910390f35b341562000e4957600080fd5b62000e616004808035906020019091905050620024e0565b604051808473ffffffffffffffffffffffffffffffffffffffff1673ffffffffffffffffffffffffffffffffffffffff168152602001838152602001828152602001935050505060405180910390f35b341562000ebd57600080fd5b62000ed560048080359060200190919050506200253a565b604051808273ffffffffffffffffffffffffffffffffffffffff1673ffffffffffffffffffffffffffffffffffffffff16815260200191505060405180910390f35b341562000f2357600080fd5b62000f51600480803573ffffffffffffffffffffffffffffffffffffffff169060200190919050506200257a565b005b62000fe8600480803590602001908201803590602001908080601f0160208091040260200160405190810160405280939291908181526020018383808284378201915050505050509190803590602001908201803590602001908080601f0160208091040260200160405190810160405280939291908181526020018383808284378201915050505050509190505062002738565b604051808215151515815260200191505060405180910390f35b62001073600480803573ffffffffffffffffffffffffffffffffffffffff1690602001909190803590602001908201803590602001908080601f0160208091040260200160405190810160405280939291908181526020018383808284378201915050505050509190505062002dd7565b604051808215151515815260200191505060405180910390f35b34156200109957600080fd5b620010c7600480803573ffffffffffffffffffffffffffffffffffffffff1690602001909190505062003053565b005b3415620010d557600080fd5b620010f1600480803560001916906020019091905050620031ad565b604051808273ffffffffffffffffffffffffffffffffffffffff1673ffffffffffffffffffffffffffffffffffffffff16815260200191505060405180910390f35b34156200113f57600080fd5b62001149620031e0565b6040518080602001828103825283818151815260200191508051906020019060200280838360005b838110156200118e57808201518184015260208101905062001171565b505050509050019250505060405180910390f35b3415620011ae57600080fd5b620011b862003278565b604051808273ffffffffffffffffffffffffffffffffffffffff1673ffffffffffffffffffffffffffffffffffffffff16815260200191505060405180910390f35b600860009054906101000a900473ffffffffffffffffffffffffffffffffffffffff1673ffffffffffffffffffffffffffffffffffffffff163373ffffffffffffffffffffffffffffffffffffffff161415156200125757600080fd5b6001600a60146101000a81548160ff021916908360028111156200127757fe5b0217905550600a60009054906101000a900473ffffffffffffffffffffffffffffffffffffffff1673ffffffffffffffffffffffffffffffffffffffff166108fc349081150290604051600060405180830381858888f193505050501515620012df57600080fd5b6200133334600960008473ffffffffffffffffffffffffffffffffffffffff1673ffffffffffffffffffffffffffffffffffffffff168152602001908152602001600020546200329e90919063ffffffff16565b600960008373ffffffffffffffffffffffffffffffffffffffff1673ffffffffffffffffffffffffffffffffffffffff16815260200190815260200160002081905550600a60009054906101000a900473ffffffffffffffffffffffffffffffffffffffff1673ffffffffffffffffffffffffffffffffffffffff163373ffffffffffffffffffffffffffffffffffffffff167fae6905ed683ee316aa72cda27d03945d8f93ec0f2a213d899497c705cdbce4da600a60149054906101000a900460ff16604051808260028111156200140857fe5b60ff16815260200191505060405180910390a350565b600560009054906101000a900473ffffffffffffffffffffffffffffffffffffffff1681565b6002818154811015156200145457fe5b90600052602060002090016000915054906101000a900473ffffffffffffffffffffffffffffffffffffffff1681565b600f818154811015156200149457fe5b90600052602060002090016000915054906101000a900473ffffffffffffffffffffffffffffffffffffffff1681565b60076020528060005260406000206000915054906101000a900473ffffffffffffffffffffffffffffffffffffffff1681565b62001501620032bd565b600f8054806020026020016040519081016040528092919081815260200182805480156200158557602002820191906000526020600020905b8160009054906101000a900473ffffffffffffffffffffffffffffffffffffffff1673ffffffffffffffffffffffffffffffffffffffff16815260200190600101908083116200153a575b5050505050905090565b60006020528060005260406000206000915054906101000a900460ff1681565b620015b9620032d1565b60028054806020026020016040519081016040528092919081815260200182805480156200163d57602002820191906000526020600020905b8160009054906101000a900473ffffffffffffffffffffffffffffffffffffffff1673ffffffffffffffffffffffffffffffffffffffff1681526020019060010190808311620015f2575b5050505050905090565b60046020528060005260406000206000915054906101000a900473ffffffffffffffffffffffffffffffffffffffff1681565b6000816040518082805190602001908083835b602083101515620016b457805182526020820191506020810190506020830392506200168d565b6001836020036101000a03801982511681845116808217855250505050505090500191505060405180910390209050919050565b6000600560009054906101000a900473ffffffffffffffffffffffffffffffffffffffff16905090565b600080600c80548091906001016200172b9190620032e5565b9150600c828154811015156200173d57fe5b90600052602060002090600302019050338160000160006101000a81548173ffffffffffffffffffffffffffffffffffffffff021916908373ffffffffffffffffffffffffffffffffffffffff160217905550838160010181905550828160020181905550833373ffffffffffffffffffffffffffffffffffffffff16837fabae455af5f2271c2159ed49e8728304bebc0f408ac8c99f47718c5cd5883c74866040518082815260200191505060405180910390a45092915050565b60008062001807836200167a565b9050600073ffffffffffffffffffffffffffffffffffffffff1660076000836000191660001916815260200190815260200160002060009054906101000a900473ffffffffffffffffffffffffffffffffffffffff1673ffffffffffffffffffffffffffffffffffffffff16141562001a38578360076000836000191660001916815260200190815260200160002060006101000a81548173ffffffffffffffffffffffffffffffffffffffff021916908373ffffffffffffffffffffffffffffffffffffffff16021790555060068054806001018281620018ea91906200331a565b9160005260206000209001600086909190916101000a81548173ffffffffffffffffffffffffffffffffffffffff021916908373ffffffffffffffffffffffffffffffffffffffff160217905550508373ffffffffffffffffffffffffffffffffffffffff1663b9d1916634856000604051602001526040518363ffffffff167c01000000000000000000000000000000000000000000000000000000000281526004018080602001828103825283818151815260200191508051906020019080838360005b83811015620019cd578082015181840152602081019050620019b0565b50505050905090810190601f168015620019fb5780820380516001836020036101000a031916815260200191505b50925050506020604051808303818588803b151562001a1957600080fd5b6125ee5a03f1151562001a2b57600080fd5b5050505060405180519050505b600191505092915050565b6000803373ffffffffffffffffffffffffffffffffffffffff16600c8481548110151562001a6d57fe5b906000526020600020906003020160000160009054906101000a900473ffffffffffffffffffffffffffffffffffffffff1673ffffffffffffffffffffffffffffffffffffffff16141562001b2957600d805480919060010162001ad2919062003349565b9150600d8281548110151562001ae457fe5b9060005260206000209001905082816000018190555082827f2b8a481e89dc06ea8474e349f239119eeb28ade85f513c4dc565232864d2c40360405160405180910390a35b50919050565b600080600b805480919060010162001b48919062003378565b9150600b8281548110151562001b5a57fe5b90600052602060002090600602019050338160000160006101000a81548173ffffffffffffffffffffffffffffffffffffffff021916908373ffffffffffffffffffffffffffffffffffffffff1602179055508681600101908051906020019062001bc7929190620033ad565b50858160020160006101000a81548160ff021916908315150217905550848160030181600019169055508381600401908051906020019062001c0b929190620033ad565b508281600501908051906020019062001c26929190620033ad565b5084600019163373ffffffffffffffffffffffffffffffffffffffff16837f377af03f7a20e598b24a0310bdbaa1734bf6b783731c6439efae85be4cbbba7b8a8a89896040518080602001851515151581526020018060200180602001848103845288818151815260200191508051906020019080838360005b8381101562001cbd57808201518184015260208101905062001ca0565b50505050905090810190601f16801562001ceb5780820380516001836020036101000a031916815260200191505b50848103835286818151815260200191508051906020019080838360005b8381101562001d2657808201518184015260208101905062001d09565b50505050905090810190601f16801562001d545780820380516001836020036101000a031916815260200191505b50848103825285818151815260200191508051906020019080838360005b8381101562001d8f57808201518184015260208101905062001d72565b50505050905090810190601f16801562001dbd5780820380516001836020036101000a031916815260200191505b5097505050505050505060405180910390a45095945050505050565b6000803373ffffffffffffffffffffffffffffffffffffffff1673ffffffffffffffffffffffffffffffffffffffff16815260200190815260200160002060009054906101000a900460ff16151562001e3157600080fd5b600160003373ffffffffffffffffffffffffffffffffffffffff1673ffffffffffffffffffffffffffffffffffffffff16815260200190815260200160002060009054906101000a900460ff1615151562001e8b57600080fd5b6000803373ffffffffffffffffffffffffffffffffffffffff1673ffffffffffffffffffffffffffffffffffffffff16815260200190815260200160002060009054906101000a900460ff16151562001ee357600080fd5b600160003373ffffffffffffffffffffffffffffffffffffffff1673ffffffffffffffffffffffffffffffffffffffff16815260200190815260200160002060009054906101000a900460ff1615151562001f3d57600080fd5b60016000808373ffffffffffffffffffffffffffffffffffffffff1673ffffffffffffffffffffffffffffffffffffffff16815260200190815260200160002060006101000a81548160ff0219169083151502179055506002805480600101828162001faa919062003434565b9160005260206000209001600083909190916101000a81548173ffffffffffffffffffffffffffffffffffffffff021916908373ffffffffffffffffffffffffffffffffffffffff1602179055505050565b6200200662003463565b60068054806020026020016040519081016040528092919081815260200182805480156200208a57602002820191906000526020600020905b8160009054906101000a900473ffffffffffffffffffffffffffffffffffffffff1673ffffffffffffffffffffffffffffffffffffffff16815260200190600101908083116200203f575b5050505050905090565b60096020528060005260406000206000915090505481565b600860009054906101000a900473ffffffffffffffffffffffffffffffffffffffff1681565b600080620020e0836200167a565b9050600073ffffffffffffffffffffffffffffffffffffffff1660106000836000191660001916815260200190815260200160002060009054906101000a900473ffffffffffffffffffffffffffffffffffffffff1673ffffffffffffffffffffffffffffffffffffffff16141515620021985760106000826000191660001916815260200190815260200160002060009054906101000a900473ffffffffffffffffffffffffffffffffffffffff16915062002199565b5b50919050565b60016020528060005260406000206000915054906101000a900460ff1681565b600b81815481101515620021cf57fe5b90600052602060002090600602016000915090508060000160009054906101000a900473ffffffffffffffffffffffffffffffffffffffff169080600101908060020160009054906101000a900460ff1690806003015490806004019080600501905086565b600d818154811015156200224557fe5b90600052602060002090016000915090508060000154905081565b600860009054906101000a900473ffffffffffffffffffffffffffffffffffffffff1673ffffffffffffffffffffffffffffffffffffffff163373ffffffffffffffffffffffffffffffffffffffff16141515620022bd57600080fd5b60016002811115620022cb57fe5b600a60149054906101000a900460ff166002811115620022e757fe5b141515620022f457600080fd5b6002600a60146101000a81548160ff021916908360028111156200231457fe5b0217905550600a60009054906101000a900473ffffffffffffffffffffffffffffffffffffffff1673ffffffffffffffffffffffffffffffffffffffff163373ffffffffffffffffffffffffffffffffffffffff167fae6905ed683ee316aa72cda27d03945d8f93ec0f2a213d899497c705cdbce4da600a60149054906101000a900460ff1660405180826002811115620023ab57fe5b60ff16815260200191505060405180910390a3565b600080620023ce836200167a565b9050600073ffffffffffffffffffffffffffffffffffffffff1660076000836000191660001916815260200190815260200160002060009054906101000a900473ffffffffffffffffffffffffffffffffffffffff1673ffffffffffffffffffffffffffffffffffffffff16141515620024865760076000826000191660001916815260200190815260200160002060009054906101000a900473ffffffffffffffffffffffffffffffffffffffff16915062002487565b5b50919050565b6006818154811015156200249d57fe5b90600052602060002090016000915054906101000a900473ffffffffffffffffffffffffffffffffffffffff1681565b600a60149054906101000a900460ff1681565b600c81815481101515620024f057fe5b90600052602060002090600302016000915090508060000160009054906101000a900473ffffffffffffffffffffffffffffffffffffffff16908060010154908060020154905083565b6003818154811015156200254a57fe5b90600052602060002090016000915054906101000a900473ffffffffffffffffffffffffffffffffffffffff1681565b6000803373ffffffffffffffffffffffffffffffffffffffff1673ffffffffffffffffffffffffffffffffffffffff16815260200190815260200160002060009054906101000a900460ff161515620025d257600080fd5b600160003373ffffffffffffffffffffffffffffffffffffffff1673ffffffffffffffffffffffffffffffffffffffff16815260200190815260200160002060009054906101000a900460ff161515156200262c57600080fd5b6000803373ffffffffffffffffffffffffffffffffffffffff1673ffffffffffffffffffffffffffffffffffffffff16815260200190815260200160002060009054906101000a900460ff1615156200268457600080fd5b600160003373ffffffffffffffffffffffffffffffffffffffff1673ffffffffffffffffffffffffffffffffffffffff16815260200190815260200160002060009054906101000a900460ff16151515620026de57600080fd5b60018060008373ffffffffffffffffffffffffffffffffffffffff1673ffffffffffffffffffffffffffffffffffffffff16815260200190815260200160002060006101000a81548160ff02191690831515021790555050565b6000806000806000600560009054906101000a900473ffffffffffffffffffffffffffffffffffffffff1673ffffffffffffffffffffffffffffffffffffffff166393790f44336000604051602001526040518263ffffffff167c0100000000000000000000000000000000000000000000000000000000028152600401808273ffffffffffffffffffffffffffffffffffffffff1673ffffffffffffffffffffffffffffffffffffffff168152602001915050602060405180830381600087803b15156200280657600080fd5b6102c65a03f115156200281857600080fd5b5050506040518051905093508373ffffffffffffffffffffffffffffffffffffffff16635b6beeb9886000604051602001526040518263ffffffff167c01000000000000000000000000000000000000000000000000000000000281526004018080602001828103825283818151815260200191508051906020019080838360005b83811015620028b75780820151818401526020810190506200289a565b50505050905090810190601f168015620028e55780820380516001836020036101000a031916815260200191505b5092505050602060405180830381600087803b15156200290457600080fd5b6102c65a03f115156200291657600080fd5b505050604051805190509250600073ffffffffffffffffffffffffffffffffffffffff1660046000856000191660001916815260200190815260200160002060009054906101000a900473ffffffffffffffffffffffffffffffffffffffff1673ffffffffffffffffffffffffffffffffffffffff16141562002c8f5760029050808054806001018281620029ac919062003434565b9160005260206000209001600030909190916101000a81548173ffffffffffffffffffffffffffffffffffffffff021916908373ffffffffffffffffffffffffffffffffffffffff1602179055505080805480600101828162002a10919062003434565b9160005260206000209001600033909190916101000a81548173ffffffffffffffffffffffffffffffffffffffff021916908373ffffffffffffffffffffffffffffffffffffffff16021790555050600560009054906101000a900473ffffffffffffffffffffffffffffffffffffffff1660028862002a8f62003477565b808473ffffffffffffffffffffffffffffffffffffffff1673ffffffffffffffffffffffffffffffffffffffff1681526020018060200180602001838103835285818154815260200191508054801562002b3f57602002820191906000526020600020905b8160009054906101000a900473ffffffffffffffffffffffffffffffffffffffff1673ffffffffffffffffffffffffffffffffffffffff168152602001906001019080831162002af4575b5050838103825284818151815260200191508051906020019080838360005b8381101562002b7b57808201518184015260208101905062002b5e565b50505050905090810190601f16801562002ba95780820380516001836020036101000a031916815260200191505b5095505050505050604051809103906000f080151562002bc857600080fd5b91508160046000856000191660001916815260200190815260200160002060006101000a81548173ffffffffffffffffffffffffffffffffffffffff021916908373ffffffffffffffffffffffffffffffffffffffff1602179055506003805480600101828162002c3a919062003488565b9160005260206000209001600084909190916101000a81548173ffffffffffffffffffffffffffffffffffffffff021916908373ffffffffffffffffffffffffffffffffffffffff1602179055505062002cce565b60046000846000191660001916815260200190815260200160002060009054906101000a900473ffffffffffffffffffffffffffffffffffffffff1691505b8173ffffffffffffffffffffffffffffffffffffffff16631aae253134886000604051602001526040518363ffffffff167c01000000000000000000000000000000000000000000000000000000000281526004018080602001828103825283818151815260200191508051906020019080838360005b8381101562002d6257808201518184015260208101905062002d45565b50505050905090810190601f16801562002d905780820380516001836020036101000a031916815260200191505b50925050506020604051808303818588803b151562002dae57600080fd5b6125ee5a03f1151562002dc057600080fd5b505050506040518051905094505050505092915050565b60008062002de5836200167a565b9050600073ffffffffffffffffffffffffffffffffffffffff1660106000836000191660001916815260200190815260200160002060009054906101000a900473ffffffffffffffffffffffffffffffffffffffff1673ffffffffffffffffffffffffffffffffffffffff16141562002f53578360106000836000191660001916815260200190815260200160002060006101000a81548173ffffffffffffffffffffffffffffffffffffffff021916908373ffffffffffffffffffffffffffffffffffffffff160217905550600f805480600101828162002ec89190620034b7565b9160005260206000209001600060106000856000191660001916815260200190815260200160002060009054906101000a900473ffffffffffffffffffffffffffffffffffffffff16909190916101000a81548173ffffffffffffffffffffffffffffffffffffffff021916908373ffffffffffffffffffffffffffffffffffffffff160217905550505b600560009054906101000a900473ffffffffffffffffffffffffffffffffffffffff1673ffffffffffffffffffffffffffffffffffffffff1663b37c755134600a60009054906101000a900473ffffffffffffffffffffffffffffffffffffffff166040518363ffffffff167c0100000000000000000000000000000000000000000000000000000000028152600401808273ffffffffffffffffffffffffffffffffffffffff1673ffffffffffffffffffffffffffffffffffffffff1681526020019150506000604051808303818588803b15156200303257600080fd5b6125ee5a03f115156200304457600080fd5b50505050600191505092915050565b600860009054906101000a900473ffffffffffffffffffffffffffffffffffffffff1673ffffffffffffffffffffffffffffffffffffffff163373ffffffffffffffffffffffffffffffffffffffff16141515620030b057600080fd5b600073ffffffffffffffffffffffffffffffffffffffff168173ffffffffffffffffffffffffffffffffffffffff1614151515620030ed57600080fd5b8073ffffffffffffffffffffffffffffffffffffffff16600860009054906101000a900473ffffffffffffffffffffffffffffffffffffffff1673ffffffffffffffffffffffffffffffffffffffff167f8be0079c531659141344cd1fd0a4f28419497f9722a3daafe3b4186f6b6457e060405160405180910390a380600860006101000a81548173ffffffffffffffffffffffffffffffffffffffff021916908373ffffffffffffffffffffffffffffffffffffffff16021790555050565b60106020528060005260406000206000915054906101000a900473ffffffffffffffffffffffffffffffffffffffff1681565b620031ea620034e6565b60038054806020026020016040519081016040528092919081815260200182805480156200326e57602002820191906000526020600020905b8160009054906101000a900473ffffffffffffffffffffffffffffffffffffffff1673ffffffffffffffffffffffffffffffffffffffff168152602001906001019080831162003223575b5050505050905090565b600a60009054906101000a900473ffffffffffffffffffffffffffffffffffffffff1681565b6000808284019050838110151515620032b357fe5b8091505092915050565b602060405190810160405280600081525090565b602060405190810160405280600081525090565b8154818355818115116200331557600302816003028360005260206000209182019101620033149190620034fa565b5b505050565b815481835581811511620033445781836000526020600020918201910162003343919062003553565b5b505050565b81548183558181151162003373578183600052602060002091820191016200337291906200357b565b5b505050565b815481835581811511620033a857600602816006028360005260206000209182019101620033a79190620035a5565b5b505050565b828054600181600116156101000203166002900490600052602060002090601f016020900481019282601f10620033f057805160ff191683800117855562003421565b8280016001018555821562003421579182015b828111156200342057825182559160200191906001019062003403565b5b50905062003430919062003553565b5090565b8154818355818115116200345e578183600052602060002091820191016200345d919062003553565b5b505050565b602060405190810160405280600081525090565b60405161121e806200368d83390190565b815481835581811511620034b257818360005260206000209182019101620034b1919062003553565b5b505050565b815481835581811511620034e157818360005260206000209182019101620034e0919062003553565b5b505050565b602060405190810160405280600081525090565b6200355091905b808211156200354c57600080820160006101000a81549073ffffffffffffffffffffffffffffffffffffffff0219169055600182016000905560028201600090555060030162003501565b5090565b90565b6200357891905b80821115620035745760008160009055506001016200355a565b5090565b90565b620035a291905b808211156200359e576000808201600090555060010162003582565b5090565b90565b6200363d91905b808211156200363957600080820160006101000a81549073ffffffffffffffffffffffffffffffffffffffff0219169055600182016000620035ef919062003640565b6002820160006101000a81549060ff021916905560038201600090556004820160006200361d919062003640565b6005820160006200362f919062003640565b50600601620035ac565b5090565b90565b50805460018160011615610100020316600290046000825580601f1062003668575062003689565b601f01602090049060005260206000209081019062003688919062003553565b5b505600606060405234156200001057600080fd5b6040516200121e3803806200121e833981016040528080519060200190919080518201919060200180518201919050508160008090505b8151811015620000ce57600160008084848151811015156200006557fe5b9060200190602002015173ffffffffffffffffffffffffffffffffffffffff1673ffffffffffffffffffffffffffffffffffffffff16815260200190815260200160002060006101000a81548160ff021916908315150217905550808060010191505062000047565b8160029080519060200190620000e692919062000238565b50505082600360006101000a81548173ffffffffffffffffffffffffffffffffffffffff021916908373ffffffffffffffffffffffffffffffffffffffff160217905550806004908051906020019062000142929190620002c7565b503073ffffffffffffffffffffffffffffffffffffffff163373ffffffffffffffffffffffffffffffffffffffff167fcd0f4ab0c2ed648846227e5779e579c9d88bacea0fc7b06017a27c1ed07b4a2660046040518080602001828103825283818154600181600116156101000203166002900481526020019150805460018160011615610100020316600290048015620002215780601f10620001f55761010080835404028352916020019162000221565b820191906000526020600020905b8154815290600101906020018083116200020357829003601f168201915b50509250505060405180910390a3505050620003bc565b828054828255906000526020600020908101928215620002b4579160200282015b82811115620002b35782518260006101000a81548173ffffffffffffffffffffffffffffffffffffffff021916908373ffffffffffffffffffffffffffffffffffffffff1602179055509160200191906001019062000259565b5b509050620002c391906200034e565b5090565b828054600181600116156101000203166002900490600052602060002090601f016020900481019282601f106200030a57805160ff19168380011785556200033b565b828001600101855582156200033b579182015b828111156200033a5782518255916020019190600101906200031d565b5b5090506200034a919062000394565b5090565b6200039191905b808211156200038d57600081816101000a81549073ffffffffffffffffffffffffffffffffffffffff02191690555060010162000355565b5090565b90565b620003b991905b80821115620003b55760008160009055506001016200039b565b5090565b90565b610e5280620003cc6000396000f300606060405260043610610099576000357c0100000000000000000000000000000000000000000000000000000000900463ffffffff16806314bfd6d01461009e5780631aae25311461010157806324d7806c1461016b57806331ae450b146101bc5780633c6bb4361461022657806370480275146102b457806397f735d5146102ed578063ce26e78a1461033e578063e1b2e8b3146103cc575b600080fd5b34156100a957600080fd5b6100bf6004808035906020019091905050610405565b604051808273ffffffffffffffffffffffffffffffffffffffff1673ffffffffffffffffffffffffffffffffffffffff16815260200191505060405180910390f35b610151600480803590602001908201803590602001908080601f01602080910402602001604051908101604052809392919081815260200183838082843782019150505050505091905050610444565b604051808215151515815260200191505060405180910390f35b341561017657600080fd5b6101a2600480803573ffffffffffffffffffffffffffffffffffffffff1690602001909190505061075a565b604051808215151515815260200191505060405180910390f35b34156101c757600080fd5b6101cf61077a565b6040518080602001828103825283818151815260200191508051906020019060200280838360005b838110156102125780820151818401526020810190506101f7565b505050509050019250505060405180910390f35b341561023157600080fd5b61023961080e565b6040518080602001828103825283818151815260200191508051906020019080838360005b8381101561027957808201518184015260208101905061025e565b50505050905090810190601f1680156102a65780820380516001836020036101000a031916815260200191505b509250505060405180910390f35b34156102bf57600080fd5b6102eb600480803573ffffffffffffffffffffffffffffffffffffffff169060200190919050506108ac565b005b34156102f857600080fd5b610324600480803573ffffffffffffffffffffffffffffffffffffffff16906020019091905050610ac9565b604051808215151515815260200191505060405180910390f35b341561034957600080fd5b610351610ae9565b6040518080602001828103825283818151815260200191508051906020019080838360005b83811015610391578082015181840152602081019050610376565b50505050905090810190601f1680156103be5780820380516001836020036101000a031916815260200191505b509250505060405180910390f35b34156103d757600080fd5b610403600480803573ffffffffffffffffffffffffffffffffffffffff16906020019091905050610b87565b005b60028181548110151561041457fe5b90600052602060002090016000915054906101000a900473ffffffffffffffffffffffffffffffffffffffff1681565b60008060003373ffffffffffffffffffffffffffffffffffffffff1673ffffffffffffffffffffffffffffffffffffffff16815260200190815260200160002060009054906101000a900460ff16151561049d57600080fd5b600160003373ffffffffffffffffffffffffffffffffffffffff1673ffffffffffffffffffffffffffffffffffffffff16815260200190815260200160002060009054906101000a900460ff161515156104f657600080fd5b600360009054906101000a900473ffffffffffffffffffffffffffffffffffffffff1673ffffffffffffffffffffffffffffffffffffffff1663b37c755134306040518363ffffffff167c0100000000000000000000000000000000000000000000000000000000028152600401808273ffffffffffffffffffffffffffffffffffffffff1673ffffffffffffffffffffffffffffffffffffffff1681526020019150506000604051808303818588803b15156105b257600080fd5b6125ee5a03f115156105c357600080fd5b5050505081600590805190602001906105dd929190610d41565b503073ffffffffffffffffffffffffffffffffffffffff163373ffffffffffffffffffffffffffffffffffffffff167fda5a6664d30b58a6875c82c4ebb2e12cfa2618c54a08a2807e05b52726903064600460056040518080602001806020018381038352858181546001816001161561010002031660029004815260200191508054600181600116156101000203166002900480156106be5780601f10610693576101008083540402835291602001916106be565b820191906000526020600020905b8154815290600101906020018083116106a157829003601f168201915b50508381038252848181546001816001161561010002031660029004815260200191508054600181600116156101000203166002900480156107415780601f1061071657610100808354040283529160200191610741565b820191906000526020600020905b81548152906001019060200180831161072457829003601f168201915b505094505050505060405180910390a360019050919050565b60006020528060005260406000206000915054906101000a900460ff1681565b610782610dc1565b600280548060200260200160405190810160405280929190818152602001828054801561080457602002820191906000526020600020905b8160009054906101000a900473ffffffffffffffffffffffffffffffffffffffff1673ffffffffffffffffffffffffffffffffffffffff16815260200190600101908083116107ba575b5050505050905090565b60058054600181600116156101000203166002900480601f0160208091040260200160405190810160405280929190818152602001828054600181600116156101000203166002900480156108a45780601f10610879576101008083540402835291602001916108a4565b820191906000526020600020905b81548152906001019060200180831161088757829003601f168201915b505050505081565b6000803373ffffffffffffffffffffffffffffffffffffffff1673ffffffffffffffffffffffffffffffffffffffff16815260200190815260200160002060009054906101000a900460ff16151561090357600080fd5b600160003373ffffffffffffffffffffffffffffffffffffffff1673ffffffffffffffffffffffffffffffffffffffff16815260200190815260200160002060009054906101000a900460ff1615151561095c57600080fd5b6000803373ffffffffffffffffffffffffffffffffffffffff1673ffffffffffffffffffffffffffffffffffffffff16815260200190815260200160002060009054906101000a900460ff1615156109b357600080fd5b600160003373ffffffffffffffffffffffffffffffffffffffff1673ffffffffffffffffffffffffffffffffffffffff16815260200190815260200160002060009054906101000a900460ff16151515610a0c57600080fd5b60016000808373ffffffffffffffffffffffffffffffffffffffff1673ffffffffffffffffffffffffffffffffffffffff16815260200190815260200160002060006101000a81548160ff02191690831515021790555060028054806001018281610a779190610dd5565b9160005260206000209001600083909190916101000a81548173ffffffffffffffffffffffffffffffffffffffff021916908373ffffffffffffffffffffffffffffffffffffffff1602179055505050565b60016020528060005260406000206000915054906101000a900460ff1681565b60048054600181600116156101000203166002900480601f016020809104026020016040519081016040528092919081815260200182805460018160011615610100020316600290048015610b7f5780601f10610b5457610100808354040283529160200191610b7f565b820191906000526020600020905b815481529060010190602001808311610b6257829003601f168201915b505050505081565b6000803373ffffffffffffffffffffffffffffffffffffffff1673ffffffffffffffffffffffffffffffffffffffff16815260200190815260200160002060009054906101000a900460ff161515610bde57600080fd5b600160003373ffffffffffffffffffffffffffffffffffffffff1673ffffffffffffffffffffffffffffffffffffffff16815260200190815260200160002060009054906101000a900460ff16151515610c3757600080fd5b6000803373ffffffffffffffffffffffffffffffffffffffff1673ffffffffffffffffffffffffffffffffffffffff16815260200190815260200160002060009054906101000a900460ff161515610c8e57600080fd5b600160003373ffffffffffffffffffffffffffffffffffffffff1673ffffffffffffffffffffffffffffffffffffffff16815260200190815260200160002060009054906101000a900460ff16151515610ce757600080fd5b60018060008373ffffffffffffffffffffffffffffffffffffffff1673ffffffffffffffffffffffffffffffffffffffff16815260200190815260200160002060006101000a81548160ff02191690831515021790555050565b828054600181600116156101000203166002900490600052602060002090601f016020900481019282601f10610d8257805160ff1916838001178555610db0565b82800160010185558215610db0579182015b82811115610daf578251825591602001919060010190610d94565b5b509050610dbd9190610e01565b5090565b602060405190810160405280600081525090565b815481835581811511610dfc57818360005260206000209182019101610dfb9190610e01565b5b505050565b610e2391905b80821115610e1f576000816000905550600101610e07565b5090565b905600a165627a7a72305820dcf6eab8bf2e424288b416f1e21648dabb785ee991033c1a79955de12caf686b0029a165627a7a723058206102a34f3e9e6985d9279d712807ccbb1b6aa00a3875ab79581b54b3742962c30029a165627a7a72305820d71d9533bc50b49f0896d45bcc4a9749439217af0a1c65c77cc2a2a59a9d9a090029",
  "source": "pragma solidity ^0.4.18; \n\nimport \"./GraphRoot.sol\";\n\ncontract SmartNode is Administered {\n  \n  SmartKey smartKey;\n  GraphRoot graphRoot;\n  \n  function SmartNode(GraphRoot _graphRoot, SmartKey _smartKey, address[] adminAddress) \n    Administered(adminAddress)\n    public\n  {\n      smartKey=_smartKey; \n      graphRoot=_graphRoot;\n  }\n\n  \n  function upsertNode(GraphNode _parentNode, string _href)\n  public\n  payable\n  returns (bool)\n  {\n      \n      address[] memory _admins=new address[](3);\n     _admins[0]=msg.sender;\n     _admins[1]=address(_parentNode);  \n     _admins[2]=address(this);  \n   \n      GraphNode _node = new GraphNode(smartKey, _admins);\n\n      _parentNode.upsertNode.value(msg.value/2)(_node, _href);\n      return graphRoot.upsertNode.value(msg.value/2)(_node, _href);\n  }\n    \n  \n}",
  "sourcePath": "/home/richard/iotblock/contracts/SmartNode.sol",
  "compiler": {
    "name": "solc",
    "version": "0.4.19+commit.c4cbbb05.Emscripten.clang"
  },
  "schemaVersion": "2.0.0",
  "updatedAt": "2018-03-15T17:14:18.968Z"
}