{
  "contractName": "SmartKey",
  "abi": [
    {
      "constant": true,
      "inputs": [],
      "name": "mintingFinished",
      "outputs": [
        {
          "name": "",
          "type": "bool"
        }
      ],
      "payable": false,
      "stateMutability": "view",
      "type": "function"
    },
    {
      "constant": true,
      "inputs": [],
      "name": "name",
      "outputs": [
        {
          "name": "",
          "type": "string"
        }
      ],
      "payable": false,
      "stateMutability": "view",
      "type": "function"
    },
    {
      "constant": false,
      "inputs": [
        {
          "name": "_spender",
          "type": "address"
        },
        {
          "name": "_value",
          "type": "uint256"
        }
      ],
      "name": "approve",
      "outputs": [
        {
          "name": "",
          "type": "bool"
        }
      ],
      "payable": false,
      "stateMutability": "nonpayable",
      "type": "function"
    },
    {
      "constant": false,
      "inputs": [],
      "name": "reopenMinting",
      "outputs": [
        {
          "name": "",
          "type": "bool"
        }
      ],
      "payable": false,
      "stateMutability": "nonpayable",
      "type": "function"
    },
    {
      "constant": true,
      "inputs": [
        {
          "name": "",
          "type": "uint256"
        }
      ],
      "name": "admins",
      "outputs": [
        {
          "name": "",
          "type": "address"
        }
      ],
      "payable": false,
      "stateMutability": "view",
      "type": "function"
    },
    {
      "constant": false,
      "inputs": [
        {
          "name": "_spender",
          "type": "address"
        },
        {
          "name": "_addedValue",
          "type": "uint256"
        },
        {
          "name": "_data",
          "type": "bytes"
        }
      ],
      "name": "increaseApproval",
      "outputs": [
        {
          "name": "",
          "type": "bool"
        }
      ],
      "payable": false,
      "stateMutability": "nonpayable",
      "type": "function"
    },
    {
      "constant": true,
      "inputs": [],
      "name": "totalSupply",
      "outputs": [
        {
          "name": "",
          "type": "uint256"
        }
      ],
      "payable": false,
      "stateMutability": "view",
      "type": "function"
    },
    {
      "constant": false,
      "inputs": [
        {
          "name": "_from",
          "type": "address"
        },
        {
          "name": "_to",
          "type": "address"
        },
        {
          "name": "_value",
          "type": "uint256"
        }
      ],
      "name": "transferFrom",
      "outputs": [
        {
          "name": "",
          "type": "bool"
        }
      ],
      "payable": false,
      "stateMutability": "nonpayable",
      "type": "function"
    },
    {
      "constant": true,
      "inputs": [
        {
          "name": "",
          "type": "address"
        }
      ],
      "name": "isAdmin",
      "outputs": [
        {
          "name": "",
          "type": "bool"
        }
      ],
      "payable": false,
      "stateMutability": "view",
      "type": "function"
    },
    {
      "constant": true,
      "inputs": [],
      "name": "rate",
      "outputs": [
        {
          "name": "",
          "type": "uint256"
        }
      ],
      "payable": false,
      "stateMutability": "view",
      "type": "function"
    },
    {
      "constant": true,
      "inputs": [],
      "name": "decimals",
      "outputs": [
        {
          "name": "",
          "type": "uint8"
        }
      ],
      "payable": false,
      "stateMutability": "view",
      "type": "function"
    },
    {
      "constant": true,
      "inputs": [],
      "name": "getAdmins",
      "outputs": [
        {
          "name": "",
          "type": "address[]"
        }
      ],
      "payable": false,
      "stateMutability": "view",
      "type": "function"
    },
    {
      "constant": false,
      "inputs": [
        {
          "name": "_rate",
          "type": "uint256"
        }
      ],
      "name": "setRate",
      "outputs": [
        {
          "name": "",
          "type": "uint256"
        }
      ],
      "payable": false,
      "stateMutability": "nonpayable",
      "type": "function"
    },
    {
      "constant": false,
      "inputs": [
        {
          "name": "_to",
          "type": "address"
        },
        {
          "name": "_amount",
          "type": "uint256"
        }
      ],
      "name": "mint",
      "outputs": [
        {
          "name": "",
          "type": "bool"
        }
      ],
      "payable": false,
      "stateMutability": "nonpayable",
      "type": "function"
    },
    {
      "constant": true,
      "inputs": [],
      "name": "version",
      "outputs": [
        {
          "name": "",
          "type": "string"
        }
      ],
      "payable": false,
      "stateMutability": "view",
      "type": "function"
    },
    {
      "constant": false,
      "inputs": [
        {
          "name": "_spender",
          "type": "address"
        },
        {
          "name": "_value",
          "type": "uint256"
        },
        {
          "name": "_data",
          "type": "bytes"
        }
      ],
      "name": "approve",
      "outputs": [
        {
          "name": "",
          "type": "bool"
        }
      ],
      "payable": false,
      "stateMutability": "nonpayable",
      "type": "function"
    },
    {
      "constant": false,
      "inputs": [
        {
          "name": "_spender",
          "type": "address"
        },
        {
          "name": "_subtractedValue",
          "type": "uint256"
        }
      ],
      "name": "decreaseApproval",
      "outputs": [
        {
          "name": "",
          "type": "bool"
        }
      ],
      "payable": false,
      "stateMutability": "nonpayable",
      "type": "function"
    },
    {
      "constant": false,
      "inputs": [
        {
          "name": "admin",
          "type": "address"
        }
      ],
      "name": "addAdmin",
      "outputs": [],
      "payable": false,
      "stateMutability": "nonpayable",
      "type": "function"
    },
    {
      "constant": true,
      "inputs": [
        {
          "name": "_owner",
          "type": "address"
        }
      ],
      "name": "balanceOf",
      "outputs": [
        {
          "name": "balance",
          "type": "uint256"
        }
      ],
      "payable": false,
      "stateMutability": "view",
      "type": "function"
    },
    {
      "constant": false,
      "inputs": [
        {
          "name": "_spender",
          "type": "address"
        },
        {
          "name": "_subtractedValue",
          "type": "uint256"
        },
        {
          "name": "_data",
          "type": "bytes"
        }
      ],
      "name": "decreaseApproval",
      "outputs": [
        {
          "name": "",
          "type": "bool"
        }
      ],
      "payable": false,
      "stateMutability": "nonpayable",
      "type": "function"
    },
    {
      "constant": true,
      "inputs": [
        {
          "name": "",
          "type": "address"
        }
      ],
      "name": "smartKeys",
      "outputs": [
        {
          "name": "",
          "type": "address"
        }
      ],
      "payable": false,
      "stateMutability": "view",
      "type": "function"
    },
    {
      "constant": false,
      "inputs": [],
      "name": "finishMinting",
      "outputs": [
        {
          "name": "",
          "type": "bool"
        }
      ],
      "payable": false,
      "stateMutability": "nonpayable",
      "type": "function"
    },
    {
      "constant": true,
      "inputs": [],
      "name": "symbol",
      "outputs": [
        {
          "name": "",
          "type": "string"
        }
      ],
      "payable": false,
      "stateMutability": "view",
      "type": "function"
    },
    {
      "constant": true,
      "inputs": [],
      "name": "tokenMinted",
      "outputs": [
        {
          "name": "",
          "type": "uint256"
        }
      ],
      "payable": false,
      "stateMutability": "view",
      "type": "function"
    },
    {
      "constant": true,
      "inputs": [
        {
          "name": "",
          "type": "address"
        }
      ],
      "name": "isBanned",
      "outputs": [
        {
          "name": "",
          "type": "bool"
        }
      ],
      "payable": false,
      "stateMutability": "view",
      "type": "function"
    },
    {
      "constant": false,
      "inputs": [
        {
          "name": "_to",
          "type": "address"
        },
        {
          "name": "_value",
          "type": "uint256"
        }
      ],
      "name": "transfer",
      "outputs": [
        {
          "name": "",
          "type": "bool"
        }
      ],
      "payable": false,
      "stateMutability": "nonpayable",
      "type": "function"
    },
    {
      "constant": false,
      "inputs": [
        {
          "name": "_from",
          "type": "address"
        },
        {
          "name": "_to",
          "type": "address"
        },
        {
          "name": "_value",
          "type": "uint256"
        },
        {
          "name": "_data",
          "type": "bytes"
        }
      ],
      "name": "transferFrom",
      "outputs": [
        {
          "name": "",
          "type": "bool"
        }
      ],
      "payable": false,
      "stateMutability": "nonpayable",
      "type": "function"
    },
    {
      "constant": false,
      "inputs": [
        {
          "name": "_to",
          "type": "address"
        },
        {
          "name": "_value",
          "type": "uint256"
        },
        {
          "name": "_data",
          "type": "bytes"
        }
      ],
      "name": "transfer",
      "outputs": [
        {
          "name": "",
          "type": "bool"
        }
      ],
      "payable": false,
      "stateMutability": "nonpayable",
      "type": "function"
    },
    {
      "constant": false,
      "inputs": [
        {
          "name": "_spender",
          "type": "address"
        },
        {
          "name": "_addedValue",
          "type": "uint256"
        }
      ],
      "name": "increaseApproval",
      "outputs": [
        {
          "name": "",
          "type": "bool"
        }
      ],
      "payable": false,
      "stateMutability": "nonpayable",
      "type": "function"
    },
    {
      "constant": true,
      "inputs": [
        {
          "name": "_owner",
          "type": "address"
        },
        {
          "name": "_spender",
          "type": "address"
        }
      ],
      "name": "allowance",
      "outputs": [
        {
          "name": "",
          "type": "uint256"
        }
      ],
      "payable": false,
      "stateMutability": "view",
      "type": "function"
    },
    {
      "constant": false,
      "inputs": [
        {
          "name": "banned",
          "type": "address"
        }
      ],
      "name": "addBanned",
      "outputs": [],
      "payable": false,
      "stateMutability": "nonpayable",
      "type": "function"
    },
    {
      "inputs": [
        {
          "name": "_tokens",
          "type": "uint256"
        },
        {
          "name": "_rate",
          "type": "uint256"
        },
        {
          "name": "adminAddress",
          "type": "address[]"
        }
      ],
      "payable": false,
      "stateMutability": "nonpayable",
      "type": "constructor"
    },
    {
      "payable": true,
      "stateMutability": "payable",
      "type": "fallback"
    },
    {
      "anonymous": false,
      "inputs": [
        {
          "indexed": true,
          "name": "user",
          "type": "address"
        },
        {
          "indexed": true,
          "name": "key",
          "type": "address"
        }
      ],
      "name": "IssueSmartKey",
      "type": "event"
    },
    {
      "anonymous": false,
      "inputs": [
        {
          "indexed": true,
          "name": "user",
          "type": "address"
        },
        {
          "indexed": true,
          "name": "key",
          "type": "address"
        }
      ],
      "name": "ActivateSmartKey",
      "type": "event"
    },
    {
      "anonymous": false,
      "inputs": [
        {
          "indexed": true,
          "name": "to",
          "type": "address"
        },
        {
          "indexed": false,
          "name": "amount",
          "type": "uint256"
        }
      ],
      "name": "Mint",
      "type": "event"
    },
    {
      "anonymous": false,
      "inputs": [],
      "name": "MintFinished",
      "type": "event"
    },
    {
      "anonymous": false,
      "inputs": [],
      "name": "MintReopened",
      "type": "event"
    },
    {
      "anonymous": false,
      "inputs": [
        {
          "indexed": true,
          "name": "owner",
          "type": "address"
        },
        {
          "indexed": true,
          "name": "spender",
          "type": "address"
        },
        {
          "indexed": false,
          "name": "value",
          "type": "uint256"
        }
      ],
      "name": "Approval",
      "type": "event"
    },
    {
      "anonymous": false,
      "inputs": [
        {
          "indexed": true,
          "name": "from",
          "type": "address"
        },
        {
          "indexed": true,
          "name": "to",
          "type": "address"
        },
        {
          "indexed": false,
          "name": "value",
          "type": "uint256"
        }
      ],
      "name": "Transfer",
      "type": "event"
    },
    {
      "constant": false,
      "inputs": [
        {
          "name": "_vault",
          "type": "address"
        }
      ],
      "name": "setVault",
      "outputs": [
        {
          "name": "",
          "type": "bool"
        }
      ],
      "payable": false,
      "stateMutability": "nonpayable",
      "type": "function"
    },
    {
      "constant": true,
      "inputs": [
        {
          "name": "user",
          "type": "address"
        }
      ],
      "name": "getKey",
      "outputs": [
        {
          "name": "",
          "type": "address"
        }
      ],
      "payable": false,
      "stateMutability": "view",
      "type": "function"
    },
    {
      "constant": true,
      "inputs": [
        {
          "name": "addr",
          "type": "address"
        }
      ],
      "name": "getBalanceInEth",
      "outputs": [
        {
          "name": "",
          "type": "uint256"
        }
      ],
      "payable": false,
      "stateMutability": "view",
      "type": "function"
    },
    {
      "constant": true,
      "inputs": [
        {
          "name": "addr",
          "type": "address"
        }
      ],
      "name": "getBalance",
      "outputs": [
        {
          "name": "",
          "type": "uint256"
        }
      ],
      "payable": false,
      "stateMutability": "view",
      "type": "function"
    },
    {
      "constant": false,
      "inputs": [
        {
          "name": "beneficiary",
          "type": "address"
        }
      ],
      "name": "getSmartKey",
      "outputs": [],
      "payable": true,
      "stateMutability": "payable",
      "type": "function"
    },
    {
      "constant": true,
      "inputs": [
        {
          "name": "amount",
          "type": "uint256"
        }
      ],
      "name": "convertToWei",
      "outputs": [
        {
          "name": "",
          "type": "uint256"
        }
      ],
      "payable": false,
      "stateMutability": "view",
      "type": "function"
    },
    {
      "constant": true,
      "inputs": [
        {
          "name": "amount",
          "type": "uint256"
        }
      ],
      "name": "convertToToken",
      "outputs": [
        {
          "name": "",
          "type": "uint256"
        }
      ],
      "payable": false,
      "stateMutability": "view",
      "type": "function"
    }
  ],
  "bytecode": "0x60606040526000600760006101000a81548160ff0219169083151502179055506040805190810160405280601781526020017f496f54426c6f636b5f536d6172745f4b65795f302e3031000000000000000000815250600c90805190602001906200006c9291906200058b565b5034156200007957600080fd5b604051620054163803806200541683398101604052808051906020019091908051906020019091908051820191905050818160008090505b815181101562000139576001600360008484815181101515620000d057fe5b9060200190602002015173ffffffffffffffffffffffffffffffffffffffff1673ffffffffffffffffffffffffffffffffffffffff16815260200190815260200160002060006101000a81548160ff0219169083151502179055508080600101915050620000b1565b81600590805190602001906200015192919062000612565b5050508060088190555060006006819055505080600590805190602001906200017c92919062000612565b50600560008154811015156200018e57fe5b906000526020600020900160009054906101000a900473ffffffffffffffffffffffffffffffffffffffff16600d60006101000a81548173ffffffffffffffffffffffffffffffffffffffff021916908373ffffffffffffffffffffffffffffffffffffffff1602179055506200023c600d60009054906101000a900473ffffffffffffffffffffffffffffffffffffffff1684620002fe6401000000000262001e7b176401000000009004565b506040805190810160405280600881526020017f494f54424c4f434b000000000000000000000000000000000000000000000000815250600990805190602001906200028a9291906200058b565b506008600a60006101000a81548160ff021916908360ff1602179055506040805190810160405280600881526020017f494f54424c4f434b000000000000000000000000000000000000000000000000815250600b9080519060200190620002f49291906200058b565b505050506200070f565b6000600360003373ffffffffffffffffffffffffffffffffffffffff1673ffffffffffffffffffffffffffffffffffffffff16815260200190815260200160002060009054906101000a900460ff1615156200035957600080fd5b600460003373ffffffffffffffffffffffffffffffffffffffff1673ffffffffffffffffffffffffffffffffffffffff16815260200190815260200160002060009054906101000a900460ff16151515620003b357600080fd5b600760009054906101000a900460ff16151515620003d057600080fd5b600082111515620003e057600080fd5b62000405826006546200056c64010000000002620034f0179091906401000000009004565b6006819055506200046c826000808673ffffffffffffffffffffffffffffffffffffffff1673ffffffffffffffffffffffffffffffffffffffff168152602001908152602001600020546200056c64010000000002620034f0179091906401000000009004565b6000808573ffffffffffffffffffffffffffffffffffffffff1673ffffffffffffffffffffffffffffffffffffffff168152602001908152602001600020819055508273ffffffffffffffffffffffffffffffffffffffff167f0f6798a560793a54c3bcfe86a93cde1e73087d944c0ea20544137d4121396885836040518082815260200191505060405180910390a28273ffffffffffffffffffffffffffffffffffffffff16600073ffffffffffffffffffffffffffffffffffffffff167fddf252ad1be2c89b69c2b068fc378daa952ba7f163c4a11628f55a4df523b3ef846040518082815260200191505060405180910390a36001905092915050565b60008082840190508381101515156200058157fe5b8091505092915050565b828054600181600116156101000203166002900490600052602060002090601f016020900481019282601f10620005ce57805160ff1916838001178555620005ff565b82800160010185558215620005ff579182015b82811115620005fe578251825591602001919060010190620005e1565b5b5090506200060e9190620006a1565b5090565b8280548282559060005260206000209081019282156200068e579160200282015b828111156200068d5782518260006101000a81548173ffffffffffffffffffffffffffffffffffffffff021916908373ffffffffffffffffffffffffffffffffffffffff1602179055509160200191906001019062000633565b5b5090506200069d9190620006c9565b5090565b620006c691905b80821115620006c2576000816000905550600101620006a8565b5090565b90565b6200070c91905b808211156200070857600081816101000a81549073ffffffffffffffffffffffffffffffffffffffff021916905550600101620006d0565b5090565b90565b614cf7806200071f6000396000f300606060405260043610620001ff576000357c0100000000000000000000000000000000000000000000000000000000900463ffffffff16806305d2035b146200020c57806306fdde03146200023c578063095ea7b314620002d05780630b45941b146200032d57806314bfd6d0146200035d57806316ca3b6314620003c357806318160ddd146200046357806323b872dd146200048f57806324d7806c146200050b5780632c4e722e146200055f578063313ce567146200058b57806331ae450b14620005bd57806334fcf437146200062c57806340c10f19146200066657806354fd4d5014620006c35780635c17f9f414620007575780636618846314620007f75780636817031b14620008545780637048027514620008a857806370a0823114620008e45780637272ad49146200093457806378acf29a14620009d45780637bd703e81462000a505780637d64bcb41462000aa057806393790f441462000ad057806395d89b411462000b4c578063963563551462000be057806397f735d51462000c0c578063a60dc38a1462000c60578063a81f8f3f1462000c9a578063a9059cbb1462000cd4578063ab67aa581462000d31578063b37c75511462000df0578063be45fd621462000e20578063d73dd6231462000ec0578063dd62ed3e1462000f1d578063e1b2e8b31462000f8c578063f8b2cb4f1462000fc8575b6200020a3362001018565b005b34156200021857600080fd5b620002226200153d565b604051808215151515815260200191505060405180910390f35b34156200024857600080fd5b6200025262001550565b6040518080602001828103825283818151815260200191508051906020019080838360005b838110156200029457808201518184015260208101905062000277565b50505050905090810190601f168015620002c25780820380516001836020036101000a031916815260200191505b509250505060405180910390f35b3415620002dc57600080fd5b62000313600480803573ffffffffffffffffffffffffffffffffffffffff16906020019091908035906020019091905050620015f2565b604051808215151515815260200191505060405180910390f35b34156200033957600080fd5b62000343620016e4565b604051808215151515815260200191505060405180910390f35b34156200036957600080fd5b620003816004808035906020019091905050620017e7565b604051808273ffffffffffffffffffffffffffffffffffffffff1673ffffffffffffffffffffffffffffffffffffffff16815260200191505060405180910390f35b3415620003cf57600080fd5b62000449600480803573ffffffffffffffffffffffffffffffffffffffff1690602001909190803590602001909190803590602001908201803590602001908080601f0160208091040260200160405190810160405280939291908181526020018383808284378201915050505050509190505062001827565b604051808215151515815260200191505060405180910390f35b34156200046f57600080fd5b6200047962001917565b6040518082815260200191505060405180910390f35b34156200049b57600080fd5b620004f1600480803573ffffffffffffffffffffffffffffffffffffffff1690602001909190803573ffffffffffffffffffffffffffffffffffffffff1690602001909190803590602001909190505062001921565b604051808215151515815260200191505060405180910390f35b34156200051757600080fd5b62000545600480803573ffffffffffffffffffffffffffffffffffffffff1690602001909190505062001ce4565b604051808215151515815260200191505060405180910390f35b34156200056b57600080fd5b6200057562001d04565b6040518082815260200191505060405180910390f35b34156200059757600080fd5b620005a162001d0a565b604051808260ff1660ff16815260200191505060405180910390f35b3415620005c957600080fd5b620005d362001d1d565b6040518080602001828103825283818151815260200191508051906020019060200280838360005b8381101562000618578082015181840152602081019050620005fb565b505050509050019250505060405180910390f35b34156200063857600080fd5b62000650600480803590602001909190505062001db5565b6040518082815260200191505060405180910390f35b34156200067257600080fd5b620006a9600480803573ffffffffffffffffffffffffffffffffffffffff1690602001909190803590602001909190505062001e7b565b604051808215151515815260200191505060405180910390f35b3415620006cf57600080fd5b620006d9620020cd565b6040518080602001828103825283818151815260200191508051906020019080838360005b838110156200071b578082015181840152602081019050620006fe565b50505050905090810190601f168015620007495780820380516001836020036101000a031916815260200191505b509250505060405180910390f35b34156200076357600080fd5b620007dd600480803573ffffffffffffffffffffffffffffffffffffffff1690602001909190803590602001909190803590602001908201803590602001908080601f016020809104026020016040519081016040528093929190818152602001838380828437820191505050505050919050506200216f565b604051808215151515815260200191505060405180910390f35b34156200080357600080fd5b6200083a600480803573ffffffffffffffffffffffffffffffffffffffff169060200190919080359060200190919050506200225f565b604051808215151515815260200191505060405180910390f35b34156200086057600080fd5b6200088e600480803573ffffffffffffffffffffffffffffffffffffffff16906020019091905050620024f4565b604051808215151515815260200191505060405180910390f35b3415620008b457600080fd5b620008e2600480803573ffffffffffffffffffffffffffffffffffffffff16906020019091905050620025f3565b005b3415620008f057600080fd5b6200091e600480803573ffffffffffffffffffffffffffffffffffffffff1690602001909190505062002819565b6040518082815260200191505060405180910390f35b34156200094057600080fd5b620009ba600480803573ffffffffffffffffffffffffffffffffffffffff1690602001909190803590602001909190803590602001908201803590602001908080601f0160208091040260200160405190810160405280939291908181526020018383808284378201915050505050509190505062002861565b604051808215151515815260200191505060405180910390f35b3415620009e057600080fd5b62000a0e600480803573ffffffffffffffffffffffffffffffffffffffff1690602001909190505062002951565b604051808273ffffffffffffffffffffffffffffffffffffffff1673ffffffffffffffffffffffffffffffffffffffff16815260200191505060405180910390f35b341562000a5c57600080fd5b62000a8a600480803573ffffffffffffffffffffffffffffffffffffffff1690602001909190505062002984565b6040518082815260200191505060405180910390f35b341562000aac57600080fd5b62000ab6620029d6565b604051808215151515815260200191505060405180910390f35b341562000adc57600080fd5b62000b0a600480803573ffffffffffffffffffffffffffffffffffffffff1690602001909190505062002ad9565b604051808273ffffffffffffffffffffffffffffffffffffffff1673ffffffffffffffffffffffffffffffffffffffff16815260200191505060405180910390f35b341562000b5857600080fd5b62000b6262002b42565b6040518080602001828103825283818151815260200191508051906020019080838360005b8381101562000ba457808201518184015260208101905062000b87565b50505050905090810190601f16801562000bd25780820380516001836020036101000a031916815260200191505b509250505060405180910390f35b341562000bec57600080fd5b62000bf662002be4565b6040518082815260200191505060405180910390f35b341562000c1857600080fd5b62000c46600480803573ffffffffffffffffffffffffffffffffffffffff1690602001909190505062002bea565b604051808215151515815260200191505060405180910390f35b341562000c6c57600080fd5b62000c84600480803590602001909190505062002c0a565b6040518082815260200191505060405180910390f35b341562000ca657600080fd5b62000cbe600480803590602001909190505062002c2a565b6040518082815260200191505060405180910390f35b341562000ce057600080fd5b62000d17600480803573ffffffffffffffffffffffffffffffffffffffff1690602001909190803590602001909190505062002c4a565b604051808215151515815260200191505060405180910390f35b341562000d3d57600080fd5b62000dd6600480803573ffffffffffffffffffffffffffffffffffffffff1690602001909190803573ffffffffffffffffffffffffffffffffffffffff1690602001909190803590602001909190803590602001908201803590602001908080601f0160208091040260200160405190810160405280939291908181526020018383808284378201915050505050509190505062002e6f565b604051808215151515815260200191505060405180910390f35b62000e1e600480803573ffffffffffffffffffffffffffffffffffffffff1690602001909190505062001018565b005b341562000e2c57600080fd5b62000ea6600480803573ffffffffffffffffffffffffffffffffffffffff1690602001909190803590602001909190803590602001908201803590602001908080601f0160208091040260200160405190810160405280939291908181526020018383808284378201915050505050509190505062002f61565b604051808215151515815260200191505060405180910390f35b341562000ecc57600080fd5b62000f03600480803573ffffffffffffffffffffffffffffffffffffffff1690602001909190803590602001909190505062003051565b604051808215151515815260200191505060405180910390f35b341562000f2957600080fd5b62000f76600480803573ffffffffffffffffffffffffffffffffffffffff1690602001909190803573ffffffffffffffffffffffffffffffffffffffff169060200190919050506200324f565b6040518082815260200191505060405180910390f35b341562000f9857600080fd5b62000fc6600480803573ffffffffffffffffffffffffffffffffffffffff16906020019091905050620032d6565b005b341562000fd457600080fd5b62001002600480803573ffffffffffffffffffffffffffffffffffffffff1690602001909190505062003497565b6040518082815260200191505060405180910390f35b6000806000808473ffffffffffffffffffffffffffffffffffffffff16141515156200104357600080fd5b6200104d620034df565b15156200105957600080fd5b349250620010678362002c2a565b915060008211156200153757600073ffffffffffffffffffffffffffffffffffffffff16600e60008673ffffffffffffffffffffffffffffffffffffffff1673ffffffffffffffffffffffffffffffffffffffff16815260200190815260200160002060009054906101000a900473ffffffffffffffffffffffffffffffffffffffff1673ffffffffffffffffffffffffffffffffffffffff1614156200126257600d60009054906101000a900473ffffffffffffffffffffffffffffffffffffffff166200113562003584565b808273ffffffffffffffffffffffffffffffffffffffff1673ffffffffffffffffffffffffffffffffffffffff168152602001915050604051809103906000f08015156200118257600080fd5b905080600e60008673ffffffffffffffffffffffffffffffffffffffff1673ffffffffffffffffffffffffffffffffffffffff16815260200190815260200160002060006101000a81548173ffffffffffffffffffffffffffffffffffffffff021916908373ffffffffffffffffffffffffffffffffffffffff1602179055508073ffffffffffffffffffffffffffffffffffffffff168473ffffffffffffffffffffffffffffffffffffffff167f8f5542ce85e7a04bb4f9fad176b0421be9b635b869ccc87d2c89e033f87cf09660405160405180910390a3620012c5565b600e60008573ffffffffffffffffffffffffffffffffffffffff1673ffffffffffffffffffffffffffffffffffffffff16815260200190815260200160002060009054906101000a900473ffffffffffffffffffffffffffffffffffffffff1690505b8073ffffffffffffffffffffffffffffffffffffffff16639172fe0834866040518363ffffffff167c0100000000000000000000000000000000000000000000000000000000028152600401808273ffffffffffffffffffffffffffffffffffffffff1673ffffffffffffffffffffffffffffffffffffffff1681526020019150506000604051808303818588803b15156200136057600080fd5b6125ee5a03f115156200137257600080fd5b505050508073ffffffffffffffffffffffffffffffffffffffff168473ffffffffffffffffffffffffffffffffffffffff167f30dd369feef7ffaf7a56459eadf64ee6237011e70414224ec4b05c951362f3e060405160405180910390a3620013e782600654620034f090919063ffffffff16565b60068190555062001440826000808773ffffffffffffffffffffffffffffffffffffffff1673ffffffffffffffffffffffffffffffffffffffff16815260200190815260200160002054620034f090919063ffffffff16565b6000808673ffffffffffffffffffffffffffffffffffffffff1673ffffffffffffffffffffffffffffffffffffffff168152602001908152602001600020819055508373ffffffffffffffffffffffffffffffffffffffff167f0f6798a560793a54c3bcfe86a93cde1e73087d944c0ea20544137d4121396885836040518082815260200191505060405180910390a28373ffffffffffffffffffffffffffffffffffffffff16600073ffffffffffffffffffffffffffffffffffffffff167fddf252ad1be2c89b69c2b068fc378daa952ba7f163c4a11628f55a4df523b3ef846040518082815260200191505060405180910390a35b50505050565b600760009054906101000a900460ff1681565b60098054600181600116156101000203166002900480601f016020809104026020016040519081016040528092919081815260200182805460018160011615610100020316600290048015620015ea5780601f10620015be57610100808354040283529160200191620015ea565b820191906000526020600020905b815481529060010190602001808311620015cc57829003601f168201915b505050505081565b600081600260003373ffffffffffffffffffffffffffffffffffffffff1673ffffffffffffffffffffffffffffffffffffffff16815260200190815260200160002060008573ffffffffffffffffffffffffffffffffffffffff1673ffffffffffffffffffffffffffffffffffffffff168152602001908152602001600020819055508273ffffffffffffffffffffffffffffffffffffffff163373ffffffffffffffffffffffffffffffffffffffff167f8c5be1e5ebec7d5bd14f71427d1e84f3dd0314c0f7b2291e5b200ac8c7c3b925846040518082815260200191505060405180910390a36001905092915050565b6000600360003373ffffffffffffffffffffffffffffffffffffffff1673ffffffffffffffffffffffffffffffffffffffff16815260200190815260200160002060009054906101000a900460ff1615156200173f57600080fd5b600460003373ffffffffffffffffffffffffffffffffffffffff1673ffffffffffffffffffffffffffffffffffffffff16815260200190815260200160002060009054906101000a900460ff161515156200179957600080fd5b6000600760006101000a81548160ff0219169083151502179055507ffaf1a2c39271cfdeecee5390aecc19469ffd226d9c8c4f339f46f50a94d169f560405160405180910390a16001905090565b600581815481101515620017f757fe5b90600052602060002090016000915054906101000a900473ffffffffffffffffffffffffffffffffffffffff1681565b60003073ffffffffffffffffffffffffffffffffffffffff168473ffffffffffffffffffffffffffffffffffffffff16141515156200186557600080fd5b62001871848462003051565b508373ffffffffffffffffffffffffffffffffffffffff168260405180828051906020019080838360005b83811015620018b95780820151818401526020810190506200189c565b50505050905090810190601f168015620018e75780820380516001836020036101000a031916815260200191505b5091505060006040518083038160008661646e5a03f191505015156200190c57600080fd5b600190509392505050565b6000600154905090565b60008073ffffffffffffffffffffffffffffffffffffffff168373ffffffffffffffffffffffffffffffffffffffff16141515156200195f57600080fd5b6000808573ffffffffffffffffffffffffffffffffffffffff1673ffffffffffffffffffffffffffffffffffffffff168152602001908152602001600020548211151515620019ad57600080fd5b600260008573ffffffffffffffffffffffffffffffffffffffff1673ffffffffffffffffffffffffffffffffffffffff16815260200190815260200160002060003373ffffffffffffffffffffffffffffffffffffffff1673ffffffffffffffffffffffffffffffffffffffff16815260200190815260200160002054821115151562001a3957600080fd5b62001a8c826000808773ffffffffffffffffffffffffffffffffffffffff1673ffffffffffffffffffffffffffffffffffffffff168152602001908152602001600020546200350f90919063ffffffff16565b6000808673ffffffffffffffffffffffffffffffffffffffff1673ffffffffffffffffffffffffffffffffffffffff1681526020019081526020016000208190555062001b21826000808673ffffffffffffffffffffffffffffffffffffffff1673ffffffffffffffffffffffffffffffffffffffff16815260200190815260200160002054620034f090919063ffffffff16565b6000808573ffffffffffffffffffffffffffffffffffffffff1673ffffffffffffffffffffffffffffffffffffffff1681526020019081526020016000208190555062001bf482600260008773ffffffffffffffffffffffffffffffffffffffff1673ffffffffffffffffffffffffffffffffffffffff16815260200190815260200160002060003373ffffffffffffffffffffffffffffffffffffffff1673ffffffffffffffffffffffffffffffffffffffff168152602001908152602001600020546200350f90919063ffffffff16565b600260008673ffffffffffffffffffffffffffffffffffffffff1673ffffffffffffffffffffffffffffffffffffffff16815260200190815260200160002060003373ffffffffffffffffffffffffffffffffffffffff1673ffffffffffffffffffffffffffffffffffffffff168152602001908152602001600020819055508273ffffffffffffffffffffffffffffffffffffffff168473ffffffffffffffffffffffffffffffffffffffff167fddf252ad1be2c89b69c2b068fc378daa952ba7f163c4a11628f55a4df523b3ef846040518082815260200191505060405180910390a3600190509392505050565b60036020528060005260406000206000915054906101000a900460ff1681565b60085481565b600a60009054906101000a900460ff1681565b62001d2762003595565b600580548060200260200160405190810160405280929190818152602001828054801562001dab57602002820191906000526020600020905b8160009054906101000a900473ffffffffffffffffffffffffffffffffffffffff1673ffffffffffffffffffffffffffffffffffffffff168152602001906001019080831162001d60575b5050505050905090565b6000600360003373ffffffffffffffffffffffffffffffffffffffff1673ffffffffffffffffffffffffffffffffffffffff16815260200190815260200160002060009054906101000a900460ff16151562001e1057600080fd5b600460003373ffffffffffffffffffffffffffffffffffffffff1673ffffffffffffffffffffffffffffffffffffffff16815260200190815260200160002060009054906101000a900460ff1615151562001e6a57600080fd5b816008819055506008549050919050565b6000600360003373ffffffffffffffffffffffffffffffffffffffff1673ffffffffffffffffffffffffffffffffffffffff16815260200190815260200160002060009054906101000a900460ff16151562001ed657600080fd5b600460003373ffffffffffffffffffffffffffffffffffffffff1673ffffffffffffffffffffffffffffffffffffffff16815260200190815260200160002060009054906101000a900460ff1615151562001f3057600080fd5b600760009054906101000a900460ff1615151562001f4d57600080fd5b60008211151562001f5d57600080fd5b62001f7482600654620034f090919063ffffffff16565b60068190555062001fcd826000808673ffffffffffffffffffffffffffffffffffffffff1673ffffffffffffffffffffffffffffffffffffffff16815260200190815260200160002054620034f090919063ffffffff16565b6000808573ffffffffffffffffffffffffffffffffffffffff1673ffffffffffffffffffffffffffffffffffffffff168152602001908152602001600020819055508273ffffffffffffffffffffffffffffffffffffffff167f0f6798a560793a54c3bcfe86a93cde1e73087d944c0ea20544137d4121396885836040518082815260200191505060405180910390a28273ffffffffffffffffffffffffffffffffffffffff16600073ffffffffffffffffffffffffffffffffffffffff167fddf252ad1be2c89b69c2b068fc378daa952ba7f163c4a11628f55a4df523b3ef846040518082815260200191505060405180910390a36001905092915050565b600c8054600181600116156101000203166002900480601f016020809104026020016040519081016040528092919081815260200182805460018160011615610100020316600290048015620021675780601f106200213b5761010080835404028352916020019162002167565b820191906000526020600020905b8154815290600101906020018083116200214957829003601f168201915b505050505081565b60003073ffffffffffffffffffffffffffffffffffffffff168473ffffffffffffffffffffffffffffffffffffffff1614151515620021ad57600080fd5b620021b98484620015f2565b508373ffffffffffffffffffffffffffffffffffffffff168260405180828051906020019080838360005b8381101562002201578082015181840152602081019050620021e4565b50505050905090810190601f1680156200222f5780820380516001836020036101000a031916815260200191505b5091505060006040518083038160008661646e5a03f191505015156200225457600080fd5b600190509392505050565b600080600260003373ffffffffffffffffffffffffffffffffffffffff1673ffffffffffffffffffffffffffffffffffffffff16815260200190815260200160002060008573ffffffffffffffffffffffffffffffffffffffff1673ffffffffffffffffffffffffffffffffffffffff1681526020019081526020016000205490508083111562002372576000600260003373ffffffffffffffffffffffffffffffffffffffff1673ffffffffffffffffffffffffffffffffffffffff16815260200190815260200160002060008673ffffffffffffffffffffffffffffffffffffffff1673ffffffffffffffffffffffffffffffffffffffff1681526020019081526020016000208190555062002408565b6200238783826200350f90919063ffffffff16565b600260003373ffffffffffffffffffffffffffffffffffffffff1673ffffffffffffffffffffffffffffffffffffffff16815260200190815260200160002060008673ffffffffffffffffffffffffffffffffffffffff1673ffffffffffffffffffffffffffffffffffffffff168152602001908152602001600020819055505b8373ffffffffffffffffffffffffffffffffffffffff163373ffffffffffffffffffffffffffffffffffffffff167f8c5be1e5ebec7d5bd14f71427d1e84f3dd0314c0f7b2291e5b200ac8c7c3b925600260003373ffffffffffffffffffffffffffffffffffffffff1673ffffffffffffffffffffffffffffffffffffffff16815260200190815260200160002060008873ffffffffffffffffffffffffffffffffffffffff1673ffffffffffffffffffffffffffffffffffffffff168152602001908152602001600020546040518082815260200191505060405180910390a3600191505092915050565b6000600360003373ffffffffffffffffffffffffffffffffffffffff1673ffffffffffffffffffffffffffffffffffffffff16815260200190815260200160002060009054906101000a900460ff1615156200254f57600080fd5b600460003373ffffffffffffffffffffffffffffffffffffffff1673ffffffffffffffffffffffffffffffffffffffff16815260200190815260200160002060009054906101000a900460ff16151515620025a957600080fd5b81600d60006101000a81548173ffffffffffffffffffffffffffffffffffffffff021916908373ffffffffffffffffffffffffffffffffffffffff16021790555060019050919050565b600360003373ffffffffffffffffffffffffffffffffffffffff1673ffffffffffffffffffffffffffffffffffffffff16815260200190815260200160002060009054906101000a900460ff1615156200264c57600080fd5b600460003373ffffffffffffffffffffffffffffffffffffffff1673ffffffffffffffffffffffffffffffffffffffff16815260200190815260200160002060009054906101000a900460ff16151515620026a657600080fd5b600360003373ffffffffffffffffffffffffffffffffffffffff1673ffffffffffffffffffffffffffffffffffffffff16815260200190815260200160002060009054906101000a900460ff161515620026ff57600080fd5b600460003373ffffffffffffffffffffffffffffffffffffffff1673ffffffffffffffffffffffffffffffffffffffff16815260200190815260200160002060009054906101000a900460ff161515156200275957600080fd5b6001600360008373ffffffffffffffffffffffffffffffffffffffff1673ffffffffffffffffffffffffffffffffffffffff16815260200190815260200160002060006101000a81548160ff02191690831515021790555060058054806001018281620027c79190620035a9565b9160005260206000209001600083909190916101000a81548173ffffffffffffffffffffffffffffffffffffffff021916908373ffffffffffffffffffffffffffffffffffffffff1602179055505050565b60008060008373ffffffffffffffffffffffffffffffffffffffff1673ffffffffffffffffffffffffffffffffffffffff168152602001908152602001600020549050919050565b60003073ffffffffffffffffffffffffffffffffffffffff168473ffffffffffffffffffffffffffffffffffffffff16141515156200289f57600080fd5b620028ab84846200225f565b508373ffffffffffffffffffffffffffffffffffffffff168260405180828051906020019080838360005b83811015620028f3578082015181840152602081019050620028d6565b50505050905090810190601f168015620029215780820380516001836020036101000a031916815260200191505b5091505060006040518083038160008661646e5a03f191505015156200294657600080fd5b600190509392505050565b600e6020528060005260406000206000915054906101000a900473ffffffffffffffffffffffffffffffffffffffff1681565b6000620029cf6000808473ffffffffffffffffffffffffffffffffffffffff1673ffffffffffffffffffffffffffffffffffffffff1681526020019081526020016000205462002c0a565b9050919050565b6000600360003373ffffffffffffffffffffffffffffffffffffffff1673ffffffffffffffffffffffffffffffffffffffff16815260200190815260200160002060009054906101000a900460ff16151562002a3157600080fd5b600460003373ffffffffffffffffffffffffffffffffffffffff1673ffffffffffffffffffffffffffffffffffffffff16815260200190815260200160002060009054906101000a900460ff1615151562002a8b57600080fd5b6001600760006101000a81548160ff0219169083151502179055507fae5184fba832cb2b1f702aca6117b8d265eaf03ad33eb133f19dde0f5920fa0860405160405180910390a16001905090565b6000600e60008373ffffffffffffffffffffffffffffffffffffffff1673ffffffffffffffffffffffffffffffffffffffff16815260200190815260200160002060009054906101000a900473ffffffffffffffffffffffffffffffffffffffff169050919050565b600b8054600181600116156101000203166002900480601f01602080910402602001604051908101604052809291908181526020018280546001816001161561010002031660029004801562002bdc5780601f1062002bb05761010080835404028352916020019162002bdc565b820191906000526020600020905b81548152906001019060200180831162002bbe57829003601f168201915b505050505081565b60065481565b60046020528060005260406000206000915054906101000a900460ff1681565b600062002c23600854836200352990919063ffffffff16565b9050919050565b600062002c43600854836200356890919063ffffffff16565b9050919050565b60008073ffffffffffffffffffffffffffffffffffffffff168373ffffffffffffffffffffffffffffffffffffffff161415151562002c8857600080fd5b6000803373ffffffffffffffffffffffffffffffffffffffff1673ffffffffffffffffffffffffffffffffffffffff16815260200190815260200160002054821115151562002cd657600080fd5b62002d29826000803373ffffffffffffffffffffffffffffffffffffffff1673ffffffffffffffffffffffffffffffffffffffff168152602001908152602001600020546200350f90919063ffffffff16565b6000803373ffffffffffffffffffffffffffffffffffffffff1673ffffffffffffffffffffffffffffffffffffffff1681526020019081526020016000208190555062002dbe826000808673ffffffffffffffffffffffffffffffffffffffff1673ffffffffffffffffffffffffffffffffffffffff16815260200190815260200160002054620034f090919063ffffffff16565b6000808573ffffffffffffffffffffffffffffffffffffffff1673ffffffffffffffffffffffffffffffffffffffff168152602001908152602001600020819055508273ffffffffffffffffffffffffffffffffffffffff163373ffffffffffffffffffffffffffffffffffffffff167fddf252ad1be2c89b69c2b068fc378daa952ba7f163c4a11628f55a4df523b3ef846040518082815260200191505060405180910390a36001905092915050565b60003073ffffffffffffffffffffffffffffffffffffffff168473ffffffffffffffffffffffffffffffffffffffff161415151562002ead57600080fd5b62002eba85858562001921565b508373ffffffffffffffffffffffffffffffffffffffff168260405180828051906020019080838360005b8381101562002f0257808201518184015260208101905062002ee5565b50505050905090810190601f16801562002f305780820380516001836020036101000a031916815260200191505b5091505060006040518083038160008661646e5a03f1915050151562002f5557600080fd5b60019050949350505050565b60003073ffffffffffffffffffffffffffffffffffffffff168473ffffffffffffffffffffffffffffffffffffffff161415151562002f9f57600080fd5b62002fab848462002c4a565b508373ffffffffffffffffffffffffffffffffffffffff168260405180828051906020019080838360005b8381101562002ff357808201518184015260208101905062002fd6565b50505050905090810190601f168015620030215780820380516001836020036101000a031916815260200191505b5091505060006040518083038160008661646e5a03f191505015156200304657600080fd5b600190509392505050565b6000620030e482600260003373ffffffffffffffffffffffffffffffffffffffff1673ffffffffffffffffffffffffffffffffffffffff16815260200190815260200160002060008673ffffffffffffffffffffffffffffffffffffffff1673ffffffffffffffffffffffffffffffffffffffff16815260200190815260200160002054620034f090919063ffffffff16565b600260003373ffffffffffffffffffffffffffffffffffffffff1673ffffffffffffffffffffffffffffffffffffffff16815260200190815260200160002060008573ffffffffffffffffffffffffffffffffffffffff1673ffffffffffffffffffffffffffffffffffffffff168152602001908152602001600020819055508273ffffffffffffffffffffffffffffffffffffffff163373ffffffffffffffffffffffffffffffffffffffff167f8c5be1e5ebec7d5bd14f71427d1e84f3dd0314c0f7b2291e5b200ac8c7c3b925600260003373ffffffffffffffffffffffffffffffffffffffff1673ffffffffffffffffffffffffffffffffffffffff16815260200190815260200160002060008773ffffffffffffffffffffffffffffffffffffffff1673ffffffffffffffffffffffffffffffffffffffff168152602001908152602001600020546040518082815260200191505060405180910390a36001905092915050565b6000600260008473ffffffffffffffffffffffffffffffffffffffff1673ffffffffffffffffffffffffffffffffffffffff16815260200190815260200160002060008373ffffffffffffffffffffffffffffffffffffffff1673ffffffffffffffffffffffffffffffffffffffff16815260200190815260200160002054905092915050565b600360003373ffffffffffffffffffffffffffffffffffffffff1673ffffffffffffffffffffffffffffffffffffffff16815260200190815260200160002060009054906101000a900460ff1615156200332f57600080fd5b600460003373ffffffffffffffffffffffffffffffffffffffff1673ffffffffffffffffffffffffffffffffffffffff16815260200190815260200160002060009054906101000a900460ff161515156200338957600080fd5b600360003373ffffffffffffffffffffffffffffffffffffffff1673ffffffffffffffffffffffffffffffffffffffff16815260200190815260200160002060009054906101000a900460ff161515620033e257600080fd5b600460003373ffffffffffffffffffffffffffffffffffffffff1673ffffffffffffffffffffffffffffffffffffffff16815260200190815260200160002060009054906101000a900460ff161515156200343c57600080fd5b6001600460008373ffffffffffffffffffffffffffffffffffffffff1673ffffffffffffffffffffffffffffffffffffffff16815260200190815260200160002060006101000a81548160ff02191690831515021790555050565b60008060008373ffffffffffffffffffffffffffffffffffffffff1673ffffffffffffffffffffffffffffffffffffffff168152602001908152602001600020549050919050565b600080600034141590508091505090565b60008082840190508381101515156200350557fe5b8091505092915050565b60008282111515156200351e57fe5b818303905092915050565b600080600084141562003540576000915062003561565b82840290508284828115156200355257fe5b041415156200355d57fe5b8091505b5092915050565b60008082848115156200357757fe5b0490508091505092915050565b6040516116cb806200360183390190565b602060405190810160405280600081525090565b815481835581811511620035d357818360005260206000209182019101620035d29190620035d8565b5b505050565b620035fd91905b80821115620035f9576000816000905550600101620035df565b5090565b9056006060604052341561000f57600080fd5b6040516020806116cb83398101604052808051906020019091905050336000806101000a81548173ffffffffffffffffffffffffffffffffffffffff021916908373ffffffffffffffffffffffffffffffffffffffff16021790555060008173ffffffffffffffffffffffffffffffffffffffff161415151561009157600080fd5b80600260006101000a81548173ffffffffffffffffffffffffffffffffffffffff021916908373ffffffffffffffffffffffffffffffffffffffff1602179055506000600260146101000a81548160ff021916908360028111156100f157fe5b0217905550600260009054906101000a900473ffffffffffffffffffffffffffffffffffffffff1673ffffffffffffffffffffffffffffffffffffffff163373ffffffffffffffffffffffffffffffffffffffff167fae6905ed683ee316aa72cda27d03945d8f93ec0f2a213d899497c705cdbce4da600260149054906101000a900460ff166040518082600281111561018757fe5b60ff16815260200191505060405180910390a350611521806101aa6000396000f3006060604052600436106100d0576000357c0100000000000000000000000000000000000000000000000000000000900463ffffffff1680635b6beeb9146100db57806361c1350d146101545780636db59df8146101945780637012e30a146101cb578063779d8677146102da5780638da5cb5b146103275780639172fe081461037c5780639ebd36f3146103aa578063a1f811ef146105c2578063af92c181146105f9578063c19d93fb1461060e578063cb75b99714610645578063f2fde38b146106b6578063fbfa77cf146106ef575b6100d933610744565b005b34156100e657600080fd5b610136600480803590602001908201803590602001908080601f01602080910402602001604051908101604052809392919081815260200183838082843782019150505050505091905050610961565b60405180826000191660001916815260200191505060405180910390f35b341561015f57600080fd5b61017e60048080359060200190919080359060200190919050506109cd565b6040518082815260200191505060405180910390f35b341561019f57600080fd5b6101b56004808035906020019091905050610ab1565b6040518082815260200191505060405180910390f35b34156101d657600080fd5b6102c4600480803590602001908201803590602001908080601f0160208091040260200160405190810160405280939291908181526020018383808284378201915050505050509190803515159060200190919080356000191690602001909190803590602001908201803590602001908080601f0160208091040260200160405190810160405280939291908181526020018383808284378201915050505050509190803590602001908201803590602001908080601f01602080910402602001604051908101604052809392919081815260200183838082843782019150505050505091905050610b98565b6040518082815260200191505060405180910390f35b34156102e557600080fd5b610311600480803573ffffffffffffffffffffffffffffffffffffffff16906020019091905050610e30565b6040518082815260200191505060405180910390f35b341561033257600080fd5b61033a610e48565b604051808273ffffffffffffffffffffffffffffffffffffffff1673ffffffffffffffffffffffffffffffffffffffff16815260200191505060405180910390f35b6103a8600480803573ffffffffffffffffffffffffffffffffffffffff16906020019091905050610744565b005b34156103b557600080fd5b6103cb6004808035906020019091905050610e6d565b604051808773ffffffffffffffffffffffffffffffffffffffff1673ffffffffffffffffffffffffffffffffffffffff1681526020018060200186151515158152602001856000191660001916815260200180602001806020018481038452898181546001816001161561010002031660029004815260200191508054600181600116156101000203166002900480156104a65780601f1061047b576101008083540402835291602001916104a6565b820191906000526020600020905b81548152906001019060200180831161048957829003601f168201915b50508481038352868181546001816001161561010002031660029004815260200191508054600181600116156101000203166002900480156105295780601f106104fe57610100808354040283529160200191610529565b820191906000526020600020905b81548152906001019060200180831161050c57829003601f168201915b50508481038252858181546001816001161561010002031660029004815260200191508054600181600116156101000203166002900480156105ac5780601f10610581576101008083540402835291602001916105ac565b820191906000526020600020905b81548152906001019060200180831161058f57829003601f168201915b5050995050505050505050505060405180910390f35b34156105cd57600080fd5b6105e36004808035906020019091905050610ee2565b6040518082815260200191505060405180910390f35b341561060457600080fd5b61060c610f0c565b005b341561061957600080fd5b610621611064565b6040518082600281111561063157fe5b60ff16815260200191505060405180910390f35b341561065057600080fd5b6106666004808035906020019091905050611077565b604051808473ffffffffffffffffffffffffffffffffffffffff1673ffffffffffffffffffffffffffffffffffffffff168152602001838152602001828152602001935050505060405180910390f35b34156106c157600080fd5b6106ed600480803573ffffffffffffffffffffffffffffffffffffffff169060200190919050506110d0565b005b34156106fa57600080fd5b610702611225565b604051808273ffffffffffffffffffffffffffffffffffffffff1673ffffffffffffffffffffffffffffffffffffffff16815260200191505060405180910390f35b6000809054906101000a900473ffffffffffffffffffffffffffffffffffffffff1673ffffffffffffffffffffffffffffffffffffffff163373ffffffffffffffffffffffffffffffffffffffff1614151561079f57600080fd5b6001600260146101000a81548160ff021916908360028111156107be57fe5b0217905550600260009054906101000a900473ffffffffffffffffffffffffffffffffffffffff1673ffffffffffffffffffffffffffffffffffffffff166108fc349081150290604051600060405180830381858888f19350505050151561082557600080fd5b61087734600160008473ffffffffffffffffffffffffffffffffffffffff1673ffffffffffffffffffffffffffffffffffffffff1681526020019081526020016000205461124b90919063ffffffff16565b600160008373ffffffffffffffffffffffffffffffffffffffff1673ffffffffffffffffffffffffffffffffffffffff16815260200190815260200160002081905550600260009054906101000a900473ffffffffffffffffffffffffffffffffffffffff1673ffffffffffffffffffffffffffffffffffffffff163373ffffffffffffffffffffffffffffffffffffffff167fae6905ed683ee316aa72cda27d03945d8f93ec0f2a213d899497c705cdbce4da600260149054906101000a900460ff166040518082600281111561094b57fe5b60ff16815260200191505060405180910390a350565b6000816040518082805190602001908083835b6020831015156109995780518252602082019150602081019050602083039250610974565b6001836020036101000a03801982511681845116808217855250505050505090500191505060405180910390209050919050565b600080600480548091906001016109e49190611269565b91506004828154811015156109f557fe5b90600052602060002090600302019050338160000160006101000a81548173ffffffffffffffffffffffffffffffffffffffff021916908373ffffffffffffffffffffffffffffffffffffffff160217905550838160010181905550828160020181905550833373ffffffffffffffffffffffffffffffffffffffff16837fabae455af5f2271c2159ed49e8728304bebc0f408ac8c99f47718c5cd5883c74866040518082815260200191505060405180910390a45092915050565b6000803373ffffffffffffffffffffffffffffffffffffffff16600484815481101515610ada57fe5b906000526020600020906003020160000160009054906101000a900473ffffffffffffffffffffffffffffffffffffffff1673ffffffffffffffffffffffffffffffffffffffff161415610b925760058054809190600101610b3c919061129b565b9150600582815481101515610b4d57fe5b9060005260206000209001905082816000018190555082827f2b8a481e89dc06ea8474e349f239119eeb28ade85f513c4dc565232864d2c40360405160405180910390a35b50919050565b60008060038054809190600101610baf91906112c7565b9150600382815481101515610bc057fe5b90600052602060002090600602019050338160000160006101000a81548173ffffffffffffffffffffffffffffffffffffffff021916908373ffffffffffffffffffffffffffffffffffffffff16021790555086816001019080519060200190610c2b9291906112f9565b50858160020160006101000a81548160ff0219169083151502179055508481600301816000191690555083816004019080519060200190610c6d9291906112f9565b5082816005019080519060200190610c869291906112f9565b5084600019163373ffffffffffffffffffffffffffffffffffffffff16837f377af03f7a20e598b24a0310bdbaa1734bf6b783731c6439efae85be4cbbba7b8a8a89896040518080602001851515151581526020018060200180602001848103845288818151815260200191508051906020019080838360005b83811015610d1b578082015181840152602081019050610d00565b50505050905090810190601f168015610d485780820380516001836020036101000a031916815260200191505b50848103835286818151815260200191508051906020019080838360005b83811015610d81578082015181840152602081019050610d66565b50505050905090810190601f168015610dae5780820380516001836020036101000a031916815260200191505b50848103825285818151815260200191508051906020019080838360005b83811015610de7578082015181840152602081019050610dcc565b50505050905090810190601f168015610e145780820380516001836020036101000a031916815260200191505b5097505050505050505060405180910390a45095945050505050565b60016020528060005260406000206000915090505481565b6000809054906101000a900473ffffffffffffffffffffffffffffffffffffffff1681565b600381815481101515610e7c57fe5b90600052602060002090600602016000915090508060000160009054906101000a900473ffffffffffffffffffffffffffffffffffffffff169080600101908060020160009054906101000a900460ff1690806003015490806004019080600501905086565b600581815481101515610ef157fe5b90600052602060002090016000915090508060000154905081565b6000809054906101000a900473ffffffffffffffffffffffffffffffffffffffff1673ffffffffffffffffffffffffffffffffffffffff163373ffffffffffffffffffffffffffffffffffffffff16141515610f6757600080fd5b60016002811115610f7457fe5b600260149054906101000a900460ff166002811115610f8f57fe5b141515610f9b57600080fd5b60028060146101000a81548160ff02191690836002811115610fb957fe5b0217905550600260009054906101000a900473ffffffffffffffffffffffffffffffffffffffff1673ffffffffffffffffffffffffffffffffffffffff163373ffffffffffffffffffffffffffffffffffffffff167fae6905ed683ee316aa72cda27d03945d8f93ec0f2a213d899497c705cdbce4da600260149054906101000a900460ff166040518082600281111561104f57fe5b60ff16815260200191505060405180910390a3565b600260149054906101000a900460ff1681565b60048181548110151561108657fe5b90600052602060002090600302016000915090508060000160009054906101000a900473ffffffffffffffffffffffffffffffffffffffff16908060010154908060020154905083565b6000809054906101000a900473ffffffffffffffffffffffffffffffffffffffff1673ffffffffffffffffffffffffffffffffffffffff163373ffffffffffffffffffffffffffffffffffffffff1614151561112b57600080fd5b600073ffffffffffffffffffffffffffffffffffffffff168173ffffffffffffffffffffffffffffffffffffffff161415151561116757600080fd5b8073ffffffffffffffffffffffffffffffffffffffff166000809054906101000a900473ffffffffffffffffffffffffffffffffffffffff1673ffffffffffffffffffffffffffffffffffffffff167f8be0079c531659141344cd1fd0a4f28419497f9722a3daafe3b4186f6b6457e060405160405180910390a3806000806101000a81548173ffffffffffffffffffffffffffffffffffffffff021916908373ffffffffffffffffffffffffffffffffffffffff16021790555050565b600260009054906101000a900473ffffffffffffffffffffffffffffffffffffffff1681565b600080828401905083811015151561125f57fe5b8091505092915050565b815481835581811511611296576003028160030283600052602060002091820191016112959190611379565b5b505050565b8154818355818115116112c2578183600052602060002091820191016112c191906113cf565b5b505050565b8154818355818115116112f4576006028160060283600052602060002091820191016112f391906113f6565b5b505050565b828054600181600116156101000203166002900490600052602060002090601f016020900481019282601f1061133a57805160ff1916838001178555611368565b82800160010185558215611368579182015b8281111561136757825182559160200191906001019061134c565b5b5090506113759190611488565b5090565b6113cc91905b808211156113c857600080820160006101000a81549073ffffffffffffffffffffffffffffffffffffffff0219169055600182016000905560028201600090555060030161137f565b5090565b90565b6113f391905b808211156113ef57600080820160009055506001016113d5565b5090565b90565b61148591905b8082111561148157600080820160006101000a81549073ffffffffffffffffffffffffffffffffffffffff021916905560018201600061143c91906114ad565b6002820160006101000a81549060ff0219169055600382016000905560048201600061146891906114ad565b60058201600061147891906114ad565b506006016113fc565b5090565b90565b6114aa91905b808211156114a657600081600090555060010161148e565b5090565b90565b50805460018160011615610100020316600290046000825580601f106114d357506114f2565b601f0160209004906000526020600020908101906114f19190611488565b5b505600a165627a7a7230582046092fad52ab9d00d644fa90d864d003603f7d4b926cf31b5012b91d54cdaf9d0029a165627a7a72305820d917d93434b9676dc4ba6ddd2110d80122f9a38c776fd31ea87ab22a19c4690f0029",
  "source": "pragma solidity ^0.4.18;\n\nimport \"./pki/Key.sol\";\nimport \"./token/MintableToken.sol\";\nimport \"./math/SafeMath.sol\";\n\ncontract SmartKey is MintableToken \n{\n\n    using SafeMath for uint256;    \n    string public name;                                       //name\n    uint8  public decimals;                                   //There could 1000 base units with 3 decimals. \n    string public symbol;                     \n    string public version = 'IoTBlock_Smart_Key_0.01';       // version\n    address vault;\n\n    event IssueSmartKey(address indexed user, address indexed key);\n    event ActivateSmartKey(address indexed user, address indexed key);\n        \n    mapping (address => Key) public  smartKeys;\n    \n    function SmartKey(uint256 _tokens, uint256 _rate, address[] adminAddress) \n    Administered(adminAddress)\n    MintableToken(_rate)\n    public\n    {\n    \n        admins  = adminAddress;    \n        vault  = admins[0];\n        mint(vault, _tokens);        \n        \n        name = 'IOTBLOCK';                               // Set the name for display purposes\n        decimals = 8;\n        symbol = 'IOTBLOCK';                       \n        \n    }\n    \n    function setVault(address _vault) \n    onlyAdmin \n    public\n    returns (bool) {\n        vault=_vault;\n        return true;                \n    }\n    \n    \n    function getKey(address user) \t\n    public\n    view\n    returns (Key) \n    {    \n        \n        return smartKeys[user];\n        \n    }\n  \n    function getBalanceInEth(address addr) \t\n    public\n    view\n    returns(uint)\n    {\n    \n\t\treturn convertToWei( balances[addr] );\n\t\t\n\t}\n\n    function getBalance(address addr) \n\tpublic\n    view\n    returns(uint) \n    {\n\t\treturn (balances[addr]);\n    }\n\t\t    \n    // @return true if the transaction can buy tokens\n    function validPurchase() internal constant returns (bool) \n    {\n        bool nonZeroPurchase = msg.value != 0;\n        return nonZeroPurchase;\n    }\n\n    // fallback function can be used to buy tokens\n    function () \n    public\n    payable \n    {\n        getSmartKey(msg.sender);\n    }\n\n    \n    function getSmartKey(address beneficiary) \n    public\n    payable \n    {\n        require(beneficiary != 0x0);\n        require(validPurchase());\n        \n        uint256 weiAmount = msg.value;\n\n        // calculate token amount to be created\n        uint256 tokens = convertToToken(weiAmount);\n        \n        if (tokens > 0) \n        {\n            Key key;\n            if (smartKeys[beneficiary] == address(0)) \n            {\n                key = new Key(vault); \n                smartKeys[beneficiary] = key;\n                IssueSmartKey(beneficiary, key);\n            }\n            else \n            {\n                key = smartKeys[beneficiary];\n            }\n\n            key.activateKey.value(msg.value)(beneficiary);\n            \n            ActivateSmartKey(beneficiary, key); \n            \n            tokenMinted = tokenMinted.add(tokens);\n            \n            balances[beneficiary] = balances[beneficiary].add(tokens);\n            Mint(beneficiary, tokens);\n            Transfer(address(0), beneficiary, tokens);\n        }        \n        \n    }\n    \n    function convertToWei(uint256 amount) \n    public\n    view\n    returns (uint256) \n    {\n\t\treturn amount.mul(rate);\n    }\n\n    function convertToToken(uint256 amount) \n    public\n    view\n    returns (uint256) \n    {\n\t\treturn amount.div(rate);\n    }\n\n}\n",
  "sourcePath": "/home/richard/iotblock/contracts/SmartKey.sol",
  "compiler": {
    "name": "solc",
    "version": "0.4.19+commit.c4cbbb05.Emscripten.clang"
  },
  "schemaVersion": "2.0.0",
  "updatedAt": "2018-03-14T18:06:06.371Z"
}