{
  "contractName": "SmartPoolKey",
  "abi": [
    {
      "constant": true,
      "inputs": [
        {
          "name": "",
          "type": "uint256"
        }
      ],
      "name": "admins",
      "outputs": [
        {
          "name": "",
          "type": "address"
        }
      ],
      "payable": false,
      "stateMutability": "view",
      "type": "function"
    },
    {
      "constant": true,
      "inputs": [
        {
          "name": "",
          "type": "address"
        }
      ],
      "name": "isAdmin",
      "outputs": [
        {
          "name": "",
          "type": "bool"
        }
      ],
      "payable": false,
      "stateMutability": "view",
      "type": "function"
    },
    {
      "constant": true,
      "inputs": [],
      "name": "getAdmins",
      "outputs": [
        {
          "name": "",
          "type": "address[]"
        }
      ],
      "payable": false,
      "stateMutability": "view",
      "type": "function"
    },
    {
      "constant": true,
      "inputs": [
        {
          "name": "",
          "type": "address"
        }
      ],
      "name": "smartPoolKeys",
      "outputs": [
        {
          "name": "",
          "type": "address"
        }
      ],
      "payable": false,
      "stateMutability": "view",
      "type": "function"
    },
    {
      "constant": false,
      "inputs": [
        {
          "name": "admin",
          "type": "address"
        }
      ],
      "name": "addAdmin",
      "outputs": [],
      "payable": false,
      "stateMutability": "nonpayable",
      "type": "function"
    },
    {
      "constant": true,
      "inputs": [
        {
          "name": "",
          "type": "address"
        }
      ],
      "name": "isBanned",
      "outputs": [
        {
          "name": "",
          "type": "bool"
        }
      ],
      "payable": false,
      "stateMutability": "view",
      "type": "function"
    },
    {
      "constant": false,
      "inputs": [
        {
          "name": "banned",
          "type": "address"
        }
      ],
      "name": "addBanned",
      "outputs": [],
      "payable": false,
      "stateMutability": "nonpayable",
      "type": "function"
    },
    {
      "inputs": [
        {
          "name": "_smartKey",
          "type": "address"
        },
        {
          "name": "adminAddress",
          "type": "address[]"
        }
      ],
      "payable": false,
      "stateMutability": "nonpayable",
      "type": "constructor"
    },
    {
      "constant": false,
      "inputs": [
        {
          "name": "_vault",
          "type": "address"
        }
      ],
      "name": "setVault",
      "outputs": [
        {
          "name": "",
          "type": "bool"
        }
      ],
      "payable": false,
      "stateMutability": "nonpayable",
      "type": "function"
    },
    {
      "constant": true,
      "inputs": [
        {
          "name": "beneficiary",
          "type": "address"
        }
      ],
      "name": "getSmartPoolKey",
      "outputs": [
        {
          "name": "",
          "type": "address"
        }
      ],
      "payable": false,
      "stateMutability": "view",
      "type": "function"
    },
    {
      "constant": false,
      "inputs": [
        {
          "name": "beneficiary",
          "type": "address"
        },
        {
          "name": "max_contrib",
          "type": "uint256"
        },
        {
          "name": "max_per_contrib",
          "type": "uint256"
        },
        {
          "name": "min_per_contrib",
          "type": "uint256"
        },
        {
          "name": "admins",
          "type": "address[]"
        },
        {
          "name": "whitelist",
          "type": "address[]"
        },
        {
          "name": "fee",
          "type": "uint256"
        }
      ],
      "name": "addSmartPoolKey",
      "outputs": [
        {
          "name": "",
          "type": "address"
        }
      ],
      "payable": false,
      "stateMutability": "nonpayable",
      "type": "function"
    }
  ],
  "bytecode": "0x606060405234156200001057600080fd5b60405162003f3d38038062003f3d833981016040528080519060200190919080518201919050508060008090505b8151811015620000c557600160008084848151811015156200005c57fe5b9060200190602002015173ffffffffffffffffffffffffffffffffffffffff1673ffffffffffffffffffffffffffffffffffffffff16815260200190815260200160002060006101000a81548160ff02191690831515021790555080806001019150506200003e565b8160029080519060200190620000dd92919062000183565b50505081600360006101000a81548173ffffffffffffffffffffffffffffffffffffffff021916908373ffffffffffffffffffffffffffffffffffffffff1602179055508060008151811015156200013157fe5b90602001906020020151600460006101000a81548173ffffffffffffffffffffffffffffffffffffffff021916908373ffffffffffffffffffffffffffffffffffffffff160217905550505062000258565b828054828255906000526020600020908101928215620001ff579160200282015b82811115620001fe5782518260006101000a81548173ffffffffffffffffffffffffffffffffffffffff021916908373ffffffffffffffffffffffffffffffffffffffff16021790555091602001919060010190620001a4565b5b5090506200020e919062000212565b5090565b6200025591905b808211156200025157600081816101000a81549073ffffffffffffffffffffffffffffffffffffffff02191690555060010162000219565b5090565b90565b613cd580620002686000396000f300606060405260043610620000af576000357c0100000000000000000000000000000000000000000000000000000000900463ffffffff16806314bfd6d014620000b457806324d7806c146200011a57806328d0d6ba146200016e57806331ae450b14620001ea5780636817031b14620002595780636f85714914620002ad578063704802751462000329578063768ed34d146200036557806397f735d51462000485578063e1b2e8b314620004d9575b600080fd5b3415620000c057600080fd5b620000d8600480803590602001909190505062000515565b604051808273ffffffffffffffffffffffffffffffffffffffff1673ffffffffffffffffffffffffffffffffffffffff16815260200191505060405180910390f35b34156200012657600080fd5b62000154600480803573ffffffffffffffffffffffffffffffffffffffff1690602001909190505062000555565b604051808215151515815260200191505060405180910390f35b34156200017a57600080fd5b620001a8600480803573ffffffffffffffffffffffffffffffffffffffff1690602001909190505062000575565b604051808273ffffffffffffffffffffffffffffffffffffffff1673ffffffffffffffffffffffffffffffffffffffff16815260200191505060405180910390f35b3415620001f657600080fd5b62000200620005de565b6040518080602001828103825283818151815260200191508051906020019060200280838360005b838110156200024557808201518184015260208101905062000228565b505050509050019250505060405180910390f35b34156200026557600080fd5b62000293600480803573ffffffffffffffffffffffffffffffffffffffff1690602001909190505062000676565b604051808215151515815260200191505060405180910390f35b3415620002b957600080fd5b620002e7600480803573ffffffffffffffffffffffffffffffffffffffff1690602001909190505062000774565b604051808273ffffffffffffffffffffffffffffffffffffffff1673ffffffffffffffffffffffffffffffffffffffff16815260200191505060405180910390f35b34156200033557600080fd5b62000363600480803573ffffffffffffffffffffffffffffffffffffffff16906020019091905050620007a7565b005b34156200037157600080fd5b62000443600480803573ffffffffffffffffffffffffffffffffffffffff169060200190919080359060200190919080359060200190919080359060200190919080359060200190820180359060200190808060200260200160405190810160405280939291908181526020018383602002808284378201915050505050509190803590602001908201803590602001908080602002602001604051908101604052809392919081815260200183836020028082843782019150505050505091908035906020019091905050620009ca565b604051808273ffffffffffffffffffffffffffffffffffffffff1673ffffffffffffffffffffffffffffffffffffffff16815260200191505060405180910390f35b34156200049157600080fd5b620004bf600480803573ffffffffffffffffffffffffffffffffffffffff1690602001909190505062000ce5565b604051808215151515815260200191505060405180910390f35b3415620004e557600080fd5b62000513600480803573ffffffffffffffffffffffffffffffffffffffff1690602001909190505062000d05565b005b6002818154811015156200052557fe5b90600052602060002090016000915054906101000a900473ffffffffffffffffffffffffffffffffffffffff1681565b60006020528060005260406000206000915054906101000a900460ff1681565b6000600560008373ffffffffffffffffffffffffffffffffffffffff1673ffffffffffffffffffffffffffffffffffffffff16815260200190815260200160002060009054906101000a900473ffffffffffffffffffffffffffffffffffffffff169050919050565b620005e862000ec3565b60028054806020026020016040519081016040528092919081815260200182805480156200066c57602002820191906000526020600020905b8160009054906101000a900473ffffffffffffffffffffffffffffffffffffffff1673ffffffffffffffffffffffffffffffffffffffff168152602001906001019080831162000621575b5050505050905090565b60008060003373ffffffffffffffffffffffffffffffffffffffff1673ffffffffffffffffffffffffffffffffffffffff16815260200190815260200160002060009054906101000a900460ff161515620006d057600080fd5b600160003373ffffffffffffffffffffffffffffffffffffffff1673ffffffffffffffffffffffffffffffffffffffff16815260200190815260200160002060009054906101000a900460ff161515156200072a57600080fd5b81600460006101000a81548173ffffffffffffffffffffffffffffffffffffffff021916908373ffffffffffffffffffffffffffffffffffffffff16021790555060019050919050565b60056020528060005260406000206000915054906101000a900473ffffffffffffffffffffffffffffffffffffffff1681565b6000803373ffffffffffffffffffffffffffffffffffffffff1673ffffffffffffffffffffffffffffffffffffffff16815260200190815260200160002060009054906101000a900460ff161515620007ff57600080fd5b600160003373ffffffffffffffffffffffffffffffffffffffff1673ffffffffffffffffffffffffffffffffffffffff16815260200190815260200160002060009054906101000a900460ff161515156200085957600080fd5b6000803373ffffffffffffffffffffffffffffffffffffffff1673ffffffffffffffffffffffffffffffffffffffff16815260200190815260200160002060009054906101000a900460ff161515620008b157600080fd5b600160003373ffffffffffffffffffffffffffffffffffffffff1673ffffffffffffffffffffffffffffffffffffffff16815260200190815260200160002060009054906101000a900460ff161515156200090b57600080fd5b60016000808373ffffffffffffffffffffffffffffffffffffffff1673ffffffffffffffffffffffffffffffffffffffff16815260200190815260200160002060006101000a81548160ff0219169083151502179055506002805480600101828162000978919062000ed7565b9160005260206000209001600083909190916101000a81548173ffffffffffffffffffffffffffffffffffffffff021916908373ffffffffffffffffffffffffffffffffffffffff1602179055505050565b60008060008973ffffffffffffffffffffffffffffffffffffffff1614151515620009f457600080fd5b600073ffffffffffffffffffffffffffffffffffffffff16600560008b73ffffffffffffffffffffffffffffffffffffffff1673ffffffffffffffffffffffffffffffffffffffff16815260200190815260200160002060009054906101000a900473ffffffffffffffffffffffffffffffffffffffff1673ffffffffffffffffffffffffffffffffffffffff16141562000c7357600460009054906101000a900473ffffffffffffffffffffffffffffffffffffffff168989898989898962000abd62000f06565b808973ffffffffffffffffffffffffffffffffffffffff1673ffffffffffffffffffffffffffffffffffffffff1681526020018873ffffffffffffffffffffffffffffffffffffffff1673ffffffffffffffffffffffffffffffffffffffff1681526020018781526020018681526020018581526020018060200180602001848152602001838103835286818151815260200191508051906020019060200280838360005b8381101562000b7f57808201518184015260208101905062000b62565b50505050905001838103825285818151815260200191508051906020019060200280838360005b8381101562000bc357808201518184015260208101905062000ba6565b505050509050019a5050505050505050505050604051809103906000f080151562000bed57600080fd5b905080600560008b73ffffffffffffffffffffffffffffffffffffffff1673ffffffffffffffffffffffffffffffffffffffff16815260200190815260200160002060006101000a81548173ffffffffffffffffffffffffffffffffffffffff021916908373ffffffffffffffffffffffffffffffffffffffff16021790555062000cd6565b600560008a73ffffffffffffffffffffffffffffffffffffffff1673ffffffffffffffffffffffffffffffffffffffff16815260200190815260200160002060009054906101000a900473ffffffffffffffffffffffffffffffffffffffff1690505b80915050979650505050505050565b60016020528060005260406000206000915054906101000a900460ff1681565b6000803373ffffffffffffffffffffffffffffffffffffffff1673ffffffffffffffffffffffffffffffffffffffff16815260200190815260200160002060009054906101000a900460ff16151562000d5d57600080fd5b600160003373ffffffffffffffffffffffffffffffffffffffff1673ffffffffffffffffffffffffffffffffffffffff16815260200190815260200160002060009054906101000a900460ff1615151562000db757600080fd5b6000803373ffffffffffffffffffffffffffffffffffffffff1673ffffffffffffffffffffffffffffffffffffffff16815260200190815260200160002060009054906101000a900460ff16151562000e0f57600080fd5b600160003373ffffffffffffffffffffffffffffffffffffffff1673ffffffffffffffffffffffffffffffffffffffff16815260200190815260200160002060009054906101000a900460ff1615151562000e6957600080fd5b60018060008373ffffffffffffffffffffffffffffffffffffffff1673ffffffffffffffffffffffffffffffffffffffff16815260200190815260200160002060006101000a81548160ff02191690831515021790555050565b602060405190810160405280600081525090565b81548183558181151162000f015781836000526020600020918201910162000f00919062000f17565b5b505050565b604051612d6a8062000f4083390190565b62000f3c91905b8082111562000f3857600081600090555060010162000f1e565b5090565b905600606060405234156200001057600080fd5b60405162002d6a38038062002d6a833981016040528080519060200190919080519060200190919080519060200190919080519060200190919080519060200190919080518201919060200180518201919060200180519060200190919050506000838360008260008c336000806101000a81548173ffffffffffffffffffffffffffffffffffffffff021916908373ffffffffffffffffffffffffffffffffffffffff16021790555060008173ffffffffffffffffffffffffffffffffffffffff1614151515620000e157600080fd5b80600260006101000a81548173ffffffffffffffffffffffffffffffffffffffff021916908373ffffffffffffffffffffffffffffffffffffffff1602179055506000600260146101000a81548160ff021916908360028111156200014257fe5b0217905550600260009054906101000a900473ffffffffffffffffffffffffffffffffffffffff1673ffffffffffffffffffffffffffffffffffffffff163373ffffffffffffffffffffffffffffffffffffffff167fae6905ed683ee316aa72cda27d03945d8f93ec0f2a213d899497c705cdbce4da600260149054906101000a900460ff1660405180826002811115620001d957fe5b60ff16815260200191505060405180910390a350600090505b81518110156200027a5760016007600084848151811015156200021157fe5b9060200190602002015173ffffffffffffffffffffffffffffffffffffffff1673ffffffffffffffffffffffffffffffffffffffff16815260200190815260200160002060006101000a81548160ff0219169083151502179055508080600101915050620001f2565b81600990805190602001906200029292919062000494565b5050506000825111156200036757600090505b81518110156200032d576001600a60008484815181101515620002c457fe5b9060200190602002015173ffffffffffffffffffffffffffffffffffffffff1673ffffffffffffffffffffffffffffffffffffffff16815260200190815260200160002060006101000a81548160ff0219169083151502179055508080600101915050620002a5565b81600b90805190602001906200034592919062000494565b506001600c60006101000a81548160ff02191690831515021790555062000383565b6000600c60006101000a81548160ff0219169083151502179055505b50505088600f60006101000a81548173ffffffffffffffffffffffffffffffffffffffff021916908373ffffffffffffffffffffffffffffffffffffffff160217905550816015819055508660128190555085601381905550846014819055506000601181905550600090505b82518110156200048557600d805480600101828162000410919062000523565b9160005260206000209001600085848151811015156200042c57fe5b90602001906020020151909190916101000a81548173ffffffffffffffffffffffffffffffffffffffff021916908373ffffffffffffffffffffffffffffffffffffffff160217905550508080600101915050620003f0565b505050505050505050620005c0565b82805482825590600052602060002090810192821562000510579160200282015b828111156200050f5782518260006101000a81548173ffffffffffffffffffffffffffffffffffffffff021916908373ffffffffffffffffffffffffffffffffffffffff16021790555091602001919060010190620004b5565b5b5090506200051f919062000552565b5090565b8154818355818115116200054d578183600052602060002091820191016200054c919062000598565b5b505050565b6200059591905b808211156200059157600081816101000a81549073ffffffffffffffffffffffffffffffffffffffff02191690555060010162000559565b5090565b90565b620005bd91905b80821115620005b95760008160009055506001016200059f565b5090565b90565b61279a80620005d06000396000f300606060405260043610610196576000357c0100000000000000000000000000000000000000000000000000000000900463ffffffff1680630c8a6f1a1461054b57806314bfd6d014610574578063202e079d146105d757806324d7806c1461060057806331ae450b146106515780633af32abf146106bb5780635b6beeb91461070c5780635daf08ca1461078557806361c1350d146107e85780636db59df8146108285780637012e30a1461085f578063704802751461096e578063779d8677146109a75780637ebd1b30146109f45780638da5cb5b14610a5757806390fa5ec814610aac5780639172fe0814610ad557806397f735d514610b035780639eab525314610b545780639ebd36f314610bbe578063a1f811ef14610dd6578063a230c52414610e0d578063af92c18114610e5a578063b764e53e14610e6f578063c19d93fb14610e98578063cb75b99714610ecf578063d01f63f514610f40578063ddca3f4314610faa578063e1b2e8b314610fd3578063f2fde38b1461100c578063f80f5dd514611045578063fbfa77cf1461107e575b600080600080600034945060145485101580156101b557506013548511155b15610544576000600b8054905014806102175750600a60003373ffffffffffffffffffffffffffffffffffffffff1673ffffffffffffffffffffffffffffffffffffffff16815260200190815260200160002060009054906101000a900460ff165b156105435761023060c8866110d390919063ffffffff16565b9350610247601554866110d390919063ffffffff16565b925061026e8361026086886110ee90919063ffffffff16565b6110ee90919063ffffffff16565b9150610288600d80549050836110d390919063ffffffff16565b9150600f60009054906101000a900473ffffffffffffffffffffffffffffffffffffffff1673ffffffffffffffffffffffffffffffffffffffff166108fc859081150290604051600060405180830381858888f1935050505015156102ec57600080fd5b600260009054906101000a900473ffffffffffffffffffffffffffffffffffffffff1673ffffffffffffffffffffffffffffffffffffffff166108fc849081150290604051600060405180830381858888f19350505050151561034e57600080fd5b6103a085600e60003373ffffffffffffffffffffffffffffffffffffffff1673ffffffffffffffffffffffffffffffffffffffff1681526020019081526020016000205461110790919063ffffffff16565b600e60003373ffffffffffffffffffffffffffffffffffffffff1673ffffffffffffffffffffffffffffffffffffffff168152602001908152602001600020819055506103f88560115461110790919063ffffffff16565b601181905550600090505b600d8054905081101561049757600d8181548110151561041f57fe5b906000526020600020900160009054906101000a900473ffffffffffffffffffffffffffffffffffffffff1673ffffffffffffffffffffffffffffffffffffffff166108fc839081150290604051600060405180830381858888f19350505050151561048a57600080fd5b8080600101915050610403565b84600e60003373ffffffffffffffffffffffffffffffffffffffff1673ffffffffffffffffffffffffffffffffffffffff16815260200190815260200160002054141561054257600d80548060010182816104f291906124a2565b9160005260206000209001600033909190916101000a81548173ffffffffffffffffffffffffffffffffffffffff021916908373ffffffffffffffffffffffffffffffffffffffff160217905550505b5b5b5050505050005b341561055657600080fd5b61055e611125565b6040518082815260200191505060405180910390f35b341561057f57600080fd5b610595600480803590602001909190505061112b565b604051808273ffffffffffffffffffffffffffffffffffffffff1673ffffffffffffffffffffffffffffffffffffffff16815260200191505060405180910390f35b34156105e257600080fd5b6105ea61116a565b6040518082815260200191505060405180910390f35b341561060b57600080fd5b610637600480803573ffffffffffffffffffffffffffffffffffffffff16906020019091905050611170565b604051808215151515815260200191505060405180910390f35b341561065c57600080fd5b610664611190565b6040518080602001828103825283818151815260200191508051906020019060200280838360005b838110156106a757808201518184015260208101905061068c565b505050509050019250505060405180910390f35b34156106c657600080fd5b6106f2600480803573ffffffffffffffffffffffffffffffffffffffff16906020019091905050611224565b604051808215151515815260200191505060405180910390f35b341561071757600080fd5b610767600480803590602001908201803590602001908080601f01602080910402602001604051908101604052809392919081815260200183838082843782019150505050505091905050611244565b60405180826000191660001916815260200191505060405180910390f35b341561079057600080fd5b6107a660048080359060200190919050506112b0565b604051808273ffffffffffffffffffffffffffffffffffffffff1673ffffffffffffffffffffffffffffffffffffffff16815260200191505060405180910390f35b34156107f357600080fd5b61081260048080359060200190919080359060200190919050506112ef565b6040518082815260200191505060405180910390f35b341561083357600080fd5b61084960048080359060200190919050506113d3565b6040518082815260200191505060405180910390f35b341561086a57600080fd5b610958600480803590602001908201803590602001908080601f0160208091040260200160405190810160405280939291908181526020018383808284378201915050505050509190803515159060200190919080356000191690602001909190803590602001908201803590602001908080601f0160208091040260200160405190810160405280939291908181526020018383808284378201915050505050509190803590602001908201803590602001908080601f016020809104026020016040519081016040528093929190818152602001838380828437820191505050505050919050506114ba565b6040518082815260200191505060405180910390f35b341561097957600080fd5b6109a5600480803573ffffffffffffffffffffffffffffffffffffffff16906020019091905050611752565b005b34156109b257600080fd5b6109de600480803573ffffffffffffffffffffffffffffffffffffffff16906020019091905050611972565b6040518082815260200191505060405180910390f35b34156109ff57600080fd5b610a15600480803590602001909190505061198a565b604051808273ffffffffffffffffffffffffffffffffffffffff1673ffffffffffffffffffffffffffffffffffffffff16815260200191505060405180910390f35b3415610a6257600080fd5b610a6a6119c9565b604051808273ffffffffffffffffffffffffffffffffffffffff1673ffffffffffffffffffffffffffffffffffffffff16815260200191505060405180910390f35b3415610ab757600080fd5b610abf6119ee565b6040518082815260200191505060405180910390f35b610b01600480803573ffffffffffffffffffffffffffffffffffffffff169060200190919050506119f4565b005b3415610b0e57600080fd5b610b3a600480803573ffffffffffffffffffffffffffffffffffffffff16906020019091905050611c11565b604051808215151515815260200191505060405180910390f35b3415610b5f57600080fd5b610b67611c31565b6040518080602001828103825283818151815260200191508051906020019060200280838360005b83811015610baa578082015181840152602081019050610b8f565b505050509050019250505060405180910390f35b3415610bc957600080fd5b610bdf6004808035906020019091905050611cc5565b604051808773ffffffffffffffffffffffffffffffffffffffff1673ffffffffffffffffffffffffffffffffffffffff168152602001806020018615151515815260200185600019166000191681526020018060200180602001848103845289818154600181600116156101000203166002900481526020019150805460018160011615610100020316600290048015610cba5780601f10610c8f57610100808354040283529160200191610cba565b820191906000526020600020905b815481529060010190602001808311610c9d57829003601f168201915b5050848103835286818154600181600116156101000203166002900481526020019150805460018160011615610100020316600290048015610d3d5780601f10610d1257610100808354040283529160200191610d3d565b820191906000526020600020905b815481529060010190602001808311610d2057829003601f168201915b5050848103825285818154600181600116156101000203166002900481526020019150805460018160011615610100020316600290048015610dc05780601f10610d9557610100808354040283529160200191610dc0565b820191906000526020600020905b815481529060010190602001808311610da357829003601f168201915b5050995050505050505050505060405180910390f35b3415610de157600080fd5b610df76004808035906020019091905050611d3a565b6040518082815260200191505060405180910390f35b3415610e1857600080fd5b610e44600480803573ffffffffffffffffffffffffffffffffffffffff16906020019091905050611d64565b6040518082815260200191505060405180910390f35b3415610e6557600080fd5b610e6d611d7c565b005b3415610e7a57600080fd5b610e82611ed4565b6040518082815260200191505060405180910390f35b3415610ea357600080fd5b610eab611eda565b60405180826002811115610ebb57fe5b60ff16815260200191505060405180910390f35b3415610eda57600080fd5b610ef06004808035906020019091905050611eed565b604051808473ffffffffffffffffffffffffffffffffffffffff1673ffffffffffffffffffffffffffffffffffffffff168152602001838152602001828152602001935050505060405180910390f35b3415610f4b57600080fd5b610f53611f46565b6040518080602001828103825283818151815260200191508051906020019060200280838360005b83811015610f96578082015181840152602081019050610f7b565b505050509050019250505060405180910390f35b3415610fb557600080fd5b610fbd611fda565b6040518082815260200191505060405180910390f35b3415610fde57600080fd5b61100a600480803573ffffffffffffffffffffffffffffffffffffffff16906020019091905050611fe0565b005b341561101757600080fd5b611043600480803573ffffffffffffffffffffffffffffffffffffffff1690602001909190505061219d565b005b341561105057600080fd5b61107c600480803573ffffffffffffffffffffffffffffffffffffffff169060200190919050506122f2565b005b341561108957600080fd5b61109161247c565b604051808273ffffffffffffffffffffffffffffffffffffffff1673ffffffffffffffffffffffffffffffffffffffff16815260200191505060405180910390f35b60008082848115156110e157fe5b0490508091505092915050565b60008282111515156110fc57fe5b818303905092915050565b600080828401905083811015151561111b57fe5b8091505092915050565b60145481565b60098181548110151561113a57fe5b90600052602060002090016000915054906101000a900473ffffffffffffffffffffffffffffffffffffffff1681565b60115481565b60076020528060005260406000206000915054906101000a900460ff1681565b6111986124ce565b600980548060200260200160405190810160405280929190818152602001828054801561121a57602002820191906000526020600020905b8160009054906101000a900473ffffffffffffffffffffffffffffffffffffffff1673ffffffffffffffffffffffffffffffffffffffff16815260200190600101908083116111d0575b5050505050905090565b600a6020528060005260406000206000915054906101000a900460ff1681565b6000816040518082805190602001908083835b60208310151561127c5780518252602082019150602081019050602083039250611257565b6001836020036101000a03801982511681845116808217855250505050505090500191505060405180910390209050919050565b600d818154811015156112bf57fe5b90600052602060002090016000915054906101000a900473ffffffffffffffffffffffffffffffffffffffff1681565b6000806004805480919060010161130691906124e2565b915060048281548110151561131757fe5b90600052602060002090600302019050338160000160006101000a81548173ffffffffffffffffffffffffffffffffffffffff021916908373ffffffffffffffffffffffffffffffffffffffff160217905550838160010181905550828160020181905550833373ffffffffffffffffffffffffffffffffffffffff16837fabae455af5f2271c2159ed49e8728304bebc0f408ac8c99f47718c5cd5883c74866040518082815260200191505060405180910390a45092915050565b6000803373ffffffffffffffffffffffffffffffffffffffff166004848154811015156113fc57fe5b906000526020600020906003020160000160009054906101000a900473ffffffffffffffffffffffffffffffffffffffff1673ffffffffffffffffffffffffffffffffffffffff1614156114b4576005805480919060010161145e9190612514565b915060058281548110151561146f57fe5b9060005260206000209001905082816000018190555082827f2b8a481e89dc06ea8474e349f239119eeb28ade85f513c4dc565232864d2c40360405160405180910390a35b50919050565b600080600380548091906001016114d19190612540565b91506003828154811015156114e257fe5b90600052602060002090600602019050338160000160006101000a81548173ffffffffffffffffffffffffffffffffffffffff021916908373ffffffffffffffffffffffffffffffffffffffff1602179055508681600101908051906020019061154d929190612572565b50858160020160006101000a81548160ff021916908315150217905550848160030181600019169055508381600401908051906020019061158f929190612572565b50828160050190805190602001906115a8929190612572565b5084600019163373ffffffffffffffffffffffffffffffffffffffff16837f377af03f7a20e598b24a0310bdbaa1734bf6b783731c6439efae85be4cbbba7b8a8a89896040518080602001851515151581526020018060200180602001848103845288818151815260200191508051906020019080838360005b8381101561163d578082015181840152602081019050611622565b50505050905090810190601f16801561166a5780820380516001836020036101000a031916815260200191505b50848103835286818151815260200191508051906020019080838360005b838110156116a3578082015181840152602081019050611688565b50505050905090810190601f1680156116d05780820380516001836020036101000a031916815260200191505b50848103825285818151815260200191508051906020019080838360005b838110156117095780820151818401526020810190506116ee565b50505050905090810190601f1680156117365780820380516001836020036101000a031916815260200191505b5097505050505050505060405180910390a45095945050505050565b600760003373ffffffffffffffffffffffffffffffffffffffff1673ffffffffffffffffffffffffffffffffffffffff16815260200190815260200160002060009054906101000a900460ff1615156117aa57600080fd5b600860003373ffffffffffffffffffffffffffffffffffffffff1673ffffffffffffffffffffffffffffffffffffffff16815260200190815260200160002060009054906101000a900460ff1615151561180357600080fd5b600760003373ffffffffffffffffffffffffffffffffffffffff1673ffffffffffffffffffffffffffffffffffffffff16815260200190815260200160002060009054906101000a900460ff16151561185b57600080fd5b600860003373ffffffffffffffffffffffffffffffffffffffff1673ffffffffffffffffffffffffffffffffffffffff16815260200190815260200160002060009054906101000a900460ff161515156118b457600080fd5b6001600760008373ffffffffffffffffffffffffffffffffffffffff1673ffffffffffffffffffffffffffffffffffffffff16815260200190815260200160002060006101000a81548160ff0219169083151502179055506009805480600101828161192091906124a2565b9160005260206000209001600083909190916101000a81548173ffffffffffffffffffffffffffffffffffffffff021916908373ffffffffffffffffffffffffffffffffffffffff1602179055505050565b60016020528060005260406000206000915090505481565b600b8181548110151561199957fe5b90600052602060002090016000915054906101000a900473ffffffffffffffffffffffffffffffffffffffff1681565b6000809054906101000a900473ffffffffffffffffffffffffffffffffffffffff1681565b60135481565b6000809054906101000a900473ffffffffffffffffffffffffffffffffffffffff1673ffffffffffffffffffffffffffffffffffffffff163373ffffffffffffffffffffffffffffffffffffffff16141515611a4f57600080fd5b6001600260146101000a81548160ff02191690836002811115611a6e57fe5b0217905550600260009054906101000a900473ffffffffffffffffffffffffffffffffffffffff1673ffffffffffffffffffffffffffffffffffffffff166108fc349081150290604051600060405180830381858888f193505050501515611ad557600080fd5b611b2734600160008473ffffffffffffffffffffffffffffffffffffffff1673ffffffffffffffffffffffffffffffffffffffff1681526020019081526020016000205461110790919063ffffffff16565b600160008373ffffffffffffffffffffffffffffffffffffffff1673ffffffffffffffffffffffffffffffffffffffff16815260200190815260200160002081905550600260009054906101000a900473ffffffffffffffffffffffffffffffffffffffff1673ffffffffffffffffffffffffffffffffffffffff163373ffffffffffffffffffffffffffffffffffffffff167fae6905ed683ee316aa72cda27d03945d8f93ec0f2a213d899497c705cdbce4da600260149054906101000a900460ff1660405180826002811115611bfb57fe5b60ff16815260200191505060405180910390a350565b60086020528060005260406000206000915054906101000a900460ff1681565b611c396124ce565b600d805480602002602001604051908101604052809291908181526020018280548015611cbb57602002820191906000526020600020905b8160009054906101000a900473ffffffffffffffffffffffffffffffffffffffff1673ffffffffffffffffffffffffffffffffffffffff1681526020019060010190808311611c71575b5050505050905090565b600381815481101515611cd457fe5b90600052602060002090600602016000915090508060000160009054906101000a900473ffffffffffffffffffffffffffffffffffffffff169080600101908060020160009054906101000a900460ff1690806003015490806004019080600501905086565b600581815481101515611d4957fe5b90600052602060002090016000915090508060000154905081565b600e6020528060005260406000206000915090505481565b6000809054906101000a900473ffffffffffffffffffffffffffffffffffffffff1673ffffffffffffffffffffffffffffffffffffffff163373ffffffffffffffffffffffffffffffffffffffff16141515611dd757600080fd5b60016002811115611de457fe5b600260149054906101000a900460ff166002811115611dff57fe5b141515611e0b57600080fd5b60028060146101000a81548160ff02191690836002811115611e2957fe5b0217905550600260009054906101000a900473ffffffffffffffffffffffffffffffffffffffff1673ffffffffffffffffffffffffffffffffffffffff163373ffffffffffffffffffffffffffffffffffffffff167fae6905ed683ee316aa72cda27d03945d8f93ec0f2a213d899497c705cdbce4da600260149054906101000a900460ff1660405180826002811115611ebf57fe5b60ff16815260200191505060405180910390a3565b60125481565b600260149054906101000a900460ff1681565b600481815481101515611efc57fe5b90600052602060002090600302016000915090508060000160009054906101000a900473ffffffffffffffffffffffffffffffffffffffff16908060010154908060020154905083565b611f4e6124ce565b600b805480602002602001604051908101604052809291908181526020018280548015611fd057602002820191906000526020600020905b8160009054906101000a900473ffffffffffffffffffffffffffffffffffffffff1673ffffffffffffffffffffffffffffffffffffffff1681526020019060010190808311611f86575b5050505050905090565b60155481565b600760003373ffffffffffffffffffffffffffffffffffffffff1673ffffffffffffffffffffffffffffffffffffffff16815260200190815260200160002060009054906101000a900460ff16151561203857600080fd5b600860003373ffffffffffffffffffffffffffffffffffffffff1673ffffffffffffffffffffffffffffffffffffffff16815260200190815260200160002060009054906101000a900460ff1615151561209157600080fd5b600760003373ffffffffffffffffffffffffffffffffffffffff1673ffffffffffffffffffffffffffffffffffffffff16815260200190815260200160002060009054906101000a900460ff1615156120e957600080fd5b600860003373ffffffffffffffffffffffffffffffffffffffff1673ffffffffffffffffffffffffffffffffffffffff16815260200190815260200160002060009054906101000a900460ff1615151561214257600080fd5b6001600860008373ffffffffffffffffffffffffffffffffffffffff1673ffffffffffffffffffffffffffffffffffffffff16815260200190815260200160002060006101000a81548160ff02191690831515021790555050565b6000809054906101000a900473ffffffffffffffffffffffffffffffffffffffff1673ffffffffffffffffffffffffffffffffffffffff163373ffffffffffffffffffffffffffffffffffffffff161415156121f857600080fd5b600073ffffffffffffffffffffffffffffffffffffffff168173ffffffffffffffffffffffffffffffffffffffff161415151561223457600080fd5b8073ffffffffffffffffffffffffffffffffffffffff166000809054906101000a900473ffffffffffffffffffffffffffffffffffffffff1673ffffffffffffffffffffffffffffffffffffffff167f8be0079c531659141344cd1fd0a4f28419497f9722a3daafe3b4186f6b6457e060405160405180910390a3806000806101000a81548173ffffffffffffffffffffffffffffffffffffffff021916908373ffffffffffffffffffffffffffffffffffffffff16021790555050565b600760003373ffffffffffffffffffffffffffffffffffffffff1673ffffffffffffffffffffffffffffffffffffffff16815260200190815260200160002060009054906101000a900460ff16151561234a57600080fd5b600860003373ffffffffffffffffffffffffffffffffffffffff1673ffffffffffffffffffffffffffffffffffffffff16815260200190815260200160002060009054906101000a900460ff161515156123a357600080fd5b6001600a60008373ffffffffffffffffffffffffffffffffffffffff1673ffffffffffffffffffffffffffffffffffffffff16815260200190815260200160002060006101000a81548160ff021916908315150217905550600b805480600101828161240f91906124a2565b9160005260206000209001600083909190916101000a81548173ffffffffffffffffffffffffffffffffffffffff021916908373ffffffffffffffffffffffffffffffffffffffff160217905550506001600c60006101000a81548160ff02191690831515021790555050565b600260009054906101000a900473ffffffffffffffffffffffffffffffffffffffff1681565b8154818355818115116124c9578183600052602060002091820191016124c891906125f2565b5b505050565b602060405190810160405280600081525090565b81548183558181151161250f5760030281600302836000526020600020918201910161250e9190612617565b5b505050565b81548183558181151161253b5781836000526020600020918201910161253a919061266d565b5b505050565b81548183558181151161256d5760060281600602836000526020600020918201910161256c9190612694565b5b505050565b828054600181600116156101000203166002900490600052602060002090601f016020900481019282601f106125b357805160ff19168380011785556125e1565b828001600101855582156125e1579182015b828111156125e05782518255916020019190600101906125c5565b5b5090506125ee91906125f2565b5090565b61261491905b808211156126105760008160009055506001016125f8565b5090565b90565b61266a91905b8082111561266657600080820160006101000a81549073ffffffffffffffffffffffffffffffffffffffff0219169055600182016000905560028201600090555060030161261d565b5090565b90565b61269191905b8082111561268d5760008082016000905550600101612673565b5090565b90565b61272391905b8082111561271f57600080820160006101000a81549073ffffffffffffffffffffffffffffffffffffffff02191690556001820160006126da9190612726565b6002820160006101000a81549060ff021916905560038201600090556004820160006127069190612726565b6005820160006127169190612726565b5060060161269a565b5090565b90565b50805460018160011615610100020316600290046000825580601f1061274c575061276b565b601f01602090049060005260206000209081019061276a91906125f2565b5b505600a165627a7a72305820b52fd0a2cd5597a06ac1d7b9a0009d6e5bfce0bf4e8b592c9f68dc8785d81ffd0029a165627a7a72305820bb74a9a90dbfce34211850c6396f85ef6b9e6f7eb00a87d0c6fc64f27cccd3cb0029",
  "source": "pragma solidity ^0.4.18;\n\nimport \"./pki/PoolKey.sol\";\nimport \"./SmartKey.sol\";\n\ncontract SmartPoolKey is Administered\n{\n    SmartKey smartKey;\n    address vault;\n    mapping (address => PoolKey) public  smartPoolKeys;\n    \n    function SmartPoolKey(SmartKey _smartKey, address[] adminAddress) \n    Administered(adminAddress)\n    public\n    {\n    \n        smartKey=_smartKey;\n        vault=adminAddress[0];\n    }\n    \n    function setVault(address _vault) \n    onlyAdmin \n    public\n    returns (bool) {\n        vault=_vault;\n        return true;                \n    }\n    \n    function getSmartPoolKey(address beneficiary) \n    view\n    public\n    returns (address) \n    {\n        return smartPoolKeys[beneficiary];\n    }\n    \n    function addSmartPoolKey(address beneficiary, uint max_contrib, uint max_per_contrib, uint min_per_contrib, address[] admins, address[] whitelist, uint fee) \n    public\n    returns (address)\n    {\n        require(beneficiary != 0x0);\n        PoolKey key;\n        if (smartPoolKeys[beneficiary] == address(0)) \n        {\n            key = new PoolKey(vault, beneficiary, max_contrib, max_per_contrib, min_per_contrib, admins, whitelist, fee);    \n            smartPoolKeys[beneficiary]=key;\n        }\n        else \n        {\n            key = smartPoolKeys[beneficiary];\n        }\n        return key;\n    }\n    \n}\n",
  "sourcePath": "/home/richard/iotblock/contracts/SmartPoolKey.sol",
  "compiler": {
    "name": "solc",
    "version": "0.4.19+commit.c4cbbb05.Emscripten.clang"
  },
  "schemaVersion": "2.0.0",
  "updatedAt": "2018-03-16T10:48:48.885Z"
}