{
  "contractName": "SmartPoolKey",
  "abi": [
    {
      "constant": true,
      "inputs": [
        {
          "name": "",
          "type": "uint256"
        }
      ],
      "name": "admins",
      "outputs": [
        {
          "name": "",
          "type": "address"
        }
      ],
      "payable": false,
      "stateMutability": "view",
      "type": "function"
    },
    {
      "constant": true,
      "inputs": [
        {
          "name": "",
          "type": "address"
        }
      ],
      "name": "isAdmin",
      "outputs": [
        {
          "name": "",
          "type": "bool"
        }
      ],
      "payable": false,
      "stateMutability": "view",
      "type": "function"
    },
    {
      "constant": true,
      "inputs": [],
      "name": "getAdmins",
      "outputs": [
        {
          "name": "",
          "type": "address[]"
        }
      ],
      "payable": false,
      "stateMutability": "view",
      "type": "function"
    },
    {
      "constant": true,
      "inputs": [
        {
          "name": "",
          "type": "address"
        }
      ],
      "name": "smartPoolKeys",
      "outputs": [
        {
          "name": "",
          "type": "address"
        }
      ],
      "payable": false,
      "stateMutability": "view",
      "type": "function"
    },
    {
      "constant": false,
      "inputs": [
        {
          "name": "admin",
          "type": "address"
        }
      ],
      "name": "addAdmin",
      "outputs": [],
      "payable": false,
      "stateMutability": "nonpayable",
      "type": "function"
    },
    {
      "constant": true,
      "inputs": [
        {
          "name": "",
          "type": "address"
        }
      ],
      "name": "isBanned",
      "outputs": [
        {
          "name": "",
          "type": "bool"
        }
      ],
      "payable": false,
      "stateMutability": "view",
      "type": "function"
    },
    {
      "constant": false,
      "inputs": [
        {
          "name": "banned",
          "type": "address"
        }
      ],
      "name": "addBanned",
      "outputs": [],
      "payable": false,
      "stateMutability": "nonpayable",
      "type": "function"
    },
    {
      "inputs": [
        {
          "name": "_smartKey",
          "type": "address"
        },
        {
          "name": "adminAddress",
          "type": "address[]"
        }
      ],
      "payable": false,
      "stateMutability": "nonpayable",
      "type": "constructor"
    },
    {
      "constant": false,
      "inputs": [
        {
          "name": "_vault",
          "type": "address"
        }
      ],
      "name": "setVault",
      "outputs": [
        {
          "name": "",
          "type": "bool"
        }
      ],
      "payable": false,
      "stateMutability": "nonpayable",
      "type": "function"
    },
    {
      "constant": true,
      "inputs": [
        {
          "name": "beneficiary",
          "type": "address"
        }
      ],
      "name": "getSmartPoolKey",
      "outputs": [
        {
          "name": "",
          "type": "address"
        }
      ],
      "payable": false,
      "stateMutability": "view",
      "type": "function"
    },
    {
      "constant": false,
      "inputs": [
        {
          "name": "beneficiary",
          "type": "address"
        },
        {
          "name": "max_contrib",
          "type": "uint256"
        },
        {
          "name": "max_per_contrib",
          "type": "uint256"
        },
        {
          "name": "min_per_contrib",
          "type": "uint256"
        },
        {
          "name": "admins",
          "type": "address[]"
        },
        {
          "name": "_has_whitelist",
          "type": "bool"
        },
        {
          "name": "fee",
          "type": "uint256"
        }
      ],
      "name": "addSmartPoolKey",
      "outputs": [
        {
          "name": "",
          "type": "address"
        }
      ],
      "payable": false,
      "stateMutability": "nonpayable",
      "type": "function"
    }
  ],
  "bytecode": "0x6060604052341561000f57600080fd5b6040516200493038038062004930833981016040528080519060200190919080518201919050508060008090505b81518110156100c1576001600080848481518110151561005957fe5b9060200190602002015173ffffffffffffffffffffffffffffffffffffffff1673ffffffffffffffffffffffffffffffffffffffff16815260200190815260200160002060006101000a81548160ff021916908315150217905550808060010191505061003d565b81600290805190602001906100d792919061017b565b50505081600360006101000a81548173ffffffffffffffffffffffffffffffffffffffff021916908373ffffffffffffffffffffffffffffffffffffffff16021790555080600081518110151561012a57fe5b90602001906020020151600460006101000a81548173ffffffffffffffffffffffffffffffffffffffff021916908373ffffffffffffffffffffffffffffffffffffffff1602179055505050610248565b8280548282559060005260206000209081019282156101f4579160200282015b828111156101f35782518260006101000a81548173ffffffffffffffffffffffffffffffffffffffff021916908373ffffffffffffffffffffffffffffffffffffffff1602179055509160200191906001019061019b565b5b5090506102019190610205565b5090565b61024591905b8082111561024157600081816101000a81549073ffffffffffffffffffffffffffffffffffffffff02191690555060010161020b565b5090565b90565b6146d880620002586000396000f300606060405260043610620000af576000357c0100000000000000000000000000000000000000000000000000000000900463ffffffff16806314bfd6d014620000b457806324d7806c146200011a57806328d0d6ba146200016e57806331ae450b14620001ea5780633cda222114620002595780636817031b14620003445780636f857149146200039857806370480275146200041457806397f735d51462000450578063e1b2e8b314620004a4575b600080fd5b3415620000c057600080fd5b620000d86004808035906020019091905050620004e0565b604051808273ffffffffffffffffffffffffffffffffffffffff1673ffffffffffffffffffffffffffffffffffffffff16815260200191505060405180910390f35b34156200012657600080fd5b62000154600480803573ffffffffffffffffffffffffffffffffffffffff1690602001909190505062000520565b604051808215151515815260200191505060405180910390f35b34156200017a57600080fd5b620001a8600480803573ffffffffffffffffffffffffffffffffffffffff1690602001909190505062000540565b604051808273ffffffffffffffffffffffffffffffffffffffff1673ffffffffffffffffffffffffffffffffffffffff16815260200191505060405180910390f35b3415620001f657600080fd5b62000200620005a9565b6040518080602001828103825283818151815260200191508051906020019060200280838360005b838110156200024557808201518184015260208101905062000228565b505050509050019250505060405180910390f35b34156200026557600080fd5b62000302600480803573ffffffffffffffffffffffffffffffffffffffff1690602001909190803590602001909190803590602001909190803590602001909190803590602001908201803590602001908080602002602001604051908101604052809392919081815260200183836020028082843782019150505050505091908035151590602001909190803590602001909190505062000641565b604051808273ffffffffffffffffffffffffffffffffffffffff1673ffffffffffffffffffffffffffffffffffffffff16815260200191505060405180910390f35b34156200035057600080fd5b6200037e600480803573ffffffffffffffffffffffffffffffffffffffff169060200190919050506200091d565b604051808215151515815260200191505060405180910390f35b3415620003a457600080fd5b620003d2600480803573ffffffffffffffffffffffffffffffffffffffff1690602001909190505062000a1b565b604051808273ffffffffffffffffffffffffffffffffffffffff1673ffffffffffffffffffffffffffffffffffffffff16815260200191505060405180910390f35b34156200042057600080fd5b6200044e600480803573ffffffffffffffffffffffffffffffffffffffff1690602001909190505062000a4e565b005b34156200045c57600080fd5b6200048a600480803573ffffffffffffffffffffffffffffffffffffffff1690602001909190505062000c71565b604051808215151515815260200191505060405180910390f35b3415620004b057600080fd5b620004de600480803573ffffffffffffffffffffffffffffffffffffffff1690602001909190505062000c91565b005b600281815481101515620004f057fe5b90600052602060002090016000915054906101000a900473ffffffffffffffffffffffffffffffffffffffff1681565b60006020528060005260406000206000915054906101000a900460ff1681565b6000600560008373ffffffffffffffffffffffffffffffffffffffff1673ffffffffffffffffffffffffffffffffffffffff16815260200190815260200160002060009054906101000a900473ffffffffffffffffffffffffffffffffffffffff169050919050565b620005b362000e4f565b60028054806020026020016040519081016040528092919081815260200182805480156200063757602002820191906000526020600020905b8160009054906101000a900473ffffffffffffffffffffffffffffffffffffffff1673ffffffffffffffffffffffffffffffffffffffff1681526020019060010190808311620005ec575b5050505050905090565b60008060008973ffffffffffffffffffffffffffffffffffffffff16141515156200066b57600080fd5b600073ffffffffffffffffffffffffffffffffffffffff16600560008b73ffffffffffffffffffffffffffffffffffffffff1673ffffffffffffffffffffffffffffffffffffffff16815260200190815260200160002060009054906101000a900473ffffffffffffffffffffffffffffffffffffffff1673ffffffffffffffffffffffffffffffffffffffff161415620008ab57600460009054906101000a900473ffffffffffffffffffffffffffffffffffffffff16898989898989896200073462000e63565b808973ffffffffffffffffffffffffffffffffffffffff1673ffffffffffffffffffffffffffffffffffffffff1681526020018873ffffffffffffffffffffffffffffffffffffffff1673ffffffffffffffffffffffffffffffffffffffff1681526020018781526020018681526020018581526020018060200184151515158152602001838152602001828103825285818151815260200191508051906020019060200280838360005b83811015620007fc578082015181840152602081019050620007df565b505050509050019950505050505050505050604051809103906000f08015156200082557600080fd5b905080600560008b73ffffffffffffffffffffffffffffffffffffffff1673ffffffffffffffffffffffffffffffffffffffff16815260200190815260200160002060006101000a81548173ffffffffffffffffffffffffffffffffffffffff021916908373ffffffffffffffffffffffffffffffffffffffff1602179055506200090e565b600560008a73ffffffffffffffffffffffffffffffffffffffff1673ffffffffffffffffffffffffffffffffffffffff16815260200190815260200160002060009054906101000a900473ffffffffffffffffffffffffffffffffffffffff1690505b80915050979650505050505050565b60008060003373ffffffffffffffffffffffffffffffffffffffff1673ffffffffffffffffffffffffffffffffffffffff16815260200190815260200160002060009054906101000a900460ff1615156200097757600080fd5b600160003373ffffffffffffffffffffffffffffffffffffffff1673ffffffffffffffffffffffffffffffffffffffff16815260200190815260200160002060009054906101000a900460ff16151515620009d157600080fd5b81600460006101000a81548173ffffffffffffffffffffffffffffffffffffffff021916908373ffffffffffffffffffffffffffffffffffffffff16021790555060019050919050565b60056020528060005260406000206000915054906101000a900473ffffffffffffffffffffffffffffffffffffffff1681565b6000803373ffffffffffffffffffffffffffffffffffffffff1673ffffffffffffffffffffffffffffffffffffffff16815260200190815260200160002060009054906101000a900460ff16151562000aa657600080fd5b600160003373ffffffffffffffffffffffffffffffffffffffff1673ffffffffffffffffffffffffffffffffffffffff16815260200190815260200160002060009054906101000a900460ff1615151562000b0057600080fd5b6000803373ffffffffffffffffffffffffffffffffffffffff1673ffffffffffffffffffffffffffffffffffffffff16815260200190815260200160002060009054906101000a900460ff16151562000b5857600080fd5b600160003373ffffffffffffffffffffffffffffffffffffffff1673ffffffffffffffffffffffffffffffffffffffff16815260200190815260200160002060009054906101000a900460ff1615151562000bb257600080fd5b60016000808373ffffffffffffffffffffffffffffffffffffffff1673ffffffffffffffffffffffffffffffffffffffff16815260200190815260200160002060006101000a81548160ff0219169083151502179055506002805480600101828162000c1f919062000e74565b9160005260206000209001600083909190916101000a81548173ffffffffffffffffffffffffffffffffffffffff021916908373ffffffffffffffffffffffffffffffffffffffff1602179055505050565b60016020528060005260406000206000915054906101000a900460ff1681565b6000803373ffffffffffffffffffffffffffffffffffffffff1673ffffffffffffffffffffffffffffffffffffffff16815260200190815260200160002060009054906101000a900460ff16151562000ce957600080fd5b600160003373ffffffffffffffffffffffffffffffffffffffff1673ffffffffffffffffffffffffffffffffffffffff16815260200190815260200160002060009054906101000a900460ff1615151562000d4357600080fd5b6000803373ffffffffffffffffffffffffffffffffffffffff1673ffffffffffffffffffffffffffffffffffffffff16815260200190815260200160002060009054906101000a900460ff16151562000d9b57600080fd5b600160003373ffffffffffffffffffffffffffffffffffffffff1673ffffffffffffffffffffffffffffffffffffffff16815260200190815260200160002060009054906101000a900460ff1615151562000df557600080fd5b60018060008373ffffffffffffffffffffffffffffffffffffffff1673ffffffffffffffffffffffffffffffffffffffff16815260200190815260200160002060006101000a81548160ff02191690831515021790555050565b602060405190810160405280600081525090565b6040516137e18062000ecc83390190565b81548183558181151162000e9e5781836000526020600020918201910162000e9d919062000ea3565b5b505050565b62000ec891905b8082111562000ec457600081600090555060010162000eaa565b5090565b905600606060405234156200001057600080fd5b604051620037e1380380620037e1833981016040528080519060200190919080519060200190919080519060200190919080519060200190919080519060200190919080518201919060200180519060200190919080519060200190919050506000838460008260008c336000806101000a81548173ffffffffffffffffffffffffffffffffffffffff021916908373ffffffffffffffffffffffffffffffffffffffff16021790555060008173ffffffffffffffffffffffffffffffffffffffff1614151515620000e157600080fd5b80600260006101000a81548173ffffffffffffffffffffffffffffffffffffffff021916908373ffffffffffffffffffffffffffffffffffffffff1602179055506000600260146101000a81548160ff021916908360028111156200014257fe5b0217905550600260009054906101000a900473ffffffffffffffffffffffffffffffffffffffff1673ffffffffffffffffffffffffffffffffffffffff163373ffffffffffffffffffffffffffffffffffffffff167fae6905ed683ee316aa72cda27d03945d8f93ec0f2a213d899497c705cdbce4da600260149054906101000a900460ff1660405180826002811115620001d957fe5b60ff16815260200191505060405180910390a350600090505b81518110156200027a5760016007600084848151811015156200021157fe5b9060200190602002015173ffffffffffffffffffffffffffffffffffffffff1673ffffffffffffffffffffffffffffffffffffffff16815260200190815260200160002060006101000a81548160ff0219169083151502179055508080600101915050620001f2565b816009908051906020019062000292929190620004ae565b5050506000825111156200036757600090505b81518110156200032d576001600a60008484815181101515620002c457fe5b9060200190602002015173ffffffffffffffffffffffffffffffffffffffff1673ffffffffffffffffffffffffffffffffffffffff16815260200190815260200160002060006101000a81548160ff0219169083151502179055508080600101915050620002a5565b81600b908051906020019062000345929190620004ae565b506001600c60006101000a81548160ff02191690831515021790555062000383565b6000600c60006101000a81548160ff0219169083151502179055505b50505088601060006101000a81548173ffffffffffffffffffffffffffffffffffffffff021916908373ffffffffffffffffffffffffffffffffffffffff16021790555081601681905550866013819055508560148190555084601581905550600060128190555082600c60016101000a81548160ff021916908315150217905550600090505b83518110156200049f57600d80548060010182816200042a91906200053d565b9160005260206000209001600086848151811015156200044657fe5b90602001906020020151909190916101000a81548173ffffffffffffffffffffffffffffffffffffffff021916908373ffffffffffffffffffffffffffffffffffffffff1602179055505080806001019150506200040a565b505050505050505050620005da565b8280548282559060005260206000209081019282156200052a579160200282015b82811115620005295782518260006101000a81548173ffffffffffffffffffffffffffffffffffffffff021916908373ffffffffffffffffffffffffffffffffffffffff16021790555091602001919060010190620004cf565b5b5090506200053991906200056c565b5090565b8154818355818115116200056757818360005260206000209182019101620005669190620005b2565b5b505050565b620005af91905b80821115620005ab57600081816101000a81549073ffffffffffffffffffffffffffffffffffffffff02191690555060010162000573565b5090565b90565b620005d791905b80821115620005d3576000816000905550600101620005b9565b5090565b90565b6131f780620005ea6000396000f3006060604052600436106101c2576000357c0100000000000000000000000000000000000000000000000000000000900463ffffffff1680630c8a6f1a14610ccf5780631453812814610cf857806314bfd6d014610d88578063202e079d14610deb57806324d7806c14610e1457806331ae450b14610e6557806338af3eed14610ecf5780633af32abf14610f245780634b47002c14610f755780635b6beeb914610fca5780635daf08ca1461104357806361c1350d146110a65780636db59df8146110e65780637012e30a1461111d578063704802751461122c578063779d8677146112655780637ebd1b30146112b25780638da5cb5b1461131557806390fa5ec81461136a5780639172fe081461139357806397f735d5146113c15780639eab5253146114125780639ebd36f31461147c578063a1f811ef14611694578063a230c524146116cb578063af92c18114611718578063b764e53e1461172d578063c19d93fb14611756578063cb75b9971461178d578063d01f63f5146117fe578063ddca3f4314611868578063df0cb93414611891578063e1b2e8b3146118de578063f2fde38b14611917578063f80f5dd514611950578063fbfa77cf14611989575b600080600080600034945060155485101580156102205750601454600e60003373ffffffffffffffffffffffffffffffffffffffff1673ffffffffffffffffffffffffffffffffffffffff1681526020019081526020016000205411155b15610cc857600c60019054906101000a900460ff16158061028a5750600a60003373ffffffffffffffffffffffffffffffffffffffff1673ffffffffffffffffffffffffffffffffffffffff16815260200190815260200160002060009054906101000a900460ff165b15610cc7576102a360c8866119de90919063ffffffff16565b93506102ba601654866119de90919063ffffffff16565b92506102e1836102d386886119f990919063ffffffff16565b6119f990919063ffffffff16565b91506102fb600d80549050836119de90919063ffffffff16565b9150601060009054906101000a900473ffffffffffffffffffffffffffffffffffffffff1673ffffffffffffffffffffffffffffffffffffffff166108fc859081150290604051600060405180830381858888f19350505050151561035f57600080fd5b600260009054906101000a900473ffffffffffffffffffffffffffffffffffffffff1673ffffffffffffffffffffffffffffffffffffffff166108fc849081150290604051600060405180830381858888f1935050505015156103c157600080fd5b61043584600f6000601060009054906101000a900473ffffffffffffffffffffffffffffffffffffffff1673ffffffffffffffffffffffffffffffffffffffff1673ffffffffffffffffffffffffffffffffffffffff16815260200190815260200160002054611a1290919063ffffffff16565b600f6000601060009054906101000a900473ffffffffffffffffffffffffffffffffffffffff1673ffffffffffffffffffffffffffffffffffffffff1673ffffffffffffffffffffffffffffffffffffffff1681526020019081526020016000208190555061050e83600f6000600260009054906101000a900473ffffffffffffffffffffffffffffffffffffffff1673ffffffffffffffffffffffffffffffffffffffff1673ffffffffffffffffffffffffffffffffffffffff16815260200190815260200160002054611a1290919063ffffffff16565b600f6000600260009054906101000a900473ffffffffffffffffffffffffffffffffffffffff1673ffffffffffffffffffffffffffffffffffffffff1673ffffffffffffffffffffffffffffffffffffffff1681526020019081526020016000208190555060176000601060009054906101000a900473ffffffffffffffffffffffffffffffffffffffff1673ffffffffffffffffffffffffffffffffffffffff1673ffffffffffffffffffffffffffffffffffffffff16815260200190815260200160002080548060010182816105e69190612e77565b916000526020600020906003020160006060604051908101604052803373ffffffffffffffffffffffffffffffffffffffff16815260200142815260200188815250909190915060008201518160000160006101000a81548173ffffffffffffffffffffffffffffffffffffffff021916908373ffffffffffffffffffffffffffffffffffffffff160217905550602082015181600101556040820151816002015550505060176000600260009054906101000a900473ffffffffffffffffffffffffffffffffffffffff1673ffffffffffffffffffffffffffffffffffffffff1673ffffffffffffffffffffffffffffffffffffffff16815260200190815260200160002080548060010182816106fe9190612e77565b916000526020600020906003020160006060604051908101604052803373ffffffffffffffffffffffffffffffffffffffff16815260200142815260200187815250909190915060008201518160000160006101000a81548173ffffffffffffffffffffffffffffffffffffffff021916908373ffffffffffffffffffffffffffffffffffffffff16021790555060208201518160010155604082015181600201555050506107f585600e60003373ffffffffffffffffffffffffffffffffffffffff1673ffffffffffffffffffffffffffffffffffffffff16815260200190815260200160002054611a1290919063ffffffff16565b600e60003373ffffffffffffffffffffffffffffffffffffffff1673ffffffffffffffffffffffffffffffffffffffff1681526020019081526020016000208190555061084d85601254611a1290919063ffffffff16565b601281905550600090505b600d80549050811015610b2557600d8181548110151561087457fe5b906000526020600020900160009054906101000a900473ffffffffffffffffffffffffffffffffffffffff1673ffffffffffffffffffffffffffffffffffffffff166108fc839081150290604051600060405180830381858888f1935050505015156108df57600080fd5b61096b82600f6000600d858154811015156108f657fe5b906000526020600020900160009054906101000a900473ffffffffffffffffffffffffffffffffffffffff1673ffffffffffffffffffffffffffffffffffffffff1673ffffffffffffffffffffffffffffffffffffffff16815260200190815260200160002054611a1290919063ffffffff16565b600f6000600d8481548110151561097e57fe5b906000526020600020900160009054906101000a900473ffffffffffffffffffffffffffffffffffffffff1673ffffffffffffffffffffffffffffffffffffffff1673ffffffffffffffffffffffffffffffffffffffff1681526020019081526020016000208190555060176000600d838154811015156109fb57fe5b906000526020600020900160009054906101000a900473ffffffffffffffffffffffffffffffffffffffff1673ffffffffffffffffffffffffffffffffffffffff1673ffffffffffffffffffffffffffffffffffffffff1681526020019081526020016000208054806001018281610a739190612e77565b916000526020600020906003020160006060604051908101604052803373ffffffffffffffffffffffffffffffffffffffff16815260200142815260200186815250909190915060008201518160000160006101000a81548173ffffffffffffffffffffffffffffffffffffffff021916908373ffffffffffffffffffffffffffffffffffffffff16021790555060208201518160010155604082015181600201555050508080600101915050610858565b84600e60003373ffffffffffffffffffffffffffffffffffffffff1673ffffffffffffffffffffffffffffffffffffffff168152602001908152602001600020541415610bd057600d8054806001018281610b809190612ea9565b9160005260206000209001600033909190916101000a81548173ffffffffffffffffffffffffffffffffffffffff021916908373ffffffffffffffffffffffffffffffffffffffff160217905550505b601760003373ffffffffffffffffffffffffffffffffffffffff1673ffffffffffffffffffffffffffffffffffffffff1681526020019081526020016000208054806001018281610c219190612e77565b916000526020600020906003020160006060604051908101604052803373ffffffffffffffffffffffffffffffffffffffff16815260200142815260200189815250909190915060008201518160000160006101000a81548173ffffffffffffffffffffffffffffffffffffffff021916908373ffffffffffffffffffffffffffffffffffffffff16021790555060208201518160010155604082015181600201555050505b5b5050505050005b3415610cda57600080fd5b610ce2611a30565b6040518082815260200191505060405180910390f35b3415610d0357600080fd5b610d38600480803573ffffffffffffffffffffffffffffffffffffffff16906020019091908035906020019091905050611a36565b604051808473ffffffffffffffffffffffffffffffffffffffff1673ffffffffffffffffffffffffffffffffffffffff168152602001838152602001828152602001935050505060405180910390f35b3415610d9357600080fd5b610da96004808035906020019091905050611a9c565b604051808273ffffffffffffffffffffffffffffffffffffffff1673ffffffffffffffffffffffffffffffffffffffff16815260200191505060405180910390f35b3415610df657600080fd5b610dfe611adb565b6040518082815260200191505060405180910390f35b3415610e1f57600080fd5b610e4b600480803573ffffffffffffffffffffffffffffffffffffffff16906020019091905050611ae1565b604051808215151515815260200191505060405180910390f35b3415610e7057600080fd5b610e78611b01565b6040518080602001828103825283818151815260200191508051906020019060200280838360005b83811015610ebb578082015181840152602081019050610ea0565b505050509050019250505060405180910390f35b3415610eda57600080fd5b610ee2611b95565b604051808273ffffffffffffffffffffffffffffffffffffffff1673ffffffffffffffffffffffffffffffffffffffff16815260200191505060405180910390f35b3415610f2f57600080fd5b610f5b600480803573ffffffffffffffffffffffffffffffffffffffff16906020019091905050611bbb565b604051808215151515815260200191505060405180910390f35b3415610f8057600080fd5b610f88611bdb565b604051808273ffffffffffffffffffffffffffffffffffffffff1673ffffffffffffffffffffffffffffffffffffffff16815260200191505060405180910390f35b3415610fd557600080fd5b611025600480803590602001908201803590602001908080601f01602080910402602001604051908101604052809392919081815260200183838082843782019150505050505091905050611c01565b60405180826000191660001916815260200191505060405180910390f35b341561104e57600080fd5b6110646004808035906020019091905050611c6d565b604051808273ffffffffffffffffffffffffffffffffffffffff1673ffffffffffffffffffffffffffffffffffffffff16815260200191505060405180910390f35b34156110b157600080fd5b6110d06004808035906020019091908035906020019091905050611cac565b6040518082815260200191505060405180910390f35b34156110f157600080fd5b6111076004808035906020019091905050611d90565b6040518082815260200191505060405180910390f35b341561112857600080fd5b611216600480803590602001908201803590602001908080601f0160208091040260200160405190810160405280939291908181526020018383808284378201915050505050509190803515159060200190919080356000191690602001909190803590602001908201803590602001908080601f0160208091040260200160405190810160405280939291908181526020018383808284378201915050505050509190803590602001908201803590602001908080601f01602080910402602001604051908101604052809392919081815260200183838082843782019150505050505091905050611e77565b6040518082815260200191505060405180910390f35b341561123757600080fd5b611263600480803573ffffffffffffffffffffffffffffffffffffffff1690602001909190505061210f565b005b341561127057600080fd5b61129c600480803573ffffffffffffffffffffffffffffffffffffffff1690602001909190505061232f565b6040518082815260200191505060405180910390f35b34156112bd57600080fd5b6112d36004808035906020019091905050612347565b604051808273ffffffffffffffffffffffffffffffffffffffff1673ffffffffffffffffffffffffffffffffffffffff16815260200191505060405180910390f35b341561132057600080fd5b611328612386565b604051808273ffffffffffffffffffffffffffffffffffffffff1673ffffffffffffffffffffffffffffffffffffffff16815260200191505060405180910390f35b341561137557600080fd5b61137d6123ab565b6040518082815260200191505060405180910390f35b6113bf600480803573ffffffffffffffffffffffffffffffffffffffff169060200190919050506123b1565b005b34156113cc57600080fd5b6113f8600480803573ffffffffffffffffffffffffffffffffffffffff169060200190919050506125ce565b604051808215151515815260200191505060405180910390f35b341561141d57600080fd5b6114256125ee565b6040518080602001828103825283818151815260200191508051906020019060200280838360005b8381101561146857808201518184015260208101905061144d565b505050509050019250505060405180910390f35b341561148757600080fd5b61149d6004808035906020019091905050612682565b604051808773ffffffffffffffffffffffffffffffffffffffff1673ffffffffffffffffffffffffffffffffffffffff1681526020018060200186151515158152602001856000191660001916815260200180602001806020018481038452898181546001816001161561010002031660029004815260200191508054600181600116156101000203166002900480156115785780601f1061154d57610100808354040283529160200191611578565b820191906000526020600020905b81548152906001019060200180831161155b57829003601f168201915b50508481038352868181546001816001161561010002031660029004815260200191508054600181600116156101000203166002900480156115fb5780601f106115d0576101008083540402835291602001916115fb565b820191906000526020600020905b8154815290600101906020018083116115de57829003601f168201915b505084810382528581815460018160011615610100020316600290048152602001915080546001816001161561010002031660029004801561167e5780601f106116535761010080835404028352916020019161167e565b820191906000526020600020905b81548152906001019060200180831161166157829003601f168201915b5050995050505050505050505060405180910390f35b341561169f57600080fd5b6116b560048080359060200190919050506126f7565b6040518082815260200191505060405180910390f35b34156116d657600080fd5b611702600480803573ffffffffffffffffffffffffffffffffffffffff16906020019091905050612721565b6040518082815260200191505060405180910390f35b341561172357600080fd5b61172b612739565b005b341561173857600080fd5b611740612891565b6040518082815260200191505060405180910390f35b341561176157600080fd5b611769612897565b6040518082600281111561177957fe5b60ff16815260200191505060405180910390f35b341561179857600080fd5b6117ae60048080359060200190919050506128aa565b604051808473ffffffffffffffffffffffffffffffffffffffff1673ffffffffffffffffffffffffffffffffffffffff168152602001838152602001828152602001935050505060405180910390f35b341561180957600080fd5b611811612903565b6040518080602001828103825283818151815260200191508051906020019060200280838360005b83811015611854578082015181840152602081019050611839565b505050509050019250505060405180910390f35b341561187357600080fd5b61187b612997565b6040518082815260200191505060405180910390f35b341561189c57600080fd5b6118c8600480803573ffffffffffffffffffffffffffffffffffffffff1690602001909190505061299d565b6040518082815260200191505060405180910390f35b34156118e957600080fd5b611915600480803573ffffffffffffffffffffffffffffffffffffffff169060200190919050506129b5565b005b341561192257600080fd5b61194e600480803573ffffffffffffffffffffffffffffffffffffffff16906020019091905050612b72565b005b341561195b57600080fd5b611987600480803573ffffffffffffffffffffffffffffffffffffffff16906020019091905050612cc7565b005b341561199457600080fd5b61199c612e51565b604051808273ffffffffffffffffffffffffffffffffffffffff1673ffffffffffffffffffffffffffffffffffffffff16815260200191505060405180910390f35b60008082848115156119ec57fe5b0490508091505092915050565b6000828211151515611a0757fe5b818303905092915050565b6000808284019050838110151515611a2657fe5b8091505092915050565b60155481565b601760205281600052604060002081815481101515611a5157fe5b9060005260206000209060030201600091509150508060000160009054906101000a900473ffffffffffffffffffffffffffffffffffffffff16908060010154908060020154905083565b600981815481101515611aab57fe5b90600052602060002090016000915054906101000a900473ffffffffffffffffffffffffffffffffffffffff1681565b60125481565b60076020528060005260406000206000915054906101000a900460ff1681565b611b09612ed5565b6009805480602002602001604051908101604052809291908181526020018280548015611b8b57602002820191906000526020600020905b8160009054906101000a900473ffffffffffffffffffffffffffffffffffffffff1673ffffffffffffffffffffffffffffffffffffffff1681526020019060010190808311611b41575b5050505050905090565b601160009054906101000a900473ffffffffffffffffffffffffffffffffffffffff1681565b600a6020528060005260406000206000915054906101000a900460ff1681565b601060009054906101000a900473ffffffffffffffffffffffffffffffffffffffff1681565b6000816040518082805190602001908083835b602083101515611c395780518252602082019150602081019050602083039250611c14565b6001836020036101000a03801982511681845116808217855250505050505090500191505060405180910390209050919050565b600d81815481101515611c7c57fe5b90600052602060002090016000915054906101000a900473ffffffffffffffffffffffffffffffffffffffff1681565b60008060048054809190600101611cc39190612ee9565b9150600482815481101515611cd457fe5b90600052602060002090600302019050338160000160006101000a81548173ffffffffffffffffffffffffffffffffffffffff021916908373ffffffffffffffffffffffffffffffffffffffff160217905550838160010181905550828160020181905550833373ffffffffffffffffffffffffffffffffffffffff16837fabae455af5f2271c2159ed49e8728304bebc0f408ac8c99f47718c5cd5883c74866040518082815260200191505060405180910390a45092915050565b6000803373ffffffffffffffffffffffffffffffffffffffff16600484815481101515611db957fe5b906000526020600020906003020160000160009054906101000a900473ffffffffffffffffffffffffffffffffffffffff1673ffffffffffffffffffffffffffffffffffffffff161415611e715760058054809190600101611e1b9190612f1b565b9150600582815481101515611e2c57fe5b9060005260206000209001905082816000018190555082827f2b8a481e89dc06ea8474e349f239119eeb28ade85f513c4dc565232864d2c40360405160405180910390a35b50919050565b60008060038054809190600101611e8e9190612f47565b9150600382815481101515611e9f57fe5b90600052602060002090600602019050338160000160006101000a81548173ffffffffffffffffffffffffffffffffffffffff021916908373ffffffffffffffffffffffffffffffffffffffff16021790555086816001019080519060200190611f0a929190612f79565b50858160020160006101000a81548160ff0219169083151502179055508481600301816000191690555083816004019080519060200190611f4c929190612f79565b5082816005019080519060200190611f65929190612f79565b5084600019163373ffffffffffffffffffffffffffffffffffffffff16837f377af03f7a20e598b24a0310bdbaa1734bf6b783731c6439efae85be4cbbba7b8a8a89896040518080602001851515151581526020018060200180602001848103845288818151815260200191508051906020019080838360005b83811015611ffa578082015181840152602081019050611fdf565b50505050905090810190601f1680156120275780820380516001836020036101000a031916815260200191505b50848103835286818151815260200191508051906020019080838360005b83811015612060578082015181840152602081019050612045565b50505050905090810190601f16801561208d5780820380516001836020036101000a031916815260200191505b50848103825285818151815260200191508051906020019080838360005b838110156120c65780820151818401526020810190506120ab565b50505050905090810190601f1680156120f35780820380516001836020036101000a031916815260200191505b5097505050505050505060405180910390a45095945050505050565b600760003373ffffffffffffffffffffffffffffffffffffffff1673ffffffffffffffffffffffffffffffffffffffff16815260200190815260200160002060009054906101000a900460ff16151561216757600080fd5b600860003373ffffffffffffffffffffffffffffffffffffffff1673ffffffffffffffffffffffffffffffffffffffff16815260200190815260200160002060009054906101000a900460ff161515156121c057600080fd5b600760003373ffffffffffffffffffffffffffffffffffffffff1673ffffffffffffffffffffffffffffffffffffffff16815260200190815260200160002060009054906101000a900460ff16151561221857600080fd5b600860003373ffffffffffffffffffffffffffffffffffffffff1673ffffffffffffffffffffffffffffffffffffffff16815260200190815260200160002060009054906101000a900460ff1615151561227157600080fd5b6001600760008373ffffffffffffffffffffffffffffffffffffffff1673ffffffffffffffffffffffffffffffffffffffff16815260200190815260200160002060006101000a81548160ff021916908315150217905550600980548060010182816122dd9190612ea9565b9160005260206000209001600083909190916101000a81548173ffffffffffffffffffffffffffffffffffffffff021916908373ffffffffffffffffffffffffffffffffffffffff1602179055505050565b60016020528060005260406000206000915090505481565b600b8181548110151561235657fe5b90600052602060002090016000915054906101000a900473ffffffffffffffffffffffffffffffffffffffff1681565b6000809054906101000a900473ffffffffffffffffffffffffffffffffffffffff1681565b60145481565b6000809054906101000a900473ffffffffffffffffffffffffffffffffffffffff1673ffffffffffffffffffffffffffffffffffffffff163373ffffffffffffffffffffffffffffffffffffffff1614151561240c57600080fd5b6001600260146101000a81548160ff0219169083600281111561242b57fe5b0217905550600260009054906101000a900473ffffffffffffffffffffffffffffffffffffffff1673ffffffffffffffffffffffffffffffffffffffff166108fc349081150290604051600060405180830381858888f19350505050151561249257600080fd5b6124e434600160008473ffffffffffffffffffffffffffffffffffffffff1673ffffffffffffffffffffffffffffffffffffffff16815260200190815260200160002054611a1290919063ffffffff16565b600160008373ffffffffffffffffffffffffffffffffffffffff1673ffffffffffffffffffffffffffffffffffffffff16815260200190815260200160002081905550600260009054906101000a900473ffffffffffffffffffffffffffffffffffffffff1673ffffffffffffffffffffffffffffffffffffffff163373ffffffffffffffffffffffffffffffffffffffff167fae6905ed683ee316aa72cda27d03945d8f93ec0f2a213d899497c705cdbce4da600260149054906101000a900460ff16604051808260028111156125b857fe5b60ff16815260200191505060405180910390a350565b60086020528060005260406000206000915054906101000a900460ff1681565b6125f6612ed5565b600d80548060200260200160405190810160405280929190818152602001828054801561267857602002820191906000526020600020905b8160009054906101000a900473ffffffffffffffffffffffffffffffffffffffff1673ffffffffffffffffffffffffffffffffffffffff168152602001906001019080831161262e575b5050505050905090565b60038181548110151561269157fe5b90600052602060002090600602016000915090508060000160009054906101000a900473ffffffffffffffffffffffffffffffffffffffff169080600101908060020160009054906101000a900460ff1690806003015490806004019080600501905086565b60058181548110151561270657fe5b90600052602060002090016000915090508060000154905081565b600e6020528060005260406000206000915090505481565b6000809054906101000a900473ffffffffffffffffffffffffffffffffffffffff1673ffffffffffffffffffffffffffffffffffffffff163373ffffffffffffffffffffffffffffffffffffffff1614151561279457600080fd5b600160028111156127a157fe5b600260149054906101000a900460ff1660028111156127bc57fe5b1415156127c857600080fd5b60028060146101000a81548160ff021916908360028111156127e657fe5b0217905550600260009054906101000a900473ffffffffffffffffffffffffffffffffffffffff1673ffffffffffffffffffffffffffffffffffffffff163373ffffffffffffffffffffffffffffffffffffffff167fae6905ed683ee316aa72cda27d03945d8f93ec0f2a213d899497c705cdbce4da600260149054906101000a900460ff166040518082600281111561287c57fe5b60ff16815260200191505060405180910390a3565b60135481565b600260149054906101000a900460ff1681565b6004818154811015156128b957fe5b90600052602060002090600302016000915090508060000160009054906101000a900473ffffffffffffffffffffffffffffffffffffffff16908060010154908060020154905083565b61290b612ed5565b600b80548060200260200160405190810160405280929190818152602001828054801561298d57602002820191906000526020600020905b8160009054906101000a900473ffffffffffffffffffffffffffffffffffffffff1673ffffffffffffffffffffffffffffffffffffffff1681526020019060010190808311612943575b5050505050905090565b60165481565b600f6020528060005260406000206000915090505481565b600760003373ffffffffffffffffffffffffffffffffffffffff1673ffffffffffffffffffffffffffffffffffffffff16815260200190815260200160002060009054906101000a900460ff161515612a0d57600080fd5b600860003373ffffffffffffffffffffffffffffffffffffffff1673ffffffffffffffffffffffffffffffffffffffff16815260200190815260200160002060009054906101000a900460ff16151515612a6657600080fd5b600760003373ffffffffffffffffffffffffffffffffffffffff1673ffffffffffffffffffffffffffffffffffffffff16815260200190815260200160002060009054906101000a900460ff161515612abe57600080fd5b600860003373ffffffffffffffffffffffffffffffffffffffff1673ffffffffffffffffffffffffffffffffffffffff16815260200190815260200160002060009054906101000a900460ff16151515612b1757600080fd5b6001600860008373ffffffffffffffffffffffffffffffffffffffff1673ffffffffffffffffffffffffffffffffffffffff16815260200190815260200160002060006101000a81548160ff02191690831515021790555050565b6000809054906101000a900473ffffffffffffffffffffffffffffffffffffffff1673ffffffffffffffffffffffffffffffffffffffff163373ffffffffffffffffffffffffffffffffffffffff16141515612bcd57600080fd5b600073ffffffffffffffffffffffffffffffffffffffff168173ffffffffffffffffffffffffffffffffffffffff1614151515612c0957600080fd5b8073ffffffffffffffffffffffffffffffffffffffff166000809054906101000a900473ffffffffffffffffffffffffffffffffffffffff1673ffffffffffffffffffffffffffffffffffffffff167f8be0079c531659141344cd1fd0a4f28419497f9722a3daafe3b4186f6b6457e060405160405180910390a3806000806101000a81548173ffffffffffffffffffffffffffffffffffffffff021916908373ffffffffffffffffffffffffffffffffffffffff16021790555050565b600760003373ffffffffffffffffffffffffffffffffffffffff1673ffffffffffffffffffffffffffffffffffffffff16815260200190815260200160002060009054906101000a900460ff161515612d1f57600080fd5b600860003373ffffffffffffffffffffffffffffffffffffffff1673ffffffffffffffffffffffffffffffffffffffff16815260200190815260200160002060009054906101000a900460ff16151515612d7857600080fd5b6001600a60008373ffffffffffffffffffffffffffffffffffffffff1673ffffffffffffffffffffffffffffffffffffffff16815260200190815260200160002060006101000a81548160ff021916908315150217905550600b8054806001018281612de49190612ea9565b9160005260206000209001600083909190916101000a81548173ffffffffffffffffffffffffffffffffffffffff021916908373ffffffffffffffffffffffffffffffffffffffff160217905550506001600c60006101000a81548160ff02191690831515021790555050565b600260009054906101000a900473ffffffffffffffffffffffffffffffffffffffff1681565b815481835581811511612ea457600302816003028360005260206000209182019101612ea39190612ff9565b5b505050565b815481835581811511612ed057818360005260206000209182019101612ecf919061304f565b5b505050565b602060405190810160405280600081525090565b815481835581811511612f1657600302816003028360005260206000209182019101612f159190613074565b5b505050565b815481835581811511612f4257818360005260206000209182019101612f4191906130ca565b5b505050565b815481835581811511612f7457600602816006028360005260206000209182019101612f7391906130f1565b5b505050565b828054600181600116156101000203166002900490600052602060002090601f016020900481019282601f10612fba57805160ff1916838001178555612fe8565b82800160010185558215612fe8579182015b82811115612fe7578251825591602001919060010190612fcc565b5b509050612ff5919061304f565b5090565b61304c91905b8082111561304857600080820160006101000a81549073ffffffffffffffffffffffffffffffffffffffff02191690556001820160009055600282016000905550600301612fff565b5090565b90565b61307191905b8082111561306d576000816000905550600101613055565b5090565b90565b6130c791905b808211156130c357600080820160006101000a81549073ffffffffffffffffffffffffffffffffffffffff0219169055600182016000905560028201600090555060030161307a565b5090565b90565b6130ee91905b808211156130ea57600080820160009055506001016130d0565b5090565b90565b61318091905b8082111561317c57600080820160006101000a81549073ffffffffffffffffffffffffffffffffffffffff02191690556001820160006131379190613183565b6002820160006101000a81549060ff021916905560038201600090556004820160006131639190613183565b6005820160006131739190613183565b506006016130f7565b5090565b90565b50805460018160011615610100020316600290046000825580601f106131a957506131c8565b601f0160209004906000526020600020908101906131c7919061304f565b5b505600a165627a7a72305820ecadba590c4ac180abb6224788c4d48bb70503481ca69dceb167a77d1c1c332e0029a165627a7a72305820cf410fda7a6965ca1dcdb49193703bc4ba8e77479f338a49955cb09e701a017a0029",
  "source": "pragma solidity ^0.4.18;\n\nimport \"./pki/PoolKey.sol\";\nimport \"./SmartKey.sol\";\n\ncontract SmartPoolKey is Administered\n{\n    SmartKey smartKey;\n    address vault;\n    mapping (address => PoolKey) public  smartPoolKeys;\n    \n    function SmartPoolKey(SmartKey _smartKey, address[] adminAddress) \n    Administered(adminAddress)\n    public\n    {\n    \n        smartKey=_smartKey;\n        vault=adminAddress[0];\n    }\n    \n    function setVault(address _vault) \n    onlyAdmin \n    public\n    returns (bool) {\n        vault=_vault;\n        return true;                \n    }\n    \n    function getSmartPoolKey(address beneficiary) \n    view\n    public\n    returns (address) \n    {\n        return smartPoolKeys[beneficiary];\n    }\n    \n    function addSmartPoolKey(address beneficiary, uint max_contrib, uint max_per_contrib, uint min_per_contrib, address[] admins, bool _has_whitelist, uint fee) \n    public\n    returns (address)\n    {\n        require(beneficiary != 0x0);\n        PoolKey key;\n        if (smartPoolKeys[beneficiary] == address(0)) \n        {\n            key = new PoolKey(vault, beneficiary, max_contrib, max_per_contrib, min_per_contrib, admins, _has_whitelist, fee);    \n            smartPoolKeys[beneficiary]=key;\n        }\n        else \n        {\n            key = smartPoolKeys[beneficiary];\n        }\n        return key;\n    }\n    \n}\n",
  "sourcePath": "/home/richard/iotblock/contracts/SmartPoolKey.sol",
  "compiler": {
    "name": "solc",
    "version": "0.4.19+commit.c4cbbb05.Emscripten.clang"
  },
  "schemaVersion": "2.0.0",
  "updatedAt": "2018-03-16T18:50:33.979Z"
}