{
  "contractName": "Whitelisted",
  "abi": [
    {
      "constant": true,
      "inputs": [
        {
          "name": "",
          "type": "uint256"
        }
      ],
      "name": "admins",
      "outputs": [
        {
          "name": "",
          "type": "address"
        }
      ],
      "payable": false,
      "stateMutability": "view",
      "type": "function"
    },
    {
      "constant": true,
      "inputs": [
        {
          "name": "",
          "type": "address"
        }
      ],
      "name": "isAdmin",
      "outputs": [
        {
          "name": "",
          "type": "bool"
        }
      ],
      "payable": false,
      "stateMutability": "view",
      "type": "function"
    },
    {
      "constant": true,
      "inputs": [],
      "name": "getAdmins",
      "outputs": [
        {
          "name": "",
          "type": "address[]"
        }
      ],
      "payable": false,
      "stateMutability": "view",
      "type": "function"
    },
    {
      "constant": true,
      "inputs": [
        {
          "name": "",
          "type": "address"
        }
      ],
      "name": "isWhitelisted",
      "outputs": [
        {
          "name": "",
          "type": "bool"
        }
      ],
      "payable": false,
      "stateMutability": "view",
      "type": "function"
    },
    {
      "constant": false,
      "inputs": [
        {
          "name": "admin",
          "type": "address"
        }
      ],
      "name": "addAdmin",
      "outputs": [],
      "payable": false,
      "stateMutability": "nonpayable",
      "type": "function"
    },
    {
      "constant": true,
      "inputs": [
        {
          "name": "",
          "type": "uint256"
        }
      ],
      "name": "whitelist",
      "outputs": [
        {
          "name": "",
          "type": "address"
        }
      ],
      "payable": false,
      "stateMutability": "view",
      "type": "function"
    },
    {
      "constant": true,
      "inputs": [
        {
          "name": "",
          "type": "address"
        }
      ],
      "name": "isBanned",
      "outputs": [
        {
          "name": "",
          "type": "bool"
        }
      ],
      "payable": false,
      "stateMutability": "view",
      "type": "function"
    },
    {
      "constant": false,
      "inputs": [
        {
          "name": "banned",
          "type": "address"
        }
      ],
      "name": "addBanned",
      "outputs": [],
      "payable": false,
      "stateMutability": "nonpayable",
      "type": "function"
    },
    {
      "inputs": [
        {
          "name": "adminAddress",
          "type": "address[]"
        },
        {
          "name": "whitelistAddress",
          "type": "address[]"
        }
      ],
      "payable": false,
      "stateMutability": "nonpayable",
      "type": "constructor"
    },
    {
      "constant": false,
      "inputs": [
        {
          "name": "_whitelistAddress",
          "type": "address"
        }
      ],
      "name": "addWhitelist",
      "outputs": [],
      "payable": false,
      "stateMutability": "nonpayable",
      "type": "function"
    },
    {
      "constant": true,
      "inputs": [],
      "name": "getWhitelist",
      "outputs": [
        {
          "name": "",
          "type": "address[]"
        }
      ],
      "payable": false,
      "stateMutability": "view",
      "type": "function"
    }
  ],
  "bytecode": "0x606060405234156200001057600080fd5b60405162000e9638038062000e968339810160405280805182019190602001805182019190505060008260008090505b8151811015620000c757600160008084848151811015156200005e57fe5b9060200190602002015173ffffffffffffffffffffffffffffffffffffffff1673ffffffffffffffffffffffffffffffffffffffff16815260200190815260200160002060006101000a81548160ff021916908315150217905550808060010191505062000040565b8160029080519060200190620000df929190620001d9565b505050600082511115620001b457600090505b81518110156200017a5760016003600084848151811015156200011157fe5b9060200190602002015173ffffffffffffffffffffffffffffffffffffffff1673ffffffffffffffffffffffffffffffffffffffff16815260200190815260200160002060006101000a81548160ff0219169083151502179055508080600101915050620000f2565b816004908051906020019062000192929190620001d9565b506001600560006101000a81548160ff021916908315150217905550620001d0565b6000600560006101000a81548160ff0219169083151502179055505b505050620002ae565b82805482825590600052602060002090810192821562000255579160200282015b82811115620002545782518260006101000a81548173ffffffffffffffffffffffffffffffffffffffff021916908373ffffffffffffffffffffffffffffffffffffffff16021790555091602001919060010190620001fa565b5b50905062000264919062000268565b5090565b620002ab91905b80821115620002a757600081816101000a81549073ffffffffffffffffffffffffffffffffffffffff0219169055506001016200026f565b5090565b90565b610bd880620002be6000396000f3006060604052600436106100a4576000357c0100000000000000000000000000000000000000000000000000000000900463ffffffff16806314bfd6d0146100a957806324d7806c1461010c57806331ae450b1461015d5780633af32abf146101c757806370480275146102185780637ebd1b301461025157806397f735d5146102b4578063d01f63f514610305578063e1b2e8b31461036f578063f80f5dd5146103a8575b600080fd5b34156100b457600080fd5b6100ca60048080359060200190919050506103e1565b604051808273ffffffffffffffffffffffffffffffffffffffff1673ffffffffffffffffffffffffffffffffffffffff16815260200191505060405180910390f35b341561011757600080fd5b610143600480803573ffffffffffffffffffffffffffffffffffffffff16906020019091905050610420565b604051808215151515815260200191505060405180910390f35b341561016857600080fd5b610170610440565b6040518080602001828103825283818151815260200191508051906020019060200280838360005b838110156101b3578082015181840152602081019050610198565b505050509050019250505060405180910390f35b34156101d257600080fd5b6101fe600480803573ffffffffffffffffffffffffffffffffffffffff169060200190919050506104d4565b604051808215151515815260200191505060405180910390f35b341561022357600080fd5b61024f600480803573ffffffffffffffffffffffffffffffffffffffff169060200190919050506104f4565b005b341561025c57600080fd5b6102726004808035906020019091905050610711565b604051808273ffffffffffffffffffffffffffffffffffffffff1673ffffffffffffffffffffffffffffffffffffffff16815260200191505060405180910390f35b34156102bf57600080fd5b6102eb600480803573ffffffffffffffffffffffffffffffffffffffff16906020019091905050610750565b604051808215151515815260200191505060405180910390f35b341561031057600080fd5b610318610770565b6040518080602001828103825283818151815260200191508051906020019060200280838360005b8381101561035b578082015181840152602081019050610340565b505050509050019250505060405180910390f35b341561037a57600080fd5b6103a6600480803573ffffffffffffffffffffffffffffffffffffffff16906020019091905050610804565b005b34156103b357600080fd5b6103df600480803573ffffffffffffffffffffffffffffffffffffffff169060200190919050506109be565b005b6002818154811015156103f057fe5b90600052602060002090016000915054906101000a900473ffffffffffffffffffffffffffffffffffffffff1681565b60006020528060005260406000206000915054906101000a900460ff1681565b610448610b47565b60028054806020026020016040519081016040528092919081815260200182805480156104ca57602002820191906000526020600020905b8160009054906101000a900473ffffffffffffffffffffffffffffffffffffffff1673ffffffffffffffffffffffffffffffffffffffff1681526020019060010190808311610480575b5050505050905090565b60036020528060005260406000206000915054906101000a900460ff1681565b6000803373ffffffffffffffffffffffffffffffffffffffff1673ffffffffffffffffffffffffffffffffffffffff16815260200190815260200160002060009054906101000a900460ff16151561054b57600080fd5b600160003373ffffffffffffffffffffffffffffffffffffffff1673ffffffffffffffffffffffffffffffffffffffff16815260200190815260200160002060009054906101000a900460ff161515156105a457600080fd5b6000803373ffffffffffffffffffffffffffffffffffffffff1673ffffffffffffffffffffffffffffffffffffffff16815260200190815260200160002060009054906101000a900460ff1615156105fb57600080fd5b600160003373ffffffffffffffffffffffffffffffffffffffff1673ffffffffffffffffffffffffffffffffffffffff16815260200190815260200160002060009054906101000a900460ff1615151561065457600080fd5b60016000808373ffffffffffffffffffffffffffffffffffffffff1673ffffffffffffffffffffffffffffffffffffffff16815260200190815260200160002060006101000a81548160ff021916908315150217905550600280548060010182816106bf9190610b5b565b9160005260206000209001600083909190916101000a81548173ffffffffffffffffffffffffffffffffffffffff021916908373ffffffffffffffffffffffffffffffffffffffff1602179055505050565b60048181548110151561072057fe5b90600052602060002090016000915054906101000a900473ffffffffffffffffffffffffffffffffffffffff1681565b60016020528060005260406000206000915054906101000a900460ff1681565b610778610b47565b60048054806020026020016040519081016040528092919081815260200182805480156107fa57602002820191906000526020600020905b8160009054906101000a900473ffffffffffffffffffffffffffffffffffffffff1673ffffffffffffffffffffffffffffffffffffffff16815260200190600101908083116107b0575b5050505050905090565b6000803373ffffffffffffffffffffffffffffffffffffffff1673ffffffffffffffffffffffffffffffffffffffff16815260200190815260200160002060009054906101000a900460ff16151561085b57600080fd5b600160003373ffffffffffffffffffffffffffffffffffffffff1673ffffffffffffffffffffffffffffffffffffffff16815260200190815260200160002060009054906101000a900460ff161515156108b457600080fd5b6000803373ffffffffffffffffffffffffffffffffffffffff1673ffffffffffffffffffffffffffffffffffffffff16815260200190815260200160002060009054906101000a900460ff16151561090b57600080fd5b600160003373ffffffffffffffffffffffffffffffffffffffff1673ffffffffffffffffffffffffffffffffffffffff16815260200190815260200160002060009054906101000a900460ff1615151561096457600080fd5b60018060008373ffffffffffffffffffffffffffffffffffffffff1673ffffffffffffffffffffffffffffffffffffffff16815260200190815260200160002060006101000a81548160ff02191690831515021790555050565b6000803373ffffffffffffffffffffffffffffffffffffffff1673ffffffffffffffffffffffffffffffffffffffff16815260200190815260200160002060009054906101000a900460ff161515610a1557600080fd5b600160003373ffffffffffffffffffffffffffffffffffffffff1673ffffffffffffffffffffffffffffffffffffffff16815260200190815260200160002060009054906101000a900460ff16151515610a6e57600080fd5b6001600360008373ffffffffffffffffffffffffffffffffffffffff1673ffffffffffffffffffffffffffffffffffffffff16815260200190815260200160002060006101000a81548160ff02191690831515021790555060048054806001018281610ada9190610b5b565b9160005260206000209001600083909190916101000a81548173ffffffffffffffffffffffffffffffffffffffff021916908373ffffffffffffffffffffffffffffffffffffffff160217905550506001600560006101000a81548160ff02191690831515021790555050565b602060405190810160405280600081525090565b815481835581811511610b8257818360005260206000209182019101610b819190610b87565b5b505050565b610ba991905b80821115610ba5576000816000905550600101610b8d565b5090565b905600a165627a7a723058201c82a1201896d6cd9a57dc0af0cbcdf8c535a7812a59d888bc983e7c56df2ca80029",
  "source": "pragma solidity ^0.4.18; //We have to specify what version of the compiler this code will use\n\nimport './Administered.sol';\n\n/**\n * @title Whitelist\n * @dev The Whitelist contract has Whitelist addresses, and provides basic authorization control\n * functions, this simplifies the implementation of \"user permissions\".\n */\ncontract Whitelisted is Administered {\n  mapping (address => bool) public isWhitelisted;\n  address[] public whitelist;\n  bool hasWhitelist;\n\n  /**\n   * @dev The Ownable constructor sets the original `owner` of the contract to the sender\n   * account.\n   */\n  function Whitelisted(address[] adminAddress, address[] whitelistAddress) \n  Administered(adminAddress)\n  public\n  {\n    if (whitelistAddress.length > 0) {\n        for (uint i=0; i < whitelistAddress.length; i++) {\n            isWhitelisted[whitelistAddress[i]]=true;\n        } \n        whitelist=whitelistAddress;\n        hasWhitelist=true;\n    } else {\n        hasWhitelist=false;\n    }\n  }\n\n\n  /**\n   * @dev Throws if called by any account other than the owner.\n   */\n  modifier onlyWhitelist() \n  {    \n    require(!hasWhitelist || isWhitelisted[msg.sender]);\n    require(!isBanned[msg.sender]);\n    _;\n  }\n  \n  function addWhitelist(address _whitelistAddress) \n  public\n  onlyAdmin\n  {\n        isWhitelisted[_whitelistAddress]=true;\n        whitelist.push(_whitelistAddress);\n        hasWhitelist=true;\n  }\n  \n\n  function getWhitelist() \n  public\n  constant \n  returns (address[]) \n  {\n        //require(isWhitelisted[msg.sender]);\n        //require(!isBanned[msg.sender]);\n        return whitelist;\n  }\n\n\n}\n",
  "sourcePath": "/home/richard/iotblock/contracts/admin/Whitelisted.sol",
  "compiler": {
    "name": "solc",
    "version": "0.4.19+commit.c4cbbb05.Emscripten.clang"
  },
  "schemaVersion": "2.0.0",
  "updatedAt": "2018-03-16T17:03:58.501Z"
}