{
  "contractName": "Administered",
  "abi": [
    {
      "constant": true,
      "inputs": [
        {
          "name": "",
          "type": "uint256"
        }
      ],
      "name": "admins",
      "outputs": [
        {
          "name": "",
          "type": "address"
        }
      ],
      "payable": false,
      "stateMutability": "view",
      "type": "function"
    },
    {
      "constant": true,
      "inputs": [
        {
          "name": "",
          "type": "address"
        }
      ],
      "name": "isAdmin",
      "outputs": [
        {
          "name": "",
          "type": "bool"
        }
      ],
      "payable": false,
      "stateMutability": "view",
      "type": "function"
    },
    {
      "inputs": [
        {
          "name": "adminAddress",
          "type": "address[]"
        }
      ],
      "payable": false,
      "stateMutability": "nonpayable",
      "type": "constructor"
    },
    {
      "constant": false,
      "inputs": [
        {
          "name": "admin",
          "type": "address"
        }
      ],
      "name": "addAdmin",
      "outputs": [],
      "payable": false,
      "stateMutability": "nonpayable",
      "type": "function"
    },
    {
      "constant": false,
      "inputs": [
        {
          "name": "banned",
          "type": "address"
        }
      ],
      "name": "addBanned",
      "outputs": [],
      "payable": false,
      "stateMutability": "nonpayable",
      "type": "function"
    },
    {
      "constant": true,
      "inputs": [],
      "name": "getAdmins",
      "outputs": [
        {
          "name": "",
          "type": "address[]"
        }
      ],
      "payable": false,
      "stateMutability": "view",
      "type": "function"
    }
  ],
  "bytecode": "0x6060604052341561000f57600080fd5b6040516108763803806108768339810160405280805182019190505060008090505b81518110156100b5576001600080848481518110151561004d57fe5b9060200190602002015173ffffffffffffffffffffffffffffffffffffffff1673ffffffffffffffffffffffffffffffffffffffff16815260200190815260200160002060006101000a81548160ff0219169083151502179055508080600101915050610031565b81600190805190602001906100cb9291906100d3565b5050506101a0565b82805482825590600052602060002090810192821561014c579160200282015b8281111561014b5782518260006101000a81548173ffffffffffffffffffffffffffffffffffffffff021916908373ffffffffffffffffffffffffffffffffffffffff160217905550916020019190600101906100f3565b5b509050610159919061015d565b5090565b61019d91905b8082111561019957600081816101000a81549073ffffffffffffffffffffffffffffffffffffffff021916905550600101610163565b5090565b90565b6106c7806101af6000396000f30060606040526004361061006d576000357c0100000000000000000000000000000000000000000000000000000000900463ffffffff16806314bfd6d01461007257806324d7806c146100d557806331ae450b146101265780637048027514610190578063e1b2e8b3146101c9575b600080fd5b341561007d57600080fd5b6100936004808035906020019091905050610202565b604051808273ffffffffffffffffffffffffffffffffffffffff1673ffffffffffffffffffffffffffffffffffffffff16815260200191505060405180910390f35b34156100e057600080fd5b61010c600480803573ffffffffffffffffffffffffffffffffffffffff16906020019091905050610241565b604051808215151515815260200191505060405180910390f35b341561013157600080fd5b610139610261565b6040518080602001828103825283818151815260200191508051906020019060200280838360005b8381101561017c578082015181840152602081019050610161565b505050509050019250505060405180910390f35b341561019b57600080fd5b6101c7600480803573ffffffffffffffffffffffffffffffffffffffff169060200190919050506102f5565b005b34156101d457600080fd5b610200600480803573ffffffffffffffffffffffffffffffffffffffff16906020019091905050610460565b005b60018181548110151561021157fe5b90600052602060002090016000915054906101000a900473ffffffffffffffffffffffffffffffffffffffff1681565b60006020528060005260406000206000915054906101000a900460ff1681565b610269610636565b60018054806020026020016040519081016040528092919081815260200182805480156102eb57602002820191906000526020600020905b8160009054906101000a900473ffffffffffffffffffffffffffffffffffffffff1673ffffffffffffffffffffffffffffffffffffffff16815260200190600101908083116102a1575b5050505050905090565b6000803373ffffffffffffffffffffffffffffffffffffffff1673ffffffffffffffffffffffffffffffffffffffff16815260200190815260200160002060009054906101000a900460ff16151561034c57600080fd5b6000803373ffffffffffffffffffffffffffffffffffffffff1673ffffffffffffffffffffffffffffffffffffffff16815260200190815260200160002060009054906101000a900460ff1615156103a357600080fd5b60016000808373ffffffffffffffffffffffffffffffffffffffff1673ffffffffffffffffffffffffffffffffffffffff16815260200190815260200160002060006101000a81548160ff0219169083151502179055506001805480600101828161040e919061064a565b9160005260206000209001600083909190916101000a81548173ffffffffffffffffffffffffffffffffffffffff021916908373ffffffffffffffffffffffffffffffffffffffff1602179055505050565b60008060003373ffffffffffffffffffffffffffffffffffffffff1673ffffffffffffffffffffffffffffffffffffffff16815260200190815260200160002060009054906101000a900460ff1615156104b957600080fd5b6000803373ffffffffffffffffffffffffffffffffffffffff1673ffffffffffffffffffffffffffffffffffffffff16815260200190815260200160002060009054906101000a900460ff16151561051057600080fd5b60008060008473ffffffffffffffffffffffffffffffffffffffff1673ffffffffffffffffffffffffffffffffffffffff16815260200190815260200160002060006101000a81548160ff021916908315150217905550600090505b6001805490508110156106325760018181548110151561058857fe5b906000526020600020900160009054906101000a900473ffffffffffffffffffffffffffffffffffffffff1673ffffffffffffffffffffffffffffffffffffffff168273ffffffffffffffffffffffffffffffffffffffff161415610625576001818154811015156105f657fe5b906000526020600020900160006101000a81549073ffffffffffffffffffffffffffffffffffffffff02191690555b808060010191505061056c565b5050565b602060405190810160405280600081525090565b815481835581811511610671578183600052602060002091820191016106709190610676565b5b505050565b61069891905b8082111561069457600081600090555060010161067c565b5090565b905600a165627a7a723058203920b31f7a1a326498b20177e9cf6ba451a9a7b5cb47db38b280cc0554b06bd10029",
  "source": "pragma solidity ^0.4.18; //We have to specify what version of the compiler this code will use\n\n\n/**\n * @title Admin\n * @dev The Admin contract has Admin addresses, and provides basic authorization control\n * functions, this simplifies the implementation of \"user permissions\".\n */\ncontract Administered {\n  mapping (address => bool) public isAdmin;\n  address[] public admins;\n\n  /**\n   * @dev The Ownable constructor sets the original `owner` of the contract to the sender\n   * account.\n   */\n  function Administered(address[] adminAddress) \n  public\n  {\n    for (uint i=0; i < adminAddress.length; i++) {\n        isAdmin[adminAddress[i]]=true;\n    } \n    admins=adminAddress;\n  }\n\n\n  /**\n   * @dev Throws if called by any account other than the owner.\n   */\n  modifier onlyAdmin() \n  {\n    require(isAdmin[msg.sender]);\n    _;\n  }\n  \n  function addAdmin(address admin) \n  public\n  onlyAdmin \n  {\n        require(isAdmin[msg.sender]);\n        isAdmin[admin]=true;\n        admins.push(admin);\n  }\n  \n  function addBanned(address banned)\n  public\n  onlyAdmin \n  {\n        require(isAdmin[msg.sender]);\n        isAdmin[banned]=false;\n        for (uint i=0; i < admins.length; i++) {\n            if (banned==admins[i]) {\n                delete admins[i];\n            }\n        } \n        \n        \n  }\n\n  function getAdmins() \n  public\n  constant \n  returns (address[]) \n  {     \n\n        return admins;\n  }\n\n\n}\n",
  "sourcePath": "/windata/iotblock/contracts/admin/Administered.sol",
  "compiler": {
    "name": "solc",
    "version": "0.4.19+commit.c4cbbb05.Emscripten.clang"
  },
  "schemaVersion": "2.0.0",
  "updatedAt": "2018-11-21T06:38:49.274Z"
}