{
  "contractName": "Catalogue",
  "abi": [
    {
      "constant": false,
      "inputs": [
        {
          "name": "key",
          "type": "string"
        },
        {
          "name": "value",
          "type": "string"
        }
      ],
      "name": "addKeyAuth",
      "outputs": [
        {
          "name": "",
          "type": "bool"
        }
      ],
      "payable": false,
      "stateMutability": "nonpayable",
      "type": "function"
    },
    {
      "constant": true,
      "inputs": [],
      "name": "smartKey",
      "outputs": [
        {
          "name": "",
          "type": "address"
        }
      ],
      "payable": false,
      "stateMutability": "view",
      "type": "function"
    },
    {
      "constant": true,
      "inputs": [
        {
          "name": "",
          "type": "address"
        },
        {
          "name": "",
          "type": "uint256"
        }
      ],
      "name": "transactions",
      "outputs": [
        {
          "name": "account",
          "type": "address"
        },
        {
          "name": "date",
          "type": "uint256"
        },
        {
          "name": "amount",
          "type": "uint256"
        },
        {
          "name": "transaction_type",
          "type": "uint256"
        }
      ],
      "payable": false,
      "stateMutability": "view",
      "type": "function"
    },
    {
      "constant": true,
      "inputs": [
        {
          "name": "",
          "type": "uint256"
        }
      ],
      "name": "admins",
      "outputs": [
        {
          "name": "",
          "type": "address"
        }
      ],
      "payable": false,
      "stateMutability": "view",
      "type": "function"
    },
    {
      "constant": false,
      "inputs": [
        {
          "name": "_owner",
          "type": "address"
        }
      ],
      "name": "removeOwner",
      "outputs": [],
      "payable": false,
      "stateMutability": "nonpayable",
      "type": "function"
    },
    {
      "constant": true,
      "inputs": [],
      "name": "getHealthStatus",
      "outputs": [
        {
          "name": "",
          "type": "bytes32"
        }
      ],
      "payable": false,
      "stateMutability": "view",
      "type": "function"
    },
    {
      "constant": true,
      "inputs": [],
      "name": "contrib_amount",
      "outputs": [
        {
          "name": "",
          "type": "uint256"
        }
      ],
      "payable": false,
      "stateMutability": "view",
      "type": "function"
    },
    {
      "constant": true,
      "inputs": [
        {
          "name": "_address",
          "type": "address"
        }
      ],
      "name": "getTransactionCount",
      "outputs": [
        {
          "name": "",
          "type": "uint256"
        }
      ],
      "payable": false,
      "stateMutability": "view",
      "type": "function"
    },
    {
      "constant": true,
      "inputs": [
        {
          "name": "",
          "type": "address"
        }
      ],
      "name": "isAdmin",
      "outputs": [
        {
          "name": "",
          "type": "bool"
        }
      ],
      "payable": false,
      "stateMutability": "view",
      "type": "function"
    },
    {
      "constant": true,
      "inputs": [
        {
          "name": "",
          "type": "address"
        }
      ],
      "name": "isOwner",
      "outputs": [
        {
          "name": "",
          "type": "bool"
        }
      ],
      "payable": false,
      "stateMutability": "view",
      "type": "function"
    },
    {
      "constant": true,
      "inputs": [],
      "name": "getAdmins",
      "outputs": [
        {
          "name": "",
          "type": "address[]"
        }
      ],
      "payable": false,
      "stateMutability": "view",
      "type": "function"
    },
    {
      "constant": true,
      "inputs": [],
      "name": "href",
      "outputs": [
        {
          "name": "",
          "type": "string"
        }
      ],
      "payable": false,
      "stateMutability": "view",
      "type": "function"
    },
    {
      "constant": false,
      "inputs": [
        {
          "name": "amount",
          "type": "uint256"
        },
        {
          "name": "beneficiary",
          "type": "address"
        }
      ],
      "name": "transferEth",
      "outputs": [],
      "payable": false,
      "stateMutability": "nonpayable",
      "type": "function"
    },
    {
      "constant": true,
      "inputs": [
        {
          "name": "hash",
          "type": "bytes32"
        }
      ],
      "name": "getValueByHash",
      "outputs": [
        {
          "name": "",
          "type": "string"
        }
      ],
      "payable": false,
      "stateMutability": "view",
      "type": "function"
    },
    {
      "constant": true,
      "inputs": [
        {
          "name": "",
          "type": "bytes32"
        }
      ],
      "name": "itemMetaData",
      "outputs": [
        {
          "name": "",
          "type": "address"
        }
      ],
      "payable": false,
      "stateMutability": "view",
      "type": "function"
    },
    {
      "constant": false,
      "inputs": [
        {
          "name": "_health",
          "type": "uint8"
        }
      ],
      "name": "setHealth",
      "outputs": [],
      "payable": true,
      "stateMutability": "payable",
      "type": "function"
    },
    {
      "constant": true,
      "inputs": [
        {
          "name": "key",
          "type": "string"
        }
      ],
      "name": "getHash",
      "outputs": [
        {
          "name": "",
          "type": "bytes32"
        }
      ],
      "payable": false,
      "stateMutability": "pure",
      "type": "function"
    },
    {
      "constant": true,
      "inputs": [],
      "name": "getSmartKey",
      "outputs": [
        {
          "name": "",
          "type": "address"
        }
      ],
      "payable": false,
      "stateMutability": "view",
      "type": "function"
    },
    {
      "constant": true,
      "inputs": [],
      "name": "getHealth",
      "outputs": [
        {
          "name": "",
          "type": "uint8"
        }
      ],
      "payable": false,
      "stateMutability": "view",
      "type": "function"
    },
    {
      "constant": false,
      "inputs": [
        {
          "name": "admin",
          "type": "address"
        }
      ],
      "name": "addAdmin",
      "outputs": [],
      "payable": false,
      "stateMutability": "nonpayable",
      "type": "function"
    },
    {
      "constant": false,
      "inputs": [
        {
          "name": "_owner",
          "type": "address"
        }
      ],
      "name": "addOwner",
      "outputs": [],
      "payable": false,
      "stateMutability": "nonpayable",
      "type": "function"
    },
    {
      "constant": true,
      "inputs": [],
      "name": "health",
      "outputs": [
        {
          "name": "",
          "type": "uint8"
        }
      ],
      "payable": false,
      "stateMutability": "view",
      "type": "function"
    },
    {
      "constant": true,
      "inputs": [
        {
          "name": "",
          "type": "address"
        }
      ],
      "name": "activated",
      "outputs": [
        {
          "name": "",
          "type": "uint256"
        }
      ],
      "payable": false,
      "stateMutability": "view",
      "type": "function"
    },
    {
      "constant": false,
      "inputs": [
        {
          "name": "user",
          "type": "address"
        }
      ],
      "name": "activateKey",
      "outputs": [],
      "payable": true,
      "stateMutability": "payable",
      "type": "function"
    },
    {
      "constant": false,
      "inputs": [],
      "name": "returnKey",
      "outputs": [],
      "payable": false,
      "stateMutability": "nonpayable",
      "type": "function"
    },
    {
      "constant": true,
      "inputs": [
        {
          "name": "",
          "type": "uint256"
        }
      ],
      "name": "items",
      "outputs": [
        {
          "name": "",
          "type": "address"
        }
      ],
      "payable": false,
      "stateMutability": "view",
      "type": "function"
    },
    {
      "constant": true,
      "inputs": [],
      "name": "state",
      "outputs": [
        {
          "name": "",
          "type": "uint8"
        }
      ],
      "payable": false,
      "stateMutability": "view",
      "type": "function"
    },
    {
      "constant": true,
      "inputs": [
        {
          "name": "",
          "type": "uint256"
        }
      ],
      "name": "meta",
      "outputs": [
        {
          "name": "",
          "type": "address"
        }
      ],
      "payable": false,
      "stateMutability": "view",
      "type": "function"
    },
    {
      "constant": false,
      "inputs": [
        {
          "name": "hash",
          "type": "bytes32"
        },
        {
          "name": "value",
          "type": "string"
        }
      ],
      "name": "addKeyValueByHash",
      "outputs": [
        {
          "name": "",
          "type": "bool"
        }
      ],
      "payable": false,
      "stateMutability": "nonpayable",
      "type": "function"
    },
    {
      "constant": false,
      "inputs": [
        {
          "name": "banned",
          "type": "address"
        }
      ],
      "name": "addBanned",
      "outputs": [],
      "payable": false,
      "stateMutability": "nonpayable",
      "type": "function"
    },
    {
      "constant": false,
      "inputs": [
        {
          "name": "_rel",
          "type": "string"
        },
        {
          "name": "_val",
          "type": "string"
        }
      ],
      "name": "upsertMetaData",
      "outputs": [
        {
          "name": "",
          "type": "address"
        }
      ],
      "payable": true,
      "stateMutability": "payable",
      "type": "function"
    },
    {
      "constant": true,
      "inputs": [
        {
          "name": "",
          "type": "bytes32"
        }
      ],
      "name": "nodeData",
      "outputs": [
        {
          "name": "",
          "type": "address"
        }
      ],
      "payable": false,
      "stateMutability": "view",
      "type": "function"
    },
    {
      "constant": true,
      "inputs": [],
      "name": "selectMetaData",
      "outputs": [
        {
          "name": "",
          "type": "address[]"
        }
      ],
      "payable": false,
      "stateMutability": "view",
      "type": "function"
    },
    {
      "constant": true,
      "inputs": [],
      "name": "vault",
      "outputs": [
        {
          "name": "",
          "type": "address"
        }
      ],
      "payable": false,
      "stateMutability": "view",
      "type": "function"
    },
    {
      "constant": true,
      "inputs": [
        {
          "name": "key",
          "type": "string"
        }
      ],
      "name": "getKeyAuth",
      "outputs": [
        {
          "name": "",
          "type": "string"
        }
      ],
      "payable": false,
      "stateMutability": "view",
      "type": "function"
    },
    {
      "inputs": [
        {
          "name": "_smartKey",
          "type": "address"
        },
        {
          "name": "_adminAddress",
          "type": "address[]"
        }
      ],
      "payable": false,
      "stateMutability": "nonpayable",
      "type": "constructor"
    },
    {
      "payable": true,
      "stateMutability": "payable",
      "type": "fallback"
    },
    {
      "anonymous": false,
      "inputs": [
        {
          "indexed": false,
          "name": "status",
          "type": "uint8"
        }
      ],
      "name": "HealthUpdate",
      "type": "event"
    },
    {
      "constant": true,
      "inputs": [],
      "name": "selectItems",
      "outputs": [
        {
          "name": "",
          "type": "address[]"
        }
      ],
      "payable": false,
      "stateMutability": "view",
      "type": "function"
    },
    {
      "constant": false,
      "inputs": [
        {
          "name": "_href",
          "type": "string"
        }
      ],
      "name": "setHref",
      "outputs": [
        {
          "name": "",
          "type": "bool"
        }
      ],
      "payable": false,
      "stateMutability": "nonpayable",
      "type": "function"
    }
  ],
  "bytecode": "0x606060405234156200001057600080fd5b604051620047283803806200472883398101604052808051906020019091908051820191905050818181308260008090505b8151811015620000c957600160008084848151811015156200006057fe5b9060200190602002015173ffffffffffffffffffffffffffffffffffffffff1673ffffffffffffffffffffffffffffffffffffffff16815260200190815260200160002060006101000a81548160ff021916908315150217905550808060010191505062000042565b8160019080519060200190620000e192919062000307565b5050506001600260003373ffffffffffffffffffffffffffffffffffffffff1673ffffffffffffffffffffffffffffffffffffffff16815260200190815260200160002060006101000a81548160ff02191690831515021790555060008173ffffffffffffffffffffffffffffffffffffffff16141515156200016357600080fd5b80600460006101000a81548173ffffffffffffffffffffffffffffffffffffffff021916908373ffffffffffffffffffffffffffffffffffffffff16021790555081600360006101000a81548173ffffffffffffffffffffffffffffffffffffffff021916908373ffffffffffffffffffffffffffffffffffffffff1602179055506000600460146101000a81548160ff021916908360028111156200020557fe5b02179055506001600260008373ffffffffffffffffffffffffffffffffffffffff1673ffffffffffffffffffffffffffffffffffffffff16815260200190815260200160002060006101000a81548160ff0219169083151502179055506001600260008473ffffffffffffffffffffffffffffffffffffffff1673ffffffffffffffffffffffffffffffffffffffff16815260200190815260200160002060006101000a81548160ff021916908315150217905550505081600360006101000a81548173ffffffffffffffffffffffffffffffffffffffff021916908373ffffffffffffffffffffffffffffffffffffffff16021790555050505050620003dc565b82805482825590600052602060002090810192821562000383579160200282015b82811115620003825782518260006101000a81548173ffffffffffffffffffffffffffffffffffffffff021916908373ffffffffffffffffffffffffffffffffffffffff1602179055509160200191906001019062000328565b5b50905062000392919062000396565b5090565b620003d991905b80821115620003d557600081816101000a81549073ffffffffffffffffffffffffffffffffffffffff0219169055506001016200039d565b5090565b90565b61433c80620003ec6000396000f300606060405260043610620001f3576000357c0100000000000000000000000000000000000000000000000000000000900463ffffffff16806303db428d1462000200578063113adf4914620002bb57806314538128146200031357806314bfd6d014620003ad578063173825d914620004135780631801e156146200044f578063202e079d146200048357806323ca0cd214620004af57806324d7806c14620004ff5780632f54bf6e146200055357806331ae450b14620005a757806336eeaa6a146200061657806349f9c0e414620006aa5780635436e5a014620006ef5780635571edeb14620007955780635b2ce58614620007ff5780635b6beeb9146200081c5780635c866c781462000898578063640e7fd514620008f057806370480275146200092b5780637065cb48146200096757806374ddcd6e14620009a35780637633a22c1462000a12578063779d86771462000a4d5780639172fe081462000a9d578063af92c1811462000acd578063b9d191661462000ae5578063bfb231d21462000b5d578063c19d93fb1462000bc3578063cd5cfdaf1462000bfe578063d4c2f75c1462000c64578063e1b2e8b31462000ce9578063ec6f214e1462000d25578063f63553b51462000dfc578063f95fd40b1462000e66578063fbfa77cf1462000ed5578063fd08e0c71462000f2d575b620001fe3362001009565b005b34156200020c57600080fd5b620002a1600480803590602001908201803590602001908080601f0160208091040260200160405190810160405280939291908181526020018383808284378201915050505050509190803590602001908201803590602001908080601f0160208091040260200160405190810160405280939291908181526020018383808284378201915050505050509190505062001157565b604051808215151515815260200191505060405180910390f35b3415620002c757600080fd5b620002d16200122a565b604051808273ffffffffffffffffffffffffffffffffffffffff1673ffffffffffffffffffffffffffffffffffffffff16815260200191505060405180910390f35b34156200031f57600080fd5b62000356600480803573ffffffffffffffffffffffffffffffffffffffff1690602001909190803590602001909190505062001250565b604051808573ffffffffffffffffffffffffffffffffffffffff1673ffffffffffffffffffffffffffffffffffffffff16815260200184815260200183815260200182815260200194505050505060405180910390f35b3415620003b957600080fd5b620003d16004808035906020019091905050620012bd565b604051808273ffffffffffffffffffffffffffffffffffffffff1673ffffffffffffffffffffffffffffffffffffffff16815260200191505060405180910390f35b34156200041f57600080fd5b6200044d600480803573ffffffffffffffffffffffffffffffffffffffff16906020019091905050620012fd565b005b34156200045b57600080fd5b620004656200140a565b60405180826000191660001916815260200191505060405180910390f35b34156200048f57600080fd5b62000499620016a7565b6040518082815260200191505060405180910390f35b3415620004bb57600080fd5b620004e9600480803573ffffffffffffffffffffffffffffffffffffffff16906020019091905050620016ad565b6040518082815260200191505060405180910390f35b34156200050b57600080fd5b62000539600480803573ffffffffffffffffffffffffffffffffffffffff16906020019091905050620016f9565b604051808215151515815260200191505060405180910390f35b34156200055f57600080fd5b6200058d600480803573ffffffffffffffffffffffffffffffffffffffff1690602001909190505062001719565b604051808215151515815260200191505060405180910390f35b3415620005b357600080fd5b620005bd62001739565b6040518080602001828103825283818151815260200191508051906020019060200280838360005b8381101562000602578082015181840152602081019050620005e5565b505050509050019250505060405180910390f35b34156200062257600080fd5b6200062c620017d1565b6040518080602001828103825283818151815260200191508051906020019080838360005b838110156200066e57808201518184015260208101905062000651565b50505050905090810190601f1680156200069c5780820380516001836020036101000a031916815260200191505b509250505060405180910390f35b3415620006b657600080fd5b620006ed600480803590602001909190803573ffffffffffffffffffffffffffffffffffffffff1690602001909190505062001873565b005b3415620006fb57600080fd5b6200071760048080356000191690602001909190505062001a51565b6040518080602001828103825283818151815260200191508051906020019080838360005b83811015620007595780820151818401526020810190506200073c565b50505050905090810190601f168015620007875780820380516001836020036101000a031916815260200191505b509250505060405180910390f35b3415620007a157600080fd5b620007bd60048080356000191690602001909190505062001b73565b604051808273ffffffffffffffffffffffffffffffffffffffff1673ffffffffffffffffffffffffffffffffffffffff16815260200191505060405180910390f35b6200081a600480803560ff1690602001909190505062001ba6565b005b34156200082857600080fd5b6200087a600480803590602001908201803590602001908080601f0160208091040260200160405190810160405280939291908181526020018383808284378201915050505050509190505062001ff6565b60405180826000191660001916815260200191505060405180910390f35b3415620008a457600080fd5b620008ae62002064565b604051808273ffffffffffffffffffffffffffffffffffffffff1673ffffffffffffffffffffffffffffffffffffffff16815260200191505060405180910390f35b3415620008fc57600080fd5b620009066200208e565b604051808260068111156200091757fe5b60ff16815260200191505060405180910390f35b34156200093757600080fd5b62000965600480803573ffffffffffffffffffffffffffffffffffffffff16906020019091905050620020a5565b005b34156200097357600080fd5b620009a1600480803573ffffffffffffffffffffffffffffffffffffffff1690602001909190505062002214565b005b3415620009af57600080fd5b620009b962002321565b6040518080602001828103825283818151815260200191508051906020019060200280838360005b83811015620009fe578082015181840152602081019050620009e1565b505050509050019250505060405180910390f35b341562000a1e57600080fd5b62000a28620023b9565b6040518082600681111562000a3957fe5b60ff16815260200191505060405180910390f35b341562000a5957600080fd5b62000a87600480803573ffffffffffffffffffffffffffffffffffffffff16906020019091905050620023cc565b6040518082815260200191505060405180910390f35b62000acb600480803573ffffffffffffffffffffffffffffffffffffffff1690602001909190505062001009565b005b341562000ad957600080fd5b62000ae3620023e4565b005b341562000af157600080fd5b62000b43600480803590602001908201803590602001908080601f016020809104026020016040519081016040528093929190818152602001838380828437820191505050505050919050506200249b565b604051808215151515815260200191505060405180910390f35b341562000b6957600080fd5b62000b81600480803590602001909190505062002517565b604051808273ffffffffffffffffffffffffffffffffffffffff1673ffffffffffffffffffffffffffffffffffffffff16815260200191505060405180910390f35b341562000bcf57600080fd5b62000bd962002557565b6040518082600281111562000bea57fe5b60ff16815260200191505060405180910390f35b341562000c0a57600080fd5b62000c2260048080359060200190919050506200256a565b604051808273ffffffffffffffffffffffffffffffffffffffff1673ffffffffffffffffffffffffffffffffffffffff16815260200191505060405180910390f35b341562000c7057600080fd5b62000ccf60048080356000191690602001909190803590602001908201803590602001908080601f01602080910402602001604051908101604052809392919081815260200183838082843782019150505050505091905050620025aa565b604051808215151515815260200191505060405180910390f35b341562000cf557600080fd5b62000d23600480803573ffffffffffffffffffffffffffffffffffffffff1690602001909190505062002641565b005b62000dba600480803590602001908201803590602001908080601f0160208091040260200160405190810160405280939291908181526020018383808284378201915050505050509190803590602001908201803590602001908080601f016020809104026020016040519081016040528093929190818152602001838380828437820191505050505050919050506200281e565b604051808273ffffffffffffffffffffffffffffffffffffffff1673ffffffffffffffffffffffffffffffffffffffff16815260200191505060405180910390f35b341562000e0857600080fd5b62000e2460048080356000191690602001909190505062002f47565b604051808273ffffffffffffffffffffffffffffffffffffffff1673ffffffffffffffffffffffffffffffffffffffff16815260200191505060405180910390f35b341562000e7257600080fd5b62000e7c62002f7a565b6040518080602001828103825283818151815260200191508051906020019060200280838360005b8381101562000ec157808201518184015260208101905062000ea4565b505050509050019250505060405180910390f35b341562000ee157600080fd5b62000eeb62003012565b604051808273ffffffffffffffffffffffffffffffffffffffff1673ffffffffffffffffffffffffffffffffffffffff16815260200191505060405180910390f35b341562000f3957600080fd5b62000f8b600480803590602001908201803590602001908080601f0160208091040260200160405190810160405280939291908181526020018383808284378201915050505050509190505062003038565b6040518080602001828103825283818151815260200191508051906020019080838360005b8381101562000fcd57808201518184015260208101905062000fb0565b50505050905090810190601f16801562000ffb5780820380516001836020036101000a031916815260200191505b509250505060405180910390f35b6001600460146101000a81548160ff021916908360028111156200102957fe5b021790555062001045346005546200311190919063ffffffff16565b600581905550600760008273ffffffffffffffffffffffffffffffffffffffff1673ffffffffffffffffffffffffffffffffffffffff16815260200190815260200160002080548060010182816200109e919062003130565b916000526020600020906004020160006080604051908101604052803373ffffffffffffffffffffffffffffffffffffffff1681526020014281526020013481526020016000815250909190915060008201518160000160006101000a81548173ffffffffffffffffffffffffffffffffffffffff021916908373ffffffffffffffffffffffffffffffffffffffff16021790555060208201518160010155604082015181600201556060820151816003015550505050565b6000600260003373ffffffffffffffffffffffffffffffffffffffff1673ffffffffffffffffffffffffffffffffffffffff16815260200190815260200160002060009054906101000a900460ff161515620011b257600080fd5b62001222836040518082805190602001908083835b602083101515620011ee5780518252602082019150602081019050602083039250620011c7565b6001836020036101000a038019825116818451168082178552505050505050905001915050604051809103902083620025aa565b905092915050565b600360009054906101000a900473ffffffffffffffffffffffffffffffffffffffff1681565b6007602052816000526040600020818154811015156200126c57fe5b9060005260206000209060040201600091509150508060000160009054906101000a900473ffffffffffffffffffffffffffffffffffffffff16908060010154908060020154908060030154905084565b600181815481101515620012cd57fe5b90600052602060002090016000915054906101000a900473ffffffffffffffffffffffffffffffffffffffff1681565b600260003373ffffffffffffffffffffffffffffffffffffffff1673ffffffffffffffffffffffffffffffffffffffff16815260200190815260200160002060009054906101000a900460ff1615156200135657600080fd5b600260003373ffffffffffffffffffffffffffffffffffffffff1673ffffffffffffffffffffffffffffffffffffffff16815260200190815260200160002060009054906101000a900460ff161515620013af57600080fd5b6000600260008373ffffffffffffffffffffffffffffffffffffffff1673ffffffffffffffffffffffffffffffffffffffff16815260200190815260200160002060006101000a81548160ff02191690831515021790555050565b60008060068111156200141957fe5b600460159054906101000a900460ff1660068111156200143557fe5b141562001465577f50726f766973696f6e696e6700000000000000000000000000000000000000009050620016a4565b600160068111156200147357fe5b600460159054906101000a900460ff1660068111156200148f57fe5b1415620014bf577f43657274696669656400000000000000000000000000000000000000000000009050620016a4565b60026006811115620014cd57fe5b600460159054906101000a900460ff166006811115620014e957fe5b141562001519577f4d6f6469666965640000000000000000000000000000000000000000000000009050620016a4565b600360068111156200152757fe5b600460159054906101000a900460ff1660068111156200154357fe5b141562001573577f436f6d70726f6d697365640000000000000000000000000000000000000000009050620016a4565b600460068111156200158157fe5b600460159054906101000a900460ff1660068111156200159d57fe5b1415620015cd577f4d616c66756e6374696f6e696e670000000000000000000000000000000000009050620016a4565b60056006811115620015db57fe5b600460159054906101000a900460ff166006811115620015f757fe5b141562001627577f4861726d66756c000000000000000000000000000000000000000000000000009050620016a4565b6006808111156200163457fe5b600460159054906101000a900460ff1660068111156200165057fe5b141562001680577f436f756e746572666569740000000000000000000000000000000000000000009050620016a4565b7f436f756e7465726665697400000000000000000000000000000000000000000090505b90565b60055481565b6000600760008373ffffffffffffffffffffffffffffffffffffffff1673ffffffffffffffffffffffffffffffffffffffff168152602001908152602001600020805490509050919050565b60006020528060005260406000206000915054906101000a900460ff1681565b60026020528060005260406000206000915054906101000a900460ff1681565b6200174362003165565b6001805480602002602001604051908101604052809291908181526020018280548015620017c757602002820191906000526020600020905b8160009054906101000a900473ffffffffffffffffffffffffffffffffffffffff1673ffffffffffffffffffffffffffffffffffffffff16815260200190600101908083116200177c575b5050505050905090565b600b8054600181600116156101000203166002900480601f0160208091040260200160405190810160405280929190818152602001828054600181600116156101000203166002900480156200186b5780601f106200183f576101008083540402835291602001916200186b565b820191906000526020600020905b8154815290600101906020018083116200184d57829003601f168201915b505050505081565b600260003373ffffffffffffffffffffffffffffffffffffffff1673ffffffffffffffffffffffffffffffffffffffff16815260200190815260200160002060009054906101000a900460ff161515620018cc57600080fd5b60016002811115620018da57fe5b600460149054906101000a900460ff166002811115620018f657fe5b1415156200190357600080fd5b8073ffffffffffffffffffffffffffffffffffffffff166108fc839081150290604051600060405180830381858888f1935050505015156200194457600080fd5b600760003073ffffffffffffffffffffffffffffffffffffffff1673ffffffffffffffffffffffffffffffffffffffff168152602001908152602001600020805480600101828162001997919062003130565b916000526020600020906004020160006080604051908101604052808573ffffffffffffffffffffffffffffffffffffffff1681526020014281526020018681526020016001815250909190915060008201518160000160006101000a81548173ffffffffffffffffffffffffffffffffffffffff021916908373ffffffffffffffffffffffffffffffffffffffff1602179055506020820151816001015560408201518160020155606082015181600301555050505050565b62001a5b62003179565b600260003373ffffffffffffffffffffffffffffffffffffffff1673ffffffffffffffffffffffffffffffffffffffff16815260200190815260200160002060009054906101000a900460ff16151562001ab457600080fd5b6008600083600019166000191681526020019081526020016000208054600181600116156101000203166002900480601f01602080910402602001604051908101604052809291908181526020018280546001816001161561010002031660029004801562001b675780601f1062001b3b5761010080835404028352916020019162001b67565b820191906000526020600020905b81548152906001019060200180831162001b4957829003601f168201915b50505050509050919050565b600a6020528060005260406000206000915054906101000a900473ffffffffffffffffffffffffffffffffffffffff1681565b6509184e72a00034111562001ff35780600460156101000a81548160ff0219169083600681111562001bd457fe5b0217905550600181600681111562001be857fe5b111562001d3d57600360009054906101000a900473ffffffffffffffffffffffffffffffffffffffff1673ffffffffffffffffffffffffffffffffffffffff16630d6d3b6e3430307f4865616c74685761726e696e67000000000000000000000000000000000000006000604051602001526040518563ffffffff167c0100000000000000000000000000000000000000000000000000000000028152600401808473ffffffffffffffffffffffffffffffffffffffff1673ffffffffffffffffffffffffffffffffffffffff1681526020018373ffffffffffffffffffffffffffffffffffffffff1673ffffffffffffffffffffffffffffffffffffffff168152602001826000191660001916815260200193505050506020604051808303818588803b151562001d1957600080fd5b6125ee5a03f1151562001d2b57600080fd5b50505050604051805190505062001e86565b600360009054906101000a900473ffffffffffffffffffffffffffffffffffffffff1673ffffffffffffffffffffffffffffffffffffffff16630d6d3b6e3430307f4865616c746855706461746500000000000000000000000000000000000000006000604051602001526040518563ffffffff167c0100000000000000000000000000000000000000000000000000000000028152600401808473ffffffffffffffffffffffffffffffffffffffff1673ffffffffffffffffffffffffffffffffffffffff1681526020018373ffffffffffffffffffffffffffffffffffffffff1673ffffffffffffffffffffffffffffffffffffffff168152602001826000191660001916815260200193505050506020604051808303818588803b151562001e6757600080fd5b6125ee5a03f1151562001e7957600080fd5b5050505060405180519050505b7fb6d7372bb54b80a5b1d60d3b1da737719783cc92a2095f10d9195105f7abeca5816040518082600681111562001eb957fe5b60ff16815260200191505060405180910390a162001ee3346005546200311190919063ffffffff16565b600581905550600760003073ffffffffffffffffffffffffffffffffffffffff1673ffffffffffffffffffffffffffffffffffffffff168152602001908152602001600020805480600101828162001f3c919062003130565b916000526020600020906004020160006080604051908101604052803373ffffffffffffffffffffffffffffffffffffffff1681526020014281526020013481526020016000815250909190915060008201518160000160006101000a81548173ffffffffffffffffffffffffffffffffffffffff021916908373ffffffffffffffffffffffffffffffffffffffff1602179055506020820151816001015560408201518160020155606082015181600301555050505b50565b6000816040518082805190602001908083835b60208310151562002030578051825260208201915060208101905060208303925062002009565b6001836020036101000a03801982511681845116808217855250505050505090500191505060405180910390209050919050565b6000600360009054906101000a900473ffffffffffffffffffffffffffffffffffffffff16905090565b6000600460159054906101000a900460ff16905090565b6000803373ffffffffffffffffffffffffffffffffffffffff1673ffffffffffffffffffffffffffffffffffffffff16815260200190815260200160002060009054906101000a900460ff161515620020fd57600080fd5b6000803373ffffffffffffffffffffffffffffffffffffffff1673ffffffffffffffffffffffffffffffffffffffff16815260200190815260200160002060009054906101000a900460ff1615156200215557600080fd5b60016000808373ffffffffffffffffffffffffffffffffffffffff1673ffffffffffffffffffffffffffffffffffffffff16815260200190815260200160002060006101000a81548160ff02191690831515021790555060018054806001018281620021c291906200318d565b9160005260206000209001600083909190916101000a81548173ffffffffffffffffffffffffffffffffffffffff021916908373ffffffffffffffffffffffffffffffffffffffff1602179055505050565b600260003373ffffffffffffffffffffffffffffffffffffffff1673ffffffffffffffffffffffffffffffffffffffff16815260200190815260200160002060009054906101000a900460ff1615156200226d57600080fd5b600260003373ffffffffffffffffffffffffffffffffffffffff1673ffffffffffffffffffffffffffffffffffffffff16815260200190815260200160002060009054906101000a900460ff161515620022c657600080fd5b6001600260008373ffffffffffffffffffffffffffffffffffffffff1673ffffffffffffffffffffffffffffffffffffffff16815260200190815260200160002060006101000a81548160ff02191690831515021790555050565b6200232b62003165565b600c805480602002602001604051908101604052809291908181526020018280548015620023af57602002820191906000526020600020905b8160009054906101000a900473ffffffffffffffffffffffffffffffffffffffff1673ffffffffffffffffffffffffffffffffffffffff168152602001906001019080831162002364575b5050505050905090565b600460159054906101000a900460ff1681565b60066020528060005260406000206000915090505481565b600260003373ffffffffffffffffffffffffffffffffffffffff1673ffffffffffffffffffffffffffffffffffffffff16815260200190815260200160002060009054906101000a900460ff1615156200243d57600080fd5b600160028111156200244b57fe5b600460149054906101000a900460ff1660028111156200246757fe5b1415156200247457600080fd5b6002600460146101000a81548160ff021916908360028111156200249457fe5b0217905550565b60008060003373ffffffffffffffffffffffffffffffffffffffff1673ffffffffffffffffffffffffffffffffffffffff16815260200190815260200160002060009054906101000a900460ff161515620024f557600080fd5b81600b90805190602001906200250d929190620031bc565b5060019050919050565b600c818154811015156200252757fe5b90600052602060002090016000915054906101000a900473ffffffffffffffffffffffffffffffffffffffff1681565b600460149054906101000a900460ff1681565b6009818154811015156200257a57fe5b90600052602060002090016000915054906101000a900473ffffffffffffffffffffffffffffffffffffffff1681565b6000600260003373ffffffffffffffffffffffffffffffffffffffff1673ffffffffffffffffffffffffffffffffffffffff16815260200190815260200160002060009054906101000a900460ff1615156200260557600080fd5b81600860008560001916600019168152602001908152602001600020908051906020019062002636929190620031bc565b506001905092915050565b60008060003373ffffffffffffffffffffffffffffffffffffffff1673ffffffffffffffffffffffffffffffffffffffff16815260200190815260200160002060009054906101000a900460ff1615156200269b57600080fd5b6000803373ffffffffffffffffffffffffffffffffffffffff1673ffffffffffffffffffffffffffffffffffffffff16815260200190815260200160002060009054906101000a900460ff161515620026f357600080fd5b60008060008473ffffffffffffffffffffffffffffffffffffffff1673ffffffffffffffffffffffffffffffffffffffff16815260200190815260200160002060006101000a81548160ff021916908315150217905550600090505b6001805490508110156200281a576001818154811015156200276d57fe5b906000526020600020900160009054906101000a900473ffffffffffffffffffffffffffffffffffffffff1673ffffffffffffffffffffffffffffffffffffffff168273ffffffffffffffffffffffffffffffffffffffff1614156200280c57600181815481101515620027dd57fe5b906000526020600020900160006101000a81549073ffffffffffffffffffffffffffffffffffffffff02191690555b80806001019150506200274f565b5050565b60008060006200282e8562001ff6565b9150600073ffffffffffffffffffffffffffffffffffffffff16600a6000846000191660001916815260200190815260200160002060009054906101000a900473ffffffffffffffffffffffffffffffffffffffff1673ffffffffffffffffffffffffffffffffffffffff16141562002c455760019050808054806001018281620028ba91906200318d565b9160005260206000209001600030909190916101000a81548173ffffffffffffffffffffffffffffffffffffffff021916908373ffffffffffffffffffffffffffffffffffffffff160217905550508080548060010182816200291e91906200318d565b9160005260206000209001600033909190916101000a81548173ffffffffffffffffffffffffffffffffffffffff021916908373ffffffffffffffffffffffffffffffffffffffff16021790555050600360009054906101000a900473ffffffffffffffffffffffffffffffffffffffff16600186866200299e62003243565b808573ffffffffffffffffffffffffffffffffffffffff1673ffffffffffffffffffffffffffffffffffffffff168152602001806020018060200180602001848103845287818154815260200191508054801562002a5257602002820191906000526020600020905b8160009054906101000a900473ffffffffffffffffffffffffffffffffffffffff1673ffffffffffffffffffffffffffffffffffffffff168152602001906001019080831162002a07575b5050848103835286818151815260200191508051906020019080838360005b8381101562002a8e57808201518184015260208101905062002a71565b50505050905090810190601f16801562002abc5780820380516001836020036101000a031916815260200191505b50848103825285818151815260200191508051906020019080838360005b8381101562002af757808201518184015260208101905062002ada565b50505050905090810190601f16801562002b255780820380516001836020036101000a031916815260200191505b50975050505050505050604051809103906000f080151562002b4657600080fd5b600a6000846000191660001916815260200190815260200160002060006101000a81548173ffffffffffffffffffffffffffffffffffffffff021916908373ffffffffffffffffffffffffffffffffffffffff1602179055506009805480600101828162002bb5919062003254565b91600052602060002090016000600a6000866000191660001916815260200190815260200160002060009054906101000a900473ffffffffffffffffffffffffffffffffffffffff16909190916101000a81548173ffffffffffffffffffffffffffffffffffffffff021916908373ffffffffffffffffffffffffffffffffffffffff1602179055505062002d7e565b600a6000836000191660001916815260200190815260200160002060009054906101000a900473ffffffffffffffffffffffffffffffffffffffff1673ffffffffffffffffffffffffffffffffffffffff16631aae2531856000604051602001526040518263ffffffff167c01000000000000000000000000000000000000000000000000000000000281526004018080602001828103825283818151815260200191508051906020019080838360005b8381101562002d1357808201518184015260208101905062002cf6565b50505050905090810190601f16801562002d415780820380516001836020036101000a031916815260200191505b5092505050602060405180830381600087803b151562002d6057600080fd5b6102c65a03f1151562002d7257600080fd5b50505060405180519050505b600360009054906101000a900473ffffffffffffffffffffffffffffffffffffffff1673ffffffffffffffffffffffffffffffffffffffff16630d6d3b6e3430600a6000876000191660001916815260200190815260200160002060009054906101000a900473ffffffffffffffffffffffffffffffffffffffff167f4d657461446174615570646174650000000000000000000000000000000000006000604051602001526040518563ffffffff167c0100000000000000000000000000000000000000000000000000000000028152600401808473ffffffffffffffffffffffffffffffffffffffff1673ffffffffffffffffffffffffffffffffffffffff1681526020018373ffffffffffffffffffffffffffffffffffffffff1673ffffffffffffffffffffffffffffffffffffffff168152602001826000191660001916815260200193505050506020604051808303818588803b151562002ee357600080fd5b6125ee5a03f1151562002ef557600080fd5b505050506040518051905050600a6000836000191660001916815260200190815260200160002060009054906101000a900473ffffffffffffffffffffffffffffffffffffffff169250505092915050565b600d6020528060005260406000206000915054906101000a900473ffffffffffffffffffffffffffffffffffffffff1681565b62002f8462003283565b60098054806020026020016040519081016040528092919081815260200182805480156200300857602002820191906000526020600020905b8160009054906101000a900473ffffffffffffffffffffffffffffffffffffffff1673ffffffffffffffffffffffffffffffffffffffff168152602001906001019080831162002fbd575b5050505050905090565b600460009054906101000a900473ffffffffffffffffffffffffffffffffffffffff1681565b6200304262003179565b600260003373ffffffffffffffffffffffffffffffffffffffff1673ffffffffffffffffffffffffffffffffffffffff16815260200190815260200160002060009054906101000a900460ff1615156200309b57600080fd5b6200310a826040518082805190602001908083835b602083101515620030d75780518252602082019150602081019050602083039250620030b0565b6001836020036101000a038019825116818451168082178552505050505050905001915050604051809103902062001a51565b9050919050565b60008082840190508381101515156200312657fe5b8091505092915050565b81548183558181151162003160576004028160040283600052602060002091820191016200315f919062003297565b5b505050565b602060405190810160405280600081525090565b602060405190810160405280600081525090565b815481835581811511620031b757818360005260206000209182019101620031b69190620032f8565b5b505050565b828054600181600116156101000203166002900490600052602060002090601f016020900481019282601f10620031ff57805160ff191683800117855562003230565b8280016001018555821562003230579182015b828111156200322f57825182559160200191906001019062003212565b5b5090506200323f9190620032f8565b5090565b604051610ff0806200332183390190565b8154818355818115116200327e578183600052602060002091820191016200327d9190620032f8565b5b505050565b602060405190810160405280600081525090565b620032f591905b80821115620032f157600080820160006101000a81549073ffffffffffffffffffffffffffffffffffffffff0219169055600182016000905560028201600090556003820160009055506004016200329e565b5090565b90565b6200331d91905b8082111562003319576000816000905550600101620032ff565b5090565b905600606060405234156200001057600080fd5b60405162000ff038038062000ff0833981016040528080519060200190919080518201919060200180518201919060200180518201919050508260008090505b8151811015620000d757600160008084848151811015156200006e57fe5b9060200190602002015173ffffffffffffffffffffffffffffffffffffffff1673ffffffffffffffffffffffffffffffffffffffff16815260200190815260200160002060006101000a81548160ff021916908315150217905550808060010191505062000050565b8160019080519060200190620000ef9291906200016f565b50505083600260006101000a81548173ffffffffffffffffffffffffffffffffffffffff021916908373ffffffffffffffffffffffffffffffffffffffff16021790555081600390805190602001906200014b929190620001fe565b50806004908051906020019062000164929190620001fe565b5050505050620002f3565b828054828255906000526020600020908101928215620001eb579160200282015b82811115620001ea5782518260006101000a81548173ffffffffffffffffffffffffffffffffffffffff021916908373ffffffffffffffffffffffffffffffffffffffff1602179055509160200191906001019062000190565b5b509050620001fa919062000285565b5090565b828054600181600116156101000203166002900490600052602060002090601f016020900481019282601f106200024157805160ff191683800117855562000272565b8280016001018555821562000272579182015b828111156200027157825182559160200191906001019062000254565b5b509050620002819190620002cb565b5090565b620002c891905b80821115620002c457600081816101000a81549073ffffffffffffffffffffffffffffffffffffffff0219169055506001016200028c565b5090565b90565b620002f091905b80821115620002ec576000816000905550600101620002d2565b5090565b90565b610ced80620003036000396000f300606060405260043610610099576000357c0100000000000000000000000000000000000000000000000000000000900463ffffffff1680630fe4e9e81461009e57806314bfd6d01461013a5780631aae25311461019d57806324d7806c1461021257806331ae450b146102635780633c6bb436146102cd578063704802751461035b578063ce26e78a14610394578063e1b2e8b314610422575b600080fd5b34156100a957600080fd5b6100bf600480803590602001909190505061045b565b6040518080602001828103825283818151815260200191508051906020019080838360005b838110156100ff5780820151818401526020810190506100e4565b50505050905090810190601f16801561012c5780820380516001836020036101000a031916815260200191505b509250505060405180910390f35b341561014557600080fd5b61015b6004808035906020019091905050610517565b604051808273ffffffffffffffffffffffffffffffffffffffff1673ffffffffffffffffffffffffffffffffffffffff16815260200191505060405180910390f35b34156101a857600080fd5b6101f8600480803590602001908201803590602001908080601f01602080910402602001604051908101604052809392919081815260200183838082843782019150505050505091905050610556565b604051808215151515815260200191505060405180910390f35b341561021d57600080fd5b610249600480803573ffffffffffffffffffffffffffffffffffffffff1690602001909190505061060b565b604051808215151515815260200191505060405180910390f35b341561026e57600080fd5b61027661062b565b6040518080602001828103825283818151815260200191508051906020019060200280838360005b838110156102b957808201518184015260208101905061029e565b505050509050019250505060405180910390f35b34156102d857600080fd5b6102e06106bf565b6040518080602001828103825283818151815260200191508051906020019080838360005b83811015610320578082015181840152602081019050610305565b50505050905090810190601f16801561034d5780820380516001836020036101000a031916815260200191505b509250505060405180910390f35b341561036657600080fd5b610392600480803573ffffffffffffffffffffffffffffffffffffffff1690602001909190505061075d565b005b341561039f57600080fd5b6103a76108c8565b6040518080602001828103825283818151815260200191508051906020019080838360005b838110156103e75780820151818401526020810190506103cc565b50505050905090810190601f1680156104145780820380516001836020036101000a031916815260200191505b509250505060405180910390f35b341561042d57600080fd5b610459600480803573ffffffffffffffffffffffffffffffffffffffff16906020019091905050610966565b005b60058181548110151561046a57fe5b90600052602060002090016000915090508054600181600116156101000203166002900480601f01602080910402602001604051908101604052809291908181526020018280546001816001161561010002031660029004801561050f5780601f106104e45761010080835404028352916020019161050f565b820191906000526020600020905b8154815290600101906020018083116104f257829003601f168201915b505050505081565b60018181548110151561052657fe5b90600052602060002090016000915054906101000a900473ffffffffffffffffffffffffffffffffffffffff1681565b60008060003373ffffffffffffffffffffffffffffffffffffffff1673ffffffffffffffffffffffffffffffffffffffff16815260200190815260200160002060009054906101000a900460ff1615156105af57600080fd5b600580548060010182816105c39190610b3c565b9160005260206000209001600084909190915090805190602001906105e9929190610b68565b50508160049080519060200190610601929190610b68565b5060019050919050565b60006020528060005260406000206000915054906101000a900460ff1681565b610633610be8565b60018054806020026020016040519081016040528092919081815260200182805480156106b557602002820191906000526020600020905b8160009054906101000a900473ffffffffffffffffffffffffffffffffffffffff1673ffffffffffffffffffffffffffffffffffffffff168152602001906001019080831161066b575b5050505050905090565b60048054600181600116156101000203166002900480601f0160208091040260200160405190810160405280929190818152602001828054600181600116156101000203166002900480156107555780601f1061072a57610100808354040283529160200191610755565b820191906000526020600020905b81548152906001019060200180831161073857829003601f168201915b505050505081565b6000803373ffffffffffffffffffffffffffffffffffffffff1673ffffffffffffffffffffffffffffffffffffffff16815260200190815260200160002060009054906101000a900460ff1615156107b457600080fd5b6000803373ffffffffffffffffffffffffffffffffffffffff1673ffffffffffffffffffffffffffffffffffffffff16815260200190815260200160002060009054906101000a900460ff16151561080b57600080fd5b60016000808373ffffffffffffffffffffffffffffffffffffffff1673ffffffffffffffffffffffffffffffffffffffff16815260200190815260200160002060006101000a81548160ff021916908315150217905550600180548060010182816108769190610bfc565b9160005260206000209001600083909190916101000a81548173ffffffffffffffffffffffffffffffffffffffff021916908373ffffffffffffffffffffffffffffffffffffffff1602179055505050565b60038054600181600116156101000203166002900480601f01602080910402602001604051908101604052809291908181526020018280546001816001161561010002031660029004801561095e5780601f106109335761010080835404028352916020019161095e565b820191906000526020600020905b81548152906001019060200180831161094157829003601f168201915b505050505081565b60008060003373ffffffffffffffffffffffffffffffffffffffff1673ffffffffffffffffffffffffffffffffffffffff16815260200190815260200160002060009054906101000a900460ff1615156109bf57600080fd5b6000803373ffffffffffffffffffffffffffffffffffffffff1673ffffffffffffffffffffffffffffffffffffffff16815260200190815260200160002060009054906101000a900460ff161515610a1657600080fd5b60008060008473ffffffffffffffffffffffffffffffffffffffff1673ffffffffffffffffffffffffffffffffffffffff16815260200190815260200160002060006101000a81548160ff021916908315150217905550600090505b600180549050811015610b3857600181815481101515610a8e57fe5b906000526020600020900160009054906101000a900473ffffffffffffffffffffffffffffffffffffffff1673ffffffffffffffffffffffffffffffffffffffff168273ffffffffffffffffffffffffffffffffffffffff161415610b2b57600181815481101515610afc57fe5b906000526020600020900160006101000a81549073ffffffffffffffffffffffffffffffffffffffff02191690555b8080600101915050610a72565b5050565b815481835581811511610b6357818360005260206000209182019101610b629190610c28565b5b505050565b828054600181600116156101000203166002900490600052602060002090601f016020900481019282601f10610ba957805160ff1916838001178555610bd7565b82800160010185558215610bd7579182015b82811115610bd6578251825591602001919060010190610bbb565b5b509050610be49190610c54565b5090565b602060405190810160405280600081525090565b815481835581811511610c2357818360005260206000209182019101610c229190610c54565b5b505050565b610c5191905b80821115610c4d5760008181610c449190610c79565b50600101610c2e565b5090565b90565b610c7691905b80821115610c72576000816000905550600101610c5a565b5090565b90565b50805460018160011615610100020316600290046000825580601f10610c9f5750610cbe565b601f016020900490600052602060002090810190610cbd9190610c54565b5b505600a165627a7a72305820e440d4d001ab8f5f9f08987edd450b0cc9129f975c38f2b4273900bc8b8222e40029a165627a7a72305820fd69d368c2afb9191e3c38f03cf5764fc0947ef06e67863bda745626fc90763f0029",
  "source": "pragma solidity ^0.4.18; //We have to specify what version of the compiler this code will use\n\nimport \"./NodeMetaData.sol\";\n\ncontract Catalogue is NodeMetaData {\n       \n  // PAS212:216\n  string public href;\n  address[] public items;  \n  // MetaData[] meta; // inherited from NodeMetaData\n  // PAS212:216\n  \n  mapping (bytes32 => address) public nodeData; \n \n  function Catalogue(SmartKey _smartKey, address[] _adminAddress) \n  public\n  NodeMetaData(_smartKey, _adminAddress) \n  {\n  }\n  \n  function selectItems() \n  constant\n  public\n  returns (address[]) \n  {\n         return items;\n  }\n\n  function setHref(string _href) \n  public\n  onlyAdmin\n  returns (bool)\n  {\n      \n      href=_href;\n      return true;      \n  }\n\n}",
  "sourcePath": "/windata/iotblock/contracts/Catalogue.sol",
  "compiler": {
    "name": "solc",
    "version": "0.4.19+commit.c4cbbb05.Emscripten.clang"
  },
  "schemaVersion": "2.0.0",
  "updatedAt": "2018-11-14T10:29:04.403Z"
}