{
  "contractName": "Catalogue",
  "abi": [
    {
      "constant": false,
      "inputs": [
        {
          "name": "key",
          "type": "string"
        },
        {
          "name": "value",
          "type": "string"
        }
      ],
      "name": "addKeyAuth",
      "outputs": [
        {
          "name": "",
          "type": "bool"
        }
      ],
      "payable": false,
      "stateMutability": "nonpayable",
      "type": "function"
    },
    {
      "constant": true,
      "inputs": [],
      "name": "smartKey",
      "outputs": [
        {
          "name": "",
          "type": "address"
        }
      ],
      "payable": false,
      "stateMutability": "view",
      "type": "function"
    },
    {
      "constant": true,
      "inputs": [
        {
          "name": "",
          "type": "address"
        },
        {
          "name": "",
          "type": "uint256"
        }
      ],
      "name": "transactions",
      "outputs": [
        {
          "name": "account",
          "type": "address"
        },
        {
          "name": "date",
          "type": "uint256"
        },
        {
          "name": "amount",
          "type": "uint256"
        },
        {
          "name": "transaction_type",
          "type": "uint256"
        }
      ],
      "payable": false,
      "stateMutability": "view",
      "type": "function"
    },
    {
      "constant": true,
      "inputs": [
        {
          "name": "",
          "type": "uint256"
        }
      ],
      "name": "admins",
      "outputs": [
        {
          "name": "",
          "type": "address"
        }
      ],
      "payable": false,
      "stateMutability": "view",
      "type": "function"
    },
    {
      "constant": false,
      "inputs": [
        {
          "name": "_owner",
          "type": "address"
        }
      ],
      "name": "removeOwner",
      "outputs": [],
      "payable": false,
      "stateMutability": "nonpayable",
      "type": "function"
    },
    {
      "constant": true,
      "inputs": [],
      "name": "getHealthStatus",
      "outputs": [
        {
          "name": "",
          "type": "bytes32"
        }
      ],
      "payable": false,
      "stateMutability": "view",
      "type": "function"
    },
    {
      "constant": true,
      "inputs": [],
      "name": "contrib_amount",
      "outputs": [
        {
          "name": "",
          "type": "uint256"
        }
      ],
      "payable": false,
      "stateMutability": "view",
      "type": "function"
    },
    {
      "constant": true,
      "inputs": [
        {
          "name": "_address",
          "type": "address"
        }
      ],
      "name": "getTransactionCount",
      "outputs": [
        {
          "name": "",
          "type": "uint256"
        }
      ],
      "payable": false,
      "stateMutability": "view",
      "type": "function"
    },
    {
      "constant": true,
      "inputs": [
        {
          "name": "",
          "type": "address"
        }
      ],
      "name": "isAdmin",
      "outputs": [
        {
          "name": "",
          "type": "bool"
        }
      ],
      "payable": false,
      "stateMutability": "view",
      "type": "function"
    },
    {
      "constant": true,
      "inputs": [
        {
          "name": "",
          "type": "address"
        }
      ],
      "name": "isOwner",
      "outputs": [
        {
          "name": "",
          "type": "bool"
        }
      ],
      "payable": false,
      "stateMutability": "view",
      "type": "function"
    },
    {
      "constant": true,
      "inputs": [],
      "name": "getAdmins",
      "outputs": [
        {
          "name": "",
          "type": "address[]"
        }
      ],
      "payable": false,
      "stateMutability": "view",
      "type": "function"
    },
    {
      "constant": true,
      "inputs": [],
      "name": "href",
      "outputs": [
        {
          "name": "",
          "type": "string"
        }
      ],
      "payable": false,
      "stateMutability": "view",
      "type": "function"
    },
    {
      "constant": false,
      "inputs": [
        {
          "name": "amount",
          "type": "uint256"
        },
        {
          "name": "beneficiary",
          "type": "address"
        }
      ],
      "name": "transferEth",
      "outputs": [],
      "payable": false,
      "stateMutability": "nonpayable",
      "type": "function"
    },
    {
      "constant": true,
      "inputs": [
        {
          "name": "hash",
          "type": "bytes32"
        }
      ],
      "name": "getValueByHash",
      "outputs": [
        {
          "name": "",
          "type": "string"
        }
      ],
      "payable": false,
      "stateMutability": "view",
      "type": "function"
    },
    {
      "constant": true,
      "inputs": [
        {
          "name": "",
          "type": "bytes32"
        }
      ],
      "name": "itemMetaData",
      "outputs": [
        {
          "name": "",
          "type": "address"
        }
      ],
      "payable": false,
      "stateMutability": "view",
      "type": "function"
    },
    {
      "constant": false,
      "inputs": [
        {
          "name": "_health",
          "type": "uint8"
        }
      ],
      "name": "setHealth",
      "outputs": [],
      "payable": true,
      "stateMutability": "payable",
      "type": "function"
    },
    {
      "constant": true,
      "inputs": [
        {
          "name": "key",
          "type": "string"
        }
      ],
      "name": "getHash",
      "outputs": [
        {
          "name": "",
          "type": "bytes32"
        }
      ],
      "payable": false,
      "stateMutability": "pure",
      "type": "function"
    },
    {
      "constant": true,
      "inputs": [],
      "name": "getSmartKey",
      "outputs": [
        {
          "name": "",
          "type": "address"
        }
      ],
      "payable": false,
      "stateMutability": "view",
      "type": "function"
    },
    {
      "constant": true,
      "inputs": [],
      "name": "getHealth",
      "outputs": [
        {
          "name": "",
          "type": "uint8"
        }
      ],
      "payable": false,
      "stateMutability": "view",
      "type": "function"
    },
    {
      "constant": false,
      "inputs": [
        {
          "name": "admin",
          "type": "address"
        }
      ],
      "name": "addAdmin",
      "outputs": [],
      "payable": false,
      "stateMutability": "nonpayable",
      "type": "function"
    },
    {
      "constant": false,
      "inputs": [
        {
          "name": "_owner",
          "type": "address"
        }
      ],
      "name": "addOwner",
      "outputs": [],
      "payable": false,
      "stateMutability": "nonpayable",
      "type": "function"
    },
    {
      "constant": true,
      "inputs": [],
      "name": "health",
      "outputs": [
        {
          "name": "",
          "type": "uint8"
        }
      ],
      "payable": false,
      "stateMutability": "view",
      "type": "function"
    },
    {
      "constant": true,
      "inputs": [
        {
          "name": "",
          "type": "address"
        }
      ],
      "name": "activated",
      "outputs": [
        {
          "name": "",
          "type": "uint256"
        }
      ],
      "payable": false,
      "stateMutability": "view",
      "type": "function"
    },
    {
      "constant": false,
      "inputs": [
        {
          "name": "user",
          "type": "address"
        }
      ],
      "name": "activateKey",
      "outputs": [],
      "payable": true,
      "stateMutability": "payable",
      "type": "function"
    },
    {
      "constant": false,
      "inputs": [
        {
          "name": "amount",
          "type": "uint256"
        },
        {
          "name": "beneficiary",
          "type": "address"
        }
      ],
      "name": "transfer",
      "outputs": [],
      "payable": false,
      "stateMutability": "nonpayable",
      "type": "function"
    },
    {
      "constant": true,
      "inputs": [
        {
          "name": "",
          "type": "uint256"
        }
      ],
      "name": "items",
      "outputs": [
        {
          "name": "",
          "type": "address"
        }
      ],
      "payable": false,
      "stateMutability": "view",
      "type": "function"
    },
    {
      "constant": true,
      "inputs": [],
      "name": "state",
      "outputs": [
        {
          "name": "",
          "type": "uint8"
        }
      ],
      "payable": false,
      "stateMutability": "view",
      "type": "function"
    },
    {
      "constant": true,
      "inputs": [
        {
          "name": "",
          "type": "uint256"
        }
      ],
      "name": "meta",
      "outputs": [
        {
          "name": "",
          "type": "address"
        }
      ],
      "payable": false,
      "stateMutability": "view",
      "type": "function"
    },
    {
      "constant": false,
      "inputs": [
        {
          "name": "hash",
          "type": "bytes32"
        },
        {
          "name": "value",
          "type": "string"
        }
      ],
      "name": "addKeyValueByHash",
      "outputs": [
        {
          "name": "",
          "type": "bool"
        }
      ],
      "payable": false,
      "stateMutability": "nonpayable",
      "type": "function"
    },
    {
      "constant": false,
      "inputs": [
        {
          "name": "banned",
          "type": "address"
        }
      ],
      "name": "addBanned",
      "outputs": [],
      "payable": false,
      "stateMutability": "nonpayable",
      "type": "function"
    },
    {
      "constant": false,
      "inputs": [
        {
          "name": "_rel",
          "type": "string"
        },
        {
          "name": "_val",
          "type": "string"
        }
      ],
      "name": "upsertMetaData",
      "outputs": [
        {
          "name": "",
          "type": "address"
        }
      ],
      "payable": true,
      "stateMutability": "payable",
      "type": "function"
    },
    {
      "constant": true,
      "inputs": [
        {
          "name": "",
          "type": "bytes32"
        }
      ],
      "name": "nodeData",
      "outputs": [
        {
          "name": "",
          "type": "address"
        }
      ],
      "payable": false,
      "stateMutability": "view",
      "type": "function"
    },
    {
      "constant": true,
      "inputs": [],
      "name": "selectMetaData",
      "outputs": [
        {
          "name": "",
          "type": "address[]"
        }
      ],
      "payable": false,
      "stateMutability": "view",
      "type": "function"
    },
    {
      "constant": true,
      "inputs": [],
      "name": "vault",
      "outputs": [
        {
          "name": "",
          "type": "address"
        }
      ],
      "payable": false,
      "stateMutability": "view",
      "type": "function"
    },
    {
      "constant": true,
      "inputs": [
        {
          "name": "key",
          "type": "string"
        }
      ],
      "name": "getKeyAuth",
      "outputs": [
        {
          "name": "",
          "type": "string"
        }
      ],
      "payable": false,
      "stateMutability": "view",
      "type": "function"
    },
    {
      "inputs": [
        {
          "name": "_smartKey",
          "type": "address"
        },
        {
          "name": "_adminAddress",
          "type": "address[]"
        }
      ],
      "payable": false,
      "stateMutability": "nonpayable",
      "type": "constructor"
    },
    {
      "payable": true,
      "stateMutability": "payable",
      "type": "fallback"
    },
    {
      "anonymous": false,
      "inputs": [
        {
          "indexed": false,
          "name": "status",
          "type": "uint8"
        }
      ],
      "name": "HealthUpdate",
      "type": "event"
    },
    {
      "constant": true,
      "inputs": [],
      "name": "selectItems",
      "outputs": [
        {
          "name": "",
          "type": "address[]"
        }
      ],
      "payable": false,
      "stateMutability": "view",
      "type": "function"
    },
    {
      "constant": false,
      "inputs": [
        {
          "name": "_href",
          "type": "string"
        }
      ],
      "name": "setHref",
      "outputs": [
        {
          "name": "",
          "type": "bool"
        }
      ],
      "payable": false,
      "stateMutability": "nonpayable",
      "type": "function"
    }
  ],
  "bytecode": "0x60806040523480156200001157600080fd5b5060405162004868380380620048688339810180604052810190808051906020019092919080518201929190505050818181308260008090505b8151811015620000d257600160008084848151811015156200006957fe5b9060200190602002015173ffffffffffffffffffffffffffffffffffffffff1673ffffffffffffffffffffffffffffffffffffffff16815260200190815260200160002060006101000a81548160ff02191690831515021790555080806001019150506200004b565b8160019080519060200190620000ea92919062000310565b5050506001600260003373ffffffffffffffffffffffffffffffffffffffff1673ffffffffffffffffffffffffffffffffffffffff16815260200190815260200160002060006101000a81548160ff02191690831515021790555060008173ffffffffffffffffffffffffffffffffffffffff16141515156200016c57600080fd5b80600460006101000a81548173ffffffffffffffffffffffffffffffffffffffff021916908373ffffffffffffffffffffffffffffffffffffffff16021790555081600360006101000a81548173ffffffffffffffffffffffffffffffffffffffff021916908373ffffffffffffffffffffffffffffffffffffffff1602179055506000600460146101000a81548160ff021916908360028111156200020e57fe5b02179055506001600260008373ffffffffffffffffffffffffffffffffffffffff1673ffffffffffffffffffffffffffffffffffffffff16815260200190815260200160002060006101000a81548160ff0219169083151502179055506001600260008473ffffffffffffffffffffffffffffffffffffffff1673ffffffffffffffffffffffffffffffffffffffff16815260200190815260200160002060006101000a81548160ff021916908315150217905550505081600360006101000a81548173ffffffffffffffffffffffffffffffffffffffff021916908373ffffffffffffffffffffffffffffffffffffffff16021790555050505050620003e5565b8280548282559060005260206000209081019282156200038c579160200282015b828111156200038b5782518260006101000a81548173ffffffffffffffffffffffffffffffffffffffff021916908373ffffffffffffffffffffffffffffffffffffffff1602179055509160200191906001019062000331565b5b5090506200039b91906200039f565b5090565b620003e291905b80821115620003de57600081816101000a81549073ffffffffffffffffffffffffffffffffffffffff021916905550600101620003a6565b5090565b90565b61447380620003f56000396000f300608060405260043610620001f3576000357c0100000000000000000000000000000000000000000000000000000000900463ffffffff16806303db428d1462000200578063113adf4914620002ca57806314538128146200032457806314bfd6d014620003c9578063173825d914620004395780631801e156146200047f578063202e079d14620004b557806323ca0cd214620004e357806324d7806c146200053d5780632f54bf6e146200059b57806331ae450b14620005f957806336eeaa6a146200066a57806349f9c0e414620007005780635436e5a014620007505780635571edeb14620008005780635b2ce58614620008745780635b6beeb914620008995780635c866c781462000921578063640e7fd5146200097b5780637048027514620009b85780637065cb4814620009fe57806374ddcd6e1462000a445780637633a22c1462000ab5578063779d86771462000af25780639172fe081462000b4c578063b7760c8f1462000b84578063b9d191661462000bd4578063bfb231d21462000c58578063c19d93fb1462000cc8578063cd5cfdaf1462000d05578063d4c2f75c1462000d75578063e1b2e8b31462000e07578063ec6f214e1462000e4d578063f63553b51462000f31578063f95fd40b1462000fa5578063fbfa77cf1462001016578063fd08e0c71462001070575b620001fe3362001158565b005b3480156200020d57600080fd5b50620002b0600480360381019080803590602001908201803590602001908080601f0160208091040260200160405190810160405280939291908181526020018383808284378201915050505050509192919290803590602001908201803590602001908080601f01602080910402602001604051908101604052809392919081815260200183838082843782019150505050505091929192905050506200119d565b604051808215151515815260200191505060405180910390f35b348015620002d757600080fd5b50620002e262001270565b604051808273ffffffffffffffffffffffffffffffffffffffff1673ffffffffffffffffffffffffffffffffffffffff16815260200191505060405180910390f35b3480156200033157600080fd5b5062000372600480360381019080803573ffffffffffffffffffffffffffffffffffffffff1690602001909291908035906020019092919050505062001296565b604051808573ffffffffffffffffffffffffffffffffffffffff1673ffffffffffffffffffffffffffffffffffffffff16815260200184815260200183815260200182815260200194505050505060405180910390f35b348015620003d657600080fd5b50620003f76004803603810190808035906020019092919050505062001303565b604051808273ffffffffffffffffffffffffffffffffffffffff1673ffffffffffffffffffffffffffffffffffffffff16815260200191505060405180910390f35b3480156200044657600080fd5b506200047d600480360381019080803573ffffffffffffffffffffffffffffffffffffffff16906020019092919050505062001342565b005b3480156200048c57600080fd5b50620004976200144f565b60405180826000191660001916815260200191505060405180910390f35b348015620004c257600080fd5b50620004cd620016ec565b6040518082815260200191505060405180910390f35b348015620004f057600080fd5b5062000527600480360381019080803573ffffffffffffffffffffffffffffffffffffffff169060200190929190505050620016f2565b6040518082815260200191505060405180910390f35b3480156200054a57600080fd5b5062000581600480360381019080803573ffffffffffffffffffffffffffffffffffffffff1690602001909291905050506200173e565b604051808215151515815260200191505060405180910390f35b348015620005a857600080fd5b50620005df600480360381019080803573ffffffffffffffffffffffffffffffffffffffff1690602001909291905050506200175e565b604051808215151515815260200191505060405180910390f35b3480156200060657600080fd5b50620006116200177e565b6040518080602001828103825283818151815260200191508051906020019060200280838360005b838110156200065657808201518184015260208101905062000639565b505050509050019250505060405180910390f35b3480156200067757600080fd5b50620006826200180e565b6040518080602001828103825283818151815260200191508051906020019080838360005b83811015620006c4578082015181840152602081019050620006a7565b50505050905090810190601f168015620006f25780820380516001836020036101000a031916815260200191505b509250505060405180910390f35b3480156200070d57600080fd5b506200074e60048036038101908080359060200190929190803573ffffffffffffffffffffffffffffffffffffffff169060200190929190505050620018b0565b005b3480156200075d57600080fd5b5062000782600480360381019080803560001916906020019092919050505062001a97565b6040518080602001828103825283818151815260200191508051906020019080838360005b83811015620007c4578082015181840152602081019050620007a7565b50505050905090810190601f168015620007f25780820380516001836020036101000a031916815260200191505b509250505060405180910390f35b3480156200080d57600080fd5b5062000832600480360381019080803560001916906020019092919050505062001bb1565b604051808273ffffffffffffffffffffffffffffffffffffffff1673ffffffffffffffffffffffffffffffffffffffff16815260200191505060405180910390f35b62000897600480360381019080803560ff16906020019092919050505062001be4565b005b348015620008a657600080fd5b5062000903600480360381019080803590602001908201803590602001908080601f0160208091040260200160405190810160405280939291908181526020018383808284378201915050505050509192919290505050620020a2565b60405180826000191660001916815260200191505060405180910390f35b3480156200092e57600080fd5b506200093962002110565b604051808273ffffffffffffffffffffffffffffffffffffffff1673ffffffffffffffffffffffffffffffffffffffff16815260200191505060405180910390f35b3480156200098857600080fd5b50620009936200213a565b60405180826006811115620009a457fe5b60ff16815260200191505060405180910390f35b348015620009c557600080fd5b50620009fc600480360381019080803573ffffffffffffffffffffffffffffffffffffffff16906020019092919050505062002151565b005b34801562000a0b57600080fd5b5062000a42600480360381019080803573ffffffffffffffffffffffffffffffffffffffff169060200190929190505050620022c1565b005b34801562000a5157600080fd5b5062000a5c620023ce565b6040518080602001828103825283818151815260200191508051906020019060200280838360005b8381101562000aa157808201518184015260208101905062000a84565b505050509050019250505060405180910390f35b34801562000ac257600080fd5b5062000acd6200245e565b6040518082600681111562000ade57fe5b60ff16815260200191505060405180910390f35b34801562000aff57600080fd5b5062000b36600480360381019080803573ffffffffffffffffffffffffffffffffffffffff16906020019092919050505062002471565b6040518082815260200191505060405180910390f35b62000b82600480360381019080803573ffffffffffffffffffffffffffffffffffffffff16906020019092919050505062001158565b005b34801562000b9157600080fd5b5062000bd260048036038101908080359060200190929190803573ffffffffffffffffffffffffffffffffffffffff16906020019092919050505062002489565b005b34801562000be157600080fd5b5062000c3e600480360381019080803590602001908201803590602001908080601f01602080910402602001604051908101604052809392919081815260200183838082843782019150505050505091929192905050506200272c565b604051808215151515815260200191505060405180910390f35b34801562000c6557600080fd5b5062000c8660048036038101908080359060200190929190505050620027a8565b604051808273ffffffffffffffffffffffffffffffffffffffff1673ffffffffffffffffffffffffffffffffffffffff16815260200191505060405180910390f35b34801562000cd557600080fd5b5062000ce0620027e7565b6040518082600281111562000cf157fe5b60ff16815260200191505060405180910390f35b34801562000d1257600080fd5b5062000d3360048036038101908080359060200190929190505050620027fa565b604051808273ffffffffffffffffffffffffffffffffffffffff1673ffffffffffffffffffffffffffffffffffffffff16815260200191505060405180910390f35b34801562000d8257600080fd5b5062000ded6004803603810190808035600019169060200190929190803590602001908201803590602001908080601f016020809104026020016040519081016040528093929190818152602001838380828437820191505050505050919291929050505062002839565b604051808215151515815260200191505060405180910390f35b34801562000e1457600080fd5b5062000e4b600480360381019080803573ffffffffffffffffffffffffffffffffffffffff169060200190929190505050620028d0565b005b62000eef600480360381019080803590602001908201803590602001908080601f0160208091040260200160405190810160405280939291908181526020018383808284378201915050505050509192919290803590602001908201803590602001908080601f016020809104026020016040519081016040528093929190818152602001838380828437820191505050505050919291929050505062002aab565b604051808273ffffffffffffffffffffffffffffffffffffffff1673ffffffffffffffffffffffffffffffffffffffff16815260200191505060405180910390f35b34801562000f3e57600080fd5b5062000f63600480360381019080803560001916906020019092919050505062003210565b604051808273ffffffffffffffffffffffffffffffffffffffff1673ffffffffffffffffffffffffffffffffffffffff16815260200191505060405180910390f35b34801562000fb257600080fd5b5062000fbd62003243565b6040518080602001828103825283818151815260200191508051906020019060200280838360005b838110156200100257808201518184015260208101905062000fe5565b505050509050019250505060405180910390f35b3480156200102357600080fd5b506200102e620032d3565b604051808273ffffffffffffffffffffffffffffffffffffffff1673ffffffffffffffffffffffffffffffffffffffff16815260200191505060405180910390f35b3480156200107d57600080fd5b50620010da600480360381019080803590602001908201803590602001908080601f0160208091040260200160405190810160405280939291908181526020018383808284378201915050505050509192919290505050620032f9565b6040518080602001828103825283818151815260200191508051906020019080838360005b838110156200111c578082015181840152602081019050620010ff565b50505050905090810190601f1680156200114a5780820380516001836020036101000a031916815260200191505b509250505060405180910390f35b6001600460146101000a81548160ff021916908360028111156200117857fe5b02179055506200119434600554620033ca90919063ffffffff16565b60058190555050565b6000600260003373ffffffffffffffffffffffffffffffffffffffff1673ffffffffffffffffffffffffffffffffffffffff16815260200190815260200160002060009054906101000a900460ff161515620011f857600080fd5b62001268836040518082805190602001908083835b6020831015156200123457805182526020820191506020810190506020830392506200120d565b6001836020036101000a03801982511681845116808217855250505050505090500191505060405180910390208362002839565b905092915050565b600360009054906101000a900473ffffffffffffffffffffffffffffffffffffffff1681565b600760205281600052604060002081815481101515620012b257fe5b9060005260206000209060040201600091509150508060000160009054906101000a900473ffffffffffffffffffffffffffffffffffffffff16908060010154908060020154908060030154905084565b6001818154811015156200131357fe5b906000526020600020016000915054906101000a900473ffffffffffffffffffffffffffffffffffffffff1681565b600260003373ffffffffffffffffffffffffffffffffffffffff1673ffffffffffffffffffffffffffffffffffffffff16815260200190815260200160002060009054906101000a900460ff1615156200139b57600080fd5b600260003373ffffffffffffffffffffffffffffffffffffffff1673ffffffffffffffffffffffffffffffffffffffff16815260200190815260200160002060009054906101000a900460ff161515620013f457600080fd5b6000600260008373ffffffffffffffffffffffffffffffffffffffff1673ffffffffffffffffffffffffffffffffffffffff16815260200190815260200160002060006101000a81548160ff02191690831515021790555050565b60008060068111156200145e57fe5b600460159054906101000a900460ff1660068111156200147a57fe5b1415620014aa577f50726f766973696f6e696e6700000000000000000000000000000000000000009050620016e9565b60016006811115620014b857fe5b600460159054906101000a900460ff166006811115620014d457fe5b141562001504577f43657274696669656400000000000000000000000000000000000000000000009050620016e9565b600260068111156200151257fe5b600460159054906101000a900460ff1660068111156200152e57fe5b14156200155e577f4d6f6469666965640000000000000000000000000000000000000000000000009050620016e9565b600360068111156200156c57fe5b600460159054906101000a900460ff1660068111156200158857fe5b1415620015b8577f436f6d70726f6d697365640000000000000000000000000000000000000000009050620016e9565b60046006811115620015c657fe5b600460159054906101000a900460ff166006811115620015e257fe5b141562001612577f4d616c66756e6374696f6e696e670000000000000000000000000000000000009050620016e9565b600560068111156200162057fe5b600460159054906101000a900460ff1660068111156200163c57fe5b14156200166c577f4861726d66756c000000000000000000000000000000000000000000000000009050620016e9565b6006808111156200167957fe5b600460159054906101000a900460ff1660068111156200169557fe5b1415620016c5577f436f756e746572666569740000000000000000000000000000000000000000009050620016e9565b7f436f756e7465726665697400000000000000000000000000000000000000000090505b90565b60055481565b6000600760008373ffffffffffffffffffffffffffffffffffffffff1673ffffffffffffffffffffffffffffffffffffffff168152602001908152602001600020805490509050919050565b60006020528060005260406000206000915054906101000a900460ff1681565b60026020528060005260406000206000915054906101000a900460ff1681565b606060018054806020026020016040519081016040528092919081815260200182805480156200180457602002820191906000526020600020905b8160009054906101000a900473ffffffffffffffffffffffffffffffffffffffff1673ffffffffffffffffffffffffffffffffffffffff1681526020019060010190808311620017b9575b5050505050905090565b600b8054600181600116156101000203166002900480601f016020809104026020016040519081016040528092919081815260200182805460018160011615610100020316600290048015620018a85780601f106200187c57610100808354040283529160200191620018a8565b820191906000526020600020905b8154815290600101906020018083116200188a57829003601f168201915b505050505081565b600260003373ffffffffffffffffffffffffffffffffffffffff1673ffffffffffffffffffffffffffffffffffffffff16815260200190815260200160002060009054906101000a900460ff1615156200190957600080fd5b600160028111156200191757fe5b600460149054906101000a900460ff1660028111156200193357fe5b1415156200194057600080fd5b8073ffffffffffffffffffffffffffffffffffffffff166108fc839081150290604051600060405180830381858888f1935050505015801562001987573d6000803e3d6000fd5b50600760003073ffffffffffffffffffffffffffffffffffffffff1673ffffffffffffffffffffffffffffffffffffffff1681526020019081526020016000206080604051908101604052808373ffffffffffffffffffffffffffffffffffffffff16815260200142815260200184815260200160018152509080600181540180825580915050906001820390600052602060002090600402016000909192909190915060008201518160000160006101000a81548173ffffffffffffffffffffffffffffffffffffffff021916908373ffffffffffffffffffffffffffffffffffffffff1602179055506020820151816001015560408201518160020155606082015181600301555050505050565b6060600260003373ffffffffffffffffffffffffffffffffffffffff1673ffffffffffffffffffffffffffffffffffffffff16815260200190815260200160002060009054906101000a900460ff16151562001af257600080fd5b6008600083600019166000191681526020019081526020016000208054600181600116156101000203166002900480601f01602080910402602001604051908101604052809291908181526020018280546001816001161561010002031660029004801562001ba55780601f1062001b795761010080835404028352916020019162001ba5565b820191906000526020600020905b81548152906001019060200180831162001b8757829003601f168201915b50505050509050919050565b600a6020528060005260406000206000915054906101000a900473ffffffffffffffffffffffffffffffffffffffff1681565b80600460156101000a81548160ff0219169083600681111562001c0357fe5b0217905550600181600681111562001c1757fe5b111562001daa57600360009054906101000a900473ffffffffffffffffffffffffffffffffffffffff1673ffffffffffffffffffffffffffffffffffffffff16630d6d3b6e3430337f4865616c74685761726e696e67000000000000000000000000000000000000006040518563ffffffff167c0100000000000000000000000000000000000000000000000000000000028152600401808473ffffffffffffffffffffffffffffffffffffffff1673ffffffffffffffffffffffffffffffffffffffff1681526020018373ffffffffffffffffffffffffffffffffffffffff1673ffffffffffffffffffffffffffffffffffffffff168152602001826000191660001916815260200193505050506020604051808303818588803b15801562001d4057600080fd5b505af115801562001d55573d6000803e3d6000fd5b50505050506040513d602081101562001d6d57600080fd5b8101908080519060200190929190505050506002600460146101000a81548160ff0219169083600281111562001d9f57fe5b021790555062001f31565b600360009054906101000a900473ffffffffffffffffffffffffffffffffffffffff1673ffffffffffffffffffffffffffffffffffffffff16630d6d3b6e3430337f4865616c746855706461746500000000000000000000000000000000000000006040518563ffffffff167c0100000000000000000000000000000000000000000000000000000000028152600401808473ffffffffffffffffffffffffffffffffffffffff1673ffffffffffffffffffffffffffffffffffffffff1681526020018373ffffffffffffffffffffffffffffffffffffffff1673ffffffffffffffffffffffffffffffffffffffff168152602001826000191660001916815260200193505050506020604051808303818588803b15801562001ecc57600080fd5b505af115801562001ee1573d6000803e3d6000fd5b50505050506040513d602081101562001ef957600080fd5b8101908080519060200190929190505050506001600460146101000a81548160ff0219169083600281111562001f2b57fe5b02179055505b7fb6d7372bb54b80a5b1d60d3b1da737719783cc92a2095f10d9195105f7abeca5816040518082600681111562001f6457fe5b60ff16815260200191505060405180910390a162001f8e34600554620033ca90919063ffffffff16565b600581905550600760003073ffffffffffffffffffffffffffffffffffffffff1673ffffffffffffffffffffffffffffffffffffffff1681526020019081526020016000206080604051908101604052803373ffffffffffffffffffffffffffffffffffffffff16815260200142815260200134815260200160008152509080600181540180825580915050906001820390600052602060002090600402016000909192909190915060008201518160000160006101000a81548173ffffffffffffffffffffffffffffffffffffffff021916908373ffffffffffffffffffffffffffffffffffffffff16021790555060208201518160010155604082015181600201556060820151816003015550505050565b6000816040518082805190602001908083835b602083101515620020dc5780518252602082019150602081019050602083039250620020b5565b6001836020036101000a03801982511681845116808217855250505050505090500191505060405180910390209050919050565b6000600360009054906101000a900473ffffffffffffffffffffffffffffffffffffffff16905090565b6000600460159054906101000a900460ff16905090565b6000803373ffffffffffffffffffffffffffffffffffffffff1673ffffffffffffffffffffffffffffffffffffffff16815260200190815260200160002060009054906101000a900460ff161515620021a957600080fd5b6000803373ffffffffffffffffffffffffffffffffffffffff1673ffffffffffffffffffffffffffffffffffffffff16815260200190815260200160002060009054906101000a900460ff1615156200220157600080fd5b60016000808373ffffffffffffffffffffffffffffffffffffffff1673ffffffffffffffffffffffffffffffffffffffff16815260200190815260200160002060006101000a81548160ff02191690831515021790555060018190806001815401808255809150509060018203906000526020600020016000909192909190916101000a81548173ffffffffffffffffffffffffffffffffffffffff021916908373ffffffffffffffffffffffffffffffffffffffff1602179055505050565b600260003373ffffffffffffffffffffffffffffffffffffffff1673ffffffffffffffffffffffffffffffffffffffff16815260200190815260200160002060009054906101000a900460ff1615156200231a57600080fd5b600260003373ffffffffffffffffffffffffffffffffffffffff1673ffffffffffffffffffffffffffffffffffffffff16815260200190815260200160002060009054906101000a900460ff1615156200237357600080fd5b6001600260008373ffffffffffffffffffffffffffffffffffffffff1673ffffffffffffffffffffffffffffffffffffffff16815260200190815260200160002060006101000a81548160ff02191690831515021790555050565b6060600c8054806020026020016040519081016040528092919081815260200182805480156200245457602002820191906000526020600020905b8160009054906101000a900473ffffffffffffffffffffffffffffffffffffffff1673ffffffffffffffffffffffffffffffffffffffff168152602001906001019080831162002409575b5050505050905090565b600460159054906101000a900460ff1681565b60066020528060005260406000206000915090505481565b600260003373ffffffffffffffffffffffffffffffffffffffff1673ffffffffffffffffffffffffffffffffffffffff16815260200190815260200160002060009054906101000a900460ff161515620024e257600080fd5b60016002811115620024f057fe5b600460149054906101000a900460ff1660028111156200250c57fe5b1415156200251957600080fd5b600360009054906101000a900473ffffffffffffffffffffffffffffffffffffffff1673ffffffffffffffffffffffffffffffffffffffff1663a9059cbb82846040518363ffffffff167c0100000000000000000000000000000000000000000000000000000000028152600401808373ffffffffffffffffffffffffffffffffffffffff1673ffffffffffffffffffffffffffffffffffffffff16815260200182815260200192505050602060405180830381600087803b158015620025df57600080fd5b505af1158015620025f4573d6000803e3d6000fd5b505050506040513d60208110156200260b57600080fd5b810190808051906020019092919050505050600760003073ffffffffffffffffffffffffffffffffffffffff1673ffffffffffffffffffffffffffffffffffffffff1681526020019081526020016000206080604051908101604052808373ffffffffffffffffffffffffffffffffffffffff16815260200142815260200184815260200160018152509080600181540180825580915050906001820390600052602060002090600402016000909192909190915060008201518160000160006101000a81548173ffffffffffffffffffffffffffffffffffffffff021916908373ffffffffffffffffffffffffffffffffffffffff1602179055506020820151816001015560408201518160020155606082015181600301555050505050565b60008060003373ffffffffffffffffffffffffffffffffffffffff1673ffffffffffffffffffffffffffffffffffffffff16815260200190815260200160002060009054906101000a900460ff1615156200278657600080fd5b81600b90805190602001906200279e929190620033e9565b5060019050919050565b600c81815481101515620027b857fe5b906000526020600020016000915054906101000a900473ffffffffffffffffffffffffffffffffffffffff1681565b600460149054906101000a900460ff1681565b6009818154811015156200280a57fe5b906000526020600020016000915054906101000a900473ffffffffffffffffffffffffffffffffffffffff1681565b6000600260003373ffffffffffffffffffffffffffffffffffffffff1673ffffffffffffffffffffffffffffffffffffffff16815260200190815260200160002060009054906101000a900460ff1615156200289457600080fd5b816008600085600019166000191681526020019081526020016000209080519060200190620028c5929190620033e9565b506001905092915050565b60008060003373ffffffffffffffffffffffffffffffffffffffff1673ffffffffffffffffffffffffffffffffffffffff16815260200190815260200160002060009054906101000a900460ff1615156200292a57600080fd5b6000803373ffffffffffffffffffffffffffffffffffffffff1673ffffffffffffffffffffffffffffffffffffffff16815260200190815260200160002060009054906101000a900460ff1615156200298257600080fd5b60008060008473ffffffffffffffffffffffffffffffffffffffff1673ffffffffffffffffffffffffffffffffffffffff16815260200190815260200160002060006101000a81548160ff021916908315150217905550600090505b60018054905081101562002aa757600181815481101515620029fc57fe5b9060005260206000200160009054906101000a900473ffffffffffffffffffffffffffffffffffffffff1673ffffffffffffffffffffffffffffffffffffffff168273ffffffffffffffffffffffffffffffffffffffff16141562002a995760018181548110151562002a6b57fe5b9060005260206000200160006101000a81549073ffffffffffffffffffffffffffffffffffffffff02191690555b8080600101915050620029de565b5050565b600080600062002abb85620020a2565b9150600073ffffffffffffffffffffffffffffffffffffffff16600a6000846000191660001916815260200190815260200160002060009054906101000a900473ffffffffffffffffffffffffffffffffffffffff1673ffffffffffffffffffffffffffffffffffffffff16141562002edc5760019050803090806001815401808255809150509060018203906000526020600020016000909192909190916101000a81548173ffffffffffffffffffffffffffffffffffffffff021916908373ffffffffffffffffffffffffffffffffffffffff16021790555050803390806001815401808255809150509060018203906000526020600020016000909192909190916101000a81548173ffffffffffffffffffffffffffffffffffffffff021916908373ffffffffffffffffffffffffffffffffffffffff16021790555050600360009054906101000a900473ffffffffffffffffffffffffffffffffffffffff166001868662002c2d62003470565b808573ffffffffffffffffffffffffffffffffffffffff1673ffffffffffffffffffffffffffffffffffffffff168152602001806020018060200180602001848103845287818154815260200191508054801562002ce157602002820191906000526020600020905b8160009054906101000a900473ffffffffffffffffffffffffffffffffffffffff1673ffffffffffffffffffffffffffffffffffffffff168152602001906001019080831162002c96575b5050848103835286818151815260200191508051906020019080838360005b8381101562002d1d57808201518184015260208101905062002d00565b50505050905090810190601f16801562002d4b5780820380516001836020036101000a031916815260200191505b50848103825285818151815260200191508051906020019080838360005b8381101562002d8657808201518184015260208101905062002d69565b50505050905090810190601f16801562002db45780820380516001836020036101000a031916815260200191505b50975050505050505050604051809103906000f08015801562002ddb573d6000803e3d6000fd5b50600a6000846000191660001916815260200190815260200160002060006101000a81548173ffffffffffffffffffffffffffffffffffffffff021916908373ffffffffffffffffffffffffffffffffffffffff1602179055506009600a6000846000191660001916815260200190815260200160002060009054906101000a900473ffffffffffffffffffffffffffffffffffffffff1690806001815401808255809150509060018203906000526020600020016000909192909190916101000a81548173ffffffffffffffffffffffffffffffffffffffff021916908373ffffffffffffffffffffffffffffffffffffffff160217905550506200302e565b600a6000836000191660001916815260200190815260200160002060009054906101000a900473ffffffffffffffffffffffffffffffffffffffff1673ffffffffffffffffffffffffffffffffffffffff16631aae2531856040518263ffffffff167c01000000000000000000000000000000000000000000000000000000000281526004018080602001828103825283818151815260200191508051906020019080838360005b8381101562002fa157808201518184015260208101905062002f84565b50505050905090810190601f16801562002fcf5780820380516001836020036101000a031916815260200191505b5092505050602060405180830381600087803b15801562002fef57600080fd5b505af115801562003004573d6000803e3d6000fd5b505050506040513d60208110156200301b57600080fd5b8101908080519060200190929190505050505b600360009054906101000a900473ffffffffffffffffffffffffffffffffffffffff1673ffffffffffffffffffffffffffffffffffffffff16630d6d3b6e3430600a6000876000191660001916815260200190815260200160002060009054906101000a900473ffffffffffffffffffffffffffffffffffffffff167f4d657461446174615570646174650000000000000000000000000000000000006040518563ffffffff167c0100000000000000000000000000000000000000000000000000000000028152600401808473ffffffffffffffffffffffffffffffffffffffff1673ffffffffffffffffffffffffffffffffffffffff1681526020018373ffffffffffffffffffffffffffffffffffffffff1673ffffffffffffffffffffffffffffffffffffffff168152602001826000191660001916815260200193505050506020604051808303818588803b1580156200318b57600080fd5b505af1158015620031a0573d6000803e3d6000fd5b50505050506040513d6020811015620031b857600080fd5b810190808051906020019092919050505050600a6000836000191660001916815260200190815260200160002060009054906101000a900473ffffffffffffffffffffffffffffffffffffffff169250505092915050565b600d6020528060005260406000206000915054906101000a900473ffffffffffffffffffffffffffffffffffffffff1681565b60606009805480602002602001604051908101604052809291908181526020018280548015620032c957602002820191906000526020600020905b8160009054906101000a900473ffffffffffffffffffffffffffffffffffffffff1673ffffffffffffffffffffffffffffffffffffffff16815260200190600101908083116200327e575b5050505050905090565b600460009054906101000a900473ffffffffffffffffffffffffffffffffffffffff1681565b6060600260003373ffffffffffffffffffffffffffffffffffffffff1673ffffffffffffffffffffffffffffffffffffffff16815260200190815260200160002060009054906101000a900460ff1615156200335457600080fd5b620033c3826040518082805190602001908083835b60208310151562003390578051825260208201915060208101905060208303925062003369565b6001836020036101000a038019825116818451168082178552505050505050905001915050604051809103902062001a97565b9050919050565b6000808284019050838110151515620033df57fe5b8091505092915050565b828054600181600116156101000203166002900490600052602060002090601f016020900481019282601f106200342c57805160ff19168380011785556200345d565b828001600101855582156200345d579182015b828111156200345c5782518255916020019190600101906200343f565b5b5090506200346c919062003481565b5090565b604051610f9e80620034aa83390190565b620034a691905b80821115620034a257600081600090555060010162003488565b5090565b90560060806040523480156200001157600080fd5b5060405162000f9e38038062000f9e833981018060405281019080805190602001909291908051820192919060200180518201929190602001805182019291905050508260008090505b8151811015620000e257600160008084848151811015156200007957fe5b9060200190602002015173ffffffffffffffffffffffffffffffffffffffff1673ffffffffffffffffffffffffffffffffffffffff16815260200190815260200160002060006101000a81548160ff02191690831515021790555080806001019150506200005b565b8160019080519060200190620000fa9291906200017a565b50505083600260006101000a81548173ffffffffffffffffffffffffffffffffffffffff021916908373ffffffffffffffffffffffffffffffffffffffff16021790555081600390805190602001906200015692919062000209565b5080600490805190602001906200016f92919062000209565b5050505050620002fe565b828054828255906000526020600020908101928215620001f6579160200282015b82811115620001f55782518260006101000a81548173ffffffffffffffffffffffffffffffffffffffff021916908373ffffffffffffffffffffffffffffffffffffffff160217905550916020019190600101906200019b565b5b50905062000205919062000290565b5090565b828054600181600116156101000203166002900490600052602060002090601f016020900481019282601f106200024c57805160ff19168380011785556200027d565b828001600101855582156200027d579182015b828111156200027c5782518255916020019190600101906200025f565b5b5090506200028c9190620002d6565b5090565b620002d391905b80821115620002cf57600081816101000a81549073ffffffffffffffffffffffffffffffffffffffff02191690555060010162000297565b5090565b90565b620002fb91905b80821115620002f7576000816000905550600101620002dd565b5090565b90565b610c90806200030e6000396000f3006080604052600436106100a4576000357c0100000000000000000000000000000000000000000000000000000000900463ffffffff1680630fe4e9e8146100a957806314bfd6d01461014f5780631aae2531146101bc57806324d7806c1461023d57806331ae450b146102985780633c6bb4361461030457806370480275146103945780639b93f06b146103d7578063ce26e78a14610402578063e1b2e8b314610492575b600080fd5b3480156100b557600080fd5b506100d4600480360381019080803590602001909291905050506104d5565b6040518080602001828103825283818151815260200191508051906020019080838360005b838110156101145780820151818401526020810190506100f9565b50505050905090810190601f1680156101415780820380516001836020036101000a031916815260200191505b509250505060405180910390f35b34801561015b57600080fd5b5061017a60048036038101908080359060200190929190505050610590565b604051808273ffffffffffffffffffffffffffffffffffffffff1673ffffffffffffffffffffffffffffffffffffffff16815260200191505060405180910390f35b3480156101c857600080fd5b50610223600480360381019080803590602001908201803590602001908080601f01602080910402602001604051908101604052809392919081815260200183838082843782019150505050505091929192905050506105ce565b604051808215151515815260200191505060405180910390f35b34801561024957600080fd5b5061027e600480360381019080803573ffffffffffffffffffffffffffffffffffffffff169060200190929190505050610686565b604051808215151515815260200191505060405180910390f35b3480156102a457600080fd5b506102ad6106a6565b6040518080602001828103825283818151815260200191508051906020019060200280838360005b838110156102f05780820151818401526020810190506102d5565b505050509050019250505060405180910390f35b34801561031057600080fd5b50610319610734565b6040518080602001828103825283818151815260200191508051906020019080838360005b8381101561035957808201518184015260208101905061033e565b50505050905090810190601f1680156103865780820380516001836020036101000a031916815260200191505b509250505060405180910390f35b3480156103a057600080fd5b506103d5600480360381019080803573ffffffffffffffffffffffffffffffffffffffff1690602001909291905050506107d2565b005b3480156103e357600080fd5b506103ec610940565b6040518082815260200191505060405180910390f35b34801561040e57600080fd5b5061041761094d565b6040518080602001828103825283818151815260200191508051906020019080838360005b8381101561045757808201518184015260208101905061043c565b50505050905090810190601f1680156104845780820380516001836020036101000a031916815260200191505b509250505060405180910390f35b34801561049e57600080fd5b506104d3600480360381019080803573ffffffffffffffffffffffffffffffffffffffff1690602001909291905050506109eb565b005b6005818154811015156104e457fe5b906000526020600020016000915090508054600181600116156101000203166002900480601f0160208091040260200160405190810160405280929190818152602001828054600181600116156101000203166002900480156105885780601f1061055d57610100808354040283529160200191610588565b820191906000526020600020905b81548152906001019060200180831161056b57829003601f168201915b505050505081565b60018181548110151561059f57fe5b906000526020600020016000915054906101000a900473ffffffffffffffffffffffffffffffffffffffff1681565b60008060003373ffffffffffffffffffffffffffffffffffffffff1673ffffffffffffffffffffffffffffffffffffffff16815260200190815260200160002060009054906101000a900460ff16151561062757600080fd5b6005829080600181540180825580915050906001820390600052602060002001600090919290919091509080519060200190610664929190610bbf565b5050816004908051906020019061067c929190610bbf565b5060019050919050565b60006020528060005260406000206000915054906101000a900460ff1681565b6060600180548060200260200160405190810160405280929190818152602001828054801561072a57602002820191906000526020600020905b8160009054906101000a900473ffffffffffffffffffffffffffffffffffffffff1673ffffffffffffffffffffffffffffffffffffffff16815260200190600101908083116106e0575b5050505050905090565b60048054600181600116156101000203166002900480601f0160208091040260200160405190810160405280929190818152602001828054600181600116156101000203166002900480156107ca5780601f1061079f576101008083540402835291602001916107ca565b820191906000526020600020905b8154815290600101906020018083116107ad57829003601f168201915b505050505081565b6000803373ffffffffffffffffffffffffffffffffffffffff1673ffffffffffffffffffffffffffffffffffffffff16815260200190815260200160002060009054906101000a900460ff16151561082957600080fd5b6000803373ffffffffffffffffffffffffffffffffffffffff1673ffffffffffffffffffffffffffffffffffffffff16815260200190815260200160002060009054906101000a900460ff16151561088057600080fd5b60016000808373ffffffffffffffffffffffffffffffffffffffff1673ffffffffffffffffffffffffffffffffffffffff16815260200190815260200160002060006101000a81548160ff02191690831515021790555060018190806001815401808255809150509060018203906000526020600020016000909192909190916101000a81548173ffffffffffffffffffffffffffffffffffffffff021916908373ffffffffffffffffffffffffffffffffffffffff1602179055505050565b6000600580549050905090565b60038054600181600116156101000203166002900480601f0160208091040260200160405190810160405280929190818152602001828054600181600116156101000203166002900480156109e35780601f106109b8576101008083540402835291602001916109e3565b820191906000526020600020905b8154815290600101906020018083116109c657829003601f168201915b505050505081565b60008060003373ffffffffffffffffffffffffffffffffffffffff1673ffffffffffffffffffffffffffffffffffffffff16815260200190815260200160002060009054906101000a900460ff161515610a4457600080fd5b6000803373ffffffffffffffffffffffffffffffffffffffff1673ffffffffffffffffffffffffffffffffffffffff16815260200190815260200160002060009054906101000a900460ff161515610a9b57600080fd5b60008060008473ffffffffffffffffffffffffffffffffffffffff1673ffffffffffffffffffffffffffffffffffffffff16815260200190815260200160002060006101000a81548160ff021916908315150217905550600090505b600180549050811015610bbb57600181815481101515610b1357fe5b9060005260206000200160009054906101000a900473ffffffffffffffffffffffffffffffffffffffff1673ffffffffffffffffffffffffffffffffffffffff168273ffffffffffffffffffffffffffffffffffffffff161415610bae57600181815481101515610b8057fe5b9060005260206000200160006101000a81549073ffffffffffffffffffffffffffffffffffffffff02191690555b8080600101915050610af7565b5050565b828054600181600116156101000203166002900490600052602060002090601f016020900481019282601f10610c0057805160ff1916838001178555610c2e565b82800160010185558215610c2e579182015b82811115610c2d578251825591602001919060010190610c12565b5b509050610c3b9190610c3f565b5090565b610c6191905b80821115610c5d576000816000905550600101610c45565b5090565b905600a165627a7a72305820eba6ee76ee3bbfa02ec2da24c1c30f52fc70ed8ef07384f90c3bdca8114fcb070029a165627a7a72305820d6a1aa7ad6d5bf726dc9dfdf257cdca8415f16221733211f83224b7a4d96c83f0029",
  "source": "pragma solidity ^0.4.18; //We have to specify what version of the compiler this code will use\n\nimport \"./NodeMetaData.sol\";\n\ncontract Catalogue is NodeMetaData {\n       \n  // PAS212:216\n  string public href;\n  address[] public items;  \n  // MetaData[] meta; // inherited from NodeMetaData\n  // PAS212:216\n  \n  mapping (bytes32 => address) public nodeData; \n \n  function Catalogue(SmartKey _smartKey, address[] _adminAddress) \n  public\n  NodeMetaData(_smartKey, _adminAddress) \n  {\n  }\n  \n  function selectItems() \n  view\n  public\n  returns (address[]) \n  {\n         return items;\n  }\n\n  function setHref(string _href) \n  public\n  onlyAdmin\n  returns (bool)\n  {\n      \n      href=_href;\n      return true;      \n  }\n\n  \n\n}",
  "sourcePath": "/home/ubuntu/iotblock/contracts/Catalogue.sol",
  "compiler": {
    "name": "solc",
    "version": "0.4.24+commit.e67f0147.Emscripten.clang"
  },
  "schemaVersion": "2.0.1",
  "updatedAt": "2018-11-29T11:36:52.795Z"
}