{
  "contractName": "Crowdsale",
  "abi": [
    {
      "constant": true,
      "inputs": [
        {
          "name": "",
          "type": "uint256"
        }
      ],
      "name": "admins",
      "outputs": [
        {
          "name": "",
          "type": "address"
        }
      ],
      "payable": false,
      "stateMutability": "view",
      "type": "function"
    },
    {
      "constant": true,
      "inputs": [
        {
          "name": "",
          "type": "address"
        }
      ],
      "name": "isAdmin",
      "outputs": [
        {
          "name": "",
          "type": "bool"
        }
      ],
      "payable": false,
      "stateMutability": "view",
      "type": "function"
    },
    {
      "constant": true,
      "inputs": [],
      "name": "rate",
      "outputs": [
        {
          "name": "",
          "type": "uint256"
        }
      ],
      "payable": false,
      "stateMutability": "view",
      "type": "function"
    },
    {
      "constant": true,
      "inputs": [],
      "name": "endTime",
      "outputs": [
        {
          "name": "",
          "type": "uint256"
        }
      ],
      "payable": false,
      "stateMutability": "view",
      "type": "function"
    },
    {
      "constant": true,
      "inputs": [],
      "name": "getAdmins",
      "outputs": [
        {
          "name": "",
          "type": "address[]"
        }
      ],
      "payable": false,
      "stateMutability": "view",
      "type": "function"
    },
    {
      "constant": true,
      "inputs": [],
      "name": "weiRaised",
      "outputs": [
        {
          "name": "",
          "type": "uint256"
        }
      ],
      "payable": false,
      "stateMutability": "view",
      "type": "function"
    },
    {
      "constant": false,
      "inputs": [
        {
          "name": "admin",
          "type": "address"
        }
      ],
      "name": "addAdmin",
      "outputs": [],
      "payable": false,
      "stateMutability": "nonpayable",
      "type": "function"
    },
    {
      "constant": true,
      "inputs": [],
      "name": "startTime",
      "outputs": [
        {
          "name": "",
          "type": "uint256"
        }
      ],
      "payable": false,
      "stateMutability": "view",
      "type": "function"
    },
    {
      "constant": false,
      "inputs": [
        {
          "name": "banned",
          "type": "address"
        }
      ],
      "name": "addBanned",
      "outputs": [],
      "payable": false,
      "stateMutability": "nonpayable",
      "type": "function"
    },
    {
      "constant": true,
      "inputs": [],
      "name": "token",
      "outputs": [
        {
          "name": "",
          "type": "address"
        }
      ],
      "payable": false,
      "stateMutability": "view",
      "type": "function"
    },
    {
      "inputs": [
        {
          "name": "_token",
          "type": "address"
        },
        {
          "name": "_startTime",
          "type": "uint256"
        },
        {
          "name": "_endTime",
          "type": "uint256"
        },
        {
          "name": "_rate",
          "type": "uint256"
        },
        {
          "name": "adminAddress",
          "type": "address[]"
        }
      ],
      "payable": false,
      "stateMutability": "nonpayable",
      "type": "constructor"
    },
    {
      "payable": true,
      "stateMutability": "payable",
      "type": "fallback"
    },
    {
      "anonymous": false,
      "inputs": [
        {
          "indexed": true,
          "name": "purchaser",
          "type": "address"
        },
        {
          "indexed": true,
          "name": "beneficiary",
          "type": "address"
        },
        {
          "indexed": false,
          "name": "value",
          "type": "uint256"
        },
        {
          "indexed": false,
          "name": "amount",
          "type": "uint256"
        }
      ],
      "name": "SmartKeyPurchase",
      "type": "event"
    },
    {
      "constant": true,
      "inputs": [],
      "name": "getNow",
      "outputs": [
        {
          "name": "",
          "type": "uint256"
        }
      ],
      "payable": false,
      "stateMutability": "view",
      "type": "function"
    },
    {
      "constant": true,
      "inputs": [],
      "name": "getTokensMinted",
      "outputs": [
        {
          "name": "",
          "type": "uint256"
        }
      ],
      "payable": false,
      "stateMutability": "view",
      "type": "function"
    },
    {
      "constant": false,
      "inputs": [
        {
          "name": "_rate",
          "type": "uint256"
        }
      ],
      "name": "setRate",
      "outputs": [
        {
          "name": "",
          "type": "uint256"
        }
      ],
      "payable": false,
      "stateMutability": "nonpayable",
      "type": "function"
    },
    {
      "constant": false,
      "inputs": [
        {
          "name": "_endTime",
          "type": "uint256"
        }
      ],
      "name": "extendEndTime",
      "outputs": [
        {
          "name": "",
          "type": "uint256"
        }
      ],
      "payable": false,
      "stateMutability": "nonpayable",
      "type": "function"
    },
    {
      "constant": false,
      "inputs": [
        {
          "name": "beneficiary",
          "type": "address"
        }
      ],
      "name": "loadSmartKey",
      "outputs": [],
      "payable": true,
      "stateMutability": "payable",
      "type": "function"
    },
    {
      "constant": true,
      "inputs": [
        {
          "name": "amount",
          "type": "uint256"
        }
      ],
      "name": "convertToWei",
      "outputs": [
        {
          "name": "",
          "type": "uint256"
        }
      ],
      "payable": false,
      "stateMutability": "view",
      "type": "function"
    },
    {
      "constant": true,
      "inputs": [
        {
          "name": "amount",
          "type": "uint256"
        }
      ],
      "name": "convertToToken",
      "outputs": [
        {
          "name": "",
          "type": "uint256"
        }
      ],
      "payable": false,
      "stateMutability": "view",
      "type": "function"
    },
    {
      "constant": true,
      "inputs": [],
      "name": "hasEnded",
      "outputs": [
        {
          "name": "",
          "type": "bool"
        }
      ],
      "payable": false,
      "stateMutability": "view",
      "type": "function"
    }
  ],
  "bytecode": "0x60806040523480156200001157600080fd5b506040516200132d3803806200132d83398101806040528101908080519060200190929190805190602001909291908051906020019092919080519060200190929190805182019291905050508060008090505b8151811015620000ec57600160008084848151811015156200008357fe5b9060200190602002015173ffffffffffffffffffffffffffffffffffffffff1673ffffffffffffffffffffffffffffffffffffffff16815260200190815260200160002060006101000a81548160ff021916908315150217905550808060010191505062000065565b816001908051906020019062000104929190620001ea565b5050508383101515156200011757600080fd5b6000821115156200012757600080fd5b6000600160008154811015156200013a57fe5b9060005260206000200160009054906101000a900473ffffffffffffffffffffffffffffffffffffffff1673ffffffffffffffffffffffffffffffffffffffff16141515156200018957600080fd5b84600260006101000a81548173ffffffffffffffffffffffffffffffffffffffff021916908373ffffffffffffffffffffffffffffffffffffffff1602179055508360038190555082600481905550816005819055505050505050620002bf565b82805482825590600052602060002090810192821562000266579160200282015b82811115620002655782518260006101000a81548173ffffffffffffffffffffffffffffffffffffffff021916908373ffffffffffffffffffffffffffffffffffffffff160217905550916020019190600101906200020b565b5b50905062000275919062000279565b5090565b620002bc91905b80821115620002b857600081816101000a81549073ffffffffffffffffffffffffffffffffffffffff02191690555060010162000280565b5090565b90565b61105e80620002cf6000396000f3006080604052600436106100fc576000357c0100000000000000000000000000000000000000000000000000000000900463ffffffff16806314bfd6d01461010757806324d7806c146101745780632c4e722e146101cf5780633197cbb6146101fa57806331ae450b1461022557806334fcf437146102915780634042b66f146102d257806370480275146102fd57806378e979251461034057806388770cb01461036b578063a60dc38a146103ac578063a81f8f3f146103ed578063bbe4fd501461042e578063c2554d2414610459578063d69f6bae1461048f578063e1b2e8b3146104ba578063ecb70fb7146104fd578063fc0c546a1461052c575b61010533610583565b005b34801561011357600080fd5b5061013260048036038101908080359060200190929190505050610899565b604051808273ffffffffffffffffffffffffffffffffffffffff1673ffffffffffffffffffffffffffffffffffffffff16815260200191505060405180910390f35b34801561018057600080fd5b506101b5600480360381019080803573ffffffffffffffffffffffffffffffffffffffff1690602001909291905050506108d7565b604051808215151515815260200191505060405180910390f35b3480156101db57600080fd5b506101e46108f7565b6040518082815260200191505060405180910390f35b34801561020657600080fd5b5061020f6108fd565b6040518082815260200191505060405180910390f35b34801561023157600080fd5b5061023a610903565b6040518080602001828103825283818151815260200191508051906020019060200280838360005b8381101561027d578082015181840152602081019050610262565b505050509050019250505060405180910390f35b34801561029d57600080fd5b506102bc60048036038101908080359060200190929190505050610991565b6040518082815260200191505060405180910390f35b3480156102de57600080fd5b506102e7610ac8565b6040518082815260200191505060405180910390f35b34801561030957600080fd5b5061033e600480360381019080803573ffffffffffffffffffffffffffffffffffffffff169060200190929190505050610ace565b005b34801561034c57600080fd5b50610355610c3c565b6040518082815260200191505060405180910390f35b34801561037757600080fd5b5061039660048036038101908080359060200190929190505050610c42565b6040518082815260200191505060405180910390f35b3480156103b857600080fd5b506103d760048036038101908080359060200190929190505050610cac565b6040518082815260200191505060405180910390f35b3480156103f957600080fd5b5061041860048036038101908080359060200190929190505050610cca565b6040518082815260200191505060405180910390f35b34801561043a57600080fd5b50610443610ce8565b6040518082815260200191505060405180910390f35b61048d600480360381019080803573ffffffffffffffffffffffffffffffffffffffff169060200190929190505050610583565b005b34801561049b57600080fd5b506104a4610cf0565b6040518082815260200191505060405180910390f35b3480156104c657600080fd5b506104fb600480360381019080803573ffffffffffffffffffffffffffffffffffffffff169060200190929190505050610db8565b005b34801561050957600080fd5b50610512610f8c565b604051808215151515815260200191505060405180910390f35b34801561053857600080fd5b50610541610f98565b604051808273ffffffffffffffffffffffffffffffffffffffff1673ffffffffffffffffffffffffffffffffffffffff16815260200191505060405180910390f35b6000806000808473ffffffffffffffffffffffffffffffffffffffff16141515156105ad57600080fd5b3492506105b983610cca565b91506105d083600654610fbe90919063ffffffff16565b600681905550600260009054906101000a900473ffffffffffffffffffffffffffffffffffffffff1673ffffffffffffffffffffffffffffffffffffffff1663b37c7551856040518263ffffffff167c0100000000000000000000000000000000000000000000000000000000028152600401808273ffffffffffffffffffffffffffffffffffffffff1673ffffffffffffffffffffffffffffffffffffffff168152602001915050602060405180830381600087803b15801561069357600080fd5b505af11580156106a7573d6000803e3d6000fd5b505050506040513d60208110156106bd57600080fd5b81019080805190602001909291905050509050600260009054906101000a900473ffffffffffffffffffffffffffffffffffffffff1673ffffffffffffffffffffffffffffffffffffffff16630d6d3b6e3483876040518463ffffffff167c0100000000000000000000000000000000000000000000000000000000028152600401808373ffffffffffffffffffffffffffffffffffffffff1673ffffffffffffffffffffffffffffffffffffffff1681526020018273ffffffffffffffffffffffffffffffffffffffff1673ffffffffffffffffffffffffffffffffffffffff168152602001807f43726f776453616c650000000000000000000000000000000000000000000000815250602001925050506020604051808303818588803b1580156107e957600080fd5b505af11580156107fd573d6000803e3d6000fd5b50505050506040513d602081101561081457600080fd5b8101908080519060200190929190505050508373ffffffffffffffffffffffffffffffffffffffff163373ffffffffffffffffffffffffffffffffffffffff167f8954423a551d16784cdfa6962d70cd543c5e51c673130047a93e5c2340a6ab3d8585604051808381526020018281526020019250505060405180910390a350505050565b6001818154811015156108a857fe5b906000526020600020016000915054906101000a900473ffffffffffffffffffffffffffffffffffffffff1681565b60006020528060005260406000206000915054906101000a900460ff1681565b60055481565b60045481565b6060600180548060200260200160405190810160405280929190818152602001828054801561098757602002820191906000526020600020905b8160009054906101000a900473ffffffffffffffffffffffffffffffffffffffff1673ffffffffffffffffffffffffffffffffffffffff168152602001906001019080831161093d575b5050505050905090565b60008060003373ffffffffffffffffffffffffffffffffffffffff1673ffffffffffffffffffffffffffffffffffffffff16815260200190815260200160002060009054906101000a900460ff1615156109ea57600080fd5b600260009054906101000a900473ffffffffffffffffffffffffffffffffffffffff1673ffffffffffffffffffffffffffffffffffffffff166334fcf437836040518263ffffffff167c010000000000000000000000000000000000000000000000000000000002815260040180828152602001915050602060405180830381600087803b158015610a7b57600080fd5b505af1158015610a8f573d6000803e3d6000fd5b505050506040513d6020811015610aa557600080fd5b810190808051906020019092919050505050816005819055506005549050919050565b60065481565b6000803373ffffffffffffffffffffffffffffffffffffffff1673ffffffffffffffffffffffffffffffffffffffff16815260200190815260200160002060009054906101000a900460ff161515610b2557600080fd5b6000803373ffffffffffffffffffffffffffffffffffffffff1673ffffffffffffffffffffffffffffffffffffffff16815260200190815260200160002060009054906101000a900460ff161515610b7c57600080fd5b60016000808373ffffffffffffffffffffffffffffffffffffffff1673ffffffffffffffffffffffffffffffffffffffff16815260200190815260200160002060006101000a81548160ff02191690831515021790555060018190806001815401808255809150509060018203906000526020600020016000909192909190916101000a81548173ffffffffffffffffffffffffffffffffffffffff021916908373ffffffffffffffffffffffffffffffffffffffff1602179055505050565b60035481565b60008060003373ffffffffffffffffffffffffffffffffffffffff1673ffffffffffffffffffffffffffffffffffffffff16815260200190815260200160002060009054906101000a900460ff161515610c9b57600080fd5b816004819055506004549050919050565b6000610cc360055483610fdc90919063ffffffff16565b9050919050565b6000610ce16005548361101790919063ffffffff16565b9050919050565b600042905090565b6000600260009054906101000a900473ffffffffffffffffffffffffffffffffffffffff1673ffffffffffffffffffffffffffffffffffffffff1663963563556040518163ffffffff167c0100000000000000000000000000000000000000000000000000000000028152600401602060405180830381600087803b158015610d7857600080fd5b505af1158015610d8c573d6000803e3d6000fd5b505050506040513d6020811015610da257600080fd5b8101908080519060200190929190505050905090565b60008060003373ffffffffffffffffffffffffffffffffffffffff1673ffffffffffffffffffffffffffffffffffffffff16815260200190815260200160002060009054906101000a900460ff161515610e1157600080fd5b6000803373ffffffffffffffffffffffffffffffffffffffff1673ffffffffffffffffffffffffffffffffffffffff16815260200190815260200160002060009054906101000a900460ff161515610e6857600080fd5b60008060008473ffffffffffffffffffffffffffffffffffffffff1673ffffffffffffffffffffffffffffffffffffffff16815260200190815260200160002060006101000a81548160ff021916908315150217905550600090505b600180549050811015610f8857600181815481101515610ee057fe5b9060005260206000200160009054906101000a900473ffffffffffffffffffffffffffffffffffffffff1673ffffffffffffffffffffffffffffffffffffffff168273ffffffffffffffffffffffffffffffffffffffff161415610f7b57600181815481101515610f4d57fe5b9060005260206000200160006101000a81549073ffffffffffffffffffffffffffffffffffffffff02191690555b8080600101915050610ec4565b5050565b60006004544211905090565b600260009054906101000a900473ffffffffffffffffffffffffffffffffffffffff1681565b6000808284019050838110151515610fd257fe5b8091505092915050565b6000806000841415610ff15760009150611010565b828402905082848281151561100257fe5b0414151561100c57fe5b8091505b5092915050565b600080828481151561102557fe5b04905080915050929150505600a165627a7a72305820cde9484a63dd85c39b0df611b60f32ba2ac96a60e2011b8ee3900ef27a8651510029",
  "source": "pragma solidity ^0.4.18; //We have to specify what version of the compiler this code will use\n\n\nimport '../SmartKey.sol';\n\nimport '../math/SafeMath.sol';\n\n/**\n * @title Crowdsale \n */\ncontract Crowdsale is Administered {\n  using SafeMath for uint256;\n\n  // The token being sold\n  SmartKey public token;\n\n  // start and end timestamps where investments are allowed (both inclusive)\n  uint256 public startTime;\n  uint256 public endTime;\n\n  // how many token units a buyer gets per wei\n  uint256 public rate;\n\n  // amount of raised money in wei\n  uint256 public weiRaised;\n\n  \n  /**\n   * event for token purchase logging\n   * @param purchaser who paid for the tokens\n   * @param beneficiary who got the tokens\n   * @param value weis paid for purchase\n   * @param amount amount of tokens purchased\n   */ \n  event SmartKeyPurchase(address indexed purchaser, address indexed beneficiary, uint256 value, uint256 amount);\n\n\n  function Crowdsale(SmartKey _token, uint256 _startTime, uint256 _endTime, uint256 _rate, address[] adminAddress) \n  public\n  Administered(adminAddress)\n  {\n    require(_endTime >= _startTime);\n    require(_rate > 0);\n    require(admins[0] != 0x0);\n\n    token = _token;\n    startTime = _startTime;\n    endTime = _endTime;\n    rate = _rate;\n    \n  }\n\n  function getNow() public\n  view\n  returns (uint256) {\n      return now;\n  }\n  \n  function getTokensMinted() \n  public\n  view\n  returns (uint256) {\n      return token.tokenMinted();\n  }\n  \n  function setRate(uint256 _rate) \n  public\n  onlyAdmin \n  returns (uint256){\n        token.setRate(_rate);\n        rate=_rate;\n        return rate;                \n  }\n\n  function extendEndTime(uint256 _endTime) \n  public\n  onlyAdmin \n  returns (uint256){\n        endTime = _endTime;\n        return endTime;                \n  }\n  \n  // fallback function can be used to buy tokens\n  function () \n  public\n  payable {\n  \n    loadSmartKey(msg.sender);\n    \n  }\n\n  // low level token purchase function\n  function loadSmartKey(address beneficiary) \n  public\n  payable \n  {\n  \n    require(beneficiary != 0x0);\n    \n    uint256 weiAmount = msg.value;\n\n    // calculate token amount to be created\n    uint256 tokens = convertToToken(weiAmount);\n    \n    // update state\n    weiRaised = weiRaised.add(weiAmount);\n    \n    Key key=token.getSmartKey(beneficiary);\n    \n    token.loadSmartKey.value(msg.value)(key, address(beneficiary), \"CrowdSale\");\n        \n    SmartKeyPurchase(msg.sender, beneficiary, weiAmount, tokens);\n    \n  }\n\n  function convertToWei(uint256 amount) \n  public\n  view\n  returns (uint256)\n  {\n\t\treturn amount.mul(rate);\n  }\n\n  function convertToToken(uint256 amount) \n  public\n  view\n  returns (uint256)\n  {\n\t\treturn amount.div(rate);\n  }\n\n  // @return true if crowdsale event has ended\n  function hasEnded() \n  public \n  view \n  returns (bool) {\n    return now > endTime;\n  }\n\n\n}\n",
  "sourcePath": "/home/ubuntu/iotblock/contracts/crowdsale/Crowdsale.sol",
  "compiler": {
    "name": "solc",
    "version": "0.4.24+commit.e67f0147.Emscripten.clang"
  },
  "schemaVersion": "2.0.1",
  "updatedAt": "2018-11-29T11:36:52.808Z"
}