{
  "contractName": "Crowdsale",
  "abi": [
    {
      "constant": true,
      "inputs": [
        {
          "name": "",
          "type": "uint256"
        }
      ],
      "name": "admins",
      "outputs": [
        {
          "name": "",
          "type": "address"
        }
      ],
      "payable": false,
      "stateMutability": "view",
      "type": "function"
    },
    {
      "constant": true,
      "inputs": [
        {
          "name": "",
          "type": "address"
        }
      ],
      "name": "isAdmin",
      "outputs": [
        {
          "name": "",
          "type": "bool"
        }
      ],
      "payable": false,
      "stateMutability": "view",
      "type": "function"
    },
    {
      "constant": true,
      "inputs": [],
      "name": "rate",
      "outputs": [
        {
          "name": "",
          "type": "uint256"
        }
      ],
      "payable": false,
      "stateMutability": "view",
      "type": "function"
    },
    {
      "constant": true,
      "inputs": [],
      "name": "endTime",
      "outputs": [
        {
          "name": "",
          "type": "uint256"
        }
      ],
      "payable": false,
      "stateMutability": "view",
      "type": "function"
    },
    {
      "constant": true,
      "inputs": [],
      "name": "getAdmins",
      "outputs": [
        {
          "name": "",
          "type": "address[]"
        }
      ],
      "payable": false,
      "stateMutability": "view",
      "type": "function"
    },
    {
      "constant": true,
      "inputs": [],
      "name": "weiRaised",
      "outputs": [
        {
          "name": "",
          "type": "uint256"
        }
      ],
      "payable": false,
      "stateMutability": "view",
      "type": "function"
    },
    {
      "constant": false,
      "inputs": [
        {
          "name": "admin",
          "type": "address"
        }
      ],
      "name": "addAdmin",
      "outputs": [],
      "payable": false,
      "stateMutability": "nonpayable",
      "type": "function"
    },
    {
      "constant": true,
      "inputs": [],
      "name": "startTime",
      "outputs": [
        {
          "name": "",
          "type": "uint256"
        }
      ],
      "payable": false,
      "stateMutability": "view",
      "type": "function"
    },
    {
      "constant": false,
      "inputs": [
        {
          "name": "banned",
          "type": "address"
        }
      ],
      "name": "addBanned",
      "outputs": [],
      "payable": false,
      "stateMutability": "nonpayable",
      "type": "function"
    },
    {
      "constant": true,
      "inputs": [],
      "name": "token",
      "outputs": [
        {
          "name": "",
          "type": "address"
        }
      ],
      "payable": false,
      "stateMutability": "view",
      "type": "function"
    },
    {
      "inputs": [
        {
          "name": "_token",
          "type": "address"
        },
        {
          "name": "_startTime",
          "type": "uint256"
        },
        {
          "name": "_endTime",
          "type": "uint256"
        },
        {
          "name": "_rate",
          "type": "uint256"
        },
        {
          "name": "adminAddress",
          "type": "address[]"
        }
      ],
      "payable": false,
      "stateMutability": "nonpayable",
      "type": "constructor"
    },
    {
      "payable": true,
      "stateMutability": "payable",
      "type": "fallback"
    },
    {
      "anonymous": false,
      "inputs": [
        {
          "indexed": true,
          "name": "purchaser",
          "type": "address"
        },
        {
          "indexed": true,
          "name": "beneficiary",
          "type": "address"
        },
        {
          "indexed": false,
          "name": "value",
          "type": "uint256"
        },
        {
          "indexed": false,
          "name": "amount",
          "type": "uint256"
        }
      ],
      "name": "SmartKeyPurchase",
      "type": "event"
    },
    {
      "constant": true,
      "inputs": [],
      "name": "getNow",
      "outputs": [
        {
          "name": "",
          "type": "uint256"
        }
      ],
      "payable": false,
      "stateMutability": "view",
      "type": "function"
    },
    {
      "constant": true,
      "inputs": [],
      "name": "getTokensMinted",
      "outputs": [
        {
          "name": "",
          "type": "uint256"
        }
      ],
      "payable": false,
      "stateMutability": "view",
      "type": "function"
    },
    {
      "constant": false,
      "inputs": [
        {
          "name": "_rate",
          "type": "uint256"
        }
      ],
      "name": "setRate",
      "outputs": [
        {
          "name": "",
          "type": "uint256"
        }
      ],
      "payable": false,
      "stateMutability": "nonpayable",
      "type": "function"
    },
    {
      "constant": false,
      "inputs": [
        {
          "name": "_endTime",
          "type": "uint256"
        }
      ],
      "name": "extendEndTime",
      "outputs": [
        {
          "name": "",
          "type": "uint256"
        }
      ],
      "payable": false,
      "stateMutability": "nonpayable",
      "type": "function"
    },
    {
      "constant": false,
      "inputs": [
        {
          "name": "beneficiary",
          "type": "address"
        }
      ],
      "name": "loadSmartKey",
      "outputs": [],
      "payable": true,
      "stateMutability": "payable",
      "type": "function"
    },
    {
      "constant": true,
      "inputs": [
        {
          "name": "amount",
          "type": "uint256"
        }
      ],
      "name": "convertToWei",
      "outputs": [
        {
          "name": "",
          "type": "uint256"
        }
      ],
      "payable": false,
      "stateMutability": "view",
      "type": "function"
    },
    {
      "constant": true,
      "inputs": [
        {
          "name": "amount",
          "type": "uint256"
        }
      ],
      "name": "convertToToken",
      "outputs": [
        {
          "name": "",
          "type": "uint256"
        }
      ],
      "payable": false,
      "stateMutability": "view",
      "type": "function"
    },
    {
      "constant": true,
      "inputs": [],
      "name": "hasEnded",
      "outputs": [
        {
          "name": "",
          "type": "bool"
        }
      ],
      "payable": false,
      "stateMutability": "view",
      "type": "function"
    }
  ],
  "bytecode": "0x606060405234156200001057600080fd5b604051620012c3380380620012c3833981016040528080519060200190919080519060200190919080519060200190919080519060200190919080518201919050508060008090505b8151811015620000e057600160008084848151811015156200007757fe5b9060200190602002015173ffffffffffffffffffffffffffffffffffffffff1673ffffffffffffffffffffffffffffffffffffffff16815260200190815260200160002060006101000a81548160ff021916908315150217905550808060010191505062000059565b8160019080519060200190620000f8929190620001df565b5050508383101515156200010b57600080fd5b6000821115156200011b57600080fd5b6000600160008154811015156200012e57fe5b906000526020600020900160009054906101000a900473ffffffffffffffffffffffffffffffffffffffff1673ffffffffffffffffffffffffffffffffffffffff16141515156200017e57600080fd5b84600260006101000a81548173ffffffffffffffffffffffffffffffffffffffff021916908373ffffffffffffffffffffffffffffffffffffffff1602179055508360038190555082600481905550816005819055505050505050620002b4565b8280548282559060005260206000209081019282156200025b579160200282015b828111156200025a5782518260006101000a81548173ffffffffffffffffffffffffffffffffffffffff021916908373ffffffffffffffffffffffffffffffffffffffff1602179055509160200191906001019062000200565b5b5090506200026a91906200026e565b5090565b620002b191905b80821115620002ad57600081816101000a81549073ffffffffffffffffffffffffffffffffffffffff02191690555060010162000275565b5090565b90565b610fff80620002c46000396000f3006060604052600436106100fc576000357c0100000000000000000000000000000000000000000000000000000000900463ffffffff16806314bfd6d01461010757806324d7806c1461016a5780632c4e722e146101bb5780633197cbb6146101e457806331ae450b1461020d57806334fcf437146102775780634042b66f146102ae57806370480275146102d757806378e979251461031057806388770cb014610339578063a60dc38a14610370578063a81f8f3f146103a7578063bbe4fd50146103de578063c2554d2414610407578063d69f6bae14610435578063e1b2e8b31461045e578063ecb70fb714610497578063fc0c546a146104c4575b61010533610519565b005b341561011257600080fd5b61012860048080359060200190919050506107ff565b604051808273ffffffffffffffffffffffffffffffffffffffff1673ffffffffffffffffffffffffffffffffffffffff16815260200191505060405180910390f35b341561017557600080fd5b6101a1600480803573ffffffffffffffffffffffffffffffffffffffff1690602001909190505061083e565b604051808215151515815260200191505060405180910390f35b34156101c657600080fd5b6101ce61085e565b6040518082815260200191505060405180910390f35b34156101ef57600080fd5b6101f7610864565b6040518082815260200191505060405180910390f35b341561021857600080fd5b61022061086a565b6040518080602001828103825283818151815260200191508051906020019060200280838360005b83811015610263578082015181840152602081019050610248565b505050509050019250505060405180910390f35b341561028257600080fd5b61029860048080359060200190919050506108fe565b6040518082815260200191505060405180910390f35b34156102b957600080fd5b6102c1610a1d565b6040518082815260200191505060405180910390f35b34156102e257600080fd5b61030e600480803573ffffffffffffffffffffffffffffffffffffffff16906020019091905050610a23565b005b341561031b57600080fd5b610323610b8e565b6040518082815260200191505060405180910390f35b341561034457600080fd5b61035a6004808035906020019091905050610b94565b6040518082815260200191505060405180910390f35b341561037b57600080fd5b6103916004808035906020019091905050610bfe565b6040518082815260200191505060405180910390f35b34156103b257600080fd5b6103c86004808035906020019091905050610c1c565b6040518082815260200191505060405180910390f35b34156103e957600080fd5b6103f1610c3a565b6040518082815260200191505060405180910390f35b610433600480803573ffffffffffffffffffffffffffffffffffffffff16906020019091905050610519565b005b341561044057600080fd5b610448610c42565b6040518082815260200191505060405180910390f35b341561046957600080fd5b610495600480803573ffffffffffffffffffffffffffffffffffffffff16906020019091905050610cf2565b005b34156104a257600080fd5b6104aa610ec8565b604051808215151515815260200191505060405180910390f35b34156104cf57600080fd5b6104d7610ed4565b604051808273ffffffffffffffffffffffffffffffffffffffff1673ffffffffffffffffffffffffffffffffffffffff16815260200191505060405180910390f35b6000806000808473ffffffffffffffffffffffffffffffffffffffff161415151561054357600080fd5b34925061054f83610c1c565b915061056683600654610efa90919063ffffffff16565b600681905550600260009054906101000a900473ffffffffffffffffffffffffffffffffffffffff1673ffffffffffffffffffffffffffffffffffffffff1663b37c7551856000604051602001526040518263ffffffff167c0100000000000000000000000000000000000000000000000000000000028152600401808273ffffffffffffffffffffffffffffffffffffffff1673ffffffffffffffffffffffffffffffffffffffff168152602001915050602060405180830381600087803b151561063157600080fd5b6102c65a03f1151561064257600080fd5b505050604051805190509050600260009054906101000a900473ffffffffffffffffffffffffffffffffffffffff1673ffffffffffffffffffffffffffffffffffffffff16630d6d3b6e3483876000604051602001526040518463ffffffff167c0100000000000000000000000000000000000000000000000000000000028152600401808373ffffffffffffffffffffffffffffffffffffffff1673ffffffffffffffffffffffffffffffffffffffff1681526020018273ffffffffffffffffffffffffffffffffffffffff1673ffffffffffffffffffffffffffffffffffffffff168152602001807f43726f776453616c650000000000000000000000000000000000000000000000815250602001925050506020604051808303818588803b151561076f57600080fd5b6125ee5a03f1151561078057600080fd5b5050505060405180519050508373ffffffffffffffffffffffffffffffffffffffff163373ffffffffffffffffffffffffffffffffffffffff167f8954423a551d16784cdfa6962d70cd543c5e51c673130047a93e5c2340a6ab3d8585604051808381526020018281526020019250505060405180910390a350505050565b60018181548110151561080e57fe5b90600052602060002090016000915054906101000a900473ffffffffffffffffffffffffffffffffffffffff1681565b60006020528060005260406000206000915054906101000a900460ff1681565b60055481565b60045481565b610872610f6e565b60018054806020026020016040519081016040528092919081815260200182805480156108f457602002820191906000526020600020905b8160009054906101000a900473ffffffffffffffffffffffffffffffffffffffff1673ffffffffffffffffffffffffffffffffffffffff16815260200190600101908083116108aa575b5050505050905090565b60008060003373ffffffffffffffffffffffffffffffffffffffff1673ffffffffffffffffffffffffffffffffffffffff16815260200190815260200160002060009054906101000a900460ff16151561095757600080fd5b600260009054906101000a900473ffffffffffffffffffffffffffffffffffffffff1673ffffffffffffffffffffffffffffffffffffffff166334fcf437836000604051602001526040518263ffffffff167c010000000000000000000000000000000000000000000000000000000002815260040180828152602001915050602060405180830381600087803b15156109f057600080fd5b6102c65a03f11515610a0157600080fd5b5050506040518051905050816005819055506005549050919050565b60065481565b6000803373ffffffffffffffffffffffffffffffffffffffff1673ffffffffffffffffffffffffffffffffffffffff16815260200190815260200160002060009054906101000a900460ff161515610a7a57600080fd5b6000803373ffffffffffffffffffffffffffffffffffffffff1673ffffffffffffffffffffffffffffffffffffffff16815260200190815260200160002060009054906101000a900460ff161515610ad157600080fd5b60016000808373ffffffffffffffffffffffffffffffffffffffff1673ffffffffffffffffffffffffffffffffffffffff16815260200190815260200160002060006101000a81548160ff02191690831515021790555060018054806001018281610b3c9190610f82565b9160005260206000209001600083909190916101000a81548173ffffffffffffffffffffffffffffffffffffffff021916908373ffffffffffffffffffffffffffffffffffffffff1602179055505050565b60035481565b60008060003373ffffffffffffffffffffffffffffffffffffffff1673ffffffffffffffffffffffffffffffffffffffff16815260200190815260200160002060009054906101000a900460ff161515610bed57600080fd5b816004819055506004549050919050565b6000610c1560055483610f1890919063ffffffff16565b9050919050565b6000610c3360055483610f5390919063ffffffff16565b9050919050565b600042905090565b6000600260009054906101000a900473ffffffffffffffffffffffffffffffffffffffff1673ffffffffffffffffffffffffffffffffffffffff1663963563556000604051602001526040518163ffffffff167c0100000000000000000000000000000000000000000000000000000000028152600401602060405180830381600087803b1515610cd257600080fd5b6102c65a03f11515610ce357600080fd5b50505060405180519050905090565b60008060003373ffffffffffffffffffffffffffffffffffffffff1673ffffffffffffffffffffffffffffffffffffffff16815260200190815260200160002060009054906101000a900460ff161515610d4b57600080fd5b6000803373ffffffffffffffffffffffffffffffffffffffff1673ffffffffffffffffffffffffffffffffffffffff16815260200190815260200160002060009054906101000a900460ff161515610da257600080fd5b60008060008473ffffffffffffffffffffffffffffffffffffffff1673ffffffffffffffffffffffffffffffffffffffff16815260200190815260200160002060006101000a81548160ff021916908315150217905550600090505b600180549050811015610ec457600181815481101515610e1a57fe5b906000526020600020900160009054906101000a900473ffffffffffffffffffffffffffffffffffffffff1673ffffffffffffffffffffffffffffffffffffffff168273ffffffffffffffffffffffffffffffffffffffff161415610eb757600181815481101515610e8857fe5b906000526020600020900160006101000a81549073ffffffffffffffffffffffffffffffffffffffff02191690555b8080600101915050610dfe565b5050565b60006004544211905090565b600260009054906101000a900473ffffffffffffffffffffffffffffffffffffffff1681565b6000808284019050838110151515610f0e57fe5b8091505092915050565b6000806000841415610f2d5760009150610f4c565b8284029050828482811515610f3e57fe5b04141515610f4857fe5b8091505b5092915050565b6000808284811515610f6157fe5b0490508091505092915050565b602060405190810160405280600081525090565b815481835581811511610fa957818360005260206000209182019101610fa89190610fae565b5b505050565b610fd091905b80821115610fcc576000816000905550600101610fb4565b5090565b905600a165627a7a72305820fe9ae4e8c5e13625de417dece311f0f6474170c62fb9e5d310e02dc93b6248750029",
  "source": "pragma solidity ^0.4.18; //We have to specify what version of the compiler this code will use\n\n\nimport '../SmartKey.sol';\n\nimport '../math/SafeMath.sol';\n\n/**\n * @title Crowdsale \n */\ncontract Crowdsale is Administered {\n  using SafeMath for uint256;\n\n  // The token being sold\n  SmartKey public token;\n\n  // start and end timestamps where investments are allowed (both inclusive)\n  uint256 public startTime;\n  uint256 public endTime;\n\n  // how many token units a buyer gets per wei\n  uint256 public rate;\n\n  // amount of raised money in wei\n  uint256 public weiRaised;\n\n  \n  /**\n   * event for token purchase logging\n   * @param purchaser who paid for the tokens\n   * @param beneficiary who got the tokens\n   * @param value weis paid for purchase\n   * @param amount amount of tokens purchased\n   */ \n  event SmartKeyPurchase(address indexed purchaser, address indexed beneficiary, uint256 value, uint256 amount);\n\n\n  function Crowdsale(SmartKey _token, uint256 _startTime, uint256 _endTime, uint256 _rate, address[] adminAddress) \n  public\n  Administered(adminAddress)\n  {\n    require(_endTime >= _startTime);\n    require(_rate > 0);\n    require(admins[0] != 0x0);\n\n    token = _token;\n    startTime = _startTime;\n    endTime = _endTime;\n    rate = _rate;\n    \n  }\n\n  function getNow() public\n  view\n  returns (uint256) {\n      return now;\n  }\n  \n  function getTokensMinted() \n  public\n  view\n  returns (uint256) {\n      return token.tokenMinted();\n  }\n  \n  function setRate(uint256 _rate) \n  public\n  onlyAdmin \n  returns (uint256){\n        token.setRate(_rate);\n        rate=_rate;\n        return rate;                \n  }\n\n  function extendEndTime(uint256 _endTime) \n  public\n  onlyAdmin \n  returns (uint256){\n        endTime = _endTime;\n        return endTime;                \n  }\n  \n  // fallback function can be used to buy tokens\n  function () \n  public\n  payable {\n  \n    loadSmartKey(msg.sender);\n    \n  }\n\n  // low level token purchase function\n  function loadSmartKey(address beneficiary) \n  public\n  payable \n  {\n  \n    require(beneficiary != 0x0);\n    \n    uint256 weiAmount = msg.value;\n\n    // calculate token amount to be created\n    uint256 tokens = convertToToken(weiAmount);\n    \n    // update state\n    weiRaised = weiRaised.add(weiAmount);\n    \n    Key key=token.getSmartKey(beneficiary);\n    \n    token.loadSmartKey.value(msg.value)(key, address(beneficiary), \"CrowdSale\");\n        \n    SmartKeyPurchase(msg.sender, beneficiary, weiAmount, tokens);\n    \n  }\n\n  function convertToWei(uint256 amount) \n  public\n  view\n  returns (uint256)\n  {\n\t\treturn amount.mul(rate);\n  }\n\n  function convertToToken(uint256 amount) \n  public\n  view\n  returns (uint256)\n  {\n\t\treturn amount.div(rate);\n  }\n\n  // @return true if crowdsale event has ended\n  function hasEnded() \n  public \n  constant \n  returns (bool) {\n    return now > endTime;\n  }\n\n\n}\n",
  "sourcePath": "/windata/iotblock/contracts/crowdsale/Crowdsale.sol",
  "compiler": {
    "name": "solc",
    "version": "0.4.19+commit.c4cbbb05.Emscripten.clang"
  },
  "schemaVersion": "2.0.0",
  "updatedAt": "2018-11-20T09:59:12.850Z"
}