{
  "contractName": "GraphRoot",
  "abi": [
    {
      "constant": false,
      "inputs": [
        {
          "name": "key",
          "type": "string"
        },
        {
          "name": "value",
          "type": "string"
        }
      ],
      "name": "addKeyAuth",
      "outputs": [
        {
          "name": "",
          "type": "bool"
        }
      ],
      "payable": false,
      "stateMutability": "nonpayable",
      "type": "function"
    },
    {
      "constant": true,
      "inputs": [],
      "name": "smartKey",
      "outputs": [
        {
          "name": "",
          "type": "address"
        }
      ],
      "payable": false,
      "stateMutability": "view",
      "type": "function"
    },
    {
      "constant": true,
      "inputs": [
        {
          "name": "",
          "type": "address"
        },
        {
          "name": "",
          "type": "uint256"
        }
      ],
      "name": "transactions",
      "outputs": [
        {
          "name": "account",
          "type": "address"
        },
        {
          "name": "date",
          "type": "uint256"
        },
        {
          "name": "amount",
          "type": "uint256"
        },
        {
          "name": "transaction_type",
          "type": "uint256"
        }
      ],
      "payable": false,
      "stateMutability": "view",
      "type": "function"
    },
    {
      "constant": true,
      "inputs": [
        {
          "name": "",
          "type": "uint256"
        }
      ],
      "name": "admins",
      "outputs": [
        {
          "name": "",
          "type": "address"
        }
      ],
      "payable": false,
      "stateMutability": "view",
      "type": "function"
    },
    {
      "constant": false,
      "inputs": [
        {
          "name": "_owner",
          "type": "address"
        }
      ],
      "name": "removeOwner",
      "outputs": [],
      "payable": false,
      "stateMutability": "nonpayable",
      "type": "function"
    },
    {
      "constant": true,
      "inputs": [],
      "name": "getHealthStatus",
      "outputs": [
        {
          "name": "",
          "type": "bytes32"
        }
      ],
      "payable": false,
      "stateMutability": "view",
      "type": "function"
    },
    {
      "constant": true,
      "inputs": [],
      "name": "contrib_amount",
      "outputs": [
        {
          "name": "",
          "type": "uint256"
        }
      ],
      "payable": false,
      "stateMutability": "view",
      "type": "function"
    },
    {
      "constant": true,
      "inputs": [
        {
          "name": "_address",
          "type": "address"
        }
      ],
      "name": "getTransactionCount",
      "outputs": [
        {
          "name": "",
          "type": "uint256"
        }
      ],
      "payable": false,
      "stateMutability": "view",
      "type": "function"
    },
    {
      "constant": true,
      "inputs": [
        {
          "name": "",
          "type": "address"
        }
      ],
      "name": "isAdmin",
      "outputs": [
        {
          "name": "",
          "type": "bool"
        }
      ],
      "payable": false,
      "stateMutability": "view",
      "type": "function"
    },
    {
      "constant": true,
      "inputs": [
        {
          "name": "",
          "type": "address"
        }
      ],
      "name": "isOwner",
      "outputs": [
        {
          "name": "",
          "type": "bool"
        }
      ],
      "payable": false,
      "stateMutability": "view",
      "type": "function"
    },
    {
      "constant": true,
      "inputs": [],
      "name": "getAdmins",
      "outputs": [
        {
          "name": "",
          "type": "address[]"
        }
      ],
      "payable": false,
      "stateMutability": "view",
      "type": "function"
    },
    {
      "constant": true,
      "inputs": [],
      "name": "href",
      "outputs": [
        {
          "name": "",
          "type": "string"
        }
      ],
      "payable": false,
      "stateMutability": "view",
      "type": "function"
    },
    {
      "constant": false,
      "inputs": [
        {
          "name": "amount",
          "type": "uint256"
        },
        {
          "name": "beneficiary",
          "type": "address"
        }
      ],
      "name": "transferEth",
      "outputs": [],
      "payable": false,
      "stateMutability": "nonpayable",
      "type": "function"
    },
    {
      "constant": true,
      "inputs": [
        {
          "name": "hash",
          "type": "bytes32"
        }
      ],
      "name": "getValueByHash",
      "outputs": [
        {
          "name": "",
          "type": "string"
        }
      ],
      "payable": false,
      "stateMutability": "view",
      "type": "function"
    },
    {
      "constant": true,
      "inputs": [
        {
          "name": "",
          "type": "bytes32"
        }
      ],
      "name": "itemMetaData",
      "outputs": [
        {
          "name": "",
          "type": "address"
        }
      ],
      "payable": false,
      "stateMutability": "view",
      "type": "function"
    },
    {
      "constant": false,
      "inputs": [
        {
          "name": "_health",
          "type": "uint8"
        }
      ],
      "name": "setHealth",
      "outputs": [],
      "payable": true,
      "stateMutability": "payable",
      "type": "function"
    },
    {
      "constant": true,
      "inputs": [
        {
          "name": "key",
          "type": "string"
        }
      ],
      "name": "getHash",
      "outputs": [
        {
          "name": "",
          "type": "bytes32"
        }
      ],
      "payable": false,
      "stateMutability": "pure",
      "type": "function"
    },
    {
      "constant": true,
      "inputs": [],
      "name": "getSmartKey",
      "outputs": [
        {
          "name": "",
          "type": "address"
        }
      ],
      "payable": false,
      "stateMutability": "view",
      "type": "function"
    },
    {
      "constant": true,
      "inputs": [],
      "name": "getHealth",
      "outputs": [
        {
          "name": "",
          "type": "uint8"
        }
      ],
      "payable": false,
      "stateMutability": "view",
      "type": "function"
    },
    {
      "constant": false,
      "inputs": [
        {
          "name": "_node",
          "type": "address"
        },
        {
          "name": "_href",
          "type": "string"
        }
      ],
      "name": "upsertItem",
      "outputs": [
        {
          "name": "",
          "type": "bool"
        }
      ],
      "payable": true,
      "stateMutability": "payable",
      "type": "function"
    },
    {
      "constant": false,
      "inputs": [
        {
          "name": "admin",
          "type": "address"
        }
      ],
      "name": "addAdmin",
      "outputs": [],
      "payable": false,
      "stateMutability": "nonpayable",
      "type": "function"
    },
    {
      "constant": false,
      "inputs": [
        {
          "name": "_owner",
          "type": "address"
        }
      ],
      "name": "addOwner",
      "outputs": [],
      "payable": false,
      "stateMutability": "nonpayable",
      "type": "function"
    },
    {
      "constant": true,
      "inputs": [],
      "name": "selectItems",
      "outputs": [
        {
          "name": "",
          "type": "address[]"
        }
      ],
      "payable": false,
      "stateMutability": "view",
      "type": "function"
    },
    {
      "constant": true,
      "inputs": [],
      "name": "health",
      "outputs": [
        {
          "name": "",
          "type": "uint8"
        }
      ],
      "payable": false,
      "stateMutability": "view",
      "type": "function"
    },
    {
      "constant": true,
      "inputs": [
        {
          "name": "",
          "type": "address"
        }
      ],
      "name": "activated",
      "outputs": [
        {
          "name": "",
          "type": "uint256"
        }
      ],
      "payable": false,
      "stateMutability": "view",
      "type": "function"
    },
    {
      "constant": false,
      "inputs": [
        {
          "name": "user",
          "type": "address"
        }
      ],
      "name": "activateKey",
      "outputs": [],
      "payable": true,
      "stateMutability": "payable",
      "type": "function"
    },
    {
      "constant": true,
      "inputs": [
        {
          "name": "_href",
          "type": "string"
        }
      ],
      "name": "getItem",
      "outputs": [
        {
          "name": "",
          "type": "address"
        }
      ],
      "payable": false,
      "stateMutability": "view",
      "type": "function"
    },
    {
      "constant": false,
      "inputs": [
        {
          "name": "_href",
          "type": "string"
        }
      ],
      "name": "setHref",
      "outputs": [
        {
          "name": "",
          "type": "bool"
        }
      ],
      "payable": false,
      "stateMutability": "nonpayable",
      "type": "function"
    },
    {
      "constant": true,
      "inputs": [
        {
          "name": "",
          "type": "uint256"
        }
      ],
      "name": "items",
      "outputs": [
        {
          "name": "",
          "type": "address"
        }
      ],
      "payable": false,
      "stateMutability": "view",
      "type": "function"
    },
    {
      "constant": true,
      "inputs": [],
      "name": "state",
      "outputs": [
        {
          "name": "",
          "type": "uint8"
        }
      ],
      "payable": false,
      "stateMutability": "view",
      "type": "function"
    },
    {
      "constant": true,
      "inputs": [
        {
          "name": "",
          "type": "uint256"
        }
      ],
      "name": "meta",
      "outputs": [
        {
          "name": "",
          "type": "address"
        }
      ],
      "payable": false,
      "stateMutability": "view",
      "type": "function"
    },
    {
      "constant": false,
      "inputs": [
        {
          "name": "hash",
          "type": "bytes32"
        },
        {
          "name": "value",
          "type": "string"
        }
      ],
      "name": "addKeyValueByHash",
      "outputs": [
        {
          "name": "",
          "type": "bool"
        }
      ],
      "payable": false,
      "stateMutability": "nonpayable",
      "type": "function"
    },
    {
      "constant": false,
      "inputs": [
        {
          "name": "banned",
          "type": "address"
        }
      ],
      "name": "addBanned",
      "outputs": [],
      "payable": false,
      "stateMutability": "nonpayable",
      "type": "function"
    },
    {
      "constant": false,
      "inputs": [
        {
          "name": "_rel",
          "type": "string"
        },
        {
          "name": "_val",
          "type": "string"
        }
      ],
      "name": "upsertMetaData",
      "outputs": [
        {
          "name": "",
          "type": "address"
        }
      ],
      "payable": true,
      "stateMutability": "payable",
      "type": "function"
    },
    {
      "constant": true,
      "inputs": [
        {
          "name": "",
          "type": "bytes32"
        }
      ],
      "name": "nodeData",
      "outputs": [
        {
          "name": "",
          "type": "address"
        }
      ],
      "payable": false,
      "stateMutability": "view",
      "type": "function"
    },
    {
      "constant": true,
      "inputs": [],
      "name": "selectMetaData",
      "outputs": [
        {
          "name": "",
          "type": "address[]"
        }
      ],
      "payable": false,
      "stateMutability": "view",
      "type": "function"
    },
    {
      "constant": true,
      "inputs": [],
      "name": "vault",
      "outputs": [
        {
          "name": "",
          "type": "address"
        }
      ],
      "payable": false,
      "stateMutability": "view",
      "type": "function"
    },
    {
      "constant": true,
      "inputs": [
        {
          "name": "key",
          "type": "string"
        }
      ],
      "name": "getKeyAuth",
      "outputs": [
        {
          "name": "",
          "type": "string"
        }
      ],
      "payable": false,
      "stateMutability": "view",
      "type": "function"
    },
    {
      "inputs": [
        {
          "name": "_smartKey",
          "type": "address"
        },
        {
          "name": "adminAddress",
          "type": "address[]"
        },
        {
          "name": "_href",
          "type": "string"
        }
      ],
      "payable": false,
      "stateMutability": "nonpayable",
      "type": "constructor"
    },
    {
      "payable": true,
      "stateMutability": "payable",
      "type": "fallback"
    },
    {
      "anonymous": false,
      "inputs": [
        {
          "indexed": false,
          "name": "status",
          "type": "uint8"
        }
      ],
      "name": "HealthUpdate",
      "type": "event"
    }
  ],
  "bytecode": "0x606060405234156200001057600080fd5b60405162004d3f38038062004d3f8339810160405280805190602001909190805182019190602001805182019190505082828260008383818181308260008090505b8151811015620000d957600160008084848151811015156200007057fe5b9060200190602002015173ffffffffffffffffffffffffffffffffffffffff1673ffffffffffffffffffffffffffffffffffffffff16815260200190815260200160002060006101000a81548160ff021916908315150217905550808060010191505062000052565b8160019080519060200190620000f1929190620004d6565b5050506001600260003373ffffffffffffffffffffffffffffffffffffffff1673ffffffffffffffffffffffffffffffffffffffff16815260200190815260200160002060006101000a81548160ff02191690831515021790555060008173ffffffffffffffffffffffffffffffffffffffff16141515156200017357600080fd5b80600460006101000a81548173ffffffffffffffffffffffffffffffffffffffff021916908373ffffffffffffffffffffffffffffffffffffffff16021790555081600360006101000a81548173ffffffffffffffffffffffffffffffffffffffff021916908373ffffffffffffffffffffffffffffffffffffffff1602179055506000600460146101000a81548160ff021916908360028111156200021557fe5b02179055506001600260008373ffffffffffffffffffffffffffffffffffffffff1673ffffffffffffffffffffffffffffffffffffffff16815260200190815260200160002060006101000a81548160ff0219169083151502179055506001600260008473ffffffffffffffffffffffffffffffffffffffff1673ffffffffffffffffffffffffffffffffffffffff16815260200190815260200160002060006101000a81548160ff021916908315150217905550505081600360006101000a81548173ffffffffffffffffffffffffffffffffffffffff021916908373ffffffffffffffffffffffffffffffffffffffff1602179055505050505081600b90805190602001906200032992919062000565565b50600090505b82518110156200037e576200037083828151811015156200034c57fe5b90602001906020020151620003c964010000000002620025ba176401000000009004565b80806001019150506200032f565b6200039d84620003c964010000000002620025ba176401000000009004565b620003bc30620003c964010000000002620025ba176401000000009004565b505050505050506200065a565b600260003373ffffffffffffffffffffffffffffffffffffffff1673ffffffffffffffffffffffffffffffffffffffff16815260200190815260200160002060009054906101000a900460ff1615156200042257600080fd5b600260003373ffffffffffffffffffffffffffffffffffffffff1673ffffffffffffffffffffffffffffffffffffffff16815260200190815260200160002060009054906101000a900460ff1615156200047b57600080fd5b6001600260008373ffffffffffffffffffffffffffffffffffffffff1673ffffffffffffffffffffffffffffffffffffffff16815260200190815260200160002060006101000a81548160ff02191690831515021790555050565b82805482825590600052602060002090810192821562000552579160200282015b82811115620005515782518260006101000a81548173ffffffffffffffffffffffffffffffffffffffff021916908373ffffffffffffffffffffffffffffffffffffffff16021790555091602001919060010190620004f7565b5b509050620005619190620005ec565b5090565b828054600181600116156101000203166002900490600052602060002090601f016020900481019282601f10620005a857805160ff1916838001178555620005d9565b82800160010185558215620005d9579182015b82811115620005d8578251825591602001919060010190620005bb565b5b509050620005e8919062000632565b5090565b6200062f91905b808211156200062b57600081816101000a81549073ffffffffffffffffffffffffffffffffffffffff021916905550600101620005f3565b5090565b90565b6200065791905b808211156200065357600081600090555060010162000639565b5090565b90565b6146d5806200066a6000396000f300606060405260043610620001ff576000357c0100000000000000000000000000000000000000000000000000000000900463ffffffff16806303db428d146200020c578063113adf4914620002c757806314538128146200031f57806314bfd6d014620003b9578063173825d9146200041f5780631801e156146200045b578063202e079d146200048f57806323ca0cd214620004bb57806324d7806c146200050b5780632f54bf6e146200055f57806331ae450b14620005b357806336eeaa6a146200062257806349f9c0e414620006b65780635436e5a014620006fb5780635571edeb14620007a15780635b2ce586146200080b5780635b6beeb914620008285780635c866c7814620008a4578063640e7fd514620008fc57806367d90da214620009375780637048027514620009c25780637065cb4814620009fe57806374ddcd6e1462000a3a5780637633a22c1462000aa9578063779d86771462000ae45780639172fe081462000b34578063b6010fcd1462000b64578063b9d191661462000c04578063bfb231d21462000c7c578063c19d93fb1462000ce2578063cd5cfdaf1462000d1d578063d4c2f75c1462000d83578063e1b2e8b31462000e08578063ec6f214e1462000e44578063f63553b51462000f1b578063f95fd40b1462000f85578063fbfa77cf1462000ff4578063fd08e0c7146200104c575b6200020a3362001128565b005b34156200021857600080fd5b620002ad600480803590602001908201803590602001908080601f0160208091040260200160405190810160405280939291908181526020018383808284378201915050505050509190803590602001908201803590602001908080601f0160208091040260200160405190810160405280939291908181526020018383808284378201915050505050509190505062001276565b604051808215151515815260200191505060405180910390f35b3415620002d357600080fd5b620002dd62001349565b604051808273ffffffffffffffffffffffffffffffffffffffff1673ffffffffffffffffffffffffffffffffffffffff16815260200191505060405180910390f35b34156200032b57600080fd5b62000362600480803573ffffffffffffffffffffffffffffffffffffffff169060200190919080359060200190919050506200136f565b604051808573ffffffffffffffffffffffffffffffffffffffff1673ffffffffffffffffffffffffffffffffffffffff16815260200184815260200183815260200182815260200194505050505060405180910390f35b3415620003c557600080fd5b620003dd6004808035906020019091905050620013dc565b604051808273ffffffffffffffffffffffffffffffffffffffff1673ffffffffffffffffffffffffffffffffffffffff16815260200191505060405180910390f35b34156200042b57600080fd5b62000459600480803573ffffffffffffffffffffffffffffffffffffffff169060200190919050506200141c565b005b34156200046757600080fd5b6200047162001529565b60405180826000191660001916815260200191505060405180910390f35b34156200049b57600080fd5b620004a5620017c6565b6040518082815260200191505060405180910390f35b3415620004c757600080fd5b620004f5600480803573ffffffffffffffffffffffffffffffffffffffff16906020019091905050620017cc565b6040518082815260200191505060405180910390f35b34156200051757600080fd5b62000545600480803573ffffffffffffffffffffffffffffffffffffffff1690602001909190505062001818565b604051808215151515815260200191505060405180910390f35b34156200056b57600080fd5b62000599600480803573ffffffffffffffffffffffffffffffffffffffff1690602001909190505062001838565b604051808215151515815260200191505060405180910390f35b3415620005bf57600080fd5b620005c962001858565b6040518080602001828103825283818151815260200191508051906020019060200280838360005b838110156200060e578082015181840152602081019050620005f1565b505050509050019250505060405180910390f35b34156200062e57600080fd5b62000638620018f0565b6040518080602001828103825283818151815260200191508051906020019080838360005b838110156200067a5780820151818401526020810190506200065d565b50505050905090810190601f168015620006a85780820380516001836020036101000a031916815260200191505b509250505060405180910390f35b3415620006c257600080fd5b620006f9600480803590602001909190803573ffffffffffffffffffffffffffffffffffffffff1690602001909190505062001992565b005b34156200070757600080fd5b6200072360048080356000191690602001909190505062001b70565b6040518080602001828103825283818151815260200191508051906020019080838360005b838110156200076557808201518184015260208101905062000748565b50505050905090810190601f168015620007935780820380516001836020036101000a031916815260200191505b509250505060405180910390f35b3415620007ad57600080fd5b620007c960048080356000191690602001909190505062001c92565b604051808273ffffffffffffffffffffffffffffffffffffffff1673ffffffffffffffffffffffffffffffffffffffff16815260200191505060405180910390f35b62000826600480803560ff1690602001909190505062001cc5565b005b34156200083457600080fd5b62000886600480803590602001908201803590602001908080601f016020809104026020016040519081016040528093929190818152602001838380828437820191505050505050919050506200214f565b60405180826000191660001916815260200191505060405180910390f35b3415620008b057600080fd5b620008ba620021bd565b604051808273ffffffffffffffffffffffffffffffffffffffff1673ffffffffffffffffffffffffffffffffffffffff16815260200191505060405180910390f35b34156200090857600080fd5b62000912620021e7565b604051808260068111156200092357fe5b60ff16815260200191505060405180910390f35b620009a8600480803573ffffffffffffffffffffffffffffffffffffffff1690602001909190803590602001908201803590602001908080601f01602080910402602001604051908101604052809392919081815260200183838082843782019150505050505091905050620021fe565b604051808215151515815260200191505060405180910390f35b3415620009ce57600080fd5b620009fc600480803573ffffffffffffffffffffffffffffffffffffffff169060200190919050506200244b565b005b341562000a0a57600080fd5b62000a38600480803573ffffffffffffffffffffffffffffffffffffffff16906020019091905050620025ba565b005b341562000a4657600080fd5b62000a50620026c7565b6040518080602001828103825283818151815260200191508051906020019060200280838360005b8381101562000a9557808201518184015260208101905062000a78565b505050509050019250505060405180910390f35b341562000ab557600080fd5b62000abf6200275f565b6040518082600681111562000ad057fe5b60ff16815260200191505060405180910390f35b341562000af057600080fd5b62000b1e600480803573ffffffffffffffffffffffffffffffffffffffff1690602001909190505062002772565b6040518082815260200191505060405180910390f35b62000b62600480803573ffffffffffffffffffffffffffffffffffffffff1690602001909190505062001128565b005b341562000b7057600080fd5b62000bc2600480803590602001908201803590602001908080601f016020809104026020016040519081016040528093929190818152602001838380828437820191505050505050919050506200278a565b604051808273ffffffffffffffffffffffffffffffffffffffff1673ffffffffffffffffffffffffffffffffffffffff16815260200191505060405180910390f35b341562000c1057600080fd5b62000c62600480803590602001908201803590602001908080601f016020809104026020016040519081016040528093929190818152602001838380828437820191505050505050919050506200286f565b604051808215151515815260200191505060405180910390f35b341562000c8857600080fd5b62000ca06004808035906020019091905050620028eb565b604051808273ffffffffffffffffffffffffffffffffffffffff1673ffffffffffffffffffffffffffffffffffffffff16815260200191505060405180910390f35b341562000cee57600080fd5b62000cf86200292b565b6040518082600281111562000d0957fe5b60ff16815260200191505060405180910390f35b341562000d2957600080fd5b62000d4160048080359060200190919050506200293e565b604051808273ffffffffffffffffffffffffffffffffffffffff1673ffffffffffffffffffffffffffffffffffffffff16815260200191505060405180910390f35b341562000d8f57600080fd5b62000dee60048080356000191690602001909190803590602001908201803590602001908080601f016020809104026020016040519081016040528093929190818152602001838380828437820191505050505050919050506200297e565b604051808215151515815260200191505060405180910390f35b341562000e1457600080fd5b62000e42600480803573ffffffffffffffffffffffffffffffffffffffff1690602001909190505062002a15565b005b62000ed9600480803590602001908201803590602001908080601f0160208091040260200160405190810160405280939291908181526020018383808284378201915050505050509190803590602001908201803590602001908080601f0160208091040260200160405190810160405280939291908181526020018383808284378201915050505050509190505062002bf2565b604051808273ffffffffffffffffffffffffffffffffffffffff1673ffffffffffffffffffffffffffffffffffffffff16815260200191505060405180910390f35b341562000f2757600080fd5b62000f43600480803560001916906020019091905050620032e0565b604051808273ffffffffffffffffffffffffffffffffffffffff1673ffffffffffffffffffffffffffffffffffffffff16815260200191505060405180910390f35b341562000f9157600080fd5b62000f9b62003313565b6040518080602001828103825283818151815260200191508051906020019060200280838360005b8381101562000fe057808201518184015260208101905062000fc3565b505050509050019250505060405180910390f35b34156200100057600080fd5b6200100a620033ab565b604051808273ffffffffffffffffffffffffffffffffffffffff1673ffffffffffffffffffffffffffffffffffffffff16815260200191505060405180910390f35b34156200105857600080fd5b620010aa600480803590602001908201803590602001908080601f01602080910402602001604051908101604052809392919081815260200183838082843782019150505050505091905050620033d1565b6040518080602001828103825283818151815260200191508051906020019080838360005b83811015620010ec578082015181840152602081019050620010cf565b50505050905090810190601f1680156200111a5780820380516001836020036101000a031916815260200191505b509250505060405180910390f35b6001600460146101000a81548160ff021916908360028111156200114857fe5b02179055506200116434600554620034aa90919063ffffffff16565b600581905550600760008273ffffffffffffffffffffffffffffffffffffffff1673ffffffffffffffffffffffffffffffffffffffff1681526020019081526020016000208054806001018281620011bd9190620034c9565b916000526020600020906004020160006080604051908101604052803373ffffffffffffffffffffffffffffffffffffffff1681526020014281526020013481526020016000815250909190915060008201518160000160006101000a81548173ffffffffffffffffffffffffffffffffffffffff021916908373ffffffffffffffffffffffffffffffffffffffff16021790555060208201518160010155604082015181600201556060820151816003015550505050565b6000600260003373ffffffffffffffffffffffffffffffffffffffff1673ffffffffffffffffffffffffffffffffffffffff16815260200190815260200160002060009054906101000a900460ff161515620012d157600080fd5b62001341836040518082805190602001908083835b6020831015156200130d5780518252602082019150602081019050602083039250620012e6565b6001836020036101000a0380198251168184511680821785525050505050509050019150506040518091039020836200297e565b905092915050565b600360009054906101000a900473ffffffffffffffffffffffffffffffffffffffff1681565b6007602052816000526040600020818154811015156200138b57fe5b9060005260206000209060040201600091509150508060000160009054906101000a900473ffffffffffffffffffffffffffffffffffffffff16908060010154908060020154908060030154905084565b600181815481101515620013ec57fe5b90600052602060002090016000915054906101000a900473ffffffffffffffffffffffffffffffffffffffff1681565b600260003373ffffffffffffffffffffffffffffffffffffffff1673ffffffffffffffffffffffffffffffffffffffff16815260200190815260200160002060009054906101000a900460ff1615156200147557600080fd5b600260003373ffffffffffffffffffffffffffffffffffffffff1673ffffffffffffffffffffffffffffffffffffffff16815260200190815260200160002060009054906101000a900460ff161515620014ce57600080fd5b6000600260008373ffffffffffffffffffffffffffffffffffffffff1673ffffffffffffffffffffffffffffffffffffffff16815260200190815260200160002060006101000a81548160ff02191690831515021790555050565b60008060068111156200153857fe5b600460159054906101000a900460ff1660068111156200155457fe5b141562001584577f50726f766973696f6e696e6700000000000000000000000000000000000000009050620017c3565b600160068111156200159257fe5b600460159054906101000a900460ff166006811115620015ae57fe5b1415620015de577f43657274696669656400000000000000000000000000000000000000000000009050620017c3565b60026006811115620015ec57fe5b600460159054906101000a900460ff1660068111156200160857fe5b141562001638577f4d6f6469666965640000000000000000000000000000000000000000000000009050620017c3565b600360068111156200164657fe5b600460159054906101000a900460ff1660068111156200166257fe5b141562001692577f436f6d70726f6d697365640000000000000000000000000000000000000000009050620017c3565b60046006811115620016a057fe5b600460159054906101000a900460ff166006811115620016bc57fe5b1415620016ec577f4d616c66756e6374696f6e696e670000000000000000000000000000000000009050620017c3565b60056006811115620016fa57fe5b600460159054906101000a900460ff1660068111156200171657fe5b141562001746577f4861726d66756c000000000000000000000000000000000000000000000000009050620017c3565b6006808111156200175357fe5b600460159054906101000a900460ff1660068111156200176f57fe5b14156200179f577f436f756e746572666569740000000000000000000000000000000000000000009050620017c3565b7f436f756e7465726665697400000000000000000000000000000000000000000090505b90565b60055481565b6000600760008373ffffffffffffffffffffffffffffffffffffffff1673ffffffffffffffffffffffffffffffffffffffff168152602001908152602001600020805490509050919050565b60006020528060005260406000206000915054906101000a900460ff1681565b60026020528060005260406000206000915054906101000a900460ff1681565b62001862620034fe565b6001805480602002602001604051908101604052809291908181526020018280548015620018e657602002820191906000526020600020905b8160009054906101000a900473ffffffffffffffffffffffffffffffffffffffff1673ffffffffffffffffffffffffffffffffffffffff16815260200190600101908083116200189b575b5050505050905090565b600b8054600181600116156101000203166002900480601f0160208091040260200160405190810160405280929190818152602001828054600181600116156101000203166002900480156200198a5780601f106200195e576101008083540402835291602001916200198a565b820191906000526020600020905b8154815290600101906020018083116200196c57829003601f168201915b505050505081565b600260003373ffffffffffffffffffffffffffffffffffffffff1673ffffffffffffffffffffffffffffffffffffffff16815260200190815260200160002060009054906101000a900460ff161515620019eb57600080fd5b60016002811115620019f957fe5b600460149054906101000a900460ff16600281111562001a1557fe5b14151562001a2257600080fd5b8073ffffffffffffffffffffffffffffffffffffffff166108fc839081150290604051600060405180830381858888f19350505050151562001a6357600080fd5b600760003073ffffffffffffffffffffffffffffffffffffffff1673ffffffffffffffffffffffffffffffffffffffff168152602001908152602001600020805480600101828162001ab69190620034c9565b916000526020600020906004020160006080604051908101604052808573ffffffffffffffffffffffffffffffffffffffff1681526020014281526020018681526020016001815250909190915060008201518160000160006101000a81548173ffffffffffffffffffffffffffffffffffffffff021916908373ffffffffffffffffffffffffffffffffffffffff1602179055506020820151816001015560408201518160020155606082015181600301555050505050565b62001b7a62003512565b600260003373ffffffffffffffffffffffffffffffffffffffff1673ffffffffffffffffffffffffffffffffffffffff16815260200190815260200160002060009054906101000a900460ff16151562001bd357600080fd5b6008600083600019166000191681526020019081526020016000208054600181600116156101000203166002900480601f01602080910402602001604051908101604052809291908181526020018280546001816001161561010002031660029004801562001c865780601f1062001c5a5761010080835404028352916020019162001c86565b820191906000526020600020905b81548152906001019060200180831162001c6857829003601f168201915b50505050509050919050565b600a6020528060005260406000206000915054906101000a900473ffffffffffffffffffffffffffffffffffffffff1681565b80600460156101000a81548160ff0219169083600681111562001ce457fe5b0217905550600181600681111562001cf857fe5b111562001e7257600360009054906101000a900473ffffffffffffffffffffffffffffffffffffffff1673ffffffffffffffffffffffffffffffffffffffff16630d6d3b6e3430337f4865616c74685761726e696e67000000000000000000000000000000000000006000604051602001526040518563ffffffff167c0100000000000000000000000000000000000000000000000000000000028152600401808473ffffffffffffffffffffffffffffffffffffffff1673ffffffffffffffffffffffffffffffffffffffff1681526020018373ffffffffffffffffffffffffffffffffffffffff1673ffffffffffffffffffffffffffffffffffffffff168152602001826000191660001916815260200193505050506020604051808303818588803b151562001e2957600080fd5b6125ee5a03f1151562001e3b57600080fd5b5050505060405180519050506002600460146101000a81548160ff0219169083600281111562001e6757fe5b021790555062001fe0565b600360009054906101000a900473ffffffffffffffffffffffffffffffffffffffff1673ffffffffffffffffffffffffffffffffffffffff16630d6d3b6e3430337f4865616c746855706461746500000000000000000000000000000000000000006000604051602001526040518563ffffffff167c0100000000000000000000000000000000000000000000000000000000028152600401808473ffffffffffffffffffffffffffffffffffffffff1673ffffffffffffffffffffffffffffffffffffffff1681526020018373ffffffffffffffffffffffffffffffffffffffff1673ffffffffffffffffffffffffffffffffffffffff168152602001826000191660001916815260200193505050506020604051808303818588803b151562001f9c57600080fd5b6125ee5a03f1151562001fae57600080fd5b5050505060405180519050506001600460146101000a81548160ff0219169083600281111562001fda57fe5b02179055505b7fb6d7372bb54b80a5b1d60d3b1da737719783cc92a2095f10d9195105f7abeca581604051808260068111156200201357fe5b60ff16815260200191505060405180910390a16200203d34600554620034aa90919063ffffffff16565b600581905550600760003073ffffffffffffffffffffffffffffffffffffffff1673ffffffffffffffffffffffffffffffffffffffff1681526020019081526020016000208054806001018281620020969190620034c9565b916000526020600020906004020160006080604051908101604052803373ffffffffffffffffffffffffffffffffffffffff1681526020014281526020013481526020016000815250909190915060008201518160000160006101000a81548173ffffffffffffffffffffffffffffffffffffffff021916908373ffffffffffffffffffffffffffffffffffffffff16021790555060208201518160010155604082015181600201556060820151816003015550505050565b6000816040518082805190602001908083835b60208310151562002189578051825260208201915060208101905060208303925062002162565b6001836020036101000a03801982511681845116808217855250505050505090500191505060405180910390209050919050565b6000600360009054906101000a900473ffffffffffffffffffffffffffffffffffffffff16905090565b6000600460159054906101000a900460ff16905090565b6000806200220c836200214f565b905060006200221b846200278a565b73ffffffffffffffffffffffffffffffffffffffff161415620022f857600c80548060010182816200224e919062003526565b9160005260206000209001600086909190916101000a81548173ffffffffffffffffffffffffffffffffffffffff021916908373ffffffffffffffffffffffffffffffffffffffff1602179055505083600d6000836000191660001916815260200190815260200160002060006101000a81548173ffffffffffffffffffffffffffffffffffffffff021916908373ffffffffffffffffffffffffffffffffffffffff1602179055505b600360009054906101000a900473ffffffffffffffffffffffffffffffffffffffff1673ffffffffffffffffffffffffffffffffffffffff16630d6d3b6e3430877f4e6577436174616c6f67756500000000000000000000000000000000000000006000604051602001526040518563ffffffff167c0100000000000000000000000000000000000000000000000000000000028152600401808473ffffffffffffffffffffffffffffffffffffffff1673ffffffffffffffffffffffffffffffffffffffff1681526020018373ffffffffffffffffffffffffffffffffffffffff1673ffffffffffffffffffffffffffffffffffffffff168152602001826000191660001916815260200193505050506020604051808303818588803b15156200242257600080fd5b6125ee5a03f115156200243457600080fd5b505050506040518051905050600191505092915050565b6000803373ffffffffffffffffffffffffffffffffffffffff1673ffffffffffffffffffffffffffffffffffffffff16815260200190815260200160002060009054906101000a900460ff161515620024a357600080fd5b6000803373ffffffffffffffffffffffffffffffffffffffff1673ffffffffffffffffffffffffffffffffffffffff16815260200190815260200160002060009054906101000a900460ff161515620024fb57600080fd5b60016000808373ffffffffffffffffffffffffffffffffffffffff1673ffffffffffffffffffffffffffffffffffffffff16815260200190815260200160002060006101000a81548160ff0219169083151502179055506001805480600101828162002568919062003526565b9160005260206000209001600083909190916101000a81548173ffffffffffffffffffffffffffffffffffffffff021916908373ffffffffffffffffffffffffffffffffffffffff1602179055505050565b600260003373ffffffffffffffffffffffffffffffffffffffff1673ffffffffffffffffffffffffffffffffffffffff16815260200190815260200160002060009054906101000a900460ff1615156200261357600080fd5b600260003373ffffffffffffffffffffffffffffffffffffffff1673ffffffffffffffffffffffffffffffffffffffff16815260200190815260200160002060009054906101000a900460ff1615156200266c57600080fd5b6001600260008373ffffffffffffffffffffffffffffffffffffffff1673ffffffffffffffffffffffffffffffffffffffff16815260200190815260200160002060006101000a81548160ff02191690831515021790555050565b620026d1620034fe565b600c8054806020026020016040519081016040528092919081815260200182805480156200275557602002820191906000526020600020905b8160009054906101000a900473ffffffffffffffffffffffffffffffffffffffff1673ffffffffffffffffffffffffffffffffffffffff16815260200190600101908083116200270a575b5050505050905090565b600460159054906101000a900460ff1681565b60066020528060005260406000206000915090505481565b600080600183511015620027a15730915062002869565b620027ac836200214f565b9050600073ffffffffffffffffffffffffffffffffffffffff16600d6000836000191660001916815260200190815260200160002060009054906101000a900473ffffffffffffffffffffffffffffffffffffffff1673ffffffffffffffffffffffffffffffffffffffff161415156200286457600d6000826000191660001916815260200190815260200160002060009054906101000a900473ffffffffffffffffffffffffffffffffffffffff16915062002869565b600091505b50919050565b60008060003373ffffffffffffffffffffffffffffffffffffffff1673ffffffffffffffffffffffffffffffffffffffff16815260200190815260200160002060009054906101000a900460ff161515620028c957600080fd5b81600b9080519060200190620028e192919062003555565b5060019050919050565b600c81815481101515620028fb57fe5b90600052602060002090016000915054906101000a900473ffffffffffffffffffffffffffffffffffffffff1681565b600460149054906101000a900460ff1681565b6009818154811015156200294e57fe5b90600052602060002090016000915054906101000a900473ffffffffffffffffffffffffffffffffffffffff1681565b6000600260003373ffffffffffffffffffffffffffffffffffffffff1673ffffffffffffffffffffffffffffffffffffffff16815260200190815260200160002060009054906101000a900460ff161515620029d957600080fd5b81600860008560001916600019168152602001908152602001600020908051906020019062002a0a92919062003555565b506001905092915050565b60008060003373ffffffffffffffffffffffffffffffffffffffff1673ffffffffffffffffffffffffffffffffffffffff16815260200190815260200160002060009054906101000a900460ff16151562002a6f57600080fd5b6000803373ffffffffffffffffffffffffffffffffffffffff1673ffffffffffffffffffffffffffffffffffffffff16815260200190815260200160002060009054906101000a900460ff16151562002ac757600080fd5b60008060008473ffffffffffffffffffffffffffffffffffffffff1673ffffffffffffffffffffffffffffffffffffffff16815260200190815260200160002060006101000a81548160ff021916908315150217905550600090505b60018054905081101562002bee5760018181548110151562002b4157fe5b906000526020600020900160009054906101000a900473ffffffffffffffffffffffffffffffffffffffff1673ffffffffffffffffffffffffffffffffffffffff168273ffffffffffffffffffffffffffffffffffffffff16141562002be05760018181548110151562002bb157fe5b906000526020600020900160006101000a81549073ffffffffffffffffffffffffffffffffffffffff02191690555b808060010191505062002b23565b5050565b600080600062002c02856200214f565b9150600073ffffffffffffffffffffffffffffffffffffffff16600a6000846000191660001916815260200190815260200160002060009054906101000a900473ffffffffffffffffffffffffffffffffffffffff1673ffffffffffffffffffffffffffffffffffffffff16141562003019576001905080805480600101828162002c8e919062003526565b9160005260206000209001600030909190916101000a81548173ffffffffffffffffffffffffffffffffffffffff021916908373ffffffffffffffffffffffffffffffffffffffff1602179055505080805480600101828162002cf2919062003526565b9160005260206000209001600033909190916101000a81548173ffffffffffffffffffffffffffffffffffffffff021916908373ffffffffffffffffffffffffffffffffffffffff16021790555050600360009054906101000a900473ffffffffffffffffffffffffffffffffffffffff166001868662002d72620035dc565b808573ffffffffffffffffffffffffffffffffffffffff1673ffffffffffffffffffffffffffffffffffffffff168152602001806020018060200180602001848103845287818154815260200191508054801562002e2657602002820191906000526020600020905b8160009054906101000a900473ffffffffffffffffffffffffffffffffffffffff1673ffffffffffffffffffffffffffffffffffffffff168152602001906001019080831162002ddb575b5050848103835286818151815260200191508051906020019080838360005b8381101562002e6257808201518184015260208101905062002e45565b50505050905090810190601f16801562002e905780820380516001836020036101000a031916815260200191505b50848103825285818151815260200191508051906020019080838360005b8381101562002ecb57808201518184015260208101905062002eae565b50505050905090810190601f16801562002ef95780820380516001836020036101000a031916815260200191505b50975050505050505050604051809103906000f080151562002f1a57600080fd5b600a6000846000191660001916815260200190815260200160002060006101000a81548173ffffffffffffffffffffffffffffffffffffffff021916908373ffffffffffffffffffffffffffffffffffffffff1602179055506009805480600101828162002f899190620035ed565b91600052602060002090016000600a6000866000191660001916815260200190815260200160002060009054906101000a900473ffffffffffffffffffffffffffffffffffffffff16909190916101000a81548173ffffffffffffffffffffffffffffffffffffffff021916908373ffffffffffffffffffffffffffffffffffffffff1602179055505062003152565b600a6000836000191660001916815260200190815260200160002060009054906101000a900473ffffffffffffffffffffffffffffffffffffffff1673ffffffffffffffffffffffffffffffffffffffff16631aae2531856000604051602001526040518263ffffffff167c01000000000000000000000000000000000000000000000000000000000281526004018080602001828103825283818151815260200191508051906020019080838360005b83811015620030e7578082015181840152602081019050620030ca565b50505050905090810190601f168015620031155780820380516001836020036101000a031916815260200191505b5092505050602060405180830381600087803b15156200313457600080fd5b6102c65a03f115156200314657600080fd5b50505060405180519050505b600360009054906101000a900473ffffffffffffffffffffffffffffffffffffffff1673ffffffffffffffffffffffffffffffffffffffff16630d6d3b6e3430337f4d657461446174615570646174650000000000000000000000000000000000006000604051602001526040518563ffffffff167c0100000000000000000000000000000000000000000000000000000000028152600401808473ffffffffffffffffffffffffffffffffffffffff1673ffffffffffffffffffffffffffffffffffffffff1681526020018373ffffffffffffffffffffffffffffffffffffffff1673ffffffffffffffffffffffffffffffffffffffff168152602001826000191660001916815260200193505050506020604051808303818588803b15156200327c57600080fd5b6125ee5a03f115156200328e57600080fd5b505050506040518051905050600a6000836000191660001916815260200190815260200160002060009054906101000a900473ffffffffffffffffffffffffffffffffffffffff169250505092915050565b600d6020528060005260406000206000915054906101000a900473ffffffffffffffffffffffffffffffffffffffff1681565b6200331d6200361c565b6009805480602002602001604051908101604052809291908181526020018280548015620033a157602002820191906000526020600020905b8160009054906101000a900473ffffffffffffffffffffffffffffffffffffffff1673ffffffffffffffffffffffffffffffffffffffff168152602001906001019080831162003356575b5050505050905090565b600460009054906101000a900473ffffffffffffffffffffffffffffffffffffffff1681565b620033db62003512565b600260003373ffffffffffffffffffffffffffffffffffffffff1673ffffffffffffffffffffffffffffffffffffffff16815260200190815260200160002060009054906101000a900460ff1615156200343457600080fd5b620034a3826040518082805190602001908083835b60208310151562003470578051825260208201915060208101905060208303925062003449565b6001836020036101000a038019825116818451168082178552505050505050905001915050604051809103902062001b70565b9050919050565b6000808284019050838110151515620034bf57fe5b8091505092915050565b815481835581811511620034f957600402816004028360005260206000209182019101620034f8919062003630565b5b505050565b602060405190810160405280600081525090565b602060405190810160405280600081525090565b81548183558181151162003550578183600052602060002091820191016200354f919062003691565b5b505050565b828054600181600116156101000203166002900490600052602060002090601f016020900481019282601f106200359857805160ff1916838001178555620035c9565b82800160010185558215620035c9579182015b82811115620035c8578251825591602001919060010190620035ab565b5b509050620035d8919062003691565b5090565b604051610ff080620036ba83390190565b815481835581811511620036175781836000526020600020918201910162003616919062003691565b5b505050565b602060405190810160405280600081525090565b6200368e91905b808211156200368a57600080820160006101000a81549073ffffffffffffffffffffffffffffffffffffffff02191690556001820160009055600282016000905560038201600090555060040162003637565b5090565b90565b620036b691905b80821115620036b257600081600090555060010162003698565b5090565b905600606060405234156200001057600080fd5b60405162000ff038038062000ff0833981016040528080519060200190919080518201919060200180518201919060200180518201919050508260008090505b8151811015620000d757600160008084848151811015156200006e57fe5b9060200190602002015173ffffffffffffffffffffffffffffffffffffffff1673ffffffffffffffffffffffffffffffffffffffff16815260200190815260200160002060006101000a81548160ff021916908315150217905550808060010191505062000050565b8160019080519060200190620000ef9291906200016f565b50505083600260006101000a81548173ffffffffffffffffffffffffffffffffffffffff021916908373ffffffffffffffffffffffffffffffffffffffff16021790555081600390805190602001906200014b929190620001fe565b50806004908051906020019062000164929190620001fe565b5050505050620002f3565b828054828255906000526020600020908101928215620001eb579160200282015b82811115620001ea5782518260006101000a81548173ffffffffffffffffffffffffffffffffffffffff021916908373ffffffffffffffffffffffffffffffffffffffff1602179055509160200191906001019062000190565b5b509050620001fa919062000285565b5090565b828054600181600116156101000203166002900490600052602060002090601f016020900481019282601f106200024157805160ff191683800117855562000272565b8280016001018555821562000272579182015b828111156200027157825182559160200191906001019062000254565b5b509050620002819190620002cb565b5090565b620002c891905b80821115620002c457600081816101000a81549073ffffffffffffffffffffffffffffffffffffffff0219169055506001016200028c565b5090565b90565b620002f091905b80821115620002ec576000816000905550600101620002d2565b5090565b90565b610ced80620003036000396000f300606060405260043610610099576000357c0100000000000000000000000000000000000000000000000000000000900463ffffffff1680630fe4e9e81461009e57806314bfd6d01461013a5780631aae25311461019d57806324d7806c1461021257806331ae450b146102635780633c6bb436146102cd578063704802751461035b578063ce26e78a14610394578063e1b2e8b314610422575b600080fd5b34156100a957600080fd5b6100bf600480803590602001909190505061045b565b6040518080602001828103825283818151815260200191508051906020019080838360005b838110156100ff5780820151818401526020810190506100e4565b50505050905090810190601f16801561012c5780820380516001836020036101000a031916815260200191505b509250505060405180910390f35b341561014557600080fd5b61015b6004808035906020019091905050610517565b604051808273ffffffffffffffffffffffffffffffffffffffff1673ffffffffffffffffffffffffffffffffffffffff16815260200191505060405180910390f35b34156101a857600080fd5b6101f8600480803590602001908201803590602001908080601f01602080910402602001604051908101604052809392919081815260200183838082843782019150505050505091905050610556565b604051808215151515815260200191505060405180910390f35b341561021d57600080fd5b610249600480803573ffffffffffffffffffffffffffffffffffffffff1690602001909190505061060b565b604051808215151515815260200191505060405180910390f35b341561026e57600080fd5b61027661062b565b6040518080602001828103825283818151815260200191508051906020019060200280838360005b838110156102b957808201518184015260208101905061029e565b505050509050019250505060405180910390f35b34156102d857600080fd5b6102e06106bf565b6040518080602001828103825283818151815260200191508051906020019080838360005b83811015610320578082015181840152602081019050610305565b50505050905090810190601f16801561034d5780820380516001836020036101000a031916815260200191505b509250505060405180910390f35b341561036657600080fd5b610392600480803573ffffffffffffffffffffffffffffffffffffffff1690602001909190505061075d565b005b341561039f57600080fd5b6103a76108c8565b6040518080602001828103825283818151815260200191508051906020019080838360005b838110156103e75780820151818401526020810190506103cc565b50505050905090810190601f1680156104145780820380516001836020036101000a031916815260200191505b509250505060405180910390f35b341561042d57600080fd5b610459600480803573ffffffffffffffffffffffffffffffffffffffff16906020019091905050610966565b005b60058181548110151561046a57fe5b90600052602060002090016000915090508054600181600116156101000203166002900480601f01602080910402602001604051908101604052809291908181526020018280546001816001161561010002031660029004801561050f5780601f106104e45761010080835404028352916020019161050f565b820191906000526020600020905b8154815290600101906020018083116104f257829003601f168201915b505050505081565b60018181548110151561052657fe5b90600052602060002090016000915054906101000a900473ffffffffffffffffffffffffffffffffffffffff1681565b60008060003373ffffffffffffffffffffffffffffffffffffffff1673ffffffffffffffffffffffffffffffffffffffff16815260200190815260200160002060009054906101000a900460ff1615156105af57600080fd5b600580548060010182816105c39190610b3c565b9160005260206000209001600084909190915090805190602001906105e9929190610b68565b50508160049080519060200190610601929190610b68565b5060019050919050565b60006020528060005260406000206000915054906101000a900460ff1681565b610633610be8565b60018054806020026020016040519081016040528092919081815260200182805480156106b557602002820191906000526020600020905b8160009054906101000a900473ffffffffffffffffffffffffffffffffffffffff1673ffffffffffffffffffffffffffffffffffffffff168152602001906001019080831161066b575b5050505050905090565b60048054600181600116156101000203166002900480601f0160208091040260200160405190810160405280929190818152602001828054600181600116156101000203166002900480156107555780601f1061072a57610100808354040283529160200191610755565b820191906000526020600020905b81548152906001019060200180831161073857829003601f168201915b505050505081565b6000803373ffffffffffffffffffffffffffffffffffffffff1673ffffffffffffffffffffffffffffffffffffffff16815260200190815260200160002060009054906101000a900460ff1615156107b457600080fd5b6000803373ffffffffffffffffffffffffffffffffffffffff1673ffffffffffffffffffffffffffffffffffffffff16815260200190815260200160002060009054906101000a900460ff16151561080b57600080fd5b60016000808373ffffffffffffffffffffffffffffffffffffffff1673ffffffffffffffffffffffffffffffffffffffff16815260200190815260200160002060006101000a81548160ff021916908315150217905550600180548060010182816108769190610bfc565b9160005260206000209001600083909190916101000a81548173ffffffffffffffffffffffffffffffffffffffff021916908373ffffffffffffffffffffffffffffffffffffffff1602179055505050565b60038054600181600116156101000203166002900480601f01602080910402602001604051908101604052809291908181526020018280546001816001161561010002031660029004801561095e5780601f106109335761010080835404028352916020019161095e565b820191906000526020600020905b81548152906001019060200180831161094157829003601f168201915b505050505081565b60008060003373ffffffffffffffffffffffffffffffffffffffff1673ffffffffffffffffffffffffffffffffffffffff16815260200190815260200160002060009054906101000a900460ff1615156109bf57600080fd5b6000803373ffffffffffffffffffffffffffffffffffffffff1673ffffffffffffffffffffffffffffffffffffffff16815260200190815260200160002060009054906101000a900460ff161515610a1657600080fd5b60008060008473ffffffffffffffffffffffffffffffffffffffff1673ffffffffffffffffffffffffffffffffffffffff16815260200190815260200160002060006101000a81548160ff021916908315150217905550600090505b600180549050811015610b3857600181815481101515610a8e57fe5b906000526020600020900160009054906101000a900473ffffffffffffffffffffffffffffffffffffffff1673ffffffffffffffffffffffffffffffffffffffff168273ffffffffffffffffffffffffffffffffffffffff161415610b2b57600181815481101515610afc57fe5b906000526020600020900160006101000a81549073ffffffffffffffffffffffffffffffffffffffff02191690555b8080600101915050610a72565b5050565b815481835581811511610b6357818360005260206000209182019101610b629190610c28565b5b505050565b828054600181600116156101000203166002900490600052602060002090601f016020900481019282601f10610ba957805160ff1916838001178555610bd7565b82800160010185558215610bd7579182015b82811115610bd6578251825591602001919060010190610bbb565b5b509050610be49190610c54565b5090565b602060405190810160405280600081525090565b815481835581811511610c2357818360005260206000209182019101610c229190610c54565b5b505050565b610c5191905b80821115610c4d5760008181610c449190610c79565b50600101610c2e565b5090565b90565b610c7691905b80821115610c72576000816000905550600101610c5a565b5090565b90565b50805460018160011615610100020316600290046000825580601f10610c9f5750610cbe565b601f016020900490600052602060002090810190610cbd9190610c54565b5b505600a165627a7a7230582099873a34347606be02e82cea8e0481561486fdfe3beb1ceadd528d3f7bae2f2e0029a165627a7a723058207b4475024ceae3195213ca80020055a1ae2faaa65d0e74938f59ad377411543d0029",
  "source": "pragma solidity ^0.4.18; //We have to specify what version of the compiler this code will use\n\nimport \"./GraphNode.sol\";\n\ncontract GraphRoot is GraphNode\n{\n      \n  function GraphRoot(SmartKey _smartKey, address[] adminAddress, string _href) \n  public\n  GraphNode(_smartKey, adminAddress, _href)\n  {\n  }\n  \n}",
  "sourcePath": "/windata/iotblock/contracts/GraphRoot.sol",
  "compiler": {
    "name": "solc",
    "version": "0.4.19+commit.c4cbbb05.Emscripten.clang"
  },
  "schemaVersion": "2.0.0",
  "updatedAt": "2018-11-20T09:59:30.100Z"
}