{
  "contractName": "Key",
  "abi": [
    {
      "constant": true,
      "inputs": [],
      "name": "smartKey",
      "outputs": [
        {
          "name": "",
          "type": "address"
        }
      ],
      "payable": false,
      "stateMutability": "view",
      "type": "function"
    },
    {
      "constant": true,
      "inputs": [
        {
          "name": "",
          "type": "address"
        },
        {
          "name": "",
          "type": "uint256"
        }
      ],
      "name": "transactions",
      "outputs": [
        {
          "name": "account",
          "type": "address"
        },
        {
          "name": "date",
          "type": "uint256"
        },
        {
          "name": "amount",
          "type": "uint256"
        },
        {
          "name": "transaction_type",
          "type": "uint256"
        }
      ],
      "payable": false,
      "stateMutability": "view",
      "type": "function"
    },
    {
      "constant": false,
      "inputs": [
        {
          "name": "_owner",
          "type": "address"
        }
      ],
      "name": "removeOwner",
      "outputs": [],
      "payable": false,
      "stateMutability": "nonpayable",
      "type": "function"
    },
    {
      "constant": true,
      "inputs": [],
      "name": "contrib_amount",
      "outputs": [
        {
          "name": "",
          "type": "uint256"
        }
      ],
      "payable": false,
      "stateMutability": "view",
      "type": "function"
    },
    {
      "constant": true,
      "inputs": [
        {
          "name": "",
          "type": "address"
        }
      ],
      "name": "isOwner",
      "outputs": [
        {
          "name": "",
          "type": "bool"
        }
      ],
      "payable": false,
      "stateMutability": "view",
      "type": "function"
    },
    {
      "constant": false,
      "inputs": [
        {
          "name": "_owner",
          "type": "address"
        }
      ],
      "name": "addOwner",
      "outputs": [],
      "payable": false,
      "stateMutability": "nonpayable",
      "type": "function"
    },
    {
      "constant": true,
      "inputs": [],
      "name": "health",
      "outputs": [
        {
          "name": "",
          "type": "uint8"
        }
      ],
      "payable": false,
      "stateMutability": "view",
      "type": "function"
    },
    {
      "constant": true,
      "inputs": [
        {
          "name": "",
          "type": "address"
        }
      ],
      "name": "activated",
      "outputs": [
        {
          "name": "",
          "type": "uint256"
        }
      ],
      "payable": false,
      "stateMutability": "view",
      "type": "function"
    },
    {
      "constant": true,
      "inputs": [],
      "name": "state",
      "outputs": [
        {
          "name": "",
          "type": "uint8"
        }
      ],
      "payable": false,
      "stateMutability": "view",
      "type": "function"
    },
    {
      "constant": true,
      "inputs": [],
      "name": "vault",
      "outputs": [
        {
          "name": "",
          "type": "address"
        }
      ],
      "payable": false,
      "stateMutability": "view",
      "type": "function"
    },
    {
      "inputs": [
        {
          "name": "_smartKey",
          "type": "address"
        },
        {
          "name": "_vault",
          "type": "address"
        }
      ],
      "payable": false,
      "stateMutability": "nonpayable",
      "type": "constructor"
    },
    {
      "payable": true,
      "stateMutability": "payable",
      "type": "fallback"
    },
    {
      "anonymous": false,
      "inputs": [
        {
          "indexed": false,
          "name": "status",
          "type": "uint8"
        }
      ],
      "name": "HealthUpdate",
      "type": "event"
    },
    {
      "constant": true,
      "inputs": [
        {
          "name": "_address",
          "type": "address"
        }
      ],
      "name": "getTransactionCount",
      "outputs": [
        {
          "name": "",
          "type": "uint256"
        }
      ],
      "payable": false,
      "stateMutability": "view",
      "type": "function"
    },
    {
      "constant": false,
      "inputs": [
        {
          "name": "amount",
          "type": "uint256"
        },
        {
          "name": "beneficiary",
          "type": "address"
        }
      ],
      "name": "transferEth",
      "outputs": [],
      "payable": false,
      "stateMutability": "nonpayable",
      "type": "function"
    },
    {
      "constant": false,
      "inputs": [
        {
          "name": "_health",
          "type": "uint8"
        }
      ],
      "name": "setHealth",
      "outputs": [],
      "payable": true,
      "stateMutability": "payable",
      "type": "function"
    },
    {
      "constant": true,
      "inputs": [],
      "name": "getHealth",
      "outputs": [
        {
          "name": "",
          "type": "uint8"
        }
      ],
      "payable": false,
      "stateMutability": "view",
      "type": "function"
    },
    {
      "constant": true,
      "inputs": [],
      "name": "getHealthStatus",
      "outputs": [
        {
          "name": "",
          "type": "bytes32"
        }
      ],
      "payable": false,
      "stateMutability": "view",
      "type": "function"
    },
    {
      "constant": false,
      "inputs": [
        {
          "name": "user",
          "type": "address"
        }
      ],
      "name": "activateKey",
      "outputs": [],
      "payable": true,
      "stateMutability": "payable",
      "type": "function"
    },
    {
      "constant": true,
      "inputs": [
        {
          "name": "key",
          "type": "string"
        }
      ],
      "name": "getHash",
      "outputs": [
        {
          "name": "",
          "type": "bytes32"
        }
      ],
      "payable": false,
      "stateMutability": "pure",
      "type": "function"
    },
    {
      "constant": false,
      "inputs": [
        {
          "name": "hash",
          "type": "bytes32"
        },
        {
          "name": "value",
          "type": "string"
        }
      ],
      "name": "addKeyValueByHash",
      "outputs": [
        {
          "name": "",
          "type": "bool"
        }
      ],
      "payable": false,
      "stateMutability": "nonpayable",
      "type": "function"
    },
    {
      "constant": true,
      "inputs": [
        {
          "name": "hash",
          "type": "bytes32"
        }
      ],
      "name": "getValueByHash",
      "outputs": [
        {
          "name": "",
          "type": "string"
        }
      ],
      "payable": false,
      "stateMutability": "view",
      "type": "function"
    },
    {
      "constant": false,
      "inputs": [
        {
          "name": "key",
          "type": "string"
        },
        {
          "name": "value",
          "type": "string"
        }
      ],
      "name": "addKeyAuth",
      "outputs": [
        {
          "name": "",
          "type": "bool"
        }
      ],
      "payable": false,
      "stateMutability": "nonpayable",
      "type": "function"
    },
    {
      "constant": true,
      "inputs": [
        {
          "name": "key",
          "type": "string"
        }
      ],
      "name": "getKeyAuth",
      "outputs": [
        {
          "name": "",
          "type": "string"
        }
      ],
      "payable": false,
      "stateMutability": "view",
      "type": "function"
    }
  ],
  "bytecode": "0x6060604052341561000f57600080fd5b604051604080611d828339810160405280805190602001909190805190602001909190505060016000803373ffffffffffffffffffffffffffffffffffffffff1673ffffffffffffffffffffffffffffffffffffffff16815260200190815260200160002060006101000a81548160ff02191690831515021790555060008173ffffffffffffffffffffffffffffffffffffffff16141515156100b157600080fd5b80600260006101000a81548173ffffffffffffffffffffffffffffffffffffffff021916908373ffffffffffffffffffffffffffffffffffffffff16021790555081600160006101000a81548173ffffffffffffffffffffffffffffffffffffffff021916908373ffffffffffffffffffffffffffffffffffffffff1602179055506000600260146101000a81548160ff0219169083600281111561015257fe5b021790555060016000808373ffffffffffffffffffffffffffffffffffffffff1673ffffffffffffffffffffffffffffffffffffffff16815260200190815260200160002060006101000a81548160ff02191690831515021790555060016000808473ffffffffffffffffffffffffffffffffffffffff1673ffffffffffffffffffffffffffffffffffffffff16815260200190815260200160002060006101000a81548160ff0219169083151502179055505050611b6c806102166000396000f30060606040526004361061011d576000357c0100000000000000000000000000000000000000000000000000000000900463ffffffff16806303db428d14610128578063113adf49146101e05780631453812814610235578063173825d9146102cc5780631801e15614610305578063202e079d1461033657806323ca0cd21461035f5780632f54bf6e146103ac57806349f9c0e4146103fd5780635436e5a01461043f5780635b2ce586146104df5780635b6beeb9146104fa578063640e7fd5146105735780637065cb48146105aa5780637633a22c146105e3578063779d86771461061a5780639172fe0814610667578063c19d93fb14610695578063d4c2f75c146106cc578063fbfa77cf1461074e578063fd08e0c7146107a3575b61012633610879565b005b341561013357600080fd5b6101c6600480803590602001908201803590602001908080601f0160208091040260200160405190810160405280939291908181526020018383808284378201915050505050509190803590602001908201803590602001908080601f016020809104026020016040519081016040528093929190818152602001838380828437820191505050505050919050506109c2565b604051808215151515815260200191505060405180910390f35b34156101eb57600080fd5b6101f3610a8f565b604051808273ffffffffffffffffffffffffffffffffffffffff1673ffffffffffffffffffffffffffffffffffffffff16815260200191505060405180910390f35b341561024057600080fd5b610275600480803573ffffffffffffffffffffffffffffffffffffffff16906020019091908035906020019091905050610ab5565b604051808573ffffffffffffffffffffffffffffffffffffffff1673ffffffffffffffffffffffffffffffffffffffff16815260200184815260200183815260200182815260200194505050505060405180910390f35b34156102d757600080fd5b610303600480803573ffffffffffffffffffffffffffffffffffffffff16906020019091905050610b21565b005b341561031057600080fd5b610318610c29565b60405180826000191660001916815260200191505060405180910390f35b341561034157600080fd5b610349610eaa565b6040518082815260200191505060405180910390f35b341561036a57600080fd5b610396600480803573ffffffffffffffffffffffffffffffffffffffff16906020019091905050610eb0565b6040518082815260200191505060405180910390f35b34156103b757600080fd5b6103e3600480803573ffffffffffffffffffffffffffffffffffffffff16906020019091905050610efc565b604051808215151515815260200191505060405180910390f35b341561040857600080fd5b61043d600480803590602001909190803573ffffffffffffffffffffffffffffffffffffffff16906020019091905050610f1c565b005b341561044a57600080fd5b6104646004808035600019169060200190919050506110f2565b6040518080602001828103825283818151815260200191508051906020019080838360005b838110156104a4578082015181840152602081019050610489565b50505050905090810190601f1680156104d15780820380516001836020036101000a031916815260200191505b509250505060405180910390f35b6104f8600480803560ff1690602001909190505061120c565b005b341561050557600080fd5b610555600480803590602001908201803590602001908080601f01602080910402602001604051908101604052809392919081815260200183838082843782019150505050505091905050611686565b60405180826000191660001916815260200191505060405180910390f35b341561057e57600080fd5b6105866116f2565b6040518082600681111561059657fe5b60ff16815260200191505060405180910390f35b34156105b557600080fd5b6105e1600480803573ffffffffffffffffffffffffffffffffffffffff16906020019091905050611709565b005b34156105ee57600080fd5b6105f6611811565b6040518082600681111561060657fe5b60ff16815260200191505060405180910390f35b341561062557600080fd5b610651600480803573ffffffffffffffffffffffffffffffffffffffff16906020019091905050611824565b6040518082815260200191505060405180910390f35b610693600480803573ffffffffffffffffffffffffffffffffffffffff16906020019091905050610879565b005b34156106a057600080fd5b6106a861183c565b604051808260028111156106b857fe5b60ff16815260200191505060405180910390f35b34156106d757600080fd5b61073460048080356000191690602001909190803590602001908201803590602001908080601f0160208091040260200160405190810160405280939291908181526020018383808284378201915050505050509190505061184f565b604051808215151515815260200191505060405180910390f35b341561075957600080fd5b6107616118e2565b604051808273ffffffffffffffffffffffffffffffffffffffff1673ffffffffffffffffffffffffffffffffffffffff16815260200191505060405180910390f35b34156107ae57600080fd5b6107fe600480803590602001908201803590602001908080601f01602080910402602001604051908101604052809392919081815260200183838082843782019150505050505091905050611908565b6040518080602001828103825283818151815260200191508051906020019080838360005b8381101561083e578082015181840152602081019050610823565b50505050905090810190601f16801561086b5780820380516001836020036101000a031916815260200191505b509250505060405180910390f35b6001600260146101000a81548160ff0219169083600281111561089857fe5b02179055506108b2346003546119d990919063ffffffff16565b600381905550600560008273ffffffffffffffffffffffffffffffffffffffff1673ffffffffffffffffffffffffffffffffffffffff168152602001908152602001600020805480600101828161090991906119f7565b916000526020600020906004020160006080604051908101604052803373ffffffffffffffffffffffffffffffffffffffff1681526020014281526020013481526020016000815250909190915060008201518160000160006101000a81548173ffffffffffffffffffffffffffffffffffffffff021916908373ffffffffffffffffffffffffffffffffffffffff16021790555060208201518160010155604082015181600201556060820151816003015550505050565b60008060003373ffffffffffffffffffffffffffffffffffffffff1673ffffffffffffffffffffffffffffffffffffffff16815260200190815260200160002060009054906101000a900460ff161515610a1b57600080fd5b610a87836040518082805190602001908083835b602083101515610a545780518252602082019150602081019050602083039250610a2f565b6001836020036101000a03801982511681845116808217855250505050505090500191505060405180910390208361184f565b905092915050565b600160009054906101000a900473ffffffffffffffffffffffffffffffffffffffff1681565b600560205281600052604060002081815481101515610ad057fe5b9060005260206000209060040201600091509150508060000160009054906101000a900473ffffffffffffffffffffffffffffffffffffffff16908060010154908060020154908060030154905084565b6000803373ffffffffffffffffffffffffffffffffffffffff1673ffffffffffffffffffffffffffffffffffffffff16815260200190815260200160002060009054906101000a900460ff161515610b7857600080fd5b6000803373ffffffffffffffffffffffffffffffffffffffff1673ffffffffffffffffffffffffffffffffffffffff16815260200190815260200160002060009054906101000a900460ff161515610bcf57600080fd5b60008060008373ffffffffffffffffffffffffffffffffffffffff1673ffffffffffffffffffffffffffffffffffffffff16815260200190815260200160002060006101000a81548160ff02191690831515021790555050565b6000806006811115610c3757fe5b600260159054906101000a900460ff166006811115610c5257fe5b1415610c80577f50726f766973696f6e696e6700000000000000000000000000000000000000009050610ea7565b60016006811115610c8d57fe5b600260159054906101000a900460ff166006811115610ca857fe5b1415610cd6577f43657274696669656400000000000000000000000000000000000000000000009050610ea7565b60026006811115610ce357fe5b600260159054906101000a900460ff166006811115610cfe57fe5b1415610d2c577f4d6f6469666965640000000000000000000000000000000000000000000000009050610ea7565b60036006811115610d3957fe5b600260159054906101000a900460ff166006811115610d5457fe5b1415610d82577f436f6d70726f6d697365640000000000000000000000000000000000000000009050610ea7565b60046006811115610d8f57fe5b600260159054906101000a900460ff166006811115610daa57fe5b1415610dd8577f4d616c66756e6374696f6e696e670000000000000000000000000000000000009050610ea7565b60056006811115610de557fe5b600260159054906101000a900460ff166006811115610e0057fe5b1415610e2e577f4861726d66756c000000000000000000000000000000000000000000000000009050610ea7565b600680811115610e3a57fe5b600260159054906101000a900460ff166006811115610e5557fe5b1415610e83577f436f756e746572666569740000000000000000000000000000000000000000009050610ea7565b7f436f756e7465726665697400000000000000000000000000000000000000000090505b90565b60035481565b6000600560008373ffffffffffffffffffffffffffffffffffffffff1673ffffffffffffffffffffffffffffffffffffffff168152602001908152602001600020805490509050919050565b60006020528060005260406000206000915054906101000a900460ff1681565b6000803373ffffffffffffffffffffffffffffffffffffffff1673ffffffffffffffffffffffffffffffffffffffff16815260200190815260200160002060009054906101000a900460ff161515610f7357600080fd5b60016002811115610f8057fe5b600260149054906101000a900460ff166002811115610f9b57fe5b141515610fa757600080fd5b8073ffffffffffffffffffffffffffffffffffffffff166108fc839081150290604051600060405180830381858888f193505050501515610fe757600080fd5b600560003073ffffffffffffffffffffffffffffffffffffffff1673ffffffffffffffffffffffffffffffffffffffff168152602001908152602001600020805480600101828161103891906119f7565b916000526020600020906004020160006080604051908101604052808573ffffffffffffffffffffffffffffffffffffffff1681526020014281526020018681526020016001815250909190915060008201518160000160006101000a81548173ffffffffffffffffffffffffffffffffffffffff021916908373ffffffffffffffffffffffffffffffffffffffff1602179055506020820151816001015560408201518160020155606082015181600301555050505050565b6110fa611a29565b6000803373ffffffffffffffffffffffffffffffffffffffff1673ffffffffffffffffffffffffffffffffffffffff16815260200190815260200160002060009054906101000a900460ff16151561115157600080fd5b6006600083600019166000191681526020019081526020016000208054600181600116156101000203166002900480601f0160208091040260200160405190810160405280929190818152602001828054600181600116156101000203166002900480156112005780601f106111d557610100808354040283529160200191611200565b820191906000526020600020905b8154815290600101906020018083116111e357829003601f168201915b50505050509050919050565b80600260156101000a81548160ff0219169083600681111561122a57fe5b0217905550600181600681111561123d57fe5b11156113b157600160009054906101000a900473ffffffffffffffffffffffffffffffffffffffff1673ffffffffffffffffffffffffffffffffffffffff16630d6d3b6e3430337f4865616c74685761726e696e67000000000000000000000000000000000000006000604051602001526040518563ffffffff167c0100000000000000000000000000000000000000000000000000000000028152600401808473ffffffffffffffffffffffffffffffffffffffff1673ffffffffffffffffffffffffffffffffffffffff1681526020018373ffffffffffffffffffffffffffffffffffffffff1673ffffffffffffffffffffffffffffffffffffffff168152602001826000191660001916815260200193505050506020604051808303818588803b151561136c57600080fd5b6125ee5a03f1151561137d57600080fd5b50505050604051805190505060028060146101000a81548160ff021916908360028111156113a757fe5b021790555061151c565b600160009054906101000a900473ffffffffffffffffffffffffffffffffffffffff1673ffffffffffffffffffffffffffffffffffffffff16630d6d3b6e3430337f4865616c746855706461746500000000000000000000000000000000000000006000604051602001526040518563ffffffff167c0100000000000000000000000000000000000000000000000000000000028152600401808473ffffffffffffffffffffffffffffffffffffffff1673ffffffffffffffffffffffffffffffffffffffff1681526020018373ffffffffffffffffffffffffffffffffffffffff1673ffffffffffffffffffffffffffffffffffffffff168152602001826000191660001916815260200193505050506020604051808303818588803b15156114da57600080fd5b6125ee5a03f115156114eb57600080fd5b5050505060405180519050506001600260146101000a81548160ff0219169083600281111561151657fe5b02179055505b7fb6d7372bb54b80a5b1d60d3b1da737719783cc92a2095f10d9195105f7abeca5816040518082600681111561154e57fe5b60ff16815260200191505060405180910390a1611576346003546119d990919063ffffffff16565b600381905550600560003073ffffffffffffffffffffffffffffffffffffffff1673ffffffffffffffffffffffffffffffffffffffff16815260200190815260200160002080548060010182816115cd91906119f7565b916000526020600020906004020160006080604051908101604052803373ffffffffffffffffffffffffffffffffffffffff1681526020014281526020013481526020016000815250909190915060008201518160000160006101000a81548173ffffffffffffffffffffffffffffffffffffffff021916908373ffffffffffffffffffffffffffffffffffffffff16021790555060208201518160010155604082015181600201556060820151816003015550505050565b6000816040518082805190602001908083835b6020831015156116be5780518252602082019150602081019050602083039250611699565b6001836020036101000a03801982511681845116808217855250505050505090500191505060405180910390209050919050565b6000600260159054906101000a900460ff16905090565b6000803373ffffffffffffffffffffffffffffffffffffffff1673ffffffffffffffffffffffffffffffffffffffff16815260200190815260200160002060009054906101000a900460ff16151561176057600080fd5b6000803373ffffffffffffffffffffffffffffffffffffffff1673ffffffffffffffffffffffffffffffffffffffff16815260200190815260200160002060009054906101000a900460ff1615156117b757600080fd5b60016000808373ffffffffffffffffffffffffffffffffffffffff1673ffffffffffffffffffffffffffffffffffffffff16815260200190815260200160002060006101000a81548160ff02191690831515021790555050565b600260159054906101000a900460ff1681565b60046020528060005260406000206000915090505481565b600260149054906101000a900460ff1681565b60008060003373ffffffffffffffffffffffffffffffffffffffff1673ffffffffffffffffffffffffffffffffffffffff16815260200190815260200160002060009054906101000a900460ff1615156118a857600080fd5b8160066000856000191660001916815260200190815260200160002090805190602001906118d7929190611a3d565b506001905092915050565b600260009054906101000a900473ffffffffffffffffffffffffffffffffffffffff1681565b611910611a29565b6000803373ffffffffffffffffffffffffffffffffffffffff1673ffffffffffffffffffffffffffffffffffffffff16815260200190815260200160002060009054906101000a900460ff16151561196757600080fd5b6119d2826040518082805190602001908083835b6020831015156119a0578051825260208201915060208101905060208303925061197b565b6001836020036101000a03801982511681845116808217855250505050505090500191505060405180910390206110f2565b9050919050565b60008082840190508381101515156119ed57fe5b8091505092915050565b815481835581811511611a2457600402816004028360005260206000209182019101611a239190611abd565b5b505050565b602060405190810160405280600081525090565b828054600181600116156101000203166002900490600052602060002090601f016020900481019282601f10611a7e57805160ff1916838001178555611aac565b82800160010185558215611aac579182015b82811115611aab578251825591602001919060010190611a90565b5b509050611ab99190611b1b565b5090565b611b1891905b80821115611b1457600080820160006101000a81549073ffffffffffffffffffffffffffffffffffffffff021916905560018201600090556002820160009055600382016000905550600401611ac3565b5090565b90565b611b3d91905b80821115611b39576000816000905550600101611b21565b5090565b905600a165627a7a72305820b6e7854e658343f2db362ca9c1f8273b4c1c059c83bcc1adffcea0ce4eb99dff0029",
  "source": "pragma solidity ^0.4.18;\n\nimport '../math/SafeMath.sol';\nimport '../ownership/Ownable.sol';\nimport '../SmartKey.sol';\n\ncontract Key is Ownable {\n   \n   using SafeMath for uint256;\n    \n   enum State { Issued, Active, Alert }\n   //event KeyStateUpdate(address indexed beneficiary, address indexed vault, State status);\n    \n   enum Health { Provisioning, Certified, Modified, Compromised, Malfunctioning, Harmful, Counterfeit }\n   event HealthUpdate(Health status);\n\n   SmartKey public smartKey;\n   address public vault;\n   State public state;\n   Health public health;\n   uint256 public contrib_amount;\n   mapping (address => uint256) public activated;\n\n   struct transaction {\n        \n        address account;\n        uint256 date;\n        uint256 amount;\n        \n        uint256 transaction_type;\n        \n   }\n    \n   mapping (address => transaction[]) public transactions;\n\n   function Key(SmartKey _smartKey, address _vault) \n   public\n   {\n        require(_vault != 0x0);\n        vault = _vault;\n        smartKey=_smartKey;\n        state = State.Issued;\n        isOwner[_vault]=true;\n        isOwner[address(_smartKey)]=true;\n        //KeyStateUpdate(msg.sender, vault, state);\n   }\n\n   function getTransactionCount(address _address) \n   view\n   public\n   returns (uint256)\n   {\n       return transactions[_address].length;\n   }\n\n   function transferEth(uint amount, address beneficiary) \n   public\n   onlyOwner \n   {\n        require(state == State.Active);\n        beneficiary.transfer(amount);\n        transactions[address(this)].push(transaction(beneficiary,now,amount, 1));\n   }\n   \n   function setHealth(Health _health) \n   public\n   payable\n   {\n   \n            health = _health;\n            \n            if (uint256(_health) > 1) {\n                smartKey.loadSmartKey.value(msg.value)(this, msg.sender, bytes32('HealthWarning'));\n                state=State.Alert;\n                \n            } else {\n                smartKey.loadSmartKey.value(msg.value)(this, msg.sender, bytes32('HealthUpdate'));\n                state=State.Active;\n                \n            }\n            HealthUpdate(_health);\n                        \n            contrib_amount=contrib_amount.add(msg.value);    \n            transactions[address(this)].push(transaction(msg.sender,now,msg.value, 0));\n            //activated[msg.sender] = activated[msg.sender].add(msg.value);     \n            //if (vault != address(this) && vault != address(msg.sender)) {\n            //    vault.transfer(msg.value);\n            //}\n   \n   }\n   \n   function getHealth() \n   view\n   public\n   returns (Health)\n   {\n        \n        return health;   \n   }\n   \n   function getHealthStatus()\n   view \n   public \n   returns (bytes32)\n   {\n       if (health == Health.Provisioning) \n           return 'Provisioning';\n       else if (health == Health.Certified) \n           return 'Certified';\n       else if (health == Health.Modified) \n           return 'Modified';\n       else if (health == Health.Compromised) \n           return 'Compromised';\n       else if (health == Health.Malfunctioning) \n           return 'Malfunctioning';\n       else if (health == Health.Harmful) \n           return 'Harmful';\n       else if (health == Health.Counterfeit) \n           return 'Counterfeit';\n\n       return 'Counterfeit';\n\n   }\n   \n   function activateKey(address user) \n   public\n   payable\n   {\n\n        state = State.Active;\n        //activated[msg.sender] = activated[msg.sender].add(msg.value);     \n        contrib_amount=contrib_amount.add(msg.value);    \n        transactions[user].push(transaction(msg.sender,now,msg.value, 0));\n   }\n\n    \n   /*\n   function returnKey() \n   public\n   onlyOwner \n   {\n        require(state == State.Active);\n        state = State.Returned;\n   }\n   \n   */\n\n   function getHash(string key) \n   pure\n   public\n   returns(bytes32) {\n        return keccak256(key);\n   }\n\n   mapping(bytes32 => string) private map;\n\n   function addKeyValueByHash(bytes32 hash, string value) \n   onlyOwner\n   public\n   returns(bool)\n   {\n        //if(bytes(map[hash]).length != 0) { // Don't overwrite previous mappings and return false\n        //    return false;\n        //}\n        map[hash] = value;\n        return true;\n   }\n\n   function getValueByHash(bytes32 hash) \n   onlyOwner\n   constant    \n   public\n   returns(string) \n   {\n        return map[hash];\n   }\n\n   function addKeyAuth(string key, string value) \n   onlyOwner\n   public\n   returns(bool)\n   {\n        return addKeyValueByHash(keccak256(key), value);\n   }\n\n   function getKeyAuth(string key) \n   onlyOwner\n   constant \n   public\n   returns(string)\n   {\n        return getValueByHash(keccak256(key));\n   }\n   \n   \n   function () \n   public\n   payable \n   {\n        activateKey(msg.sender);\n   }\n   \n\n}",
  "sourcePath": "/windata/iotblock/contracts/pki/Key.sol",
  "compiler": {
    "name": "solc",
    "version": "0.4.19+commit.c4cbbb05.Emscripten.clang"
  },
  "schemaVersion": "2.0.0",
  "updatedAt": "2018-11-20T09:59:12.855Z"
}