{
  "contractName": "Key",
  "abi": [
    {
      "constant": true,
      "inputs": [],
      "name": "smartKey",
      "outputs": [
        {
          "name": "",
          "type": "address"
        }
      ],
      "payable": false,
      "stateMutability": "view",
      "type": "function"
    },
    {
      "constant": true,
      "inputs": [
        {
          "name": "",
          "type": "address"
        },
        {
          "name": "",
          "type": "uint256"
        }
      ],
      "name": "transactions",
      "outputs": [
        {
          "name": "account",
          "type": "address"
        },
        {
          "name": "date",
          "type": "uint256"
        },
        {
          "name": "amount",
          "type": "uint256"
        },
        {
          "name": "transaction_type",
          "type": "uint256"
        }
      ],
      "payable": false,
      "stateMutability": "view",
      "type": "function"
    },
    {
      "constant": false,
      "inputs": [
        {
          "name": "_owner",
          "type": "address"
        }
      ],
      "name": "removeOwner",
      "outputs": [],
      "payable": false,
      "stateMutability": "nonpayable",
      "type": "function"
    },
    {
      "constant": true,
      "inputs": [],
      "name": "contrib_amount",
      "outputs": [
        {
          "name": "",
          "type": "uint256"
        }
      ],
      "payable": false,
      "stateMutability": "view",
      "type": "function"
    },
    {
      "constant": true,
      "inputs": [
        {
          "name": "",
          "type": "address"
        }
      ],
      "name": "isOwner",
      "outputs": [
        {
          "name": "",
          "type": "bool"
        }
      ],
      "payable": false,
      "stateMutability": "view",
      "type": "function"
    },
    {
      "constant": false,
      "inputs": [
        {
          "name": "_owner",
          "type": "address"
        }
      ],
      "name": "addOwner",
      "outputs": [],
      "payable": false,
      "stateMutability": "nonpayable",
      "type": "function"
    },
    {
      "constant": true,
      "inputs": [],
      "name": "health",
      "outputs": [
        {
          "name": "",
          "type": "uint8"
        }
      ],
      "payable": false,
      "stateMutability": "view",
      "type": "function"
    },
    {
      "constant": true,
      "inputs": [
        {
          "name": "",
          "type": "address"
        }
      ],
      "name": "activated",
      "outputs": [
        {
          "name": "",
          "type": "uint256"
        }
      ],
      "payable": false,
      "stateMutability": "view",
      "type": "function"
    },
    {
      "constant": true,
      "inputs": [],
      "name": "state",
      "outputs": [
        {
          "name": "",
          "type": "uint8"
        }
      ],
      "payable": false,
      "stateMutability": "view",
      "type": "function"
    },
    {
      "constant": true,
      "inputs": [],
      "name": "vault",
      "outputs": [
        {
          "name": "",
          "type": "address"
        }
      ],
      "payable": false,
      "stateMutability": "view",
      "type": "function"
    },
    {
      "inputs": [
        {
          "name": "_smartKey",
          "type": "address"
        },
        {
          "name": "_vault",
          "type": "address"
        }
      ],
      "payable": false,
      "stateMutability": "nonpayable",
      "type": "constructor"
    },
    {
      "payable": true,
      "stateMutability": "payable",
      "type": "fallback"
    },
    {
      "anonymous": false,
      "inputs": [
        {
          "indexed": false,
          "name": "status",
          "type": "uint8"
        }
      ],
      "name": "HealthUpdate",
      "type": "event"
    },
    {
      "constant": true,
      "inputs": [
        {
          "name": "_address",
          "type": "address"
        }
      ],
      "name": "getTransactionCount",
      "outputs": [
        {
          "name": "",
          "type": "uint256"
        }
      ],
      "payable": false,
      "stateMutability": "view",
      "type": "function"
    },
    {
      "constant": false,
      "inputs": [
        {
          "name": "amount",
          "type": "uint256"
        },
        {
          "name": "beneficiary",
          "type": "address"
        }
      ],
      "name": "transferEth",
      "outputs": [],
      "payable": false,
      "stateMutability": "nonpayable",
      "type": "function"
    },
    {
      "constant": false,
      "inputs": [
        {
          "name": "amount",
          "type": "uint256"
        },
        {
          "name": "beneficiary",
          "type": "address"
        }
      ],
      "name": "transfer",
      "outputs": [],
      "payable": false,
      "stateMutability": "nonpayable",
      "type": "function"
    },
    {
      "constant": false,
      "inputs": [
        {
          "name": "_health",
          "type": "uint8"
        }
      ],
      "name": "setHealth",
      "outputs": [],
      "payable": true,
      "stateMutability": "payable",
      "type": "function"
    },
    {
      "constant": true,
      "inputs": [],
      "name": "getHealth",
      "outputs": [
        {
          "name": "",
          "type": "uint8"
        }
      ],
      "payable": false,
      "stateMutability": "view",
      "type": "function"
    },
    {
      "constant": true,
      "inputs": [],
      "name": "getHealthStatus",
      "outputs": [
        {
          "name": "",
          "type": "bytes32"
        }
      ],
      "payable": false,
      "stateMutability": "view",
      "type": "function"
    },
    {
      "constant": false,
      "inputs": [
        {
          "name": "user",
          "type": "address"
        }
      ],
      "name": "activateKey",
      "outputs": [],
      "payable": true,
      "stateMutability": "payable",
      "type": "function"
    },
    {
      "constant": true,
      "inputs": [
        {
          "name": "key",
          "type": "string"
        }
      ],
      "name": "getHash",
      "outputs": [
        {
          "name": "",
          "type": "bytes32"
        }
      ],
      "payable": false,
      "stateMutability": "pure",
      "type": "function"
    },
    {
      "constant": false,
      "inputs": [
        {
          "name": "hash",
          "type": "bytes32"
        },
        {
          "name": "value",
          "type": "string"
        }
      ],
      "name": "addKeyValueByHash",
      "outputs": [
        {
          "name": "",
          "type": "bool"
        }
      ],
      "payable": false,
      "stateMutability": "nonpayable",
      "type": "function"
    },
    {
      "constant": true,
      "inputs": [
        {
          "name": "hash",
          "type": "bytes32"
        }
      ],
      "name": "getValueByHash",
      "outputs": [
        {
          "name": "",
          "type": "string"
        }
      ],
      "payable": false,
      "stateMutability": "view",
      "type": "function"
    },
    {
      "constant": false,
      "inputs": [
        {
          "name": "key",
          "type": "string"
        },
        {
          "name": "value",
          "type": "string"
        }
      ],
      "name": "addKeyAuth",
      "outputs": [
        {
          "name": "",
          "type": "bool"
        }
      ],
      "payable": false,
      "stateMutability": "nonpayable",
      "type": "function"
    },
    {
      "constant": true,
      "inputs": [
        {
          "name": "key",
          "type": "string"
        }
      ],
      "name": "getKeyAuth",
      "outputs": [
        {
          "name": "",
          "type": "string"
        }
      ],
      "payable": false,
      "stateMutability": "view",
      "type": "function"
    }
  ],
  "bytecode": "0x6060604052341561000f57600080fd5b60405160408061204e8339810160405280805190602001909190805190602001909190505060016000803373ffffffffffffffffffffffffffffffffffffffff1673ffffffffffffffffffffffffffffffffffffffff16815260200190815260200160002060006101000a81548160ff02191690831515021790555060008173ffffffffffffffffffffffffffffffffffffffff16141515156100b157600080fd5b80600260006101000a81548173ffffffffffffffffffffffffffffffffffffffff021916908373ffffffffffffffffffffffffffffffffffffffff16021790555081600160006101000a81548173ffffffffffffffffffffffffffffffffffffffff021916908373ffffffffffffffffffffffffffffffffffffffff1602179055506000600260146101000a81548160ff0219169083600281111561015257fe5b021790555060016000808373ffffffffffffffffffffffffffffffffffffffff1673ffffffffffffffffffffffffffffffffffffffff16815260200190815260200160002060006101000a81548160ff02191690831515021790555060016000808473ffffffffffffffffffffffffffffffffffffffff1673ffffffffffffffffffffffffffffffffffffffff16815260200190815260200160002060006101000a81548160ff0219169083151502179055505050611e38806102166000396000f300606060405260043610610128576000357c0100000000000000000000000000000000000000000000000000000000900463ffffffff16806303db428d14610133578063113adf49146101eb5780631453812814610240578063173825d9146102d75780631801e15614610310578063202e079d1461034157806323ca0cd21461036a5780632f54bf6e146103b757806349f9c0e4146104085780635436e5a01461044a5780635b2ce586146104ea5780635b6beeb914610505578063640e7fd51461057e5780637065cb48146105b55780637633a22c146105ee578063779d8677146106255780639172fe0814610672578063b7760c8f146106a0578063c19d93fb146106e2578063d4c2f75c14610719578063fbfa77cf1461079b578063fd08e0c7146107f0575b610131336108c6565b005b341561013e57600080fd5b6101d1600480803590602001908201803590602001908080601f0160208091040260200160405190810160405280939291908181526020018383808284378201915050505050509190803590602001908201803590602001908080601f01602080910402602001604051908101604052809392919081815260200183838082843782019150505050505091905050610a0f565b604051808215151515815260200191505060405180910390f35b34156101f657600080fd5b6101fe610adc565b604051808273ffffffffffffffffffffffffffffffffffffffff1673ffffffffffffffffffffffffffffffffffffffff16815260200191505060405180910390f35b341561024b57600080fd5b610280600480803573ffffffffffffffffffffffffffffffffffffffff16906020019091908035906020019091905050610b02565b604051808573ffffffffffffffffffffffffffffffffffffffff1673ffffffffffffffffffffffffffffffffffffffff16815260200184815260200183815260200182815260200194505050505060405180910390f35b34156102e257600080fd5b61030e600480803573ffffffffffffffffffffffffffffffffffffffff16906020019091905050610b6e565b005b341561031b57600080fd5b610323610c76565b60405180826000191660001916815260200191505060405180910390f35b341561034c57600080fd5b610354610ef7565b6040518082815260200191505060405180910390f35b341561037557600080fd5b6103a1600480803573ffffffffffffffffffffffffffffffffffffffff16906020019091905050610efd565b6040518082815260200191505060405180910390f35b34156103c257600080fd5b6103ee600480803573ffffffffffffffffffffffffffffffffffffffff16906020019091905050610f49565b604051808215151515815260200191505060405180910390f35b341561041357600080fd5b610448600480803590602001909190803573ffffffffffffffffffffffffffffffffffffffff16906020019091905050610f69565b005b341561045557600080fd5b61046f60048080356000191690602001909190505061113f565b6040518080602001828103825283818151815260200191508051906020019080838360005b838110156104af578082015181840152602081019050610494565b50505050905090810190601f1680156104dc5780820380516001836020036101000a031916815260200191505b509250505060405180910390f35b610503600480803560ff16906020019091905050611259565b005b341561051057600080fd5b610560600480803590602001908201803590602001908080601f016020809104026020016040519081016040528093929190818152602001838380828437820191505050505050919050506116d3565b60405180826000191660001916815260200191505060405180910390f35b341561058957600080fd5b61059161173f565b604051808260068111156105a157fe5b60ff16815260200191505060405180910390f35b34156105c057600080fd5b6105ec600480803573ffffffffffffffffffffffffffffffffffffffff16906020019091905050611756565b005b34156105f957600080fd5b61060161185e565b6040518082600681111561061157fe5b60ff16815260200191505060405180910390f35b341561063057600080fd5b61065c600480803573ffffffffffffffffffffffffffffffffffffffff16906020019091905050611871565b6040518082815260200191505060405180910390f35b61069e600480803573ffffffffffffffffffffffffffffffffffffffff169060200190919050506108c6565b005b34156106ab57600080fd5b6106e0600480803590602001909190803573ffffffffffffffffffffffffffffffffffffffff16906020019091905050611889565b005b34156106ed57600080fd5b6106f5611b08565b6040518082600281111561070557fe5b60ff16815260200191505060405180910390f35b341561072457600080fd5b61078160048080356000191690602001909190803590602001908201803590602001908080601f01602080910402602001604051908101604052809392919081815260200183838082843782019150505050505091905050611b1b565b604051808215151515815260200191505060405180910390f35b34156107a657600080fd5b6107ae611bae565b604051808273ffffffffffffffffffffffffffffffffffffffff1673ffffffffffffffffffffffffffffffffffffffff16815260200191505060405180910390f35b34156107fb57600080fd5b61084b600480803590602001908201803590602001908080601f01602080910402602001604051908101604052809392919081815260200183838082843782019150505050505091905050611bd4565b6040518080602001828103825283818151815260200191508051906020019080838360005b8381101561088b578082015181840152602081019050610870565b50505050905090810190601f1680156108b85780820380516001836020036101000a031916815260200191505b509250505060405180910390f35b6001600260146101000a81548160ff021916908360028111156108e557fe5b02179055506108ff34600354611ca590919063ffffffff16565b600381905550600560008273ffffffffffffffffffffffffffffffffffffffff1673ffffffffffffffffffffffffffffffffffffffff16815260200190815260200160002080548060010182816109569190611cc3565b916000526020600020906004020160006080604051908101604052803373ffffffffffffffffffffffffffffffffffffffff1681526020014281526020013481526020016000815250909190915060008201518160000160006101000a81548173ffffffffffffffffffffffffffffffffffffffff021916908373ffffffffffffffffffffffffffffffffffffffff16021790555060208201518160010155604082015181600201556060820151816003015550505050565b60008060003373ffffffffffffffffffffffffffffffffffffffff1673ffffffffffffffffffffffffffffffffffffffff16815260200190815260200160002060009054906101000a900460ff161515610a6857600080fd5b610ad4836040518082805190602001908083835b602083101515610aa15780518252602082019150602081019050602083039250610a7c565b6001836020036101000a038019825116818451168082178552505050505050905001915050604051809103902083611b1b565b905092915050565b600160009054906101000a900473ffffffffffffffffffffffffffffffffffffffff1681565b600560205281600052604060002081815481101515610b1d57fe5b9060005260206000209060040201600091509150508060000160009054906101000a900473ffffffffffffffffffffffffffffffffffffffff16908060010154908060020154908060030154905084565b6000803373ffffffffffffffffffffffffffffffffffffffff1673ffffffffffffffffffffffffffffffffffffffff16815260200190815260200160002060009054906101000a900460ff161515610bc557600080fd5b6000803373ffffffffffffffffffffffffffffffffffffffff1673ffffffffffffffffffffffffffffffffffffffff16815260200190815260200160002060009054906101000a900460ff161515610c1c57600080fd5b60008060008373ffffffffffffffffffffffffffffffffffffffff1673ffffffffffffffffffffffffffffffffffffffff16815260200190815260200160002060006101000a81548160ff02191690831515021790555050565b6000806006811115610c8457fe5b600260159054906101000a900460ff166006811115610c9f57fe5b1415610ccd577f50726f766973696f6e696e6700000000000000000000000000000000000000009050610ef4565b60016006811115610cda57fe5b600260159054906101000a900460ff166006811115610cf557fe5b1415610d23577f43657274696669656400000000000000000000000000000000000000000000009050610ef4565b60026006811115610d3057fe5b600260159054906101000a900460ff166006811115610d4b57fe5b1415610d79577f4d6f6469666965640000000000000000000000000000000000000000000000009050610ef4565b60036006811115610d8657fe5b600260159054906101000a900460ff166006811115610da157fe5b1415610dcf577f436f6d70726f6d697365640000000000000000000000000000000000000000009050610ef4565b60046006811115610ddc57fe5b600260159054906101000a900460ff166006811115610df757fe5b1415610e25577f4d616c66756e6374696f6e696e670000000000000000000000000000000000009050610ef4565b60056006811115610e3257fe5b600260159054906101000a900460ff166006811115610e4d57fe5b1415610e7b577f4861726d66756c000000000000000000000000000000000000000000000000009050610ef4565b600680811115610e8757fe5b600260159054906101000a900460ff166006811115610ea257fe5b1415610ed0577f436f756e746572666569740000000000000000000000000000000000000000009050610ef4565b7f436f756e7465726665697400000000000000000000000000000000000000000090505b90565b60035481565b6000600560008373ffffffffffffffffffffffffffffffffffffffff1673ffffffffffffffffffffffffffffffffffffffff168152602001908152602001600020805490509050919050565b60006020528060005260406000206000915054906101000a900460ff1681565b6000803373ffffffffffffffffffffffffffffffffffffffff1673ffffffffffffffffffffffffffffffffffffffff16815260200190815260200160002060009054906101000a900460ff161515610fc057600080fd5b60016002811115610fcd57fe5b600260149054906101000a900460ff166002811115610fe857fe5b141515610ff457600080fd5b8073ffffffffffffffffffffffffffffffffffffffff166108fc839081150290604051600060405180830381858888f19350505050151561103457600080fd5b600560003073ffffffffffffffffffffffffffffffffffffffff1673ffffffffffffffffffffffffffffffffffffffff16815260200190815260200160002080548060010182816110859190611cc3565b916000526020600020906004020160006080604051908101604052808573ffffffffffffffffffffffffffffffffffffffff1681526020014281526020018681526020016001815250909190915060008201518160000160006101000a81548173ffffffffffffffffffffffffffffffffffffffff021916908373ffffffffffffffffffffffffffffffffffffffff1602179055506020820151816001015560408201518160020155606082015181600301555050505050565b611147611cf5565b6000803373ffffffffffffffffffffffffffffffffffffffff1673ffffffffffffffffffffffffffffffffffffffff16815260200190815260200160002060009054906101000a900460ff16151561119e57600080fd5b6006600083600019166000191681526020019081526020016000208054600181600116156101000203166002900480601f01602080910402602001604051908101604052809291908181526020018280546001816001161561010002031660029004801561124d5780601f106112225761010080835404028352916020019161124d565b820191906000526020600020905b81548152906001019060200180831161123057829003601f168201915b50505050509050919050565b80600260156101000a81548160ff0219169083600681111561127757fe5b0217905550600181600681111561128a57fe5b11156113fe57600160009054906101000a900473ffffffffffffffffffffffffffffffffffffffff1673ffffffffffffffffffffffffffffffffffffffff16630d6d3b6e3430337f4865616c74685761726e696e67000000000000000000000000000000000000006000604051602001526040518563ffffffff167c0100000000000000000000000000000000000000000000000000000000028152600401808473ffffffffffffffffffffffffffffffffffffffff1673ffffffffffffffffffffffffffffffffffffffff1681526020018373ffffffffffffffffffffffffffffffffffffffff1673ffffffffffffffffffffffffffffffffffffffff168152602001826000191660001916815260200193505050506020604051808303818588803b15156113b957600080fd5b6125ee5a03f115156113ca57600080fd5b50505050604051805190505060028060146101000a81548160ff021916908360028111156113f457fe5b0217905550611569565b600160009054906101000a900473ffffffffffffffffffffffffffffffffffffffff1673ffffffffffffffffffffffffffffffffffffffff16630d6d3b6e3430337f4865616c746855706461746500000000000000000000000000000000000000006000604051602001526040518563ffffffff167c0100000000000000000000000000000000000000000000000000000000028152600401808473ffffffffffffffffffffffffffffffffffffffff1673ffffffffffffffffffffffffffffffffffffffff1681526020018373ffffffffffffffffffffffffffffffffffffffff1673ffffffffffffffffffffffffffffffffffffffff168152602001826000191660001916815260200193505050506020604051808303818588803b151561152757600080fd5b6125ee5a03f1151561153857600080fd5b5050505060405180519050506001600260146101000a81548160ff0219169083600281111561156357fe5b02179055505b7fb6d7372bb54b80a5b1d60d3b1da737719783cc92a2095f10d9195105f7abeca5816040518082600681111561159b57fe5b60ff16815260200191505060405180910390a16115c334600354611ca590919063ffffffff16565b600381905550600560003073ffffffffffffffffffffffffffffffffffffffff1673ffffffffffffffffffffffffffffffffffffffff168152602001908152602001600020805480600101828161161a9190611cc3565b916000526020600020906004020160006080604051908101604052803373ffffffffffffffffffffffffffffffffffffffff1681526020014281526020013481526020016000815250909190915060008201518160000160006101000a81548173ffffffffffffffffffffffffffffffffffffffff021916908373ffffffffffffffffffffffffffffffffffffffff16021790555060208201518160010155604082015181600201556060820151816003015550505050565b6000816040518082805190602001908083835b60208310151561170b57805182526020820191506020810190506020830392506116e6565b6001836020036101000a03801982511681845116808217855250505050505090500191505060405180910390209050919050565b6000600260159054906101000a900460ff16905090565b6000803373ffffffffffffffffffffffffffffffffffffffff1673ffffffffffffffffffffffffffffffffffffffff16815260200190815260200160002060009054906101000a900460ff1615156117ad57600080fd5b6000803373ffffffffffffffffffffffffffffffffffffffff1673ffffffffffffffffffffffffffffffffffffffff16815260200190815260200160002060009054906101000a900460ff16151561180457600080fd5b60016000808373ffffffffffffffffffffffffffffffffffffffff1673ffffffffffffffffffffffffffffffffffffffff16815260200190815260200160002060006101000a81548160ff02191690831515021790555050565b600260159054906101000a900460ff1681565b60046020528060005260406000206000915090505481565b6000803373ffffffffffffffffffffffffffffffffffffffff1673ffffffffffffffffffffffffffffffffffffffff16815260200190815260200160002060009054906101000a900460ff1615156118e057600080fd5b600160028111156118ed57fe5b600260149054906101000a900460ff16600281111561190857fe5b14151561191457600080fd5b600160009054906101000a900473ffffffffffffffffffffffffffffffffffffffff1673ffffffffffffffffffffffffffffffffffffffff1663a9059cbb82846000604051602001526040518363ffffffff167c0100000000000000000000000000000000000000000000000000000000028152600401808373ffffffffffffffffffffffffffffffffffffffff1673ffffffffffffffffffffffffffffffffffffffff16815260200182815260200192505050602060405180830381600087803b15156119e157600080fd5b6102c65a03f115156119f257600080fd5b5050506040518051905050600560003073ffffffffffffffffffffffffffffffffffffffff1673ffffffffffffffffffffffffffffffffffffffff1681526020019081526020016000208054806001018281611a4e9190611cc3565b916000526020600020906004020160006080604051908101604052808573ffffffffffffffffffffffffffffffffffffffff1681526020014281526020018681526020016001815250909190915060008201518160000160006101000a81548173ffffffffffffffffffffffffffffffffffffffff021916908373ffffffffffffffffffffffffffffffffffffffff1602179055506020820151816001015560408201518160020155606082015181600301555050505050565b600260149054906101000a900460ff1681565b60008060003373ffffffffffffffffffffffffffffffffffffffff1673ffffffffffffffffffffffffffffffffffffffff16815260200190815260200160002060009054906101000a900460ff161515611b7457600080fd5b816006600085600019166000191681526020019081526020016000209080519060200190611ba3929190611d09565b506001905092915050565b600260009054906101000a900473ffffffffffffffffffffffffffffffffffffffff1681565b611bdc611cf5565b6000803373ffffffffffffffffffffffffffffffffffffffff1673ffffffffffffffffffffffffffffffffffffffff16815260200190815260200160002060009054906101000a900460ff161515611c3357600080fd5b611c9e826040518082805190602001908083835b602083101515611c6c5780518252602082019150602081019050602083039250611c47565b6001836020036101000a038019825116818451168082178552505050505050905001915050604051809103902061113f565b9050919050565b6000808284019050838110151515611cb957fe5b8091505092915050565b815481835581811511611cf057600402816004028360005260206000209182019101611cef9190611d89565b5b505050565b602060405190810160405280600081525090565b828054600181600116156101000203166002900490600052602060002090601f016020900481019282601f10611d4a57805160ff1916838001178555611d78565b82800160010185558215611d78579182015b82811115611d77578251825591602001919060010190611d5c565b5b509050611d859190611de7565b5090565b611de491905b80821115611de057600080820160006101000a81549073ffffffffffffffffffffffffffffffffffffffff021916905560018201600090556002820160009055600382016000905550600401611d8f565b5090565b90565b611e0991905b80821115611e05576000816000905550600101611ded565b5090565b905600a165627a7a72305820097a85b42ba84fd6977fec5acd95eee494856605d9c21ab664b766c4e00e30080029",
  "source": "pragma solidity ^0.4.18;\n\nimport '../math/SafeMath.sol';\nimport '../ownership/Ownable.sol';\nimport '../SmartKey.sol';\n\ncontract Key is Ownable {\n   \n   using SafeMath for uint256;\n    \n   enum State { Issued, Active, Alert }\n   //event KeyStateUpdate(address indexed beneficiary, address indexed vault, State status);\n    \n   enum Health { Provisioning, Certified, Modified, Compromised, Malfunctioning, Harmful, Counterfeit }\n   event HealthUpdate(Health status);\n\n   SmartKey public smartKey;\n   address public vault;\n   State public state;\n   Health public health;\n   uint256 public contrib_amount;\n   mapping (address => uint256) public activated;\n\n   struct transaction {\n        \n        address account;\n        uint256 date;\n        uint256 amount;\n        \n        uint256 transaction_type;\n        \n   }\n    \n   mapping (address => transaction[]) public transactions;\n\n   function Key(SmartKey _smartKey, address _vault) \n   public\n   {\n        require(_vault != 0x0);\n        vault = _vault;\n        smartKey=_smartKey;\n        state = State.Issued;\n        isOwner[_vault]=true;\n        isOwner[address(_smartKey)]=true;\n        //KeyStateUpdate(msg.sender, vault, state);\n   }\n\n   function getTransactionCount(address _address) \n   view\n   public\n   returns (uint256)\n   {\n       return transactions[_address].length;\n   }\n\n   function transferEth(uint amount, address beneficiary) \n   public\n   onlyOwner \n   {\n        require(state == State.Active);\n        beneficiary.transfer(amount);\n        transactions[address(this)].push(transaction(beneficiary,now,amount, 1));\n   }\n\n   function transfer(uint amount, address beneficiary) \n   public\n   onlyOwner \n   {\n        require(state == State.Active);\n        smartKey.transfer(beneficiary, amount);\n        transactions[address(this)].push(transaction(beneficiary,now,amount, 1));\n   }\n   \n   function setHealth(Health _health) \n   public\n   payable\n   {\n   \n            health = _health;\n            \n            if (uint256(_health) > 1) {\n                smartKey.loadSmartKey.value(msg.value)(this, msg.sender, bytes32('HealthWarning'));\n                state=State.Alert;\n                \n            } else {\n                smartKey.loadSmartKey.value(msg.value)(this, msg.sender, bytes32('HealthUpdate'));\n                state=State.Active;\n                \n            }\n            HealthUpdate(_health);\n                        \n            contrib_amount=contrib_amount.add(msg.value);    \n            transactions[address(this)].push(transaction(msg.sender,now,msg.value, 0));\n            //activated[msg.sender] = activated[msg.sender].add(msg.value);     \n            //if (vault != address(this) && vault != address(msg.sender)) {\n            //    vault.transfer(msg.value);\n            //}\n   \n   }\n   \n   function getHealth() \n   view\n   public\n   returns (Health)\n   {\n        \n        return health;   \n   }\n   \n   function getHealthStatus()\n   view \n   public \n   returns (bytes32)\n   {\n       if (health == Health.Provisioning) \n           return 'Provisioning';\n       else if (health == Health.Certified) \n           return 'Certified';\n       else if (health == Health.Modified) \n           return 'Modified';\n       else if (health == Health.Compromised) \n           return 'Compromised';\n       else if (health == Health.Malfunctioning) \n           return 'Malfunctioning';\n       else if (health == Health.Harmful) \n           return 'Harmful';\n       else if (health == Health.Counterfeit) \n           return 'Counterfeit';\n\n       return 'Counterfeit';\n\n   }\n   \n   function activateKey(address user) \n   public\n   payable\n   {\n\n        state = State.Active;\n        //activated[msg.sender] = activated[msg.sender].add(msg.value);     \n        contrib_amount=contrib_amount.add(msg.value);    \n        transactions[user].push(transaction(msg.sender,now,msg.value, 0));\n   }\n\n    \n   /*\n   function returnKey() \n   public\n   onlyOwner \n   {\n        require(state == State.Active);\n        state = State.Returned;\n   }\n   \n   */\n\n   function getHash(string key) \n   pure\n   public\n   returns(bytes32) {\n        return keccak256(key);\n   }\n\n   mapping(bytes32 => string) private map;\n\n   function addKeyValueByHash(bytes32 hash, string value) \n   onlyOwner\n   public\n   returns(bool)\n   {\n        //if(bytes(map[hash]).length != 0) { // Don't overwrite previous mappings and return false\n        //    return false;\n        //}\n        map[hash] = value;\n        return true;\n   }\n\n   function getValueByHash(bytes32 hash) \n   onlyOwner\n   constant    \n   public\n   returns(string) \n   {\n        return map[hash];\n   }\n\n   function addKeyAuth(string key, string value) \n   onlyOwner\n   public\n   returns(bool)\n   {\n        return addKeyValueByHash(keccak256(key), value);\n   }\n\n   function getKeyAuth(string key) \n   onlyOwner\n   constant \n   public\n   returns(string)\n   {\n        return getValueByHash(keccak256(key));\n   }\n   \n   \n   function () \n   public\n   payable \n   {\n        activateKey(msg.sender);\n   }\n   \n\n}",
  "sourcePath": "/windata/iotblock/contracts/pki/Key.sol",
  "compiler": {
    "name": "solc",
    "version": "0.4.19+commit.c4cbbb05.Emscripten.clang"
  },
  "schemaVersion": "2.0.0",
  "updatedAt": "2018-11-21T06:38:49.303Z"
}