{
  "contractName": "Logistics",
  "abi": [
    {
      "constant": true,
      "inputs": [
        {
          "name": "",
          "type": "uint256"
        }
      ],
      "name": "admins",
      "outputs": [
        {
          "name": "",
          "type": "address"
        }
      ],
      "payable": false,
      "stateMutability": "view",
      "type": "function"
    },
    {
      "constant": true,
      "inputs": [
        {
          "name": "",
          "type": "address"
        }
      ],
      "name": "isAdmin",
      "outputs": [
        {
          "name": "",
          "type": "bool"
        }
      ],
      "payable": false,
      "stateMutability": "view",
      "type": "function"
    },
    {
      "constant": true,
      "inputs": [],
      "name": "getAdmins",
      "outputs": [
        {
          "name": "",
          "type": "address[]"
        }
      ],
      "payable": false,
      "stateMutability": "view",
      "type": "function"
    },
    {
      "constant": false,
      "inputs": [
        {
          "name": "admin",
          "type": "address"
        }
      ],
      "name": "addAdmin",
      "outputs": [],
      "payable": false,
      "stateMutability": "nonpayable",
      "type": "function"
    },
    {
      "constant": false,
      "inputs": [
        {
          "name": "banned",
          "type": "address"
        }
      ],
      "name": "addBanned",
      "outputs": [],
      "payable": false,
      "stateMutability": "nonpayable",
      "type": "function"
    },
    {
      "inputs": [
        {
          "name": "_key",
          "type": "address"
        },
        {
          "name": "adminAddress",
          "type": "address[]"
        }
      ],
      "payable": false,
      "stateMutability": "nonpayable",
      "type": "constructor"
    },
    {
      "constant": false,
      "inputs": [
        {
          "name": "rsAddress",
          "type": "address"
        },
        {
          "name": "resource",
          "type": "address"
        },
        {
          "name": "_rsToken",
          "type": "uint256"
        }
      ],
      "name": "RequestDelivery",
      "outputs": [
        {
          "name": "",
          "type": "bool"
        }
      ],
      "payable": false,
      "stateMutability": "nonpayable",
      "type": "function"
    },
    {
      "constant": false,
      "inputs": [
        {
          "name": "rsAddress",
          "type": "address"
        },
        {
          "name": "resource",
          "type": "address"
        },
        {
          "name": "_rsToken",
          "type": "uint256"
        }
      ],
      "name": "ConfirmDelivery",
      "outputs": [
        {
          "name": "",
          "type": "bool"
        }
      ],
      "payable": false,
      "stateMutability": "nonpayable",
      "type": "function"
    },
    {
      "constant": false,
      "inputs": [
        {
          "name": "rsAddress",
          "type": "address"
        }
      ],
      "name": "DeliveryStatus",
      "outputs": [
        {
          "name": "",
          "type": "bool"
        }
      ],
      "payable": false,
      "stateMutability": "nonpayable",
      "type": "function"
    }
  ],
  "bytecode": "0x6060604052341561000f57600080fd5b604051610a4c380380610a4c833981016040528080519060200190919080518201919050508060008090505b81518110156100bf576001600080848481518110151561005757fe5b9060200190602002015173ffffffffffffffffffffffffffffffffffffffff1673ffffffffffffffffffffffffffffffffffffffff16815260200190815260200160002060006101000a81548160ff021916908315150217905550808060010191505061003b565b81600190805190602001906100d5929190610120565b50505081600260006101000a81548173ffffffffffffffffffffffffffffffffffffffff021916908373ffffffffffffffffffffffffffffffffffffffff16021790555050506101ed565b828054828255906000526020600020908101928215610199579160200282015b828111156101985782518260006101000a81548173ffffffffffffffffffffffffffffffffffffffff021916908373ffffffffffffffffffffffffffffffffffffffff16021790555091602001919060010190610140565b5b5090506101a691906101aa565b5090565b6101ea91905b808211156101e657600081816101000a81549073ffffffffffffffffffffffffffffffffffffffff0219169055506001016101b0565b5090565b90565b610850806101fc6000396000f30060606040526004361061008e576000357c0100000000000000000000000000000000000000000000000000000000900463ffffffff16806314bfd6d01461009357806324d7806c146100f657806331ae450b1461014757806370480275146101b15780638aca2d5e146101ea57806397133d771461023b578063e1b2e8b3146102b4578063f2090806146102ed575b600080fd5b341561009e57600080fd5b6100b46004808035906020019091905050610366565b604051808273ffffffffffffffffffffffffffffffffffffffff1673ffffffffffffffffffffffffffffffffffffffff16815260200191505060405180910390f35b341561010157600080fd5b61012d600480803573ffffffffffffffffffffffffffffffffffffffff169060200190919050506103a5565b604051808215151515815260200191505060405180910390f35b341561015257600080fd5b61015a6103c5565b6040518080602001828103825283818151815260200191508051906020019060200280838360005b8381101561019d578082015181840152602081019050610182565b505050509050019250505060405180910390f35b34156101bc57600080fd5b6101e8600480803573ffffffffffffffffffffffffffffffffffffffff16906020019091905050610459565b005b34156101f557600080fd5b610221600480803573ffffffffffffffffffffffffffffffffffffffff169060200190919050506105c4565b604051808215151515815260200191505060405180910390f35b341561024657600080fd5b61029a600480803573ffffffffffffffffffffffffffffffffffffffff1690602001909190803573ffffffffffffffffffffffffffffffffffffffff169060200190919080359060200190919050506105cf565b604051808215151515815260200191505060405180910390f35b34156102bf57600080fd5b6102eb600480803573ffffffffffffffffffffffffffffffffffffffff169060200190919050506105dc565b005b34156102f857600080fd5b61034c600480803573ffffffffffffffffffffffffffffffffffffffff1690602001909190803573ffffffffffffffffffffffffffffffffffffffff169060200190919080359060200190919050506107b2565b604051808215151515815260200191505060405180910390f35b60018181548110151561037557fe5b90600052602060002090016000915054906101000a900473ffffffffffffffffffffffffffffffffffffffff1681565b60006020528060005260406000206000915054906101000a900460ff1681565b6103cd6107bf565b600180548060200260200160405190810160405280929190818152602001828054801561044f57602002820191906000526020600020905b8160009054906101000a900473ffffffffffffffffffffffffffffffffffffffff1673ffffffffffffffffffffffffffffffffffffffff1681526020019060010190808311610405575b5050505050905090565b6000803373ffffffffffffffffffffffffffffffffffffffff1673ffffffffffffffffffffffffffffffffffffffff16815260200190815260200160002060009054906101000a900460ff1615156104b057600080fd5b6000803373ffffffffffffffffffffffffffffffffffffffff1673ffffffffffffffffffffffffffffffffffffffff16815260200190815260200160002060009054906101000a900460ff16151561050757600080fd5b60016000808373ffffffffffffffffffffffffffffffffffffffff1673ffffffffffffffffffffffffffffffffffffffff16815260200190815260200160002060006101000a81548160ff0219169083151502179055506001805480600101828161057291906107d3565b9160005260206000209001600083909190916101000a81548173ffffffffffffffffffffffffffffffffffffffff021916908373ffffffffffffffffffffffffffffffffffffffff1602179055505050565b600060019050919050565b6000600190509392505050565b60008060003373ffffffffffffffffffffffffffffffffffffffff1673ffffffffffffffffffffffffffffffffffffffff16815260200190815260200160002060009054906101000a900460ff16151561063557600080fd5b6000803373ffffffffffffffffffffffffffffffffffffffff1673ffffffffffffffffffffffffffffffffffffffff16815260200190815260200160002060009054906101000a900460ff16151561068c57600080fd5b60008060008473ffffffffffffffffffffffffffffffffffffffff1673ffffffffffffffffffffffffffffffffffffffff16815260200190815260200160002060006101000a81548160ff021916908315150217905550600090505b6001805490508110156107ae5760018181548110151561070457fe5b906000526020600020900160009054906101000a900473ffffffffffffffffffffffffffffffffffffffff1673ffffffffffffffffffffffffffffffffffffffff168273ffffffffffffffffffffffffffffffffffffffff1614156107a15760018181548110151561077257fe5b906000526020600020900160006101000a81549073ffffffffffffffffffffffffffffffffffffffff02191690555b80806001019150506106e8565b5050565b6000600190509392505050565b602060405190810160405280600081525090565b8154818355818115116107fa578183600052602060002091820191016107f991906107ff565b5b505050565b61082191905b8082111561081d576000816000905550600101610805565b5090565b905600a165627a7a72305820f5b1038452af9cd189f72df3b5cdf40d42e3601d016d6cc4df269a45808fa0250029",
  "source": "import \"../admin/Administered.sol\";\nimport \"../SmartKey.sol\";\nimport \"../Catalogue.sol\";\n\n\npragma solidity ^0.4.11; //We have to specify what version of the compiler this code will use\n\ncontract Logistics is Administered {\n  \n  SmartKey key;\n  \n  function Logistics(SmartKey _key, address[] adminAddress) \n      Administered(adminAddress)\n  {\n  \n     key=_key;\n    \n  }\n  \n  function RequestDelivery(address rsAddress, Catalogue resource, uint _rsToken) returns (bool) {\n      return true;\n      \n  }\n  \n  function ConfirmDelivery(address rsAddress, Catalogue resource, uint _rsToken) returns (bool) {\n      return true;\n      \n  }\n\n  function DeliveryStatus(address rsAddress) returns (bool) {\n      return true;\n  }\n  \n}",
  "sourcePath": "/windata/iotblock/contracts/resource/Logistics.sol",
  "compiler": {
    "name": "solc",
    "version": "0.4.19+commit.c4cbbb05.Emscripten.clang"
  },
  "schemaVersion": "2.0.0",
  "updatedAt": "2018-11-20T09:59:12.863Z"
}