{
  "contractName": "Migrations",
  "abi": [
    {
      "constant": false,
      "inputs": [
        {
          "name": "_owner",
          "type": "address"
        }
      ],
      "name": "removeOwner",
      "outputs": [],
      "payable": false,
      "stateMutability": "nonpayable",
      "type": "function"
    },
    {
      "constant": true,
      "inputs": [
        {
          "name": "",
          "type": "address"
        }
      ],
      "name": "isOwner",
      "outputs": [
        {
          "name": "",
          "type": "bool"
        }
      ],
      "payable": false,
      "stateMutability": "view",
      "type": "function"
    },
    {
      "constant": false,
      "inputs": [
        {
          "name": "_owner",
          "type": "address"
        }
      ],
      "name": "addOwner",
      "outputs": [],
      "payable": false,
      "stateMutability": "nonpayable",
      "type": "function"
    },
    {
      "constant": true,
      "inputs": [],
      "name": "lastCompletedMigration",
      "outputs": [
        {
          "name": "",
          "type": "uint256"
        }
      ],
      "payable": false,
      "stateMutability": "view",
      "type": "function"
    },
    {
      "constant": false,
      "inputs": [
        {
          "name": "completed",
          "type": "uint256"
        }
      ],
      "name": "setCompleted",
      "outputs": [],
      "payable": false,
      "stateMutability": "nonpayable",
      "type": "function"
    },
    {
      "constant": false,
      "inputs": [
        {
          "name": "newAddress",
          "type": "address"
        }
      ],
      "name": "upgrade",
      "outputs": [],
      "payable": false,
      "stateMutability": "nonpayable",
      "type": "function"
    }
  ],
  "bytecode": "0x606060405260016000803373ffffffffffffffffffffffffffffffffffffffff1673ffffffffffffffffffffffffffffffffffffffff16815260200190815260200160002060006101000a81548160ff02191690831515021790555061056c8061006a6000396000f300606060405260043610610078576000357c0100000000000000000000000000000000000000000000000000000000900463ffffffff1680630900f0101461007d578063173825d9146100b65780632f54bf6e146100ef5780637065cb4814610140578063fbdbad3c14610179578063fdacd576146101a2575b600080fd5b341561008857600080fd5b6100b4600480803573ffffffffffffffffffffffffffffffffffffffff169060200190919050506101c5565b005b34156100c157600080fd5b6100ed600480803573ffffffffffffffffffffffffffffffffffffffff169060200190919050506102a9565b005b34156100fa57600080fd5b610126600480803573ffffffffffffffffffffffffffffffffffffffff169060200190919050506103b1565b604051808215151515815260200191505060405180910390f35b341561014b57600080fd5b610177600480803573ffffffffffffffffffffffffffffffffffffffff169060200190919050506103d1565b005b341561018457600080fd5b61018c6104d9565b6040518082815260200191505060405180910390f35b34156101ad57600080fd5b6101c360048080359060200190919050506104df565b005b60008060003373ffffffffffffffffffffffffffffffffffffffff1673ffffffffffffffffffffffffffffffffffffffff16815260200190815260200160002060009054906101000a900460ff16151561021e57600080fd5b8190508073ffffffffffffffffffffffffffffffffffffffff1663fdacd5766001546040518263ffffffff167c010000000000000000000000000000000000000000000000000000000002815260040180828152602001915050600060405180830381600087803b151561029157600080fd5b6102c65a03f115156102a257600080fd5b5050505050565b6000803373ffffffffffffffffffffffffffffffffffffffff1673ffffffffffffffffffffffffffffffffffffffff16815260200190815260200160002060009054906101000a900460ff16151561030057600080fd5b6000803373ffffffffffffffffffffffffffffffffffffffff1673ffffffffffffffffffffffffffffffffffffffff16815260200190815260200160002060009054906101000a900460ff16151561035757600080fd5b60008060008373ffffffffffffffffffffffffffffffffffffffff1673ffffffffffffffffffffffffffffffffffffffff16815260200190815260200160002060006101000a81548160ff02191690831515021790555050565b60006020528060005260406000206000915054906101000a900460ff1681565b6000803373ffffffffffffffffffffffffffffffffffffffff1673ffffffffffffffffffffffffffffffffffffffff16815260200190815260200160002060009054906101000a900460ff16151561042857600080fd5b6000803373ffffffffffffffffffffffffffffffffffffffff1673ffffffffffffffffffffffffffffffffffffffff16815260200190815260200160002060009054906101000a900460ff16151561047f57600080fd5b60016000808373ffffffffffffffffffffffffffffffffffffffff1673ffffffffffffffffffffffffffffffffffffffff16815260200190815260200160002060006101000a81548160ff02191690831515021790555050565b60015481565b6000803373ffffffffffffffffffffffffffffffffffffffff1673ffffffffffffffffffffffffffffffffffffffff16815260200190815260200160002060009054906101000a900460ff16151561053657600080fd5b80600181905550505600a165627a7a72305820cbf371bbaad7607176b9f77944fe83b656bc3081705c1a72609bf41bbc3489290029",
  "source": "pragma solidity ^0.4.18;\n\nimport \"./ownership/Ownable.sol\";\n\n\n/**\n * @title Migrations\n * @dev This is a truffle contract, needed for truffle integration, not meant for use by Zeppelin users.\n */\ncontract Migrations is Ownable {\n  uint256 public lastCompletedMigration;\n\n  function setCompleted(uint256 completed) onlyOwner public {\n    lastCompletedMigration = completed;\n  }\n\n  function upgrade(address newAddress) onlyOwner public {\n    Migrations upgraded = Migrations(newAddress);\n    upgraded.setCompleted(lastCompletedMigration);\n  }\n}\n",
  "sourcePath": "/windata/iotblock/contracts/Migrations.sol",
  "compiler": {
    "name": "solc",
    "version": "0.4.19+commit.c4cbbb05.Emscripten.clang"
  },
  "schemaVersion": "2.0.0",
  "updatedAt": "2018-11-21T11:43:20.866Z"
}