{
  "contractName": "Network",
  "abi": [
    {
      "constant": true,
      "inputs": [
        {
          "name": "",
          "type": "uint256"
        }
      ],
      "name": "admins",
      "outputs": [
        {
          "name": "",
          "type": "address"
        }
      ],
      "payable": false,
      "stateMutability": "view",
      "type": "function"
    },
    {
      "constant": true,
      "inputs": [
        {
          "name": "",
          "type": "address"
        }
      ],
      "name": "isAdmin",
      "outputs": [
        {
          "name": "",
          "type": "bool"
        }
      ],
      "payable": false,
      "stateMutability": "view",
      "type": "function"
    },
    {
      "constant": true,
      "inputs": [],
      "name": "getAdmins",
      "outputs": [
        {
          "name": "",
          "type": "address[]"
        }
      ],
      "payable": false,
      "stateMutability": "view",
      "type": "function"
    },
    {
      "constant": false,
      "inputs": [
        {
          "name": "admin",
          "type": "address"
        }
      ],
      "name": "addAdmin",
      "outputs": [],
      "payable": false,
      "stateMutability": "nonpayable",
      "type": "function"
    },
    {
      "constant": false,
      "inputs": [
        {
          "name": "banned",
          "type": "address"
        }
      ],
      "name": "addBanned",
      "outputs": [],
      "payable": false,
      "stateMutability": "nonpayable",
      "type": "function"
    },
    {
      "inputs": [
        {
          "name": "_key",
          "type": "address"
        },
        {
          "name": "_rsOperator",
          "type": "address"
        },
        {
          "name": "_rsContributor",
          "type": "address"
        },
        {
          "name": "adminAddress",
          "type": "address[]"
        }
      ],
      "payable": false,
      "stateMutability": "nonpayable",
      "type": "constructor"
    },
    {
      "constant": false,
      "inputs": [
        {
          "name": "_rsName",
          "type": "bytes32"
        },
        {
          "name": "rsType",
          "type": "bytes32"
        },
        {
          "name": "_rsToken",
          "type": "uint256"
        }
      ],
      "name": "SetResourceTerm",
      "outputs": [],
      "payable": false,
      "stateMutability": "nonpayable",
      "type": "function"
    }
  ],
  "bytecode": "0x6060604052341561000f57600080fd5b6040516109a63803806109a6833981016040528080519060200190919080519060200190919080519060200190919080518201919050508060008090505b81518110156100d1576001600080848481518110151561006957fe5b9060200190602002015173ffffffffffffffffffffffffffffffffffffffff1673ffffffffffffffffffffffffffffffffffffffff16815260200190815260200160002060006101000a81548160ff021916908315150217905550808060010191505061004d565b81600190805190602001906100e79291906101b6565b50505083600560006101000a81548173ffffffffffffffffffffffffffffffffffffffff021916908373ffffffffffffffffffffffffffffffffffffffff16021790555082600660006101000a81548173ffffffffffffffffffffffffffffffffffffffff021916908373ffffffffffffffffffffffffffffffffffffffff16021790555081600760006101000a81548173ffffffffffffffffffffffffffffffffffffffff021916908373ffffffffffffffffffffffffffffffffffffffff16021790555050505050610283565b82805482825590600052602060002090810192821561022f579160200282015b8281111561022e5782518260006101000a81548173ffffffffffffffffffffffffffffffffffffffff021916908373ffffffffffffffffffffffffffffffffffffffff160217905550916020019190600101906101d6565b5b50905061023c9190610240565b5090565b61028091905b8082111561027c57600081816101000a81549073ffffffffffffffffffffffffffffffffffffffff021916905550600101610246565b5090565b90565b610714806102926000396000f300606060405260043610610078576000357c0100000000000000000000000000000000000000000000000000000000900463ffffffff16806314bfd6d01461007d57806324d7806c146100e057806331ae450b14610131578063704802751461019b578063e1b2e8b3146101d4578063ec4242131461020d575b600080fd5b341561008857600080fd5b61009e600480803590602001909190505061024a565b604051808273ffffffffffffffffffffffffffffffffffffffff1673ffffffffffffffffffffffffffffffffffffffff16815260200191505060405180910390f35b34156100eb57600080fd5b610117600480803573ffffffffffffffffffffffffffffffffffffffff16906020019091905050610289565b604051808215151515815260200191505060405180910390f35b341561013c57600080fd5b6101446102a9565b6040518080602001828103825283818151815260200191508051906020019060200280838360005b8381101561018757808201518184015260208101905061016c565b505050509050019250505060405180910390f35b34156101a657600080fd5b6101d2600480803573ffffffffffffffffffffffffffffffffffffffff1690602001909190505061033d565b005b34156101df57600080fd5b61020b600480803573ffffffffffffffffffffffffffffffffffffffff169060200190919050506104a8565b005b341561021857600080fd5b6102486004808035600019169060200190919080356000191690602001909190803590602001909190505061067e565b005b60018181548110151561025957fe5b90600052602060002090016000915054906101000a900473ffffffffffffffffffffffffffffffffffffffff1681565b60006020528060005260406000206000915054906101000a900460ff1681565b6102b1610683565b600180548060200260200160405190810160405280929190818152602001828054801561033357602002820191906000526020600020905b8160009054906101000a900473ffffffffffffffffffffffffffffffffffffffff1673ffffffffffffffffffffffffffffffffffffffff16815260200190600101908083116102e9575b5050505050905090565b6000803373ffffffffffffffffffffffffffffffffffffffff1673ffffffffffffffffffffffffffffffffffffffff16815260200190815260200160002060009054906101000a900460ff16151561039457600080fd5b6000803373ffffffffffffffffffffffffffffffffffffffff1673ffffffffffffffffffffffffffffffffffffffff16815260200190815260200160002060009054906101000a900460ff1615156103eb57600080fd5b60016000808373ffffffffffffffffffffffffffffffffffffffff1673ffffffffffffffffffffffffffffffffffffffff16815260200190815260200160002060006101000a81548160ff021916908315150217905550600180548060010182816104569190610697565b9160005260206000209001600083909190916101000a81548173ffffffffffffffffffffffffffffffffffffffff021916908373ffffffffffffffffffffffffffffffffffffffff1602179055505050565b60008060003373ffffffffffffffffffffffffffffffffffffffff1673ffffffffffffffffffffffffffffffffffffffff16815260200190815260200160002060009054906101000a900460ff16151561050157600080fd5b6000803373ffffffffffffffffffffffffffffffffffffffff1673ffffffffffffffffffffffffffffffffffffffff16815260200190815260200160002060009054906101000a900460ff16151561055857600080fd5b60008060008473ffffffffffffffffffffffffffffffffffffffff1673ffffffffffffffffffffffffffffffffffffffff16815260200190815260200160002060006101000a81548160ff021916908315150217905550600090505b60018054905081101561067a576001818154811015156105d057fe5b906000526020600020900160009054906101000a900473ffffffffffffffffffffffffffffffffffffffff1673ffffffffffffffffffffffffffffffffffffffff168273ffffffffffffffffffffffffffffffffffffffff16141561066d5760018181548110151561063e57fe5b906000526020600020900160006101000a81549073ffffffffffffffffffffffffffffffffffffffff02191690555b80806001019150506105b4565b5050565b505050565b602060405190810160405280600081525090565b8154818355818115116106be578183600052602060002091820191016106bd91906106c3565b5b505050565b6106e591905b808211156106e15760008160009055506001016106c9565b5090565b905600a165627a7a72305820d2a870422417a63924d65946d0599944d52ff2181e233000922bc5f1dba973910029",
  "source": "import \"../admin/Administered.sol\";\nimport \"./Operator.sol\";\nimport \"./Contributor.sol\";\nimport \"../SmartKey.sol\";\n\npragma solidity ^0.4.11; //We have to specify what version of the compiler this code will use\n\ncontract Network is Administered {\n\n  \n  struct resourceNet {\n      string rsName;\n      bytes32 rsType;\n      address rsAddress; // The address of the question\n      uint rsIdx;\n      bool isActive;\n      \n  }\n  \n  bytes32[] rsTypes;\n  mapping (bytes32 => resourceNet[]) private rsInfo;  \n  mapping (address => mapping(bytes32 => resourceNet)) private rsNetInfo;  \n     \n  SmartKey key;\n  Operator rsOperator;\n  Contributor rsContributor;\n  \n  function Network(SmartKey _key, Operator _rsOperator, Contributor _rsContributor, address[] adminAddress) \n      Administered(adminAddress)\n  {\n  \n      key=_key;\n      rsOperator=_rsOperator;\n      rsContributor=_rsContributor;\n    \n  }\n\n  function SetResourceTerm(bytes32 _rsName, bytes32 rsType, uint _rsToken) {\n  \n  }\n  \n  /*\n  function ListResourceNet(bytes32 _rsType) returns (uint, uint[], uint[], bytes) {\n        uint transactions=0;\n        resourceNet[] memory signatures;\n        \n        transactions = rsInfo[_rsType].length;\n        signatures = rsInfo[_rsType];\n\n        uint[] memory addresses=new uint[](transactions);\n        uint[] memory rsidx=new uint[](transactions);\n        string memory b3;\n       \n        uint idx=0;\n        for (uint i=0; i < transactions; i++) {\n          if (signatures[i].isActive) {\n              addresses[idx]=uint(signatures[i].rsAddress);\n              rsidx[idx]=signatures[i].rsIdx;\n              b3 = b3.toSlice().concat(signatures[i].rsName.toSlice());\n              b3 = b3.toSlice().concat('~~~'.toSlice());\n              idx+=1;\n          }          \n        }\n        \n        return (idx, addresses, rsidx, bytes(b3));\n  }\n\n\n  function ListResourceType() returns (bytes32[]) {\n      return rsTypes;\n  }\n  \n\n  function DelistResourceNet(bytes32 _rsType, uint _rsIdx) returns (bool) {\n      if (rsInfo[_rsType][_rsIdx].rsAddress == msg.sender) {\n          rsInfo[_rsType][_rsIdx].isActive=false;\n     }\n     return true;\n  }\n\n\n  function CreateResourceNet(string _rsName, Catalogue _rsAddress, bytes32 _rsType) returns (bool)\n  {\n      if (rsNetInfo[_rsAddress][_rsType].rsAddress == 0) {\n          resourceNet memory v=resourceNet(_rsName, _rsType, _rsAddress, 0, true);\n          v.isActive=true;\n          rsInfo[_rsType].push(v);\n    \n          uint rsIdx=rsInfo[_rsType].length - 1;\n          rsInfo[_rsType][rsIdx].rsIdx=rsIdx;\n          \n          rsNetInfo[_rsAddress][_rsType]=v;\n          \n          return true;\n      }\n      return false;\n  }\n  */\n  \n\n}",
  "sourcePath": "/windata/iotblock/contracts/resource/Network.sol",
  "compiler": {
    "name": "solc",
    "version": "0.4.19+commit.c4cbbb05.Emscripten.clang"
  },
  "schemaVersion": "2.0.0",
  "updatedAt": "2018-11-21T06:28:59.420Z"
}