{
  "contractName": "Network",
  "abi": [
    {
      "constant": true,
      "inputs": [
        {
          "name": "",
          "type": "uint256"
        }
      ],
      "name": "admins",
      "outputs": [
        {
          "name": "",
          "type": "address"
        }
      ],
      "payable": false,
      "stateMutability": "view",
      "type": "function"
    },
    {
      "constant": true,
      "inputs": [
        {
          "name": "",
          "type": "address"
        }
      ],
      "name": "isAdmin",
      "outputs": [
        {
          "name": "",
          "type": "bool"
        }
      ],
      "payable": false,
      "stateMutability": "view",
      "type": "function"
    },
    {
      "constant": true,
      "inputs": [],
      "name": "getAdmins",
      "outputs": [
        {
          "name": "",
          "type": "address[]"
        }
      ],
      "payable": false,
      "stateMutability": "view",
      "type": "function"
    },
    {
      "constant": false,
      "inputs": [
        {
          "name": "admin",
          "type": "address"
        }
      ],
      "name": "addAdmin",
      "outputs": [],
      "payable": false,
      "stateMutability": "nonpayable",
      "type": "function"
    },
    {
      "constant": false,
      "inputs": [
        {
          "name": "banned",
          "type": "address"
        }
      ],
      "name": "addBanned",
      "outputs": [],
      "payable": false,
      "stateMutability": "nonpayable",
      "type": "function"
    },
    {
      "inputs": [
        {
          "name": "_key",
          "type": "address"
        },
        {
          "name": "_rsOperator",
          "type": "address"
        },
        {
          "name": "_rsContributor",
          "type": "address"
        },
        {
          "name": "adminAddress",
          "type": "address[]"
        }
      ],
      "payable": false,
      "stateMutability": "nonpayable",
      "type": "constructor"
    },
    {
      "constant": false,
      "inputs": [
        {
          "name": "_rsName",
          "type": "bytes32"
        },
        {
          "name": "rsType",
          "type": "bytes32"
        },
        {
          "name": "_rsToken",
          "type": "uint256"
        }
      ],
      "name": "SetResourceTerm",
      "outputs": [],
      "payable": false,
      "stateMutability": "nonpayable",
      "type": "function"
    }
  ],
  "bytecode": "0x608060405234801561001057600080fd5b5060405161097c38038061097c833981018060405281019080805190602001909291908051906020019092919080519060200190929190805182019291905050508060008090505b81518110156100dc576001600080848481518110151561007457fe5b9060200190602002015173ffffffffffffffffffffffffffffffffffffffff1673ffffffffffffffffffffffffffffffffffffffff16815260200190815260200160002060006101000a81548160ff0219169083151502179055508080600101915050610058565b81600190805190602001906100f29291906101c1565b50505083600560006101000a81548173ffffffffffffffffffffffffffffffffffffffff021916908373ffffffffffffffffffffffffffffffffffffffff16021790555082600660006101000a81548173ffffffffffffffffffffffffffffffffffffffff021916908373ffffffffffffffffffffffffffffffffffffffff16021790555081600760006101000a81548173ffffffffffffffffffffffffffffffffffffffff021916908373ffffffffffffffffffffffffffffffffffffffff1602179055505050505061028e565b82805482825590600052602060002090810192821561023a579160200282015b828111156102395782518260006101000a81548173ffffffffffffffffffffffffffffffffffffffff021916908373ffffffffffffffffffffffffffffffffffffffff160217905550916020019190600101906101e1565b5b509050610247919061024b565b5090565b61028b91905b8082111561028757600081816101000a81549073ffffffffffffffffffffffffffffffffffffffff021916905550600101610251565b5090565b90565b6106df8061029d6000396000f300608060405260043610610078576000357c0100000000000000000000000000000000000000000000000000000000900463ffffffff16806314bfd6d01461007d57806324d7806c146100ea57806331ae450b1461014557806370480275146101b1578063e1b2e8b3146101f4578063ec42421314610237575b600080fd5b34801561008957600080fd5b506100a860048036038101908080359060200190929190505050610280565b604051808273ffffffffffffffffffffffffffffffffffffffff1673ffffffffffffffffffffffffffffffffffffffff16815260200191505060405180910390f35b3480156100f657600080fd5b5061012b600480360381019080803573ffffffffffffffffffffffffffffffffffffffff1690602001909291905050506102be565b604051808215151515815260200191505060405180910390f35b34801561015157600080fd5b5061015a6102de565b6040518080602001828103825283818151815260200191508051906020019060200280838360005b8381101561019d578082015181840152602081019050610182565b505050509050019250505060405180910390f35b3480156101bd57600080fd5b506101f2600480360381019080803573ffffffffffffffffffffffffffffffffffffffff16906020019092919050505061036c565b005b34801561020057600080fd5b50610235600480360381019080803573ffffffffffffffffffffffffffffffffffffffff1690602001909291905050506104da565b005b34801561024357600080fd5b5061027e60048036038101908080356000191690602001909291908035600019169060200190929190803590602001909291905050506106ae565b005b60018181548110151561028f57fe5b906000526020600020016000915054906101000a900473ffffffffffffffffffffffffffffffffffffffff1681565b60006020528060005260406000206000915054906101000a900460ff1681565b6060600180548060200260200160405190810160405280929190818152602001828054801561036257602002820191906000526020600020905b8160009054906101000a900473ffffffffffffffffffffffffffffffffffffffff1673ffffffffffffffffffffffffffffffffffffffff1681526020019060010190808311610318575b5050505050905090565b6000803373ffffffffffffffffffffffffffffffffffffffff1673ffffffffffffffffffffffffffffffffffffffff16815260200190815260200160002060009054906101000a900460ff1615156103c357600080fd5b6000803373ffffffffffffffffffffffffffffffffffffffff1673ffffffffffffffffffffffffffffffffffffffff16815260200190815260200160002060009054906101000a900460ff16151561041a57600080fd5b60016000808373ffffffffffffffffffffffffffffffffffffffff1673ffffffffffffffffffffffffffffffffffffffff16815260200190815260200160002060006101000a81548160ff02191690831515021790555060018190806001815401808255809150509060018203906000526020600020016000909192909190916101000a81548173ffffffffffffffffffffffffffffffffffffffff021916908373ffffffffffffffffffffffffffffffffffffffff1602179055505050565b60008060003373ffffffffffffffffffffffffffffffffffffffff1673ffffffffffffffffffffffffffffffffffffffff16815260200190815260200160002060009054906101000a900460ff16151561053357600080fd5b6000803373ffffffffffffffffffffffffffffffffffffffff1673ffffffffffffffffffffffffffffffffffffffff16815260200190815260200160002060009054906101000a900460ff16151561058a57600080fd5b60008060008473ffffffffffffffffffffffffffffffffffffffff1673ffffffffffffffffffffffffffffffffffffffff16815260200190815260200160002060006101000a81548160ff021916908315150217905550600090505b6001805490508110156106aa5760018181548110151561060257fe5b9060005260206000200160009054906101000a900473ffffffffffffffffffffffffffffffffffffffff1673ffffffffffffffffffffffffffffffffffffffff168273ffffffffffffffffffffffffffffffffffffffff16141561069d5760018181548110151561066f57fe5b9060005260206000200160006101000a81549073ffffffffffffffffffffffffffffffffffffffff02191690555b80806001019150506105e6565b5050565b5050505600a165627a7a723058209bce0882e9c9ac5f1865121c37a21541549ab484d2a8734dfa42d2364bf3f5000029",
  "source": "import \"../admin/Administered.sol\";\nimport \"./Operator.sol\";\nimport \"./Contributor.sol\";\nimport \"../SmartKey.sol\";\n\npragma solidity ^0.4.11; //We have to specify what version of the compiler this code will use\n\ncontract Network is Administered {\n\n  \n  struct resourceNet {\n      string rsName;\n      bytes32 rsType;\n      address rsAddress; // The address of the question\n      uint rsIdx;\n      bool isActive;\n      \n  }\n  \n  bytes32[] rsTypes;\n  mapping (bytes32 => resourceNet[]) private rsInfo;  \n  mapping (address => mapping(bytes32 => resourceNet)) private rsNetInfo;  \n     \n  SmartKey key;\n  Operator rsOperator;\n  Contributor rsContributor;\n  \n  function Network(SmartKey _key, Operator _rsOperator, Contributor _rsContributor, address[] adminAddress) \n      Administered(adminAddress)\n  {\n  \n      key=_key;\n      rsOperator=_rsOperator;\n      rsContributor=_rsContributor;\n    \n  }\n\n  function SetResourceTerm(bytes32 _rsName, bytes32 rsType, uint _rsToken) {\n  \n  }\n  \n  /*\n  function ListResourceNet(bytes32 _rsType) returns (uint, uint[], uint[], bytes) {\n        uint transactions=0;\n        resourceNet[] memory signatures;\n        \n        transactions = rsInfo[_rsType].length;\n        signatures = rsInfo[_rsType];\n\n        uint[] memory addresses=new uint[](transactions);\n        uint[] memory rsidx=new uint[](transactions);\n        string memory b3;\n       \n        uint idx=0;\n        for (uint i=0; i < transactions; i++) {\n          if (signatures[i].isActive) {\n              addresses[idx]=uint(signatures[i].rsAddress);\n              rsidx[idx]=signatures[i].rsIdx;\n              b3 = b3.toSlice().concat(signatures[i].rsName.toSlice());\n              b3 = b3.toSlice().concat('~~~'.toSlice());\n              idx+=1;\n          }          \n        }\n        \n        return (idx, addresses, rsidx, bytes(b3));\n  }\n\n\n  function ListResourceType() returns (bytes32[]) {\n      return rsTypes;\n  }\n  \n\n  function DelistResourceNet(bytes32 _rsType, uint _rsIdx) returns (bool) {\n      if (rsInfo[_rsType][_rsIdx].rsAddress == msg.sender) {\n          rsInfo[_rsType][_rsIdx].isActive=false;\n     }\n     return true;\n  }\n\n\n  function CreateResourceNet(string _rsName, Catalogue _rsAddress, bytes32 _rsType) returns (bool)\n  {\n      if (rsNetInfo[_rsAddress][_rsType].rsAddress == 0) {\n          resourceNet memory v=resourceNet(_rsName, _rsType, _rsAddress, 0, true);\n          v.isActive=true;\n          rsInfo[_rsType].push(v);\n    \n          uint rsIdx=rsInfo[_rsType].length - 1;\n          rsInfo[_rsType][rsIdx].rsIdx=rsIdx;\n          \n          rsNetInfo[_rsAddress][_rsType]=v;\n          \n          return true;\n      }\n      return false;\n  }\n  */\n  \n\n}",
  "sourcePath": "/home/ubuntu/iotblock/contracts/resource/Network.sol",
  "compiler": {
    "name": "solc",
    "version": "0.4.24+commit.e67f0147.Emscripten.clang"
  },
  "schemaVersion": "2.0.1",
  "updatedAt": "2018-11-29T11:36:52.818Z"
}