{
  "contractName": "NodeMetaData",
  "abi": [
    {
      "constant": false,
      "inputs": [
        {
          "name": "key",
          "type": "string"
        },
        {
          "name": "value",
          "type": "string"
        }
      ],
      "name": "addKeyAuth",
      "outputs": [
        {
          "name": "",
          "type": "bool"
        }
      ],
      "payable": false,
      "stateMutability": "nonpayable",
      "type": "function"
    },
    {
      "constant": true,
      "inputs": [],
      "name": "smartKey",
      "outputs": [
        {
          "name": "",
          "type": "address"
        }
      ],
      "payable": false,
      "stateMutability": "view",
      "type": "function"
    },
    {
      "constant": true,
      "inputs": [
        {
          "name": "",
          "type": "address"
        },
        {
          "name": "",
          "type": "uint256"
        }
      ],
      "name": "transactions",
      "outputs": [
        {
          "name": "account",
          "type": "address"
        },
        {
          "name": "date",
          "type": "uint256"
        },
        {
          "name": "amount",
          "type": "uint256"
        },
        {
          "name": "transaction_type",
          "type": "uint256"
        }
      ],
      "payable": false,
      "stateMutability": "view",
      "type": "function"
    },
    {
      "constant": true,
      "inputs": [
        {
          "name": "",
          "type": "uint256"
        }
      ],
      "name": "admins",
      "outputs": [
        {
          "name": "",
          "type": "address"
        }
      ],
      "payable": false,
      "stateMutability": "view",
      "type": "function"
    },
    {
      "constant": false,
      "inputs": [
        {
          "name": "_owner",
          "type": "address"
        }
      ],
      "name": "removeOwner",
      "outputs": [],
      "payable": false,
      "stateMutability": "nonpayable",
      "type": "function"
    },
    {
      "constant": true,
      "inputs": [],
      "name": "getHealthStatus",
      "outputs": [
        {
          "name": "",
          "type": "bytes32"
        }
      ],
      "payable": false,
      "stateMutability": "view",
      "type": "function"
    },
    {
      "constant": true,
      "inputs": [],
      "name": "contrib_amount",
      "outputs": [
        {
          "name": "",
          "type": "uint256"
        }
      ],
      "payable": false,
      "stateMutability": "view",
      "type": "function"
    },
    {
      "constant": true,
      "inputs": [
        {
          "name": "_address",
          "type": "address"
        }
      ],
      "name": "getTransactionCount",
      "outputs": [
        {
          "name": "",
          "type": "uint256"
        }
      ],
      "payable": false,
      "stateMutability": "view",
      "type": "function"
    },
    {
      "constant": true,
      "inputs": [
        {
          "name": "",
          "type": "address"
        }
      ],
      "name": "isAdmin",
      "outputs": [
        {
          "name": "",
          "type": "bool"
        }
      ],
      "payable": false,
      "stateMutability": "view",
      "type": "function"
    },
    {
      "constant": true,
      "inputs": [
        {
          "name": "",
          "type": "address"
        }
      ],
      "name": "isOwner",
      "outputs": [
        {
          "name": "",
          "type": "bool"
        }
      ],
      "payable": false,
      "stateMutability": "view",
      "type": "function"
    },
    {
      "constant": true,
      "inputs": [],
      "name": "getAdmins",
      "outputs": [
        {
          "name": "",
          "type": "address[]"
        }
      ],
      "payable": false,
      "stateMutability": "view",
      "type": "function"
    },
    {
      "constant": false,
      "inputs": [
        {
          "name": "amount",
          "type": "uint256"
        },
        {
          "name": "beneficiary",
          "type": "address"
        }
      ],
      "name": "transferEth",
      "outputs": [],
      "payable": false,
      "stateMutability": "nonpayable",
      "type": "function"
    },
    {
      "constant": true,
      "inputs": [
        {
          "name": "hash",
          "type": "bytes32"
        }
      ],
      "name": "getValueByHash",
      "outputs": [
        {
          "name": "",
          "type": "string"
        }
      ],
      "payable": false,
      "stateMutability": "view",
      "type": "function"
    },
    {
      "constant": true,
      "inputs": [
        {
          "name": "",
          "type": "bytes32"
        }
      ],
      "name": "itemMetaData",
      "outputs": [
        {
          "name": "",
          "type": "address"
        }
      ],
      "payable": false,
      "stateMutability": "view",
      "type": "function"
    },
    {
      "constant": false,
      "inputs": [
        {
          "name": "_health",
          "type": "uint8"
        }
      ],
      "name": "setHealth",
      "outputs": [],
      "payable": true,
      "stateMutability": "payable",
      "type": "function"
    },
    {
      "constant": true,
      "inputs": [
        {
          "name": "key",
          "type": "string"
        }
      ],
      "name": "getHash",
      "outputs": [
        {
          "name": "",
          "type": "bytes32"
        }
      ],
      "payable": false,
      "stateMutability": "pure",
      "type": "function"
    },
    {
      "constant": true,
      "inputs": [],
      "name": "getHealth",
      "outputs": [
        {
          "name": "",
          "type": "uint8"
        }
      ],
      "payable": false,
      "stateMutability": "view",
      "type": "function"
    },
    {
      "constant": false,
      "inputs": [
        {
          "name": "admin",
          "type": "address"
        }
      ],
      "name": "addAdmin",
      "outputs": [],
      "payable": false,
      "stateMutability": "nonpayable",
      "type": "function"
    },
    {
      "constant": false,
      "inputs": [
        {
          "name": "_owner",
          "type": "address"
        }
      ],
      "name": "addOwner",
      "outputs": [],
      "payable": false,
      "stateMutability": "nonpayable",
      "type": "function"
    },
    {
      "constant": true,
      "inputs": [],
      "name": "health",
      "outputs": [
        {
          "name": "",
          "type": "uint8"
        }
      ],
      "payable": false,
      "stateMutability": "view",
      "type": "function"
    },
    {
      "constant": true,
      "inputs": [
        {
          "name": "",
          "type": "address"
        }
      ],
      "name": "activated",
      "outputs": [
        {
          "name": "",
          "type": "uint256"
        }
      ],
      "payable": false,
      "stateMutability": "view",
      "type": "function"
    },
    {
      "constant": false,
      "inputs": [
        {
          "name": "user",
          "type": "address"
        }
      ],
      "name": "activateKey",
      "outputs": [],
      "payable": true,
      "stateMutability": "payable",
      "type": "function"
    },
    {
      "constant": false,
      "inputs": [
        {
          "name": "amount",
          "type": "uint256"
        },
        {
          "name": "beneficiary",
          "type": "address"
        }
      ],
      "name": "transfer",
      "outputs": [],
      "payable": false,
      "stateMutability": "nonpayable",
      "type": "function"
    },
    {
      "constant": true,
      "inputs": [],
      "name": "state",
      "outputs": [
        {
          "name": "",
          "type": "uint8"
        }
      ],
      "payable": false,
      "stateMutability": "view",
      "type": "function"
    },
    {
      "constant": true,
      "inputs": [
        {
          "name": "",
          "type": "uint256"
        }
      ],
      "name": "meta",
      "outputs": [
        {
          "name": "",
          "type": "address"
        }
      ],
      "payable": false,
      "stateMutability": "view",
      "type": "function"
    },
    {
      "constant": false,
      "inputs": [
        {
          "name": "hash",
          "type": "bytes32"
        },
        {
          "name": "value",
          "type": "string"
        }
      ],
      "name": "addKeyValueByHash",
      "outputs": [
        {
          "name": "",
          "type": "bool"
        }
      ],
      "payable": false,
      "stateMutability": "nonpayable",
      "type": "function"
    },
    {
      "constant": false,
      "inputs": [
        {
          "name": "banned",
          "type": "address"
        }
      ],
      "name": "addBanned",
      "outputs": [],
      "payable": false,
      "stateMutability": "nonpayable",
      "type": "function"
    },
    {
      "constant": true,
      "inputs": [],
      "name": "vault",
      "outputs": [
        {
          "name": "",
          "type": "address"
        }
      ],
      "payable": false,
      "stateMutability": "view",
      "type": "function"
    },
    {
      "constant": true,
      "inputs": [
        {
          "name": "key",
          "type": "string"
        }
      ],
      "name": "getKeyAuth",
      "outputs": [
        {
          "name": "",
          "type": "string"
        }
      ],
      "payable": false,
      "stateMutability": "view",
      "type": "function"
    },
    {
      "inputs": [
        {
          "name": "_smartKey",
          "type": "address"
        },
        {
          "name": "adminAddress",
          "type": "address[]"
        }
      ],
      "payable": false,
      "stateMutability": "nonpayable",
      "type": "constructor"
    },
    {
      "payable": true,
      "stateMutability": "payable",
      "type": "fallback"
    },
    {
      "anonymous": false,
      "inputs": [
        {
          "indexed": false,
          "name": "status",
          "type": "uint8"
        }
      ],
      "name": "HealthUpdate",
      "type": "event"
    },
    {
      "constant": true,
      "inputs": [],
      "name": "getSmartKey",
      "outputs": [
        {
          "name": "",
          "type": "address"
        }
      ],
      "payable": false,
      "stateMutability": "view",
      "type": "function"
    },
    {
      "constant": true,
      "inputs": [],
      "name": "selectMetaData",
      "outputs": [
        {
          "name": "",
          "type": "address[]"
        }
      ],
      "payable": false,
      "stateMutability": "view",
      "type": "function"
    },
    {
      "constant": false,
      "inputs": [
        {
          "name": "_rel",
          "type": "string"
        },
        {
          "name": "_val",
          "type": "string"
        }
      ],
      "name": "upsertMetaData",
      "outputs": [
        {
          "name": "",
          "type": "address"
        }
      ],
      "payable": true,
      "stateMutability": "payable",
      "type": "function"
    }
  ],
  "bytecode": "0x606060405234156200001057600080fd5b604051620043e4380380620043e48339810160405280805190602001909190805182019190505081308260008090505b8151811015620000c757600160008084848151811015156200005e57fe5b9060200190602002015173ffffffffffffffffffffffffffffffffffffffff1673ffffffffffffffffffffffffffffffffffffffff16815260200190815260200160002060006101000a81548160ff021916908315150217905550808060010191505062000040565b8160019080519060200190620000df92919062000303565b5050506001600260003373ffffffffffffffffffffffffffffffffffffffff1673ffffffffffffffffffffffffffffffffffffffff16815260200190815260200160002060006101000a81548160ff02191690831515021790555060008173ffffffffffffffffffffffffffffffffffffffff16141515156200016157600080fd5b80600460006101000a81548173ffffffffffffffffffffffffffffffffffffffff021916908373ffffffffffffffffffffffffffffffffffffffff16021790555081600360006101000a81548173ffffffffffffffffffffffffffffffffffffffff021916908373ffffffffffffffffffffffffffffffffffffffff1602179055506000600460146101000a81548160ff021916908360028111156200020357fe5b02179055506001600260008373ffffffffffffffffffffffffffffffffffffffff1673ffffffffffffffffffffffffffffffffffffffff16815260200190815260200160002060006101000a81548160ff0219169083151502179055506001600260008473ffffffffffffffffffffffffffffffffffffffff1673ffffffffffffffffffffffffffffffffffffffff16815260200190815260200160002060006101000a81548160ff021916908315150217905550505081600360006101000a81548173ffffffffffffffffffffffffffffffffffffffff021916908373ffffffffffffffffffffffffffffffffffffffff1602179055505050620003d8565b8280548282559060005260206000209081019282156200037f579160200282015b828111156200037e5782518260006101000a81548173ffffffffffffffffffffffffffffffffffffffff021916908373ffffffffffffffffffffffffffffffffffffffff1602179055509160200191906001019062000324565b5b5090506200038e919062000392565b5090565b620003d591905b80821115620003d157600081816101000a81549073ffffffffffffffffffffffffffffffffffffffff02191690555060010162000399565b5090565b90565b613ffc80620003e86000396000f300606060405260043610620001b7576000357c0100000000000000000000000000000000000000000000000000000000900463ffffffff16806303db428d14620001c4578063113adf49146200027f5780631453812814620002d757806314bfd6d01462000371578063173825d914620003d75780631801e1561462000413578063202e079d146200044757806323ca0cd2146200047357806324d7806c14620004c35780632f54bf6e146200051757806331ae450b146200056b57806349f9c0e414620005da5780635436e5a0146200061f5780635571edeb14620006c55780635b2ce586146200072f5780635b6beeb9146200074c5780635c866c7814620007c8578063640e7fd5146200082057806370480275146200085b5780637065cb4814620008975780637633a22c14620008d3578063779d8677146200090e5780639172fe08146200095e578063b7760c8f146200098e578063c19d93fb14620009d3578063cd5cfdaf1462000a0e578063d4c2f75c1462000a74578063e1b2e8b31462000af9578063ec6f214e1462000b35578063f95fd40b1462000c0c578063fbfa77cf1462000c7b578063fd08e0c71462000cd3575b620001c23362000daf565b005b3415620001d057600080fd5b62000265600480803590602001908201803590602001908080601f0160208091040260200160405190810160405280939291908181526020018383808284378201915050505050509190803590602001908201803590602001908080601f0160208091040260200160405190810160405280939291908181526020018383808284378201915050505050509190505062000df4565b604051808215151515815260200191505060405180910390f35b34156200028b57600080fd5b6200029562000ec7565b604051808273ffffffffffffffffffffffffffffffffffffffff1673ffffffffffffffffffffffffffffffffffffffff16815260200191505060405180910390f35b3415620002e357600080fd5b6200031a600480803573ffffffffffffffffffffffffffffffffffffffff1690602001909190803590602001909190505062000eed565b604051808573ffffffffffffffffffffffffffffffffffffffff1673ffffffffffffffffffffffffffffffffffffffff16815260200184815260200183815260200182815260200194505050505060405180910390f35b34156200037d57600080fd5b62000395600480803590602001909190505062000f5a565b604051808273ffffffffffffffffffffffffffffffffffffffff1673ffffffffffffffffffffffffffffffffffffffff16815260200191505060405180910390f35b3415620003e357600080fd5b62000411600480803573ffffffffffffffffffffffffffffffffffffffff1690602001909190505062000f9a565b005b34156200041f57600080fd5b62000429620010a7565b60405180826000191660001916815260200191505060405180910390f35b34156200045357600080fd5b6200045d62001344565b6040518082815260200191505060405180910390f35b34156200047f57600080fd5b620004ad600480803573ffffffffffffffffffffffffffffffffffffffff169060200190919050506200134a565b6040518082815260200191505060405180910390f35b3415620004cf57600080fd5b620004fd600480803573ffffffffffffffffffffffffffffffffffffffff1690602001909190505062001396565b604051808215151515815260200191505060405180910390f35b34156200052357600080fd5b62000551600480803573ffffffffffffffffffffffffffffffffffffffff16906020019091905050620013b6565b604051808215151515815260200191505060405180910390f35b34156200057757600080fd5b62000581620013d6565b6040518080602001828103825283818151815260200191508051906020019060200280838360005b83811015620005c6578082015181840152602081019050620005a9565b505050509050019250505060405180910390f35b3415620005e657600080fd5b6200061d600480803590602001909190803573ffffffffffffffffffffffffffffffffffffffff169060200190919050506200146e565b005b34156200062b57600080fd5b620006476004808035600019169060200190919050506200164c565b6040518080602001828103825283818151815260200191508051906020019080838360005b83811015620006895780820151818401526020810190506200066c565b50505050905090810190601f168015620006b75780820380516001836020036101000a031916815260200191505b509250505060405180910390f35b3415620006d157600080fd5b620006ed6004808035600019169060200190919050506200176e565b604051808273ffffffffffffffffffffffffffffffffffffffff1673ffffffffffffffffffffffffffffffffffffffff16815260200191505060405180910390f35b6200074a600480803560ff16906020019091905050620017a1565b005b34156200075857600080fd5b620007aa600480803590602001908201803590602001908080601f0160208091040260200160405190810160405280939291908181526020018383808284378201915050505050509190505062001c2b565b60405180826000191660001916815260200191505060405180910390f35b3415620007d457600080fd5b620007de62001c99565b604051808273ffffffffffffffffffffffffffffffffffffffff1673ffffffffffffffffffffffffffffffffffffffff16815260200191505060405180910390f35b34156200082c57600080fd5b6200083662001cc3565b604051808260068111156200084757fe5b60ff16815260200191505060405180910390f35b34156200086757600080fd5b62000895600480803573ffffffffffffffffffffffffffffffffffffffff1690602001909190505062001cda565b005b3415620008a357600080fd5b620008d1600480803573ffffffffffffffffffffffffffffffffffffffff1690602001909190505062001e49565b005b3415620008df57600080fd5b620008e962001f56565b60405180826006811115620008fa57fe5b60ff16815260200191505060405180910390f35b34156200091a57600080fd5b62000948600480803573ffffffffffffffffffffffffffffffffffffffff1690602001909190505062001f69565b6040518082815260200191505060405180910390f35b6200098c600480803573ffffffffffffffffffffffffffffffffffffffff1690602001909190505062000daf565b005b34156200099a57600080fd5b620009d1600480803590602001909190803573ffffffffffffffffffffffffffffffffffffffff1690602001909190505062001f81565b005b3415620009df57600080fd5b620009e962002209565b60405180826002811115620009fa57fe5b60ff16815260200191505060405180910390f35b341562000a1a57600080fd5b62000a3260048080359060200190919050506200221c565b604051808273ffffffffffffffffffffffffffffffffffffffff1673ffffffffffffffffffffffffffffffffffffffff16815260200191505060405180910390f35b341562000a8057600080fd5b62000adf60048080356000191690602001909190803590602001908201803590602001908080601f016020809104026020016040519081016040528093929190818152602001838380828437820191505050505050919050506200225c565b604051808215151515815260200191505060405180910390f35b341562000b0557600080fd5b62000b33600480803573ffffffffffffffffffffffffffffffffffffffff16906020019091905050620022f3565b005b62000bca600480803590602001908201803590602001908080601f0160208091040260200160405190810160405280939291908181526020018383808284378201915050505050509190803590602001908201803590602001908080601f01602080910402602001604051908101604052809392919081815260200183838082843782019150505050505091905050620024d0565b604051808273ffffffffffffffffffffffffffffffffffffffff1673ffffffffffffffffffffffffffffffffffffffff16815260200191505060405180910390f35b341562000c1857600080fd5b62000c2262002bf9565b6040518080602001828103825283818151815260200191508051906020019060200280838360005b8381101562000c6757808201518184015260208101905062000c4a565b505050509050019250505060405180910390f35b341562000c8757600080fd5b62000c9162002c91565b604051808273ffffffffffffffffffffffffffffffffffffffff1673ffffffffffffffffffffffffffffffffffffffff16815260200191505060405180910390f35b341562000cdf57600080fd5b62000d31600480803590602001908201803590602001908080601f0160208091040260200160405190810160405280939291908181526020018383808284378201915050505050509190505062002cb7565b6040518080602001828103825283818151815260200191508051906020019080838360005b8381101562000d7357808201518184015260208101905062000d56565b50505050905090810190601f16801562000da15780820380516001836020036101000a031916815260200191505b509250505060405180910390f35b6001600460146101000a81548160ff0219169083600281111562000dcf57fe5b021790555062000deb3460055462002d9090919063ffffffff16565b60058190555050565b6000600260003373ffffffffffffffffffffffffffffffffffffffff1673ffffffffffffffffffffffffffffffffffffffff16815260200190815260200160002060009054906101000a900460ff16151562000e4f57600080fd5b62000ebf836040518082805190602001908083835b60208310151562000e8b578051825260208201915060208101905060208303925062000e64565b6001836020036101000a0380198251168184511680821785525050505050509050019150506040518091039020836200225c565b905092915050565b600360009054906101000a900473ffffffffffffffffffffffffffffffffffffffff1681565b60076020528160005260406000208181548110151562000f0957fe5b9060005260206000209060040201600091509150508060000160009054906101000a900473ffffffffffffffffffffffffffffffffffffffff16908060010154908060020154908060030154905084565b60018181548110151562000f6a57fe5b90600052602060002090016000915054906101000a900473ffffffffffffffffffffffffffffffffffffffff1681565b600260003373ffffffffffffffffffffffffffffffffffffffff1673ffffffffffffffffffffffffffffffffffffffff16815260200190815260200160002060009054906101000a900460ff16151562000ff357600080fd5b600260003373ffffffffffffffffffffffffffffffffffffffff1673ffffffffffffffffffffffffffffffffffffffff16815260200190815260200160002060009054906101000a900460ff1615156200104c57600080fd5b6000600260008373ffffffffffffffffffffffffffffffffffffffff1673ffffffffffffffffffffffffffffffffffffffff16815260200190815260200160002060006101000a81548160ff02191690831515021790555050565b6000806006811115620010b657fe5b600460159054906101000a900460ff166006811115620010d257fe5b141562001102577f50726f766973696f6e696e670000000000000000000000000000000000000000905062001341565b600160068111156200111057fe5b600460159054906101000a900460ff1660068111156200112c57fe5b14156200115c577f4365727469666965640000000000000000000000000000000000000000000000905062001341565b600260068111156200116a57fe5b600460159054906101000a900460ff1660068111156200118657fe5b1415620011b6577f4d6f646966696564000000000000000000000000000000000000000000000000905062001341565b60036006811115620011c457fe5b600460159054906101000a900460ff166006811115620011e057fe5b141562001210577f436f6d70726f6d69736564000000000000000000000000000000000000000000905062001341565b600460068111156200121e57fe5b600460159054906101000a900460ff1660068111156200123a57fe5b14156200126a577f4d616c66756e6374696f6e696e67000000000000000000000000000000000000905062001341565b600560068111156200127857fe5b600460159054906101000a900460ff1660068111156200129457fe5b1415620012c4577f4861726d66756c00000000000000000000000000000000000000000000000000905062001341565b600680811115620012d157fe5b600460159054906101000a900460ff166006811115620012ed57fe5b14156200131d577f436f756e74657266656974000000000000000000000000000000000000000000905062001341565b7f436f756e7465726665697400000000000000000000000000000000000000000090505b90565b60055481565b6000600760008373ffffffffffffffffffffffffffffffffffffffff1673ffffffffffffffffffffffffffffffffffffffff168152602001908152602001600020805490509050919050565b60006020528060005260406000206000915054906101000a900460ff1681565b60026020528060005260406000206000915054906101000a900460ff1681565b620013e062002daf565b60018054806020026020016040519081016040528092919081815260200182805480156200146457602002820191906000526020600020905b8160009054906101000a900473ffffffffffffffffffffffffffffffffffffffff1673ffffffffffffffffffffffffffffffffffffffff168152602001906001019080831162001419575b5050505050905090565b600260003373ffffffffffffffffffffffffffffffffffffffff1673ffffffffffffffffffffffffffffffffffffffff16815260200190815260200160002060009054906101000a900460ff161515620014c757600080fd5b60016002811115620014d557fe5b600460149054906101000a900460ff166002811115620014f157fe5b141515620014fe57600080fd5b8073ffffffffffffffffffffffffffffffffffffffff166108fc839081150290604051600060405180830381858888f1935050505015156200153f57600080fd5b600760003073ffffffffffffffffffffffffffffffffffffffff1673ffffffffffffffffffffffffffffffffffffffff168152602001908152602001600020805480600101828162001592919062002dc3565b916000526020600020906004020160006080604051908101604052808573ffffffffffffffffffffffffffffffffffffffff1681526020014281526020018681526020016001815250909190915060008201518160000160006101000a81548173ffffffffffffffffffffffffffffffffffffffff021916908373ffffffffffffffffffffffffffffffffffffffff1602179055506020820151816001015560408201518160020155606082015181600301555050505050565b6200165662002df8565b600260003373ffffffffffffffffffffffffffffffffffffffff1673ffffffffffffffffffffffffffffffffffffffff16815260200190815260200160002060009054906101000a900460ff161515620016af57600080fd5b6008600083600019166000191681526020019081526020016000208054600181600116156101000203166002900480601f016020809104026020016040519081016040528092919081815260200182805460018160011615610100020316600290048015620017625780601f10620017365761010080835404028352916020019162001762565b820191906000526020600020905b8154815290600101906020018083116200174457829003601f168201915b50505050509050919050565b600a6020528060005260406000206000915054906101000a900473ffffffffffffffffffffffffffffffffffffffff1681565b80600460156101000a81548160ff02191690836006811115620017c057fe5b02179055506001816006811115620017d457fe5b11156200194e57600360009054906101000a900473ffffffffffffffffffffffffffffffffffffffff1673ffffffffffffffffffffffffffffffffffffffff16630d6d3b6e3430337f4865616c74685761726e696e67000000000000000000000000000000000000006000604051602001526040518563ffffffff167c0100000000000000000000000000000000000000000000000000000000028152600401808473ffffffffffffffffffffffffffffffffffffffff1673ffffffffffffffffffffffffffffffffffffffff1681526020018373ffffffffffffffffffffffffffffffffffffffff1673ffffffffffffffffffffffffffffffffffffffff168152602001826000191660001916815260200193505050506020604051808303818588803b15156200190557600080fd5b6125ee5a03f115156200191757600080fd5b5050505060405180519050506002600460146101000a81548160ff021916908360028111156200194357fe5b021790555062001abc565b600360009054906101000a900473ffffffffffffffffffffffffffffffffffffffff1673ffffffffffffffffffffffffffffffffffffffff16630d6d3b6e3430337f4865616c746855706461746500000000000000000000000000000000000000006000604051602001526040518563ffffffff167c0100000000000000000000000000000000000000000000000000000000028152600401808473ffffffffffffffffffffffffffffffffffffffff1673ffffffffffffffffffffffffffffffffffffffff1681526020018373ffffffffffffffffffffffffffffffffffffffff1673ffffffffffffffffffffffffffffffffffffffff168152602001826000191660001916815260200193505050506020604051808303818588803b151562001a7857600080fd5b6125ee5a03f1151562001a8a57600080fd5b5050505060405180519050506001600460146101000a81548160ff0219169083600281111562001ab657fe5b02179055505b7fb6d7372bb54b80a5b1d60d3b1da737719783cc92a2095f10d9195105f7abeca5816040518082600681111562001aef57fe5b60ff16815260200191505060405180910390a162001b193460055462002d9090919063ffffffff16565b600581905550600760003073ffffffffffffffffffffffffffffffffffffffff1673ffffffffffffffffffffffffffffffffffffffff168152602001908152602001600020805480600101828162001b72919062002dc3565b916000526020600020906004020160006080604051908101604052803373ffffffffffffffffffffffffffffffffffffffff1681526020014281526020013481526020016000815250909190915060008201518160000160006101000a81548173ffffffffffffffffffffffffffffffffffffffff021916908373ffffffffffffffffffffffffffffffffffffffff16021790555060208201518160010155604082015181600201556060820151816003015550505050565b6000816040518082805190602001908083835b60208310151562001c65578051825260208201915060208101905060208303925062001c3e565b6001836020036101000a03801982511681845116808217855250505050505090500191505060405180910390209050919050565b6000600360009054906101000a900473ffffffffffffffffffffffffffffffffffffffff16905090565b6000600460159054906101000a900460ff16905090565b6000803373ffffffffffffffffffffffffffffffffffffffff1673ffffffffffffffffffffffffffffffffffffffff16815260200190815260200160002060009054906101000a900460ff16151562001d3257600080fd5b6000803373ffffffffffffffffffffffffffffffffffffffff1673ffffffffffffffffffffffffffffffffffffffff16815260200190815260200160002060009054906101000a900460ff16151562001d8a57600080fd5b60016000808373ffffffffffffffffffffffffffffffffffffffff1673ffffffffffffffffffffffffffffffffffffffff16815260200190815260200160002060006101000a81548160ff0219169083151502179055506001805480600101828162001df7919062002e0c565b9160005260206000209001600083909190916101000a81548173ffffffffffffffffffffffffffffffffffffffff021916908373ffffffffffffffffffffffffffffffffffffffff1602179055505050565b600260003373ffffffffffffffffffffffffffffffffffffffff1673ffffffffffffffffffffffffffffffffffffffff16815260200190815260200160002060009054906101000a900460ff16151562001ea257600080fd5b600260003373ffffffffffffffffffffffffffffffffffffffff1673ffffffffffffffffffffffffffffffffffffffff16815260200190815260200160002060009054906101000a900460ff16151562001efb57600080fd5b6001600260008373ffffffffffffffffffffffffffffffffffffffff1673ffffffffffffffffffffffffffffffffffffffff16815260200190815260200160002060006101000a81548160ff02191690831515021790555050565b600460159054906101000a900460ff1681565b60066020528060005260406000206000915090505481565b600260003373ffffffffffffffffffffffffffffffffffffffff1673ffffffffffffffffffffffffffffffffffffffff16815260200190815260200160002060009054906101000a900460ff16151562001fda57600080fd5b6001600281111562001fe857fe5b600460149054906101000a900460ff1660028111156200200457fe5b1415156200201157600080fd5b600360009054906101000a900473ffffffffffffffffffffffffffffffffffffffff1673ffffffffffffffffffffffffffffffffffffffff1663a9059cbb82846000604051602001526040518363ffffffff167c0100000000000000000000000000000000000000000000000000000000028152600401808373ffffffffffffffffffffffffffffffffffffffff1673ffffffffffffffffffffffffffffffffffffffff16815260200182815260200192505050602060405180830381600087803b1515620020df57600080fd5b6102c65a03f11515620020f157600080fd5b5050506040518051905050600760003073ffffffffffffffffffffffffffffffffffffffff1673ffffffffffffffffffffffffffffffffffffffff16815260200190815260200160002080548060010182816200214f919062002dc3565b916000526020600020906004020160006080604051908101604052808573ffffffffffffffffffffffffffffffffffffffff1681526020014281526020018681526020016001815250909190915060008201518160000160006101000a81548173ffffffffffffffffffffffffffffffffffffffff021916908373ffffffffffffffffffffffffffffffffffffffff1602179055506020820151816001015560408201518160020155606082015181600301555050505050565b600460149054906101000a900460ff1681565b6009818154811015156200222c57fe5b90600052602060002090016000915054906101000a900473ffffffffffffffffffffffffffffffffffffffff1681565b6000600260003373ffffffffffffffffffffffffffffffffffffffff1673ffffffffffffffffffffffffffffffffffffffff16815260200190815260200160002060009054906101000a900460ff161515620022b757600080fd5b816008600085600019166000191681526020019081526020016000209080519060200190620022e892919062002e3b565b506001905092915050565b60008060003373ffffffffffffffffffffffffffffffffffffffff1673ffffffffffffffffffffffffffffffffffffffff16815260200190815260200160002060009054906101000a900460ff1615156200234d57600080fd5b6000803373ffffffffffffffffffffffffffffffffffffffff1673ffffffffffffffffffffffffffffffffffffffff16815260200190815260200160002060009054906101000a900460ff161515620023a557600080fd5b60008060008473ffffffffffffffffffffffffffffffffffffffff1673ffffffffffffffffffffffffffffffffffffffff16815260200190815260200160002060006101000a81548160ff021916908315150217905550600090505b600180549050811015620024cc576001818154811015156200241f57fe5b906000526020600020900160009054906101000a900473ffffffffffffffffffffffffffffffffffffffff1673ffffffffffffffffffffffffffffffffffffffff168273ffffffffffffffffffffffffffffffffffffffff161415620024be576001818154811015156200248f57fe5b906000526020600020900160006101000a81549073ffffffffffffffffffffffffffffffffffffffff02191690555b808060010191505062002401565b5050565b6000806000620024e08562001c2b565b9150600073ffffffffffffffffffffffffffffffffffffffff16600a6000846000191660001916815260200190815260200160002060009054906101000a900473ffffffffffffffffffffffffffffffffffffffff1673ffffffffffffffffffffffffffffffffffffffff161415620028f757600190508080548060010182816200256c919062002e0c565b9160005260206000209001600030909190916101000a81548173ffffffffffffffffffffffffffffffffffffffff021916908373ffffffffffffffffffffffffffffffffffffffff16021790555050808054806001018281620025d0919062002e0c565b9160005260206000209001600033909190916101000a81548173ffffffffffffffffffffffffffffffffffffffff021916908373ffffffffffffffffffffffffffffffffffffffff16021790555050600360009054906101000a900473ffffffffffffffffffffffffffffffffffffffff16600186866200265062002ec2565b808573ffffffffffffffffffffffffffffffffffffffff1673ffffffffffffffffffffffffffffffffffffffff16815260200180602001806020018060200184810384528781815481526020019150805480156200270457602002820191906000526020600020905b8160009054906101000a900473ffffffffffffffffffffffffffffffffffffffff1673ffffffffffffffffffffffffffffffffffffffff1681526020019060010190808311620026b9575b5050848103835286818151815260200191508051906020019080838360005b838110156200274057808201518184015260208101905062002723565b50505050905090810190601f1680156200276e5780820380516001836020036101000a031916815260200191505b50848103825285818151815260200191508051906020019080838360005b83811015620027a95780820151818401526020810190506200278c565b50505050905090810190601f168015620027d75780820380516001836020036101000a031916815260200191505b50975050505050505050604051809103906000f0801515620027f857600080fd5b600a6000846000191660001916815260200190815260200160002060006101000a81548173ffffffffffffffffffffffffffffffffffffffff021916908373ffffffffffffffffffffffffffffffffffffffff1602179055506009805480600101828162002867919062002ed3565b91600052602060002090016000600a6000866000191660001916815260200190815260200160002060009054906101000a900473ffffffffffffffffffffffffffffffffffffffff16909190916101000a81548173ffffffffffffffffffffffffffffffffffffffff021916908373ffffffffffffffffffffffffffffffffffffffff1602179055505062002a30565b600a6000836000191660001916815260200190815260200160002060009054906101000a900473ffffffffffffffffffffffffffffffffffffffff1673ffffffffffffffffffffffffffffffffffffffff16631aae2531856000604051602001526040518263ffffffff167c01000000000000000000000000000000000000000000000000000000000281526004018080602001828103825283818151815260200191508051906020019080838360005b83811015620029c5578082015181840152602081019050620029a8565b50505050905090810190601f168015620029f35780820380516001836020036101000a031916815260200191505b5092505050602060405180830381600087803b151562002a1257600080fd5b6102c65a03f1151562002a2457600080fd5b50505060405180519050505b600360009054906101000a900473ffffffffffffffffffffffffffffffffffffffff1673ffffffffffffffffffffffffffffffffffffffff16630d6d3b6e3430600a6000876000191660001916815260200190815260200160002060009054906101000a900473ffffffffffffffffffffffffffffffffffffffff167f4d657461446174615570646174650000000000000000000000000000000000006000604051602001526040518563ffffffff167c0100000000000000000000000000000000000000000000000000000000028152600401808473ffffffffffffffffffffffffffffffffffffffff1673ffffffffffffffffffffffffffffffffffffffff1681526020018373ffffffffffffffffffffffffffffffffffffffff1673ffffffffffffffffffffffffffffffffffffffff168152602001826000191660001916815260200193505050506020604051808303818588803b151562002b9557600080fd5b6125ee5a03f1151562002ba757600080fd5b505050506040518051905050600a6000836000191660001916815260200190815260200160002060009054906101000a900473ffffffffffffffffffffffffffffffffffffffff169250505092915050565b62002c0362002f02565b600980548060200260200160405190810160405280929190818152602001828054801562002c8757602002820191906000526020600020905b8160009054906101000a900473ffffffffffffffffffffffffffffffffffffffff1673ffffffffffffffffffffffffffffffffffffffff168152602001906001019080831162002c3c575b5050505050905090565b600460009054906101000a900473ffffffffffffffffffffffffffffffffffffffff1681565b62002cc162002df8565b600260003373ffffffffffffffffffffffffffffffffffffffff1673ffffffffffffffffffffffffffffffffffffffff16815260200190815260200160002060009054906101000a900460ff16151562002d1a57600080fd5b62002d89826040518082805190602001908083835b60208310151562002d56578051825260208201915060208101905060208303925062002d2f565b6001836020036101000a03801982511681845116808217855250505050505090500191505060405180910390206200164c565b9050919050565b600080828401905083811015151562002da557fe5b8091505092915050565b602060405190810160405280600081525090565b81548183558181151162002df35760040281600402836000526020600020918201910162002df2919062002f16565b5b505050565b602060405190810160405280600081525090565b81548183558181151162002e365781836000526020600020918201910162002e35919062002f77565b5b505050565b828054600181600116156101000203166002900490600052602060002090601f016020900481019282601f1062002e7e57805160ff191683800117855562002eaf565b8280016001018555821562002eaf579182015b8281111562002eae57825182559160200191906001019062002e91565b5b50905062002ebe919062002f77565b5090565b6040516110318062002fa083390190565b81548183558181151162002efd5781836000526020600020918201910162002efc919062002f77565b5b505050565b602060405190810160405280600081525090565b62002f7491905b8082111562002f7057600080820160006101000a81549073ffffffffffffffffffffffffffffffffffffffff02191690556001820160009055600282016000905560038201600090555060040162002f1d565b5090565b90565b62002f9c91905b8082111562002f9857600081600090555060010162002f7e565b5090565b905600606060405234156200001057600080fd5b6040516200103138038062001031833981016040528080519060200190919080518201919060200180518201919060200180518201919050508260008090505b8151811015620000d757600160008084848151811015156200006e57fe5b9060200190602002015173ffffffffffffffffffffffffffffffffffffffff1673ffffffffffffffffffffffffffffffffffffffff16815260200190815260200160002060006101000a81548160ff021916908315150217905550808060010191505062000050565b8160019080519060200190620000ef9291906200016f565b50505083600260006101000a81548173ffffffffffffffffffffffffffffffffffffffff021916908373ffffffffffffffffffffffffffffffffffffffff16021790555081600390805190602001906200014b929190620001fe565b50806004908051906020019062000164929190620001fe565b5050505050620002f3565b828054828255906000526020600020908101928215620001eb579160200282015b82811115620001ea5782518260006101000a81548173ffffffffffffffffffffffffffffffffffffffff021916908373ffffffffffffffffffffffffffffffffffffffff1602179055509160200191906001019062000190565b5b509050620001fa919062000285565b5090565b828054600181600116156101000203166002900490600052602060002090601f016020900481019282601f106200024157805160ff191683800117855562000272565b8280016001018555821562000272579182015b828111156200027157825182559160200191906001019062000254565b5b509050620002819190620002cb565b5090565b620002c891905b80821115620002c457600081816101000a81549073ffffffffffffffffffffffffffffffffffffffff0219169055506001016200028c565b5090565b90565b620002f091905b80821115620002ec576000816000905550600101620002d2565b5090565b90565b610d2e80620003036000396000f3006060604052600436106100a4576000357c0100000000000000000000000000000000000000000000000000000000900463ffffffff1680630fe4e9e8146100a957806314bfd6d0146101455780631aae2531146101a857806324d7806c1461021d57806331ae450b1461026e5780633c6bb436146102d857806370480275146103665780639b93f06b1461039f578063ce26e78a146103c8578063e1b2e8b314610456575b600080fd5b34156100b457600080fd5b6100ca600480803590602001909190505061048f565b6040518080602001828103825283818151815260200191508051906020019080838360005b8381101561010a5780820151818401526020810190506100ef565b50505050905090810190601f1680156101375780820380516001836020036101000a031916815260200191505b509250505060405180910390f35b341561015057600080fd5b610166600480803590602001909190505061054b565b604051808273ffffffffffffffffffffffffffffffffffffffff1673ffffffffffffffffffffffffffffffffffffffff16815260200191505060405180910390f35b34156101b357600080fd5b610203600480803590602001908201803590602001908080601f0160208091040260200160405190810160405280939291908181526020018383808284378201915050505050509190505061058a565b604051808215151515815260200191505060405180910390f35b341561022857600080fd5b610254600480803573ffffffffffffffffffffffffffffffffffffffff1690602001909190505061063f565b604051808215151515815260200191505060405180910390f35b341561027957600080fd5b61028161065f565b6040518080602001828103825283818151815260200191508051906020019060200280838360005b838110156102c45780820151818401526020810190506102a9565b505050509050019250505060405180910390f35b34156102e357600080fd5b6102eb6106f3565b6040518080602001828103825283818151815260200191508051906020019080838360005b8381101561032b578082015181840152602081019050610310565b50505050905090810190601f1680156103585780820380516001836020036101000a031916815260200191505b509250505060405180910390f35b341561037157600080fd5b61039d600480803573ffffffffffffffffffffffffffffffffffffffff16906020019091905050610791565b005b34156103aa57600080fd5b6103b26108fc565b6040518082815260200191505060405180910390f35b34156103d357600080fd5b6103db610909565b6040518080602001828103825283818151815260200191508051906020019080838360005b8381101561041b578082015181840152602081019050610400565b50505050905090810190601f1680156104485780820380516001836020036101000a031916815260200191505b509250505060405180910390f35b341561046157600080fd5b61048d600480803573ffffffffffffffffffffffffffffffffffffffff169060200190919050506109a7565b005b60058181548110151561049e57fe5b90600052602060002090016000915090508054600181600116156101000203166002900480601f0160208091040260200160405190810160405280929190818152602001828054600181600116156101000203166002900480156105435780601f1061051857610100808354040283529160200191610543565b820191906000526020600020905b81548152906001019060200180831161052657829003601f168201915b505050505081565b60018181548110151561055a57fe5b90600052602060002090016000915054906101000a900473ffffffffffffffffffffffffffffffffffffffff1681565b60008060003373ffffffffffffffffffffffffffffffffffffffff1673ffffffffffffffffffffffffffffffffffffffff16815260200190815260200160002060009054906101000a900460ff1615156105e357600080fd5b600580548060010182816105f79190610b7d565b91600052602060002090016000849091909150908051906020019061061d929190610ba9565b50508160049080519060200190610635929190610ba9565b5060019050919050565b60006020528060005260406000206000915054906101000a900460ff1681565b610667610c29565b60018054806020026020016040519081016040528092919081815260200182805480156106e957602002820191906000526020600020905b8160009054906101000a900473ffffffffffffffffffffffffffffffffffffffff1673ffffffffffffffffffffffffffffffffffffffff168152602001906001019080831161069f575b5050505050905090565b60048054600181600116156101000203166002900480601f0160208091040260200160405190810160405280929190818152602001828054600181600116156101000203166002900480156107895780601f1061075e57610100808354040283529160200191610789565b820191906000526020600020905b81548152906001019060200180831161076c57829003601f168201915b505050505081565b6000803373ffffffffffffffffffffffffffffffffffffffff1673ffffffffffffffffffffffffffffffffffffffff16815260200190815260200160002060009054906101000a900460ff1615156107e857600080fd5b6000803373ffffffffffffffffffffffffffffffffffffffff1673ffffffffffffffffffffffffffffffffffffffff16815260200190815260200160002060009054906101000a900460ff16151561083f57600080fd5b60016000808373ffffffffffffffffffffffffffffffffffffffff1673ffffffffffffffffffffffffffffffffffffffff16815260200190815260200160002060006101000a81548160ff021916908315150217905550600180548060010182816108aa9190610c3d565b9160005260206000209001600083909190916101000a81548173ffffffffffffffffffffffffffffffffffffffff021916908373ffffffffffffffffffffffffffffffffffffffff1602179055505050565b6000600580549050905090565b60038054600181600116156101000203166002900480601f01602080910402602001604051908101604052809291908181526020018280546001816001161561010002031660029004801561099f5780601f106109745761010080835404028352916020019161099f565b820191906000526020600020905b81548152906001019060200180831161098257829003601f168201915b505050505081565b60008060003373ffffffffffffffffffffffffffffffffffffffff1673ffffffffffffffffffffffffffffffffffffffff16815260200190815260200160002060009054906101000a900460ff161515610a0057600080fd5b6000803373ffffffffffffffffffffffffffffffffffffffff1673ffffffffffffffffffffffffffffffffffffffff16815260200190815260200160002060009054906101000a900460ff161515610a5757600080fd5b60008060008473ffffffffffffffffffffffffffffffffffffffff1673ffffffffffffffffffffffffffffffffffffffff16815260200190815260200160002060006101000a81548160ff021916908315150217905550600090505b600180549050811015610b7957600181815481101515610acf57fe5b906000526020600020900160009054906101000a900473ffffffffffffffffffffffffffffffffffffffff1673ffffffffffffffffffffffffffffffffffffffff168273ffffffffffffffffffffffffffffffffffffffff161415610b6c57600181815481101515610b3d57fe5b906000526020600020900160006101000a81549073ffffffffffffffffffffffffffffffffffffffff02191690555b8080600101915050610ab3565b5050565b815481835581811511610ba457818360005260206000209182019101610ba39190610c69565b5b505050565b828054600181600116156101000203166002900490600052602060002090601f016020900481019282601f10610bea57805160ff1916838001178555610c18565b82800160010185558215610c18579182015b82811115610c17578251825591602001919060010190610bfc565b5b509050610c259190610c95565b5090565b602060405190810160405280600081525090565b815481835581811511610c6457818360005260206000209182019101610c639190610c95565b5b505050565b610c9291905b80821115610c8e5760008181610c859190610cba565b50600101610c6f565b5090565b90565b610cb791905b80821115610cb3576000816000905550600101610c9b565b5090565b90565b50805460018160011615610100020316600290046000825580601f10610ce05750610cff565b601f016020900490600052602060002090810190610cfe9190610c95565b5b505600a165627a7a7230582028ed1f16013547a273abafeca3f3f801799a18039b62190fa6a457f58b41206a0029a165627a7a72305820eaeb695bd658a45108aca24abbe1dc7155edb0d8967a1ec2bcaf02e7111c25a00029",
  "source": "pragma solidity ^0.4.18; //We have to specify what version of the compiler this code will use\n\nimport \"./admin/Administered.sol\";\nimport \"./SmartKey.sol\";\nimport \"./MetaData.sol\";\n\ncontract NodeMetaData is Administered, Key {\n       \n  //PAS 212:2016\n  MetaData[] public meta;\n  mapping (bytes32 => MetaData) public itemMetaData; // rel is hashed to bytes32 data   \n  //PAS 212:2016\n  \n  //event MetaDataUpdate(address indexed user, address indexed metaDataContract, string rel, string val);\n  \n  function NodeMetaData(SmartKey _smartKey, address[] adminAddress) \n  public\n  Administered(adminAddress)\n  Key(_smartKey, address(this))\n  {\n      smartKey=_smartKey;  \n  }\n\n  function getSmartKey()\n  view\n  public\n  returns (SmartKey)\n  {\n      return smartKey;\n  }\n\n  function selectMetaData() \n  view\n  public\n  returns (MetaData[]) \n  {\n         return meta;\n  }\n\n  \n  function upsertMetaData(string _rel, string _val) \n  public\n  payable\n  returns (address)\n  {\n  \n      bytes32 hashVal=getHash(_rel);\n      \n\n      if (itemMetaData[hashVal] == address(0)) {\n            address[] storage _admins=admins;\n            _admins.push(address(this));\n            _admins.push(msg.sender);\n            itemMetaData[hashVal]=new MetaData(smartKey, admins, _rel, _val);\n            meta.push(itemMetaData[hashVal]);\n      } else {\n            itemMetaData[hashVal].setVal(_val);\n      } \n      \n      smartKey.loadSmartKey.value(msg.value)(Key(this), address(itemMetaData[hashVal]), bytes32(\"MetaDataUpdate\"));\n      //smartKey.loadSmartKey.value(msg.value)(Key(this), address(msg.sender), bytes32(\"MetaDataUpdate\"));\n      \n      return address(itemMetaData[hashVal]);\n    }\n \n}",
  "sourcePath": "/windata/iotblock/contracts/NodeMetaData.sol",
  "compiler": {
    "name": "solc",
    "version": "0.4.19+commit.c4cbbb05.Emscripten.clang"
  },
  "schemaVersion": "2.0.0",
  "updatedAt": "2018-11-30T20:12:43.753Z"
}