{
  "contractName": "PoolKey",
  "abi": [
    {
      "constant": false,
      "inputs": [
        {
          "name": "key",
          "type": "string"
        },
        {
          "name": "value",
          "type": "string"
        }
      ],
      "name": "addKeyAuth",
      "outputs": [
        {
          "name": "",
          "type": "bool"
        }
      ],
      "payable": false,
      "stateMutability": "nonpayable",
      "type": "function"
    },
    {
      "constant": true,
      "inputs": [],
      "name": "min_per_contrib",
      "outputs": [
        {
          "name": "",
          "type": "uint256"
        }
      ],
      "payable": false,
      "stateMutability": "view",
      "type": "function"
    },
    {
      "constant": true,
      "inputs": [],
      "name": "smartKey",
      "outputs": [
        {
          "name": "",
          "type": "address"
        }
      ],
      "payable": false,
      "stateMutability": "view",
      "type": "function"
    },
    {
      "constant": true,
      "inputs": [
        {
          "name": "",
          "type": "address"
        },
        {
          "name": "",
          "type": "uint256"
        }
      ],
      "name": "transactions",
      "outputs": [
        {
          "name": "account",
          "type": "address"
        },
        {
          "name": "date",
          "type": "uint256"
        },
        {
          "name": "amount",
          "type": "uint256"
        },
        {
          "name": "transaction_type",
          "type": "uint256"
        }
      ],
      "payable": false,
      "stateMutability": "view",
      "type": "function"
    },
    {
      "constant": true,
      "inputs": [
        {
          "name": "",
          "type": "uint256"
        }
      ],
      "name": "admins",
      "outputs": [
        {
          "name": "",
          "type": "address"
        }
      ],
      "payable": false,
      "stateMutability": "view",
      "type": "function"
    },
    {
      "constant": false,
      "inputs": [
        {
          "name": "_owner",
          "type": "address"
        }
      ],
      "name": "removeOwner",
      "outputs": [],
      "payable": false,
      "stateMutability": "nonpayable",
      "type": "function"
    },
    {
      "constant": true,
      "inputs": [],
      "name": "getHealthStatus",
      "outputs": [
        {
          "name": "",
          "type": "bytes32"
        }
      ],
      "payable": false,
      "stateMutability": "view",
      "type": "function"
    },
    {
      "constant": true,
      "inputs": [],
      "name": "contrib_amount",
      "outputs": [
        {
          "name": "",
          "type": "uint256"
        }
      ],
      "payable": false,
      "stateMutability": "view",
      "type": "function"
    },
    {
      "constant": true,
      "inputs": [
        {
          "name": "_address",
          "type": "address"
        }
      ],
      "name": "getTransactionCount",
      "outputs": [
        {
          "name": "",
          "type": "uint256"
        }
      ],
      "payable": false,
      "stateMutability": "view",
      "type": "function"
    },
    {
      "constant": true,
      "inputs": [
        {
          "name": "",
          "type": "address"
        }
      ],
      "name": "isAdmin",
      "outputs": [
        {
          "name": "",
          "type": "bool"
        }
      ],
      "payable": false,
      "stateMutability": "view",
      "type": "function"
    },
    {
      "constant": true,
      "inputs": [
        {
          "name": "",
          "type": "address"
        }
      ],
      "name": "isOwner",
      "outputs": [
        {
          "name": "",
          "type": "bool"
        }
      ],
      "payable": false,
      "stateMutability": "view",
      "type": "function"
    },
    {
      "constant": true,
      "inputs": [],
      "name": "getAdmins",
      "outputs": [
        {
          "name": "",
          "type": "address[]"
        }
      ],
      "payable": false,
      "stateMutability": "view",
      "type": "function"
    },
    {
      "constant": true,
      "inputs": [],
      "name": "beneficiary",
      "outputs": [
        {
          "name": "",
          "type": "address"
        }
      ],
      "payable": false,
      "stateMutability": "view",
      "type": "function"
    },
    {
      "constant": true,
      "inputs": [
        {
          "name": "",
          "type": "address"
        }
      ],
      "name": "isWhitelisted",
      "outputs": [
        {
          "name": "",
          "type": "bool"
        }
      ],
      "payable": false,
      "stateMutability": "view",
      "type": "function"
    },
    {
      "constant": false,
      "inputs": [
        {
          "name": "amount",
          "type": "uint256"
        },
        {
          "name": "beneficiary",
          "type": "address"
        }
      ],
      "name": "transferEth",
      "outputs": [],
      "payable": false,
      "stateMutability": "nonpayable",
      "type": "function"
    },
    {
      "constant": true,
      "inputs": [],
      "name": "poolVault",
      "outputs": [
        {
          "name": "",
          "type": "address"
        }
      ],
      "payable": false,
      "stateMutability": "view",
      "type": "function"
    },
    {
      "constant": true,
      "inputs": [
        {
          "name": "hash",
          "type": "bytes32"
        }
      ],
      "name": "getValueByHash",
      "outputs": [
        {
          "name": "",
          "type": "string"
        }
      ],
      "payable": false,
      "stateMutability": "view",
      "type": "function"
    },
    {
      "constant": false,
      "inputs": [
        {
          "name": "_health",
          "type": "uint8"
        }
      ],
      "name": "setHealth",
      "outputs": [],
      "payable": true,
      "stateMutability": "payable",
      "type": "function"
    },
    {
      "constant": true,
      "inputs": [
        {
          "name": "key",
          "type": "string"
        }
      ],
      "name": "getHash",
      "outputs": [
        {
          "name": "",
          "type": "bytes32"
        }
      ],
      "payable": false,
      "stateMutability": "pure",
      "type": "function"
    },
    {
      "constant": true,
      "inputs": [
        {
          "name": "",
          "type": "uint256"
        }
      ],
      "name": "members",
      "outputs": [
        {
          "name": "",
          "type": "address"
        }
      ],
      "payable": false,
      "stateMutability": "view",
      "type": "function"
    },
    {
      "constant": true,
      "inputs": [],
      "name": "getHealth",
      "outputs": [
        {
          "name": "",
          "type": "uint8"
        }
      ],
      "payable": false,
      "stateMutability": "view",
      "type": "function"
    },
    {
      "constant": false,
      "inputs": [
        {
          "name": "admin",
          "type": "address"
        }
      ],
      "name": "addAdmin",
      "outputs": [],
      "payable": false,
      "stateMutability": "nonpayable",
      "type": "function"
    },
    {
      "constant": false,
      "inputs": [
        {
          "name": "_owner",
          "type": "address"
        }
      ],
      "name": "addOwner",
      "outputs": [],
      "payable": false,
      "stateMutability": "nonpayable",
      "type": "function"
    },
    {
      "constant": true,
      "inputs": [],
      "name": "health",
      "outputs": [
        {
          "name": "",
          "type": "uint8"
        }
      ],
      "payable": false,
      "stateMutability": "view",
      "type": "function"
    },
    {
      "constant": true,
      "inputs": [
        {
          "name": "",
          "type": "address"
        }
      ],
      "name": "activated",
      "outputs": [
        {
          "name": "",
          "type": "uint256"
        }
      ],
      "payable": false,
      "stateMutability": "view",
      "type": "function"
    },
    {
      "constant": false,
      "inputs": [
        {
          "name": "_user",
          "type": "address"
        }
      ],
      "name": "removeWhitelist",
      "outputs": [],
      "payable": false,
      "stateMutability": "nonpayable",
      "type": "function"
    },
    {
      "constant": true,
      "inputs": [],
      "name": "has_whitelist",
      "outputs": [
        {
          "name": "",
          "type": "bool"
        }
      ],
      "payable": false,
      "stateMutability": "view",
      "type": "function"
    },
    {
      "constant": true,
      "inputs": [
        {
          "name": "",
          "type": "uint256"
        }
      ],
      "name": "whitelist",
      "outputs": [
        {
          "name": "",
          "type": "address"
        }
      ],
      "payable": false,
      "stateMutability": "view",
      "type": "function"
    },
    {
      "constant": true,
      "inputs": [],
      "name": "max_per_contrib",
      "outputs": [
        {
          "name": "",
          "type": "uint256"
        }
      ],
      "payable": false,
      "stateMutability": "view",
      "type": "function"
    },
    {
      "constant": false,
      "inputs": [
        {
          "name": "user",
          "type": "address"
        }
      ],
      "name": "activateKey",
      "outputs": [],
      "payable": true,
      "stateMutability": "payable",
      "type": "function"
    },
    {
      "constant": true,
      "inputs": [
        {
          "name": "",
          "type": "address"
        }
      ],
      "name": "isMember",
      "outputs": [
        {
          "name": "",
          "type": "uint256"
        }
      ],
      "payable": false,
      "stateMutability": "view",
      "type": "function"
    },
    {
      "constant": true,
      "inputs": [],
      "name": "autoDistribute",
      "outputs": [
        {
          "name": "",
          "type": "bool"
        }
      ],
      "payable": false,
      "stateMutability": "view",
      "type": "function"
    },
    {
      "constant": true,
      "inputs": [],
      "name": "max_contrib",
      "outputs": [
        {
          "name": "",
          "type": "uint256"
        }
      ],
      "payable": false,
      "stateMutability": "view",
      "type": "function"
    },
    {
      "constant": true,
      "inputs": [],
      "name": "state",
      "outputs": [
        {
          "name": "",
          "type": "uint8"
        }
      ],
      "payable": false,
      "stateMutability": "view",
      "type": "function"
    },
    {
      "constant": true,
      "inputs": [],
      "name": "getWhitelist",
      "outputs": [
        {
          "name": "",
          "type": "address[]"
        }
      ],
      "payable": false,
      "stateMutability": "view",
      "type": "function"
    },
    {
      "constant": false,
      "inputs": [
        {
          "name": "hash",
          "type": "bytes32"
        },
        {
          "name": "value",
          "type": "string"
        }
      ],
      "name": "addKeyValueByHash",
      "outputs": [
        {
          "name": "",
          "type": "bool"
        }
      ],
      "payable": false,
      "stateMutability": "nonpayable",
      "type": "function"
    },
    {
      "constant": true,
      "inputs": [],
      "name": "fee",
      "outputs": [
        {
          "name": "",
          "type": "uint256"
        }
      ],
      "payable": false,
      "stateMutability": "view",
      "type": "function"
    },
    {
      "constant": true,
      "inputs": [
        {
          "name": "",
          "type": "address"
        }
      ],
      "name": "received",
      "outputs": [
        {
          "name": "",
          "type": "uint256"
        }
      ],
      "payable": false,
      "stateMutability": "view",
      "type": "function"
    },
    {
      "constant": false,
      "inputs": [
        {
          "name": "banned",
          "type": "address"
        }
      ],
      "name": "addBanned",
      "outputs": [],
      "payable": false,
      "stateMutability": "nonpayable",
      "type": "function"
    },
    {
      "constant": false,
      "inputs": [
        {
          "name": "_whitelistAddress",
          "type": "address"
        }
      ],
      "name": "addWhitelist",
      "outputs": [],
      "payable": false,
      "stateMutability": "nonpayable",
      "type": "function"
    },
    {
      "constant": true,
      "inputs": [],
      "name": "vault",
      "outputs": [
        {
          "name": "",
          "type": "address"
        }
      ],
      "payable": false,
      "stateMutability": "view",
      "type": "function"
    },
    {
      "constant": true,
      "inputs": [
        {
          "name": "key",
          "type": "string"
        }
      ],
      "name": "getKeyAuth",
      "outputs": [
        {
          "name": "",
          "type": "string"
        }
      ],
      "payable": false,
      "stateMutability": "view",
      "type": "function"
    },
    {
      "inputs": [
        {
          "name": "_smartKey",
          "type": "address"
        },
        {
          "name": "_poolVault",
          "type": "address"
        },
        {
          "name": "_beneficiary",
          "type": "address"
        },
        {
          "name": "_max_contrib",
          "type": "uint256"
        },
        {
          "name": "_max_per_contrib",
          "type": "uint256"
        },
        {
          "name": "_min_per_contrib",
          "type": "uint256"
        },
        {
          "name": "_admins",
          "type": "address[]"
        },
        {
          "name": "_has_whitelist",
          "type": "bool"
        },
        {
          "name": "_fee",
          "type": "uint256"
        },
        {
          "name": "_autoDistribute",
          "type": "bool"
        }
      ],
      "payable": false,
      "stateMutability": "nonpayable",
      "type": "constructor"
    },
    {
      "payable": true,
      "stateMutability": "payable",
      "type": "fallback"
    },
    {
      "anonymous": false,
      "inputs": [
        {
          "indexed": false,
          "name": "status",
          "type": "uint8"
        }
      ],
      "name": "HealthUpdate",
      "type": "event"
    },
    {
      "constant": true,
      "inputs": [],
      "name": "getMembers",
      "outputs": [
        {
          "name": "",
          "type": "address[]"
        }
      ],
      "payable": false,
      "stateMutability": "view",
      "type": "function"
    },
    {
      "constant": false,
      "inputs": [
        {
          "name": "weiAmount",
          "type": "uint256"
        }
      ],
      "name": "distributeEth",
      "outputs": [
        {
          "name": "",
          "type": "bool"
        }
      ],
      "payable": false,
      "stateMutability": "nonpayable",
      "type": "function"
    }
  ],
  "bytecode": "0x606060405234156200001057600080fd5b60405162003ea238038062003ea2833981016040528080519060200190919080519060200190919080519060200190919080519060200190919080519060200190919080519060200190919080518201919060200180519060200190919080519060200190919080519060200190919050506000848560008260008f8e60016000803373ffffffffffffffffffffffffffffffffffffffff1673ffffffffffffffffffffffffffffffffffffffff16815260200190815260200160002060006101000a81548160ff02191690831515021790555060008173ffffffffffffffffffffffffffffffffffffffff16141515156200010b57600080fd5b80600260006101000a81548173ffffffffffffffffffffffffffffffffffffffff021916908373ffffffffffffffffffffffffffffffffffffffff16021790555081600160006101000a81548173ffffffffffffffffffffffffffffffffffffffff021916908373ffffffffffffffffffffffffffffffffffffffff1602179055506000600260146101000a81548160ff02191690836002811115620001ad57fe5b021790555060016000808373ffffffffffffffffffffffffffffffffffffffff1673ffffffffffffffffffffffffffffffffffffffff16815260200190815260200160002060006101000a81548160ff02191690831515021790555060016000808473ffffffffffffffffffffffffffffffffffffffff1673ffffffffffffffffffffffffffffffffffffffff16815260200190815260200160002060006101000a81548160ff0219169083151502179055505050600090505b8151811015620002ef5760016007600084848151811015156200028657fe5b9060200190602002015173ffffffffffffffffffffffffffffffffffffffff1673ffffffffffffffffffffffffffffffffffffffff16815260200190815260200160002060006101000a81548160ff021916908315150217905550808060010191505062000267565b8160089080519060200190620003079291906200053f565b505050600082511115620003dc57600090505b8151811015620003a25760016009600084848151811015156200033957fe5b9060200190602002015173ffffffffffffffffffffffffffffffffffffffff1673ffffffffffffffffffffffffffffffffffffffff16815260200190815260200160002060006101000a81548160ff02191690831515021790555080806001019150506200031a565b81600a9080519060200190620003ba9291906200053f565b506001600b60006101000a81548160ff021916908315150217905550620003f8565b6000600b60006101000a81548160ff0219169083151502179055505b50505089600f60006101000a81548173ffffffffffffffffffffffffffffffffffffffff021916908373ffffffffffffffffffffffffffffffffffffffff16021790555082601481905550876011819055508660128190555085601381905550600060038190555083600b60016101000a81548160ff02191690831515021790555081600b60026101000a81548160ff021916908315150217905550600090505b84518110156200052e57600c8054806001018281620004b99190620005ce565b916000526020600020900160008784815181101515620004d557fe5b90602001906020020151909190916101000a81548173ffffffffffffffffffffffffffffffffffffffff021916908373ffffffffffffffffffffffffffffffffffffffff16021790555050808060010191505062000499565b50505050505050505050506200066b565b828054828255906000526020600020908101928215620005bb579160200282015b82811115620005ba5782518260006101000a81548173ffffffffffffffffffffffffffffffffffffffff021916908373ffffffffffffffffffffffffffffffffffffffff1602179055509160200191906001019062000560565b5b509050620005ca9190620005fd565b5090565b815481835581811511620005f857818360005260206000209182019101620005f7919062000643565b5b505050565b6200064091905b808211156200063c57600081816101000a81549073ffffffffffffffffffffffffffffffffffffffff02191690555060010162000604565b5090565b90565b6200066891905b80821115620006645760008160009055506001016200064a565b5090565b90565b613827806200067b6000396000f30060606040526004361061021a576000357c0100000000000000000000000000000000000000000000000000000000900463ffffffff16806303db428d1461035e5780630c8a6f1a14610416578063113adf491461043f578063145381281461049457806314bfd6d01461052b578063173825d91461058e5780631801e156146105c7578063202e079d146105f857806323ca0cd21461062157806324d7806c1461066e5780632f54bf6e146106bf57806331ae450b1461071057806338af3eed1461077a5780633af32abf146107cf57806349f9c0e4146108205780634b47002c146108625780635436e5a0146108b75780635b2ce586146109575780635b6beeb9146109725780635daf08ca146109eb578063640e7fd514610a4e5780637048027514610a855780637065cb4814610abe5780637497020014610af75780637633a22c14610b32578063779d867714610b6957806378c8cda714610bb65780637e43eef414610bef5780637ebd1b3014610c1c57806390fa5ec814610c7f5780639172fe0814610ca85780639eab525314610cd6578063a230c52414610d40578063a8f11eb914610d8d578063b764e53e14610dba578063c19d93fb14610de3578063d01f63f514610e1a578063d4c2f75c14610e84578063ddca3f4314610f06578063df0cb93414610f2f578063e1b2e8b314610f7c578063f80f5dd514610fb5578063fbfa77cf14610fee578063fd08e0c714611043575b600560003373ffffffffffffffffffffffffffffffffffffffff1673ffffffffffffffffffffffffffffffffffffffff168152602001908152602001600020805480600101828161026b9190613672565b916000526020600020906004020160006080604051908101604052803373ffffffffffffffffffffffffffffffffffffffff1681526020014281526020013481526020016000815250909190915060008201518160000160006101000a81548173ffffffffffffffffffffffffffffffffffffffff021916908373ffffffffffffffffffffffffffffffffffffffff160217905550602082015181600101556040820151816002015560608201518160030155505050600b60029054906101000a900460ff161561035c5761034b3460035461111990919063ffffffff16565b60038190555061035a34611137565b505b005b341561036957600080fd5b6103fc600480803590602001908201803590602001908080601f0160208091040260200160405190810160405280939291908181526020018383808284378201915050505050509190803590602001908201803590602001908080601f01602080910402602001604051908101604052809392919081815260200183838082843782019150505050505091905050611b72565b604051808215151515815260200191505060405180910390f35b341561042157600080fd5b610429611c3f565b6040518082815260200191505060405180910390f35b341561044a57600080fd5b610452611c45565b604051808273ffffffffffffffffffffffffffffffffffffffff1673ffffffffffffffffffffffffffffffffffffffff16815260200191505060405180910390f35b341561049f57600080fd5b6104d4600480803573ffffffffffffffffffffffffffffffffffffffff16906020019091908035906020019091905050611c6b565b604051808573ffffffffffffffffffffffffffffffffffffffff1673ffffffffffffffffffffffffffffffffffffffff16815260200184815260200183815260200182815260200194505050505060405180910390f35b341561053657600080fd5b61054c6004808035906020019091905050611cd7565b604051808273ffffffffffffffffffffffffffffffffffffffff1673ffffffffffffffffffffffffffffffffffffffff16815260200191505060405180910390f35b341561059957600080fd5b6105c5600480803573ffffffffffffffffffffffffffffffffffffffff16906020019091905050611d16565b005b34156105d257600080fd5b6105da611e1e565b60405180826000191660001916815260200191505060405180910390f35b341561060357600080fd5b61060b61209f565b6040518082815260200191505060405180910390f35b341561062c57600080fd5b610658600480803573ffffffffffffffffffffffffffffffffffffffff169060200190919050506120a5565b6040518082815260200191505060405180910390f35b341561067957600080fd5b6106a5600480803573ffffffffffffffffffffffffffffffffffffffff169060200190919050506120f1565b604051808215151515815260200191505060405180910390f35b34156106ca57600080fd5b6106f6600480803573ffffffffffffffffffffffffffffffffffffffff16906020019091905050612111565b604051808215151515815260200191505060405180910390f35b341561071b57600080fd5b610723612131565b6040518080602001828103825283818151815260200191508051906020019060200280838360005b8381101561076657808201518184015260208101905061074b565b505050509050019250505060405180910390f35b341561078557600080fd5b61078d6121c5565b604051808273ffffffffffffffffffffffffffffffffffffffff1673ffffffffffffffffffffffffffffffffffffffff16815260200191505060405180910390f35b34156107da57600080fd5b610806600480803573ffffffffffffffffffffffffffffffffffffffff169060200190919050506121eb565b604051808215151515815260200191505060405180910390f35b341561082b57600080fd5b610860600480803590602001909190803573ffffffffffffffffffffffffffffffffffffffff1690602001909190505061220b565b005b341561086d57600080fd5b6108756123e1565b604051808273ffffffffffffffffffffffffffffffffffffffff1673ffffffffffffffffffffffffffffffffffffffff16815260200191505060405180910390f35b34156108c257600080fd5b6108dc600480803560001916906020019091905050612407565b6040518080602001828103825283818151815260200191508051906020019080838360005b8381101561091c578082015181840152602081019050610901565b50505050905090810190601f1680156109495780820380516001836020036101000a031916815260200191505b509250505060405180910390f35b610970600480803560ff16906020019091905050612521565b005b341561097d57600080fd5b6109cd600480803590602001908201803590602001908080601f0160208091040260200160405190810160405280939291908181526020018383808284378201915050505050509190505061299b565b60405180826000191660001916815260200191505060405180910390f35b34156109f657600080fd5b610a0c6004808035906020019091905050612a07565b604051808273ffffffffffffffffffffffffffffffffffffffff1673ffffffffffffffffffffffffffffffffffffffff16815260200191505060405180910390f35b3415610a5957600080fd5b610a61612a46565b60405180826006811115610a7157fe5b60ff16815260200191505060405180910390f35b3415610a9057600080fd5b610abc600480803573ffffffffffffffffffffffffffffffffffffffff16906020019091905050612a5d565b005b3415610ac957600080fd5b610af5600480803573ffffffffffffffffffffffffffffffffffffffff16906020019091905050612bcb565b005b3415610b0257600080fd5b610b186004808035906020019091905050611137565b604051808215151515815260200191505060405180910390f35b3415610b3d57600080fd5b610b45612cd3565b60405180826006811115610b5557fe5b60ff16815260200191505060405180910390f35b3415610b7457600080fd5b610ba0600480803573ffffffffffffffffffffffffffffffffffffffff16906020019091905050612ce6565b6040518082815260200191505060405180910390f35b3415610bc157600080fd5b610bed600480803573ffffffffffffffffffffffffffffffffffffffff16906020019091905050612cfe565b005b3415610bfa57600080fd5b610c02612e7f565b604051808215151515815260200191505060405180910390f35b3415610c2757600080fd5b610c3d6004808035906020019091905050612e92565b604051808273ffffffffffffffffffffffffffffffffffffffff1673ffffffffffffffffffffffffffffffffffffffff16815260200191505060405180910390f35b3415610c8a57600080fd5b610c92612ed1565b6040518082815260200191505060405180910390f35b610cd4600480803573ffffffffffffffffffffffffffffffffffffffff16906020019091905050612ed7565b005b3415610ce157600080fd5b610ce9613020565b6040518080602001828103825283818151815260200191508051906020019060200280838360005b83811015610d2c578082015181840152602081019050610d11565b505050509050019250505060405180910390f35b3415610d4b57600080fd5b610d77600480803573ffffffffffffffffffffffffffffffffffffffff169060200190919050506130b4565b6040518082815260200191505060405180910390f35b3415610d9857600080fd5b610da06130cc565b604051808215151515815260200191505060405180910390f35b3415610dc557600080fd5b610dcd6130df565b6040518082815260200191505060405180910390f35b3415610dee57600080fd5b610df66130e5565b60405180826002811115610e0657fe5b60ff16815260200191505060405180910390f35b3415610e2557600080fd5b610e2d6130f8565b6040518080602001828103825283818151815260200191508051906020019060200280838360005b83811015610e70578082015181840152602081019050610e55565b505050509050019250505060405180910390f35b3415610e8f57600080fd5b610eec60048080356000191690602001909190803590602001908201803590602001908080601f0160208091040260200160405190810160405280939291908181526020018383808284378201915050505050509190505061318c565b604051808215151515815260200191505060405180910390f35b3415610f1157600080fd5b610f1961321f565b6040518082815260200191505060405180910390f35b3415610f3a57600080fd5b610f66600480803573ffffffffffffffffffffffffffffffffffffffff16906020019091905050613225565b6040518082815260200191505060405180910390f35b3415610f8757600080fd5b610fb3600480803573ffffffffffffffffffffffffffffffffffffffff1690602001909190505061323d565b005b3415610fc057600080fd5b610fec600480803573ffffffffffffffffffffffffffffffffffffffff16906020019091905050613416565b005b3415610ff957600080fd5b611001613547565b604051808273ffffffffffffffffffffffffffffffffffffffff1673ffffffffffffffffffffffffffffffffffffffff16815260200191505060405180910390f35b341561104e57600080fd5b61109e600480803590602001908201803590602001908080601f0160208091040260200160405190810160405280939291908181526020018383808284378201915050505050509190505061356d565b6040518080602001828103825283818151815260200191508051906020019080838360005b838110156110de5780820151818401526020810190506110c3565b50505050905090810190601f16801561110b5780820380516001836020036101000a031916815260200191505b509250505060405180910390f35b600080828401905083811015151561112d57fe5b8091505092915050565b600080600080600060135486101580156111925750601254600d60003373ffffffffffffffffffffffffffffffffffffffff1673ffffffffffffffffffffffffffffffffffffffff1681526020019081526020016000205411155b15611b6457600b60019054906101000a900460ff1615806111fc5750600960003373ffffffffffffffffffffffffffffffffffffffff1673ffffffffffffffffffffffffffffffffffffffff16815260200190815260200160002060009054906101000a900460ff165b15611b635761121560c88761363e90919063ffffffff16565b935061122c6014548761363e90919063ffffffff16565b925061125383611245868961365990919063ffffffff16565b61365990919063ffffffff16565b915061126d600c805490508361363e90919063ffffffff16565b9150600f60009054906101000a900473ffffffffffffffffffffffffffffffffffffffff1673ffffffffffffffffffffffffffffffffffffffff166108fc859081150290604051600060405180830381858888f1935050505015156112d157600080fd5b600260009054906101000a900473ffffffffffffffffffffffffffffffffffffffff1673ffffffffffffffffffffffffffffffffffffffff166108fc849081150290604051600060405180830381858888f19350505050151561133357600080fd5b6113a784600e6000600f60009054906101000a900473ffffffffffffffffffffffffffffffffffffffff1673ffffffffffffffffffffffffffffffffffffffff1673ffffffffffffffffffffffffffffffffffffffff1681526020019081526020016000205461111990919063ffffffff16565b600e6000600f60009054906101000a900473ffffffffffffffffffffffffffffffffffffffff1673ffffffffffffffffffffffffffffffffffffffff1673ffffffffffffffffffffffffffffffffffffffff1681526020019081526020016000208190555061148083600e6000600260009054906101000a900473ffffffffffffffffffffffffffffffffffffffff1673ffffffffffffffffffffffffffffffffffffffff1673ffffffffffffffffffffffffffffffffffffffff1681526020019081526020016000205461111990919063ffffffff16565b600e6000600260009054906101000a900473ffffffffffffffffffffffffffffffffffffffff1673ffffffffffffffffffffffffffffffffffffffff1673ffffffffffffffffffffffffffffffffffffffff1681526020019081526020016000208190555060056000600f60009054906101000a900473ffffffffffffffffffffffffffffffffffffffff1673ffffffffffffffffffffffffffffffffffffffff1673ffffffffffffffffffffffffffffffffffffffff16815260200190815260200160002080548060010182816115589190613672565b916000526020600020906004020160006080604051908101604052803373ffffffffffffffffffffffffffffffffffffffff1681526020014281526020018881526020016000815250909190915060008201518160000160006101000a81548173ffffffffffffffffffffffffffffffffffffffff021916908373ffffffffffffffffffffffffffffffffffffffff16021790555060208201518160010155604082015181600201556060820151816003015550505060056000600260009054906101000a900473ffffffffffffffffffffffffffffffffffffffff1673ffffffffffffffffffffffffffffffffffffffff1673ffffffffffffffffffffffffffffffffffffffff16815260200190815260200160002080548060010182816116819190613672565b916000526020600020906004020160006080604051908101604052803373ffffffffffffffffffffffffffffffffffffffff1681526020014281526020018781526020016000815250909190915060008201518160000160006101000a81548173ffffffffffffffffffffffffffffffffffffffff021916908373ffffffffffffffffffffffffffffffffffffffff16021790555060208201518160010155604082015181600201556060820151816003015550505061178986600d60003373ffffffffffffffffffffffffffffffffffffffff1673ffffffffffffffffffffffffffffffffffffffff1681526020019081526020016000205461111990919063ffffffff16565b600d60003373ffffffffffffffffffffffffffffffffffffffff1673ffffffffffffffffffffffffffffffffffffffff16815260200190815260200160002081905550600090505b600c80549050811015611aaf57600c818154811015156117ed57fe5b906000526020600020900160009054906101000a900473ffffffffffffffffffffffffffffffffffffffff1673ffffffffffffffffffffffffffffffffffffffff166108fc839081150290604051600060405180830381858888f19350505050151561185857600080fd5b6118e482600e6000600c8581548110151561186f57fe5b906000526020600020900160009054906101000a900473ffffffffffffffffffffffffffffffffffffffff1673ffffffffffffffffffffffffffffffffffffffff1673ffffffffffffffffffffffffffffffffffffffff1681526020019081526020016000205461111990919063ffffffff16565b600e6000600c848154811015156118f757fe5b906000526020600020900160009054906101000a900473ffffffffffffffffffffffffffffffffffffffff1673ffffffffffffffffffffffffffffffffffffffff1673ffffffffffffffffffffffffffffffffffffffff1681526020019081526020016000208190555060056000600c8381548110151561197457fe5b906000526020600020900160009054906101000a900473ffffffffffffffffffffffffffffffffffffffff1673ffffffffffffffffffffffffffffffffffffffff1673ffffffffffffffffffffffffffffffffffffffff16815260200190815260200160002080548060010182816119ec9190613672565b916000526020600020906004020160006080604051908101604052803373ffffffffffffffffffffffffffffffffffffffff1681526020014281526020018681526020016000815250909190915060008201518160000160006101000a81548173ffffffffffffffffffffffffffffffffffffffff021916908373ffffffffffffffffffffffffffffffffffffffff16021790555060208201518160010155604082015181600201556060820151816003015550505080806001019150506117d1565b85600d60003373ffffffffffffffffffffffffffffffffffffffff1673ffffffffffffffffffffffffffffffffffffffff168152602001908152602001600020541415611b5a57600c8054806001018281611b0a91906136a4565b9160005260206000209001600033909190916101000a81548173ffffffffffffffffffffffffffffffffffffffff021916908373ffffffffffffffffffffffffffffffffffffffff160217905550505b60019450611b69565b5b600094505b50505050919050565b60008060003373ffffffffffffffffffffffffffffffffffffffff1673ffffffffffffffffffffffffffffffffffffffff16815260200190815260200160002060009054906101000a900460ff161515611bcb57600080fd5b611c37836040518082805190602001908083835b602083101515611c045780518252602082019150602081019050602083039250611bdf565b6001836020036101000a03801982511681845116808217855250505050505090500191505060405180910390208361318c565b905092915050565b60135481565b600160009054906101000a900473ffffffffffffffffffffffffffffffffffffffff1681565b600560205281600052604060002081815481101515611c8657fe5b9060005260206000209060040201600091509150508060000160009054906101000a900473ffffffffffffffffffffffffffffffffffffffff16908060010154908060020154908060030154905084565b600881815481101515611ce657fe5b90600052602060002090016000915054906101000a900473ffffffffffffffffffffffffffffffffffffffff1681565b6000803373ffffffffffffffffffffffffffffffffffffffff1673ffffffffffffffffffffffffffffffffffffffff16815260200190815260200160002060009054906101000a900460ff161515611d6d57600080fd5b6000803373ffffffffffffffffffffffffffffffffffffffff1673ffffffffffffffffffffffffffffffffffffffff16815260200190815260200160002060009054906101000a900460ff161515611dc457600080fd5b60008060008373ffffffffffffffffffffffffffffffffffffffff1673ffffffffffffffffffffffffffffffffffffffff16815260200190815260200160002060006101000a81548160ff02191690831515021790555050565b6000806006811115611e2c57fe5b600260159054906101000a900460ff166006811115611e4757fe5b1415611e75577f50726f766973696f6e696e670000000000000000000000000000000000000000905061209c565b60016006811115611e8257fe5b600260159054906101000a900460ff166006811115611e9d57fe5b1415611ecb577f4365727469666965640000000000000000000000000000000000000000000000905061209c565b60026006811115611ed857fe5b600260159054906101000a900460ff166006811115611ef357fe5b1415611f21577f4d6f646966696564000000000000000000000000000000000000000000000000905061209c565b60036006811115611f2e57fe5b600260159054906101000a900460ff166006811115611f4957fe5b1415611f77577f436f6d70726f6d69736564000000000000000000000000000000000000000000905061209c565b60046006811115611f8457fe5b600260159054906101000a900460ff166006811115611f9f57fe5b1415611fcd577f4d616c66756e6374696f6e696e67000000000000000000000000000000000000905061209c565b60056006811115611fda57fe5b600260159054906101000a900460ff166006811115611ff557fe5b1415612023577f4861726d66756c00000000000000000000000000000000000000000000000000905061209c565b60068081111561202f57fe5b600260159054906101000a900460ff16600681111561204a57fe5b1415612078577f436f756e74657266656974000000000000000000000000000000000000000000905061209c565b7f436f756e7465726665697400000000000000000000000000000000000000000090505b90565b60035481565b6000600560008373ffffffffffffffffffffffffffffffffffffffff1673ffffffffffffffffffffffffffffffffffffffff168152602001908152602001600020805490509050919050565b60076020528060005260406000206000915054906101000a900460ff1681565b60006020528060005260406000206000915054906101000a900460ff1681565b6121396136d0565b60088054806020026020016040519081016040528092919081815260200182805480156121bb57602002820191906000526020600020905b8160009054906101000a900473ffffffffffffffffffffffffffffffffffffffff1673ffffffffffffffffffffffffffffffffffffffff1681526020019060010190808311612171575b5050505050905090565b601060009054906101000a900473ffffffffffffffffffffffffffffffffffffffff1681565b60096020528060005260406000206000915054906101000a900460ff1681565b6000803373ffffffffffffffffffffffffffffffffffffffff1673ffffffffffffffffffffffffffffffffffffffff16815260200190815260200160002060009054906101000a900460ff16151561226257600080fd5b6001600281111561226f57fe5b600260149054906101000a900460ff16600281111561228a57fe5b14151561229657600080fd5b8073ffffffffffffffffffffffffffffffffffffffff166108fc839081150290604051600060405180830381858888f1935050505015156122d657600080fd5b600560003073ffffffffffffffffffffffffffffffffffffffff1673ffffffffffffffffffffffffffffffffffffffff16815260200190815260200160002080548060010182816123279190613672565b916000526020600020906004020160006080604051908101604052808573ffffffffffffffffffffffffffffffffffffffff1681526020014281526020018681526020016001815250909190915060008201518160000160006101000a81548173ffffffffffffffffffffffffffffffffffffffff021916908373ffffffffffffffffffffffffffffffffffffffff1602179055506020820151816001015560408201518160020155606082015181600301555050505050565b600f60009054906101000a900473ffffffffffffffffffffffffffffffffffffffff1681565b61240f6136e4565b6000803373ffffffffffffffffffffffffffffffffffffffff1673ffffffffffffffffffffffffffffffffffffffff16815260200190815260200160002060009054906101000a900460ff16151561246657600080fd5b6006600083600019166000191681526020019081526020016000208054600181600116156101000203166002900480601f0160208091040260200160405190810160405280929190818152602001828054600181600116156101000203166002900480156125155780601f106124ea57610100808354040283529160200191612515565b820191906000526020600020905b8154815290600101906020018083116124f857829003601f168201915b50505050509050919050565b80600260156101000a81548160ff0219169083600681111561253f57fe5b0217905550600181600681111561255257fe5b11156126c657600160009054906101000a900473ffffffffffffffffffffffffffffffffffffffff1673ffffffffffffffffffffffffffffffffffffffff16630d6d3b6e3430337f4865616c74685761726e696e67000000000000000000000000000000000000006000604051602001526040518563ffffffff167c0100000000000000000000000000000000000000000000000000000000028152600401808473ffffffffffffffffffffffffffffffffffffffff1673ffffffffffffffffffffffffffffffffffffffff1681526020018373ffffffffffffffffffffffffffffffffffffffff1673ffffffffffffffffffffffffffffffffffffffff168152602001826000191660001916815260200193505050506020604051808303818588803b151561268157600080fd5b6125ee5a03f1151561269257600080fd5b50505050604051805190505060028060146101000a81548160ff021916908360028111156126bc57fe5b0217905550612831565b600160009054906101000a900473ffffffffffffffffffffffffffffffffffffffff1673ffffffffffffffffffffffffffffffffffffffff16630d6d3b6e3430337f4865616c746855706461746500000000000000000000000000000000000000006000604051602001526040518563ffffffff167c0100000000000000000000000000000000000000000000000000000000028152600401808473ffffffffffffffffffffffffffffffffffffffff1673ffffffffffffffffffffffffffffffffffffffff1681526020018373ffffffffffffffffffffffffffffffffffffffff1673ffffffffffffffffffffffffffffffffffffffff168152602001826000191660001916815260200193505050506020604051808303818588803b15156127ef57600080fd5b6125ee5a03f1151561280057600080fd5b5050505060405180519050506001600260146101000a81548160ff0219169083600281111561282b57fe5b02179055505b7fb6d7372bb54b80a5b1d60d3b1da737719783cc92a2095f10d9195105f7abeca5816040518082600681111561286357fe5b60ff16815260200191505060405180910390a161288b3460035461111990919063ffffffff16565b600381905550600560003073ffffffffffffffffffffffffffffffffffffffff1673ffffffffffffffffffffffffffffffffffffffff16815260200190815260200160002080548060010182816128e29190613672565b916000526020600020906004020160006080604051908101604052803373ffffffffffffffffffffffffffffffffffffffff1681526020014281526020013481526020016000815250909190915060008201518160000160006101000a81548173ffffffffffffffffffffffffffffffffffffffff021916908373ffffffffffffffffffffffffffffffffffffffff16021790555060208201518160010155604082015181600201556060820151816003015550505050565b6000816040518082805190602001908083835b6020831015156129d357805182526020820191506020810190506020830392506129ae565b6001836020036101000a03801982511681845116808217855250505050505090500191505060405180910390209050919050565b600c81815481101515612a1657fe5b90600052602060002090016000915054906101000a900473ffffffffffffffffffffffffffffffffffffffff1681565b6000600260159054906101000a900460ff16905090565b600760003373ffffffffffffffffffffffffffffffffffffffff1673ffffffffffffffffffffffffffffffffffffffff16815260200190815260200160002060009054906101000a900460ff161515612ab557600080fd5b600760003373ffffffffffffffffffffffffffffffffffffffff1673ffffffffffffffffffffffffffffffffffffffff16815260200190815260200160002060009054906101000a900460ff161515612b0d57600080fd5b6001600760008373ffffffffffffffffffffffffffffffffffffffff1673ffffffffffffffffffffffffffffffffffffffff16815260200190815260200160002060006101000a81548160ff02191690831515021790555060088054806001018281612b7991906136a4565b9160005260206000209001600083909190916101000a81548173ffffffffffffffffffffffffffffffffffffffff021916908373ffffffffffffffffffffffffffffffffffffffff1602179055505050565b6000803373ffffffffffffffffffffffffffffffffffffffff1673ffffffffffffffffffffffffffffffffffffffff16815260200190815260200160002060009054906101000a900460ff161515612c2257600080fd5b6000803373ffffffffffffffffffffffffffffffffffffffff1673ffffffffffffffffffffffffffffffffffffffff16815260200190815260200160002060009054906101000a900460ff161515612c7957600080fd5b60016000808373ffffffffffffffffffffffffffffffffffffffff1673ffffffffffffffffffffffffffffffffffffffff16815260200190815260200160002060006101000a81548160ff02191690831515021790555050565b600260159054906101000a900460ff1681565b60046020528060005260406000206000915090505481565b6000600760003373ffffffffffffffffffffffffffffffffffffffff1673ffffffffffffffffffffffffffffffffffffffff16815260200190815260200160002060009054906101000a900460ff161515612d5857600080fd5b6000600960008473ffffffffffffffffffffffffffffffffffffffff1673ffffffffffffffffffffffffffffffffffffffff16815260200190815260200160002060006101000a81548160ff021916908315150217905550600090505b600a80549050811015612e7b57600a81815481101515612dd157fe5b906000526020600020900160009054906101000a900473ffffffffffffffffffffffffffffffffffffffff1673ffffffffffffffffffffffffffffffffffffffff168273ffffffffffffffffffffffffffffffffffffffff161415612e6e57600a81815481101515612e3f57fe5b906000526020600020900160006101000a81549073ffffffffffffffffffffffffffffffffffffffff02191690555b8080600101915050612db5565b5050565b600b60019054906101000a900460ff1681565b600a81815481101515612ea157fe5b90600052602060002090016000915054906101000a900473ffffffffffffffffffffffffffffffffffffffff1681565b60125481565b6001600260146101000a81548160ff02191690836002811115612ef657fe5b0217905550612f103460035461111990919063ffffffff16565b600381905550600560008273ffffffffffffffffffffffffffffffffffffffff1673ffffffffffffffffffffffffffffffffffffffff1681526020019081526020016000208054806001018281612f679190613672565b916000526020600020906004020160006080604051908101604052803373ffffffffffffffffffffffffffffffffffffffff1681526020014281526020013481526020016000815250909190915060008201518160000160006101000a81548173ffffffffffffffffffffffffffffffffffffffff021916908373ffffffffffffffffffffffffffffffffffffffff16021790555060208201518160010155604082015181600201556060820151816003015550505050565b6130286136d0565b600c8054806020026020016040519081016040528092919081815260200182805480156130aa57602002820191906000526020600020905b8160009054906101000a900473ffffffffffffffffffffffffffffffffffffffff1673ffffffffffffffffffffffffffffffffffffffff1681526020019060010190808311613060575b5050505050905090565b600d6020528060005260406000206000915090505481565b600b60029054906101000a900460ff1681565b60115481565b600260149054906101000a900460ff1681565b6131006136d0565b600a80548060200260200160405190810160405280929190818152602001828054801561318257602002820191906000526020600020905b8160009054906101000a900473ffffffffffffffffffffffffffffffffffffffff1673ffffffffffffffffffffffffffffffffffffffff1681526020019060010190808311613138575b5050505050905090565b60008060003373ffffffffffffffffffffffffffffffffffffffff1673ffffffffffffffffffffffffffffffffffffffff16815260200190815260200160002060009054906101000a900460ff1615156131e557600080fd5b8160066000856000191660001916815260200190815260200160002090805190602001906132149291906136f8565b506001905092915050565b60145481565b600e6020528060005260406000206000915090505481565b6000600760003373ffffffffffffffffffffffffffffffffffffffff1673ffffffffffffffffffffffffffffffffffffffff16815260200190815260200160002060009054906101000a900460ff16151561329757600080fd5b600760003373ffffffffffffffffffffffffffffffffffffffff1673ffffffffffffffffffffffffffffffffffffffff16815260200190815260200160002060009054906101000a900460ff1615156132ef57600080fd5b6000600760008473ffffffffffffffffffffffffffffffffffffffff1673ffffffffffffffffffffffffffffffffffffffff16815260200190815260200160002060006101000a81548160ff021916908315150217905550600090505b6008805490508110156134125760088181548110151561336857fe5b906000526020600020900160009054906101000a900473ffffffffffffffffffffffffffffffffffffffff1673ffffffffffffffffffffffffffffffffffffffff168273ffffffffffffffffffffffffffffffffffffffff161415613405576008818154811015156133d657fe5b906000526020600020900160006101000a81549073ffffffffffffffffffffffffffffffffffffffff02191690555b808060010191505061334c565b5050565b600760003373ffffffffffffffffffffffffffffffffffffffff1673ffffffffffffffffffffffffffffffffffffffff16815260200190815260200160002060009054906101000a900460ff16151561346e57600080fd5b6001600960008373ffffffffffffffffffffffffffffffffffffffff1673ffffffffffffffffffffffffffffffffffffffff16815260200190815260200160002060006101000a81548160ff021916908315150217905550600a80548060010182816134da91906136a4565b9160005260206000209001600083909190916101000a81548173ffffffffffffffffffffffffffffffffffffffff021916908373ffffffffffffffffffffffffffffffffffffffff160217905550506001600b60006101000a81548160ff02191690831515021790555050565b600260009054906101000a900473ffffffffffffffffffffffffffffffffffffffff1681565b6135756136e4565b6000803373ffffffffffffffffffffffffffffffffffffffff1673ffffffffffffffffffffffffffffffffffffffff16815260200190815260200160002060009054906101000a900460ff1615156135cc57600080fd5b613637826040518082805190602001908083835b60208310151561360557805182526020820191506020810190506020830392506135e0565b6001836020036101000a0380198251168184511680821785525050505050509050019150506040518091039020612407565b9050919050565b600080828481151561364c57fe5b0490508091505092915050565b600082821115151561366757fe5b818303905092915050565b81548183558181151161369f5760040281600402836000526020600020918201910161369e9190613778565b5b505050565b8154818355818115116136cb578183600052602060002091820191016136ca91906137d6565b5b505050565b602060405190810160405280600081525090565b602060405190810160405280600081525090565b828054600181600116156101000203166002900490600052602060002090601f016020900481019282601f1061373957805160ff1916838001178555613767565b82800160010185558215613767579182015b8281111561376657825182559160200191906001019061374b565b5b50905061377491906137d6565b5090565b6137d391905b808211156137cf57600080820160006101000a81549073ffffffffffffffffffffffffffffffffffffffff02191690556001820160009055600282016000905560038201600090555060040161377e565b5090565b90565b6137f891905b808211156137f45760008160009055506001016137dc565b5090565b905600a165627a7a72305820e0225ba3af3b4133e4370a9d37301007811e583a248092676bf4d5a824b15a150029",
  "source": "pragma solidity ^0.4.18;\n\nimport './Key.sol';\nimport '../admin/Whitelisted.sol';\n\ncontract PoolKey is Key, Whitelisted \n{\n    \n    using SafeMath for uint256;\n    bool public has_whitelist;\n    bool public autoDistribute;\n    address[] public members;\n    mapping (address => uint256) public isMember;\n    mapping (address => uint256) public received;\n    address public poolVault;\n    address public beneficiary;\n    \n    uint256 public max_contrib;\n    uint256 public max_per_contrib;\n    uint256 public min_per_contrib;\n    uint256 public fee;\n        \n    function PoolKey(SmartKey _smartKey, address _poolVault, address _beneficiary, uint256 _max_contrib, uint256 _max_per_contrib, uint256 _min_per_contrib, address[] _admins, bool _has_whitelist, uint256 _fee, bool _autoDistribute) \n    Whitelisted(_admins, _admins) \n    Key(_smartKey, _beneficiary) \n    public\n    {\n    \n      poolVault=_poolVault;  \n      fee=_fee;\n      max_contrib=_max_contrib;\n      max_per_contrib=_max_per_contrib;\n      min_per_contrib=_min_per_contrib;\n      contrib_amount=0;\n      has_whitelist=_has_whitelist;\n      autoDistribute=_autoDistribute;\n      for (uint k=0; k < _admins.length; k++) {\n          members.push(_admins[k]);\n      }\n          \n    }\n    \n    function getMembers() \n    public\n    constant \n    returns (address[]) \n    {\n            return members;\n    }\n    \n    function () \n    public\n    payable \n    {\n        transactions[msg.sender].push(transaction(msg.sender,now,msg.value, 0));\n        \n        if (autoDistribute) {\n            contrib_amount=contrib_amount.add(msg.value);\n            \n            distributeEth(msg.value);\n        } \n        /*else {\n            activateKey(msg.sender); \n        }\n        */\n    }\n    \n    function distributeEth(uint256 weiAmount) \n    public\n    returns (bool)\n    {        \n        if (weiAmount >= min_per_contrib && isMember[msg.sender] <= max_per_contrib) {\n            if (!has_whitelist || isWhitelisted[msg.sender]) {\n                uint256 fee1=weiAmount.div(200); \n                uint256 fee2=weiAmount.div(fee); \n                uint256 distAmount = weiAmount.sub(fee1).sub(fee2);\n                distAmount = distAmount.div(members.length);\n                \n                poolVault.transfer(fee1);\n                vault.transfer(fee2);\n                received[poolVault] = received[poolVault].add(fee1);\n                received[vault] = received[vault].add(fee2);\n                transactions[poolVault].push(transaction(msg.sender,now,fee1, 0));\n                transactions[vault].push(transaction(msg.sender,now,fee2, 0));\n                \n                isMember[msg.sender] = isMember[msg.sender].add(weiAmount);\n                \n                for (uint i=0; i < members.length; i++) \n                {\n                    members[i].transfer(distAmount);\n                    received[members[i]] = received[members[i]].add(distAmount);\n                    transactions[members[i]].push(transaction(msg.sender,now,distAmount, 0));\n                }\n                \n                \n                if (isMember[msg.sender] == weiAmount) {\n                    members.push(msg.sender);\n                }\n                \n                return true;\n            }\n        }      \n        return false;  \n    }\n    \n}",
  "sourcePath": "/windata/iotblock/contracts/pki/PoolKey.sol",
  "compiler": {
    "name": "solc",
    "version": "0.4.19+commit.c4cbbb05.Emscripten.clang"
  },
  "schemaVersion": "2.0.0",
  "updatedAt": "2018-11-20T09:59:12.859Z"
}