{
  "contractName": "PublicOffering",
  "abi": [
    {
      "constant": true,
      "inputs": [
        {
          "name": "",
          "type": "uint256"
        }
      ],
      "name": "admins",
      "outputs": [
        {
          "name": "",
          "type": "address"
        }
      ],
      "payable": false,
      "stateMutability": "view",
      "type": "function"
    },
    {
      "constant": true,
      "inputs": [
        {
          "name": "",
          "type": "address"
        }
      ],
      "name": "isAdmin",
      "outputs": [
        {
          "name": "",
          "type": "bool"
        }
      ],
      "payable": false,
      "stateMutability": "view",
      "type": "function"
    },
    {
      "constant": true,
      "inputs": [],
      "name": "rate",
      "outputs": [
        {
          "name": "",
          "type": "uint256"
        }
      ],
      "payable": false,
      "stateMutability": "view",
      "type": "function"
    },
    {
      "constant": true,
      "inputs": [],
      "name": "endTime",
      "outputs": [
        {
          "name": "",
          "type": "uint256"
        }
      ],
      "payable": false,
      "stateMutability": "view",
      "type": "function"
    },
    {
      "constant": true,
      "inputs": [],
      "name": "getAdmins",
      "outputs": [
        {
          "name": "",
          "type": "address[]"
        }
      ],
      "payable": false,
      "stateMutability": "view",
      "type": "function"
    },
    {
      "constant": false,
      "inputs": [
        {
          "name": "_rate",
          "type": "uint256"
        }
      ],
      "name": "setRate",
      "outputs": [
        {
          "name": "",
          "type": "uint256"
        }
      ],
      "payable": false,
      "stateMutability": "nonpayable",
      "type": "function"
    },
    {
      "constant": true,
      "inputs": [],
      "name": "cap",
      "outputs": [
        {
          "name": "",
          "type": "uint256"
        }
      ],
      "payable": false,
      "stateMutability": "view",
      "type": "function"
    },
    {
      "constant": true,
      "inputs": [],
      "name": "weiRaised",
      "outputs": [
        {
          "name": "",
          "type": "uint256"
        }
      ],
      "payable": false,
      "stateMutability": "view",
      "type": "function"
    },
    {
      "constant": false,
      "inputs": [
        {
          "name": "admin",
          "type": "address"
        }
      ],
      "name": "addAdmin",
      "outputs": [],
      "payable": false,
      "stateMutability": "nonpayable",
      "type": "function"
    },
    {
      "constant": true,
      "inputs": [],
      "name": "startTime",
      "outputs": [
        {
          "name": "",
          "type": "uint256"
        }
      ],
      "payable": false,
      "stateMutability": "view",
      "type": "function"
    },
    {
      "constant": false,
      "inputs": [
        {
          "name": "_endTime",
          "type": "uint256"
        }
      ],
      "name": "extendEndTime",
      "outputs": [
        {
          "name": "",
          "type": "uint256"
        }
      ],
      "payable": false,
      "stateMutability": "nonpayable",
      "type": "function"
    },
    {
      "constant": true,
      "inputs": [
        {
          "name": "amount",
          "type": "uint256"
        }
      ],
      "name": "convertToWei",
      "outputs": [
        {
          "name": "",
          "type": "uint256"
        }
      ],
      "payable": false,
      "stateMutability": "view",
      "type": "function"
    },
    {
      "constant": true,
      "inputs": [
        {
          "name": "amount",
          "type": "uint256"
        }
      ],
      "name": "convertToToken",
      "outputs": [
        {
          "name": "",
          "type": "uint256"
        }
      ],
      "payable": false,
      "stateMutability": "view",
      "type": "function"
    },
    {
      "constant": true,
      "inputs": [],
      "name": "getNow",
      "outputs": [
        {
          "name": "",
          "type": "uint256"
        }
      ],
      "payable": false,
      "stateMutability": "view",
      "type": "function"
    },
    {
      "constant": false,
      "inputs": [
        {
          "name": "beneficiary",
          "type": "address"
        }
      ],
      "name": "loadSmartKey",
      "outputs": [],
      "payable": true,
      "stateMutability": "payable",
      "type": "function"
    },
    {
      "constant": true,
      "inputs": [],
      "name": "getTokensMinted",
      "outputs": [
        {
          "name": "",
          "type": "uint256"
        }
      ],
      "payable": false,
      "stateMutability": "view",
      "type": "function"
    },
    {
      "constant": false,
      "inputs": [
        {
          "name": "banned",
          "type": "address"
        }
      ],
      "name": "addBanned",
      "outputs": [],
      "payable": false,
      "stateMutability": "nonpayable",
      "type": "function"
    },
    {
      "constant": true,
      "inputs": [],
      "name": "hasEnded",
      "outputs": [
        {
          "name": "",
          "type": "bool"
        }
      ],
      "payable": false,
      "stateMutability": "view",
      "type": "function"
    },
    {
      "constant": true,
      "inputs": [],
      "name": "token",
      "outputs": [
        {
          "name": "",
          "type": "address"
        }
      ],
      "payable": false,
      "stateMutability": "view",
      "type": "function"
    },
    {
      "inputs": [
        {
          "name": "_token",
          "type": "address"
        },
        {
          "name": "_startTime",
          "type": "uint256"
        },
        {
          "name": "_endTime",
          "type": "uint256"
        },
        {
          "name": "_rate",
          "type": "uint256"
        },
        {
          "name": "_cap",
          "type": "uint256"
        },
        {
          "name": "adminAddress",
          "type": "address[]"
        }
      ],
      "payable": false,
      "stateMutability": "nonpayable",
      "type": "constructor"
    },
    {
      "payable": true,
      "stateMutability": "payable",
      "type": "fallback"
    },
    {
      "anonymous": false,
      "inputs": [
        {
          "indexed": true,
          "name": "purchaser",
          "type": "address"
        },
        {
          "indexed": true,
          "name": "beneficiary",
          "type": "address"
        },
        {
          "indexed": false,
          "name": "value",
          "type": "uint256"
        },
        {
          "indexed": false,
          "name": "amount",
          "type": "uint256"
        }
      ],
      "name": "SmartKeyPurchase",
      "type": "event"
    }
  ],
  "bytecode": "0x606060405234156200001057600080fd5b604051620013343803806200133483398101604052808051906020019091908051906020019091908051906020019091908051906020019091908051906020019091908051820191905050818187878787868760008090505b8151811015620000f057600160008084848151811015156200008757fe5b9060200190602002015173ffffffffffffffffffffffffffffffffffffffff1673ffffffffffffffffffffffffffffffffffffffff16815260200190815260200160002060006101000a81548160ff021916908315150217905550808060010191505062000069565b8160019080519060200190620001089291906200020e565b5050508383101515156200011b57600080fd5b6000821115156200012b57600080fd5b6000600160008154811015156200013e57fe5b906000526020600020900160009054906101000a900473ffffffffffffffffffffffffffffffffffffffff1673ffffffffffffffffffffffffffffffffffffffff16141515156200018e57600080fd5b84600260006101000a81548173ffffffffffffffffffffffffffffffffffffffff021916908373ffffffffffffffffffffffffffffffffffffffff1602179055508360038190555082600481905550816005819055505050505050600082111515620001f957600080fd5b816007819055505050505050505050620002e3565b8280548282559060005260206000209081019282156200028a579160200282015b82811115620002895782518260006101000a81548173ffffffffffffffffffffffffffffffffffffffff021916908373ffffffffffffffffffffffffffffffffffffffff160217905550916020019190600101906200022f565b5b5090506200029991906200029d565b5090565b620002e091905b80821115620002dc57600081816101000a81549073ffffffffffffffffffffffffffffffffffffffff021916905550600101620002a4565b5090565b90565b61104180620002f36000396000f300606060405260043610610107576000357c0100000000000000000000000000000000000000000000000000000000900463ffffffff16806314bfd6d01461011257806324d7806c146101755780632c4e722e146101c65780633197cbb6146101ef57806331ae450b1461021857806334fcf43714610282578063355274ea146102b95780634042b66f146102e2578063704802751461030b57806378e979251461034457806388770cb01461036d578063a60dc38a146103a4578063a81f8f3f146103db578063bbe4fd5014610412578063c2554d241461043b578063d69f6bae14610469578063e1b2e8b314610492578063ecb70fb7146104cb578063fc0c546a146104f8575b6101103361054d565b005b341561011d57600080fd5b6101336004808035906020019091905050610833565b604051808273ffffffffffffffffffffffffffffffffffffffff1673ffffffffffffffffffffffffffffffffffffffff16815260200191505060405180910390f35b341561018057600080fd5b6101ac600480803573ffffffffffffffffffffffffffffffffffffffff16906020019091905050610872565b604051808215151515815260200191505060405180910390f35b34156101d157600080fd5b6101d9610892565b6040518082815260200191505060405180910390f35b34156101fa57600080fd5b610202610898565b6040518082815260200191505060405180910390f35b341561022357600080fd5b61022b61089e565b6040518080602001828103825283818151815260200191508051906020019060200280838360005b8381101561026e578082015181840152602081019050610253565b505050509050019250505060405180910390f35b341561028d57600080fd5b6102a36004808035906020019091905050610932565b6040518082815260200191505060405180910390f35b34156102c457600080fd5b6102cc610a51565b6040518082815260200191505060405180910390f35b34156102ed57600080fd5b6102f5610a57565b6040518082815260200191505060405180910390f35b341561031657600080fd5b610342600480803573ffffffffffffffffffffffffffffffffffffffff16906020019091905050610a5d565b005b341561034f57600080fd5b610357610bc8565b6040518082815260200191505060405180910390f35b341561037857600080fd5b61038e6004808035906020019091905050610bce565b6040518082815260200191505060405180910390f35b34156103af57600080fd5b6103c56004808035906020019091905050610c38565b6040518082815260200191505060405180910390f35b34156103e657600080fd5b6103fc6004808035906020019091905050610c56565b6040518082815260200191505060405180910390f35b341561041d57600080fd5b610425610c74565b6040518082815260200191505060405180910390f35b610467600480803573ffffffffffffffffffffffffffffffffffffffff1690602001909190505061054d565b005b341561047457600080fd5b61047c610c7c565b6040518082815260200191505060405180910390f35b341561049d57600080fd5b6104c9600480803573ffffffffffffffffffffffffffffffffffffffff16906020019091905050610d2c565b005b34156104d657600080fd5b6104de610f02565b604051808215151515815260200191505060405180910390f35b341561050357600080fd5b61050b610f16565b604051808273ffffffffffffffffffffffffffffffffffffffff1673ffffffffffffffffffffffffffffffffffffffff16815260200191505060405180910390f35b6000806000808473ffffffffffffffffffffffffffffffffffffffff161415151561057757600080fd5b34925061058383610c56565b915061059a83600654610f3c90919063ffffffff16565b600681905550600260009054906101000a900473ffffffffffffffffffffffffffffffffffffffff1673ffffffffffffffffffffffffffffffffffffffff1663b37c7551856000604051602001526040518263ffffffff167c0100000000000000000000000000000000000000000000000000000000028152600401808273ffffffffffffffffffffffffffffffffffffffff1673ffffffffffffffffffffffffffffffffffffffff168152602001915050602060405180830381600087803b151561066557600080fd5b6102c65a03f1151561067657600080fd5b505050604051805190509050600260009054906101000a900473ffffffffffffffffffffffffffffffffffffffff1673ffffffffffffffffffffffffffffffffffffffff16630d6d3b6e3483876000604051602001526040518463ffffffff167c0100000000000000000000000000000000000000000000000000000000028152600401808373ffffffffffffffffffffffffffffffffffffffff1673ffffffffffffffffffffffffffffffffffffffff1681526020018273ffffffffffffffffffffffffffffffffffffffff1673ffffffffffffffffffffffffffffffffffffffff168152602001807f43726f776453616c650000000000000000000000000000000000000000000000815250602001925050506020604051808303818588803b15156107a357600080fd5b6125ee5a03f115156107b457600080fd5b5050505060405180519050508373ffffffffffffffffffffffffffffffffffffffff163373ffffffffffffffffffffffffffffffffffffffff167f8954423a551d16784cdfa6962d70cd543c5e51c673130047a93e5c2340a6ab3d8585604051808381526020018281526020019250505060405180910390a350505050565b60018181548110151561084257fe5b90600052602060002090016000915054906101000a900473ffffffffffffffffffffffffffffffffffffffff1681565b60006020528060005260406000206000915054906101000a900460ff1681565b60055481565b60045481565b6108a6610fb0565b600180548060200260200160405190810160405280929190818152602001828054801561092857602002820191906000526020600020905b8160009054906101000a900473ffffffffffffffffffffffffffffffffffffffff1673ffffffffffffffffffffffffffffffffffffffff16815260200190600101908083116108de575b5050505050905090565b60008060003373ffffffffffffffffffffffffffffffffffffffff1673ffffffffffffffffffffffffffffffffffffffff16815260200190815260200160002060009054906101000a900460ff16151561098b57600080fd5b600260009054906101000a900473ffffffffffffffffffffffffffffffffffffffff1673ffffffffffffffffffffffffffffffffffffffff166334fcf437836000604051602001526040518263ffffffff167c010000000000000000000000000000000000000000000000000000000002815260040180828152602001915050602060405180830381600087803b1515610a2457600080fd5b6102c65a03f11515610a3557600080fd5b5050506040518051905050816005819055506005549050919050565b60075481565b60065481565b6000803373ffffffffffffffffffffffffffffffffffffffff1673ffffffffffffffffffffffffffffffffffffffff16815260200190815260200160002060009054906101000a900460ff161515610ab457600080fd5b6000803373ffffffffffffffffffffffffffffffffffffffff1673ffffffffffffffffffffffffffffffffffffffff16815260200190815260200160002060009054906101000a900460ff161515610b0b57600080fd5b60016000808373ffffffffffffffffffffffffffffffffffffffff1673ffffffffffffffffffffffffffffffffffffffff16815260200190815260200160002060006101000a81548160ff02191690831515021790555060018054806001018281610b769190610fc4565b9160005260206000209001600083909190916101000a81548173ffffffffffffffffffffffffffffffffffffffff021916908373ffffffffffffffffffffffffffffffffffffffff1602179055505050565b60035481565b60008060003373ffffffffffffffffffffffffffffffffffffffff1673ffffffffffffffffffffffffffffffffffffffff16815260200190815260200160002060009054906101000a900460ff161515610c2757600080fd5b816004819055506004549050919050565b6000610c4f60055483610f5a90919063ffffffff16565b9050919050565b6000610c6d60055483610f9590919063ffffffff16565b9050919050565b600042905090565b6000600260009054906101000a900473ffffffffffffffffffffffffffffffffffffffff1673ffffffffffffffffffffffffffffffffffffffff1663963563556000604051602001526040518163ffffffff167c0100000000000000000000000000000000000000000000000000000000028152600401602060405180830381600087803b1515610d0c57600080fd5b6102c65a03f11515610d1d57600080fd5b50505060405180519050905090565b60008060003373ffffffffffffffffffffffffffffffffffffffff1673ffffffffffffffffffffffffffffffffffffffff16815260200190815260200160002060009054906101000a900460ff161515610d8557600080fd5b6000803373ffffffffffffffffffffffffffffffffffffffff1673ffffffffffffffffffffffffffffffffffffffff16815260200190815260200160002060009054906101000a900460ff161515610ddc57600080fd5b60008060008473ffffffffffffffffffffffffffffffffffffffff1673ffffffffffffffffffffffffffffffffffffffff16815260200190815260200160002060006101000a81548160ff021916908315150217905550600090505b600180549050811015610efe57600181815481101515610e5457fe5b906000526020600020900160009054906101000a900473ffffffffffffffffffffffffffffffffffffffff1673ffffffffffffffffffffffffffffffffffffffff168273ffffffffffffffffffffffffffffffffffffffff161415610ef157600181815481101515610ec257fe5b906000526020600020900160006101000a81549073ffffffffffffffffffffffffffffffffffffffff02191690555b8080600101915050610e38565b5050565b600080600754600654101590508091505090565b600260009054906101000a900473ffffffffffffffffffffffffffffffffffffffff1681565b6000808284019050838110151515610f5057fe5b8091505092915050565b6000806000841415610f6f5760009150610f8e565b8284029050828482811515610f8057fe5b04141515610f8a57fe5b8091505b5092915050565b6000808284811515610fa357fe5b0490508091505092915050565b602060405190810160405280600081525090565b815481835581811511610feb57818360005260206000209182019101610fea9190610ff0565b5b505050565b61101291905b8082111561100e576000816000905550600101610ff6565b5090565b905600a165627a7a723058207de774a8b21b831013c9e9bd1e14340205718dfe122b3115814f60fb2b8c2b950029",
  "source": "pragma solidity ^0.4.18; //We have to specify what version of the compiler this code will use\n\n\nimport \"./crowdsale/CappedCrowdsale.sol\";\nimport \"./crowdsale/Crowdsale.sol\";\nimport \"./admin/Administered.sol\";\n\n/**\n * @title IoT Smart Keys IO\n */\ncontract PublicOffering is CappedCrowdsale {\n\n  function PublicOffering(SmartKey _token, uint256 _startTime, uint256 _endTime, uint256 _rate, uint256 _cap, address[] adminAddress)\n  public\n  Administered(adminAddress)\n  CappedCrowdsale(_cap, adminAddress)\n  Crowdsale(_token, _startTime, _endTime, _rate, adminAddress)\n  {\n    \n  }\n\n}",
  "sourcePath": "/home/richard/g/iotblock/contracts/PublicOffering.sol",
  "compiler": {
    "name": "solc",
    "version": "0.4.19+commit.c4cbbb05.Emscripten.clang"
  },
  "schemaVersion": "2.0.0",
  "updatedAt": "2018-12-09T07:56:02.129Z"
}