{
  "contractName": "SmartPoolKey",
  "abi": [
    {
      "constant": true,
      "inputs": [
        {
          "name": "",
          "type": "uint256"
        }
      ],
      "name": "admins",
      "outputs": [
        {
          "name": "",
          "type": "address"
        }
      ],
      "payable": false,
      "stateMutability": "view",
      "type": "function"
    },
    {
      "constant": true,
      "inputs": [
        {
          "name": "",
          "type": "address"
        }
      ],
      "name": "isAdmin",
      "outputs": [
        {
          "name": "",
          "type": "bool"
        }
      ],
      "payable": false,
      "stateMutability": "view",
      "type": "function"
    },
    {
      "constant": true,
      "inputs": [],
      "name": "getAdmins",
      "outputs": [
        {
          "name": "",
          "type": "address[]"
        }
      ],
      "payable": false,
      "stateMutability": "view",
      "type": "function"
    },
    {
      "constant": true,
      "inputs": [
        {
          "name": "",
          "type": "address"
        }
      ],
      "name": "smartPoolKeys",
      "outputs": [
        {
          "name": "",
          "type": "address"
        }
      ],
      "payable": false,
      "stateMutability": "view",
      "type": "function"
    },
    {
      "constant": false,
      "inputs": [
        {
          "name": "admin",
          "type": "address"
        }
      ],
      "name": "addAdmin",
      "outputs": [],
      "payable": false,
      "stateMutability": "nonpayable",
      "type": "function"
    },
    {
      "constant": false,
      "inputs": [
        {
          "name": "banned",
          "type": "address"
        }
      ],
      "name": "addBanned",
      "outputs": [],
      "payable": false,
      "stateMutability": "nonpayable",
      "type": "function"
    },
    {
      "inputs": [
        {
          "name": "_smartKey",
          "type": "address"
        },
        {
          "name": "adminAddress",
          "type": "address[]"
        }
      ],
      "payable": false,
      "stateMutability": "nonpayable",
      "type": "constructor"
    },
    {
      "constant": false,
      "inputs": [
        {
          "name": "_vault",
          "type": "address"
        }
      ],
      "name": "setVault",
      "outputs": [
        {
          "name": "",
          "type": "bool"
        }
      ],
      "payable": false,
      "stateMutability": "nonpayable",
      "type": "function"
    },
    {
      "constant": true,
      "inputs": [
        {
          "name": "beneficiary",
          "type": "address"
        }
      ],
      "name": "getSmartPoolKey",
      "outputs": [
        {
          "name": "",
          "type": "address"
        }
      ],
      "payable": false,
      "stateMutability": "view",
      "type": "function"
    },
    {
      "constant": false,
      "inputs": [
        {
          "name": "beneficiary",
          "type": "address"
        },
        {
          "name": "max_contrib",
          "type": "uint256"
        },
        {
          "name": "max_per_contrib",
          "type": "uint256"
        },
        {
          "name": "min_per_contrib",
          "type": "uint256"
        },
        {
          "name": "admins",
          "type": "address[]"
        },
        {
          "name": "_has_whitelist",
          "type": "bool"
        },
        {
          "name": "fee",
          "type": "uint256"
        },
        {
          "name": "_autoDistribute",
          "type": "bool"
        }
      ],
      "name": "addSmartPoolKey",
      "outputs": [
        {
          "name": "",
          "type": "address"
        }
      ],
      "payable": false,
      "stateMutability": "nonpayable",
      "type": "function"
    }
  ],
  "bytecode": "0x6060604052341561000f57600080fd5b604051620051bc380380620051bc833981016040528080519060200190919080518201919050508060008090505b81518110156100c1576001600080848481518110151561005957fe5b9060200190602002015173ffffffffffffffffffffffffffffffffffffffff1673ffffffffffffffffffffffffffffffffffffffff16815260200190815260200160002060006101000a81548160ff021916908315150217905550808060010191505061003d565b81600190805190602001906100d792919061017b565b50505081600260006101000a81548173ffffffffffffffffffffffffffffffffffffffff021916908373ffffffffffffffffffffffffffffffffffffffff16021790555080600081518110151561012a57fe5b90602001906020020151600360006101000a81548173ffffffffffffffffffffffffffffffffffffffff021916908373ffffffffffffffffffffffffffffffffffffffff1602179055505050610248565b8280548282559060005260206000209081019282156101f4579160200282015b828111156101f35782518260006101000a81548173ffffffffffffffffffffffffffffffffffffffff021916908373ffffffffffffffffffffffffffffffffffffffff1602179055509160200191906001019061019b565b5b5090506102019190610205565b5090565b61024591905b8082111561024157600081816101000a81549073ffffffffffffffffffffffffffffffffffffffff02191690555060010161020b565b5090565b90565b614f6480620002586000396000f300606060405260043610620000a3576000357c0100000000000000000000000000000000000000000000000000000000900463ffffffff16806314bfd6d014620000a857806324d7806c146200010e57806328d0d6ba146200016257806331ae450b14620001de5780636817031b146200024d5780636f85714914620002a157806370480275146200031d5780637481ac6c1462000359578063e1b2e8b3146200044f575b600080fd5b3415620000b457600080fd5b620000cc60048080359060200190919050506200048b565b604051808273ffffffffffffffffffffffffffffffffffffffff1673ffffffffffffffffffffffffffffffffffffffff16815260200191505060405180910390f35b34156200011a57600080fd5b62000148600480803573ffffffffffffffffffffffffffffffffffffffff16906020019091905050620004cb565b604051808215151515815260200191505060405180910390f35b34156200016e57600080fd5b6200019c600480803573ffffffffffffffffffffffffffffffffffffffff16906020019091905050620004eb565b604051808273ffffffffffffffffffffffffffffffffffffffff1673ffffffffffffffffffffffffffffffffffffffff16815260200191505060405180910390f35b3415620001ea57600080fd5b620001f462000554565b6040518080602001828103825283818151815260200191508051906020019060200280838360005b83811015620002395780820151818401526020810190506200021c565b505050509050019250505060405180910390f35b34156200025957600080fd5b62000287600480803573ffffffffffffffffffffffffffffffffffffffff16906020019091905050620005ec565b604051808215151515815260200191505060405180910390f35b3415620002ad57600080fd5b620002db600480803573ffffffffffffffffffffffffffffffffffffffff1690602001909190505062000690565b604051808273ffffffffffffffffffffffffffffffffffffffff1673ffffffffffffffffffffffffffffffffffffffff16815260200191505060405180910390f35b34156200032957600080fd5b62000357600480803573ffffffffffffffffffffffffffffffffffffffff16906020019091905050620006c3565b005b34156200036557600080fd5b6200040d600480803573ffffffffffffffffffffffffffffffffffffffff16906020019091908035906020019091908035906020019091908035906020019091908035906020019082018035906020019080806020026020016040519081016040528093929190818152602001838360200280828437820191505050505050919080351515906020019091908035906020019091908035151590602001909190505062000832565b604051808273ffffffffffffffffffffffffffffffffffffffff1673ffffffffffffffffffffffffffffffffffffffff16815260200191505060405180910390f35b34156200045b57600080fd5b62000489600480803573ffffffffffffffffffffffffffffffffffffffff1690602001909190505062000b71565b005b6001818154811015156200049b57fe5b90600052602060002090016000915054906101000a900473ffffffffffffffffffffffffffffffffffffffff1681565b60006020528060005260406000206000915054906101000a900460ff1681565b6000600460008373ffffffffffffffffffffffffffffffffffffffff1673ffffffffffffffffffffffffffffffffffffffff16815260200190815260200160002060009054906101000a900473ffffffffffffffffffffffffffffffffffffffff169050919050565b6200055e62000d4e565b6001805480602002602001604051908101604052809291908181526020018280548015620005e257602002820191906000526020600020905b8160009054906101000a900473ffffffffffffffffffffffffffffffffffffffff1673ffffffffffffffffffffffffffffffffffffffff168152602001906001019080831162000597575b5050505050905090565b60008060003373ffffffffffffffffffffffffffffffffffffffff1673ffffffffffffffffffffffffffffffffffffffff16815260200190815260200160002060009054906101000a900460ff1615156200064657600080fd5b81600360006101000a81548173ffffffffffffffffffffffffffffffffffffffff021916908373ffffffffffffffffffffffffffffffffffffffff16021790555060019050919050565b60046020528060005260406000206000915054906101000a900473ffffffffffffffffffffffffffffffffffffffff1681565b6000803373ffffffffffffffffffffffffffffffffffffffff1673ffffffffffffffffffffffffffffffffffffffff16815260200190815260200160002060009054906101000a900460ff1615156200071b57600080fd5b6000803373ffffffffffffffffffffffffffffffffffffffff1673ffffffffffffffffffffffffffffffffffffffff16815260200190815260200160002060009054906101000a900460ff1615156200077357600080fd5b60016000808373ffffffffffffffffffffffffffffffffffffffff1673ffffffffffffffffffffffffffffffffffffffff16815260200190815260200160002060006101000a81548160ff02191690831515021790555060018054806001018281620007e0919062000d62565b9160005260206000209001600083909190916101000a81548173ffffffffffffffffffffffffffffffffffffffff021916908373ffffffffffffffffffffffffffffffffffffffff1602179055505050565b60008060008a73ffffffffffffffffffffffffffffffffffffffff16141515156200085c57600080fd5b600073ffffffffffffffffffffffffffffffffffffffff16600460008c73ffffffffffffffffffffffffffffffffffffffff1673ffffffffffffffffffffffffffffffffffffffff16815260200190815260200160002060009054906101000a900473ffffffffffffffffffffffffffffffffffffffff1673ffffffffffffffffffffffffffffffffffffffff16141562000afe57600260009054906101000a900473ffffffffffffffffffffffffffffffffffffffff16600360009054906101000a900473ffffffffffffffffffffffffffffffffffffffff168b8b8b8b8b8b8b8b6200094962000d91565b808b73ffffffffffffffffffffffffffffffffffffffff1673ffffffffffffffffffffffffffffffffffffffff1681526020018a73ffffffffffffffffffffffffffffffffffffffff1673ffffffffffffffffffffffffffffffffffffffff1681526020018973ffffffffffffffffffffffffffffffffffffffff1673ffffffffffffffffffffffffffffffffffffffff168152602001888152602001878152602001868152602001806020018515151515815260200184815260200183151515158152602001828103825286818151815260200191508051906020019060200280838360005b8381101562000a4d57808201518184015260208101905062000a30565b505050509050019b505050505050505050505050604051809103906000f080151562000a7857600080fd5b905080600460008c73ffffffffffffffffffffffffffffffffffffffff1673ffffffffffffffffffffffffffffffffffffffff16815260200190815260200160002060006101000a81548173ffffffffffffffffffffffffffffffffffffffff021916908373ffffffffffffffffffffffffffffffffffffffff16021790555062000b61565b600460008b73ffffffffffffffffffffffffffffffffffffffff1673ffffffffffffffffffffffffffffffffffffffff16815260200190815260200160002060009054906101000a900473ffffffffffffffffffffffffffffffffffffffff1690505b8091505098975050505050505050565b60008060003373ffffffffffffffffffffffffffffffffffffffff1673ffffffffffffffffffffffffffffffffffffffff16815260200190815260200160002060009054906101000a900460ff16151562000bcb57600080fd5b6000803373ffffffffffffffffffffffffffffffffffffffff1673ffffffffffffffffffffffffffffffffffffffff16815260200190815260200160002060009054906101000a900460ff16151562000c2357600080fd5b60008060008473ffffffffffffffffffffffffffffffffffffffff1673ffffffffffffffffffffffffffffffffffffffff16815260200190815260200160002060006101000a81548160ff021916908315150217905550600090505b60018054905081101562000d4a5760018181548110151562000c9d57fe5b906000526020600020900160009054906101000a900473ffffffffffffffffffffffffffffffffffffffff1673ffffffffffffffffffffffffffffffffffffffff168273ffffffffffffffffffffffffffffffffffffffff16141562000d3c5760018181548110151562000d0d57fe5b906000526020600020900160006101000a81549073ffffffffffffffffffffffffffffffffffffffff02191690555b808060010191505062000c7f565b5050565b602060405190810160405280600081525090565b81548183558181151162000d8c5781836000526020600020918201910162000d8b919062000da2565b5b505050565b60405161416e8062000dcb83390190565b62000dc791905b8082111562000dc357600081600090555060010162000da9565b5090565b905600606060405234156200001057600080fd5b6040516200416e3803806200416e833981016040528080519060200190919080519060200190919080519060200190919080519060200190919080519060200190919080519060200190919080518201919060200180519060200190919080519060200190919080519060200190919050506000848560008260008f8e60016000803373ffffffffffffffffffffffffffffffffffffffff1673ffffffffffffffffffffffffffffffffffffffff16815260200190815260200160002060006101000a81548160ff02191690831515021790555060008173ffffffffffffffffffffffffffffffffffffffff16141515156200010b57600080fd5b80600260006101000a81548173ffffffffffffffffffffffffffffffffffffffff021916908373ffffffffffffffffffffffffffffffffffffffff16021790555081600160006101000a81548173ffffffffffffffffffffffffffffffffffffffff021916908373ffffffffffffffffffffffffffffffffffffffff1602179055506000600260146101000a81548160ff02191690836002811115620001ad57fe5b021790555060016000808373ffffffffffffffffffffffffffffffffffffffff1673ffffffffffffffffffffffffffffffffffffffff16815260200190815260200160002060006101000a81548160ff02191690831515021790555060016000808473ffffffffffffffffffffffffffffffffffffffff1673ffffffffffffffffffffffffffffffffffffffff16815260200190815260200160002060006101000a81548160ff0219169083151502179055505050600090505b8151811015620002ef5760016007600084848151811015156200028657fe5b9060200190602002015173ffffffffffffffffffffffffffffffffffffffff1673ffffffffffffffffffffffffffffffffffffffff16815260200190815260200160002060006101000a81548160ff021916908315150217905550808060010191505062000267565b8160089080519060200190620003079291906200053f565b505050600082511115620003dc57600090505b8151811015620003a25760016009600084848151811015156200033957fe5b9060200190602002015173ffffffffffffffffffffffffffffffffffffffff1673ffffffffffffffffffffffffffffffffffffffff16815260200190815260200160002060006101000a81548160ff02191690831515021790555080806001019150506200031a565b81600a9080519060200190620003ba9291906200053f565b506001600b60006101000a81548160ff021916908315150217905550620003f8565b6000600b60006101000a81548160ff0219169083151502179055505b50505089600f60006101000a81548173ffffffffffffffffffffffffffffffffffffffff021916908373ffffffffffffffffffffffffffffffffffffffff16021790555082601481905550876011819055508660128190555085601381905550600060038190555083600b60016101000a81548160ff02191690831515021790555081600b60026101000a81548160ff021916908315150217905550600090505b84518110156200052e57600c8054806001018281620004b99190620005ce565b916000526020600020900160008784815181101515620004d557fe5b90602001906020020151909190916101000a81548173ffffffffffffffffffffffffffffffffffffffff021916908373ffffffffffffffffffffffffffffffffffffffff16021790555050808060010191505062000499565b50505050505050505050506200066b565b828054828255906000526020600020908101928215620005bb579160200282015b82811115620005ba5782518260006101000a81548173ffffffffffffffffffffffffffffffffffffffff021916908373ffffffffffffffffffffffffffffffffffffffff1602179055509160200191906001019062000560565b5b509050620005ca9190620005fd565b5090565b815481835581811511620005f857818360005260206000209182019101620005f7919062000643565b5b505050565b6200064091905b808211156200063c57600081816101000a81549073ffffffffffffffffffffffffffffffffffffffff02191690555060010162000604565b5090565b90565b6200066891905b80821115620006645760008160009055506001016200064a565b5090565b90565b613af3806200067b6000396000f300606060405260043610610225576000357c0100000000000000000000000000000000000000000000000000000000900463ffffffff16806303db428d146103695780630c8a6f1a14610421578063113adf491461044a578063145381281461049f57806314bfd6d014610536578063173825d9146105995780631801e156146105d2578063202e079d1461060357806323ca0cd21461062c57806324d7806c146106795780632f54bf6e146106ca57806331ae450b1461071b57806338af3eed146107855780633af32abf146107da57806349f9c0e41461082b5780634b47002c1461086d5780635436e5a0146108c25780635b2ce586146109625780635b6beeb91461097d5780635daf08ca146109f6578063640e7fd514610a595780637048027514610a905780637065cb4814610ac95780637497020014610b025780637633a22c14610b3d578063779d867714610b7457806378c8cda714610bc15780637e43eef414610bfa5780637ebd1b3014610c2757806390fa5ec814610c8a5780639172fe0814610cb35780639eab525314610ce1578063a230c52414610d4b578063a8f11eb914610d98578063b764e53e14610dc5578063b7760c8f14610dee578063c19d93fb14610e30578063d01f63f514610e67578063d4c2f75c14610ed1578063ddca3f4314610f53578063df0cb93414610f7c578063e1b2e8b314610fc9578063f80f5dd514611002578063fbfa77cf1461103b578063fd08e0c714611090575b600560003373ffffffffffffffffffffffffffffffffffffffff1673ffffffffffffffffffffffffffffffffffffffff1681526020019081526020016000208054806001018281610276919061393e565b916000526020600020906004020160006080604051908101604052803373ffffffffffffffffffffffffffffffffffffffff1681526020014281526020013481526020016000815250909190915060008201518160000160006101000a81548173ffffffffffffffffffffffffffffffffffffffff021916908373ffffffffffffffffffffffffffffffffffffffff160217905550602082015181600101556040820151816002015560608201518160030155505050600b60029054906101000a900460ff1615610367576103563460035461116690919063ffffffff16565b60038190555061036534611184565b505b005b341561037457600080fd5b610407600480803590602001908201803590602001908080601f0160208091040260200160405190810160405280939291908181526020018383808284378201915050505050509190803590602001908201803590602001908080601f01602080910402602001604051908101604052809392919081815260200183838082843782019150505050505091905050611bbf565b604051808215151515815260200191505060405180910390f35b341561042c57600080fd5b610434611c8c565b6040518082815260200191505060405180910390f35b341561045557600080fd5b61045d611c92565b604051808273ffffffffffffffffffffffffffffffffffffffff1673ffffffffffffffffffffffffffffffffffffffff16815260200191505060405180910390f35b34156104aa57600080fd5b6104df600480803573ffffffffffffffffffffffffffffffffffffffff16906020019091908035906020019091905050611cb8565b604051808573ffffffffffffffffffffffffffffffffffffffff1673ffffffffffffffffffffffffffffffffffffffff16815260200184815260200183815260200182815260200194505050505060405180910390f35b341561054157600080fd5b6105576004808035906020019091905050611d24565b604051808273ffffffffffffffffffffffffffffffffffffffff1673ffffffffffffffffffffffffffffffffffffffff16815260200191505060405180910390f35b34156105a457600080fd5b6105d0600480803573ffffffffffffffffffffffffffffffffffffffff16906020019091905050611d63565b005b34156105dd57600080fd5b6105e5611e6b565b60405180826000191660001916815260200191505060405180910390f35b341561060e57600080fd5b6106166120ec565b6040518082815260200191505060405180910390f35b341561063757600080fd5b610663600480803573ffffffffffffffffffffffffffffffffffffffff169060200190919050506120f2565b6040518082815260200191505060405180910390f35b341561068457600080fd5b6106b0600480803573ffffffffffffffffffffffffffffffffffffffff1690602001909190505061213e565b604051808215151515815260200191505060405180910390f35b34156106d557600080fd5b610701600480803573ffffffffffffffffffffffffffffffffffffffff1690602001909190505061215e565b604051808215151515815260200191505060405180910390f35b341561072657600080fd5b61072e61217e565b6040518080602001828103825283818151815260200191508051906020019060200280838360005b83811015610771578082015181840152602081019050610756565b505050509050019250505060405180910390f35b341561079057600080fd5b610798612212565b604051808273ffffffffffffffffffffffffffffffffffffffff1673ffffffffffffffffffffffffffffffffffffffff16815260200191505060405180910390f35b34156107e557600080fd5b610811600480803573ffffffffffffffffffffffffffffffffffffffff16906020019091905050612238565b604051808215151515815260200191505060405180910390f35b341561083657600080fd5b61086b600480803590602001909190803573ffffffffffffffffffffffffffffffffffffffff16906020019091905050612258565b005b341561087857600080fd5b61088061242e565b604051808273ffffffffffffffffffffffffffffffffffffffff1673ffffffffffffffffffffffffffffffffffffffff16815260200191505060405180910390f35b34156108cd57600080fd5b6108e7600480803560001916906020019091905050612454565b6040518080602001828103825283818151815260200191508051906020019080838360005b8381101561092757808201518184015260208101905061090c565b50505050905090810190601f1680156109545780820380516001836020036101000a031916815260200191505b509250505060405180910390f35b61097b600480803560ff1690602001909190505061256e565b005b341561098857600080fd5b6109d8600480803590602001908201803590602001908080601f016020809104026020016040519081016040528093929190818152602001838380828437820191505050505050919050506129e8565b60405180826000191660001916815260200191505060405180910390f35b3415610a0157600080fd5b610a176004808035906020019091905050612a54565b604051808273ffffffffffffffffffffffffffffffffffffffff1673ffffffffffffffffffffffffffffffffffffffff16815260200191505060405180910390f35b3415610a6457600080fd5b610a6c612a93565b60405180826006811115610a7c57fe5b60ff16815260200191505060405180910390f35b3415610a9b57600080fd5b610ac7600480803573ffffffffffffffffffffffffffffffffffffffff16906020019091905050612aaa565b005b3415610ad457600080fd5b610b00600480803573ffffffffffffffffffffffffffffffffffffffff16906020019091905050612c18565b005b3415610b0d57600080fd5b610b236004808035906020019091905050611184565b604051808215151515815260200191505060405180910390f35b3415610b4857600080fd5b610b50612d20565b60405180826006811115610b6057fe5b60ff16815260200191505060405180910390f35b3415610b7f57600080fd5b610bab600480803573ffffffffffffffffffffffffffffffffffffffff16906020019091905050612d33565b6040518082815260200191505060405180910390f35b3415610bcc57600080fd5b610bf8600480803573ffffffffffffffffffffffffffffffffffffffff16906020019091905050612d4b565b005b3415610c0557600080fd5b610c0d612ecc565b604051808215151515815260200191505060405180910390f35b3415610c3257600080fd5b610c486004808035906020019091905050612edf565b604051808273ffffffffffffffffffffffffffffffffffffffff1673ffffffffffffffffffffffffffffffffffffffff16815260200191505060405180910390f35b3415610c9557600080fd5b610c9d612f1e565b6040518082815260200191505060405180910390f35b610cdf600480803573ffffffffffffffffffffffffffffffffffffffff16906020019091905050612f24565b005b3415610cec57600080fd5b610cf461306d565b6040518080602001828103825283818151815260200191508051906020019060200280838360005b83811015610d37578082015181840152602081019050610d1c565b505050509050019250505060405180910390f35b3415610d5657600080fd5b610d82600480803573ffffffffffffffffffffffffffffffffffffffff16906020019091905050613101565b6040518082815260200191505060405180910390f35b3415610da357600080fd5b610dab613119565b604051808215151515815260200191505060405180910390f35b3415610dd057600080fd5b610dd861312c565b6040518082815260200191505060405180910390f35b3415610df957600080fd5b610e2e600480803590602001909190803573ffffffffffffffffffffffffffffffffffffffff16906020019091905050613132565b005b3415610e3b57600080fd5b610e436133b1565b60405180826002811115610e5357fe5b60ff16815260200191505060405180910390f35b3415610e7257600080fd5b610e7a6133c4565b6040518080602001828103825283818151815260200191508051906020019060200280838360005b83811015610ebd578082015181840152602081019050610ea2565b505050509050019250505060405180910390f35b3415610edc57600080fd5b610f3960048080356000191690602001909190803590602001908201803590602001908080601f01602080910402602001604051908101604052809392919081815260200183838082843782019150505050505091905050613458565b604051808215151515815260200191505060405180910390f35b3415610f5e57600080fd5b610f666134eb565b6040518082815260200191505060405180910390f35b3415610f8757600080fd5b610fb3600480803573ffffffffffffffffffffffffffffffffffffffff169060200190919050506134f1565b6040518082815260200191505060405180910390f35b3415610fd457600080fd5b611000600480803573ffffffffffffffffffffffffffffffffffffffff16906020019091905050613509565b005b341561100d57600080fd5b611039600480803573ffffffffffffffffffffffffffffffffffffffff169060200190919050506136e2565b005b341561104657600080fd5b61104e613813565b604051808273ffffffffffffffffffffffffffffffffffffffff1673ffffffffffffffffffffffffffffffffffffffff16815260200191505060405180910390f35b341561109b57600080fd5b6110eb600480803590602001908201803590602001908080601f01602080910402602001604051908101604052809392919081815260200183838082843782019150505050505091905050613839565b6040518080602001828103825283818151815260200191508051906020019080838360005b8381101561112b578082015181840152602081019050611110565b50505050905090810190601f1680156111585780820380516001836020036101000a031916815260200191505b509250505060405180910390f35b600080828401905083811015151561117a57fe5b8091505092915050565b600080600080600060135486101580156111df5750601254600d60003373ffffffffffffffffffffffffffffffffffffffff1673ffffffffffffffffffffffffffffffffffffffff1681526020019081526020016000205411155b15611bb157600b60019054906101000a900460ff1615806112495750600960003373ffffffffffffffffffffffffffffffffffffffff1673ffffffffffffffffffffffffffffffffffffffff16815260200190815260200160002060009054906101000a900460ff165b15611bb05761126260c88761390a90919063ffffffff16565b93506112796014548761390a90919063ffffffff16565b92506112a083611292868961392590919063ffffffff16565b61392590919063ffffffff16565b91506112ba600c805490508361390a90919063ffffffff16565b9150600f60009054906101000a900473ffffffffffffffffffffffffffffffffffffffff1673ffffffffffffffffffffffffffffffffffffffff166108fc859081150290604051600060405180830381858888f19350505050151561131e57600080fd5b600260009054906101000a900473ffffffffffffffffffffffffffffffffffffffff1673ffffffffffffffffffffffffffffffffffffffff166108fc849081150290604051600060405180830381858888f19350505050151561138057600080fd5b6113f484600e6000600f60009054906101000a900473ffffffffffffffffffffffffffffffffffffffff1673ffffffffffffffffffffffffffffffffffffffff1673ffffffffffffffffffffffffffffffffffffffff1681526020019081526020016000205461116690919063ffffffff16565b600e6000600f60009054906101000a900473ffffffffffffffffffffffffffffffffffffffff1673ffffffffffffffffffffffffffffffffffffffff1673ffffffffffffffffffffffffffffffffffffffff168152602001908152602001600020819055506114cd83600e6000600260009054906101000a900473ffffffffffffffffffffffffffffffffffffffff1673ffffffffffffffffffffffffffffffffffffffff1673ffffffffffffffffffffffffffffffffffffffff1681526020019081526020016000205461116690919063ffffffff16565b600e6000600260009054906101000a900473ffffffffffffffffffffffffffffffffffffffff1673ffffffffffffffffffffffffffffffffffffffff1673ffffffffffffffffffffffffffffffffffffffff1681526020019081526020016000208190555060056000600f60009054906101000a900473ffffffffffffffffffffffffffffffffffffffff1673ffffffffffffffffffffffffffffffffffffffff1673ffffffffffffffffffffffffffffffffffffffff16815260200190815260200160002080548060010182816115a5919061393e565b916000526020600020906004020160006080604051908101604052803373ffffffffffffffffffffffffffffffffffffffff1681526020014281526020018881526020016000815250909190915060008201518160000160006101000a81548173ffffffffffffffffffffffffffffffffffffffff021916908373ffffffffffffffffffffffffffffffffffffffff16021790555060208201518160010155604082015181600201556060820151816003015550505060056000600260009054906101000a900473ffffffffffffffffffffffffffffffffffffffff1673ffffffffffffffffffffffffffffffffffffffff1673ffffffffffffffffffffffffffffffffffffffff16815260200190815260200160002080548060010182816116ce919061393e565b916000526020600020906004020160006080604051908101604052803373ffffffffffffffffffffffffffffffffffffffff1681526020014281526020018781526020016000815250909190915060008201518160000160006101000a81548173ffffffffffffffffffffffffffffffffffffffff021916908373ffffffffffffffffffffffffffffffffffffffff1602179055506020820151816001015560408201518160020155606082015181600301555050506117d686600d60003373ffffffffffffffffffffffffffffffffffffffff1673ffffffffffffffffffffffffffffffffffffffff1681526020019081526020016000205461116690919063ffffffff16565b600d60003373ffffffffffffffffffffffffffffffffffffffff1673ffffffffffffffffffffffffffffffffffffffff16815260200190815260200160002081905550600090505b600c80549050811015611afc57600c8181548110151561183a57fe5b906000526020600020900160009054906101000a900473ffffffffffffffffffffffffffffffffffffffff1673ffffffffffffffffffffffffffffffffffffffff166108fc839081150290604051600060405180830381858888f1935050505015156118a557600080fd5b61193182600e6000600c858154811015156118bc57fe5b906000526020600020900160009054906101000a900473ffffffffffffffffffffffffffffffffffffffff1673ffffffffffffffffffffffffffffffffffffffff1673ffffffffffffffffffffffffffffffffffffffff1681526020019081526020016000205461116690919063ffffffff16565b600e6000600c8481548110151561194457fe5b906000526020600020900160009054906101000a900473ffffffffffffffffffffffffffffffffffffffff1673ffffffffffffffffffffffffffffffffffffffff1673ffffffffffffffffffffffffffffffffffffffff1681526020019081526020016000208190555060056000600c838154811015156119c157fe5b906000526020600020900160009054906101000a900473ffffffffffffffffffffffffffffffffffffffff1673ffffffffffffffffffffffffffffffffffffffff1673ffffffffffffffffffffffffffffffffffffffff1681526020019081526020016000208054806001018281611a39919061393e565b916000526020600020906004020160006080604051908101604052803373ffffffffffffffffffffffffffffffffffffffff1681526020014281526020018681526020016000815250909190915060008201518160000160006101000a81548173ffffffffffffffffffffffffffffffffffffffff021916908373ffffffffffffffffffffffffffffffffffffffff160217905550602082015181600101556040820151816002015560608201518160030155505050808060010191505061181e565b85600d60003373ffffffffffffffffffffffffffffffffffffffff1673ffffffffffffffffffffffffffffffffffffffff168152602001908152602001600020541415611ba757600c8054806001018281611b579190613970565b9160005260206000209001600033909190916101000a81548173ffffffffffffffffffffffffffffffffffffffff021916908373ffffffffffffffffffffffffffffffffffffffff160217905550505b60019450611bb6565b5b600094505b50505050919050565b60008060003373ffffffffffffffffffffffffffffffffffffffff1673ffffffffffffffffffffffffffffffffffffffff16815260200190815260200160002060009054906101000a900460ff161515611c1857600080fd5b611c84836040518082805190602001908083835b602083101515611c515780518252602082019150602081019050602083039250611c2c565b6001836020036101000a038019825116818451168082178552505050505050905001915050604051809103902083613458565b905092915050565b60135481565b600160009054906101000a900473ffffffffffffffffffffffffffffffffffffffff1681565b600560205281600052604060002081815481101515611cd357fe5b9060005260206000209060040201600091509150508060000160009054906101000a900473ffffffffffffffffffffffffffffffffffffffff16908060010154908060020154908060030154905084565b600881815481101515611d3357fe5b90600052602060002090016000915054906101000a900473ffffffffffffffffffffffffffffffffffffffff1681565b6000803373ffffffffffffffffffffffffffffffffffffffff1673ffffffffffffffffffffffffffffffffffffffff16815260200190815260200160002060009054906101000a900460ff161515611dba57600080fd5b6000803373ffffffffffffffffffffffffffffffffffffffff1673ffffffffffffffffffffffffffffffffffffffff16815260200190815260200160002060009054906101000a900460ff161515611e1157600080fd5b60008060008373ffffffffffffffffffffffffffffffffffffffff1673ffffffffffffffffffffffffffffffffffffffff16815260200190815260200160002060006101000a81548160ff02191690831515021790555050565b6000806006811115611e7957fe5b600260159054906101000a900460ff166006811115611e9457fe5b1415611ec2577f50726f766973696f6e696e67000000000000000000000000000000000000000090506120e9565b60016006811115611ecf57fe5b600260159054906101000a900460ff166006811115611eea57fe5b1415611f18577f436572746966696564000000000000000000000000000000000000000000000090506120e9565b60026006811115611f2557fe5b600260159054906101000a900460ff166006811115611f4057fe5b1415611f6e577f4d6f64696669656400000000000000000000000000000000000000000000000090506120e9565b60036006811115611f7b57fe5b600260159054906101000a900460ff166006811115611f9657fe5b1415611fc4577f436f6d70726f6d6973656400000000000000000000000000000000000000000090506120e9565b60046006811115611fd157fe5b600260159054906101000a900460ff166006811115611fec57fe5b141561201a577f4d616c66756e6374696f6e696e6700000000000000000000000000000000000090506120e9565b6005600681111561202757fe5b600260159054906101000a900460ff16600681111561204257fe5b1415612070577f4861726d66756c0000000000000000000000000000000000000000000000000090506120e9565b60068081111561207c57fe5b600260159054906101000a900460ff16600681111561209757fe5b14156120c5577f436f756e7465726665697400000000000000000000000000000000000000000090506120e9565b7f436f756e7465726665697400000000000000000000000000000000000000000090505b90565b60035481565b6000600560008373ffffffffffffffffffffffffffffffffffffffff1673ffffffffffffffffffffffffffffffffffffffff168152602001908152602001600020805490509050919050565b60076020528060005260406000206000915054906101000a900460ff1681565b60006020528060005260406000206000915054906101000a900460ff1681565b61218661399c565b600880548060200260200160405190810160405280929190818152602001828054801561220857602002820191906000526020600020905b8160009054906101000a900473ffffffffffffffffffffffffffffffffffffffff1673ffffffffffffffffffffffffffffffffffffffff16815260200190600101908083116121be575b5050505050905090565b601060009054906101000a900473ffffffffffffffffffffffffffffffffffffffff1681565b60096020528060005260406000206000915054906101000a900460ff1681565b6000803373ffffffffffffffffffffffffffffffffffffffff1673ffffffffffffffffffffffffffffffffffffffff16815260200190815260200160002060009054906101000a900460ff1615156122af57600080fd5b600160028111156122bc57fe5b600260149054906101000a900460ff1660028111156122d757fe5b1415156122e357600080fd5b8073ffffffffffffffffffffffffffffffffffffffff166108fc839081150290604051600060405180830381858888f19350505050151561232357600080fd5b600560003073ffffffffffffffffffffffffffffffffffffffff1673ffffffffffffffffffffffffffffffffffffffff1681526020019081526020016000208054806001018281612374919061393e565b916000526020600020906004020160006080604051908101604052808573ffffffffffffffffffffffffffffffffffffffff1681526020014281526020018681526020016001815250909190915060008201518160000160006101000a81548173ffffffffffffffffffffffffffffffffffffffff021916908373ffffffffffffffffffffffffffffffffffffffff1602179055506020820151816001015560408201518160020155606082015181600301555050505050565b600f60009054906101000a900473ffffffffffffffffffffffffffffffffffffffff1681565b61245c6139b0565b6000803373ffffffffffffffffffffffffffffffffffffffff1673ffffffffffffffffffffffffffffffffffffffff16815260200190815260200160002060009054906101000a900460ff1615156124b357600080fd5b6006600083600019166000191681526020019081526020016000208054600181600116156101000203166002900480601f0160208091040260200160405190810160405280929190818152602001828054600181600116156101000203166002900480156125625780601f1061253757610100808354040283529160200191612562565b820191906000526020600020905b81548152906001019060200180831161254557829003601f168201915b50505050509050919050565b80600260156101000a81548160ff0219169083600681111561258c57fe5b0217905550600181600681111561259f57fe5b111561271357600160009054906101000a900473ffffffffffffffffffffffffffffffffffffffff1673ffffffffffffffffffffffffffffffffffffffff16630d6d3b6e3430337f4865616c74685761726e696e67000000000000000000000000000000000000006000604051602001526040518563ffffffff167c0100000000000000000000000000000000000000000000000000000000028152600401808473ffffffffffffffffffffffffffffffffffffffff1673ffffffffffffffffffffffffffffffffffffffff1681526020018373ffffffffffffffffffffffffffffffffffffffff1673ffffffffffffffffffffffffffffffffffffffff168152602001826000191660001916815260200193505050506020604051808303818588803b15156126ce57600080fd5b6125ee5a03f115156126df57600080fd5b50505050604051805190505060028060146101000a81548160ff0219169083600281111561270957fe5b021790555061287e565b600160009054906101000a900473ffffffffffffffffffffffffffffffffffffffff1673ffffffffffffffffffffffffffffffffffffffff16630d6d3b6e3430337f4865616c746855706461746500000000000000000000000000000000000000006000604051602001526040518563ffffffff167c0100000000000000000000000000000000000000000000000000000000028152600401808473ffffffffffffffffffffffffffffffffffffffff1673ffffffffffffffffffffffffffffffffffffffff1681526020018373ffffffffffffffffffffffffffffffffffffffff1673ffffffffffffffffffffffffffffffffffffffff168152602001826000191660001916815260200193505050506020604051808303818588803b151561283c57600080fd5b6125ee5a03f1151561284d57600080fd5b5050505060405180519050506001600260146101000a81548160ff0219169083600281111561287857fe5b02179055505b7fb6d7372bb54b80a5b1d60d3b1da737719783cc92a2095f10d9195105f7abeca581604051808260068111156128b057fe5b60ff16815260200191505060405180910390a16128d83460035461116690919063ffffffff16565b600381905550600560003073ffffffffffffffffffffffffffffffffffffffff1673ffffffffffffffffffffffffffffffffffffffff168152602001908152602001600020805480600101828161292f919061393e565b916000526020600020906004020160006080604051908101604052803373ffffffffffffffffffffffffffffffffffffffff1681526020014281526020013481526020016000815250909190915060008201518160000160006101000a81548173ffffffffffffffffffffffffffffffffffffffff021916908373ffffffffffffffffffffffffffffffffffffffff16021790555060208201518160010155604082015181600201556060820151816003015550505050565b6000816040518082805190602001908083835b602083101515612a2057805182526020820191506020810190506020830392506129fb565b6001836020036101000a03801982511681845116808217855250505050505090500191505060405180910390209050919050565b600c81815481101515612a6357fe5b90600052602060002090016000915054906101000a900473ffffffffffffffffffffffffffffffffffffffff1681565b6000600260159054906101000a900460ff16905090565b600760003373ffffffffffffffffffffffffffffffffffffffff1673ffffffffffffffffffffffffffffffffffffffff16815260200190815260200160002060009054906101000a900460ff161515612b0257600080fd5b600760003373ffffffffffffffffffffffffffffffffffffffff1673ffffffffffffffffffffffffffffffffffffffff16815260200190815260200160002060009054906101000a900460ff161515612b5a57600080fd5b6001600760008373ffffffffffffffffffffffffffffffffffffffff1673ffffffffffffffffffffffffffffffffffffffff16815260200190815260200160002060006101000a81548160ff02191690831515021790555060088054806001018281612bc69190613970565b9160005260206000209001600083909190916101000a81548173ffffffffffffffffffffffffffffffffffffffff021916908373ffffffffffffffffffffffffffffffffffffffff1602179055505050565b6000803373ffffffffffffffffffffffffffffffffffffffff1673ffffffffffffffffffffffffffffffffffffffff16815260200190815260200160002060009054906101000a900460ff161515612c6f57600080fd5b6000803373ffffffffffffffffffffffffffffffffffffffff1673ffffffffffffffffffffffffffffffffffffffff16815260200190815260200160002060009054906101000a900460ff161515612cc657600080fd5b60016000808373ffffffffffffffffffffffffffffffffffffffff1673ffffffffffffffffffffffffffffffffffffffff16815260200190815260200160002060006101000a81548160ff02191690831515021790555050565b600260159054906101000a900460ff1681565b60046020528060005260406000206000915090505481565b6000600760003373ffffffffffffffffffffffffffffffffffffffff1673ffffffffffffffffffffffffffffffffffffffff16815260200190815260200160002060009054906101000a900460ff161515612da557600080fd5b6000600960008473ffffffffffffffffffffffffffffffffffffffff1673ffffffffffffffffffffffffffffffffffffffff16815260200190815260200160002060006101000a81548160ff021916908315150217905550600090505b600a80549050811015612ec857600a81815481101515612e1e57fe5b906000526020600020900160009054906101000a900473ffffffffffffffffffffffffffffffffffffffff1673ffffffffffffffffffffffffffffffffffffffff168273ffffffffffffffffffffffffffffffffffffffff161415612ebb57600a81815481101515612e8c57fe5b906000526020600020900160006101000a81549073ffffffffffffffffffffffffffffffffffffffff02191690555b8080600101915050612e02565b5050565b600b60019054906101000a900460ff1681565b600a81815481101515612eee57fe5b90600052602060002090016000915054906101000a900473ffffffffffffffffffffffffffffffffffffffff1681565b60125481565b6001600260146101000a81548160ff02191690836002811115612f4357fe5b0217905550612f5d3460035461116690919063ffffffff16565b600381905550600560008273ffffffffffffffffffffffffffffffffffffffff1673ffffffffffffffffffffffffffffffffffffffff1681526020019081526020016000208054806001018281612fb4919061393e565b916000526020600020906004020160006080604051908101604052803373ffffffffffffffffffffffffffffffffffffffff1681526020014281526020013481526020016000815250909190915060008201518160000160006101000a81548173ffffffffffffffffffffffffffffffffffffffff021916908373ffffffffffffffffffffffffffffffffffffffff16021790555060208201518160010155604082015181600201556060820151816003015550505050565b61307561399c565b600c8054806020026020016040519081016040528092919081815260200182805480156130f757602002820191906000526020600020905b8160009054906101000a900473ffffffffffffffffffffffffffffffffffffffff1673ffffffffffffffffffffffffffffffffffffffff16815260200190600101908083116130ad575b5050505050905090565b600d6020528060005260406000206000915090505481565b600b60029054906101000a900460ff1681565b60115481565b6000803373ffffffffffffffffffffffffffffffffffffffff1673ffffffffffffffffffffffffffffffffffffffff16815260200190815260200160002060009054906101000a900460ff16151561318957600080fd5b6001600281111561319657fe5b600260149054906101000a900460ff1660028111156131b157fe5b1415156131bd57600080fd5b600160009054906101000a900473ffffffffffffffffffffffffffffffffffffffff1673ffffffffffffffffffffffffffffffffffffffff1663a9059cbb82846000604051602001526040518363ffffffff167c0100000000000000000000000000000000000000000000000000000000028152600401808373ffffffffffffffffffffffffffffffffffffffff1673ffffffffffffffffffffffffffffffffffffffff16815260200182815260200192505050602060405180830381600087803b151561328a57600080fd5b6102c65a03f1151561329b57600080fd5b5050506040518051905050600560003073ffffffffffffffffffffffffffffffffffffffff1673ffffffffffffffffffffffffffffffffffffffff16815260200190815260200160002080548060010182816132f7919061393e565b916000526020600020906004020160006080604051908101604052808573ffffffffffffffffffffffffffffffffffffffff1681526020014281526020018681526020016001815250909190915060008201518160000160006101000a81548173ffffffffffffffffffffffffffffffffffffffff021916908373ffffffffffffffffffffffffffffffffffffffff1602179055506020820151816001015560408201518160020155606082015181600301555050505050565b600260149054906101000a900460ff1681565b6133cc61399c565b600a80548060200260200160405190810160405280929190818152602001828054801561344e57602002820191906000526020600020905b8160009054906101000a900473ffffffffffffffffffffffffffffffffffffffff1673ffffffffffffffffffffffffffffffffffffffff1681526020019060010190808311613404575b5050505050905090565b60008060003373ffffffffffffffffffffffffffffffffffffffff1673ffffffffffffffffffffffffffffffffffffffff16815260200190815260200160002060009054906101000a900460ff1615156134b157600080fd5b8160066000856000191660001916815260200190815260200160002090805190602001906134e09291906139c4565b506001905092915050565b60145481565b600e6020528060005260406000206000915090505481565b6000600760003373ffffffffffffffffffffffffffffffffffffffff1673ffffffffffffffffffffffffffffffffffffffff16815260200190815260200160002060009054906101000a900460ff16151561356357600080fd5b600760003373ffffffffffffffffffffffffffffffffffffffff1673ffffffffffffffffffffffffffffffffffffffff16815260200190815260200160002060009054906101000a900460ff1615156135bb57600080fd5b6000600760008473ffffffffffffffffffffffffffffffffffffffff1673ffffffffffffffffffffffffffffffffffffffff16815260200190815260200160002060006101000a81548160ff021916908315150217905550600090505b6008805490508110156136de5760088181548110151561363457fe5b906000526020600020900160009054906101000a900473ffffffffffffffffffffffffffffffffffffffff1673ffffffffffffffffffffffffffffffffffffffff168273ffffffffffffffffffffffffffffffffffffffff1614156136d1576008818154811015156136a257fe5b906000526020600020900160006101000a81549073ffffffffffffffffffffffffffffffffffffffff02191690555b8080600101915050613618565b5050565b600760003373ffffffffffffffffffffffffffffffffffffffff1673ffffffffffffffffffffffffffffffffffffffff16815260200190815260200160002060009054906101000a900460ff16151561373a57600080fd5b6001600960008373ffffffffffffffffffffffffffffffffffffffff1673ffffffffffffffffffffffffffffffffffffffff16815260200190815260200160002060006101000a81548160ff021916908315150217905550600a80548060010182816137a69190613970565b9160005260206000209001600083909190916101000a81548173ffffffffffffffffffffffffffffffffffffffff021916908373ffffffffffffffffffffffffffffffffffffffff160217905550506001600b60006101000a81548160ff02191690831515021790555050565b600260009054906101000a900473ffffffffffffffffffffffffffffffffffffffff1681565b6138416139b0565b6000803373ffffffffffffffffffffffffffffffffffffffff1673ffffffffffffffffffffffffffffffffffffffff16815260200190815260200160002060009054906101000a900460ff16151561389857600080fd5b613903826040518082805190602001908083835b6020831015156138d157805182526020820191506020810190506020830392506138ac565b6001836020036101000a0380198251168184511680821785525050505050509050019150506040518091039020612454565b9050919050565b600080828481151561391857fe5b0490508091505092915050565b600082821115151561393357fe5b818303905092915050565b81548183558181151161396b5760040281600402836000526020600020918201910161396a9190613a44565b5b505050565b815481835581811511613997578183600052602060002091820191016139969190613aa2565b5b505050565b602060405190810160405280600081525090565b602060405190810160405280600081525090565b828054600181600116156101000203166002900490600052602060002090601f016020900481019282601f10613a0557805160ff1916838001178555613a33565b82800160010185558215613a33579182015b82811115613a32578251825591602001919060010190613a17565b5b509050613a409190613aa2565b5090565b613a9f91905b80821115613a9b57600080820160006101000a81549073ffffffffffffffffffffffffffffffffffffffff021916905560018201600090556002820160009055600382016000905550600401613a4a565b5090565b90565b613ac491905b80821115613ac0576000816000905550600101613aa8565b5090565b905600a165627a7a72305820bf8b383116037ab6b1c272c7342f2ba3172c36bc51736c4b13800c7da207560e0029a165627a7a723058206fc218b35e017ec792f7d75b4be3ade72c40ef4415e04884074c52c7ee0684ce0029",
  "source": "pragma solidity ^0.4.18;\n\nimport \"./pki/PoolKey.sol\";\nimport \"./SmartKey.sol\";\n\ncontract SmartPoolKey is Administered\n{\n    SmartKey smartKey;\n    address vault;\n    mapping (address => PoolKey) public  smartPoolKeys;\n    \n    function SmartPoolKey(SmartKey _smartKey, address[] adminAddress) \n    Administered(adminAddress)\n    public\n    {\n    \n        smartKey=_smartKey;\n        vault=adminAddress[0];\n    }\n    \n    function setVault(address _vault) \n    onlyAdmin \n    public\n    returns (bool) {\n        vault=_vault;\n        return true;                \n    }\n    \n    function getSmartPoolKey(address beneficiary) \n    view\n    public\n    returns (address) \n    {\n        return smartPoolKeys[beneficiary];\n    }\n    \n    function addSmartPoolKey(address beneficiary, uint max_contrib, uint max_per_contrib, uint min_per_contrib, address[] admins, bool _has_whitelist, uint fee, bool _autoDistribute) \n    public\n    returns (address)\n    {\n        require(beneficiary != 0x0);\n        PoolKey key;\n        if (smartPoolKeys[beneficiary] == address(0)) \n        {\n            key = new PoolKey(smartKey, vault, beneficiary, max_contrib, max_per_contrib, min_per_contrib, admins, _has_whitelist, fee, _autoDistribute);    \n            smartPoolKeys[beneficiary]=key;\n        }\n        else \n        {\n            key = smartPoolKeys[beneficiary];\n        }\n        return key;\n    }\n    \n}\n",
  "sourcePath": "/windata/iotblock/contracts/SmartPoolKey.sol",
  "compiler": {
    "name": "solc",
    "version": "0.4.19+commit.c4cbbb05.Emscripten.clang"
  },
  "schemaVersion": "2.0.0",
  "updatedAt": "2018-11-21T11:31:57.923Z"
}