{
  "contractName": "SmartRent",
  "abi": [
    {
      "constant": true,
      "inputs": [
        {
          "name": "",
          "type": "uint256"
        }
      ],
      "name": "admins",
      "outputs": [
        {
          "name": "",
          "type": "address"
        }
      ],
      "payable": false,
      "stateMutability": "view",
      "type": "function"
    },
    {
      "constant": true,
      "inputs": [
        {
          "name": "",
          "type": "address"
        }
      ],
      "name": "isAdmin",
      "outputs": [
        {
          "name": "",
          "type": "bool"
        }
      ],
      "payable": false,
      "stateMutability": "view",
      "type": "function"
    },
    {
      "constant": true,
      "inputs": [],
      "name": "getAdmins",
      "outputs": [
        {
          "name": "",
          "type": "address[]"
        }
      ],
      "payable": false,
      "stateMutability": "view",
      "type": "function"
    },
    {
      "constant": false,
      "inputs": [
        {
          "name": "admin",
          "type": "address"
        }
      ],
      "name": "addAdmin",
      "outputs": [],
      "payable": false,
      "stateMutability": "nonpayable",
      "type": "function"
    },
    {
      "constant": false,
      "inputs": [
        {
          "name": "banned",
          "type": "address"
        }
      ],
      "name": "addBanned",
      "outputs": [],
      "payable": false,
      "stateMutability": "nonpayable",
      "type": "function"
    },
    {
      "inputs": [
        {
          "name": "_graphRoot",
          "type": "address"
        },
        {
          "name": "_smartKey",
          "type": "address"
        },
        {
          "name": "adminAddress",
          "type": "address[]"
        }
      ],
      "payable": false,
      "stateMutability": "nonpayable",
      "type": "constructor"
    },
    {
      "constant": false,
      "inputs": [
        {
          "name": "_node",
          "type": "address"
        }
      ],
      "name": "rentCatalogue",
      "outputs": [],
      "payable": true,
      "stateMutability": "payable",
      "type": "function"
    }
  ],
  "bytecode": "0x6060604052341561000f57600080fd5b604051610d06380380610d06833981016040528080519060200190919080519060200190919080518201919050508060008090505b81518110156100c8576001600080848481518110151561006057fe5b9060200190602002015173ffffffffffffffffffffffffffffffffffffffff1673ffffffffffffffffffffffffffffffffffffffff16815260200190815260200160002060006101000a81548160ff0219169083151502179055508080600101915050610044565b81600190805190602001906100de92919061016b565b50505081600260006101000a81548173ffffffffffffffffffffffffffffffffffffffff021916908373ffffffffffffffffffffffffffffffffffffffff16021790555082600360006101000a81548173ffffffffffffffffffffffffffffffffffffffff021916908373ffffffffffffffffffffffffffffffffffffffff160217905550505050610238565b8280548282559060005260206000209081019282156101e4579160200282015b828111156101e35782518260006101000a81548173ffffffffffffffffffffffffffffffffffffffff021916908373ffffffffffffffffffffffffffffffffffffffff1602179055509160200191906001019061018b565b5b5090506101f191906101f5565b5090565b61023591905b8082111561023157600081816101000a81549073ffffffffffffffffffffffffffffffffffffffff0219169055506001016101fb565b5090565b90565b610abf806102476000396000f300606060405260043610610078576000357c0100000000000000000000000000000000000000000000000000000000900463ffffffff16806314bfd6d01461007d5780631c483735146100e057806324d7806c1461010e57806331ae450b1461015f57806370480275146101c9578063e1b2e8b314610202575b600080fd5b341561008857600080fd5b61009e600480803590602001909190505061023b565b604051808273ffffffffffffffffffffffffffffffffffffffff1673ffffffffffffffffffffffffffffffffffffffff16815260200191505060405180910390f35b61010c600480803573ffffffffffffffffffffffffffffffffffffffff1690602001909190505061027a565b005b341561011957600080fd5b610145600480803573ffffffffffffffffffffffffffffffffffffffff16906020019091905050610639565b604051808215151515815260200191505060405180910390f35b341561016a57600080fd5b610172610659565b6040518080602001828103825283818151815260200191508051906020019060200280838360005b838110156101b557808201518184015260208101905061019a565b505050509050019250505060405180910390f35b34156101d457600080fd5b610200600480803573ffffffffffffffffffffffffffffffffffffffff169060200190919050506106ed565b005b341561020d57600080fd5b610239600480803573ffffffffffffffffffffffffffffffffffffffff16906020019091905050610858565b005b60018181548110151561024a57fe5b90600052602060002090016000915054906101000a900473ffffffffffffffffffffffffffffffffffffffff1681565b600260009054906101000a900473ffffffffffffffffffffffffffffffffffffffff1673ffffffffffffffffffffffffffffffffffffffff166370a08231826000604051602001526040518263ffffffff167c0100000000000000000000000000000000000000000000000000000000028152600401808273ffffffffffffffffffffffffffffffffffffffff1673ffffffffffffffffffffffffffffffffffffffff168152602001915050602060405180830381600087803b151561033f57600080fd5b6102c65a03f1151561035057600080fd5b50505060405180519050600260009054906101000a900473ffffffffffffffffffffffffffffffffffffffff1673ffffffffffffffffffffffffffffffffffffffff166370a08231336000604051602001526040518263ffffffff167c0100000000000000000000000000000000000000000000000000000000028152600401808273ffffffffffffffffffffffffffffffffffffffff1673ffffffffffffffffffffffffffffffffffffffff168152602001915050602060405180830381600087803b151561041f57600080fd5b6102c65a03f1151561043057600080fd5b50505060405180519050101515610636578073ffffffffffffffffffffffffffffffffffffffff16637065cb48336040518263ffffffff167c0100000000000000000000000000000000000000000000000000000000028152600401808273ffffffffffffffffffffffffffffffffffffffff1673ffffffffffffffffffffffffffffffffffffffff168152602001915050600060405180830381600087803b15156104db57600080fd5b6102c65a03f115156104ec57600080fd5b505050600260009054906101000a900473ffffffffffffffffffffffffffffffffffffffff1673ffffffffffffffffffffffffffffffffffffffff16630d6d3b6e3430337f436174616c6f6775652052656e740000000000000000000000000000000000006000604051602001526040518563ffffffff167c0100000000000000000000000000000000000000000000000000000000028152600401808473ffffffffffffffffffffffffffffffffffffffff1673ffffffffffffffffffffffffffffffffffffffff1681526020018373ffffffffffffffffffffffffffffffffffffffff1673ffffffffffffffffffffffffffffffffffffffff168152602001826000191660001916815260200193505050506020604051808303818588803b151561061857600080fd5b6125ee5a03f1151561062957600080fd5b5050505060405180519050505b50565b60006020528060005260406000206000915054906101000a900460ff1681565b610661610a2e565b60018054806020026020016040519081016040528092919081815260200182805480156106e357602002820191906000526020600020905b8160009054906101000a900473ffffffffffffffffffffffffffffffffffffffff1673ffffffffffffffffffffffffffffffffffffffff1681526020019060010190808311610699575b5050505050905090565b6000803373ffffffffffffffffffffffffffffffffffffffff1673ffffffffffffffffffffffffffffffffffffffff16815260200190815260200160002060009054906101000a900460ff16151561074457600080fd5b6000803373ffffffffffffffffffffffffffffffffffffffff1673ffffffffffffffffffffffffffffffffffffffff16815260200190815260200160002060009054906101000a900460ff16151561079b57600080fd5b60016000808373ffffffffffffffffffffffffffffffffffffffff1673ffffffffffffffffffffffffffffffffffffffff16815260200190815260200160002060006101000a81548160ff021916908315150217905550600180548060010182816108069190610a42565b9160005260206000209001600083909190916101000a81548173ffffffffffffffffffffffffffffffffffffffff021916908373ffffffffffffffffffffffffffffffffffffffff1602179055505050565b60008060003373ffffffffffffffffffffffffffffffffffffffff1673ffffffffffffffffffffffffffffffffffffffff16815260200190815260200160002060009054906101000a900460ff1615156108b157600080fd5b6000803373ffffffffffffffffffffffffffffffffffffffff1673ffffffffffffffffffffffffffffffffffffffff16815260200190815260200160002060009054906101000a900460ff16151561090857600080fd5b60008060008473ffffffffffffffffffffffffffffffffffffffff1673ffffffffffffffffffffffffffffffffffffffff16815260200190815260200160002060006101000a81548160ff021916908315150217905550600090505b600180549050811015610a2a5760018181548110151561098057fe5b906000526020600020900160009054906101000a900473ffffffffffffffffffffffffffffffffffffffff1673ffffffffffffffffffffffffffffffffffffffff168273ffffffffffffffffffffffffffffffffffffffff161415610a1d576001818154811015156109ee57fe5b906000526020600020900160006101000a81549073ffffffffffffffffffffffffffffffffffffffff02191690555b8080600101915050610964565b5050565b602060405190810160405280600081525090565b815481835581811511610a6957818360005260206000209182019101610a689190610a6e565b5b505050565b610a9091905b80821115610a8c576000816000905550600101610a74565b5090565b905600a165627a7a72305820d146c9241cdf7b3f43da61256d032c5f0e08ed051b187fd7680419a4e6cc17170029",
  "source": "pragma solidity ^0.4.18; \n\nimport \"./GraphRoot.sol\";\n\ncontract SmartRent is Administered {\n  \n  SmartKey smartKey;\n  GraphRoot graphRoot;\n  \n         \n  function SmartRent(GraphRoot _graphRoot, SmartKey _smartKey, address[] adminAddress) \n    Administered(adminAddress)\n    public\n  {\n      smartKey=_smartKey; \n      graphRoot=_graphRoot;\n  }\n\n  \n  function rentCatalogue(GraphNode _node)\n  public\n  payable\n  {\n    \n    if (smartKey.balanceOf(msg.sender) >= smartKey.balanceOf(_node)) {\n        //_node.removeOwner(_node.vault);\n        //_node.vault=msg.sender;\n        _node.addOwner(msg.sender);\n        smartKey.loadSmartKey.value(msg.value)(Key(this), address(msg.sender), bytes32(\"Catalogue Rent\"));\n    }\n  }\n   \n\n  \n}",
  "sourcePath": "/windata/iotblock/contracts/SmartRent.sol",
  "compiler": {
    "name": "solc",
    "version": "0.4.19+commit.c4cbbb05.Emscripten.clang"
  },
  "schemaVersion": "2.0.0",
  "updatedAt": "2018-11-21T11:43:20.867Z"
}