{
  "contractName": "SmartKey",
  "abi": [
    {
      "constant": true,
      "inputs": [],
      "name": "mintingFinished",
      "outputs": [
        {
          "name": "",
          "type": "bool"
        }
      ],
      "payable": false,
      "stateMutability": "view",
      "type": "function"
    },
    {
      "constant": true,
      "inputs": [],
      "name": "name",
      "outputs": [
        {
          "name": "",
          "type": "string"
        }
      ],
      "payable": false,
      "stateMutability": "view",
      "type": "function"
    },
    {
      "constant": false,
      "inputs": [
        {
          "name": "_spender",
          "type": "address"
        },
        {
          "name": "_value",
          "type": "uint256"
        }
      ],
      "name": "approve",
      "outputs": [
        {
          "name": "",
          "type": "bool"
        }
      ],
      "payable": false,
      "stateMutability": "nonpayable",
      "type": "function"
    },
    {
      "constant": true,
      "inputs": [
        {
          "name": "",
          "type": "uint256"
        }
      ],
      "name": "admins",
      "outputs": [
        {
          "name": "",
          "type": "address"
        }
      ],
      "payable": false,
      "stateMutability": "view",
      "type": "function"
    },
    {
      "constant": true,
      "inputs": [],
      "name": "totalSupply",
      "outputs": [
        {
          "name": "",
          "type": "uint256"
        }
      ],
      "payable": false,
      "stateMutability": "view",
      "type": "function"
    },
    {
      "constant": false,
      "inputs": [
        {
          "name": "_from",
          "type": "address"
        },
        {
          "name": "_to",
          "type": "address"
        },
        {
          "name": "_value",
          "type": "uint256"
        }
      ],
      "name": "transferFrom",
      "outputs": [
        {
          "name": "",
          "type": "bool"
        }
      ],
      "payable": false,
      "stateMutability": "nonpayable",
      "type": "function"
    },
    {
      "constant": true,
      "inputs": [
        {
          "name": "",
          "type": "address"
        }
      ],
      "name": "isAdmin",
      "outputs": [
        {
          "name": "",
          "type": "bool"
        }
      ],
      "payable": false,
      "stateMutability": "view",
      "type": "function"
    },
    {
      "constant": true,
      "inputs": [],
      "name": "rate",
      "outputs": [
        {
          "name": "",
          "type": "uint256"
        }
      ],
      "payable": false,
      "stateMutability": "view",
      "type": "function"
    },
    {
      "constant": true,
      "inputs": [],
      "name": "decimals",
      "outputs": [
        {
          "name": "",
          "type": "uint8"
        }
      ],
      "payable": false,
      "stateMutability": "view",
      "type": "function"
    },
    {
      "constant": true,
      "inputs": [],
      "name": "getAdmins",
      "outputs": [
        {
          "name": "",
          "type": "address[]"
        }
      ],
      "payable": false,
      "stateMutability": "view",
      "type": "function"
    },
    {
      "constant": false,
      "inputs": [
        {
          "name": "_rate",
          "type": "uint256"
        }
      ],
      "name": "setRate",
      "outputs": [
        {
          "name": "",
          "type": "uint256"
        }
      ],
      "payable": false,
      "stateMutability": "nonpayable",
      "type": "function"
    },
    {
      "constant": false,
      "inputs": [
        {
          "name": "_to",
          "type": "address"
        },
        {
          "name": "_amount",
          "type": "uint256"
        }
      ],
      "name": "mint",
      "outputs": [
        {
          "name": "",
          "type": "bool"
        }
      ],
      "payable": false,
      "stateMutability": "nonpayable",
      "type": "function"
    },
    {
      "constant": true,
      "inputs": [],
      "name": "version",
      "outputs": [
        {
          "name": "",
          "type": "string"
        }
      ],
      "payable": false,
      "stateMutability": "view",
      "type": "function"
    },
    {
      "constant": false,
      "inputs": [
        {
          "name": "_spender",
          "type": "address"
        },
        {
          "name": "_subtractedValue",
          "type": "uint256"
        }
      ],
      "name": "decreaseApproval",
      "outputs": [
        {
          "name": "",
          "type": "bool"
        }
      ],
      "payable": false,
      "stateMutability": "nonpayable",
      "type": "function"
    },
    {
      "constant": false,
      "inputs": [
        {
          "name": "admin",
          "type": "address"
        }
      ],
      "name": "addAdmin",
      "outputs": [],
      "payable": false,
      "stateMutability": "nonpayable",
      "type": "function"
    },
    {
      "constant": true,
      "inputs": [
        {
          "name": "_owner",
          "type": "address"
        }
      ],
      "name": "balanceOf",
      "outputs": [
        {
          "name": "balance",
          "type": "uint256"
        }
      ],
      "payable": false,
      "stateMutability": "view",
      "type": "function"
    },
    {
      "constant": true,
      "inputs": [
        {
          "name": "",
          "type": "address"
        },
        {
          "name": "",
          "type": "uint256"
        }
      ],
      "name": "events",
      "outputs": [
        {
          "name": "account",
          "type": "address"
        },
        {
          "name": "date",
          "type": "uint256"
        },
        {
          "name": "amount",
          "type": "uint256"
        },
        {
          "name": "transaction_name",
          "type": "bytes32"
        },
        {
          "name": "health_status",
          "type": "bytes32"
        },
        {
          "name": "user_health_status",
          "type": "bytes32"
        }
      ],
      "payable": false,
      "stateMutability": "view",
      "type": "function"
    },
    {
      "constant": true,
      "inputs": [
        {
          "name": "",
          "type": "address"
        }
      ],
      "name": "smartKeys",
      "outputs": [
        {
          "name": "",
          "type": "address"
        }
      ],
      "payable": false,
      "stateMutability": "view",
      "type": "function"
    },
    {
      "constant": true,
      "inputs": [],
      "name": "symbol",
      "outputs": [
        {
          "name": "",
          "type": "string"
        }
      ],
      "payable": false,
      "stateMutability": "view",
      "type": "function"
    },
    {
      "constant": true,
      "inputs": [],
      "name": "tokenMinted",
      "outputs": [
        {
          "name": "",
          "type": "uint256"
        }
      ],
      "payable": false,
      "stateMutability": "view",
      "type": "function"
    },
    {
      "constant": false,
      "inputs": [
        {
          "name": "_to",
          "type": "address"
        },
        {
          "name": "_value",
          "type": "uint256"
        }
      ],
      "name": "transfer",
      "outputs": [
        {
          "name": "",
          "type": "bool"
        }
      ],
      "payable": false,
      "stateMutability": "nonpayable",
      "type": "function"
    },
    {
      "constant": false,
      "inputs": [
        {
          "name": "_spender",
          "type": "address"
        },
        {
          "name": "_addedValue",
          "type": "uint256"
        }
      ],
      "name": "increaseApproval",
      "outputs": [
        {
          "name": "",
          "type": "bool"
        }
      ],
      "payable": false,
      "stateMutability": "nonpayable",
      "type": "function"
    },
    {
      "constant": true,
      "inputs": [
        {
          "name": "_owner",
          "type": "address"
        },
        {
          "name": "_spender",
          "type": "address"
        }
      ],
      "name": "allowance",
      "outputs": [
        {
          "name": "",
          "type": "uint256"
        }
      ],
      "payable": false,
      "stateMutability": "view",
      "type": "function"
    },
    {
      "constant": false,
      "inputs": [
        {
          "name": "banned",
          "type": "address"
        }
      ],
      "name": "addBanned",
      "outputs": [],
      "payable": false,
      "stateMutability": "nonpayable",
      "type": "function"
    },
    {
      "inputs": [
        {
          "name": "_tokens",
          "type": "uint256"
        },
        {
          "name": "_rate",
          "type": "uint256"
        },
        {
          "name": "adminAddress",
          "type": "address[]"
        }
      ],
      "payable": false,
      "stateMutability": "nonpayable",
      "type": "constructor"
    },
    {
      "payable": true,
      "stateMutability": "payable",
      "type": "fallback"
    },
    {
      "anonymous": false,
      "inputs": [
        {
          "indexed": false,
          "name": "key",
          "type": "address"
        },
        {
          "indexed": false,
          "name": "transacting_contract",
          "type": "address"
        },
        {
          "indexed": false,
          "name": "eth_amount",
          "type": "uint256"
        },
        {
          "indexed": false,
          "name": "transaction_name",
          "type": "bytes32"
        },
        {
          "indexed": false,
          "name": "health_status",
          "type": "bytes32"
        },
        {
          "indexed": false,
          "name": "user_health_status",
          "type": "bytes32"
        }
      ],
      "name": "KeyEvent",
      "type": "event"
    },
    {
      "anonymous": false,
      "inputs": [
        {
          "indexed": true,
          "name": "to",
          "type": "address"
        },
        {
          "indexed": false,
          "name": "amount",
          "type": "uint256"
        }
      ],
      "name": "Mint",
      "type": "event"
    },
    {
      "anonymous": false,
      "inputs": [],
      "name": "MintFinished",
      "type": "event"
    },
    {
      "anonymous": false,
      "inputs": [],
      "name": "MintReopened",
      "type": "event"
    },
    {
      "anonymous": false,
      "inputs": [
        {
          "indexed": true,
          "name": "owner",
          "type": "address"
        },
        {
          "indexed": true,
          "name": "spender",
          "type": "address"
        },
        {
          "indexed": false,
          "name": "value",
          "type": "uint256"
        }
      ],
      "name": "Approval",
      "type": "event"
    },
    {
      "anonymous": false,
      "inputs": [
        {
          "indexed": true,
          "name": "from",
          "type": "address"
        },
        {
          "indexed": true,
          "name": "to",
          "type": "address"
        },
        {
          "indexed": false,
          "name": "value",
          "type": "uint256"
        }
      ],
      "name": "Transfer",
      "type": "event"
    },
    {
      "constant": false,
      "inputs": [
        {
          "name": "_vault",
          "type": "address"
        }
      ],
      "name": "setVault",
      "outputs": [
        {
          "name": "",
          "type": "bool"
        }
      ],
      "payable": false,
      "stateMutability": "nonpayable",
      "type": "function"
    },
    {
      "constant": true,
      "inputs": [
        {
          "name": "addr",
          "type": "address"
        }
      ],
      "name": "getBalance",
      "outputs": [
        {
          "name": "",
          "type": "uint256"
        }
      ],
      "payable": false,
      "stateMutability": "view",
      "type": "function"
    },
    {
      "constant": true,
      "inputs": [
        {
          "name": "beneficiary",
          "type": "address"
        }
      ],
      "name": "getSmartKey",
      "outputs": [
        {
          "name": "",
          "type": "address"
        }
      ],
      "payable": false,
      "stateMutability": "view",
      "type": "function"
    },
    {
      "constant": true,
      "inputs": [
        {
          "name": "_address",
          "type": "address"
        }
      ],
      "name": "getEventCount",
      "outputs": [
        {
          "name": "",
          "type": "uint256"
        }
      ],
      "payable": false,
      "stateMutability": "view",
      "type": "function"
    },
    {
      "constant": false,
      "inputs": [
        {
          "name": "key",
          "type": "address"
        },
        {
          "name": "transacting_contract",
          "type": "address"
        },
        {
          "name": "transaction_name",
          "type": "bytes32"
        }
      ],
      "name": "loadSmartKey",
      "outputs": [
        {
          "name": "",
          "type": "bool"
        }
      ],
      "payable": true,
      "stateMutability": "payable",
      "type": "function"
    },
    {
      "constant": false,
      "inputs": [
        {
          "name": "key",
          "type": "address"
        },
        {
          "name": "beneficiary",
          "type": "address"
        }
      ],
      "name": "putSmartKey",
      "outputs": [],
      "payable": false,
      "stateMutability": "nonpayable",
      "type": "function"
    },
    {
      "constant": false,
      "inputs": [
        {
          "name": "_user",
          "type": "address"
        }
      ],
      "name": "addOwner",
      "outputs": [],
      "payable": false,
      "stateMutability": "nonpayable",
      "type": "function"
    },
    {
      "constant": false,
      "inputs": [
        {
          "name": "amount",
          "type": "uint256"
        },
        {
          "name": "sender",
          "type": "address"
        },
        {
          "name": "beneficiary",
          "type": "address"
        },
        {
          "name": "isEth",
          "type": "bool"
        }
      ],
      "name": "transferFromKey",
      "outputs": [],
      "payable": false,
      "stateMutability": "nonpayable",
      "type": "function"
    },
    {
      "constant": true,
      "inputs": [
        {
          "name": "amount",
          "type": "uint256"
        }
      ],
      "name": "convertToToken",
      "outputs": [
        {
          "name": "",
          "type": "uint256"
        }
      ],
      "payable": false,
      "stateMutability": "view",
      "type": "function"
    }
  ],
  "bytecode": "0x60606040526000600660006101000a81548160ff0219169083151502179055506040805190810160405280601681526020017f496f54426c6f636b5f536d6172744b65795f302e303100000000000000000000815250600b90805190602001906200006c92919062000511565b5034156200007957600080fd5b604051620062c1380380620062c183398101604052808051906020019091908051906020019091908051820191905050818160008090505b815181101562000139576001600360008484815181101515620000d057fe5b9060200190602002015173ffffffffffffffffffffffffffffffffffffffff1673ffffffffffffffffffffffffffffffffffffffff16815260200190815260200160002060006101000a81548160ff0219169083151502179055508080600101915050620000b1565b81600490805190602001906200015192919062000598565b5050508060078190555060006005819055505080600490805190602001906200017c92919062000598565b50600460008154811015156200018e57fe5b906000526020600020900160009054906101000a900473ffffffffffffffffffffffffffffffffffffffff16600c60006101000a81548173ffffffffffffffffffffffffffffffffffffffff021916908373ffffffffffffffffffffffffffffffffffffffff1602179055506200023c600c60009054906101000a900473ffffffffffffffffffffffffffffffffffffffff1684620002fe6401000000000262001d8e176401000000009004565b506040805190810160405280600881526020017f494f54424c4f434b000000000000000000000000000000000000000000000000815250600890805190602001906200028a92919062000511565b506008600960006101000a81548160ff021916908360ff1602179055506040805190810160405280600881526020017f494f54424c4f434b000000000000000000000000000000000000000000000000815250600a9080519060200190620002f492919062000511565b5050505062000695565b6000600360003373ffffffffffffffffffffffffffffffffffffffff1673ffffffffffffffffffffffffffffffffffffffff16815260200190815260200160002060009054906101000a900460ff1615156200035957600080fd5b600660009054906101000a900460ff161515156200037657600080fd5b6000821115156200038657600080fd5b8160055401600581905550620003f2826000808673ffffffffffffffffffffffffffffffffffffffff1673ffffffffffffffffffffffffffffffffffffffff16815260200190815260200160002054620004f26401000000000262003a2b179091906401000000009004565b6000808573ffffffffffffffffffffffffffffffffffffffff1673ffffffffffffffffffffffffffffffffffffffff168152602001908152602001600020819055508273ffffffffffffffffffffffffffffffffffffffff167f0f6798a560793a54c3bcfe86a93cde1e73087d944c0ea20544137d4121396885836040518082815260200191505060405180910390a28273ffffffffffffffffffffffffffffffffffffffff16600073ffffffffffffffffffffffffffffffffffffffff167fddf252ad1be2c89b69c2b068fc378daa952ba7f163c4a11628f55a4df523b3ef846040518082815260200191505060405180910390a36001905092915050565b60008082840190508381101515156200050757fe5b8091505092915050565b828054600181600116156101000203166002900490600052602060002090601f016020900481019282601f106200055457805160ff191683800117855562000585565b8280016001018555821562000585579182015b828111156200058457825182559160200191906001019062000567565b5b50905062000594919062000627565b5090565b82805482825590600052602060002090810192821562000614579160200282015b82811115620006135782518260006101000a81548173ffffffffffffffffffffffffffffffffffffffff021916908373ffffffffffffffffffffffffffffffffffffffff16021790555091602001919060010190620005b9565b5b5090506200062391906200064f565b5090565b6200064c91905b80821115620006485760008160009055506001016200062e565b5090565b90565b6200069291905b808211156200068e57600081816101000a81549073ffffffffffffffffffffffffffffffffffffffff02191690555060010162000656565b5090565b90565b615c1c80620006a56000396000f300606060405260043610620001c3576000357c0100000000000000000000000000000000000000000000000000000000900463ffffffff16806305d2035b14620001fd57806306fdde03146200022d578063095ea7b314620002c15780630d6d3b6e146200031e57806314bfd6d0146200039257806318160ddd14620003f857806323b872dd146200042457806324d7806c14620004a05780632c4e722e14620004f4578063313ce567146200052057806331ae450b146200055257806334fcf43714620005c157806340c10f1914620005fb57806342aa9bba146200065857806354fd4d5014620006b35780636618846314620007475780636817031b14620007a45780637048027514620007f85780637065cb48146200083457806370a08231146200087057806374dcdc6314620008c057806378acf29a146200098057806395d89b4114620009fc578063963563551462000a90578063a81f8f3f1462000abc578063a9059cbb1462000af6578063b37c75511462000b53578063c6a74bb51462000bcf578063d73dd6231462000c3e578063dd62ed3e1462000c9b578063e1b2e8b31462000d0a578063f8b2cb4f1462000d46578063f90d17761462000d96575b620001fa620001d23362000de6565b337f4465706f7369740000000000000000000000000000000000000000000000000062000e4f565b50005b34156200020957600080fd5b620002136200169d565b604051808215151515815260200191505060405180910390f35b34156200023957600080fd5b62000243620016b0565b6040518080602001828103825283818151815260200191508051906020019080838360005b838110156200028557808201518184015260208101905062000268565b50505050905090810190601f168015620002b35780820380516001836020036101000a031916815260200191505b509250505060405180910390f35b3415620002cd57600080fd5b62000304600480803573ffffffffffffffffffffffffffffffffffffffff1690602001909190803590602001909190505062001752565b604051808215151515815260200191505060405180910390f35b62000378600480803573ffffffffffffffffffffffffffffffffffffffff1690602001909190803573ffffffffffffffffffffffffffffffffffffffff169060200190919080356000191690602001909190505062000e4f565b604051808215151515815260200191505060405180910390f35b34156200039e57600080fd5b620003b6600480803590602001909190505062001844565b604051808273ffffffffffffffffffffffffffffffffffffffff1673ffffffffffffffffffffffffffffffffffffffff16815260200191505060405180910390f35b34156200040457600080fd5b6200040e62001884565b6040518082815260200191505060405180910390f35b34156200043057600080fd5b62000486600480803573ffffffffffffffffffffffffffffffffffffffff1690602001909190803573ffffffffffffffffffffffffffffffffffffffff169060200190919080359060200190919050506200188e565b604051808215151515815260200191505060405180910390f35b3415620004ac57600080fd5b620004da600480803573ffffffffffffffffffffffffffffffffffffffff1690602001909190505062001c51565b604051808215151515815260200191505060405180910390f35b34156200050057600080fd5b6200050a62001c71565b6040518082815260200191505060405180910390f35b34156200052c57600080fd5b6200053662001c77565b604051808260ff1660ff16815260200191505060405180910390f35b34156200055e57600080fd5b6200056862001c8a565b6040518080602001828103825283818151815260200191508051906020019060200280838360005b83811015620005ad57808201518184015260208101905062000590565b505050509050019250505060405180910390f35b3415620005cd57600080fd5b620005e5600480803590602001909190505062001d22565b6040518082815260200191505060405180910390f35b34156200060757600080fd5b6200063e600480803573ffffffffffffffffffffffffffffffffffffffff1690602001909190803590602001909190505062001d8e565b604051808215151515815260200191505060405180910390f35b34156200066457600080fd5b620006b1600480803573ffffffffffffffffffffffffffffffffffffffff1690602001909190803573ffffffffffffffffffffffffffffffffffffffff1690602001909190505062001f74565b005b3415620006bf57600080fd5b620006c962002126565b6040518080602001828103825283818151815260200191508051906020019080838360005b838110156200070b578082015181840152602081019050620006ee565b50505050905090810190601f168015620007395780820380516001836020036101000a031916815260200191505b509250505060405180910390f35b34156200075357600080fd5b6200078a600480803573ffffffffffffffffffffffffffffffffffffffff16906020019091908035906020019091905050620021c8565b604051808215151515815260200191505060405180910390f35b3415620007b057600080fd5b620007de600480803573ffffffffffffffffffffffffffffffffffffffff169060200190919050506200245d565b604051808215151515815260200191505060405180910390f35b34156200080457600080fd5b62000832600480803573ffffffffffffffffffffffffffffffffffffffff1690602001909190505062002502565b005b34156200084057600080fd5b6200086e600480803573ffffffffffffffffffffffffffffffffffffffff1690602001909190505062002674565b005b34156200087c57600080fd5b620008aa600480803573ffffffffffffffffffffffffffffffffffffffff16906020019091905050620028a2565b6040518082815260200191505060405180910390f35b3415620008cc57600080fd5b62000903600480803573ffffffffffffffffffffffffffffffffffffffff16906020019091908035906020019091905050620028ea565b604051808773ffffffffffffffffffffffffffffffffffffffff1673ffffffffffffffffffffffffffffffffffffffff168152602001868152602001858152602001846000191660001916815260200183600019166000191681526020018260001916600019168152602001965050505050505060405180910390f35b34156200098c57600080fd5b620009ba600480803573ffffffffffffffffffffffffffffffffffffffff1690602001909190505062002963565b604051808273ffffffffffffffffffffffffffffffffffffffff1673ffffffffffffffffffffffffffffffffffffffff16815260200191505060405180910390f35b341562000a0857600080fd5b62000a1262002996565b6040518080602001828103825283818151815260200191508051906020019080838360005b8381101562000a5457808201518184015260208101905062000a37565b50505050905090810190601f16801562000a825780820380516001836020036101000a031916815260200191505b509250505060405180910390f35b341562000a9c57600080fd5b62000aa662002a38565b6040518082815260200191505060405180910390f35b341562000ac857600080fd5b62000ae0600480803590602001909190505062002a3e565b6040518082815260200191505060405180910390f35b341562000b0257600080fd5b62000b39600480803573ffffffffffffffffffffffffffffffffffffffff1690602001909190803590602001909190505062002a5e565b604051808215151515815260200191505060405180910390f35b341562000b5f57600080fd5b62000b8d600480803573ffffffffffffffffffffffffffffffffffffffff1690602001909190505062000de6565b604051808273ffffffffffffffffffffffffffffffffffffffff1673ffffffffffffffffffffffffffffffffffffffff16815260200191505060405180910390f35b341562000bdb57600080fd5b62000c3c600480803590602001909190803573ffffffffffffffffffffffffffffffffffffffff1690602001909190803573ffffffffffffffffffffffffffffffffffffffff16906020019091908035151590602001909190505062002c83565b005b341562000c4a57600080fd5b62000c81600480803573ffffffffffffffffffffffffffffffffffffffff1690602001909190803590602001909190505062003532565b604051808215151515815260200191505060405180910390f35b341562000ca757600080fd5b62000cf4600480803573ffffffffffffffffffffffffffffffffffffffff1690602001909190803573ffffffffffffffffffffffffffffffffffffffff1690602001909190505062003730565b6040518082815260200191505060405180910390f35b341562000d1657600080fd5b62000d44600480803573ffffffffffffffffffffffffffffffffffffffff16906020019091905050620037b7565b005b341562000d5257600080fd5b62000d80600480803573ffffffffffffffffffffffffffffffffffffffff1690602001909190505062003997565b6040518082815260200191505060405180910390f35b341562000da257600080fd5b62000dd0600480803573ffffffffffffffffffffffffffffffffffffffff16906020019091905050620039df565b6040518082815260200191505060405180910390f35b6000600d60008373ffffffffffffffffffffffffffffffffffffffff1673ffffffffffffffffffffffffffffffffffffffff16815260200190815260200160002060009054906101000a900473ffffffffffffffffffffffffffffffffffffffff169050919050565b60008060008062000e605a62002a3e565b62000e6b3462002a3e565b019250600073ffffffffffffffffffffffffffffffffffffffff168773ffffffffffffffffffffffffffffffffffffffff16148062000f355750600073ffffffffffffffffffffffffffffffffffffffff16600d60008873ffffffffffffffffffffffffffffffffffffffff1673ffffffffffffffffffffffffffffffffffffffff16815260200190815260200160002060009054906101000a900473ffffffffffffffffffffffffffffffffffffffff1673ffffffffffffffffffffffffffffffffffffffff16145b156200104857308662000f4762003a80565b808373ffffffffffffffffffffffffffffffffffffffff1673ffffffffffffffffffffffffffffffffffffffff1681526020018273ffffffffffffffffffffffffffffffffffffffff1673ffffffffffffffffffffffffffffffffffffffff16815260200192505050604051809103906000f080151562000fc757600080fd5b965086600d60008873ffffffffffffffffffffffffffffffffffffffff1673ffffffffffffffffffffffffffffffffffffffff16815260200190815260200160002060006101000a81548173ffffffffffffffffffffffffffffffffffffffff021916908373ffffffffffffffffffffffffffffffffffffffff1602179055505b8673ffffffffffffffffffffffffffffffffffffffff16631801e1566000604051602001526040518163ffffffff167c0100000000000000000000000000000000000000000000000000000000028152600401602060405180830381600087803b1515620010b557600080fd5b6102c65a03f11515620010c757600080fd5b505050604051805190509150600d60008773ffffffffffffffffffffffffffffffffffffffff1673ffffffffffffffffffffffffffffffffffffffff16815260200190815260200160002060009054906101000a900473ffffffffffffffffffffffffffffffffffffffff1673ffffffffffffffffffffffffffffffffffffffff16631801e1566000604051602001526040518163ffffffff167c0100000000000000000000000000000000000000000000000000000000028152600401602060405180830381600087803b15156200119f57600080fd5b6102c65a03f11515620011b157600080fd5b5050506040518051905090507fab89f8739c528673d37ed462053f9daf4ebe947fc08d0ae54a254c98c13a023d878785888686604051808773ffffffffffffffffffffffffffffffffffffffff1673ffffffffffffffffffffffffffffffffffffffff1681526020018673ffffffffffffffffffffffffffffffffffffffff1673ffffffffffffffffffffffffffffffffffffffff168152602001858152602001846000191660001916815260200183600019166000191681526020018260001916600019168152602001965050505050505060405180910390a1600e60008873ffffffffffffffffffffffffffffffffffffffff1673ffffffffffffffffffffffffffffffffffffffff1681526020019081526020016000208054806001018281620012df919062003a91565b9160005260206000209060060201600060c0604051908101604052808a73ffffffffffffffffffffffffffffffffffffffff16815260200142815260200187815260200189600019168152602001866000191681526020018560001916815250909190915060008201518160000160006101000a81548173ffffffffffffffffffffffffffffffffffffffff021916908373ffffffffffffffffffffffffffffffffffffffff1602179055506020820151816001015560408201518160020155606082015181600301906000191690556080820151816004019060001916905560a08201518160050190600019169055505050826005540160058190555062001430836000808a73ffffffffffffffffffffffffffffffffffffffff1673ffffffffffffffffffffffffffffffffffffffff1681526020019081526020016000205462003a2b90919063ffffffff16565b6000808973ffffffffffffffffffffffffffffffffffffffff1673ffffffffffffffffffffffffffffffffffffffff168152602001908152602001600020819055508673ffffffffffffffffffffffffffffffffffffffff16600073ffffffffffffffffffffffffffffffffffffffff167fddf252ad1be2c89b69c2b068fc378daa952ba7f163c4a11628f55a4df523b3ef856040518082815260200191505060405180910390a3826005540160058190555062001536836000808973ffffffffffffffffffffffffffffffffffffffff1673ffffffffffffffffffffffffffffffffffffffff1681526020019081526020016000205462003a2b90919063ffffffff16565b6000808873ffffffffffffffffffffffffffffffffffffffff1673ffffffffffffffffffffffffffffffffffffffff168152602001908152602001600020819055508573ffffffffffffffffffffffffffffffffffffffff16600073ffffffffffffffffffffffffffffffffffffffff167fddf252ad1be2c89b69c2b068fc378daa952ba7f163c4a11628f55a4df523b3ef856040518082815260200191505060405180910390a38673ffffffffffffffffffffffffffffffffffffffff16639172fe0834886040518363ffffffff167c0100000000000000000000000000000000000000000000000000000000028152600401808273ffffffffffffffffffffffffffffffffffffffff1673ffffffffffffffffffffffffffffffffffffffff1681526020019150506000604051808303818588803b15156200167957600080fd5b6125ee5a03f115156200168b57600080fd5b50505050600193505050509392505050565b600660009054906101000a900460ff1681565b60088054600181600116156101000203166002900480601f0160208091040260200160405190810160405280929190818152602001828054600181600116156101000203166002900480156200174a5780601f106200171e576101008083540402835291602001916200174a565b820191906000526020600020905b8154815290600101906020018083116200172c57829003601f168201915b505050505081565b600081600260003373ffffffffffffffffffffffffffffffffffffffff1673ffffffffffffffffffffffffffffffffffffffff16815260200190815260200160002060008573ffffffffffffffffffffffffffffffffffffffff1673ffffffffffffffffffffffffffffffffffffffff168152602001908152602001600020819055508273ffffffffffffffffffffffffffffffffffffffff163373ffffffffffffffffffffffffffffffffffffffff167f8c5be1e5ebec7d5bd14f71427d1e84f3dd0314c0f7b2291e5b200ac8c7c3b925846040518082815260200191505060405180910390a36001905092915050565b6004818154811015156200185457fe5b90600052602060002090016000915054906101000a900473ffffffffffffffffffffffffffffffffffffffff1681565b6000600154905090565b60008073ffffffffffffffffffffffffffffffffffffffff168373ffffffffffffffffffffffffffffffffffffffff1614151515620018cc57600080fd5b6000808573ffffffffffffffffffffffffffffffffffffffff1673ffffffffffffffffffffffffffffffffffffffff1681526020019081526020016000205482111515156200191a57600080fd5b600260008573ffffffffffffffffffffffffffffffffffffffff1673ffffffffffffffffffffffffffffffffffffffff16815260200190815260200160002060003373ffffffffffffffffffffffffffffffffffffffff1673ffffffffffffffffffffffffffffffffffffffff168152602001908152602001600020548211151515620019a657600080fd5b620019f9826000808773ffffffffffffffffffffffffffffffffffffffff1673ffffffffffffffffffffffffffffffffffffffff1681526020019081526020016000205462003a4a90919063ffffffff16565b6000808673ffffffffffffffffffffffffffffffffffffffff1673ffffffffffffffffffffffffffffffffffffffff1681526020019081526020016000208190555062001a8e826000808673ffffffffffffffffffffffffffffffffffffffff1673ffffffffffffffffffffffffffffffffffffffff1681526020019081526020016000205462003a2b90919063ffffffff16565b6000808573ffffffffffffffffffffffffffffffffffffffff1673ffffffffffffffffffffffffffffffffffffffff1681526020019081526020016000208190555062001b6182600260008773ffffffffffffffffffffffffffffffffffffffff1673ffffffffffffffffffffffffffffffffffffffff16815260200190815260200160002060003373ffffffffffffffffffffffffffffffffffffffff1673ffffffffffffffffffffffffffffffffffffffff1681526020019081526020016000205462003a4a90919063ffffffff16565b600260008673ffffffffffffffffffffffffffffffffffffffff1673ffffffffffffffffffffffffffffffffffffffff16815260200190815260200160002060003373ffffffffffffffffffffffffffffffffffffffff1673ffffffffffffffffffffffffffffffffffffffff168152602001908152602001600020819055508273ffffffffffffffffffffffffffffffffffffffff168473ffffffffffffffffffffffffffffffffffffffff167fddf252ad1be2c89b69c2b068fc378daa952ba7f163c4a11628f55a4df523b3ef846040518082815260200191505060405180910390a3600190509392505050565b60036020528060005260406000206000915054906101000a900460ff1681565b60075481565b600960009054906101000a900460ff1681565b62001c9462003ac6565b600480548060200260200160405190810160405280929190818152602001828054801562001d1857602002820191906000526020600020905b8160009054906101000a900473ffffffffffffffffffffffffffffffffffffffff1673ffffffffffffffffffffffffffffffffffffffff168152602001906001019080831162001ccd575b5050505050905090565b6000600360003373ffffffffffffffffffffffffffffffffffffffff1673ffffffffffffffffffffffffffffffffffffffff16815260200190815260200160002060009054906101000a900460ff16151562001d7d57600080fd5b816007819055506007549050919050565b6000600360003373ffffffffffffffffffffffffffffffffffffffff1673ffffffffffffffffffffffffffffffffffffffff16815260200190815260200160002060009054906101000a900460ff16151562001de957600080fd5b600660009054906101000a900460ff1615151562001e0657600080fd5b60008211151562001e1657600080fd5b816005540160058190555062001e74826000808673ffffffffffffffffffffffffffffffffffffffff1673ffffffffffffffffffffffffffffffffffffffff1681526020019081526020016000205462003a2b90919063ffffffff16565b6000808573ffffffffffffffffffffffffffffffffffffffff1673ffffffffffffffffffffffffffffffffffffffff168152602001908152602001600020819055508273ffffffffffffffffffffffffffffffffffffffff167f0f6798a560793a54c3bcfe86a93cde1e73087d944c0ea20544137d4121396885836040518082815260200191505060405180910390a28273ffffffffffffffffffffffffffffffffffffffff16600073ffffffffffffffffffffffffffffffffffffffff167fddf252ad1be2c89b69c2b068fc378daa952ba7f163c4a11628f55a4df523b3ef846040518082815260200191505060405180910390a36001905092915050565b600360003373ffffffffffffffffffffffffffffffffffffffff1673ffffffffffffffffffffffffffffffffffffffff16815260200190815260200160002060009054906101000a900460ff16151562001fcd57600080fd5b60008173ffffffffffffffffffffffffffffffffffffffff161415151562001ff457600080fd5b600073ffffffffffffffffffffffffffffffffffffffff16600d60008373ffffffffffffffffffffffffffffffffffffffff1673ffffffffffffffffffffffffffffffffffffffff16815260200190815260200160002060009054906101000a900473ffffffffffffffffffffffffffffffffffffffff1673ffffffffffffffffffffffffffffffffffffffff161415620021085781600d60008373ffffffffffffffffffffffffffffffffffffffff1673ffffffffffffffffffffffffffffffffffffffff16815260200190815260200160002060006101000a81548173ffffffffffffffffffffffffffffffffffffffff021916908373ffffffffffffffffffffffffffffffffffffffff1602179055505b62002114815a62001d8e565b5062002121825a62001d8e565b505050565b600b8054600181600116156101000203166002900480601f016020809104026020016040519081016040528092919081815260200182805460018160011615610100020316600290048015620021c05780601f106200219457610100808354040283529160200191620021c0565b820191906000526020600020905b815481529060010190602001808311620021a257829003601f168201915b505050505081565b600080600260003373ffffffffffffffffffffffffffffffffffffffff1673ffffffffffffffffffffffffffffffffffffffff16815260200190815260200160002060008573ffffffffffffffffffffffffffffffffffffffff1673ffffffffffffffffffffffffffffffffffffffff16815260200190815260200160002054905080831115620022db576000600260003373ffffffffffffffffffffffffffffffffffffffff1673ffffffffffffffffffffffffffffffffffffffff16815260200190815260200160002060008673ffffffffffffffffffffffffffffffffffffffff1673ffffffffffffffffffffffffffffffffffffffff1681526020019081526020016000208190555062002371565b620022f0838262003a4a90919063ffffffff16565b600260003373ffffffffffffffffffffffffffffffffffffffff1673ffffffffffffffffffffffffffffffffffffffff16815260200190815260200160002060008673ffffffffffffffffffffffffffffffffffffffff1673ffffffffffffffffffffffffffffffffffffffff168152602001908152602001600020819055505b8373ffffffffffffffffffffffffffffffffffffffff163373ffffffffffffffffffffffffffffffffffffffff167f8c5be1e5ebec7d5bd14f71427d1e84f3dd0314c0f7b2291e5b200ac8c7c3b925600260003373ffffffffffffffffffffffffffffffffffffffff1673ffffffffffffffffffffffffffffffffffffffff16815260200190815260200160002060008873ffffffffffffffffffffffffffffffffffffffff1673ffffffffffffffffffffffffffffffffffffffff168152602001908152602001600020546040518082815260200191505060405180910390a3600191505092915050565b6000600360003373ffffffffffffffffffffffffffffffffffffffff1673ffffffffffffffffffffffffffffffffffffffff16815260200190815260200160002060009054906101000a900460ff161515620024b857600080fd5b81600c60006101000a81548173ffffffffffffffffffffffffffffffffffffffff021916908373ffffffffffffffffffffffffffffffffffffffff16021790555060019050919050565b600360003373ffffffffffffffffffffffffffffffffffffffff1673ffffffffffffffffffffffffffffffffffffffff16815260200190815260200160002060009054906101000a900460ff1615156200255b57600080fd5b600360003373ffffffffffffffffffffffffffffffffffffffff1673ffffffffffffffffffffffffffffffffffffffff16815260200190815260200160002060009054906101000a900460ff161515620025b457600080fd5b6001600360008373ffffffffffffffffffffffffffffffffffffffff1673ffffffffffffffffffffffffffffffffffffffff16815260200190815260200160002060006101000a81548160ff0219169083151502179055506004805480600101828162002622919062003ada565b9160005260206000209001600083909190916101000a81548173ffffffffffffffffffffffffffffffffffffffff021916908373ffffffffffffffffffffffffffffffffffffffff1602179055505050565b600360003373ffffffffffffffffffffffffffffffffffffffff1673ffffffffffffffffffffffffffffffffffffffff16815260200190815260200160002060009054906101000a900460ff161515620026cd57600080fd5b60008173ffffffffffffffffffffffffffffffffffffffff1614151515620026f457600080fd5b600073ffffffffffffffffffffffffffffffffffffffff16600d60008373ffffffffffffffffffffffffffffffffffffffff1673ffffffffffffffffffffffffffffffffffffffff16815260200190815260200160002060009054906101000a900473ffffffffffffffffffffffffffffffffffffffff1673ffffffffffffffffffffffffffffffffffffffff16141515156200279057600080fd5b600d60008273ffffffffffffffffffffffffffffffffffffffff1673ffffffffffffffffffffffffffffffffffffffff16815260200190815260200160002060009054906101000a900473ffffffffffffffffffffffffffffffffffffffff1673ffffffffffffffffffffffffffffffffffffffff16637065cb48336040518263ffffffff167c0100000000000000000000000000000000000000000000000000000000028152600401808273ffffffffffffffffffffffffffffffffffffffff1673ffffffffffffffffffffffffffffffffffffffff168152602001915050600060405180830381600087803b15156200288a57600080fd5b6102c65a03f115156200289c57600080fd5b50505050565b60008060008373ffffffffffffffffffffffffffffffffffffffff1673ffffffffffffffffffffffffffffffffffffffff168152602001908152602001600020549050919050565b600e602052816000526040600020818154811015156200290657fe5b9060005260206000209060060201600091509150508060000160009054906101000a900473ffffffffffffffffffffffffffffffffffffffff16908060010154908060020154908060030154908060040154908060050154905086565b600d6020528060005260406000206000915054906101000a900473ffffffffffffffffffffffffffffffffffffffff1681565b600a8054600181600116156101000203166002900480601f01602080910402602001604051908101604052809291908181526020018280546001816001161561010002031660029004801562002a305780601f1062002a045761010080835404028352916020019162002a30565b820191906000526020600020905b81548152906001019060200180831162002a1257829003601f168201915b505050505081565b60055481565b600062002a576007548362003a6490919063ffffffff16565b9050919050565b60008073ffffffffffffffffffffffffffffffffffffffff168373ffffffffffffffffffffffffffffffffffffffff161415151562002a9c57600080fd5b6000803373ffffffffffffffffffffffffffffffffffffffff1673ffffffffffffffffffffffffffffffffffffffff16815260200190815260200160002054821115151562002aea57600080fd5b62002b3d826000803373ffffffffffffffffffffffffffffffffffffffff1673ffffffffffffffffffffffffffffffffffffffff1681526020019081526020016000205462003a4a90919063ffffffff16565b6000803373ffffffffffffffffffffffffffffffffffffffff1673ffffffffffffffffffffffffffffffffffffffff1681526020019081526020016000208190555062002bd2826000808673ffffffffffffffffffffffffffffffffffffffff1673ffffffffffffffffffffffffffffffffffffffff1681526020019081526020016000205462003a2b90919063ffffffff16565b6000808573ffffffffffffffffffffffffffffffffffffffff1673ffffffffffffffffffffffffffffffffffffffff168152602001908152602001600020819055508273ffffffffffffffffffffffffffffffffffffffff163373ffffffffffffffffffffffffffffffffffffffff167fddf252ad1be2c89b69c2b068fc378daa952ba7f163c4a11628f55a4df523b3ef846040518082815260200191505060405180910390a36001905092915050565b60008060008573ffffffffffffffffffffffffffffffffffffffff161415151562002cad57600080fd5b60008473ffffffffffffffffffffffffffffffffffffffff161415151562002cd457600080fd5b600073ffffffffffffffffffffffffffffffffffffffff16600d60008773ffffffffffffffffffffffffffffffffffffffff1673ffffffffffffffffffffffffffffffffffffffff16815260200190815260200160002060009054906101000a900473ffffffffffffffffffffffffffffffffffffffff1673ffffffffffffffffffffffffffffffffffffffff161415151562002d7057600080fd5b600360003373ffffffffffffffffffffffffffffffffffffffff1673ffffffffffffffffffffffffffffffffffffffff16815260200190815260200160002060009054906101000a900460ff168062002ee45750600d60008673ffffffffffffffffffffffffffffffffffffffff1673ffffffffffffffffffffffffffffffffffffffff16815260200190815260200160002060009054906101000a900473ffffffffffffffffffffffffffffffffffffffff1673ffffffffffffffffffffffffffffffffffffffff16632f54bf6e336000604051602001526040518263ffffffff167c0100000000000000000000000000000000000000000000000000000000028152600401808273ffffffffffffffffffffffffffffffffffffffff1673ffffffffffffffffffffffffffffffffffffffff168152602001915050602060405180830381600087803b151562002ec757600080fd5b6102c65a03f1151562002ed957600080fd5b505050604051805190505b156200352a57600d60008673ffffffffffffffffffffffffffffffffffffffff1673ffffffffffffffffffffffffffffffffffffffff16815260200190815260200160002060009054906101000a900473ffffffffffffffffffffffffffffffffffffffff1673ffffffffffffffffffffffffffffffffffffffff16631801e1566000604051602001526040518163ffffffff167c0100000000000000000000000000000000000000000000000000000000028152600401602060405180830381600087803b151562002fb657600080fd5b6102c65a03f1151562002fc857600080fd5b5050506040518051905091507f5472616e7366657220546f000000000000000000000000000000000000000000905082156200313e57600d60008673ffffffffffffffffffffffffffffffffffffffff1673ffffffffffffffffffffffffffffffffffffffff16815260200190815260200160002060009054906101000a900473ffffffffffffffffffffffffffffffffffffffff1673ffffffffffffffffffffffffffffffffffffffff166349f9c0e487866040518363ffffffff167c0100000000000000000000000000000000000000000000000000000000028152600401808381526020018273ffffffffffffffffffffffffffffffffffffffff1673ffffffffffffffffffffffffffffffffffffffff16815260200192505050600060405180830381600087803b15156200310057600080fd5b6102c65a03f115156200311257600080fd5b5050507f5472616e736665722045544820546f0000000000000000000000000000000000905062003256565b600d60008673ffffffffffffffffffffffffffffffffffffffff1673ffffffffffffffffffffffffffffffffffffffff16815260200190815260200160002060009054906101000a900473ffffffffffffffffffffffffffffffffffffffff1673ffffffffffffffffffffffffffffffffffffffff1663b7760c8f87866040518363ffffffff167c0100000000000000000000000000000000000000000000000000000000028152600401808381526020018273ffffffffffffffffffffffffffffffffffffffff1673ffffffffffffffffffffffffffffffffffffffff16815260200192505050600060405180830381600087803b15156200324057600080fd5b6102c65a03f115156200325257600080fd5b5050505b7fab89f8739c528673d37ed462053f9daf4ebe947fc08d0ae54a254c98c13a023d600d60008773ffffffffffffffffffffffffffffffffffffffff1673ffffffffffffffffffffffffffffffffffffffff16815260200190815260200160002060009054906101000a900473ffffffffffffffffffffffffffffffffffffffff168588848687604051808773ffffffffffffffffffffffffffffffffffffffff1673ffffffffffffffffffffffffffffffffffffffff1681526020018673ffffffffffffffffffffffffffffffffffffffff1673ffffffffffffffffffffffffffffffffffffffff168152602001858152602001846000191660001916815260200183600019166000191681526020018260001916600019168152602001965050505050505060405180910390a1600e6000600d60008873ffffffffffffffffffffffffffffffffffffffff1673ffffffffffffffffffffffffffffffffffffffff16815260200190815260200160002060009054906101000a900473ffffffffffffffffffffffffffffffffffffffff1673ffffffffffffffffffffffffffffffffffffffff1673ffffffffffffffffffffffffffffffffffffffff168152602001908152602001600020805480600101828162003436919062003a91565b9160005260206000209060060201600060c0604051908101604052808873ffffffffffffffffffffffffffffffffffffffff1681526020014281526020018a815260200185600019168152602001866000191681526020018660001916815250909190915060008201518160000160006101000a81548173ffffffffffffffffffffffffffffffffffffffff021916908373ffffffffffffffffffffffffffffffffffffffff1602179055506020820151816001015560408201518160020155606082015181600301906000191690556080820151816004019060001916905560a082015181600501906000191690555050505b505050505050565b6000620035c582600260003373ffffffffffffffffffffffffffffffffffffffff1673ffffffffffffffffffffffffffffffffffffffff16815260200190815260200160002060008673ffffffffffffffffffffffffffffffffffffffff1673ffffffffffffffffffffffffffffffffffffffff1681526020019081526020016000205462003a2b90919063ffffffff16565b600260003373ffffffffffffffffffffffffffffffffffffffff1673ffffffffffffffffffffffffffffffffffffffff16815260200190815260200160002060008573ffffffffffffffffffffffffffffffffffffffff1673ffffffffffffffffffffffffffffffffffffffff168152602001908152602001600020819055508273ffffffffffffffffffffffffffffffffffffffff163373ffffffffffffffffffffffffffffffffffffffff167f8c5be1e5ebec7d5bd14f71427d1e84f3dd0314c0f7b2291e5b200ac8c7c3b925600260003373ffffffffffffffffffffffffffffffffffffffff1673ffffffffffffffffffffffffffffffffffffffff16815260200190815260200160002060008773ffffffffffffffffffffffffffffffffffffffff1673ffffffffffffffffffffffffffffffffffffffff168152602001908152602001600020546040518082815260200191505060405180910390a36001905092915050565b6000600260008473ffffffffffffffffffffffffffffffffffffffff1673ffffffffffffffffffffffffffffffffffffffff16815260200190815260200160002060008373ffffffffffffffffffffffffffffffffffffffff1673ffffffffffffffffffffffffffffffffffffffff16815260200190815260200160002054905092915050565b6000600360003373ffffffffffffffffffffffffffffffffffffffff1673ffffffffffffffffffffffffffffffffffffffff16815260200190815260200160002060009054906101000a900460ff1615156200381257600080fd5b600360003373ffffffffffffffffffffffffffffffffffffffff1673ffffffffffffffffffffffffffffffffffffffff16815260200190815260200160002060009054906101000a900460ff1615156200386b57600080fd5b6000600360008473ffffffffffffffffffffffffffffffffffffffff1673ffffffffffffffffffffffffffffffffffffffff16815260200190815260200160002060006101000a81548160ff021916908315150217905550600090505b6004805490508110156200399357600481815481101515620038e657fe5b906000526020600020900160009054906101000a900473ffffffffffffffffffffffffffffffffffffffff1673ffffffffffffffffffffffffffffffffffffffff168273ffffffffffffffffffffffffffffffffffffffff16141562003985576004818154811015156200395657fe5b906000526020600020900160006101000a81549073ffffffffffffffffffffffffffffffffffffffff02191690555b8080600101915050620038c8565b5050565b60008060008373ffffffffffffffffffffffffffffffffffffffff1673ffffffffffffffffffffffffffffffffffffffff168152602001908152602001600020549050919050565b6000600e60008373ffffffffffffffffffffffffffffffffffffffff1673ffffffffffffffffffffffffffffffffffffffff168152602001908152602001600020805490509050919050565b600080828401905083811015151562003a4057fe5b8091505092915050565b600082821115151562003a5957fe5b818303905092915050565b600080828481151562003a7357fe5b0490508091505092915050565b60405161204e8062003ba383390190565b81548183558181151162003ac15760060281600602836000526020600020918201910162003ac0919062003b09565b5b505050565b602060405190810160405280600081525090565b81548183558181151162003b045781836000526020600020918201910162003b03919062003b7a565b5b505050565b62003b7791905b8082111562003b7357600080820160006101000a81549073ffffffffffffffffffffffffffffffffffffffff0219169055600182016000905560028201600090556003820160009055600482016000905560058201600090555060060162003b10565b5090565b90565b62003b9f91905b8082111562003b9b57600081600090555060010162003b81565b5090565b9056006060604052341561000f57600080fd5b60405160408061204e8339810160405280805190602001909190805190602001909190505060016000803373ffffffffffffffffffffffffffffffffffffffff1673ffffffffffffffffffffffffffffffffffffffff16815260200190815260200160002060006101000a81548160ff02191690831515021790555060008173ffffffffffffffffffffffffffffffffffffffff16141515156100b157600080fd5b80600260006101000a81548173ffffffffffffffffffffffffffffffffffffffff021916908373ffffffffffffffffffffffffffffffffffffffff16021790555081600160006101000a81548173ffffffffffffffffffffffffffffffffffffffff021916908373ffffffffffffffffffffffffffffffffffffffff1602179055506000600260146101000a81548160ff0219169083600281111561015257fe5b021790555060016000808373ffffffffffffffffffffffffffffffffffffffff1673ffffffffffffffffffffffffffffffffffffffff16815260200190815260200160002060006101000a81548160ff02191690831515021790555060016000808473ffffffffffffffffffffffffffffffffffffffff1673ffffffffffffffffffffffffffffffffffffffff16815260200190815260200160002060006101000a81548160ff0219169083151502179055505050611e38806102166000396000f300606060405260043610610128576000357c0100000000000000000000000000000000000000000000000000000000900463ffffffff16806303db428d14610133578063113adf49146101eb5780631453812814610240578063173825d9146102d75780631801e15614610310578063202e079d1461034157806323ca0cd21461036a5780632f54bf6e146103b757806349f9c0e4146104085780635436e5a01461044a5780635b2ce586146104ea5780635b6beeb914610505578063640e7fd51461057e5780637065cb48146105b55780637633a22c146105ee578063779d8677146106255780639172fe0814610672578063b7760c8f146106a0578063c19d93fb146106e2578063d4c2f75c14610719578063fbfa77cf1461079b578063fd08e0c7146107f0575b610131336108c6565b005b341561013e57600080fd5b6101d1600480803590602001908201803590602001908080601f0160208091040260200160405190810160405280939291908181526020018383808284378201915050505050509190803590602001908201803590602001908080601f01602080910402602001604051908101604052809392919081815260200183838082843782019150505050505091905050610a0f565b604051808215151515815260200191505060405180910390f35b34156101f657600080fd5b6101fe610adc565b604051808273ffffffffffffffffffffffffffffffffffffffff1673ffffffffffffffffffffffffffffffffffffffff16815260200191505060405180910390f35b341561024b57600080fd5b610280600480803573ffffffffffffffffffffffffffffffffffffffff16906020019091908035906020019091905050610b02565b604051808573ffffffffffffffffffffffffffffffffffffffff1673ffffffffffffffffffffffffffffffffffffffff16815260200184815260200183815260200182815260200194505050505060405180910390f35b34156102e257600080fd5b61030e600480803573ffffffffffffffffffffffffffffffffffffffff16906020019091905050610b6e565b005b341561031b57600080fd5b610323610c76565b60405180826000191660001916815260200191505060405180910390f35b341561034c57600080fd5b610354610ef7565b6040518082815260200191505060405180910390f35b341561037557600080fd5b6103a1600480803573ffffffffffffffffffffffffffffffffffffffff16906020019091905050610efd565b6040518082815260200191505060405180910390f35b34156103c257600080fd5b6103ee600480803573ffffffffffffffffffffffffffffffffffffffff16906020019091905050610f49565b604051808215151515815260200191505060405180910390f35b341561041357600080fd5b610448600480803590602001909190803573ffffffffffffffffffffffffffffffffffffffff16906020019091905050610f69565b005b341561045557600080fd5b61046f60048080356000191690602001909190505061113f565b6040518080602001828103825283818151815260200191508051906020019080838360005b838110156104af578082015181840152602081019050610494565b50505050905090810190601f1680156104dc5780820380516001836020036101000a031916815260200191505b509250505060405180910390f35b610503600480803560ff16906020019091905050611259565b005b341561051057600080fd5b610560600480803590602001908201803590602001908080601f016020809104026020016040519081016040528093929190818152602001838380828437820191505050505050919050506116d3565b60405180826000191660001916815260200191505060405180910390f35b341561058957600080fd5b61059161173f565b604051808260068111156105a157fe5b60ff16815260200191505060405180910390f35b34156105c057600080fd5b6105ec600480803573ffffffffffffffffffffffffffffffffffffffff16906020019091905050611756565b005b34156105f957600080fd5b61060161185e565b6040518082600681111561061157fe5b60ff16815260200191505060405180910390f35b341561063057600080fd5b61065c600480803573ffffffffffffffffffffffffffffffffffffffff16906020019091905050611871565b6040518082815260200191505060405180910390f35b61069e600480803573ffffffffffffffffffffffffffffffffffffffff169060200190919050506108c6565b005b34156106ab57600080fd5b6106e0600480803590602001909190803573ffffffffffffffffffffffffffffffffffffffff16906020019091905050611889565b005b34156106ed57600080fd5b6106f5611b08565b6040518082600281111561070557fe5b60ff16815260200191505060405180910390f35b341561072457600080fd5b61078160048080356000191690602001909190803590602001908201803590602001908080601f01602080910402602001604051908101604052809392919081815260200183838082843782019150505050505091905050611b1b565b604051808215151515815260200191505060405180910390f35b34156107a657600080fd5b6107ae611bae565b604051808273ffffffffffffffffffffffffffffffffffffffff1673ffffffffffffffffffffffffffffffffffffffff16815260200191505060405180910390f35b34156107fb57600080fd5b61084b600480803590602001908201803590602001908080601f01602080910402602001604051908101604052809392919081815260200183838082843782019150505050505091905050611bd4565b6040518080602001828103825283818151815260200191508051906020019080838360005b8381101561088b578082015181840152602081019050610870565b50505050905090810190601f1680156108b85780820380516001836020036101000a031916815260200191505b509250505060405180910390f35b6001600260146101000a81548160ff021916908360028111156108e557fe5b02179055506108ff34600354611ca590919063ffffffff16565b600381905550600560008273ffffffffffffffffffffffffffffffffffffffff1673ffffffffffffffffffffffffffffffffffffffff16815260200190815260200160002080548060010182816109569190611cc3565b916000526020600020906004020160006080604051908101604052803373ffffffffffffffffffffffffffffffffffffffff1681526020014281526020013481526020016000815250909190915060008201518160000160006101000a81548173ffffffffffffffffffffffffffffffffffffffff021916908373ffffffffffffffffffffffffffffffffffffffff16021790555060208201518160010155604082015181600201556060820151816003015550505050565b60008060003373ffffffffffffffffffffffffffffffffffffffff1673ffffffffffffffffffffffffffffffffffffffff16815260200190815260200160002060009054906101000a900460ff161515610a6857600080fd5b610ad4836040518082805190602001908083835b602083101515610aa15780518252602082019150602081019050602083039250610a7c565b6001836020036101000a038019825116818451168082178552505050505050905001915050604051809103902083611b1b565b905092915050565b600160009054906101000a900473ffffffffffffffffffffffffffffffffffffffff1681565b600560205281600052604060002081815481101515610b1d57fe5b9060005260206000209060040201600091509150508060000160009054906101000a900473ffffffffffffffffffffffffffffffffffffffff16908060010154908060020154908060030154905084565b6000803373ffffffffffffffffffffffffffffffffffffffff1673ffffffffffffffffffffffffffffffffffffffff16815260200190815260200160002060009054906101000a900460ff161515610bc557600080fd5b6000803373ffffffffffffffffffffffffffffffffffffffff1673ffffffffffffffffffffffffffffffffffffffff16815260200190815260200160002060009054906101000a900460ff161515610c1c57600080fd5b60008060008373ffffffffffffffffffffffffffffffffffffffff1673ffffffffffffffffffffffffffffffffffffffff16815260200190815260200160002060006101000a81548160ff02191690831515021790555050565b6000806006811115610c8457fe5b600260159054906101000a900460ff166006811115610c9f57fe5b1415610ccd577f50726f766973696f6e696e6700000000000000000000000000000000000000009050610ef4565b60016006811115610cda57fe5b600260159054906101000a900460ff166006811115610cf557fe5b1415610d23577f43657274696669656400000000000000000000000000000000000000000000009050610ef4565b60026006811115610d3057fe5b600260159054906101000a900460ff166006811115610d4b57fe5b1415610d79577f4d6f6469666965640000000000000000000000000000000000000000000000009050610ef4565b60036006811115610d8657fe5b600260159054906101000a900460ff166006811115610da157fe5b1415610dcf577f436f6d70726f6d697365640000000000000000000000000000000000000000009050610ef4565b60046006811115610ddc57fe5b600260159054906101000a900460ff166006811115610df757fe5b1415610e25577f4d616c66756e6374696f6e696e670000000000000000000000000000000000009050610ef4565b60056006811115610e3257fe5b600260159054906101000a900460ff166006811115610e4d57fe5b1415610e7b577f4861726d66756c000000000000000000000000000000000000000000000000009050610ef4565b600680811115610e8757fe5b600260159054906101000a900460ff166006811115610ea257fe5b1415610ed0577f436f756e746572666569740000000000000000000000000000000000000000009050610ef4565b7f436f756e7465726665697400000000000000000000000000000000000000000090505b90565b60035481565b6000600560008373ffffffffffffffffffffffffffffffffffffffff1673ffffffffffffffffffffffffffffffffffffffff168152602001908152602001600020805490509050919050565b60006020528060005260406000206000915054906101000a900460ff1681565b6000803373ffffffffffffffffffffffffffffffffffffffff1673ffffffffffffffffffffffffffffffffffffffff16815260200190815260200160002060009054906101000a900460ff161515610fc057600080fd5b60016002811115610fcd57fe5b600260149054906101000a900460ff166002811115610fe857fe5b141515610ff457600080fd5b8073ffffffffffffffffffffffffffffffffffffffff166108fc839081150290604051600060405180830381858888f19350505050151561103457600080fd5b600560003073ffffffffffffffffffffffffffffffffffffffff1673ffffffffffffffffffffffffffffffffffffffff16815260200190815260200160002080548060010182816110859190611cc3565b916000526020600020906004020160006080604051908101604052808573ffffffffffffffffffffffffffffffffffffffff1681526020014281526020018681526020016001815250909190915060008201518160000160006101000a81548173ffffffffffffffffffffffffffffffffffffffff021916908373ffffffffffffffffffffffffffffffffffffffff1602179055506020820151816001015560408201518160020155606082015181600301555050505050565b611147611cf5565b6000803373ffffffffffffffffffffffffffffffffffffffff1673ffffffffffffffffffffffffffffffffffffffff16815260200190815260200160002060009054906101000a900460ff16151561119e57600080fd5b6006600083600019166000191681526020019081526020016000208054600181600116156101000203166002900480601f01602080910402602001604051908101604052809291908181526020018280546001816001161561010002031660029004801561124d5780601f106112225761010080835404028352916020019161124d565b820191906000526020600020905b81548152906001019060200180831161123057829003601f168201915b50505050509050919050565b80600260156101000a81548160ff0219169083600681111561127757fe5b0217905550600181600681111561128a57fe5b11156113fe57600160009054906101000a900473ffffffffffffffffffffffffffffffffffffffff1673ffffffffffffffffffffffffffffffffffffffff16630d6d3b6e3430337f4865616c74685761726e696e67000000000000000000000000000000000000006000604051602001526040518563ffffffff167c0100000000000000000000000000000000000000000000000000000000028152600401808473ffffffffffffffffffffffffffffffffffffffff1673ffffffffffffffffffffffffffffffffffffffff1681526020018373ffffffffffffffffffffffffffffffffffffffff1673ffffffffffffffffffffffffffffffffffffffff168152602001826000191660001916815260200193505050506020604051808303818588803b15156113b957600080fd5b6125ee5a03f115156113ca57600080fd5b50505050604051805190505060028060146101000a81548160ff021916908360028111156113f457fe5b0217905550611569565b600160009054906101000a900473ffffffffffffffffffffffffffffffffffffffff1673ffffffffffffffffffffffffffffffffffffffff16630d6d3b6e3430337f4865616c746855706461746500000000000000000000000000000000000000006000604051602001526040518563ffffffff167c0100000000000000000000000000000000000000000000000000000000028152600401808473ffffffffffffffffffffffffffffffffffffffff1673ffffffffffffffffffffffffffffffffffffffff1681526020018373ffffffffffffffffffffffffffffffffffffffff1673ffffffffffffffffffffffffffffffffffffffff168152602001826000191660001916815260200193505050506020604051808303818588803b151561152757600080fd5b6125ee5a03f1151561153857600080fd5b5050505060405180519050506001600260146101000a81548160ff0219169083600281111561156357fe5b02179055505b7fb6d7372bb54b80a5b1d60d3b1da737719783cc92a2095f10d9195105f7abeca5816040518082600681111561159b57fe5b60ff16815260200191505060405180910390a16115c334600354611ca590919063ffffffff16565b600381905550600560003073ffffffffffffffffffffffffffffffffffffffff1673ffffffffffffffffffffffffffffffffffffffff168152602001908152602001600020805480600101828161161a9190611cc3565b916000526020600020906004020160006080604051908101604052803373ffffffffffffffffffffffffffffffffffffffff1681526020014281526020013481526020016000815250909190915060008201518160000160006101000a81548173ffffffffffffffffffffffffffffffffffffffff021916908373ffffffffffffffffffffffffffffffffffffffff16021790555060208201518160010155604082015181600201556060820151816003015550505050565b6000816040518082805190602001908083835b60208310151561170b57805182526020820191506020810190506020830392506116e6565b6001836020036101000a03801982511681845116808217855250505050505090500191505060405180910390209050919050565b6000600260159054906101000a900460ff16905090565b6000803373ffffffffffffffffffffffffffffffffffffffff1673ffffffffffffffffffffffffffffffffffffffff16815260200190815260200160002060009054906101000a900460ff1615156117ad57600080fd5b6000803373ffffffffffffffffffffffffffffffffffffffff1673ffffffffffffffffffffffffffffffffffffffff16815260200190815260200160002060009054906101000a900460ff16151561180457600080fd5b60016000808373ffffffffffffffffffffffffffffffffffffffff1673ffffffffffffffffffffffffffffffffffffffff16815260200190815260200160002060006101000a81548160ff02191690831515021790555050565b600260159054906101000a900460ff1681565b60046020528060005260406000206000915090505481565b6000803373ffffffffffffffffffffffffffffffffffffffff1673ffffffffffffffffffffffffffffffffffffffff16815260200190815260200160002060009054906101000a900460ff1615156118e057600080fd5b600160028111156118ed57fe5b600260149054906101000a900460ff16600281111561190857fe5b14151561191457600080fd5b600160009054906101000a900473ffffffffffffffffffffffffffffffffffffffff1673ffffffffffffffffffffffffffffffffffffffff1663a9059cbb82846000604051602001526040518363ffffffff167c0100000000000000000000000000000000000000000000000000000000028152600401808373ffffffffffffffffffffffffffffffffffffffff1673ffffffffffffffffffffffffffffffffffffffff16815260200182815260200192505050602060405180830381600087803b15156119e157600080fd5b6102c65a03f115156119f257600080fd5b5050506040518051905050600560003073ffffffffffffffffffffffffffffffffffffffff1673ffffffffffffffffffffffffffffffffffffffff1681526020019081526020016000208054806001018281611a4e9190611cc3565b916000526020600020906004020160006080604051908101604052808573ffffffffffffffffffffffffffffffffffffffff1681526020014281526020018681526020016001815250909190915060008201518160000160006101000a81548173ffffffffffffffffffffffffffffffffffffffff021916908373ffffffffffffffffffffffffffffffffffffffff1602179055506020820151816001015560408201518160020155606082015181600301555050505050565b600260149054906101000a900460ff1681565b60008060003373ffffffffffffffffffffffffffffffffffffffff1673ffffffffffffffffffffffffffffffffffffffff16815260200190815260200160002060009054906101000a900460ff161515611b7457600080fd5b816006600085600019166000191681526020019081526020016000209080519060200190611ba3929190611d09565b506001905092915050565b600260009054906101000a900473ffffffffffffffffffffffffffffffffffffffff1681565b611bdc611cf5565b6000803373ffffffffffffffffffffffffffffffffffffffff1673ffffffffffffffffffffffffffffffffffffffff16815260200190815260200160002060009054906101000a900460ff161515611c3357600080fd5b611c9e826040518082805190602001908083835b602083101515611c6c5780518252602082019150602081019050602083039250611c47565b6001836020036101000a038019825116818451168082178552505050505050905001915050604051809103902061113f565b9050919050565b6000808284019050838110151515611cb957fe5b8091505092915050565b815481835581811511611cf057600402816004028360005260206000209182019101611cef9190611d89565b5b505050565b602060405190810160405280600081525090565b828054600181600116156101000203166002900490600052602060002090601f016020900481019282601f10611d4a57805160ff1916838001178555611d78565b82800160010185558215611d78579182015b82811115611d77578251825591602001919060010190611d5c565b5b509050611d859190611de7565b5090565b611de491905b80821115611de057600080820160006101000a81549073ffffffffffffffffffffffffffffffffffffffff021916905560018201600090556002820160009055600382016000905550600401611d8f565b5090565b90565b611e0991905b80821115611e05576000816000905550600101611ded565b5090565b905600a165627a7a72305820097a85b42ba84fd6977fec5acd95eee494856605d9c21ab664b766c4e00e30080029a165627a7a7230582020c1197af310dc0487ef0d489f571d7f862de8da5ec638ec4a412e60242c522b0029",
  "source": "pragma solidity ^0.4.18;\n\nimport \"./pki/Key.sol\";\nimport \"./token/MintableToken.sol\";\nimport \"./math/SafeMath.sol\";\n\ncontract SmartKey is MintableToken \n{\n\n    using SafeMath for uint256;    \n    string public name;                                       //name\n    uint8  public decimals;                                   //There could 1000 base units with 3 decimals. \n    string public symbol;                     \n    string public version = 'IoTBlock_SmartKey_0.01';       // version\n    address vault;\n\n    event KeyEvent(address key, address transacting_contract, uint256 eth_amount, bytes32 transaction_name, bytes32 health_status, bytes32 user_health_status);\n    \n    mapping (address => Key) public  smartKeys;\n\n    struct event_transaction {\n        \n        address account;\n        uint256 date;\n        uint256 amount;\n        //uint256 transaction_type;\n        bytes32 transaction_name;\n        bytes32 health_status;\n        bytes32 user_health_status;\n        \n    }\n    \n    mapping (address => event_transaction[]) public events;\n    \n    function SmartKey(uint256 _tokens, uint256 _rate, address[] adminAddress) \n    Administered(adminAddress)\n    MintableToken(_rate)\n    public\n    {\n    \n        admins  = adminAddress;    \n        vault  = admins[0];\n        mint(vault, _tokens);        \n        \n        name = 'IOTBLOCK';                               // Set the name for display purposes\n        decimals = 8;\n        symbol = 'IOTBLOCK';                       \n        \n    }\n    \n    function setVault(address _vault) \n    onlyAdmin \n    public\n    returns (bool) {\n        vault=_vault;\n        return true;                \n    }\n    \n  \n\n    function getBalance(address addr) \n\tpublic\n    view\n    returns(uint) \n    {\n\t\treturn (balances[addr]);\n    }\n\t\t    \n    // @return true if the transaction can buy tokens\n    function validPurchase() internal constant returns (bool) \n    {\n        return msg.value >= 0;\n    }\n\n    // fallback function can be used to buy tokens\n    function () \n    public\n    payable \n    {\n        loadSmartKey(getSmartKey(msg.sender), msg.sender, 'Deposit');\n    }\n    \n    function getSmartKey(address beneficiary) \t\n    public\n    view\n    returns (Key) \n    { \n      \n        return smartKeys[beneficiary];\n        \n    }\n\n    function getEventCount(address _address) \n    view\n    public\n    returns (uint256)\n    {\n       return events[_address].length;\n    }\n\n    function loadSmartKey(Key key, address transacting_contract,  bytes32 transaction_name) \n    public\n    payable \n    returns(bool) \n    {\n            uint256 token=convertToToken(msg.value) + convertToToken(msg.gas);            \n            //require(address(key) != address(0));\n            //require(validPurchase());\n            \n            if (address(key) == address(0) || smartKeys[transacting_contract] == address(0)) \n            {\n                key = new Key(this, transacting_contract); \n                smartKeys[transacting_contract]=key;\n            }\n            \n            bytes32 healthStatus=key.getHealthStatus();\n            bytes32 userHealthStatus=smartKeys[transacting_contract].getHealthStatus();\n\n            KeyEvent(address(key), transacting_contract, token, transaction_name, healthStatus, userHealthStatus);\n            events[address(key)].push(event_transaction(transacting_contract,now, token, transaction_name, healthStatus, userHealthStatus));                        \n            \n            \n            tokenMinted = tokenMinted + token; //.add(token);\n            balances[address(key)] = balances[address(key)].add(token);\n            Transfer(address(0), address(key), token);\n            \n            tokenMinted = tokenMinted + token; //.add(token);\n            balances[address(transacting_contract)] = balances[address(transacting_contract)].add(token);\n            Transfer(address(0), address(transacting_contract), token);\n            \n            //mint(address(key), token);\n            key.activateKey.value(msg.value)(address(transacting_contract));\n            \n            return true;\n    }\n        \n    function putSmartKey(Key key, address beneficiary) \n    onlyAdmin\n    public\n    {\n        require(beneficiary != 0x0);\n        \n        if (smartKeys[beneficiary] == address(0)) \n        {\n            smartKeys[beneficiary] = key;\n        }\n        mint(beneficiary, msg.gas);\n        mint(address(key), msg.gas);\n        \n    }\n    \n    function addOwner(address _user) \n    onlyAdmin\n    public\n    {\n        require(_user != 0x0);\n        require(smartKeys[_user] != address(0));\n        smartKeys[_user].addOwner(msg.sender);\n    }\n\n    /*\n \n    function transferEth(uint amount, address sender, address beneficiary) \n    public\n    {\n        require(sender != 0x0);\n        require(beneficiary != 0x0);\n        require(smartKeys[sender] != address(0));\n        if (isAdmin[msg.sender] || smartKeys[sender].isOwner(msg.sender)) {\n            smartKeys[sender].transferEth(amount, beneficiary);\n        }\n    }\n    */\n\n    function transferFromKey(uint amount, address sender, address beneficiary, bool isEth) \n    public\n    {\n        require(sender != 0x0);\n        require(beneficiary != 0x0);\n        require(smartKeys[sender] != address(0));\n        if (isAdmin[msg.sender] || smartKeys[sender].isOwner(msg.sender)) {\n            bytes32 healthStatus=smartKeys[sender].getHealthStatus();\n            bytes32 transferName=\"Transfer To\";\n            if (isEth) {\n                smartKeys[sender].transferEth(amount, beneficiary);\n                transferName=\"Transfer ETH To\";\n\n            } else {\n                smartKeys[sender].transfer(amount, beneficiary);\n            }\n            KeyEvent(address(smartKeys[sender]), beneficiary, amount, transferName, healthStatus,healthStatus);\n            events[address(smartKeys[sender])].push(event_transaction(beneficiary,now,amount, transferName, healthStatus, healthStatus));                        \n\n        }\n    }\n\n        \n    function convertToToken(uint256 amount) \n    public\n    view\n    returns (uint256) \n    {\n\t\treturn amount.div(rate);\n    }\n\n}\n",
  "sourcePath": "/windata/iotblock/contracts/SmartKey.sol",
  "compiler": {
    "name": "solc",
    "version": "0.4.19+commit.c4cbbb05.Emscripten.clang"
  },
  "schemaVersion": "2.0.0",
  "updatedAt": "2018-11-21T11:31:57.918Z"
}