{
  "contractName": "SmartNode",
  "abi": [
    {
      "constant": true,
      "inputs": [
        {
          "name": "",
          "type": "uint256"
        }
      ],
      "name": "admins",
      "outputs": [
        {
          "name": "",
          "type": "address"
        }
      ],
      "payable": false,
      "stateMutability": "view",
      "type": "function"
    },
    {
      "constant": true,
      "inputs": [
        {
          "name": "",
          "type": "address"
        }
      ],
      "name": "isAdmin",
      "outputs": [
        {
          "name": "",
          "type": "bool"
        }
      ],
      "payable": false,
      "stateMutability": "view",
      "type": "function"
    },
    {
      "constant": true,
      "inputs": [],
      "name": "getAdmins",
      "outputs": [
        {
          "name": "",
          "type": "address[]"
        }
      ],
      "payable": false,
      "stateMutability": "view",
      "type": "function"
    },
    {
      "constant": false,
      "inputs": [
        {
          "name": "admin",
          "type": "address"
        }
      ],
      "name": "addAdmin",
      "outputs": [],
      "payable": false,
      "stateMutability": "nonpayable",
      "type": "function"
    },
    {
      "constant": false,
      "inputs": [
        {
          "name": "banned",
          "type": "address"
        }
      ],
      "name": "addBanned",
      "outputs": [],
      "payable": false,
      "stateMutability": "nonpayable",
      "type": "function"
    },
    {
      "inputs": [
        {
          "name": "_graphRoot",
          "type": "address"
        },
        {
          "name": "_smartKey",
          "type": "address"
        },
        {
          "name": "adminAddress",
          "type": "address[]"
        }
      ],
      "payable": false,
      "stateMutability": "nonpayable",
      "type": "constructor"
    },
    {
      "constant": false,
      "inputs": [
        {
          "name": "_parentNode",
          "type": "address"
        },
        {
          "name": "_href",
          "type": "string"
        }
      ],
      "name": "upsertItem",
      "outputs": [
        {
          "name": "",
          "type": "bool"
        }
      ],
      "payable": true,
      "stateMutability": "payable",
      "type": "function"
    }
  ],
  "bytecode": "0x6060604052341561000f57600080fd5b604051620061bb380380620061bb833981016040528080519060200190919080519060200190919080518201919050508060008090505b81518110156100ca576001600080848481518110151561006257fe5b9060200190602002015173ffffffffffffffffffffffffffffffffffffffff1673ffffffffffffffffffffffffffffffffffffffff16815260200190815260200160002060006101000a81548160ff0219169083151502179055508080600101915050610046565b81600190805190602001906100e092919061016d565b50505081600260006101000a81548173ffffffffffffffffffffffffffffffffffffffff021916908373ffffffffffffffffffffffffffffffffffffffff16021790555082600360006101000a81548173ffffffffffffffffffffffffffffffffffffffff021916908373ffffffffffffffffffffffffffffffffffffffff16021790555050505061023a565b8280548282559060005260206000209081019282156101e6579160200282015b828111156101e55782518260006101000a81548173ffffffffffffffffffffffffffffffffffffffff021916908373ffffffffffffffffffffffffffffffffffffffff1602179055509160200191906001019061018d565b5b5090506101f391906101f7565b5090565b61023791905b8082111561023357600081816101000a81549073ffffffffffffffffffffffffffffffffffffffff0219169055506001016101fd565b5090565b90565b615f71806200024a6000396000f3006060604052600436106200007f576000357c0100000000000000000000000000000000000000000000000000000000900463ffffffff16806314bfd6d0146200008457806324d7806c14620000ea57806331ae450b146200013e57806367d90da214620001ad578063704802751462000238578063e1b2e8b31462000274575b600080fd5b34156200009057600080fd5b620000a86004808035906020019091905050620002b0565b604051808273ffffffffffffffffffffffffffffffffffffffff1673ffffffffffffffffffffffffffffffffffffffff16815260200191505060405180910390f35b3415620000f657600080fd5b62000124600480803573ffffffffffffffffffffffffffffffffffffffff16906020019091905050620002f0565b604051808215151515815260200191505060405180910390f35b34156200014a57600080fd5b6200015462000310565b6040518080602001828103825283818151815260200191508051906020019060200280838360005b83811015620001995780820151818401526020810190506200017c565b505050509050019250505060405180910390f35b6200021e600480803573ffffffffffffffffffffffffffffffffffffffff1690602001909190803590602001908201803590602001908080601f01602080910402602001604051908101604052809392919081815260200183838082843782019150505050505091905050620003a8565b604051808215151515815260200191505060405180910390f35b34156200024457600080fd5b62000272600480803573ffffffffffffffffffffffffffffffffffffffff1690602001909190505062000b6b565b005b34156200028057600080fd5b620002ae600480803573ffffffffffffffffffffffffffffffffffffffff1690602001909190505062000cda565b005b600181815481101515620002c057fe5b90600052602060002090016000915054906101000a900473ffffffffffffffffffffffffffffffffffffffff1681565b60006020528060005260406000206000915054906101000a900460ff1681565b6200031a62000eb7565b60018054806020026020016040519081016040528092919081815260200182805480156200039e57602002820191906000526020600020905b8160009054906101000a900473ffffffffffffffffffffffffffffffffffffffff1673ffffffffffffffffffffffffffffffffffffffff168152602001906001019080831162000353575b5050505050905090565b600080620003b562000eb7565b600360009054906101000a900473ffffffffffffffffffffffffffffffffffffffff1673ffffffffffffffffffffffffffffffffffffffff1663b6010fcd856000604051602001526040518263ffffffff167c01000000000000000000000000000000000000000000000000000000000281526004018080602001828103825283818151815260200191508051906020019080838360005b838110156200046a5780820151818401526020810190506200044d565b50505050905090810190601f168015620004985780820380516001836020036101000a031916815260200191505b5092505050602060405180830381600087803b1515620004b757600080fd5b6102c65a03f11515620004c957600080fd5b505050604051805190509150600073ffffffffffffffffffffffffffffffffffffffff168273ffffffffffffffffffffffffffffffffffffffff161415620007bc5760046040518059106200051b5750595b90808252806020026020018201604052509050338160008151811015156200053f57fe5b9060200190602002019073ffffffffffffffffffffffffffffffffffffffff16908173ffffffffffffffffffffffffffffffffffffffff1681525050848160018151811015156200058c57fe5b9060200190602002019073ffffffffffffffffffffffffffffffffffffffff16908173ffffffffffffffffffffffffffffffffffffffff168152505030816002815181101515620005d957fe5b9060200190602002019073ffffffffffffffffffffffffffffffffffffffff16908173ffffffffffffffffffffffffffffffffffffffff1681525050600360009054906101000a900473ffffffffffffffffffffffffffffffffffffffff168160038151811015156200064857fe5b9060200190602002019073ffffffffffffffffffffffffffffffffffffffff16908173ffffffffffffffffffffffffffffffffffffffff1681525050600260009054906101000a900473ffffffffffffffffffffffffffffffffffffffff168185620006b362000ecb565b808473ffffffffffffffffffffffffffffffffffffffff1673ffffffffffffffffffffffffffffffffffffffff1681526020018060200180602001838103835285818151815260200191508051906020019060200280838360005b838110156200072b5780820151818401526020810190506200070e565b50505050905001838103825284818151815260200191508051906020019080838360005b838110156200076c5780820151818401526020810190506200074f565b50505050905090810190601f1680156200079a5780820380516001836020036101000a031916815260200191505b5095505050505050604051809103906000f0801515620007b957600080fd5b91505b600260009054906101000a900473ffffffffffffffffffffffffffffffffffffffff1673ffffffffffffffffffffffffffffffffffffffff166342aa9bba83846040518363ffffffff167c0100000000000000000000000000000000000000000000000000000000028152600401808373ffffffffffffffffffffffffffffffffffffffff1673ffffffffffffffffffffffffffffffffffffffff1681526020018273ffffffffffffffffffffffffffffffffffffffff1673ffffffffffffffffffffffffffffffffffffffff16815260200192505050600060405180830381600087803b1515620008ad57600080fd5b6102c65a03f11515620008bf57600080fd5b5050508473ffffffffffffffffffffffffffffffffffffffff166367d90da2600234811515620008eb57fe5b0484876000604051602001526040518463ffffffff167c0100000000000000000000000000000000000000000000000000000000028152600401808373ffffffffffffffffffffffffffffffffffffffff1673ffffffffffffffffffffffffffffffffffffffff16815260200180602001828103825283818151815260200191508051906020019080838360005b838110156200099657808201518184015260208101905062000979565b50505050905090810190601f168015620009c45780820380516001836020036101000a031916815260200191505b5093505050506020604051808303818588803b1515620009e357600080fd5b6125ee5a03f11515620009f557600080fd5b505050506040518051905050600360009054906101000a900473ffffffffffffffffffffffffffffffffffffffff1673ffffffffffffffffffffffffffffffffffffffff166367d90da260023481151562000a4c57fe5b0484876000604051602001526040518463ffffffff167c0100000000000000000000000000000000000000000000000000000000028152600401808373ffffffffffffffffffffffffffffffffffffffff1673ffffffffffffffffffffffffffffffffffffffff16815260200180602001828103825283818151815260200191508051906020019080838360005b8381101562000af757808201518184015260208101905062000ada565b50505050905090810190601f16801562000b255780820380516001836020036101000a031916815260200191505b5093505050506020604051808303818588803b151562000b4457600080fd5b6125ee5a03f1151562000b5657600080fd5b50505050604051805190509250505092915050565b6000803373ffffffffffffffffffffffffffffffffffffffff1673ffffffffffffffffffffffffffffffffffffffff16815260200190815260200160002060009054906101000a900460ff16151562000bc357600080fd5b6000803373ffffffffffffffffffffffffffffffffffffffff1673ffffffffffffffffffffffffffffffffffffffff16815260200190815260200160002060009054906101000a900460ff16151562000c1b57600080fd5b60016000808373ffffffffffffffffffffffffffffffffffffffff1673ffffffffffffffffffffffffffffffffffffffff16815260200190815260200160002060006101000a81548160ff0219169083151502179055506001805480600101828162000c88919062000edc565b9160005260206000209001600083909190916101000a81548173ffffffffffffffffffffffffffffffffffffffff021916908373ffffffffffffffffffffffffffffffffffffffff1602179055505050565b60008060003373ffffffffffffffffffffffffffffffffffffffff1673ffffffffffffffffffffffffffffffffffffffff16815260200190815260200160002060009054906101000a900460ff16151562000d3457600080fd5b6000803373ffffffffffffffffffffffffffffffffffffffff1673ffffffffffffffffffffffffffffffffffffffff16815260200190815260200160002060009054906101000a900460ff16151562000d8c57600080fd5b60008060008473ffffffffffffffffffffffffffffffffffffffff1673ffffffffffffffffffffffffffffffffffffffff16815260200190815260200160002060006101000a81548160ff021916908315150217905550600090505b60018054905081101562000eb35760018181548110151562000e0657fe5b906000526020600020900160009054906101000a900473ffffffffffffffffffffffffffffffffffffffff1673ffffffffffffffffffffffffffffffffffffffff168273ffffffffffffffffffffffffffffffffffffffff16141562000ea55760018181548110151562000e7657fe5b906000526020600020900160006101000a81549073ffffffffffffffffffffffffffffffffffffffff02191690555b808060010191505062000de8565b5050565b602060405190810160405280600081525090565b6040516150128062000f3483390190565b81548183558181151162000f065781836000526020600020918201910162000f05919062000f0b565b5b505050565b62000f3091905b8082111562000f2c57600081600090555060010162000f12565b5090565b905600606060405234156200001057600080fd5b60405162005012380380620050128339810160405280805190602001909190805182019190602001805182019190505060008383818181308260008090505b8151811015620000d657600160008084848151811015156200006d57fe5b9060200190602002015173ffffffffffffffffffffffffffffffffffffffff1673ffffffffffffffffffffffffffffffffffffffff16815260200190815260200160002060006101000a81548160ff02191690831515021790555080806001019150506200004f565b8160019080519060200190620000ee929190620004d0565b5050506001600260003373ffffffffffffffffffffffffffffffffffffffff1673ffffffffffffffffffffffffffffffffffffffff16815260200190815260200160002060006101000a81548160ff02191690831515021790555060008173ffffffffffffffffffffffffffffffffffffffff16141515156200017057600080fd5b80600460006101000a81548173ffffffffffffffffffffffffffffffffffffffff021916908373ffffffffffffffffffffffffffffffffffffffff16021790555081600360006101000a81548173ffffffffffffffffffffffffffffffffffffffff021916908373ffffffffffffffffffffffffffffffffffffffff1602179055506000600460146101000a81548160ff021916908360028111156200021257fe5b02179055506001600260008373ffffffffffffffffffffffffffffffffffffffff1673ffffffffffffffffffffffffffffffffffffffff16815260200190815260200160002060006101000a81548160ff0219169083151502179055506001600260008473ffffffffffffffffffffffffffffffffffffffff1673ffffffffffffffffffffffffffffffffffffffff16815260200190815260200160002060006101000a81548160ff021916908315150217905550505081600360006101000a81548173ffffffffffffffffffffffffffffffffffffffff021916908373ffffffffffffffffffffffffffffffffffffffff1602179055505050505081600b9080519060200190620003269291906200055f565b50600090505b82518110156200037b576200036d83828151811015156200034957fe5b90602001906020020151620003c3640100000000026200260b176401000000009004565b80806001019150506200032c565b6200039a84620003c3640100000000026200260b176401000000009004565b620003b930620003c3640100000000026200260b176401000000009004565b5050505062000654565b600260003373ffffffffffffffffffffffffffffffffffffffff1673ffffffffffffffffffffffffffffffffffffffff16815260200190815260200160002060009054906101000a900460ff1615156200041c57600080fd5b600260003373ffffffffffffffffffffffffffffffffffffffff1673ffffffffffffffffffffffffffffffffffffffff16815260200190815260200160002060009054906101000a900460ff1615156200047557600080fd5b6001600260008373ffffffffffffffffffffffffffffffffffffffff1673ffffffffffffffffffffffffffffffffffffffff16815260200190815260200160002060006101000a81548160ff02191690831515021790555050565b8280548282559060005260206000209081019282156200054c579160200282015b828111156200054b5782518260006101000a81548173ffffffffffffffffffffffffffffffffffffffff021916908373ffffffffffffffffffffffffffffffffffffffff16021790555091602001919060010190620004f1565b5b5090506200055b9190620005e6565b5090565b828054600181600116156101000203166002900490600052602060002090601f016020900481019282601f10620005a257805160ff1916838001178555620005d3565b82800160010185558215620005d3579182015b82811115620005d2578251825591602001919060010190620005b5565b5b509050620005e291906200062c565b5090565b6200062991905b808211156200062557600081816101000a81549073ffffffffffffffffffffffffffffffffffffffff021916905550600101620005ed565b5090565b90565b6200065191905b808211156200064d57600081600090555060010162000633565b5090565b90565b6149ae80620006646000396000f3006060604052600436106200020b576000357c0100000000000000000000000000000000000000000000000000000000900463ffffffff16806303db428d1462000218578063113adf4914620002d357806314538128146200032b57806314bfd6d014620003c5578063173825d9146200042b5780631801e1561462000467578063202e079d146200049b57806323ca0cd214620004c757806324d7806c14620005175780632f54bf6e146200056b57806331ae450b14620005bf57806336eeaa6a146200062e57806349f9c0e414620006c25780635436e5a014620007075780635571edeb14620007ad5780635b2ce58614620008175780635b6beeb914620008345780635c866c7814620008b0578063640e7fd5146200090857806367d90da214620009435780637048027514620009ce5780637065cb481462000a0a57806374ddcd6e1462000a465780637633a22c1462000ab5578063779d86771462000af05780639172fe081462000b40578063b6010fcd1462000b70578063b7760c8f1462000c10578063b9d191661462000c55578063bfb231d21462000ccd578063c19d93fb1462000d33578063cd5cfdaf1462000d6e578063d4c2f75c1462000dd4578063e1b2e8b31462000e59578063ec6f214e1462000e95578063f63553b51462000f6c578063f95fd40b1462000fd6578063fbfa77cf1462001045578063fd08e0c7146200109d575b620002163362001179565b005b34156200022457600080fd5b620002b9600480803590602001908201803590602001908080601f0160208091040260200160405190810160405280939291908181526020018383808284378201915050505050509190803590602001908201803590602001908080601f01602080910402602001604051908101604052809392919081815260200183838082843782019150505050505091905050620012c7565b604051808215151515815260200191505060405180910390f35b3415620002df57600080fd5b620002e96200139a565b604051808273ffffffffffffffffffffffffffffffffffffffff1673ffffffffffffffffffffffffffffffffffffffff16815260200191505060405180910390f35b34156200033757600080fd5b6200036e600480803573ffffffffffffffffffffffffffffffffffffffff16906020019091908035906020019091905050620013c0565b604051808573ffffffffffffffffffffffffffffffffffffffff1673ffffffffffffffffffffffffffffffffffffffff16815260200184815260200183815260200182815260200194505050505060405180910390f35b3415620003d157600080fd5b620003e960048080359060200190919050506200142d565b604051808273ffffffffffffffffffffffffffffffffffffffff1673ffffffffffffffffffffffffffffffffffffffff16815260200191505060405180910390f35b34156200043757600080fd5b62000465600480803573ffffffffffffffffffffffffffffffffffffffff169060200190919050506200146d565b005b34156200047357600080fd5b6200047d6200157a565b60405180826000191660001916815260200191505060405180910390f35b3415620004a757600080fd5b620004b162001817565b6040518082815260200191505060405180910390f35b3415620004d357600080fd5b62000501600480803573ffffffffffffffffffffffffffffffffffffffff169060200190919050506200181d565b6040518082815260200191505060405180910390f35b34156200052357600080fd5b62000551600480803573ffffffffffffffffffffffffffffffffffffffff1690602001909190505062001869565b604051808215151515815260200191505060405180910390f35b34156200057757600080fd5b620005a5600480803573ffffffffffffffffffffffffffffffffffffffff1690602001909190505062001889565b604051808215151515815260200191505060405180910390f35b3415620005cb57600080fd5b620005d5620018a9565b6040518080602001828103825283818151815260200191508051906020019060200280838360005b838110156200061a578082015181840152602081019050620005fd565b505050509050019250505060405180910390f35b34156200063a57600080fd5b6200064462001941565b6040518080602001828103825283818151815260200191508051906020019080838360005b838110156200068657808201518184015260208101905062000669565b50505050905090810190601f168015620006b45780820380516001836020036101000a031916815260200191505b509250505060405180910390f35b3415620006ce57600080fd5b62000705600480803590602001909190803573ffffffffffffffffffffffffffffffffffffffff16906020019091905050620019e3565b005b34156200071357600080fd5b6200072f60048080356000191690602001909190505062001bc1565b6040518080602001828103825283818151815260200191508051906020019080838360005b838110156200077157808201518184015260208101905062000754565b50505050905090810190601f1680156200079f5780820380516001836020036101000a031916815260200191505b509250505060405180910390f35b3415620007b957600080fd5b620007d560048080356000191690602001909190505062001ce3565b604051808273ffffffffffffffffffffffffffffffffffffffff1673ffffffffffffffffffffffffffffffffffffffff16815260200191505060405180910390f35b62000832600480803560ff1690602001909190505062001d16565b005b34156200084057600080fd5b62000892600480803590602001908201803590602001908080601f01602080910402602001604051908101604052809392919081815260200183838082843782019150505050505091905050620021a0565b60405180826000191660001916815260200191505060405180910390f35b3415620008bc57600080fd5b620008c66200220e565b604051808273ffffffffffffffffffffffffffffffffffffffff1673ffffffffffffffffffffffffffffffffffffffff16815260200191505060405180910390f35b34156200091457600080fd5b6200091e62002238565b604051808260068111156200092f57fe5b60ff16815260200191505060405180910390f35b620009b4600480803573ffffffffffffffffffffffffffffffffffffffff1690602001909190803590602001908201803590602001908080601f016020809104026020016040519081016040528093929190818152602001838380828437820191505050505050919050506200224f565b604051808215151515815260200191505060405180910390f35b3415620009da57600080fd5b62000a08600480803573ffffffffffffffffffffffffffffffffffffffff169060200190919050506200249c565b005b341562000a1657600080fd5b62000a44600480803573ffffffffffffffffffffffffffffffffffffffff169060200190919050506200260b565b005b341562000a5257600080fd5b62000a5c62002718565b6040518080602001828103825283818151815260200191508051906020019060200280838360005b8381101562000aa157808201518184015260208101905062000a84565b505050509050019250505060405180910390f35b341562000ac157600080fd5b62000acb620027b0565b6040518082600681111562000adc57fe5b60ff16815260200191505060405180910390f35b341562000afc57600080fd5b62000b2a600480803573ffffffffffffffffffffffffffffffffffffffff16906020019091905050620027c3565b6040518082815260200191505060405180910390f35b62000b6e600480803573ffffffffffffffffffffffffffffffffffffffff1690602001909190505062001179565b005b341562000b7c57600080fd5b62000bce600480803590602001908201803590602001908080601f01602080910402602001604051908101604052809392919081815260200183838082843782019150505050505091905050620027db565b604051808273ffffffffffffffffffffffffffffffffffffffff1673ffffffffffffffffffffffffffffffffffffffff16815260200191505060405180910390f35b341562000c1c57600080fd5b62000c53600480803590602001909190803573ffffffffffffffffffffffffffffffffffffffff16906020019091905050620028c0565b005b341562000c6157600080fd5b62000cb3600480803590602001908201803590602001908080601f0160208091040260200160405190810160405280939291908181526020018383808284378201915050505050509190505062002b48565b604051808215151515815260200191505060405180910390f35b341562000cd957600080fd5b62000cf1600480803590602001909190505062002bc4565b604051808273ffffffffffffffffffffffffffffffffffffffff1673ffffffffffffffffffffffffffffffffffffffff16815260200191505060405180910390f35b341562000d3f57600080fd5b62000d4962002c04565b6040518082600281111562000d5a57fe5b60ff16815260200191505060405180910390f35b341562000d7a57600080fd5b62000d92600480803590602001909190505062002c17565b604051808273ffffffffffffffffffffffffffffffffffffffff1673ffffffffffffffffffffffffffffffffffffffff16815260200191505060405180910390f35b341562000de057600080fd5b62000e3f60048080356000191690602001909190803590602001908201803590602001908080601f0160208091040260200160405190810160405280939291908181526020018383808284378201915050505050509190505062002c57565b604051808215151515815260200191505060405180910390f35b341562000e6557600080fd5b62000e93600480803573ffffffffffffffffffffffffffffffffffffffff1690602001909190505062002cee565b005b62000f2a600480803590602001908201803590602001908080601f0160208091040260200160405190810160405280939291908181526020018383808284378201915050505050509190803590602001908201803590602001908080601f0160208091040260200160405190810160405280939291908181526020018383808284378201915050505050509190505062002ecb565b604051808273ffffffffffffffffffffffffffffffffffffffff1673ffffffffffffffffffffffffffffffffffffffff16815260200191505060405180910390f35b341562000f7857600080fd5b62000f94600480803560001916906020019091905050620035b9565b604051808273ffffffffffffffffffffffffffffffffffffffff1673ffffffffffffffffffffffffffffffffffffffff16815260200191505060405180910390f35b341562000fe257600080fd5b62000fec620035ec565b6040518080602001828103825283818151815260200191508051906020019060200280838360005b838110156200103157808201518184015260208101905062001014565b505050509050019250505060405180910390f35b34156200105157600080fd5b6200105b62003684565b604051808273ffffffffffffffffffffffffffffffffffffffff1673ffffffffffffffffffffffffffffffffffffffff16815260200191505060405180910390f35b3415620010a957600080fd5b620010fb600480803590602001908201803590602001908080601f01602080910402602001604051908101604052809392919081815260200183838082843782019150505050505091905050620036aa565b6040518080602001828103825283818151815260200191508051906020019080838360005b838110156200113d57808201518184015260208101905062001120565b50505050905090810190601f1680156200116b5780820380516001836020036101000a031916815260200191505b509250505060405180910390f35b6001600460146101000a81548160ff021916908360028111156200119957fe5b0217905550620011b5346005546200378390919063ffffffff16565b600581905550600760008273ffffffffffffffffffffffffffffffffffffffff1673ffffffffffffffffffffffffffffffffffffffff16815260200190815260200160002080548060010182816200120e9190620037a2565b916000526020600020906004020160006080604051908101604052803373ffffffffffffffffffffffffffffffffffffffff1681526020014281526020013481526020016000815250909190915060008201518160000160006101000a81548173ffffffffffffffffffffffffffffffffffffffff021916908373ffffffffffffffffffffffffffffffffffffffff16021790555060208201518160010155604082015181600201556060820151816003015550505050565b6000600260003373ffffffffffffffffffffffffffffffffffffffff1673ffffffffffffffffffffffffffffffffffffffff16815260200190815260200160002060009054906101000a900460ff1615156200132257600080fd5b62001392836040518082805190602001908083835b6020831015156200135e578051825260208201915060208101905060208303925062001337565b6001836020036101000a03801982511681845116808217855250505050505090500191505060405180910390208362002c57565b905092915050565b600360009054906101000a900473ffffffffffffffffffffffffffffffffffffffff1681565b600760205281600052604060002081815481101515620013dc57fe5b9060005260206000209060040201600091509150508060000160009054906101000a900473ffffffffffffffffffffffffffffffffffffffff16908060010154908060020154908060030154905084565b6001818154811015156200143d57fe5b90600052602060002090016000915054906101000a900473ffffffffffffffffffffffffffffffffffffffff1681565b600260003373ffffffffffffffffffffffffffffffffffffffff1673ffffffffffffffffffffffffffffffffffffffff16815260200190815260200160002060009054906101000a900460ff161515620014c657600080fd5b600260003373ffffffffffffffffffffffffffffffffffffffff1673ffffffffffffffffffffffffffffffffffffffff16815260200190815260200160002060009054906101000a900460ff1615156200151f57600080fd5b6000600260008373ffffffffffffffffffffffffffffffffffffffff1673ffffffffffffffffffffffffffffffffffffffff16815260200190815260200160002060006101000a81548160ff02191690831515021790555050565b60008060068111156200158957fe5b600460159054906101000a900460ff166006811115620015a557fe5b1415620015d5577f50726f766973696f6e696e670000000000000000000000000000000000000000905062001814565b60016006811115620015e357fe5b600460159054906101000a900460ff166006811115620015ff57fe5b14156200162f577f4365727469666965640000000000000000000000000000000000000000000000905062001814565b600260068111156200163d57fe5b600460159054906101000a900460ff1660068111156200165957fe5b141562001689577f4d6f646966696564000000000000000000000000000000000000000000000000905062001814565b600360068111156200169757fe5b600460159054906101000a900460ff166006811115620016b357fe5b1415620016e3577f436f6d70726f6d69736564000000000000000000000000000000000000000000905062001814565b60046006811115620016f157fe5b600460159054906101000a900460ff1660068111156200170d57fe5b14156200173d577f4d616c66756e6374696f6e696e67000000000000000000000000000000000000905062001814565b600560068111156200174b57fe5b600460159054906101000a900460ff1660068111156200176757fe5b141562001797577f4861726d66756c00000000000000000000000000000000000000000000000000905062001814565b600680811115620017a457fe5b600460159054906101000a900460ff166006811115620017c057fe5b1415620017f0577f436f756e74657266656974000000000000000000000000000000000000000000905062001814565b7f436f756e7465726665697400000000000000000000000000000000000000000090505b90565b60055481565b6000600760008373ffffffffffffffffffffffffffffffffffffffff1673ffffffffffffffffffffffffffffffffffffffff168152602001908152602001600020805490509050919050565b60006020528060005260406000206000915054906101000a900460ff1681565b60026020528060005260406000206000915054906101000a900460ff1681565b620018b3620037d7565b60018054806020026020016040519081016040528092919081815260200182805480156200193757602002820191906000526020600020905b8160009054906101000a900473ffffffffffffffffffffffffffffffffffffffff1673ffffffffffffffffffffffffffffffffffffffff1681526020019060010190808311620018ec575b5050505050905090565b600b8054600181600116156101000203166002900480601f016020809104026020016040519081016040528092919081815260200182805460018160011615610100020316600290048015620019db5780601f10620019af57610100808354040283529160200191620019db565b820191906000526020600020905b815481529060010190602001808311620019bd57829003601f168201915b505050505081565b600260003373ffffffffffffffffffffffffffffffffffffffff1673ffffffffffffffffffffffffffffffffffffffff16815260200190815260200160002060009054906101000a900460ff16151562001a3c57600080fd5b6001600281111562001a4a57fe5b600460149054906101000a900460ff16600281111562001a6657fe5b14151562001a7357600080fd5b8073ffffffffffffffffffffffffffffffffffffffff166108fc839081150290604051600060405180830381858888f19350505050151562001ab457600080fd5b600760003073ffffffffffffffffffffffffffffffffffffffff1673ffffffffffffffffffffffffffffffffffffffff168152602001908152602001600020805480600101828162001b079190620037a2565b916000526020600020906004020160006080604051908101604052808573ffffffffffffffffffffffffffffffffffffffff1681526020014281526020018681526020016001815250909190915060008201518160000160006101000a81548173ffffffffffffffffffffffffffffffffffffffff021916908373ffffffffffffffffffffffffffffffffffffffff1602179055506020820151816001015560408201518160020155606082015181600301555050505050565b62001bcb620037eb565b600260003373ffffffffffffffffffffffffffffffffffffffff1673ffffffffffffffffffffffffffffffffffffffff16815260200190815260200160002060009054906101000a900460ff16151562001c2457600080fd5b6008600083600019166000191681526020019081526020016000208054600181600116156101000203166002900480601f01602080910402602001604051908101604052809291908181526020018280546001816001161561010002031660029004801562001cd75780601f1062001cab5761010080835404028352916020019162001cd7565b820191906000526020600020905b81548152906001019060200180831162001cb957829003601f168201915b50505050509050919050565b600a6020528060005260406000206000915054906101000a900473ffffffffffffffffffffffffffffffffffffffff1681565b80600460156101000a81548160ff0219169083600681111562001d3557fe5b0217905550600181600681111562001d4957fe5b111562001ec357600360009054906101000a900473ffffffffffffffffffffffffffffffffffffffff1673ffffffffffffffffffffffffffffffffffffffff16630d6d3b6e3430337f4865616c74685761726e696e67000000000000000000000000000000000000006000604051602001526040518563ffffffff167c0100000000000000000000000000000000000000000000000000000000028152600401808473ffffffffffffffffffffffffffffffffffffffff1673ffffffffffffffffffffffffffffffffffffffff1681526020018373ffffffffffffffffffffffffffffffffffffffff1673ffffffffffffffffffffffffffffffffffffffff168152602001826000191660001916815260200193505050506020604051808303818588803b151562001e7a57600080fd5b6125ee5a03f1151562001e8c57600080fd5b5050505060405180519050506002600460146101000a81548160ff0219169083600281111562001eb857fe5b021790555062002031565b600360009054906101000a900473ffffffffffffffffffffffffffffffffffffffff1673ffffffffffffffffffffffffffffffffffffffff16630d6d3b6e3430337f4865616c746855706461746500000000000000000000000000000000000000006000604051602001526040518563ffffffff167c0100000000000000000000000000000000000000000000000000000000028152600401808473ffffffffffffffffffffffffffffffffffffffff1673ffffffffffffffffffffffffffffffffffffffff1681526020018373ffffffffffffffffffffffffffffffffffffffff1673ffffffffffffffffffffffffffffffffffffffff168152602001826000191660001916815260200193505050506020604051808303818588803b151562001fed57600080fd5b6125ee5a03f1151562001fff57600080fd5b5050505060405180519050506001600460146101000a81548160ff021916908360028111156200202b57fe5b02179055505b7fb6d7372bb54b80a5b1d60d3b1da737719783cc92a2095f10d9195105f7abeca581604051808260068111156200206457fe5b60ff16815260200191505060405180910390a16200208e346005546200378390919063ffffffff16565b600581905550600760003073ffffffffffffffffffffffffffffffffffffffff1673ffffffffffffffffffffffffffffffffffffffff1681526020019081526020016000208054806001018281620020e79190620037a2565b916000526020600020906004020160006080604051908101604052803373ffffffffffffffffffffffffffffffffffffffff1681526020014281526020013481526020016000815250909190915060008201518160000160006101000a81548173ffffffffffffffffffffffffffffffffffffffff021916908373ffffffffffffffffffffffffffffffffffffffff16021790555060208201518160010155604082015181600201556060820151816003015550505050565b6000816040518082805190602001908083835b602083101515620021da5780518252602082019150602081019050602083039250620021b3565b6001836020036101000a03801982511681845116808217855250505050505090500191505060405180910390209050919050565b6000600360009054906101000a900473ffffffffffffffffffffffffffffffffffffffff16905090565b6000600460159054906101000a900460ff16905090565b6000806200225d83620021a0565b905060006200226c84620027db565b73ffffffffffffffffffffffffffffffffffffffff1614156200234957600c80548060010182816200229f9190620037ff565b9160005260206000209001600086909190916101000a81548173ffffffffffffffffffffffffffffffffffffffff021916908373ffffffffffffffffffffffffffffffffffffffff1602179055505083600d6000836000191660001916815260200190815260200160002060006101000a81548173ffffffffffffffffffffffffffffffffffffffff021916908373ffffffffffffffffffffffffffffffffffffffff1602179055505b600360009054906101000a900473ffffffffffffffffffffffffffffffffffffffff1673ffffffffffffffffffffffffffffffffffffffff16630d6d3b6e3430877f4e6577436174616c6f67756500000000000000000000000000000000000000006000604051602001526040518563ffffffff167c0100000000000000000000000000000000000000000000000000000000028152600401808473ffffffffffffffffffffffffffffffffffffffff1673ffffffffffffffffffffffffffffffffffffffff1681526020018373ffffffffffffffffffffffffffffffffffffffff1673ffffffffffffffffffffffffffffffffffffffff168152602001826000191660001916815260200193505050506020604051808303818588803b15156200247357600080fd5b6125ee5a03f115156200248557600080fd5b505050506040518051905050600191505092915050565b6000803373ffffffffffffffffffffffffffffffffffffffff1673ffffffffffffffffffffffffffffffffffffffff16815260200190815260200160002060009054906101000a900460ff161515620024f457600080fd5b6000803373ffffffffffffffffffffffffffffffffffffffff1673ffffffffffffffffffffffffffffffffffffffff16815260200190815260200160002060009054906101000a900460ff1615156200254c57600080fd5b60016000808373ffffffffffffffffffffffffffffffffffffffff1673ffffffffffffffffffffffffffffffffffffffff16815260200190815260200160002060006101000a81548160ff02191690831515021790555060018054806001018281620025b99190620037ff565b9160005260206000209001600083909190916101000a81548173ffffffffffffffffffffffffffffffffffffffff021916908373ffffffffffffffffffffffffffffffffffffffff1602179055505050565b600260003373ffffffffffffffffffffffffffffffffffffffff1673ffffffffffffffffffffffffffffffffffffffff16815260200190815260200160002060009054906101000a900460ff1615156200266457600080fd5b600260003373ffffffffffffffffffffffffffffffffffffffff1673ffffffffffffffffffffffffffffffffffffffff16815260200190815260200160002060009054906101000a900460ff161515620026bd57600080fd5b6001600260008373ffffffffffffffffffffffffffffffffffffffff1673ffffffffffffffffffffffffffffffffffffffff16815260200190815260200160002060006101000a81548160ff02191690831515021790555050565b62002722620037d7565b600c805480602002602001604051908101604052809291908181526020018280548015620027a657602002820191906000526020600020905b8160009054906101000a900473ffffffffffffffffffffffffffffffffffffffff1673ffffffffffffffffffffffffffffffffffffffff16815260200190600101908083116200275b575b5050505050905090565b600460159054906101000a900460ff1681565b60066020528060005260406000206000915090505481565b600080600183511015620027f257309150620028ba565b620027fd83620021a0565b9050600073ffffffffffffffffffffffffffffffffffffffff16600d6000836000191660001916815260200190815260200160002060009054906101000a900473ffffffffffffffffffffffffffffffffffffffff1673ffffffffffffffffffffffffffffffffffffffff16141515620028b557600d6000826000191660001916815260200190815260200160002060009054906101000a900473ffffffffffffffffffffffffffffffffffffffff169150620028ba565b600091505b50919050565b600260003373ffffffffffffffffffffffffffffffffffffffff1673ffffffffffffffffffffffffffffffffffffffff16815260200190815260200160002060009054906101000a900460ff1615156200291957600080fd5b600160028111156200292757fe5b600460149054906101000a900460ff1660028111156200294357fe5b1415156200295057600080fd5b600360009054906101000a900473ffffffffffffffffffffffffffffffffffffffff1673ffffffffffffffffffffffffffffffffffffffff1663a9059cbb82846000604051602001526040518363ffffffff167c0100000000000000000000000000000000000000000000000000000000028152600401808373ffffffffffffffffffffffffffffffffffffffff1673ffffffffffffffffffffffffffffffffffffffff16815260200182815260200192505050602060405180830381600087803b151562002a1e57600080fd5b6102c65a03f1151562002a3057600080fd5b5050506040518051905050600760003073ffffffffffffffffffffffffffffffffffffffff1673ffffffffffffffffffffffffffffffffffffffff168152602001908152602001600020805480600101828162002a8e9190620037a2565b916000526020600020906004020160006080604051908101604052808573ffffffffffffffffffffffffffffffffffffffff1681526020014281526020018681526020016001815250909190915060008201518160000160006101000a81548173ffffffffffffffffffffffffffffffffffffffff021916908373ffffffffffffffffffffffffffffffffffffffff1602179055506020820151816001015560408201518160020155606082015181600301555050505050565b60008060003373ffffffffffffffffffffffffffffffffffffffff1673ffffffffffffffffffffffffffffffffffffffff16815260200190815260200160002060009054906101000a900460ff16151562002ba257600080fd5b81600b908051906020019062002bba9291906200382e565b5060019050919050565b600c8181548110151562002bd457fe5b90600052602060002090016000915054906101000a900473ffffffffffffffffffffffffffffffffffffffff1681565b600460149054906101000a900460ff1681565b60098181548110151562002c2757fe5b90600052602060002090016000915054906101000a900473ffffffffffffffffffffffffffffffffffffffff1681565b6000600260003373ffffffffffffffffffffffffffffffffffffffff1673ffffffffffffffffffffffffffffffffffffffff16815260200190815260200160002060009054906101000a900460ff16151562002cb257600080fd5b81600860008560001916600019168152602001908152602001600020908051906020019062002ce39291906200382e565b506001905092915050565b60008060003373ffffffffffffffffffffffffffffffffffffffff1673ffffffffffffffffffffffffffffffffffffffff16815260200190815260200160002060009054906101000a900460ff16151562002d4857600080fd5b6000803373ffffffffffffffffffffffffffffffffffffffff1673ffffffffffffffffffffffffffffffffffffffff16815260200190815260200160002060009054906101000a900460ff16151562002da057600080fd5b60008060008473ffffffffffffffffffffffffffffffffffffffff1673ffffffffffffffffffffffffffffffffffffffff16815260200190815260200160002060006101000a81548160ff021916908315150217905550600090505b60018054905081101562002ec75760018181548110151562002e1a57fe5b906000526020600020900160009054906101000a900473ffffffffffffffffffffffffffffffffffffffff1673ffffffffffffffffffffffffffffffffffffffff168273ffffffffffffffffffffffffffffffffffffffff16141562002eb95760018181548110151562002e8a57fe5b906000526020600020900160006101000a81549073ffffffffffffffffffffffffffffffffffffffff02191690555b808060010191505062002dfc565b5050565b600080600062002edb85620021a0565b9150600073ffffffffffffffffffffffffffffffffffffffff16600a6000846000191660001916815260200190815260200160002060009054906101000a900473ffffffffffffffffffffffffffffffffffffffff1673ffffffffffffffffffffffffffffffffffffffff161415620032f2576001905080805480600101828162002f679190620037ff565b9160005260206000209001600030909190916101000a81548173ffffffffffffffffffffffffffffffffffffffff021916908373ffffffffffffffffffffffffffffffffffffffff1602179055505080805480600101828162002fcb9190620037ff565b9160005260206000209001600033909190916101000a81548173ffffffffffffffffffffffffffffffffffffffff021916908373ffffffffffffffffffffffffffffffffffffffff16021790555050600360009054906101000a900473ffffffffffffffffffffffffffffffffffffffff16600186866200304b620038b5565b808573ffffffffffffffffffffffffffffffffffffffff1673ffffffffffffffffffffffffffffffffffffffff1681526020018060200180602001806020018481038452878181548152602001915080548015620030ff57602002820191906000526020600020905b8160009054906101000a900473ffffffffffffffffffffffffffffffffffffffff1673ffffffffffffffffffffffffffffffffffffffff1681526020019060010190808311620030b4575b5050848103835286818151815260200191508051906020019080838360005b838110156200313b5780820151818401526020810190506200311e565b50505050905090810190601f168015620031695780820380516001836020036101000a031916815260200191505b50848103825285818151815260200191508051906020019080838360005b83811015620031a457808201518184015260208101905062003187565b50505050905090810190601f168015620031d25780820380516001836020036101000a031916815260200191505b50975050505050505050604051809103906000f0801515620031f357600080fd5b600a6000846000191660001916815260200190815260200160002060006101000a81548173ffffffffffffffffffffffffffffffffffffffff021916908373ffffffffffffffffffffffffffffffffffffffff16021790555060098054806001018281620032629190620038c6565b91600052602060002090016000600a6000866000191660001916815260200190815260200160002060009054906101000a900473ffffffffffffffffffffffffffffffffffffffff16909190916101000a81548173ffffffffffffffffffffffffffffffffffffffff021916908373ffffffffffffffffffffffffffffffffffffffff160217905550506200342b565b600a6000836000191660001916815260200190815260200160002060009054906101000a900473ffffffffffffffffffffffffffffffffffffffff1673ffffffffffffffffffffffffffffffffffffffff16631aae2531856000604051602001526040518263ffffffff167c01000000000000000000000000000000000000000000000000000000000281526004018080602001828103825283818151815260200191508051906020019080838360005b83811015620033c0578082015181840152602081019050620033a3565b50505050905090810190601f168015620033ee5780820380516001836020036101000a031916815260200191505b5092505050602060405180830381600087803b15156200340d57600080fd5b6102c65a03f115156200341f57600080fd5b50505060405180519050505b600360009054906101000a900473ffffffffffffffffffffffffffffffffffffffff1673ffffffffffffffffffffffffffffffffffffffff16630d6d3b6e3430337f4d657461446174615570646174650000000000000000000000000000000000006000604051602001526040518563ffffffff167c0100000000000000000000000000000000000000000000000000000000028152600401808473ffffffffffffffffffffffffffffffffffffffff1673ffffffffffffffffffffffffffffffffffffffff1681526020018373ffffffffffffffffffffffffffffffffffffffff1673ffffffffffffffffffffffffffffffffffffffff168152602001826000191660001916815260200193505050506020604051808303818588803b15156200355557600080fd5b6125ee5a03f115156200356757600080fd5b505050506040518051905050600a6000836000191660001916815260200190815260200160002060009054906101000a900473ffffffffffffffffffffffffffffffffffffffff169250505092915050565b600d6020528060005260406000206000915054906101000a900473ffffffffffffffffffffffffffffffffffffffff1681565b620035f6620038f5565b60098054806020026020016040519081016040528092919081815260200182805480156200367a57602002820191906000526020600020905b8160009054906101000a900473ffffffffffffffffffffffffffffffffffffffff1673ffffffffffffffffffffffffffffffffffffffff16815260200190600101908083116200362f575b5050505050905090565b600460009054906101000a900473ffffffffffffffffffffffffffffffffffffffff1681565b620036b4620037eb565b600260003373ffffffffffffffffffffffffffffffffffffffff1673ffffffffffffffffffffffffffffffffffffffff16815260200190815260200160002060009054906101000a900460ff1615156200370d57600080fd5b6200377c826040518082805190602001908083835b60208310151562003749578051825260208201915060208101905060208303925062003722565b6001836020036101000a038019825116818451168082178552505050505050905001915050604051809103902062001bc1565b9050919050565b60008082840190508381101515156200379857fe5b8091505092915050565b815481835581811511620037d257600402816004028360005260206000209182019101620037d1919062003909565b5b505050565b602060405190810160405280600081525090565b602060405190810160405280600081525090565b81548183558181151162003829578183600052602060002091820191016200382891906200396a565b5b505050565b828054600181600116156101000203166002900490600052602060002090601f016020900481019282601f106200387157805160ff1916838001178555620038a2565b82800160010185558215620038a2579182015b82811115620038a157825182559160200191906001019062003884565b5b509050620038b191906200396a565b5090565b604051610ff0806200399383390190565b815481835581811511620038f057818360005260206000209182019101620038ef91906200396a565b5b505050565b602060405190810160405280600081525090565b6200396791905b808211156200396357600080820160006101000a81549073ffffffffffffffffffffffffffffffffffffffff02191690556001820160009055600282016000905560038201600090555060040162003910565b5090565b90565b6200398f91905b808211156200398b57600081600090555060010162003971565b5090565b905600606060405234156200001057600080fd5b60405162000ff038038062000ff0833981016040528080519060200190919080518201919060200180518201919060200180518201919050508260008090505b8151811015620000d757600160008084848151811015156200006e57fe5b9060200190602002015173ffffffffffffffffffffffffffffffffffffffff1673ffffffffffffffffffffffffffffffffffffffff16815260200190815260200160002060006101000a81548160ff021916908315150217905550808060010191505062000050565b8160019080519060200190620000ef9291906200016f565b50505083600260006101000a81548173ffffffffffffffffffffffffffffffffffffffff021916908373ffffffffffffffffffffffffffffffffffffffff16021790555081600390805190602001906200014b929190620001fe565b50806004908051906020019062000164929190620001fe565b5050505050620002f3565b828054828255906000526020600020908101928215620001eb579160200282015b82811115620001ea5782518260006101000a81548173ffffffffffffffffffffffffffffffffffffffff021916908373ffffffffffffffffffffffffffffffffffffffff1602179055509160200191906001019062000190565b5b509050620001fa919062000285565b5090565b828054600181600116156101000203166002900490600052602060002090601f016020900481019282601f106200024157805160ff191683800117855562000272565b8280016001018555821562000272579182015b828111156200027157825182559160200191906001019062000254565b5b509050620002819190620002cb565b5090565b620002c891905b80821115620002c457600081816101000a81549073ffffffffffffffffffffffffffffffffffffffff0219169055506001016200028c565b5090565b90565b620002f091905b80821115620002ec576000816000905550600101620002d2565b5090565b90565b610ced80620003036000396000f300606060405260043610610099576000357c0100000000000000000000000000000000000000000000000000000000900463ffffffff1680630fe4e9e81461009e57806314bfd6d01461013a5780631aae25311461019d57806324d7806c1461021257806331ae450b146102635780633c6bb436146102cd578063704802751461035b578063ce26e78a14610394578063e1b2e8b314610422575b600080fd5b34156100a957600080fd5b6100bf600480803590602001909190505061045b565b6040518080602001828103825283818151815260200191508051906020019080838360005b838110156100ff5780820151818401526020810190506100e4565b50505050905090810190601f16801561012c5780820380516001836020036101000a031916815260200191505b509250505060405180910390f35b341561014557600080fd5b61015b6004808035906020019091905050610517565b604051808273ffffffffffffffffffffffffffffffffffffffff1673ffffffffffffffffffffffffffffffffffffffff16815260200191505060405180910390f35b34156101a857600080fd5b6101f8600480803590602001908201803590602001908080601f01602080910402602001604051908101604052809392919081815260200183838082843782019150505050505091905050610556565b604051808215151515815260200191505060405180910390f35b341561021d57600080fd5b610249600480803573ffffffffffffffffffffffffffffffffffffffff1690602001909190505061060b565b604051808215151515815260200191505060405180910390f35b341561026e57600080fd5b61027661062b565b6040518080602001828103825283818151815260200191508051906020019060200280838360005b838110156102b957808201518184015260208101905061029e565b505050509050019250505060405180910390f35b34156102d857600080fd5b6102e06106bf565b6040518080602001828103825283818151815260200191508051906020019080838360005b83811015610320578082015181840152602081019050610305565b50505050905090810190601f16801561034d5780820380516001836020036101000a031916815260200191505b509250505060405180910390f35b341561036657600080fd5b610392600480803573ffffffffffffffffffffffffffffffffffffffff1690602001909190505061075d565b005b341561039f57600080fd5b6103a76108c8565b6040518080602001828103825283818151815260200191508051906020019080838360005b838110156103e75780820151818401526020810190506103cc565b50505050905090810190601f1680156104145780820380516001836020036101000a031916815260200191505b509250505060405180910390f35b341561042d57600080fd5b610459600480803573ffffffffffffffffffffffffffffffffffffffff16906020019091905050610966565b005b60058181548110151561046a57fe5b90600052602060002090016000915090508054600181600116156101000203166002900480601f01602080910402602001604051908101604052809291908181526020018280546001816001161561010002031660029004801561050f5780601f106104e45761010080835404028352916020019161050f565b820191906000526020600020905b8154815290600101906020018083116104f257829003601f168201915b505050505081565b60018181548110151561052657fe5b90600052602060002090016000915054906101000a900473ffffffffffffffffffffffffffffffffffffffff1681565b60008060003373ffffffffffffffffffffffffffffffffffffffff1673ffffffffffffffffffffffffffffffffffffffff16815260200190815260200160002060009054906101000a900460ff1615156105af57600080fd5b600580548060010182816105c39190610b3c565b9160005260206000209001600084909190915090805190602001906105e9929190610b68565b50508160049080519060200190610601929190610b68565b5060019050919050565b60006020528060005260406000206000915054906101000a900460ff1681565b610633610be8565b60018054806020026020016040519081016040528092919081815260200182805480156106b557602002820191906000526020600020905b8160009054906101000a900473ffffffffffffffffffffffffffffffffffffffff1673ffffffffffffffffffffffffffffffffffffffff168152602001906001019080831161066b575b5050505050905090565b60048054600181600116156101000203166002900480601f0160208091040260200160405190810160405280929190818152602001828054600181600116156101000203166002900480156107555780601f1061072a57610100808354040283529160200191610755565b820191906000526020600020905b81548152906001019060200180831161073857829003601f168201915b505050505081565b6000803373ffffffffffffffffffffffffffffffffffffffff1673ffffffffffffffffffffffffffffffffffffffff16815260200190815260200160002060009054906101000a900460ff1615156107b457600080fd5b6000803373ffffffffffffffffffffffffffffffffffffffff1673ffffffffffffffffffffffffffffffffffffffff16815260200190815260200160002060009054906101000a900460ff16151561080b57600080fd5b60016000808373ffffffffffffffffffffffffffffffffffffffff1673ffffffffffffffffffffffffffffffffffffffff16815260200190815260200160002060006101000a81548160ff021916908315150217905550600180548060010182816108769190610bfc565b9160005260206000209001600083909190916101000a81548173ffffffffffffffffffffffffffffffffffffffff021916908373ffffffffffffffffffffffffffffffffffffffff1602179055505050565b60038054600181600116156101000203166002900480601f01602080910402602001604051908101604052809291908181526020018280546001816001161561010002031660029004801561095e5780601f106109335761010080835404028352916020019161095e565b820191906000526020600020905b81548152906001019060200180831161094157829003601f168201915b505050505081565b60008060003373ffffffffffffffffffffffffffffffffffffffff1673ffffffffffffffffffffffffffffffffffffffff16815260200190815260200160002060009054906101000a900460ff1615156109bf57600080fd5b6000803373ffffffffffffffffffffffffffffffffffffffff1673ffffffffffffffffffffffffffffffffffffffff16815260200190815260200160002060009054906101000a900460ff161515610a1657600080fd5b60008060008473ffffffffffffffffffffffffffffffffffffffff1673ffffffffffffffffffffffffffffffffffffffff16815260200190815260200160002060006101000a81548160ff021916908315150217905550600090505b600180549050811015610b3857600181815481101515610a8e57fe5b906000526020600020900160009054906101000a900473ffffffffffffffffffffffffffffffffffffffff1673ffffffffffffffffffffffffffffffffffffffff168273ffffffffffffffffffffffffffffffffffffffff161415610b2b57600181815481101515610afc57fe5b906000526020600020900160006101000a81549073ffffffffffffffffffffffffffffffffffffffff02191690555b8080600101915050610a72565b5050565b815481835581811511610b6357818360005260206000209182019101610b629190610c28565b5b505050565b828054600181600116156101000203166002900490600052602060002090601f016020900481019282601f10610ba957805160ff1916838001178555610bd7565b82800160010185558215610bd7579182015b82811115610bd6578251825591602001919060010190610bbb565b5b509050610be49190610c54565b5090565b602060405190810160405280600081525090565b815481835581811511610c2357818360005260206000209182019101610c229190610c54565b5b505050565b610c5191905b80821115610c4d5760008181610c449190610c79565b50600101610c2e565b5090565b90565b610c7691905b80821115610c72576000816000905550600101610c5a565b5090565b90565b50805460018160011615610100020316600290046000825580601f10610c9f5750610cbe565b601f016020900490600052602060002090810190610cbd9190610c54565b5b505600a165627a7a723058202002776cafb8e53d25442649359918f45c27d75298af730675944e8c825efd810029a165627a7a7230582094ad50f141da4bb8ee4d645e918e957aab8be2e48e8406827a946906023360b00029a165627a7a72305820a85b1345dd4264ad2b1708c41d17440b835b3ec04b3f9ad7acec607a490c25d90029",
  "source": "pragma solidity ^0.4.18; \n\nimport \"./GraphRoot.sol\";\n\ncontract SmartNode is Administered {\n  \n  SmartKey smartKey;\n  GraphRoot graphRoot;\n  \n         \n  function SmartNode(GraphRoot _graphRoot, SmartKey _smartKey, address[] adminAddress) \n    Administered(adminAddress)\n    public\n  {\n      smartKey=_smartKey; \n      graphRoot=_graphRoot;\n  }\n\n  \n  function upsertItem(GraphNode _parentNode, string _href)\n  public\n  payable\n  returns (bool)\n  {\n    \n        address addr=graphRoot.getItem(_href);\n        if (addr == address(0)) { \n            \n            address[] memory _admins=new address[](4);\n            _admins[0]=msg.sender;\n            _admins[1]=address(_parentNode);  \n            _admins[2]=address(this);  \n            _admins[3]=address(graphRoot);  \n            \n            addr=address(new GraphNode(smartKey, _admins, _href));\n            \n        }\n        \n        smartKey.putSmartKey(GraphNode(addr), addr);\n        \n        _parentNode.upsertItem.value(msg.value/2)(GraphNode(addr), _href);\n        return graphRoot.upsertItem.value(msg.value/2)(GraphNode(addr), _href);\n      \n  }\n  \n  /*\n  function buyCatalogue(GraphNode _node)\n  public\n  {\n    \n    if (smartKey.balanceOf(msg.sender) >= smartKey.balanceOf(_node)) {\n        //this.removeOwner(vault);\n        //vault=msg.sender;\n        _node.addOwner(msg.sender);\n        //smartKey.loadSmartKey.value(msg.value)(Key(this), address(msg.sender), bytes32(\"Catalogue Purchase\"));\n    }\n  }\n  */ \n\n  \n}",
  "sourcePath": "/windata/iotblock/contracts/SmartNode.sol",
  "compiler": {
    "name": "solc",
    "version": "0.4.19+commit.c4cbbb05.Emscripten.clang"
  },
  "schemaVersion": "2.0.0",
  "updatedAt": "2018-11-21T11:43:20.877Z"
}