{
  "contractName": "SmartKey",
  "abi": [
    {
      "constant": true,
      "inputs": [],
      "name": "mintingFinished",
      "outputs": [
        {
          "name": "",
          "type": "bool"
        }
      ],
      "payable": false,
      "stateMutability": "view",
      "type": "function"
    },
    {
      "constant": true,
      "inputs": [],
      "name": "name",
      "outputs": [
        {
          "name": "",
          "type": "string"
        }
      ],
      "payable": false,
      "stateMutability": "view",
      "type": "function"
    },
    {
      "constant": false,
      "inputs": [
        {
          "name": "_spender",
          "type": "address"
        },
        {
          "name": "_value",
          "type": "uint256"
        }
      ],
      "name": "approve",
      "outputs": [
        {
          "name": "",
          "type": "bool"
        }
      ],
      "payable": false,
      "stateMutability": "nonpayable",
      "type": "function"
    },
    {
      "constant": true,
      "inputs": [
        {
          "name": "",
          "type": "uint256"
        }
      ],
      "name": "admins",
      "outputs": [
        {
          "name": "",
          "type": "address"
        }
      ],
      "payable": false,
      "stateMutability": "view",
      "type": "function"
    },
    {
      "constant": false,
      "inputs": [
        {
          "name": "_spender",
          "type": "address"
        },
        {
          "name": "_addedValue",
          "type": "uint256"
        },
        {
          "name": "_data",
          "type": "bytes"
        }
      ],
      "name": "increaseApproval",
      "outputs": [
        {
          "name": "",
          "type": "bool"
        }
      ],
      "payable": false,
      "stateMutability": "nonpayable",
      "type": "function"
    },
    {
      "constant": true,
      "inputs": [],
      "name": "totalSupply",
      "outputs": [
        {
          "name": "",
          "type": "uint256"
        }
      ],
      "payable": false,
      "stateMutability": "view",
      "type": "function"
    },
    {
      "constant": false,
      "inputs": [
        {
          "name": "_from",
          "type": "address"
        },
        {
          "name": "_to",
          "type": "address"
        },
        {
          "name": "_value",
          "type": "uint256"
        }
      ],
      "name": "transferFrom",
      "outputs": [
        {
          "name": "",
          "type": "bool"
        }
      ],
      "payable": false,
      "stateMutability": "nonpayable",
      "type": "function"
    },
    {
      "constant": true,
      "inputs": [
        {
          "name": "",
          "type": "address"
        }
      ],
      "name": "isAdmin",
      "outputs": [
        {
          "name": "",
          "type": "bool"
        }
      ],
      "payable": false,
      "stateMutability": "view",
      "type": "function"
    },
    {
      "constant": true,
      "inputs": [],
      "name": "rate",
      "outputs": [
        {
          "name": "",
          "type": "uint256"
        }
      ],
      "payable": false,
      "stateMutability": "view",
      "type": "function"
    },
    {
      "constant": true,
      "inputs": [],
      "name": "decimals",
      "outputs": [
        {
          "name": "",
          "type": "uint8"
        }
      ],
      "payable": false,
      "stateMutability": "view",
      "type": "function"
    },
    {
      "constant": true,
      "inputs": [],
      "name": "getAdmins",
      "outputs": [
        {
          "name": "",
          "type": "address[]"
        }
      ],
      "payable": false,
      "stateMutability": "view",
      "type": "function"
    },
    {
      "constant": false,
      "inputs": [
        {
          "name": "_rate",
          "type": "uint256"
        }
      ],
      "name": "setRate",
      "outputs": [
        {
          "name": "",
          "type": "uint256"
        }
      ],
      "payable": false,
      "stateMutability": "nonpayable",
      "type": "function"
    },
    {
      "constant": false,
      "inputs": [
        {
          "name": "_to",
          "type": "address"
        },
        {
          "name": "_amount",
          "type": "uint256"
        }
      ],
      "name": "mint",
      "outputs": [
        {
          "name": "",
          "type": "bool"
        }
      ],
      "payable": false,
      "stateMutability": "nonpayable",
      "type": "function"
    },
    {
      "constant": true,
      "inputs": [],
      "name": "version",
      "outputs": [
        {
          "name": "",
          "type": "string"
        }
      ],
      "payable": false,
      "stateMutability": "view",
      "type": "function"
    },
    {
      "constant": false,
      "inputs": [
        {
          "name": "_spender",
          "type": "address"
        },
        {
          "name": "_value",
          "type": "uint256"
        },
        {
          "name": "_data",
          "type": "bytes"
        }
      ],
      "name": "approve",
      "outputs": [
        {
          "name": "",
          "type": "bool"
        }
      ],
      "payable": false,
      "stateMutability": "nonpayable",
      "type": "function"
    },
    {
      "constant": false,
      "inputs": [
        {
          "name": "_spender",
          "type": "address"
        },
        {
          "name": "_subtractedValue",
          "type": "uint256"
        }
      ],
      "name": "decreaseApproval",
      "outputs": [
        {
          "name": "",
          "type": "bool"
        }
      ],
      "payable": false,
      "stateMutability": "nonpayable",
      "type": "function"
    },
    {
      "constant": false,
      "inputs": [
        {
          "name": "admin",
          "type": "address"
        }
      ],
      "name": "addAdmin",
      "outputs": [],
      "payable": false,
      "stateMutability": "nonpayable",
      "type": "function"
    },
    {
      "constant": true,
      "inputs": [
        {
          "name": "_owner",
          "type": "address"
        }
      ],
      "name": "balanceOf",
      "outputs": [
        {
          "name": "balance",
          "type": "uint256"
        }
      ],
      "payable": false,
      "stateMutability": "view",
      "type": "function"
    },
    {
      "constant": false,
      "inputs": [
        {
          "name": "_spender",
          "type": "address"
        },
        {
          "name": "_subtractedValue",
          "type": "uint256"
        },
        {
          "name": "_data",
          "type": "bytes"
        }
      ],
      "name": "decreaseApproval",
      "outputs": [
        {
          "name": "",
          "type": "bool"
        }
      ],
      "payable": false,
      "stateMutability": "nonpayable",
      "type": "function"
    },
    {
      "constant": true,
      "inputs": [
        {
          "name": "",
          "type": "address"
        },
        {
          "name": "",
          "type": "uint256"
        }
      ],
      "name": "events",
      "outputs": [
        {
          "name": "account",
          "type": "address"
        },
        {
          "name": "date",
          "type": "uint256"
        },
        {
          "name": "amount",
          "type": "uint256"
        },
        {
          "name": "transaction_name",
          "type": "bytes32"
        },
        {
          "name": "health_status",
          "type": "bytes32"
        },
        {
          "name": "user_health_status",
          "type": "bytes32"
        }
      ],
      "payable": false,
      "stateMutability": "view",
      "type": "function"
    },
    {
      "constant": true,
      "inputs": [
        {
          "name": "",
          "type": "address"
        }
      ],
      "name": "smartKeys",
      "outputs": [
        {
          "name": "",
          "type": "address"
        }
      ],
      "payable": false,
      "stateMutability": "view",
      "type": "function"
    },
    {
      "constant": true,
      "inputs": [],
      "name": "symbol",
      "outputs": [
        {
          "name": "",
          "type": "string"
        }
      ],
      "payable": false,
      "stateMutability": "view",
      "type": "function"
    },
    {
      "constant": true,
      "inputs": [],
      "name": "tokenMinted",
      "outputs": [
        {
          "name": "",
          "type": "uint256"
        }
      ],
      "payable": false,
      "stateMutability": "view",
      "type": "function"
    },
    {
      "constant": false,
      "inputs": [
        {
          "name": "_to",
          "type": "address"
        },
        {
          "name": "_value",
          "type": "uint256"
        }
      ],
      "name": "transfer",
      "outputs": [
        {
          "name": "",
          "type": "bool"
        }
      ],
      "payable": false,
      "stateMutability": "nonpayable",
      "type": "function"
    },
    {
      "constant": false,
      "inputs": [
        {
          "name": "_from",
          "type": "address"
        },
        {
          "name": "_to",
          "type": "address"
        },
        {
          "name": "_value",
          "type": "uint256"
        },
        {
          "name": "_data",
          "type": "bytes"
        }
      ],
      "name": "transferFrom",
      "outputs": [
        {
          "name": "",
          "type": "bool"
        }
      ],
      "payable": false,
      "stateMutability": "nonpayable",
      "type": "function"
    },
    {
      "constant": false,
      "inputs": [
        {
          "name": "_to",
          "type": "address"
        },
        {
          "name": "_value",
          "type": "uint256"
        },
        {
          "name": "_data",
          "type": "bytes"
        }
      ],
      "name": "transfer",
      "outputs": [
        {
          "name": "",
          "type": "bool"
        }
      ],
      "payable": false,
      "stateMutability": "nonpayable",
      "type": "function"
    },
    {
      "constant": false,
      "inputs": [
        {
          "name": "_spender",
          "type": "address"
        },
        {
          "name": "_addedValue",
          "type": "uint256"
        }
      ],
      "name": "increaseApproval",
      "outputs": [
        {
          "name": "",
          "type": "bool"
        }
      ],
      "payable": false,
      "stateMutability": "nonpayable",
      "type": "function"
    },
    {
      "constant": true,
      "inputs": [
        {
          "name": "_owner",
          "type": "address"
        },
        {
          "name": "_spender",
          "type": "address"
        }
      ],
      "name": "allowance",
      "outputs": [
        {
          "name": "",
          "type": "uint256"
        }
      ],
      "payable": false,
      "stateMutability": "view",
      "type": "function"
    },
    {
      "constant": false,
      "inputs": [
        {
          "name": "banned",
          "type": "address"
        }
      ],
      "name": "addBanned",
      "outputs": [],
      "payable": false,
      "stateMutability": "nonpayable",
      "type": "function"
    },
    {
      "inputs": [
        {
          "name": "_tokens",
          "type": "uint256"
        },
        {
          "name": "_rate",
          "type": "uint256"
        },
        {
          "name": "adminAddress",
          "type": "address[]"
        }
      ],
      "payable": false,
      "stateMutability": "nonpayable",
      "type": "constructor"
    },
    {
      "payable": true,
      "stateMutability": "payable",
      "type": "fallback"
    },
    {
      "anonymous": false,
      "inputs": [
        {
          "indexed": false,
          "name": "key",
          "type": "address"
        },
        {
          "indexed": false,
          "name": "transacting_contract",
          "type": "address"
        },
        {
          "indexed": false,
          "name": "eth_amount",
          "type": "uint256"
        },
        {
          "indexed": false,
          "name": "transaction_name",
          "type": "bytes32"
        },
        {
          "indexed": false,
          "name": "health_status",
          "type": "bytes32"
        },
        {
          "indexed": false,
          "name": "user_health_status",
          "type": "bytes32"
        }
      ],
      "name": "KeyEvent",
      "type": "event"
    },
    {
      "anonymous": false,
      "inputs": [
        {
          "indexed": true,
          "name": "to",
          "type": "address"
        },
        {
          "indexed": false,
          "name": "amount",
          "type": "uint256"
        }
      ],
      "name": "Mint",
      "type": "event"
    },
    {
      "anonymous": false,
      "inputs": [],
      "name": "MintFinished",
      "type": "event"
    },
    {
      "anonymous": false,
      "inputs": [],
      "name": "MintReopened",
      "type": "event"
    },
    {
      "anonymous": false,
      "inputs": [
        {
          "indexed": true,
          "name": "owner",
          "type": "address"
        },
        {
          "indexed": true,
          "name": "spender",
          "type": "address"
        },
        {
          "indexed": false,
          "name": "value",
          "type": "uint256"
        }
      ],
      "name": "Approval",
      "type": "event"
    },
    {
      "anonymous": false,
      "inputs": [
        {
          "indexed": true,
          "name": "from",
          "type": "address"
        },
        {
          "indexed": true,
          "name": "to",
          "type": "address"
        },
        {
          "indexed": false,
          "name": "value",
          "type": "uint256"
        }
      ],
      "name": "Transfer",
      "type": "event"
    },
    {
      "constant": false,
      "inputs": [
        {
          "name": "_vault",
          "type": "address"
        }
      ],
      "name": "setVault",
      "outputs": [
        {
          "name": "",
          "type": "bool"
        }
      ],
      "payable": false,
      "stateMutability": "nonpayable",
      "type": "function"
    },
    {
      "constant": true,
      "inputs": [
        {
          "name": "addr",
          "type": "address"
        }
      ],
      "name": "getBalance",
      "outputs": [
        {
          "name": "",
          "type": "uint256"
        }
      ],
      "payable": false,
      "stateMutability": "view",
      "type": "function"
    },
    {
      "constant": true,
      "inputs": [
        {
          "name": "beneficiary",
          "type": "address"
        }
      ],
      "name": "getSmartKey",
      "outputs": [
        {
          "name": "",
          "type": "address"
        }
      ],
      "payable": false,
      "stateMutability": "view",
      "type": "function"
    },
    {
      "constant": true,
      "inputs": [
        {
          "name": "_address",
          "type": "address"
        }
      ],
      "name": "getEventCount",
      "outputs": [
        {
          "name": "",
          "type": "uint256"
        }
      ],
      "payable": false,
      "stateMutability": "view",
      "type": "function"
    },
    {
      "constant": false,
      "inputs": [
        {
          "name": "key",
          "type": "address"
        },
        {
          "name": "transacting_contract",
          "type": "address"
        },
        {
          "name": "transaction_name",
          "type": "bytes32"
        }
      ],
      "name": "loadSmartKey",
      "outputs": [
        {
          "name": "",
          "type": "bool"
        }
      ],
      "payable": true,
      "stateMutability": "payable",
      "type": "function"
    },
    {
      "constant": false,
      "inputs": [
        {
          "name": "key",
          "type": "address"
        },
        {
          "name": "beneficiary",
          "type": "address"
        }
      ],
      "name": "putSmartKey",
      "outputs": [],
      "payable": false,
      "stateMutability": "nonpayable",
      "type": "function"
    },
    {
      "constant": false,
      "inputs": [
        {
          "name": "_user",
          "type": "address"
        }
      ],
      "name": "addOwner",
      "outputs": [],
      "payable": false,
      "stateMutability": "nonpayable",
      "type": "function"
    },
    {
      "constant": false,
      "inputs": [
        {
          "name": "amount",
          "type": "uint256"
        },
        {
          "name": "sender",
          "type": "address"
        },
        {
          "name": "beneficiary",
          "type": "address"
        }
      ],
      "name": "transferEth",
      "outputs": [],
      "payable": false,
      "stateMutability": "nonpayable",
      "type": "function"
    },
    {
      "constant": true,
      "inputs": [
        {
          "name": "amount",
          "type": "uint256"
        }
      ],
      "name": "convertToToken",
      "outputs": [
        {
          "name": "",
          "type": "uint256"
        }
      ],
      "payable": false,
      "stateMutability": "view",
      "type": "function"
    }
  ],
  "bytecode": "0x60606040526000600660006101000a81548160ff0219169083151502179055506040805190810160405280601681526020017f496f54426c6f636b5f536d6172744b65795f302e303100000000000000000000815250600b90805190602001906200006c92919062000511565b5034156200007957600080fd5b604051620062e9380380620062e983398101604052808051906020019091908051906020019091908051820191905050818160008090505b815181101562000139576001600360008484815181101515620000d057fe5b9060200190602002015173ffffffffffffffffffffffffffffffffffffffff1673ffffffffffffffffffffffffffffffffffffffff16815260200190815260200160002060006101000a81548160ff0219169083151502179055508080600101915050620000b1565b81600490805190602001906200015192919062000598565b5050508060078190555060006005819055505080600490805190602001906200017c92919062000598565b50600460008154811015156200018e57fe5b906000526020600020900160009054906101000a900473ffffffffffffffffffffffffffffffffffffffff16600c60006101000a81548173ffffffffffffffffffffffffffffffffffffffff021916908373ffffffffffffffffffffffffffffffffffffffff1602179055506200023c600c60009054906101000a900473ffffffffffffffffffffffffffffffffffffffff1684620002fe640100000000026200256f176401000000009004565b506040805190810160405280600881526020017f494f54424c4f434b000000000000000000000000000000000000000000000000815250600890805190602001906200028a92919062000511565b506008600960006101000a81548160ff021916908360ff1602179055506040805190810160405280600881526020017f494f54424c4f434b000000000000000000000000000000000000000000000000815250600a9080519060200190620002f492919062000511565b5050505062000695565b6000600360003373ffffffffffffffffffffffffffffffffffffffff1673ffffffffffffffffffffffffffffffffffffffff16815260200190815260200160002060009054906101000a900460ff1615156200035957600080fd5b600660009054906101000a900460ff161515156200037657600080fd5b6000821115156200038657600080fd5b8160055401600581905550620003f2826000808673ffffffffffffffffffffffffffffffffffffffff1673ffffffffffffffffffffffffffffffffffffffff16815260200190815260200160002054620004f26401000000000262003d1f179091906401000000009004565b6000808573ffffffffffffffffffffffffffffffffffffffff1673ffffffffffffffffffffffffffffffffffffffff168152602001908152602001600020819055508273ffffffffffffffffffffffffffffffffffffffff167f0f6798a560793a54c3bcfe86a93cde1e73087d944c0ea20544137d4121396885836040518082815260200191505060405180910390a28273ffffffffffffffffffffffffffffffffffffffff16600073ffffffffffffffffffffffffffffffffffffffff167fddf252ad1be2c89b69c2b068fc378daa952ba7f163c4a11628f55a4df523b3ef846040518082815260200191505060405180910390a36001905092915050565b60008082840190508381101515156200050757fe5b8091505092915050565b828054600181600116156101000203166002900490600052602060002090601f016020900481019282601f106200055457805160ff191683800117855562000585565b8280016001018555821562000585579182015b828111156200058457825182559160200191906001019062000567565b5b50905062000594919062000627565b5090565b82805482825590600052602060002090810192821562000614579160200282015b82811115620006135782518260006101000a81548173ffffffffffffffffffffffffffffffffffffffff021916908373ffffffffffffffffffffffffffffffffffffffff16021790555091602001919060010190620005b9565b5b5090506200062391906200064f565b5090565b6200064c91905b80821115620006485760008160009055506001016200062e565b5090565b90565b6200069291905b808211156200068e57600081816101000a81549073ffffffffffffffffffffffffffffffffffffffff02191690555060010162000656565b5090565b90565b615c4480620006a56000396000f300606060405260043610620001ff576000357c0100000000000000000000000000000000000000000000000000000000900463ffffffff16806305d2035b146200023957806306fdde031462000269578063095ea7b314620002fd5780630d6d3b6e146200035a57806314bfd6d014620003ce5780631674bb9c146200043457806316ca3b63146200049857806318160ddd146200053857806323b872dd146200056457806324d7806c14620005e05780632c4e722e1462000634578063313ce567146200066057806331ae450b146200069257806334fcf437146200070157806340c10f19146200073b57806342aa9bba146200079857806354fd4d5014620007f35780635c17f9f414620008875780636618846314620009275780636817031b14620009845780637048027514620009d85780637065cb481462000a1457806370a082311462000a505780637272ad491462000aa057806374dcdc631462000b4057806378acf29a1462000c0057806395d89b411462000c7c578063963563551462000d10578063a81f8f3f1462000d3c578063a9059cbb1462000d76578063ab67aa581462000dd3578063b37c75511462000e92578063be45fd621462000f0e578063d73dd6231462000fae578063dd62ed3e146200100b578063e1b2e8b3146200107a578063f8b2cb4f14620010b6578063f90d17761462001106575b620002366200020e3362001156565b337f4465706f73697400000000000000000000000000000000000000000000000000620011bf565b50005b34156200024557600080fd5b6200024f62001a0d565b604051808215151515815260200191505060405180910390f35b34156200027557600080fd5b6200027f62001a20565b6040518080602001828103825283818151815260200191508051906020019080838360005b83811015620002c1578082015181840152602081019050620002a4565b50505050905090810190601f168015620002ef5780820380516001836020036101000a031916815260200191505b509250505060405180910390f35b34156200030957600080fd5b62000340600480803573ffffffffffffffffffffffffffffffffffffffff1690602001909190803590602001909190505062001ac2565b604051808215151515815260200191505060405180910390f35b620003b4600480803573ffffffffffffffffffffffffffffffffffffffff1690602001909190803573ffffffffffffffffffffffffffffffffffffffff1690602001909190803560001916906020019091905050620011bf565b604051808215151515815260200191505060405180910390f35b3415620003da57600080fd5b620003f2600480803590602001909190505062001bb4565b604051808273ffffffffffffffffffffffffffffffffffffffff1673ffffffffffffffffffffffffffffffffffffffff16815260200191505060405180910390f35b34156200044057600080fd5b62000496600480803590602001909190803573ffffffffffffffffffffffffffffffffffffffff1690602001909190803573ffffffffffffffffffffffffffffffffffffffff1690602001909190505062001bf4565b005b3415620004a457600080fd5b6200051e600480803573ffffffffffffffffffffffffffffffffffffffff1690602001909190803590602001909190803590602001908201803590602001908080601f0160208091040260200160405190810160405280939291908181526020018383808284378201915050505050509190505062001f75565b604051808215151515815260200191505060405180910390f35b34156200054457600080fd5b6200054e62002065565b6040518082815260200191505060405180910390f35b34156200057057600080fd5b620005c6600480803573ffffffffffffffffffffffffffffffffffffffff1690602001909190803573ffffffffffffffffffffffffffffffffffffffff169060200190919080359060200190919050506200206f565b604051808215151515815260200191505060405180910390f35b3415620005ec57600080fd5b6200061a600480803573ffffffffffffffffffffffffffffffffffffffff1690602001909190505062002432565b604051808215151515815260200191505060405180910390f35b34156200064057600080fd5b6200064a62002452565b6040518082815260200191505060405180910390f35b34156200066c57600080fd5b6200067662002458565b604051808260ff1660ff16815260200191505060405180910390f35b34156200069e57600080fd5b620006a86200246b565b6040518080602001828103825283818151815260200191508051906020019060200280838360005b83811015620006ed578082015181840152602081019050620006d0565b505050509050019250505060405180910390f35b34156200070d57600080fd5b62000725600480803590602001909190505062002503565b6040518082815260200191505060405180910390f35b34156200074757600080fd5b6200077e600480803573ffffffffffffffffffffffffffffffffffffffff169060200190919080359060200190919050506200256f565b604051808215151515815260200191505060405180910390f35b3415620007a457600080fd5b620007f1600480803573ffffffffffffffffffffffffffffffffffffffff1690602001909190803573ffffffffffffffffffffffffffffffffffffffff1690602001909190505062002755565b005b3415620007ff57600080fd5b6200080962002907565b6040518080602001828103825283818151815260200191508051906020019080838360005b838110156200084b5780820151818401526020810190506200082e565b50505050905090810190601f168015620008795780820380516001836020036101000a031916815260200191505b509250505060405180910390f35b34156200089357600080fd5b6200090d600480803573ffffffffffffffffffffffffffffffffffffffff1690602001909190803590602001909190803590602001908201803590602001908080601f01602080910402602001604051908101604052809392919081815260200183838082843782019150505050505091905050620029a9565b604051808215151515815260200191505060405180910390f35b34156200093357600080fd5b6200096a600480803573ffffffffffffffffffffffffffffffffffffffff1690602001909190803590602001909190505062002a99565b604051808215151515815260200191505060405180910390f35b34156200099057600080fd5b620009be600480803573ffffffffffffffffffffffffffffffffffffffff1690602001909190505062002d2e565b604051808215151515815260200191505060405180910390f35b3415620009e457600080fd5b62000a12600480803573ffffffffffffffffffffffffffffffffffffffff1690602001909190505062002dd3565b005b341562000a2057600080fd5b62000a4e600480803573ffffffffffffffffffffffffffffffffffffffff1690602001909190505062002f45565b005b341562000a5c57600080fd5b62000a8a600480803573ffffffffffffffffffffffffffffffffffffffff1690602001909190505062003173565b6040518082815260200191505060405180910390f35b341562000aac57600080fd5b62000b26600480803573ffffffffffffffffffffffffffffffffffffffff1690602001909190803590602001909190803590602001908201803590602001908080601f01602080910402602001604051908101604052809392919081815260200183838082843782019150505050505091905050620031bb565b604051808215151515815260200191505060405180910390f35b341562000b4c57600080fd5b62000b83600480803573ffffffffffffffffffffffffffffffffffffffff16906020019091908035906020019091905050620032ab565b604051808773ffffffffffffffffffffffffffffffffffffffff1673ffffffffffffffffffffffffffffffffffffffff168152602001868152602001858152602001846000191660001916815260200183600019166000191681526020018260001916600019168152602001965050505050505060405180910390f35b341562000c0c57600080fd5b62000c3a600480803573ffffffffffffffffffffffffffffffffffffffff1690602001909190505062003324565b604051808273ffffffffffffffffffffffffffffffffffffffff1673ffffffffffffffffffffffffffffffffffffffff16815260200191505060405180910390f35b341562000c8857600080fd5b62000c9262003357565b6040518080602001828103825283818151815260200191508051906020019080838360005b8381101562000cd457808201518184015260208101905062000cb7565b50505050905090810190601f16801562000d025780820380516001836020036101000a031916815260200191505b509250505060405180910390f35b341562000d1c57600080fd5b62000d26620033f9565b6040518082815260200191505060405180910390f35b341562000d4857600080fd5b62000d606004808035906020019091905050620033ff565b6040518082815260200191505060405180910390f35b341562000d8257600080fd5b62000db9600480803573ffffffffffffffffffffffffffffffffffffffff169060200190919080359060200190919050506200341f565b604051808215151515815260200191505060405180910390f35b341562000ddf57600080fd5b62000e78600480803573ffffffffffffffffffffffffffffffffffffffff1690602001909190803573ffffffffffffffffffffffffffffffffffffffff1690602001909190803590602001909190803590602001908201803590602001908080601f0160208091040260200160405190810160405280939291908181526020018383808284378201915050505050509190505062003644565b604051808215151515815260200191505060405180910390f35b341562000e9e57600080fd5b62000ecc600480803573ffffffffffffffffffffffffffffffffffffffff1690602001909190505062001156565b604051808273ffffffffffffffffffffffffffffffffffffffff1673ffffffffffffffffffffffffffffffffffffffff16815260200191505060405180910390f35b341562000f1a57600080fd5b62000f94600480803573ffffffffffffffffffffffffffffffffffffffff1690602001909190803590602001909190803590602001908201803590602001908080601f0160208091040260200160405190810160405280939291908181526020018383808284378201915050505050509190505062003736565b604051808215151515815260200191505060405180910390f35b341562000fba57600080fd5b62000ff1600480803573ffffffffffffffffffffffffffffffffffffffff1690602001909190803590602001909190505062003826565b604051808215151515815260200191505060405180910390f35b34156200101757600080fd5b62001064600480803573ffffffffffffffffffffffffffffffffffffffff1690602001909190803573ffffffffffffffffffffffffffffffffffffffff1690602001909190505062003a24565b6040518082815260200191505060405180910390f35b34156200108657600080fd5b620010b4600480803573ffffffffffffffffffffffffffffffffffffffff1690602001909190505062003aab565b005b3415620010c257600080fd5b620010f0600480803573ffffffffffffffffffffffffffffffffffffffff1690602001909190505062003c8b565b6040518082815260200191505060405180910390f35b34156200111257600080fd5b62001140600480803573ffffffffffffffffffffffffffffffffffffffff1690602001909190505062003cd3565b6040518082815260200191505060405180910390f35b6000600d60008373ffffffffffffffffffffffffffffffffffffffff1673ffffffffffffffffffffffffffffffffffffffff16815260200190815260200160002060009054906101000a900473ffffffffffffffffffffffffffffffffffffffff169050919050565b600080600080620011d05a620033ff565b620011db34620033ff565b019250600073ffffffffffffffffffffffffffffffffffffffff168773ffffffffffffffffffffffffffffffffffffffff161480620012a55750600073ffffffffffffffffffffffffffffffffffffffff16600d60008873ffffffffffffffffffffffffffffffffffffffff1673ffffffffffffffffffffffffffffffffffffffff16815260200190815260200160002060009054906101000a900473ffffffffffffffffffffffffffffffffffffffff1673ffffffffffffffffffffffffffffffffffffffff16145b15620013b8573086620012b762003d74565b808373ffffffffffffffffffffffffffffffffffffffff1673ffffffffffffffffffffffffffffffffffffffff1681526020018273ffffffffffffffffffffffffffffffffffffffff1673ffffffffffffffffffffffffffffffffffffffff16815260200192505050604051809103906000f08015156200133757600080fd5b965086600d60008873ffffffffffffffffffffffffffffffffffffffff1673ffffffffffffffffffffffffffffffffffffffff16815260200190815260200160002060006101000a81548173ffffffffffffffffffffffffffffffffffffffff021916908373ffffffffffffffffffffffffffffffffffffffff1602179055505b8673ffffffffffffffffffffffffffffffffffffffff16631801e1566000604051602001526040518163ffffffff167c0100000000000000000000000000000000000000000000000000000000028152600401602060405180830381600087803b15156200142557600080fd5b6102c65a03f115156200143757600080fd5b505050604051805190509150600d60008773ffffffffffffffffffffffffffffffffffffffff1673ffffffffffffffffffffffffffffffffffffffff16815260200190815260200160002060009054906101000a900473ffffffffffffffffffffffffffffffffffffffff1673ffffffffffffffffffffffffffffffffffffffff16631801e1566000604051602001526040518163ffffffff167c0100000000000000000000000000000000000000000000000000000000028152600401602060405180830381600087803b15156200150f57600080fd5b6102c65a03f115156200152157600080fd5b5050506040518051905090507fab89f8739c528673d37ed462053f9daf4ebe947fc08d0ae54a254c98c13a023d878785888686604051808773ffffffffffffffffffffffffffffffffffffffff1673ffffffffffffffffffffffffffffffffffffffff1681526020018673ffffffffffffffffffffffffffffffffffffffff1673ffffffffffffffffffffffffffffffffffffffff168152602001858152602001846000191660001916815260200183600019166000191681526020018260001916600019168152602001965050505050505060405180910390a1600e60008873ffffffffffffffffffffffffffffffffffffffff1673ffffffffffffffffffffffffffffffffffffffff16815260200190815260200160002080548060010182816200164f919062003d85565b9160005260206000209060060201600060c0604051908101604052808a73ffffffffffffffffffffffffffffffffffffffff16815260200142815260200187815260200189600019168152602001866000191681526020018560001916815250909190915060008201518160000160006101000a81548173ffffffffffffffffffffffffffffffffffffffff021916908373ffffffffffffffffffffffffffffffffffffffff1602179055506020820151816001015560408201518160020155606082015181600301906000191690556080820151816004019060001916905560a082015181600501906000191690555050508260055401600581905550620017a0836000808a73ffffffffffffffffffffffffffffffffffffffff1673ffffffffffffffffffffffffffffffffffffffff1681526020019081526020016000205462003d1f90919063ffffffff16565b6000808973ffffffffffffffffffffffffffffffffffffffff1673ffffffffffffffffffffffffffffffffffffffff168152602001908152602001600020819055508673ffffffffffffffffffffffffffffffffffffffff16600073ffffffffffffffffffffffffffffffffffffffff167fddf252ad1be2c89b69c2b068fc378daa952ba7f163c4a11628f55a4df523b3ef856040518082815260200191505060405180910390a38260055401600581905550620018a6836000808973ffffffffffffffffffffffffffffffffffffffff1673ffffffffffffffffffffffffffffffffffffffff1681526020019081526020016000205462003d1f90919063ffffffff16565b6000808873ffffffffffffffffffffffffffffffffffffffff1673ffffffffffffffffffffffffffffffffffffffff168152602001908152602001600020819055508573ffffffffffffffffffffffffffffffffffffffff16600073ffffffffffffffffffffffffffffffffffffffff167fddf252ad1be2c89b69c2b068fc378daa952ba7f163c4a11628f55a4df523b3ef856040518082815260200191505060405180910390a38673ffffffffffffffffffffffffffffffffffffffff16639172fe0834886040518363ffffffff167c0100000000000000000000000000000000000000000000000000000000028152600401808273ffffffffffffffffffffffffffffffffffffffff1673ffffffffffffffffffffffffffffffffffffffff1681526020019150506000604051808303818588803b1515620019e957600080fd5b6125ee5a03f11515620019fb57600080fd5b50505050600193505050509392505050565b600660009054906101000a900460ff1681565b60088054600181600116156101000203166002900480601f01602080910402602001604051908101604052809291908181526020018280546001816001161561010002031660029004801562001aba5780601f1062001a8e5761010080835404028352916020019162001aba565b820191906000526020600020905b81548152906001019060200180831162001a9c57829003601f168201915b505050505081565b600081600260003373ffffffffffffffffffffffffffffffffffffffff1673ffffffffffffffffffffffffffffffffffffffff16815260200190815260200160002060008573ffffffffffffffffffffffffffffffffffffffff1673ffffffffffffffffffffffffffffffffffffffff168152602001908152602001600020819055508273ffffffffffffffffffffffffffffffffffffffff163373ffffffffffffffffffffffffffffffffffffffff167f8c5be1e5ebec7d5bd14f71427d1e84f3dd0314c0f7b2291e5b200ac8c7c3b925846040518082815260200191505060405180910390a36001905092915050565b60048181548110151562001bc457fe5b90600052602060002090016000915054906101000a900473ffffffffffffffffffffffffffffffffffffffff1681565b60008273ffffffffffffffffffffffffffffffffffffffff161415151562001c1b57600080fd5b60008173ffffffffffffffffffffffffffffffffffffffff161415151562001c4257600080fd5b600073ffffffffffffffffffffffffffffffffffffffff16600d60008473ffffffffffffffffffffffffffffffffffffffff1673ffffffffffffffffffffffffffffffffffffffff16815260200190815260200160002060009054906101000a900473ffffffffffffffffffffffffffffffffffffffff1673ffffffffffffffffffffffffffffffffffffffff161415151562001cde57600080fd5b600360003373ffffffffffffffffffffffffffffffffffffffff1673ffffffffffffffffffffffffffffffffffffffff16815260200190815260200160002060009054906101000a900460ff168062001e525750600d60008373ffffffffffffffffffffffffffffffffffffffff1673ffffffffffffffffffffffffffffffffffffffff16815260200190815260200160002060009054906101000a900473ffffffffffffffffffffffffffffffffffffffff1673ffffffffffffffffffffffffffffffffffffffff16632f54bf6e336000604051602001526040518263ffffffff167c0100000000000000000000000000000000000000000000000000000000028152600401808273ffffffffffffffffffffffffffffffffffffffff1673ffffffffffffffffffffffffffffffffffffffff168152602001915050602060405180830381600087803b151562001e3557600080fd5b6102c65a03f1151562001e4757600080fd5b505050604051805190505b1562001f7057600d60008373ffffffffffffffffffffffffffffffffffffffff1673ffffffffffffffffffffffffffffffffffffffff16815260200190815260200160002060009054906101000a900473ffffffffffffffffffffffffffffffffffffffff1673ffffffffffffffffffffffffffffffffffffffff166349f9c0e484836040518363ffffffff167c0100000000000000000000000000000000000000000000000000000000028152600401808381526020018273ffffffffffffffffffffffffffffffffffffffff1673ffffffffffffffffffffffffffffffffffffffff16815260200192505050600060405180830381600087803b151562001f5a57600080fd5b6102c65a03f1151562001f6c57600080fd5b5050505b505050565b60003073ffffffffffffffffffffffffffffffffffffffff168473ffffffffffffffffffffffffffffffffffffffff161415151562001fb357600080fd5b62001fbf848462003826565b508373ffffffffffffffffffffffffffffffffffffffff168260405180828051906020019080838360005b838110156200200757808201518184015260208101905062001fea565b50505050905090810190601f168015620020355780820380516001836020036101000a031916815260200191505b5091505060006040518083038160008661646e5a03f191505015156200205a57600080fd5b600190509392505050565b6000600154905090565b60008073ffffffffffffffffffffffffffffffffffffffff168373ffffffffffffffffffffffffffffffffffffffff1614151515620020ad57600080fd5b6000808573ffffffffffffffffffffffffffffffffffffffff1673ffffffffffffffffffffffffffffffffffffffff168152602001908152602001600020548211151515620020fb57600080fd5b600260008573ffffffffffffffffffffffffffffffffffffffff1673ffffffffffffffffffffffffffffffffffffffff16815260200190815260200160002060003373ffffffffffffffffffffffffffffffffffffffff1673ffffffffffffffffffffffffffffffffffffffff1681526020019081526020016000205482111515156200218757600080fd5b620021da826000808773ffffffffffffffffffffffffffffffffffffffff1673ffffffffffffffffffffffffffffffffffffffff1681526020019081526020016000205462003d3e90919063ffffffff16565b6000808673ffffffffffffffffffffffffffffffffffffffff1673ffffffffffffffffffffffffffffffffffffffff168152602001908152602001600020819055506200226f826000808673ffffffffffffffffffffffffffffffffffffffff1673ffffffffffffffffffffffffffffffffffffffff1681526020019081526020016000205462003d1f90919063ffffffff16565b6000808573ffffffffffffffffffffffffffffffffffffffff1673ffffffffffffffffffffffffffffffffffffffff168152602001908152602001600020819055506200234282600260008773ffffffffffffffffffffffffffffffffffffffff1673ffffffffffffffffffffffffffffffffffffffff16815260200190815260200160002060003373ffffffffffffffffffffffffffffffffffffffff1673ffffffffffffffffffffffffffffffffffffffff1681526020019081526020016000205462003d3e90919063ffffffff16565b600260008673ffffffffffffffffffffffffffffffffffffffff1673ffffffffffffffffffffffffffffffffffffffff16815260200190815260200160002060003373ffffffffffffffffffffffffffffffffffffffff1673ffffffffffffffffffffffffffffffffffffffff168152602001908152602001600020819055508273ffffffffffffffffffffffffffffffffffffffff168473ffffffffffffffffffffffffffffffffffffffff167fddf252ad1be2c89b69c2b068fc378daa952ba7f163c4a11628f55a4df523b3ef846040518082815260200191505060405180910390a3600190509392505050565b60036020528060005260406000206000915054906101000a900460ff1681565b60075481565b600960009054906101000a900460ff1681565b6200247562003dba565b6004805480602002602001604051908101604052809291908181526020018280548015620024f957602002820191906000526020600020905b8160009054906101000a900473ffffffffffffffffffffffffffffffffffffffff1673ffffffffffffffffffffffffffffffffffffffff1681526020019060010190808311620024ae575b5050505050905090565b6000600360003373ffffffffffffffffffffffffffffffffffffffff1673ffffffffffffffffffffffffffffffffffffffff16815260200190815260200160002060009054906101000a900460ff1615156200255e57600080fd5b816007819055506007549050919050565b6000600360003373ffffffffffffffffffffffffffffffffffffffff1673ffffffffffffffffffffffffffffffffffffffff16815260200190815260200160002060009054906101000a900460ff161515620025ca57600080fd5b600660009054906101000a900460ff16151515620025e757600080fd5b600082111515620025f757600080fd5b816005540160058190555062002655826000808673ffffffffffffffffffffffffffffffffffffffff1673ffffffffffffffffffffffffffffffffffffffff1681526020019081526020016000205462003d1f90919063ffffffff16565b6000808573ffffffffffffffffffffffffffffffffffffffff1673ffffffffffffffffffffffffffffffffffffffff168152602001908152602001600020819055508273ffffffffffffffffffffffffffffffffffffffff167f0f6798a560793a54c3bcfe86a93cde1e73087d944c0ea20544137d4121396885836040518082815260200191505060405180910390a28273ffffffffffffffffffffffffffffffffffffffff16600073ffffffffffffffffffffffffffffffffffffffff167fddf252ad1be2c89b69c2b068fc378daa952ba7f163c4a11628f55a4df523b3ef846040518082815260200191505060405180910390a36001905092915050565b600360003373ffffffffffffffffffffffffffffffffffffffff1673ffffffffffffffffffffffffffffffffffffffff16815260200190815260200160002060009054906101000a900460ff161515620027ae57600080fd5b60008173ffffffffffffffffffffffffffffffffffffffff1614151515620027d557600080fd5b600073ffffffffffffffffffffffffffffffffffffffff16600d60008373ffffffffffffffffffffffffffffffffffffffff1673ffffffffffffffffffffffffffffffffffffffff16815260200190815260200160002060009054906101000a900473ffffffffffffffffffffffffffffffffffffffff1673ffffffffffffffffffffffffffffffffffffffff161415620028e95781600d60008373ffffffffffffffffffffffffffffffffffffffff1673ffffffffffffffffffffffffffffffffffffffff16815260200190815260200160002060006101000a81548173ffffffffffffffffffffffffffffffffffffffff021916908373ffffffffffffffffffffffffffffffffffffffff1602179055505b620028f5815a6200256f565b5062002902825a6200256f565b505050565b600b8054600181600116156101000203166002900480601f016020809104026020016040519081016040528092919081815260200182805460018160011615610100020316600290048015620029a15780601f106200297557610100808354040283529160200191620029a1565b820191906000526020600020905b8154815290600101906020018083116200298357829003601f168201915b505050505081565b60003073ffffffffffffffffffffffffffffffffffffffff168473ffffffffffffffffffffffffffffffffffffffff1614151515620029e757600080fd5b620029f3848462001ac2565b508373ffffffffffffffffffffffffffffffffffffffff168260405180828051906020019080838360005b8381101562002a3b57808201518184015260208101905062002a1e565b50505050905090810190601f16801562002a695780820380516001836020036101000a031916815260200191505b5091505060006040518083038160008661646e5a03f1915050151562002a8e57600080fd5b600190509392505050565b600080600260003373ffffffffffffffffffffffffffffffffffffffff1673ffffffffffffffffffffffffffffffffffffffff16815260200190815260200160002060008573ffffffffffffffffffffffffffffffffffffffff1673ffffffffffffffffffffffffffffffffffffffff1681526020019081526020016000205490508083111562002bac576000600260003373ffffffffffffffffffffffffffffffffffffffff1673ffffffffffffffffffffffffffffffffffffffff16815260200190815260200160002060008673ffffffffffffffffffffffffffffffffffffffff1673ffffffffffffffffffffffffffffffffffffffff1681526020019081526020016000208190555062002c42565b62002bc1838262003d3e90919063ffffffff16565b600260003373ffffffffffffffffffffffffffffffffffffffff1673ffffffffffffffffffffffffffffffffffffffff16815260200190815260200160002060008673ffffffffffffffffffffffffffffffffffffffff1673ffffffffffffffffffffffffffffffffffffffff168152602001908152602001600020819055505b8373ffffffffffffffffffffffffffffffffffffffff163373ffffffffffffffffffffffffffffffffffffffff167f8c5be1e5ebec7d5bd14f71427d1e84f3dd0314c0f7b2291e5b200ac8c7c3b925600260003373ffffffffffffffffffffffffffffffffffffffff1673ffffffffffffffffffffffffffffffffffffffff16815260200190815260200160002060008873ffffffffffffffffffffffffffffffffffffffff1673ffffffffffffffffffffffffffffffffffffffff168152602001908152602001600020546040518082815260200191505060405180910390a3600191505092915050565b6000600360003373ffffffffffffffffffffffffffffffffffffffff1673ffffffffffffffffffffffffffffffffffffffff16815260200190815260200160002060009054906101000a900460ff16151562002d8957600080fd5b81600c60006101000a81548173ffffffffffffffffffffffffffffffffffffffff021916908373ffffffffffffffffffffffffffffffffffffffff16021790555060019050919050565b600360003373ffffffffffffffffffffffffffffffffffffffff1673ffffffffffffffffffffffffffffffffffffffff16815260200190815260200160002060009054906101000a900460ff16151562002e2c57600080fd5b600360003373ffffffffffffffffffffffffffffffffffffffff1673ffffffffffffffffffffffffffffffffffffffff16815260200190815260200160002060009054906101000a900460ff16151562002e8557600080fd5b6001600360008373ffffffffffffffffffffffffffffffffffffffff1673ffffffffffffffffffffffffffffffffffffffff16815260200190815260200160002060006101000a81548160ff0219169083151502179055506004805480600101828162002ef3919062003dce565b9160005260206000209001600083909190916101000a81548173ffffffffffffffffffffffffffffffffffffffff021916908373ffffffffffffffffffffffffffffffffffffffff1602179055505050565b600360003373ffffffffffffffffffffffffffffffffffffffff1673ffffffffffffffffffffffffffffffffffffffff16815260200190815260200160002060009054906101000a900460ff16151562002f9e57600080fd5b60008173ffffffffffffffffffffffffffffffffffffffff161415151562002fc557600080fd5b600073ffffffffffffffffffffffffffffffffffffffff16600d60008373ffffffffffffffffffffffffffffffffffffffff1673ffffffffffffffffffffffffffffffffffffffff16815260200190815260200160002060009054906101000a900473ffffffffffffffffffffffffffffffffffffffff1673ffffffffffffffffffffffffffffffffffffffff16141515156200306157600080fd5b600d60008273ffffffffffffffffffffffffffffffffffffffff1673ffffffffffffffffffffffffffffffffffffffff16815260200190815260200160002060009054906101000a900473ffffffffffffffffffffffffffffffffffffffff1673ffffffffffffffffffffffffffffffffffffffff16637065cb48336040518263ffffffff167c0100000000000000000000000000000000000000000000000000000000028152600401808273ffffffffffffffffffffffffffffffffffffffff1673ffffffffffffffffffffffffffffffffffffffff168152602001915050600060405180830381600087803b15156200315b57600080fd5b6102c65a03f115156200316d57600080fd5b50505050565b60008060008373ffffffffffffffffffffffffffffffffffffffff1673ffffffffffffffffffffffffffffffffffffffff168152602001908152602001600020549050919050565b60003073ffffffffffffffffffffffffffffffffffffffff168473ffffffffffffffffffffffffffffffffffffffff1614151515620031f957600080fd5b62003205848462002a99565b508373ffffffffffffffffffffffffffffffffffffffff168260405180828051906020019080838360005b838110156200324d57808201518184015260208101905062003230565b50505050905090810190601f1680156200327b5780820380516001836020036101000a031916815260200191505b5091505060006040518083038160008661646e5a03f19150501515620032a057600080fd5b600190509392505050565b600e60205281600052604060002081815481101515620032c757fe5b9060005260206000209060060201600091509150508060000160009054906101000a900473ffffffffffffffffffffffffffffffffffffffff16908060010154908060020154908060030154908060040154908060050154905086565b600d6020528060005260406000206000915054906101000a900473ffffffffffffffffffffffffffffffffffffffff1681565b600a8054600181600116156101000203166002900480601f016020809104026020016040519081016040528092919081815260200182805460018160011615610100020316600290048015620033f15780601f10620033c557610100808354040283529160200191620033f1565b820191906000526020600020905b815481529060010190602001808311620033d357829003601f168201915b505050505081565b60055481565b6000620034186007548362003d5890919063ffffffff16565b9050919050565b60008073ffffffffffffffffffffffffffffffffffffffff168373ffffffffffffffffffffffffffffffffffffffff16141515156200345d57600080fd5b6000803373ffffffffffffffffffffffffffffffffffffffff1673ffffffffffffffffffffffffffffffffffffffff168152602001908152602001600020548211151515620034ab57600080fd5b620034fe826000803373ffffffffffffffffffffffffffffffffffffffff1673ffffffffffffffffffffffffffffffffffffffff1681526020019081526020016000205462003d3e90919063ffffffff16565b6000803373ffffffffffffffffffffffffffffffffffffffff1673ffffffffffffffffffffffffffffffffffffffff1681526020019081526020016000208190555062003593826000808673ffffffffffffffffffffffffffffffffffffffff1673ffffffffffffffffffffffffffffffffffffffff1681526020019081526020016000205462003d1f90919063ffffffff16565b6000808573ffffffffffffffffffffffffffffffffffffffff1673ffffffffffffffffffffffffffffffffffffffff168152602001908152602001600020819055508273ffffffffffffffffffffffffffffffffffffffff163373ffffffffffffffffffffffffffffffffffffffff167fddf252ad1be2c89b69c2b068fc378daa952ba7f163c4a11628f55a4df523b3ef846040518082815260200191505060405180910390a36001905092915050565b60003073ffffffffffffffffffffffffffffffffffffffff168473ffffffffffffffffffffffffffffffffffffffff16141515156200368257600080fd5b6200368f8585856200206f565b508373ffffffffffffffffffffffffffffffffffffffff168260405180828051906020019080838360005b83811015620036d7578082015181840152602081019050620036ba565b50505050905090810190601f168015620037055780820380516001836020036101000a031916815260200191505b5091505060006040518083038160008661646e5a03f191505015156200372a57600080fd5b60019050949350505050565b60003073ffffffffffffffffffffffffffffffffffffffff168473ffffffffffffffffffffffffffffffffffffffff16141515156200377457600080fd5b6200378084846200341f565b508373ffffffffffffffffffffffffffffffffffffffff168260405180828051906020019080838360005b83811015620037c8578082015181840152602081019050620037ab565b50505050905090810190601f168015620037f65780820380516001836020036101000a031916815260200191505b5091505060006040518083038160008661646e5a03f191505015156200381b57600080fd5b600190509392505050565b6000620038b982600260003373ffffffffffffffffffffffffffffffffffffffff1673ffffffffffffffffffffffffffffffffffffffff16815260200190815260200160002060008673ffffffffffffffffffffffffffffffffffffffff1673ffffffffffffffffffffffffffffffffffffffff1681526020019081526020016000205462003d1f90919063ffffffff16565b600260003373ffffffffffffffffffffffffffffffffffffffff1673ffffffffffffffffffffffffffffffffffffffff16815260200190815260200160002060008573ffffffffffffffffffffffffffffffffffffffff1673ffffffffffffffffffffffffffffffffffffffff168152602001908152602001600020819055508273ffffffffffffffffffffffffffffffffffffffff163373ffffffffffffffffffffffffffffffffffffffff167f8c5be1e5ebec7d5bd14f71427d1e84f3dd0314c0f7b2291e5b200ac8c7c3b925600260003373ffffffffffffffffffffffffffffffffffffffff1673ffffffffffffffffffffffffffffffffffffffff16815260200190815260200160002060008773ffffffffffffffffffffffffffffffffffffffff1673ffffffffffffffffffffffffffffffffffffffff168152602001908152602001600020546040518082815260200191505060405180910390a36001905092915050565b6000600260008473ffffffffffffffffffffffffffffffffffffffff1673ffffffffffffffffffffffffffffffffffffffff16815260200190815260200160002060008373ffffffffffffffffffffffffffffffffffffffff1673ffffffffffffffffffffffffffffffffffffffff16815260200190815260200160002054905092915050565b6000600360003373ffffffffffffffffffffffffffffffffffffffff1673ffffffffffffffffffffffffffffffffffffffff16815260200190815260200160002060009054906101000a900460ff16151562003b0657600080fd5b600360003373ffffffffffffffffffffffffffffffffffffffff1673ffffffffffffffffffffffffffffffffffffffff16815260200190815260200160002060009054906101000a900460ff16151562003b5f57600080fd5b6000600360008473ffffffffffffffffffffffffffffffffffffffff1673ffffffffffffffffffffffffffffffffffffffff16815260200190815260200160002060006101000a81548160ff021916908315150217905550600090505b60048054905081101562003c875760048181548110151562003bda57fe5b906000526020600020900160009054906101000a900473ffffffffffffffffffffffffffffffffffffffff1673ffffffffffffffffffffffffffffffffffffffff168273ffffffffffffffffffffffffffffffffffffffff16141562003c795760048181548110151562003c4a57fe5b906000526020600020900160006101000a81549073ffffffffffffffffffffffffffffffffffffffff02191690555b808060010191505062003bbc565b5050565b60008060008373ffffffffffffffffffffffffffffffffffffffff1673ffffffffffffffffffffffffffffffffffffffff168152602001908152602001600020549050919050565b6000600e60008373ffffffffffffffffffffffffffffffffffffffff1673ffffffffffffffffffffffffffffffffffffffff168152602001908152602001600020805490509050919050565b600080828401905083811015151562003d3457fe5b8091505092915050565b600082821115151562003d4d57fe5b818303905092915050565b600080828481151562003d6757fe5b0490508091505092915050565b604051611d828062003e9783390190565b81548183558181151162003db55760060281600602836000526020600020918201910162003db4919062003dfd565b5b505050565b602060405190810160405280600081525090565b81548183558181151162003df85781836000526020600020918201910162003df7919062003e6e565b5b505050565b62003e6b91905b8082111562003e6757600080820160006101000a81549073ffffffffffffffffffffffffffffffffffffffff0219169055600182016000905560028201600090556003820160009055600482016000905560058201600090555060060162003e04565b5090565b90565b62003e9391905b8082111562003e8f57600081600090555060010162003e75565b5090565b9056006060604052341561000f57600080fd5b604051604080611d828339810160405280805190602001909190805190602001909190505060016000803373ffffffffffffffffffffffffffffffffffffffff1673ffffffffffffffffffffffffffffffffffffffff16815260200190815260200160002060006101000a81548160ff02191690831515021790555060008173ffffffffffffffffffffffffffffffffffffffff16141515156100b157600080fd5b80600260006101000a81548173ffffffffffffffffffffffffffffffffffffffff021916908373ffffffffffffffffffffffffffffffffffffffff16021790555081600160006101000a81548173ffffffffffffffffffffffffffffffffffffffff021916908373ffffffffffffffffffffffffffffffffffffffff1602179055506000600260146101000a81548160ff0219169083600281111561015257fe5b021790555060016000808373ffffffffffffffffffffffffffffffffffffffff1673ffffffffffffffffffffffffffffffffffffffff16815260200190815260200160002060006101000a81548160ff02191690831515021790555060016000808473ffffffffffffffffffffffffffffffffffffffff1673ffffffffffffffffffffffffffffffffffffffff16815260200190815260200160002060006101000a81548160ff0219169083151502179055505050611b6c806102166000396000f30060606040526004361061011d576000357c0100000000000000000000000000000000000000000000000000000000900463ffffffff16806303db428d14610128578063113adf49146101e05780631453812814610235578063173825d9146102cc5780631801e15614610305578063202e079d1461033657806323ca0cd21461035f5780632f54bf6e146103ac57806349f9c0e4146103fd5780635436e5a01461043f5780635b2ce586146104df5780635b6beeb9146104fa578063640e7fd5146105735780637065cb48146105aa5780637633a22c146105e3578063779d86771461061a5780639172fe0814610667578063c19d93fb14610695578063d4c2f75c146106cc578063fbfa77cf1461074e578063fd08e0c7146107a3575b61012633610879565b005b341561013357600080fd5b6101c6600480803590602001908201803590602001908080601f0160208091040260200160405190810160405280939291908181526020018383808284378201915050505050509190803590602001908201803590602001908080601f016020809104026020016040519081016040528093929190818152602001838380828437820191505050505050919050506109c2565b604051808215151515815260200191505060405180910390f35b34156101eb57600080fd5b6101f3610a8f565b604051808273ffffffffffffffffffffffffffffffffffffffff1673ffffffffffffffffffffffffffffffffffffffff16815260200191505060405180910390f35b341561024057600080fd5b610275600480803573ffffffffffffffffffffffffffffffffffffffff16906020019091908035906020019091905050610ab5565b604051808573ffffffffffffffffffffffffffffffffffffffff1673ffffffffffffffffffffffffffffffffffffffff16815260200184815260200183815260200182815260200194505050505060405180910390f35b34156102d757600080fd5b610303600480803573ffffffffffffffffffffffffffffffffffffffff16906020019091905050610b21565b005b341561031057600080fd5b610318610c29565b60405180826000191660001916815260200191505060405180910390f35b341561034157600080fd5b610349610eaa565b6040518082815260200191505060405180910390f35b341561036a57600080fd5b610396600480803573ffffffffffffffffffffffffffffffffffffffff16906020019091905050610eb0565b6040518082815260200191505060405180910390f35b34156103b757600080fd5b6103e3600480803573ffffffffffffffffffffffffffffffffffffffff16906020019091905050610efc565b604051808215151515815260200191505060405180910390f35b341561040857600080fd5b61043d600480803590602001909190803573ffffffffffffffffffffffffffffffffffffffff16906020019091905050610f1c565b005b341561044a57600080fd5b6104646004808035600019169060200190919050506110f2565b6040518080602001828103825283818151815260200191508051906020019080838360005b838110156104a4578082015181840152602081019050610489565b50505050905090810190601f1680156104d15780820380516001836020036101000a031916815260200191505b509250505060405180910390f35b6104f8600480803560ff1690602001909190505061120c565b005b341561050557600080fd5b610555600480803590602001908201803590602001908080601f01602080910402602001604051908101604052809392919081815260200183838082843782019150505050505091905050611686565b60405180826000191660001916815260200191505060405180910390f35b341561057e57600080fd5b6105866116f2565b6040518082600681111561059657fe5b60ff16815260200191505060405180910390f35b34156105b557600080fd5b6105e1600480803573ffffffffffffffffffffffffffffffffffffffff16906020019091905050611709565b005b34156105ee57600080fd5b6105f6611811565b6040518082600681111561060657fe5b60ff16815260200191505060405180910390f35b341561062557600080fd5b610651600480803573ffffffffffffffffffffffffffffffffffffffff16906020019091905050611824565b6040518082815260200191505060405180910390f35b610693600480803573ffffffffffffffffffffffffffffffffffffffff16906020019091905050610879565b005b34156106a057600080fd5b6106a861183c565b604051808260028111156106b857fe5b60ff16815260200191505060405180910390f35b34156106d757600080fd5b61073460048080356000191690602001909190803590602001908201803590602001908080601f0160208091040260200160405190810160405280939291908181526020018383808284378201915050505050509190505061184f565b604051808215151515815260200191505060405180910390f35b341561075957600080fd5b6107616118e2565b604051808273ffffffffffffffffffffffffffffffffffffffff1673ffffffffffffffffffffffffffffffffffffffff16815260200191505060405180910390f35b34156107ae57600080fd5b6107fe600480803590602001908201803590602001908080601f01602080910402602001604051908101604052809392919081815260200183838082843782019150505050505091905050611908565b6040518080602001828103825283818151815260200191508051906020019080838360005b8381101561083e578082015181840152602081019050610823565b50505050905090810190601f16801561086b5780820380516001836020036101000a031916815260200191505b509250505060405180910390f35b6001600260146101000a81548160ff0219169083600281111561089857fe5b02179055506108b2346003546119d990919063ffffffff16565b600381905550600560008273ffffffffffffffffffffffffffffffffffffffff1673ffffffffffffffffffffffffffffffffffffffff168152602001908152602001600020805480600101828161090991906119f7565b916000526020600020906004020160006080604051908101604052803373ffffffffffffffffffffffffffffffffffffffff1681526020014281526020013481526020016000815250909190915060008201518160000160006101000a81548173ffffffffffffffffffffffffffffffffffffffff021916908373ffffffffffffffffffffffffffffffffffffffff16021790555060208201518160010155604082015181600201556060820151816003015550505050565b60008060003373ffffffffffffffffffffffffffffffffffffffff1673ffffffffffffffffffffffffffffffffffffffff16815260200190815260200160002060009054906101000a900460ff161515610a1b57600080fd5b610a87836040518082805190602001908083835b602083101515610a545780518252602082019150602081019050602083039250610a2f565b6001836020036101000a03801982511681845116808217855250505050505090500191505060405180910390208361184f565b905092915050565b600160009054906101000a900473ffffffffffffffffffffffffffffffffffffffff1681565b600560205281600052604060002081815481101515610ad057fe5b9060005260206000209060040201600091509150508060000160009054906101000a900473ffffffffffffffffffffffffffffffffffffffff16908060010154908060020154908060030154905084565b6000803373ffffffffffffffffffffffffffffffffffffffff1673ffffffffffffffffffffffffffffffffffffffff16815260200190815260200160002060009054906101000a900460ff161515610b7857600080fd5b6000803373ffffffffffffffffffffffffffffffffffffffff1673ffffffffffffffffffffffffffffffffffffffff16815260200190815260200160002060009054906101000a900460ff161515610bcf57600080fd5b60008060008373ffffffffffffffffffffffffffffffffffffffff1673ffffffffffffffffffffffffffffffffffffffff16815260200190815260200160002060006101000a81548160ff02191690831515021790555050565b6000806006811115610c3757fe5b600260159054906101000a900460ff166006811115610c5257fe5b1415610c80577f50726f766973696f6e696e6700000000000000000000000000000000000000009050610ea7565b60016006811115610c8d57fe5b600260159054906101000a900460ff166006811115610ca857fe5b1415610cd6577f43657274696669656400000000000000000000000000000000000000000000009050610ea7565b60026006811115610ce357fe5b600260159054906101000a900460ff166006811115610cfe57fe5b1415610d2c577f4d6f6469666965640000000000000000000000000000000000000000000000009050610ea7565b60036006811115610d3957fe5b600260159054906101000a900460ff166006811115610d5457fe5b1415610d82577f436f6d70726f6d697365640000000000000000000000000000000000000000009050610ea7565b60046006811115610d8f57fe5b600260159054906101000a900460ff166006811115610daa57fe5b1415610dd8577f4d616c66756e6374696f6e696e670000000000000000000000000000000000009050610ea7565b60056006811115610de557fe5b600260159054906101000a900460ff166006811115610e0057fe5b1415610e2e577f4861726d66756c000000000000000000000000000000000000000000000000009050610ea7565b600680811115610e3a57fe5b600260159054906101000a900460ff166006811115610e5557fe5b1415610e83577f436f756e746572666569740000000000000000000000000000000000000000009050610ea7565b7f436f756e7465726665697400000000000000000000000000000000000000000090505b90565b60035481565b6000600560008373ffffffffffffffffffffffffffffffffffffffff1673ffffffffffffffffffffffffffffffffffffffff168152602001908152602001600020805490509050919050565b60006020528060005260406000206000915054906101000a900460ff1681565b6000803373ffffffffffffffffffffffffffffffffffffffff1673ffffffffffffffffffffffffffffffffffffffff16815260200190815260200160002060009054906101000a900460ff161515610f7357600080fd5b60016002811115610f8057fe5b600260149054906101000a900460ff166002811115610f9b57fe5b141515610fa757600080fd5b8073ffffffffffffffffffffffffffffffffffffffff166108fc839081150290604051600060405180830381858888f193505050501515610fe757600080fd5b600560003073ffffffffffffffffffffffffffffffffffffffff1673ffffffffffffffffffffffffffffffffffffffff168152602001908152602001600020805480600101828161103891906119f7565b916000526020600020906004020160006080604051908101604052808573ffffffffffffffffffffffffffffffffffffffff1681526020014281526020018681526020016001815250909190915060008201518160000160006101000a81548173ffffffffffffffffffffffffffffffffffffffff021916908373ffffffffffffffffffffffffffffffffffffffff1602179055506020820151816001015560408201518160020155606082015181600301555050505050565b6110fa611a29565b6000803373ffffffffffffffffffffffffffffffffffffffff1673ffffffffffffffffffffffffffffffffffffffff16815260200190815260200160002060009054906101000a900460ff16151561115157600080fd5b6006600083600019166000191681526020019081526020016000208054600181600116156101000203166002900480601f0160208091040260200160405190810160405280929190818152602001828054600181600116156101000203166002900480156112005780601f106111d557610100808354040283529160200191611200565b820191906000526020600020905b8154815290600101906020018083116111e357829003601f168201915b50505050509050919050565b80600260156101000a81548160ff0219169083600681111561122a57fe5b0217905550600181600681111561123d57fe5b11156113b157600160009054906101000a900473ffffffffffffffffffffffffffffffffffffffff1673ffffffffffffffffffffffffffffffffffffffff16630d6d3b6e3430337f4865616c74685761726e696e67000000000000000000000000000000000000006000604051602001526040518563ffffffff167c0100000000000000000000000000000000000000000000000000000000028152600401808473ffffffffffffffffffffffffffffffffffffffff1673ffffffffffffffffffffffffffffffffffffffff1681526020018373ffffffffffffffffffffffffffffffffffffffff1673ffffffffffffffffffffffffffffffffffffffff168152602001826000191660001916815260200193505050506020604051808303818588803b151561136c57600080fd5b6125ee5a03f1151561137d57600080fd5b50505050604051805190505060028060146101000a81548160ff021916908360028111156113a757fe5b021790555061151c565b600160009054906101000a900473ffffffffffffffffffffffffffffffffffffffff1673ffffffffffffffffffffffffffffffffffffffff16630d6d3b6e3430337f4865616c746855706461746500000000000000000000000000000000000000006000604051602001526040518563ffffffff167c0100000000000000000000000000000000000000000000000000000000028152600401808473ffffffffffffffffffffffffffffffffffffffff1673ffffffffffffffffffffffffffffffffffffffff1681526020018373ffffffffffffffffffffffffffffffffffffffff1673ffffffffffffffffffffffffffffffffffffffff168152602001826000191660001916815260200193505050506020604051808303818588803b15156114da57600080fd5b6125ee5a03f115156114eb57600080fd5b5050505060405180519050506001600260146101000a81548160ff0219169083600281111561151657fe5b02179055505b7fb6d7372bb54b80a5b1d60d3b1da737719783cc92a2095f10d9195105f7abeca5816040518082600681111561154e57fe5b60ff16815260200191505060405180910390a1611576346003546119d990919063ffffffff16565b600381905550600560003073ffffffffffffffffffffffffffffffffffffffff1673ffffffffffffffffffffffffffffffffffffffff16815260200190815260200160002080548060010182816115cd91906119f7565b916000526020600020906004020160006080604051908101604052803373ffffffffffffffffffffffffffffffffffffffff1681526020014281526020013481526020016000815250909190915060008201518160000160006101000a81548173ffffffffffffffffffffffffffffffffffffffff021916908373ffffffffffffffffffffffffffffffffffffffff16021790555060208201518160010155604082015181600201556060820151816003015550505050565b6000816040518082805190602001908083835b6020831015156116be5780518252602082019150602081019050602083039250611699565b6001836020036101000a03801982511681845116808217855250505050505090500191505060405180910390209050919050565b6000600260159054906101000a900460ff16905090565b6000803373ffffffffffffffffffffffffffffffffffffffff1673ffffffffffffffffffffffffffffffffffffffff16815260200190815260200160002060009054906101000a900460ff16151561176057600080fd5b6000803373ffffffffffffffffffffffffffffffffffffffff1673ffffffffffffffffffffffffffffffffffffffff16815260200190815260200160002060009054906101000a900460ff1615156117b757600080fd5b60016000808373ffffffffffffffffffffffffffffffffffffffff1673ffffffffffffffffffffffffffffffffffffffff16815260200190815260200160002060006101000a81548160ff02191690831515021790555050565b600260159054906101000a900460ff1681565b60046020528060005260406000206000915090505481565b600260149054906101000a900460ff1681565b60008060003373ffffffffffffffffffffffffffffffffffffffff1673ffffffffffffffffffffffffffffffffffffffff16815260200190815260200160002060009054906101000a900460ff1615156118a857600080fd5b8160066000856000191660001916815260200190815260200160002090805190602001906118d7929190611a3d565b506001905092915050565b600260009054906101000a900473ffffffffffffffffffffffffffffffffffffffff1681565b611910611a29565b6000803373ffffffffffffffffffffffffffffffffffffffff1673ffffffffffffffffffffffffffffffffffffffff16815260200190815260200160002060009054906101000a900460ff16151561196757600080fd5b6119d2826040518082805190602001908083835b6020831015156119a0578051825260208201915060208101905060208303925061197b565b6001836020036101000a03801982511681845116808217855250505050505090500191505060405180910390206110f2565b9050919050565b60008082840190508381101515156119ed57fe5b8091505092915050565b815481835581811511611a2457600402816004028360005260206000209182019101611a239190611abd565b5b505050565b602060405190810160405280600081525090565b828054600181600116156101000203166002900490600052602060002090601f016020900481019282601f10611a7e57805160ff1916838001178555611aac565b82800160010185558215611aac579182015b82811115611aab578251825591602001919060010190611a90565b5b509050611ab99190611b1b565b5090565b611b1891905b80821115611b1457600080820160006101000a81549073ffffffffffffffffffffffffffffffffffffffff021916905560018201600090556002820160009055600382016000905550600401611ac3565b5090565b90565b611b3d91905b80821115611b39576000816000905550600101611b21565b5090565b905600a165627a7a72305820b6e7854e658343f2db362ca9c1f8273b4c1c059c83bcc1adffcea0ce4eb99dff0029a165627a7a723058209987c765e7e7ab9a24e1257944e1359c991e54d196f27ba156e7a897fb07bbe40029",
  "source": "pragma solidity ^0.4.18;\n\nimport \"./pki/Key.sol\";\nimport \"./token/MintableToken.sol\";\nimport \"./math/SafeMath.sol\";\n\ncontract SmartKey is MintableToken \n{\n\n    using SafeMath for uint256;    \n    string public name;                                       //name\n    uint8  public decimals;                                   //There could 1000 base units with 3 decimals. \n    string public symbol;                     \n    string public version = 'IoTBlock_SmartKey_0.01';       // version\n    address vault;\n\n    event KeyEvent(address key, address transacting_contract, uint256 eth_amount, bytes32 transaction_name, bytes32 health_status, bytes32 user_health_status);\n    \n    mapping (address => Key) public  smartKeys;\n\n    struct event_transaction {\n        \n        address account;\n        uint256 date;\n        uint256 amount;\n        //uint256 transaction_type;\n        bytes32 transaction_name;\n        bytes32 health_status;\n        bytes32 user_health_status;\n        \n    }\n    \n    mapping (address => event_transaction[]) public events;\n    \n    function SmartKey(uint256 _tokens, uint256 _rate, address[] adminAddress) \n    Administered(adminAddress)\n    MintableToken(_rate)\n    public\n    {\n    \n        admins  = adminAddress;    \n        vault  = admins[0];\n        mint(vault, _tokens);        \n        \n        name = 'IOTBLOCK';                               // Set the name for display purposes\n        decimals = 8;\n        symbol = 'IOTBLOCK';                       \n        \n    }\n    \n    function setVault(address _vault) \n    onlyAdmin \n    public\n    returns (bool) {\n        vault=_vault;\n        return true;                \n    }\n    \n  \n\n    function getBalance(address addr) \n\tpublic\n    view\n    returns(uint) \n    {\n\t\treturn (balances[addr]);\n    }\n\t\t    \n    // @return true if the transaction can buy tokens\n    function validPurchase() internal constant returns (bool) \n    {\n        return msg.value >= 0;\n    }\n\n    // fallback function can be used to buy tokens\n    function () \n    public\n    payable \n    {\n        loadSmartKey(getSmartKey(msg.sender), msg.sender, 'Deposit');\n    }\n    \n    function getSmartKey(address beneficiary) \t\n    public\n    view\n    returns (Key) \n    { \n      \n        return smartKeys[beneficiary];\n        \n    }\n\n    function getEventCount(address _address) \n    view\n    public\n    returns (uint256)\n    {\n       return events[_address].length;\n    }\n\n    function loadSmartKey(Key key, address transacting_contract,  bytes32 transaction_name) \n    public\n    payable \n    returns(bool) \n    {\n            uint256 token=convertToToken(msg.value) + convertToToken(msg.gas);            \n            //require(address(key) != address(0));\n            //require(validPurchase());\n            \n            if (address(key) == address(0) || smartKeys[transacting_contract] == address(0)) \n            {\n                key = new Key(this, transacting_contract); \n                smartKeys[transacting_contract]=key;\n            }\n            \n            bytes32 healthStatus=key.getHealthStatus();\n            bytes32 userHealthStatus=smartKeys[transacting_contract].getHealthStatus();\n\n            KeyEvent(address(key), transacting_contract, token, transaction_name, healthStatus, userHealthStatus);\n            events[address(key)].push(event_transaction(transacting_contract,now, token, transaction_name, healthStatus, userHealthStatus));                        \n        \n            \n            tokenMinted = tokenMinted + token; //.add(token);\n            balances[address(key)] = balances[address(key)].add(token);\n            Transfer(address(0), address(key), token);\n            \n            tokenMinted = tokenMinted + token; //.add(token);\n            balances[address(transacting_contract)] = balances[address(transacting_contract)].add(token);\n            Transfer(address(0), address(transacting_contract), token);\n            \n\n            //mint(address(key), token);\n            key.activateKey.value(msg.value)(address(transacting_contract));\n            \n            return true;\n    }\n        \n    function putSmartKey(Key key, address beneficiary) \n    onlyAdmin\n    public\n    {\n        require(beneficiary != 0x0);\n        \n        if (smartKeys[beneficiary] == address(0)) \n        {\n            smartKeys[beneficiary] = key;\n        }\n        mint(beneficiary, msg.gas);\n        mint(address(key), msg.gas);\n        \n    }\n    \n    function addOwner(address _user) \n    onlyAdmin\n    public\n    {\n        require(_user != 0x0);\n        require(smartKeys[_user] != address(0));\n        smartKeys[_user].addOwner(msg.sender);\n    }\n    \n \n    function transferEth(uint amount, address sender, address beneficiary) \n    public\n    {\n        require(sender != 0x0);\n        require(beneficiary != 0x0);\n        require(smartKeys[sender] != address(0));\n        if (isAdmin[msg.sender] || smartKeys[sender].isOwner(msg.sender)) {\n            smartKeys[sender].transferEth(amount, beneficiary);\n        }\n    }\n\n        \n    function convertToToken(uint256 amount) \n    public\n    view\n    returns (uint256) \n    {\n\t\treturn amount.div(rate);\n    }\n\n}\n",
  "sourcePath": "/windata/iotblock/contracts/SmartKey.sol",
  "compiler": {
    "name": "solc",
    "version": "0.4.19+commit.c4cbbb05.Emscripten.clang"
  },
  "schemaVersion": "2.0.0",
  "updatedAt": "2018-11-20T09:59:30.116Z"
}