{
  "contractName": "User",
  "abi": [
    {
      "inputs": [
        {
          "name": "_key",
          "type": "address"
        },
        {
          "name": "_rsNetwork",
          "type": "address"
        }
      ],
      "payable": false,
      "stateMutability": "nonpayable",
      "type": "constructor"
    },
    {
      "constant": false,
      "inputs": [
        {
          "name": "rsAddress",
          "type": "address"
        },
        {
          "name": "rsType",
          "type": "bytes32"
        },
        {
          "name": "_startTime",
          "type": "uint256"
        },
        {
          "name": "_endTime",
          "type": "uint256"
        },
        {
          "name": "_rate",
          "type": "uint256"
        }
      ],
      "name": "RequestUse",
      "outputs": [],
      "payable": false,
      "stateMutability": "nonpayable",
      "type": "function"
    },
    {
      "constant": false,
      "inputs": [
        {
          "name": "rsAddress",
          "type": "address"
        },
        {
          "name": "rsType",
          "type": "bytes32"
        },
        {
          "name": "_endTime",
          "type": "uint256"
        }
      ],
      "name": "EndUse",
      "outputs": [],
      "payable": false,
      "stateMutability": "nonpayable",
      "type": "function"
    },
    {
      "constant": false,
      "inputs": [
        {
          "name": "rsAdress",
          "type": "address"
        }
      ],
      "name": "GetUsage",
      "outputs": [],
      "payable": false,
      "stateMutability": "nonpayable",
      "type": "function"
    }
  ],
  "bytecode": "0x6060604052341561000f57600080fd5b60405160408061024683398101604052808051906020019091908051906020019091905050816000806101000a81548173ffffffffffffffffffffffffffffffffffffffff021916908373ffffffffffffffffffffffffffffffffffffffff16021790555080600160006101000a81548173ffffffffffffffffffffffffffffffffffffffff021916908373ffffffffffffffffffffffffffffffffffffffff1602179055505050610180806100c66000396000f300606060405260043610610057576000357c0100000000000000000000000000000000000000000000000000000000900463ffffffff1680634b062df91461005c5780635b803637146100bd57806387b83d2f146100f6575b600080fd5b341561006757600080fd5b6100bb600480803573ffffffffffffffffffffffffffffffffffffffff1690602001909190803560001916906020019091908035906020019091908035906020019091908035906020019091905050610145565b005b34156100c857600080fd5b6100f4600480803573ffffffffffffffffffffffffffffffffffffffff1690602001909190505061014c565b005b341561010157600080fd5b610143600480803573ffffffffffffffffffffffffffffffffffffffff169060200190919080356000191690602001909190803590602001909190505061014f565b005b5050505050565b50565b5050505600a165627a7a723058208a302aeaa1c336d1607164f07eda20ca78bc4da478937d6a70638dca8ee934110029",
  "source": "import \"./Network.sol\";\nimport \"../SmartKey.sol\";\npragma solidity ^0.4.11; //We have to specify what version of the compiler this code will use\n\ncontract User {\n  \n  SmartKey key;\n  Network rsNetwork;\n  \n  function User(SmartKey _key, Network _rsNetwork) {\n      key=_key;\n      rsNetwork=_rsNetwork;\n  }\n\n  function RequestUse(address rsAddress, bytes32 rsType, uint256 _startTime, uint256 _endTime, uint256 _rate) {\n      \n  }\n\n  function EndUse(address rsAddress, bytes32 rsType, uint256 _endTime) {\n      \n  }\n\n  function GetUsage(address rsAdress) {\n  }\n  \n\n\n\n}              ",
  "sourcePath": "/windata/iotblock/contracts/resource/User.sol",
  "compiler": {
    "name": "solc",
    "version": "0.4.19+commit.c4cbbb05.Emscripten.clang"
  },
  "schemaVersion": "2.0.0",
  "updatedAt": "2018-11-21T06:28:59.421Z"
}