{
  "contractName": "Whitelisted",
  "abi": [
    {
      "constant": true,
      "inputs": [
        {
          "name": "",
          "type": "uint256"
        }
      ],
      "name": "admins",
      "outputs": [
        {
          "name": "",
          "type": "address"
        }
      ],
      "payable": false,
      "stateMutability": "view",
      "type": "function"
    },
    {
      "constant": true,
      "inputs": [
        {
          "name": "",
          "type": "address"
        }
      ],
      "name": "isAdmin",
      "outputs": [
        {
          "name": "",
          "type": "bool"
        }
      ],
      "payable": false,
      "stateMutability": "view",
      "type": "function"
    },
    {
      "constant": true,
      "inputs": [],
      "name": "getAdmins",
      "outputs": [
        {
          "name": "",
          "type": "address[]"
        }
      ],
      "payable": false,
      "stateMutability": "view",
      "type": "function"
    },
    {
      "constant": true,
      "inputs": [
        {
          "name": "",
          "type": "address"
        }
      ],
      "name": "isWhitelisted",
      "outputs": [
        {
          "name": "",
          "type": "bool"
        }
      ],
      "payable": false,
      "stateMutability": "view",
      "type": "function"
    },
    {
      "constant": false,
      "inputs": [
        {
          "name": "admin",
          "type": "address"
        }
      ],
      "name": "addAdmin",
      "outputs": [],
      "payable": false,
      "stateMutability": "nonpayable",
      "type": "function"
    },
    {
      "constant": true,
      "inputs": [
        {
          "name": "",
          "type": "uint256"
        }
      ],
      "name": "whitelist",
      "outputs": [
        {
          "name": "",
          "type": "address"
        }
      ],
      "payable": false,
      "stateMutability": "view",
      "type": "function"
    },
    {
      "constant": false,
      "inputs": [
        {
          "name": "banned",
          "type": "address"
        }
      ],
      "name": "addBanned",
      "outputs": [],
      "payable": false,
      "stateMutability": "nonpayable",
      "type": "function"
    },
    {
      "inputs": [
        {
          "name": "adminAddress",
          "type": "address[]"
        },
        {
          "name": "whitelistAddress",
          "type": "address[]"
        }
      ],
      "payable": false,
      "stateMutability": "nonpayable",
      "type": "constructor"
    },
    {
      "constant": false,
      "inputs": [
        {
          "name": "_whitelistAddress",
          "type": "address"
        }
      ],
      "name": "addWhitelist",
      "outputs": [],
      "payable": false,
      "stateMutability": "nonpayable",
      "type": "function"
    },
    {
      "constant": false,
      "inputs": [
        {
          "name": "_user",
          "type": "address"
        }
      ],
      "name": "removeWhitelist",
      "outputs": [],
      "payable": false,
      "stateMutability": "nonpayable",
      "type": "function"
    },
    {
      "constant": true,
      "inputs": [],
      "name": "getWhitelist",
      "outputs": [
        {
          "name": "",
          "type": "address[]"
        }
      ],
      "payable": false,
      "stateMutability": "view",
      "type": "function"
    }
  ],
  "bytecode": "0x606060405234156200001057600080fd5b60405162000eef38038062000eef8339810160405280805182019190602001805182019190505060008260008090505b8151811015620000c757600160008084848151811015156200005e57fe5b9060200190602002015173ffffffffffffffffffffffffffffffffffffffff1673ffffffffffffffffffffffffffffffffffffffff16815260200190815260200160002060006101000a81548160ff021916908315150217905550808060010191505062000040565b8160019080519060200190620000df929190620001d9565b505050600082511115620001b457600090505b81518110156200017a5760016002600084848151811015156200011157fe5b9060200190602002015173ffffffffffffffffffffffffffffffffffffffff1673ffffffffffffffffffffffffffffffffffffffff16815260200190815260200160002060006101000a81548160ff0219169083151502179055508080600101915050620000f2565b816003908051906020019062000192929190620001d9565b506001600460006101000a81548160ff021916908315150217905550620001d0565b6000600460006101000a81548160ff0219169083151502179055505b505050620002ae565b82805482825590600052602060002090810192821562000255579160200282015b82811115620002545782518260006101000a81548173ffffffffffffffffffffffffffffffffffffffff021916908373ffffffffffffffffffffffffffffffffffffffff16021790555091602001919060010190620001fa565b5b50905062000264919062000268565b5090565b620002ab91905b80821115620002a757600081816101000a81549073ffffffffffffffffffffffffffffffffffffffff0219169055506001016200026f565b5090565b90565b610c3180620002be6000396000f3006060604052600436106100a4576000357c0100000000000000000000000000000000000000000000000000000000900463ffffffff16806314bfd6d0146100a957806324d7806c1461010c57806331ae450b1461015d5780633af32abf146101c7578063704802751461021857806378c8cda7146102515780637ebd1b301461028a578063d01f63f5146102ed578063e1b2e8b314610357578063f80f5dd514610390575b600080fd5b34156100b457600080fd5b6100ca60048080359060200190919050506103c9565b604051808273ffffffffffffffffffffffffffffffffffffffff1673ffffffffffffffffffffffffffffffffffffffff16815260200191505060405180910390f35b341561011757600080fd5b610143600480803573ffffffffffffffffffffffffffffffffffffffff16906020019091905050610408565b604051808215151515815260200191505060405180910390f35b341561016857600080fd5b610170610428565b6040518080602001828103825283818151815260200191508051906020019060200280838360005b838110156101b3578082015181840152602081019050610198565b505050509050019250505060405180910390f35b34156101d257600080fd5b6101fe600480803573ffffffffffffffffffffffffffffffffffffffff169060200190919050506104bc565b604051808215151515815260200191505060405180910390f35b341561022357600080fd5b61024f600480803573ffffffffffffffffffffffffffffffffffffffff169060200190919050506104dc565b005b341561025c57600080fd5b610288600480803573ffffffffffffffffffffffffffffffffffffffff16906020019091905050610647565b005b341561029557600080fd5b6102ab60048080359060200190919050506107c7565b604051808273ffffffffffffffffffffffffffffffffffffffff1673ffffffffffffffffffffffffffffffffffffffff16815260200191505060405180910390f35b34156102f857600080fd5b610300610806565b6040518080602001828103825283818151815260200191508051906020019060200280838360005b83811015610343578082015181840152602081019050610328565b505050509050019250505060405180910390f35b341561036257600080fd5b61038e600480803573ffffffffffffffffffffffffffffffffffffffff1690602001909190505061089a565b005b341561039b57600080fd5b6103c7600480803573ffffffffffffffffffffffffffffffffffffffff16906020019091905050610a70565b005b6001818154811015156103d857fe5b90600052602060002090016000915054906101000a900473ffffffffffffffffffffffffffffffffffffffff1681565b60006020528060005260406000206000915054906101000a900460ff1681565b610430610ba0565b60018054806020026020016040519081016040528092919081815260200182805480156104b257602002820191906000526020600020905b8160009054906101000a900473ffffffffffffffffffffffffffffffffffffffff1673ffffffffffffffffffffffffffffffffffffffff1681526020019060010190808311610468575b5050505050905090565b60026020528060005260406000206000915054906101000a900460ff1681565b6000803373ffffffffffffffffffffffffffffffffffffffff1673ffffffffffffffffffffffffffffffffffffffff16815260200190815260200160002060009054906101000a900460ff16151561053357600080fd5b6000803373ffffffffffffffffffffffffffffffffffffffff1673ffffffffffffffffffffffffffffffffffffffff16815260200190815260200160002060009054906101000a900460ff16151561058a57600080fd5b60016000808373ffffffffffffffffffffffffffffffffffffffff1673ffffffffffffffffffffffffffffffffffffffff16815260200190815260200160002060006101000a81548160ff021916908315150217905550600180548060010182816105f59190610bb4565b9160005260206000209001600083909190916101000a81548173ffffffffffffffffffffffffffffffffffffffff021916908373ffffffffffffffffffffffffffffffffffffffff1602179055505050565b60008060003373ffffffffffffffffffffffffffffffffffffffff1673ffffffffffffffffffffffffffffffffffffffff16815260200190815260200160002060009054906101000a900460ff1615156106a057600080fd5b6000600260008473ffffffffffffffffffffffffffffffffffffffff1673ffffffffffffffffffffffffffffffffffffffff16815260200190815260200160002060006101000a81548160ff021916908315150217905550600090505b6003805490508110156107c35760038181548110151561071957fe5b906000526020600020900160009054906101000a900473ffffffffffffffffffffffffffffffffffffffff1673ffffffffffffffffffffffffffffffffffffffff168273ffffffffffffffffffffffffffffffffffffffff1614156107b65760038181548110151561078757fe5b906000526020600020900160006101000a81549073ffffffffffffffffffffffffffffffffffffffff02191690555b80806001019150506106fd565b5050565b6003818154811015156107d657fe5b90600052602060002090016000915054906101000a900473ffffffffffffffffffffffffffffffffffffffff1681565b61080e610ba0565b600380548060200260200160405190810160405280929190818152602001828054801561089057602002820191906000526020600020905b8160009054906101000a900473ffffffffffffffffffffffffffffffffffffffff1673ffffffffffffffffffffffffffffffffffffffff1681526020019060010190808311610846575b5050505050905090565b60008060003373ffffffffffffffffffffffffffffffffffffffff1673ffffffffffffffffffffffffffffffffffffffff16815260200190815260200160002060009054906101000a900460ff1615156108f357600080fd5b6000803373ffffffffffffffffffffffffffffffffffffffff1673ffffffffffffffffffffffffffffffffffffffff16815260200190815260200160002060009054906101000a900460ff16151561094a57600080fd5b60008060008473ffffffffffffffffffffffffffffffffffffffff1673ffffffffffffffffffffffffffffffffffffffff16815260200190815260200160002060006101000a81548160ff021916908315150217905550600090505b600180549050811015610a6c576001818154811015156109c257fe5b906000526020600020900160009054906101000a900473ffffffffffffffffffffffffffffffffffffffff1673ffffffffffffffffffffffffffffffffffffffff168273ffffffffffffffffffffffffffffffffffffffff161415610a5f57600181815481101515610a3057fe5b906000526020600020900160006101000a81549073ffffffffffffffffffffffffffffffffffffffff02191690555b80806001019150506109a6565b5050565b6000803373ffffffffffffffffffffffffffffffffffffffff1673ffffffffffffffffffffffffffffffffffffffff16815260200190815260200160002060009054906101000a900460ff161515610ac757600080fd5b6001600260008373ffffffffffffffffffffffffffffffffffffffff1673ffffffffffffffffffffffffffffffffffffffff16815260200190815260200160002060006101000a81548160ff02191690831515021790555060038054806001018281610b339190610bb4565b9160005260206000209001600083909190916101000a81548173ffffffffffffffffffffffffffffffffffffffff021916908373ffffffffffffffffffffffffffffffffffffffff160217905550506001600460006101000a81548160ff02191690831515021790555050565b602060405190810160405280600081525090565b815481835581811511610bdb57818360005260206000209182019101610bda9190610be0565b5b505050565b610c0291905b80821115610bfe576000816000905550600101610be6565b5090565b905600a165627a7a723058203ec8fdf47efe4c5e29b7c01f2d0fc2c5ef4bd0a4d4d56bbde78722096b45000e0029",
  "source": "pragma solidity ^0.4.18; //We have to specify what version of the compiler this code will use\n\nimport './Administered.sol';\n\n/**\n * @title Whitelist\n * @dev The Whitelist contract has Whitelist addresses, and provides basic authorization control\n * functions, this simplifies the implementation of \"user permissions\".\n */\ncontract Whitelisted is Administered {\n  mapping (address => bool) public isWhitelisted;\n  address[] public whitelist;\n  bool hasWhitelist;\n\n  /**\n   * @dev The Ownable constructor sets the original `owner` of the contract to the sender\n   * account.\n   */\n  function Whitelisted(address[] adminAddress, address[] whitelistAddress) \n  Administered(adminAddress)\n  public\n  {\n    if (whitelistAddress.length > 0) {\n        for (uint i=0; i < whitelistAddress.length; i++) {\n            isWhitelisted[whitelistAddress[i]]=true;\n        } \n        whitelist=whitelistAddress;\n        hasWhitelist=true;\n    } else {\n        hasWhitelist=false;\n    }\n  }\n\n\n  /**\n   * @dev Throws if called by any account other than the owner.\n   */\n  modifier onlyWhitelist() \n  {    \n    require(!hasWhitelist || isWhitelisted[msg.sender]);\n    _;\n  }\n  \n  function addWhitelist(address _whitelistAddress) \n  public\n  onlyAdmin\n  {\n        isWhitelisted[_whitelistAddress]=true;\n        whitelist.push(_whitelistAddress);\n        hasWhitelist=true;\n  }\n\n  function removeWhitelist(address _user) \n  public\n  onlyAdmin\n  {\n        isWhitelisted[_user]=false;\n        for (uint i=0; i < whitelist.length; i++) {\n            if (_user==whitelist[i]) {\n                delete whitelist[i];\n            }\n        } \n        \n  }\n  \n\n  function getWhitelist() \n  public\n  constant \n  returns (address[]) \n  {\n        //require(isWhitelisted[msg.sender]);\n        //require(!isBanned[msg.sender]);\n        return whitelist;\n  }\n\n\n}\n",
  "sourcePath": "/windata/iotblock/contracts/admin/Whitelisted.sol",
  "compiler": {
    "name": "solc",
    "version": "0.4.19+commit.c4cbbb05.Emscripten.clang"
  },
  "schemaVersion": "2.0.0",
  "updatedAt": "2018-11-21T11:31:57.926Z"
}